{
  "address": "0x1971af5C4AEF0fb6C3E092be654e4e2c1beDbE6A",
  "abi": [
    {
      "inputs": [
        {
          "internalType": "contract IForwarderRegistry",
          "name": "forwarderRegistry",
          "type": "address"
        }
      ],
      "stateMutability": "nonpayable",
      "type": "constructor"
    },
    {
      "inputs": [
        {
          "internalType": "address",
          "name": "account",
          "type": "address"
        }
      ],
      "name": "NotContractOwner",
      "type": "error"
    },
    {
      "inputs": [
        {
          "internalType": "bytes32",
          "name": "role",
          "type": "bytes32"
        },
        {
          "internalType": "address",
          "name": "account",
          "type": "address"
        }
      ],
      "name": "NotRoleHolder",
      "type": "error"
    },
    {
      "anonymous": false,
      "inputs": [
        {
          "indexed": false,
          "internalType": "bytes32",
          "name": "role",
          "type": "bytes32"
        },
        {
          "indexed": false,
          "internalType": "address",
          "name": "account",
          "type": "address"
        },
        {
          "indexed": false,
          "internalType": "address",
          "name": "operator",
          "type": "address"
        }
      ],
      "name": "RoleGranted",
      "type": "event"
    },
    {
      "anonymous": false,
      "inputs": [
        {
          "indexed": false,
          "internalType": "bytes32",
          "name": "role",
          "type": "bytes32"
        },
        {
          "indexed": false,
          "internalType": "address",
          "name": "account",
          "type": "address"
        },
        {
          "indexed": false,
          "internalType": "address",
          "name": "operator",
          "type": "address"
        }
      ],
      "name": "RoleRevoked",
      "type": "event"
    },
    {
      "inputs": [
        {
          "internalType": "bytes32",
          "name": "role",
          "type": "bytes32"
        },
        {
          "internalType": "address",
          "name": "account",
          "type": "address"
        }
      ],
      "name": "grantRole",
      "outputs": [],
      "stateMutability": "nonpayable",
      "type": "function"
    },
    {
      "inputs": [
        {
          "internalType": "bytes32",
          "name": "role",
          "type": "bytes32"
        },
        {
          "internalType": "address",
          "name": "account",
          "type": "address"
        }
      ],
      "name": "hasRole",
      "outputs": [
        {
          "internalType": "bool",
          "name": "hasRole_",
          "type": "bool"
        }
      ],
      "stateMutability": "view",
      "type": "function"
    },
    {
      "inputs": [
        {
          "internalType": "bytes32",
          "name": "role",
          "type": "bytes32"
        }
      ],
      "name": "renounceRole",
      "outputs": [],
      "stateMutability": "nonpayable",
      "type": "function"
    },
    {
      "inputs": [
        {
          "internalType": "bytes32",
          "name": "role",
          "type": "bytes32"
        },
        {
          "internalType": "address",
          "name": "account",
          "type": "address"
        }
      ],
      "name": "revokeRole",
      "outputs": [],
      "stateMutability": "nonpayable",
      "type": "function"
    }
  ],
  "transactionHash": "0x18f373d6ed60a7fde0a389c6d007af51e12161ec5305c2d197f198a429795798",
  "args": [
    "0x316a472D084489CB6d4C66e5eB62aE3AdA17521e"
  ],
  "numDeployments": 1,
  "solcInputHash": "84bab0eb3356c2e3bedca0f2f5a163c5",
  "bytecode": "0x60a0604052348015600f57600080fd5b50604051610803380380610803833981016040819052602c91603c565b6001600160a01b0316608052606a565b600060208284031215604d57600080fd5b81516001600160a01b0381168114606357600080fd5b9392505050565b60805161077761008c600039600081816104ec015261057a01526107776000f3fe608060405234801561001057600080fd5b506004361061004c5760003560e01c80632f2ff15d146100515780638bb9c5bf1461006657806391d1485414610079578063d547741f146100a0575b600080fd5b61006461005f36600461067c565b6100b3565b005b6100646100743660046106c5565b6100ec565b61008c61008736600461067c565b61010a565b604051901515815260200160405180910390f35b6100646100ae36600461067c565b610157565b60006100bd610185565b90506100d1816100cb610194565b906101c2565b6100e78383836100df610236565b929190610264565b505050565b6101076100f7610185565b82610100610236565b919061033b565b50565b600061014e8383610119610236565b60009283526020908152604080842073ffffffffffffffffffffffffffffffffffffffff909316845291905290205460ff1690565b90505b92915050565b6000610161610185565b905061016f816100cb610194565b6100e783838361017d610236565b9291906103df565b600061018f6104a9565b905090565b60008061015160017fc9ed16f33ab3a66c84bfd83099ccb2a8845871e2e1c1928f63797152f0fd54cd6106de565b815473ffffffffffffffffffffffffffffffffffffffff828116911614610232576040517f2ef4875e00000000000000000000000000000000000000000000000000000000815273ffffffffffffffffffffffffffffffffffffffff821660048201526024015b60405180910390fd5b5050565b60008061015160017fc8827d3282af6f37b64c3e9e6f3ac9df286ab0bb0fccd6f8661bf19adb368b236106de565b60008381526020858152604080832073ffffffffffffffffffffffffffffffffffffffff8616845290915290205460ff166103355760008381526020858152604080832073ffffffffffffffffffffffffffffffffffffffff8681168086529184529382902080547fffffffffffffffffffffffffffffffffffffffffffffffffffffffffffffff00166001179055815187815292830152918316918101919091527f2f8788117e7eff1d82e926ec794901d17c78024a50270940304540a733656f0d906060015b60405180910390a15b50505050565b6103468382846105f6565b60008181526020848152604080832073ffffffffffffffffffffffffffffffffffffffff86168085529083529281902080547fffffffffffffffffffffffffffffffffffffffffffffffffffffffffffffff0016905580518481529182018390528101919091527ff6391f5c32d9c69d2a47ea670b442974b53935d1edc7fd64eb21e047a839171b9060600160405180910390a1505050565b60008381526020858152604080832073ffffffffffffffffffffffffffffffffffffffff8616845290915290205460ff16156103355760008381526020858152604080832073ffffffffffffffffffffffffffffffffffffffff8681168086529184529382902080547fffffffffffffffffffffffffffffffffffffffffffffffffffffffffffffff00169055815187815292830152918316918101919091527ff6391f5c32d9c69d2a47ea670b442974b53935d1edc7fd64eb21e047a839171b9060600161032c565b6000333214806104b95750601836105b156104c357503390565b7fffffffffffffffffffffffffffffffffffffffffffffffffffffffffffffffec36013560601c7f000000000000000000000000000000000000000000000000000000000000000073ffffffffffffffffffffffffffffffffffffffff163314806105e557506040517f019a202800000000000000000000000000000000000000000000000000000000815273ffffffffffffffffffffffffffffffffffffffff82811660048301523360248301523060448301527f0000000000000000000000000000000000000000000000000000000000000000169063019a202890606401602060405180830381865afa1580156105c1573d6000803e3d6000fd5b505050506040513d601f19601f820116820180604052508101906105e59190610718565b156105ef57919050565b3391505090565b60008281526020848152604080832073ffffffffffffffffffffffffffffffffffffffff8516845290915290205460ff166100e7576040517f7aa728820000000000000000000000000000000000000000000000000000000081526004810183905273ffffffffffffffffffffffffffffffffffffffff82166024820152604401610229565b6000806040838503121561068f57600080fd5b82359150602083013573ffffffffffffffffffffffffffffffffffffffff811681146106ba57600080fd5b809150509250929050565b6000602082840312156106d757600080fd5b5035919050565b81810381811115610151577f4e487b7100000000000000000000000000000000000000000000000000000000600052601160045260246000fd5b60006020828403121561072a57600080fd5b8151801515811461073a57600080fd5b939250505056fea2646970667358221220643d49fc711f301582fafd3ce0f56d6a1259106c61978a24e0a4b8d7d1b4107164736f6c634300081c0033",
  "devdoc": {
    "details": "This contract is to be used as a diamond facet (see ERC2535 Diamond Standard https://eips.ethereum.org/EIPS/eip-2535).Note: This facet depends on {ContractOwnershipFacet}.",
    "errors": {
      "NotContractOwner(address)": [
        {
          "params": {
            "account": "The account that was checked."
          }
        }
      ],
      "NotRoleHolder(bytes32,address)": [
        {
          "params": {
            "account": "The account that was checked.",
            "role": "The role the caller is missing."
          }
        }
      ]
    },
    "events": {
      "RoleGranted(bytes32,address,address)": {
        "params": {
          "account": "The account that has been granted the role.",
          "operator": "The account that granted the role.",
          "role": "The role that has been granted."
        }
      },
      "RoleRevoked(bytes32,address,address)": {
        "params": {
          "account": "The account that has been revoked the role.",
          "operator": "The account that revoked the role.",
          "role": "The role that has been revoked."
        }
      }
    },
    "kind": "dev",
    "methods": {
      "grantRole(bytes32,address)": {
        "details": "Reverts with {NotContractOwner} if the sender is not the contract owner.Emits a {RoleGranted} event if the account did not previously have the role.",
        "params": {
          "account": "The account to grant the role to.",
          "role": "The role to grant."
        }
      },
      "hasRole(bytes32,address)": {
        "params": {
          "account": "The account.",
          "role": "The role."
        },
        "returns": {
          "hasRole_": "Whether `account` has `role`."
        }
      },
      "renounceRole(bytes32)": {
        "details": "Reverts if `sender` does not have `role`.Emits a {RoleRevoked} event.",
        "params": {
          "role": "The role to renounce."
        }
      },
      "revokeRole(bytes32,address)": {
        "details": "Reverts with {NotContractOwner} if the sender is not the contract owner.Emits a {RoleRevoked} event if the account previously had the role.",
        "params": {
          "account": "The account to revoke the role from.",
          "role": "The role to revoke."
        }
      }
    },
    "title": "Access control via roles management (facet version).",
    "version": 1
  },
  "userdoc": {
    "errors": {
      "NotContractOwner(address)": [
        {
          "notice": "Thrown when an account is not the contract owner but is required to."
        }
      ],
      "NotRoleHolder(bytes32,address)": [
        {
          "notice": "Thrown when an account does not have the required role."
        }
      ]
    },
    "events": {
      "RoleGranted(bytes32,address,address)": {
        "notice": "Emitted when `role` is granted to `account`."
      },
      "RoleRevoked(bytes32,address,address)": {
        "notice": "Emitted when `role` is revoked from `account`."
      }
    },
    "kind": "user",
    "methods": {
      "grantRole(bytes32,address)": {
        "notice": "Grants a role to an account."
      },
      "hasRole(bytes32,address)": {
        "notice": "Retrieves whether an account has a role."
      },
      "renounceRole(bytes32)": {
        "notice": "Renounces a role by the sender."
      },
      "revokeRole(bytes32,address)": {
        "notice": "Revokes a role from an account."
      }
    },
    "version": 1
  },
  "storageLayout": {
    "storage": [],
    "types": null
  }
}