{
  "address": "0x4e42f0adEB69203ef7AaA4B7c414e5b1331c14dc",
  "abi": [
    {
      "inputs": [
        {
          "internalType": "address",
          "name": "_link",
          "type": "address"
        },
        {
          "internalType": "address",
          "name": "_linkEthFeed",
          "type": "address"
        },
        {
          "internalType": "address",
          "name": "_coordinator",
          "type": "address"
        }
      ],
      "stateMutability": "nonpayable",
      "type": "constructor"
    },
    {
      "inputs": [
        {
          "internalType": "address",
          "name": "have",
          "type": "address"
        },
        {
          "internalType": "address",
          "name": "want",
          "type": "address"
        }
      ],
      "name": "OnlyCoordinatorCanFulfill",
      "type": "error"
    },
    {
      "anonymous": false,
      "inputs": [
        {
          "indexed": true,
          "internalType": "address",
          "name": "from",
          "type": "address"
        },
        {
          "indexed": true,
          "internalType": "address",
          "name": "to",
          "type": "address"
        }
      ],
      "name": "OwnershipTransferRequested",
      "type": "event"
    },
    {
      "anonymous": false,
      "inputs": [
        {
          "indexed": true,
          "internalType": "address",
          "name": "from",
          "type": "address"
        },
        {
          "indexed": true,
          "internalType": "address",
          "name": "to",
          "type": "address"
        }
      ],
      "name": "OwnershipTransferred",
      "type": "event"
    },
    {
      "anonymous": false,
      "inputs": [
        {
          "indexed": true,
          "internalType": "uint256",
          "name": "requestId",
          "type": "uint256"
        },
        {
          "indexed": true,
          "internalType": "address",
          "name": "consumer",
          "type": "address"
        }
      ],
      "name": "WrapperFulfillmentFailed",
      "type": "event"
    },
    {
      "inputs": [],
      "name": "COORDINATOR",
      "outputs": [
        {
          "internalType": "contract ExtendedVRFCoordinatorV2Interface",
          "name": "",
          "type": "address"
        }
      ],
      "stateMutability": "view",
      "type": "function"
    },
    {
      "inputs": [],
      "name": "LINK",
      "outputs": [
        {
          "internalType": "contract LinkTokenInterface",
          "name": "",
          "type": "address"
        }
      ],
      "stateMutability": "view",
      "type": "function"
    },
    {
      "inputs": [],
      "name": "LINK_ETH_FEED",
      "outputs": [
        {
          "internalType": "contract AggregatorV3Interface",
          "name": "",
          "type": "address"
        }
      ],
      "stateMutability": "view",
      "type": "function"
    },
    {
      "inputs": [],
      "name": "SUBSCRIPTION_ID",
      "outputs": [
        {
          "internalType": "uint64",
          "name": "",
          "type": "uint64"
        }
      ],
      "stateMutability": "view",
      "type": "function"
    },
    {
      "inputs": [],
      "name": "acceptOwnership",
      "outputs": [],
      "stateMutability": "nonpayable",
      "type": "function"
    },
    {
      "inputs": [
        {
          "internalType": "uint32",
          "name": "_callbackGasLimit",
          "type": "uint32"
        }
      ],
      "name": "calculateRequestPrice",
      "outputs": [
        {
          "internalType": "uint256",
          "name": "",
          "type": "uint256"
        }
      ],
      "stateMutability": "view",
      "type": "function"
    },
    {
      "inputs": [],
      "name": "disable",
      "outputs": [],
      "stateMutability": "nonpayable",
      "type": "function"
    },
    {
      "inputs": [],
      "name": "enable",
      "outputs": [],
      "stateMutability": "nonpayable",
      "type": "function"
    },
    {
      "inputs": [
        {
          "internalType": "uint32",
          "name": "_callbackGasLimit",
          "type": "uint32"
        },
        {
          "internalType": "uint256",
          "name": "_requestGasPriceWei",
          "type": "uint256"
        }
      ],
      "name": "estimateRequestPrice",
      "outputs": [
        {
          "internalType": "uint256",
          "name": "",
          "type": "uint256"
        }
      ],
      "stateMutability": "view",
      "type": "function"
    },
    {
      "inputs": [],
      "name": "getConfig",
      "outputs": [
        {
          "internalType": "int256",
          "name": "fallbackWeiPerUnitLink",
          "type": "int256"
        },
        {
          "internalType": "uint32",
          "name": "stalenessSeconds",
          "type": "uint32"
        },
        {
          "internalType": "uint32",
          "name": "fulfillmentFlatFeeLinkPPM",
          "type": "uint32"
        },
        {
          "internalType": "uint32",
          "name": "wrapperGasOverhead",
          "type": "uint32"
        },
        {
          "internalType": "uint32",
          "name": "coordinatorGasOverhead",
          "type": "uint32"
        },
        {
          "internalType": "uint8",
          "name": "wrapperPremiumPercentage",
          "type": "uint8"
        },
        {
          "internalType": "bytes32",
          "name": "keyHash",
          "type": "bytes32"
        },
        {
          "internalType": "uint8",
          "name": "maxNumWords",
          "type": "uint8"
        }
      ],
      "stateMutability": "view",
      "type": "function"
    },
    {
      "inputs": [],
      "name": "lastRequestId",
      "outputs": [
        {
          "internalType": "uint256",
          "name": "",
          "type": "uint256"
        }
      ],
      "stateMutability": "view",
      "type": "function"
    },
    {
      "inputs": [
        {
          "internalType": "address",
          "name": "_sender",
          "type": "address"
        },
        {
          "internalType": "uint256",
          "name": "_amount",
          "type": "uint256"
        },
        {
          "internalType": "bytes",
          "name": "_data",
          "type": "bytes"
        }
      ],
      "name": "onTokenTransfer",
      "outputs": [],
      "stateMutability": "nonpayable",
      "type": "function"
    },
    {
      "inputs": [],
      "name": "owner",
      "outputs": [
        {
          "internalType": "address",
          "name": "",
          "type": "address"
        }
      ],
      "stateMutability": "view",
      "type": "function"
    },
    {
      "inputs": [
        {
          "internalType": "uint256",
          "name": "requestId",
          "type": "uint256"
        },
        {
          "internalType": "uint256[]",
          "name": "randomWords",
          "type": "uint256[]"
        }
      ],
      "name": "rawFulfillRandomWords",
      "outputs": [],
      "stateMutability": "nonpayable",
      "type": "function"
    },
    {
      "inputs": [
        {
          "internalType": "uint256",
          "name": "",
          "type": "uint256"
        }
      ],
      "name": "s_callbacks",
      "outputs": [
        {
          "internalType": "address",
          "name": "callbackAddress",
          "type": "address"
        },
        {
          "internalType": "uint32",
          "name": "callbackGasLimit",
          "type": "uint32"
        },
        {
          "internalType": "uint256",
          "name": "requestGasPrice",
          "type": "uint256"
        },
        {
          "internalType": "int256",
          "name": "requestWeiPerUnitLink",
          "type": "int256"
        },
        {
          "internalType": "uint256",
          "name": "juelsPaid",
          "type": "uint256"
        }
      ],
      "stateMutability": "view",
      "type": "function"
    },
    {
      "inputs": [],
      "name": "s_configured",
      "outputs": [
        {
          "internalType": "bool",
          "name": "",
          "type": "bool"
        }
      ],
      "stateMutability": "view",
      "type": "function"
    },
    {
      "inputs": [],
      "name": "s_disabled",
      "outputs": [
        {
          "internalType": "bool",
          "name": "",
          "type": "bool"
        }
      ],
      "stateMutability": "view",
      "type": "function"
    },
    {
      "inputs": [],
      "name": "s_fulfillmentTxSizeBytes",
      "outputs": [
        {
          "internalType": "uint32",
          "name": "",
          "type": "uint32"
        }
      ],
      "stateMutability": "view",
      "type": "function"
    },
    {
      "inputs": [
        {
          "internalType": "uint32",
          "name": "_wrapperGasOverhead",
          "type": "uint32"
        },
        {
          "internalType": "uint32",
          "name": "_coordinatorGasOverhead",
          "type": "uint32"
        },
        {
          "internalType": "uint8",
          "name": "_wrapperPremiumPercentage",
          "type": "uint8"
        },
        {
          "internalType": "bytes32",
          "name": "_keyHash",
          "type": "bytes32"
        },
        {
          "internalType": "uint8",
          "name": "_maxNumWords",
          "type": "uint8"
        }
      ],
      "name": "setConfig",
      "outputs": [],
      "stateMutability": "nonpayable",
      "type": "function"
    },
    {
      "inputs": [
        {
          "internalType": "uint32",
          "name": "size",
          "type": "uint32"
        }
      ],
      "name": "setFulfillmentTxSize",
      "outputs": [],
      "stateMutability": "nonpayable",
      "type": "function"
    },
    {
      "inputs": [
        {
          "internalType": "address",
          "name": "to",
          "type": "address"
        }
      ],
      "name": "transferOwnership",
      "outputs": [],
      "stateMutability": "nonpayable",
      "type": "function"
    },
    {
      "inputs": [],
      "name": "typeAndVersion",
      "outputs": [
        {
          "internalType": "string",
          "name": "",
          "type": "string"
        }
      ],
      "stateMutability": "pure",
      "type": "function"
    },
    {
      "inputs": [
        {
          "internalType": "address",
          "name": "_recipient",
          "type": "address"
        },
        {
          "internalType": "uint256",
          "name": "_amount",
          "type": "uint256"
        }
      ],
      "name": "withdraw",
      "outputs": [],
      "stateMutability": "nonpayable",
      "type": "function"
    }
  ],
  "bytecode": "0x6101206040526001805463ffffffff60a01b1916609160a21b1790553480156200002857600080fd5b50604051620024de380380620024de8339810160408190526200004b91620002a8565b803380600081620000a35760405162461bcd60e51b815260206004820152601860248201527f43616e6e6f7420736574206f776e657220746f207a65726f000000000000000060448201526064015b60405180910390fd5b600080546001600160a01b0319166001600160a01b0384811691909117909155811615620000d657620000d681620001e0565b5050506001600160a01b0390811660805283811660a05282811660c052811660e08190526040805163288688f960e21b815290516000929163a21a23e4916004808301926020929190829003018187875af11580156200013a573d6000803e3d6000fd5b505050506040513d601f19601f82011682018060405250810190620001609190620002f2565b6001600160401b038116610100819052604051631cd0704360e21b815260048101919091523060248201529091506001600160a01b03831690637341c10c90604401600060405180830381600087803b158015620001bd57600080fd5b505af1158015620001d2573d6000803e3d6000fd5b505050505050505062000324565b336001600160a01b038216036200023a5760405162461bcd60e51b815260206004820152601760248201527f43616e6e6f74207472616e7366657220746f2073656c6600000000000000000060448201526064016200009a565b600180546001600160a01b0319166001600160a01b0383811691821790925560008054604051929316917fed8889f560326eb138920d842192f0eb3dd22b4f139c87a2c57538e05bae12789190a350565b80516001600160a01b0381168114620002a357600080fd5b919050565b600080600060608486031215620002be57600080fd5b620002c9846200028b565b9250620002d9602085016200028b565b9150620002e9604085016200028b565b90509250925092565b6000602082840312156200030557600080fd5b81516001600160401b03811681146200031d57600080fd5b9392505050565b60805160a05160c05160e05161010051612136620003a8600039600081816101970152610c5701526000818161028401528181610c1801528181610fdf015281816110b1015261113d0152600081816103fd01526115d301526000818161021b01528181610a6a015261128001526000818161055801526105c001526121366000f3fe608060405234801561001057600080fd5b506004361061018d5760003560e01c80638da5cb5b116100e3578063c15ce4d71161008c578063f2fde38b11610066578063f2fde38b14610511578063f3fef3a314610524578063fc2a88c31461053757600080fd5b8063c15ce4d714610432578063c3f909d414610445578063cdd8d885146104d457600080fd5b8063a608a1e1116100bd578063a608a1e1146103e6578063ad178361146103f8578063bf17e5591461041f57600080fd5b80638da5cb5b146103ad578063a3907d71146103cb578063a4c0ed36146103d357600080fd5b80633b2bcbf11161014557806357a8070a1161011f57806357a8070a1461037557806379ba5097146103925780637fb5d19d1461039a57600080fd5b80633b2bcbf11461027f5780634306d354146102a657806348baa1c5146102c757600080fd5b80631b6b6d23116101765780631b6b6d23146102165780631fe543e3146102625780632f2770db1461027757600080fd5b8063030932bb14610192578063181f5a77146101d7575b600080fd5b6101b97f000000000000000000000000000000000000000000000000000000000000000081565b60405167ffffffffffffffff90911681526020015b60405180910390f35b604080518082018252601281527f56524656325772617070657220312e302e300000000000000000000000000000602082015290516101ce9190611a1a565b61023d7f000000000000000000000000000000000000000000000000000000000000000081565b60405173ffffffffffffffffffffffffffffffffffffffff90911681526020016101ce565b610275610270366004611ab5565b610540565b005b610275610600565b61023d7f000000000000000000000000000000000000000000000000000000000000000081565b6102b96102b4366004611baf565b610636565b6040519081526020016101ce565b6103316102d5366004611bcc565b600860205260009081526040902080546001820154600283015460039093015473ffffffffffffffffffffffffffffffffffffffff8316937401000000000000000000000000000000000000000090930463ffffffff16929085565b6040805173ffffffffffffffffffffffffffffffffffffffff909616865263ffffffff9094166020860152928401919091526060830152608082015260a0016101ce565b6003546103829060ff1681565b60405190151581526020016101ce565b61027561073d565b6102b96103a8366004611be5565b61083a565b60005473ffffffffffffffffffffffffffffffffffffffff1661023d565b610275610942565b6102756103e1366004611c35565b610974565b60035461038290610100900460ff1681565b61023d7f000000000000000000000000000000000000000000000000000000000000000081565b61027561042d366004611baf565b610e43565b610275610440366004611ccd565b610e9a565b6004546005546006546007546040805194855263ffffffff80851660208701526401000000008504811691860191909152680100000000000000008404811660608601526c01000000000000000000000000840416608085015260ff700100000000000000000000000000000000909304831660a085015260c08401919091521660e0820152610100016101ce565b6001546104fc9074010000000000000000000000000000000000000000900463ffffffff1681565b60405163ffffffff90911681526020016101ce565b61027561051f366004611d2f565b611218565b610275610532366004611d4a565b61122c565b6102b960025481565b3373ffffffffffffffffffffffffffffffffffffffff7f000000000000000000000000000000000000000000000000000000000000000016146105f2576040517f1cf993f400000000000000000000000000000000000000000000000000000000815233600482015273ffffffffffffffffffffffffffffffffffffffff7f00000000000000000000000000000000000000000000000000000000000000001660248201526044015b60405180910390fd5b6105fc82826112f2565b5050565b6106086114fd565b600380547fffffffffffffffffffffffffffffffffffffffffffffffffffffffffffff00ff16610100179055565b60035460009060ff166106a5576040517f08c379a000000000000000000000000000000000000000000000000000000000815260206004820152601960248201527f77726170706572206973206e6f7420636f6e666967757265640000000000000060448201526064016105e9565b600354610100900460ff1615610717576040517f08c379a000000000000000000000000000000000000000000000000000000000815260206004820152601360248201527f777261707065722069732064697361626c65640000000000000000000000000060448201526064016105e9565b6000610721611580565b90506107348363ffffffff163a836116e5565b9150505b919050565b60015473ffffffffffffffffffffffffffffffffffffffff1633146107be576040517f08c379a000000000000000000000000000000000000000000000000000000000815260206004820152601660248201527f4d7573742062652070726f706f736564206f776e65720000000000000000000060448201526064016105e9565b60008054337fffffffffffffffffffffffff00000000000000000000000000000000000000008083168217845560018054909116905560405173ffffffffffffffffffffffffffffffffffffffff90921692909183917f8be0079c531659141344cd1fd0a4f28419497f9722a3daafe3b4186f6b6457e091a350565b60035460009060ff166108a9576040517f08c379a000000000000000000000000000000000000000000000000000000000815260206004820152601960248201527f77726170706572206973206e6f7420636f6e666967757265640000000000000060448201526064016105e9565b600354610100900460ff161561091b576040517f08c379a000000000000000000000000000000000000000000000000000000000815260206004820152601360248201527f777261707065722069732064697361626c65640000000000000000000000000060448201526064016105e9565b6000610925611580565b90506109388463ffffffff1684836116e5565b9150505b92915050565b61094a6114fd565b600380547fffffffffffffffffffffffffffffffffffffffffffffffffffffffffffff00ff169055565b60035460ff166109e0576040517f08c379a000000000000000000000000000000000000000000000000000000000815260206004820152601960248201527f77726170706572206973206e6f7420636f6e666967757265640000000000000060448201526064016105e9565b600354610100900460ff1615610a52576040517f08c379a000000000000000000000000000000000000000000000000000000000815260206004820152601360248201527f777261707065722069732064697361626c65640000000000000000000000000060448201526064016105e9565b3373ffffffffffffffffffffffffffffffffffffffff7f00000000000000000000000000000000000000000000000000000000000000001614610af1576040517f08c379a000000000000000000000000000000000000000000000000000000000815260206004820152601760248201527f6f6e6c792063616c6c61626c652066726f6d204c494e4b00000000000000000060448201526064016105e9565b60008080610b0184860186611d76565b9250925092506000610b1284611806565b90506000610b1e611580565b90506000610b338663ffffffff163a846116e5565b905080891015610b9f576040517f08c379a000000000000000000000000000000000000000000000000000000000815260206004820152600b60248201527f66656520746f6f206c6f7700000000000000000000000000000000000000000060448201526064016105e9565b60075460ff1663ffffffff85161115610c14576040517f08c379a000000000000000000000000000000000000000000000000000000000815260206004820152601160248201527f6e756d576f72647320746f6f206869676800000000000000000000000000000060448201526064016105e9565b60007f000000000000000000000000000000000000000000000000000000000000000073ffffffffffffffffffffffffffffffffffffffff16635d3b1d306006547f000000000000000000000000000000000000000000000000000000000000000089600560089054906101000a900463ffffffff16898d610c969190611df0565b610ca09190611df0565b6040517fffffffff0000000000000000000000000000000000000000000000000000000060e087901b168152600481019490945267ffffffffffffffff909216602484015261ffff16604483015263ffffffff90811660648301528816608482015260a4016020604051808303816000875af1158015610d24573d6000803e3d6000fd5b505050506040513d601f19601f82011682018060405250810190610d489190611e14565b90506040518060a001604052808c73ffffffffffffffffffffffffffffffffffffffff1681526020018863ffffffff1681526020013a81526020018481526020018b8152506008600083815260200190815260200160002060008201518160000160006101000a81548173ffffffffffffffffffffffffffffffffffffffff021916908373ffffffffffffffffffffffffffffffffffffffff16021790555060208201518160000160146101000a81548163ffffffff021916908363ffffffff160217905550604082015181600101556060820151816002015560808201518160030155905050806002819055505050505050505050505050565b610e4b6114fd565b6001805463ffffffff90921674010000000000000000000000000000000000000000027fffffffffffffffff00000000ffffffffffffffffffffffffffffffffffffffff909216919091179055565b610ea26114fd565b6005805460ff808616700100000000000000000000000000000000027fffffffffffffffffffffffffffffff00ffffffffffffffffffffffffffffffff63ffffffff8981166c01000000000000000000000000027fffffffffffffffffffffffffffffffff00000000ffffffffffffffffffffffff918c166801000000000000000002919091167fffffffffffffffffffffffffffffffff0000000000000000ffffffffffffffff909516949094179390931792909216919091179091556006839055600780549183167fffffffffffffffffffffffffffffffffffffffffffffffffffffffffffffff00928316179055600380549091166001179055604080517fc3f909d4000000000000000000000000000000000000000000000000000000008152905173ffffffffffffffffffffffffffffffffffffffff7f0000000000000000000000000000000000000000000000000000000000000000169163c3f909d49160048281019260809291908290030181865afa15801561102a573d6000803e3d6000fd5b505050506040513d601f19601f8201168201806040525081019061104e9190611e2d565b50600580547fffffffffffffffffffffffffffffffffffffffffffffffffffffffff000000001663ffffffff929092169190911790555050604080517f356dac7100000000000000000000000000000000000000000000000000000000815290517f000000000000000000000000000000000000000000000000000000000000000073ffffffffffffffffffffffffffffffffffffffff169163356dac719160048083019260209291908290030181865afa158015611111573d6000803e3d6000fd5b505050506040513d601f19601f820116820180604052508101906111359190611e14565b6004819055507f000000000000000000000000000000000000000000000000000000000000000073ffffffffffffffffffffffffffffffffffffffff16635fbbc0d26040518163ffffffff1660e01b815260040161012060405180830381865afa1580156111a7573d6000803e3d6000fd5b505050506040513d601f19601f820116820180604052508101906111cb9190611e9f565b50506005805463ffffffff909816640100000000027fffffffffffffffffffffffffffffffffffffffffffffffff00000000ffffffff909816979097179096555050505050505050505050565b6112206114fd565b6112298161181e565b50565b6112346114fd565b6040517fa9059cbb00000000000000000000000000000000000000000000000000000000815273ffffffffffffffffffffffffffffffffffffffff8381166004830152602482018390527f0000000000000000000000000000000000000000000000000000000000000000169063a9059cbb906044016020604051808303816000875af11580156112c9573d6000803e3d6000fd5b505050506040513d601f19601f820116820180604052508101906112ed9190611f55565b505050565b6000828152600860208181526040808420815160a081018352815473ffffffffffffffffffffffffffffffffffffffff808216835263ffffffff740100000000000000000000000000000000000000008304168387015260018401805495840195909552600284018054606085015260038501805460808601528b8a52979096527fffffffffffffffff00000000000000000000000000000000000000000000000090911690925591859055918490559290915581511661140f576040517f08c379a000000000000000000000000000000000000000000000000000000000815260206004820152601160248201527f72657175657374206e6f7420666f756e6400000000000000000000000000000060448201526064016105e9565b600080631fe543e360e01b858560405160240161142d929190611f77565b604051602081830303815290604052907bffffffffffffffffffffffffffffffffffffffffffffffffffffffff19166020820180517bffffffffffffffffffffffffffffffffffffffffffffffffffffffff8381831617835250505050905060006114a7846020015163ffffffff16856000015184611913565b9050806114f557835160405173ffffffffffffffffffffffffffffffffffffffff9091169087907fc551b83c151f2d1c7eeb938ac59008e0409f1c1dc1e2f112449d4d79b458902290600090a35b505050505050565b60005473ffffffffffffffffffffffffffffffffffffffff16331461157e576040517f08c379a000000000000000000000000000000000000000000000000000000000815260206004820152601660248201527f4f6e6c792063616c6c61626c65206279206f776e65720000000000000000000060448201526064016105e9565b565b600554604080517ffeaf968c000000000000000000000000000000000000000000000000000000008152905160009263ffffffff161515918391829173ffffffffffffffffffffffffffffffffffffffff7f0000000000000000000000000000000000000000000000000000000000000000169163feaf968c9160048082019260a0929091908290030181865afa15801561161f573d6000803e3d6000fd5b505050506040513d601f19601f820116820180604052508101906116439190611fdf565b509450909250849150508015611669575061165e8242612023565b60055463ffffffff16105b1561167357506004545b60008112156116de576040517f08c379a000000000000000000000000000000000000000000000000000000000815260206004820152601660248201527f496e76616c6964204c494e4b207765692070726963650000000000000000000060448201526064016105e9565b9392505050565b60015460009081906117149074010000000000000000000000000000000000000000900463ffffffff1661195f565b60055463ffffffff6c01000000000000000000000000820481169161174791680100000000000000009091041688612036565b6117519190612036565b61175b9086612049565b6117659190612036565b905060008361177c83670de0b6b3a7640000612049565b611786919061208f565b6005549091506000906064906117b390700100000000000000000000000000000000900460ff16826120a3565b6117c09060ff1684612049565b6117ca919061208f565b6005549091506000906117f090640100000000900463ffffffff1664e8d4a51000612049565b6117fa9083612036565b98975050505050505050565b6000611813603f836120bc565b61093c906001611df0565b3373ffffffffffffffffffffffffffffffffffffffff82160361189d576040517f08c379a000000000000000000000000000000000000000000000000000000000815260206004820152601760248201527f43616e6e6f74207472616e7366657220746f2073656c6600000000000000000060448201526064016105e9565b600180547fffffffffffffffffffffffff00000000000000000000000000000000000000001673ffffffffffffffffffffffffffffffffffffffff83811691821790925560008054604051929316917fed8889f560326eb138920d842192f0eb3dd22b4f139c87a2c57538e05bae12789190a350565b60005a61138881101561192557600080fd5b61138881039050846040820482031161193d57600080fd5b50823b61194957600080fd5b60008083516020850160008789f1949350505050565b60004661a4b1811480611974575062066eed81145b15611a11576000606c73ffffffffffffffffffffffffffffffffffffffff166341b247a86040518163ffffffff1660e01b815260040160c060405180830381865afa1580156119c7573d6000803e3d6000fd5b505050506040513d601f19601f820116820180604052508101906119eb91906120df565b5050505091505083608c6119ff9190612036565b611a099082612049565b949350505050565b50600092915050565b600060208083528351808285015260005b81811015611a4757858101830151858201604001528201611a2b565b5060006040828601015260407fffffffffffffffffffffffffffffffffffffffffffffffffffffffffffffffe0601f8301168501019250505092915050565b7f4e487b7100000000000000000000000000000000000000000000000000000000600052604160045260246000fd5b60008060408385031215611ac857600080fd5b8235915060208084013567ffffffffffffffff80821115611ae857600080fd5b818601915086601f830112611afc57600080fd5b813581811115611b0e57611b0e611a86565b8060051b6040517fffffffffffffffffffffffffffffffffffffffffffffffffffffffffffffffe0603f83011681018181108582111715611b5157611b51611a86565b604052918252848201925083810185019189831115611b6f57600080fd5b938501935b82851015611b8d57843584529385019392850192611b74565b8096505050505050509250929050565b63ffffffff8116811461122957600080fd5b600060208284031215611bc157600080fd5b81356116de81611b9d565b600060208284031215611bde57600080fd5b5035919050565b60008060408385031215611bf857600080fd5b8235611c0381611b9d565b946020939093013593505050565b803573ffffffffffffffffffffffffffffffffffffffff8116811461073857600080fd5b60008060008060608587031215611c4b57600080fd5b611c5485611c11565b935060208501359250604085013567ffffffffffffffff80821115611c7857600080fd5b818701915087601f830112611c8c57600080fd5b813581811115611c9b57600080fd5b886020828501011115611cad57600080fd5b95989497505060200194505050565b803560ff8116811461073857600080fd5b600080600080600060a08688031215611ce557600080fd5b8535611cf081611b9d565b94506020860135611d0081611b9d565b9350611d0e60408701611cbc565b925060608601359150611d2360808701611cbc565b90509295509295909350565b600060208284031215611d4157600080fd5b6116de82611c11565b60008060408385031215611d5d57600080fd5b611c0383611c11565b61ffff8116811461122957600080fd5b600080600060608486031215611d8b57600080fd5b8335611d9681611b9d565b92506020840135611da681611d66565b91506040840135611db681611b9d565b809150509250925092565b7f4e487b7100000000000000000000000000000000000000000000000000000000600052601160045260246000fd5b63ffffffff818116838216019080821115611e0d57611e0d611dc1565b5092915050565b600060208284031215611e2657600080fd5b5051919050565b60008060008060808587031215611e4357600080fd5b8451611e4e81611d66565b6020860151909450611e5f81611b9d565b6040860151909350611e7081611b9d565b6060860151909250611e8181611b9d565b939692955090935050565b805162ffffff8116811461073857600080fd5b60008060008060008060008060006101208a8c031215611ebe57600080fd5b8951611ec981611b9d565b60208b0151909950611eda81611b9d565b60408b0151909850611eeb81611b9d565b60608b0151909750611efc81611b9d565b60808b0151909650611f0d81611b9d565b9450611f1b60a08b01611e8c565b9350611f2960c08b01611e8c565b9250611f3760e08b01611e8c565b9150611f466101008b01611e8c565b90509295985092959850929598565b600060208284031215611f6757600080fd5b815180151581146116de57600080fd5b6000604082018483526020604081850152818551808452606086019150828701935060005b81811015611fb857845183529383019391830191600101611f9c565b5090979650505050505050565b805169ffffffffffffffffffff8116811461073857600080fd5b600080600080600060a08688031215611ff757600080fd5b61200086611fc5565b9450602086015193506040860151925060608601519150611d2360808701611fc5565b8181038181111561093c5761093c611dc1565b8082018082111561093c5761093c611dc1565b808202811582820484141761093c5761093c611dc1565b7f4e487b7100000000000000000000000000000000000000000000000000000000600052601260045260246000fd5b60008261209e5761209e612060565b500490565b60ff818116838216019081111561093c5761093c611dc1565b600063ffffffff808416806120d3576120d3612060565b92169190910492915050565b60008060008060008060c087890312156120f857600080fd5b865195506020870151945060408701519350606087015192506080870151915060a08701519050929550929550929556fea164736f6c6343000813000a",
  "linkReferences": {},
  "deployedLinkReferences": {}
}