{
  "address": "0x489f6548494145f7124b0f6aeb090B26A3807506",
  "abi": [
    {
      "inputs": [
        {
          "internalType": "contract IForwarderRegistry",
          "name": "forwarderRegistry",
          "type": "address"
        }
      ],
      "stateMutability": "nonpayable",
      "type": "constructor"
    },
    {
      "inputs": [
        {
          "internalType": "bytes32",
          "name": "checkpointId",
          "type": "bytes32"
        }
      ],
      "name": "CheckpointAlreadySet",
      "type": "error"
    },
    {
      "inputs": [
        {
          "internalType": "bytes32",
          "name": "checkpointId",
          "type": "bytes32"
        }
      ],
      "name": "CheckpointReached",
      "type": "error"
    },
    {
      "inputs": [],
      "name": "InconsistentArrayLengths",
      "type": "error"
    },
    {
      "inputs": [
        {
          "internalType": "address",
          "name": "account",
          "type": "address"
        }
      ],
      "name": "NotContractOwner",
      "type": "error"
    },
    {
      "anonymous": false,
      "inputs": [
        {
          "indexed": false,
          "internalType": "bytes32",
          "name": "checkpointId",
          "type": "bytes32"
        },
        {
          "indexed": false,
          "internalType": "uint256",
          "name": "timestamp",
          "type": "uint256"
        }
      ],
      "name": "CheckpointSet",
      "type": "event"
    },
    {
      "inputs": [
        {
          "internalType": "bytes32[]",
          "name": "checkpointIds",
          "type": "bytes32[]"
        },
        {
          "internalType": "uint256[]",
          "name": "timestamps",
          "type": "uint256[]"
        }
      ],
      "name": "batchSetCheckpoint",
      "outputs": [],
      "stateMutability": "nonpayable",
      "type": "function"
    },
    {
      "inputs": [
        {
          "internalType": "bytes32",
          "name": "checkpointId",
          "type": "bytes32"
        }
      ],
      "name": "checkpoint",
      "outputs": [
        {
          "internalType": "uint256",
          "name": "",
          "type": "uint256"
        }
      ],
      "stateMutability": "view",
      "type": "function"
    },
    {
      "inputs": [
        {
          "internalType": "bytes32",
          "name": "checkpointId",
          "type": "bytes32"
        }
      ],
      "name": "checkpointReached",
      "outputs": [
        {
          "internalType": "bool",
          "name": "",
          "type": "bool"
        }
      ],
      "stateMutability": "view",
      "type": "function"
    },
    {
      "inputs": [
        {
          "internalType": "bytes32",
          "name": "checkpointId",
          "type": "bytes32"
        },
        {
          "internalType": "uint256",
          "name": "timestamp",
          "type": "uint256"
        }
      ],
      "name": "setCheckpoint",
      "outputs": [],
      "stateMutability": "nonpayable",
      "type": "function"
    },
    {
      "inputs": [
        {
          "internalType": "bytes32",
          "name": "checkpointId",
          "type": "bytes32"
        }
      ],
      "name": "triggerCheckpoint",
      "outputs": [],
      "stateMutability": "nonpayable",
      "type": "function"
    }
  ],
  "transactionHash": "0x9ba6da334cc6cfc0d0f76ea676ca0d85bfe40952ccfbc198f6467486d4417a93",
  "args": [
    "0x316a472D084489CB6d4C66e5eB62aE3AdA17521e"
  ],
  "numDeployments": 1,
  "solcInputHash": "84bab0eb3356c2e3bedca0f2f5a163c5",
  "bytecode": "0x60a0604052348015600f57600080fd5b50604051610810380380610810833981016040819052602c91603c565b6001600160a01b0316608052606a565b600060208284031215604d57600080fd5b81516001600160a01b0381168114606357600080fd5b9392505050565b60805161078461008c60003960008181610476015261050401526107846000f3fe608060405234801561001057600080fd5b50600436106100675760003560e01c80634f410a80116100505780634f410a80146100a95780635b34eba0146100bc578063deb4d746146100dd57600080fd5b8063151bdba61461006c5780633b14936914610094575b600080fd5b61007f61007a3660046105c4565b6100f0565b60405190151581526020015b60405180910390f35b6100a76100a2366004610629565b61010a565b005b6100a76100b736600461069a565b610141565b6100cf6100ca3660046105c4565b610164565b60405190815260200161008b565b6100a76100eb3660046105c4565b610182565b6000610104826100fe6101a2565b906101d0565b92915050565b6101236101156101f6565b61011d610205565b90610233565b61013b848484846101326101a2565b939291906102a3565b50505050565b61014c6101156101f6565b61016082826101596101a2565b919061033e565b5050565b6000610104826101726101a2565b6000918252602052604090205490565b61018d6101156101f6565b61019f816101996101a2565b906103dc565b50565b60008061010460017f0def758eb96c12015155889b8e63d1cb5c0dbce5585bbdf9d99ea353f56c716c6106bc565b60008181526020839052604081205480158015906101ee5750804210155b949350505050565b6000610200610433565b905090565b60008061010460017fc9ed16f33ab3a66c84bfd83099ccb2a8845871e2e1c1928f63797152f0fd54cd6106bc565b815473ffffffffffffffffffffffffffffffffffffffff828116911614610160576040517f2ef4875e00000000000000000000000000000000000000000000000000000000815273ffffffffffffffffffffffffffffffffffffffff821660048201526024015b60405180910390fd5b828181146102dd576040517f6582533600000000000000000000000000000000000000000000000000000000815260040160405180910390fd5b60005b818110156103355761032d8686838181106102fd576102fd6106f6565b90506020020135858584818110610316576103166106f6565b905060200201358961033e9092919063ffffffff16565b6001016102e0565b50505050505050565b60008281526020849052604090205415610387576040517f33e962eb0000000000000000000000000000000000000000000000000000000081526004810183905260240161029a565b80156103d7576000828152602084815260409182902083905581518481529081018390527f099ea97db121bdf4a102e67113e27b6bb74713015b32a5f0e1c3ea0d44fb2953910160405180910390a15b505050565b6103e68282610580565b6000818152602083815260409182902042908190558251848152918201527f099ea97db121bdf4a102e67113e27b6bb74713015b32a5f0e1c3ea0d44fb2953910160405180910390a15050565b6000333214806104435750601836105b1561044d57503390565b7fffffffffffffffffffffffffffffffffffffffffffffffffffffffffffffffec36013560601c7f000000000000000000000000000000000000000000000000000000000000000073ffffffffffffffffffffffffffffffffffffffff1633148061056f57506040517f019a202800000000000000000000000000000000000000000000000000000000815273ffffffffffffffffffffffffffffffffffffffff82811660048301523360248301523060448301527f0000000000000000000000000000000000000000000000000000000000000000169063019a202890606401602060405180830381865afa15801561054b573d6000803e3d6000fd5b505050506040513d601f19601f8201168201806040525081019061056f9190610725565b1561057957919050565b3391505090565b61058a82826101d0565b15610160576040517f8e54d9090000000000000000000000000000000000000000000000000000000081526004810182905260240161029a565b6000602082840312156105d657600080fd5b5035919050565b60008083601f8401126105ef57600080fd5b50813567ffffffffffffffff81111561060757600080fd5b6020830191508360208260051b850101111561062257600080fd5b9250929050565b6000806000806040858703121561063f57600080fd5b843567ffffffffffffffff81111561065657600080fd5b610662878288016105dd565b909550935050602085013567ffffffffffffffff81111561068257600080fd5b61068e878288016105dd565b95989497509550505050565b600080604083850312156106ad57600080fd5b50508035926020909101359150565b81810381811115610104577f4e487b7100000000000000000000000000000000000000000000000000000000600052601160045260246000fd5b7f4e487b7100000000000000000000000000000000000000000000000000000000600052603260045260246000fd5b60006020828403121561073757600080fd5b8151801515811461074757600080fd5b939250505056fea26469706673582212207d92048d17a793109334c45f833f2b3c87c62b93d7361572e2b1f1fd2bd3426364736f6c634300081c0033",
  "devdoc": {
    "details": "This contract is to be used as a diamond facet (see ERC2535 Diamond Standard https://eips.ethereum.org/EIPS/eip-2535).Note: This facet depends on {ProxyAdminFacet} and {ContractOwnershipFacet}.",
    "errors": {
      "CheckpointAlreadySet(bytes32)": [
        {
          "params": {
            "checkpointId": "The checkpoint identifier."
          }
        }
      ],
      "CheckpointReached(bytes32)": [
        {
          "params": {
            "checkpointId": "The checkpoint identifier."
          }
        }
      ],
      "NotContractOwner(address)": [
        {
          "params": {
            "account": "The account that was checked."
          }
        }
      ]
    },
    "events": {
      "CheckpointSet(bytes32,uint256)": {
        "params": {
          "checkpointId": "The checkpoint identifier.",
          "timestamp": "The timestamp associated to the checkpoint."
        }
      }
    },
    "kind": "dev",
    "methods": {
      "batchSetCheckpoint(bytes32[],uint256[])": {
        "details": "Reverts with {NotContractOwner} if the sender is not the contract owner.Reverts with {CheckpointAlreadySet} if one of the checkpoints is already set.Emits a {CheckpointSet} event for each timestamp set to a non-zero value.",
        "params": {
          "checkpointIds": "The checkpoint identifier.",
          "timestamps": "The checkpoint timestamp."
        }
      },
      "checkpoint(bytes32)": {
        "params": {
          "checkpointId": "The checkpoint identifier."
        },
        "returns": {
          "_0": "timestamp The timestamp associated to the checkpoint. A zero value indicates that the checkpoint is not set."
        }
      },
      "checkpointReached(bytes32)": {
        "params": {
          "checkpointId": "The checkpoint identifier."
        },
        "returns": {
          "_0": "reached True if the checkpoint has been set and the current block timestamp has already reached it, false otherwise."
        }
      },
      "setCheckpoint(bytes32,uint256)": {
        "details": "Reverts with {NotContractOwner} if the sender is not the contract owner.Reverts with {CheckpointAlreadySet} if the checkpoint is already set.Emits a {CheckpointSet} event if the timestamp is set to a non-zero value.",
        "params": {
          "checkpointId": "The checkpoint identifiers.",
          "timestamp": "The checkpoint timestamps."
        }
      },
      "triggerCheckpoint(bytes32)": {
        "details": "Reverts with {NotContractOwner} if the sender is not the contract owner.Reverts with {CheckpointReached} if the checkpoint is set and the current block timestamp has already reached it.Emits a {CheckpointSet} event.",
        "params": {
          "checkpointId": "The checkpoint identifier."
        }
      }
    },
    "title": "Timestamp-based checkpoints management (facet version).",
    "version": 1
  },
  "userdoc": {
    "errors": {
      "CheckpointAlreadySet(bytes32)": [
        {
          "notice": "Thrown when trying to set a checkpoint which is already set."
        }
      ],
      "CheckpointReached(bytes32)": [
        {
          "notice": "Thrown when a checkpoint has already been reached but is required not to."
        }
      ],
      "InconsistentArrayLengths()": [
        {
          "notice": "Thrown when the multiple related arrays have different lengths."
        }
      ],
      "NotContractOwner(address)": [
        {
          "notice": "Thrown when an account is not the contract owner but is required to."
        }
      ]
    },
    "events": {
      "CheckpointSet(bytes32,uint256)": {
        "notice": "Emitted when a checkpoint is set."
      }
    },
    "kind": "user",
    "methods": {
      "batchSetCheckpoint(bytes32[],uint256[])": {
        "notice": "Sets a batch of checkpoints."
      },
      "checkpoint(bytes32)": {
        "notice": "Gets the checkpoint timestamp."
      },
      "checkpointReached(bytes32)": {
        "notice": "Retrieves whether the checkpoint has been reached already."
      },
      "setCheckpoint(bytes32,uint256)": {
        "notice": "Sets the checkpoints."
      },
      "triggerCheckpoint(bytes32)": {
        "notice": "Sets the checkpoint to the current block timestamp."
      }
    },
    "version": 1
  },
  "storageLayout": {
    "storage": [],
    "types": null
  }
}