{
  "address": "0xA18eA860465dDa431000B36A95A181c98A09136b",
  "abi": [
    {
      "inputs": [
        {
          "internalType": "contract IForwarderRegistry",
          "name": "forwarderRegistry",
          "type": "address"
        }
      ],
      "stateMutability": "nonpayable",
      "type": "constructor"
    },
    {
      "inputs": [],
      "name": "IllegalInterfaceId",
      "type": "error"
    },
    {
      "inputs": [
        {
          "internalType": "address",
          "name": "account",
          "type": "address"
        }
      ],
      "name": "NotProxyAdmin",
      "type": "error"
    },
    {
      "inputs": [
        {
          "internalType": "bytes4",
          "name": "functionSelector",
          "type": "bytes4"
        }
      ],
      "name": "facetAddress",
      "outputs": [
        {
          "internalType": "address",
          "name": "facetAddress_",
          "type": "address"
        }
      ],
      "stateMutability": "view",
      "type": "function"
    },
    {
      "inputs": [],
      "name": "facetAddresses",
      "outputs": [
        {
          "internalType": "address[]",
          "name": "facetAddresses_",
          "type": "address[]"
        }
      ],
      "stateMutability": "view",
      "type": "function"
    },
    {
      "inputs": [
        {
          "internalType": "address",
          "name": "facet",
          "type": "address"
        }
      ],
      "name": "facetFunctionSelectors",
      "outputs": [
        {
          "internalType": "bytes4[]",
          "name": "facetFunctionSelectors_",
          "type": "bytes4[]"
        }
      ],
      "stateMutability": "view",
      "type": "function"
    },
    {
      "inputs": [],
      "name": "facets",
      "outputs": [
        {
          "components": [
            {
              "internalType": "address",
              "name": "facet",
              "type": "address"
            },
            {
              "internalType": "bytes4[]",
              "name": "selectors",
              "type": "bytes4[]"
            }
          ],
          "internalType": "struct Facet[]",
          "name": "facets_",
          "type": "tuple[]"
        }
      ],
      "stateMutability": "view",
      "type": "function"
    },
    {
      "inputs": [],
      "name": "initDiamondLoupeStorage",
      "outputs": [],
      "stateMutability": "nonpayable",
      "type": "function"
    }
  ],
  "transactionHash": "0x1c5a282821c0bb917655c43c49e42a132a99933ba7b3fa928d0e5bf8db05fc4f",
  "args": [
    "0x316a472D084489CB6d4C66e5eB62aE3AdA17521e"
  ],
  "numDeployments": 1,
  "solcInputHash": "84bab0eb3356c2e3bedca0f2f5a163c5",
  "bytecode": "0x60a0604052348015600f57600080fd5b50604051610faa380380610faa833981016040819052602c91603c565b6001600160a01b0316608052606a565b600060208284031215604d57600080fd5b81516001600160a01b0381168114606357600080fd5b9392505050565b608051610f1e61008c600039600081816101f1015261027f0152610f1e6000f3fe608060405234801561001057600080fd5b50600436106100675760003560e01c80637a0ed627116100505780637a0ed62714610094578063adfca15e146100a9578063cdffacc6146100c957600080fd5b80634fe5dd791461006c57806352ef6b2c14610076575b600080fd5b610074610101565b005b61007e610124565b60405161008b9190610c35565b60405180910390f35b61009c61013b565b60405161008b9190610cec565b6100bc6100b7366004610d9c565b61014d565b60405161008b9190610dd9565b6100dc6100d7366004610dec565b610167565b60405173ffffffffffffffffffffffffffffffffffffffff909116815260200161008b565b61011a61010c6101ae565b6101146102fb565b90610329565b61012261039c565b565b60606101366101316103d1565b6103ff565b905090565b60606101366101486103d1565b6105b5565b60606101618261015b6103d1565b906109da565b92915050565b6000610161826101756103d1565b907fffffffff00000000000000000000000000000000000000000000000000000000166000908152602091909152604090205460601c90565b6000333214806101be5750601836105b156101c857503390565b7fffffffffffffffffffffffffffffffffffffffffffffffffffffffffffffffec36013560601c7f000000000000000000000000000000000000000000000000000000000000000073ffffffffffffffffffffffffffffffffffffffff163314806102ea57506040517f019a202800000000000000000000000000000000000000000000000000000000815273ffffffffffffffffffffffffffffffffffffffff82811660048301523360248301523060448301527f0000000000000000000000000000000000000000000000000000000000000000169063019a202890606401602060405180830381865afa1580156102c6573d6000803e3d6000fd5b505050506040513d601f19601f820116820180604052508101906102ea9190610e2e565b156102f457919050565b3391505090565b60008061016160017fb53127684a568b3173ae13b9f8a6016e243e63b6e8ee1178d6a717850b5d6104610e50565b815473ffffffffffffffffffffffffffffffffffffffff828116911614610398576040517f673a31a100000000000000000000000000000000000000000000000000000000815273ffffffffffffffffffffffffffffffffffffffff8216600482015260240160405180910390fd5b5050565b6101227f48e2b0930000000000000000000000000000000000000000000000000000000060016103ca610b2b565b9190610b59565b60008061016160017f65d27473a5b05206737961f69a3b7a55316862d7a6ef82b3f5455fe92fab43e3610e50565b600181015460609061ffff168067ffffffffffffffff81111561042457610424610e8a565b60405190808252806020026020018201604052801561044d578160200160208202803683370190505b50915060008060005b8361ffff168210156105ab576000818152600287016020526040812054905b806008146105a1578360010193508561ffff1684116105a157600581901b82901b7fffffffff000000000000000000000000000000000000000000000000000000008116600090815260208a9052604081205460601c90805b88811015610533578a81815181106104e8576104e8610eb9565b602002602001015173ffffffffffffffffffffffffffffffffffffffff168373ffffffffffffffffffffffffffffffffffffffff160361052b5760019150610533565b6001016104ce565b50801561054257505050610599565b818a898151811061055557610555610eb9565b602002602001019073ffffffffffffffffffffffffffffffffffffffff16908173ffffffffffffffffffffffffffffffffffffffff16815250508760010197505050505b600101610475565b5050600101610456565b5050825250919050565b600181015460609061ffff168067ffffffffffffffff8111156105da576105da610e8a565b60405190808252806020026020018201604052801561062057816020015b6040805180820190915260008152606060208201528152602001906001900390816105f85790505b50915060008161ffff1667ffffffffffffffff81111561064257610642610e8a565b60405190808252806020026020018201604052801561066b578160200160208202803683370190505b50905060008060005b8461ffff16821015610975576000818152600288016020526040812054905b8060081461096b578360010193508661ffff16841161096b57600581901b82901b7fffffffff000000000000000000000000000000000000000000000000000000008116600090815260208b9052604081205460601c90805b88811461080d578273ffffffffffffffffffffffffffffffffffffffff168c828151811061071c5761071c610eb9565b60200260200101516000015173ffffffffffffffffffffffffffffffffffffffff160361080557838c828151811061075657610756610eb9565b6020026020010151602001518b838151811061077457610774610eb9565b60200260200101518151811061078c5761078c610eb9565b60200260200101907bffffffffffffffffffffffffffffffffffffffffffffffffffffffff191690817bffffffffffffffffffffffffffffffffffffffffffffffffffffffff1916815250508981815181106107ea576107ea610eb9565b6020026020010180516001019081815250506001915061080d565b6001016106ec565b50801561081c57505050610963565b818b898151811061082f5761082f610eb9565b602090810291909101015173ffffffffffffffffffffffffffffffffffffffff909116905261ffff8a1667ffffffffffffffff81111561087157610871610e8a565b60405190808252806020026020018201604052801561089a578160200160208202803683370190505b508b89815181106108ad576108ad610eb9565b602002602001015160200181905250828b89815181106108cf576108cf610eb9565b6020026020010151602001516000815181106108ed576108ed610eb9565b60200260200101907bffffffffffffffffffffffffffffffffffffffffffffffffffffffff191690817bffffffffffffffffffffffffffffffffffffffffffffffffffffffff191681525050600189898151811061094d5761094d610eb9565b6020026020010181815250508760010197505050505b600101610693565b5050600101610674565b5060005b828110156109ce57600084828151811061099557610995610eb9565b6020026020010151905060008783815181106109b3576109b3610eb9565b60209081029190910181015101519190915250600101610979565b50508352509092915050565b600182015460609061ffff168067ffffffffffffffff8111156109ff576109ff610e8a565b604051908082528060200260200182016040528015610a28578160200160208202803683370190505b50915060008060005b8361ffff16821015610b20576000818152600288016020526040812054905b80600814610b16578360010193508561ffff168411610b1657600581901b82901b7fffffffff000000000000000000000000000000000000000000000000000000008116600090815260208b9052604090205460601c73ffffffffffffffffffffffffffffffffffffffff8a1603610b0d5780888781518110610ad557610ad5610eb9565b7fffffffff00000000000000000000000000000000000000000000000000000000909216602092830291909101909101526001909501945b50600101610a50565b5050600101610a31565b505082525092915050565b60008061016160017fca9d3e17f264b0f3984e2634e94adb37fa3e6a8103f06aeae6fa59e21c769f5e610e50565b7c01000000000000000000000000000000000000000000000000000000007fffffffff00000000000000000000000000000000000000000000000000000000831601610bd1576040517f72c683bb00000000000000000000000000000000000000000000000000000000815260040160405180910390fd5b7fffffffff00000000000000000000000000000000000000000000000000000000919091166000908152602092909252604090912080547fffffffffffffffffffffffffffffffffffffffffffffffffffffffffffffff0016911515919091179055565b602080825282518282018190526000918401906040840190835b81811015610c8357835173ffffffffffffffffffffffffffffffffffffffff16835260209384019390920191600101610c4f565b509095945050505050565b600081518084526020840193506020830160005b82811015610ce25781517fffffffff0000000000000000000000000000000000000000000000000000000016865260209586019590910190600101610ca2565b5093949350505050565b6000602082016020835280845180835260408501915060408160051b86010192506020860160005b82811015610d90577fffffffffffffffffffffffffffffffffffffffffffffffffffffffffffffffc0878603018452815173ffffffffffffffffffffffffffffffffffffffff81511686526020810151905060406020870152610d7a6040870182610c8e565b9550506020938401939190910190600101610d14565b50929695505050505050565b600060208284031215610dae57600080fd5b813573ffffffffffffffffffffffffffffffffffffffff81168114610dd257600080fd5b9392505050565b602081526000610dd26020830184610c8e565b600060208284031215610dfe57600080fd5b81357fffffffff0000000000000000000000000000000000000000000000000000000081168114610dd257600080fd5b600060208284031215610e4057600080fd5b81518015158114610dd257600080fd5b81810381811115610161577f4e487b7100000000000000000000000000000000000000000000000000000000600052601160045260246000fd5b7f4e487b7100000000000000000000000000000000000000000000000000000000600052604160045260246000fd5b7f4e487b7100000000000000000000000000000000000000000000000000000000600052603260045260246000fdfea2646970667358221220de651ced90efc2f452f9294ae379f6d6f2e322f3b94dd983b32f0d89ed6385f764736f6c634300081c0033",
  "devdoc": {
    "details": "See https://eips.ethereum.org/EIPS/eip-2535Note: This facet depends on {ProxyAdminFacet} and {InterfaceDetectionFacet}.",
    "errors": {
      "NotProxyAdmin(address)": [
        {
          "params": {
            "account": "The account that was checked."
          }
        }
      ]
    },
    "kind": "dev",
    "methods": {
      "facetAddress(bytes4)": {
        "params": {
          "functionSelector": "The function selector."
        },
        "returns": {
          "facetAddress_": "The facet address that supports `functionSelector`, or the zero address if the facet is not found."
        }
      },
      "facetAddresses()": {
        "returns": {
          "facetAddresses_": "The facet addresses used by the diamond."
        }
      },
      "facetFunctionSelectors(address)": {
        "params": {
          "facetAddress": "The facet address."
        },
        "returns": {
          "facetFunctionSelectors_": "The function selectors supported by `facet`."
        }
      },
      "facets()": {
        "returns": {
          "facets_": "The facet addresses used by the diamond and their function selectors."
        }
      },
      "initDiamondLoupeStorage()": {
        "details": "Reverts with {NotProxyAdmin} if the sender is not the proxy admin."
      }
    },
    "title": "Diamond Loupe (facet version).",
    "version": 1
  },
  "userdoc": {
    "errors": {
      "IllegalInterfaceId()": [
        {
          "notice": "Thrown when setting the illegal interfaceId 0xffffffff."
        }
      ],
      "NotProxyAdmin(address)": [
        {
          "notice": "Thrown when an account is not the proxy admin but is required to."
        }
      ]
    },
    "kind": "user",
    "methods": {
      "facetAddress(bytes4)": {
        "notice": "Gets the facet address that supports a given function selector."
      },
      "facetAddresses()": {
        "notice": "Get all the facet addresses used by the diamond."
      },
      "facetFunctionSelectors(address)": {
        "notice": "Gets all the function selectors supported by a facet."
      },
      "facets()": {
        "notice": "Gets all the facet addresses used by the diamond and their function selectors."
      },
      "initDiamondLoupeStorage()": {
        "notice": "Marks the following ERC165 interface(s) as supported: DiamondLoupe."
      }
    },
    "version": 1
  },
  "storageLayout": {
    "storage": [],
    "types": null
  }
}