{
  "address": "0x0A546286499E400Db6399C6A2aA4D074d8E5c1F5",
  "abi": [
    {
      "inputs": [
        {
          "internalType": "contract IForwarderRegistry",
          "name": "forwarderRegistry",
          "type": "address"
        }
      ],
      "stateMutability": "nonpayable",
      "type": "constructor"
    },
    {
      "inputs": [
        {
          "internalType": "address",
          "name": "facet",
          "type": "address"
        }
      ],
      "name": "EmptyFacet",
      "type": "error"
    },
    {
      "inputs": [
        {
          "internalType": "address",
          "name": "target",
          "type": "address"
        }
      ],
      "name": "EmptyInitCallData",
      "type": "error"
    },
    {
      "inputs": [
        {
          "internalType": "address",
          "name": "facet",
          "type": "address"
        },
        {
          "internalType": "bytes4",
          "name": "selector",
          "type": "bytes4"
        }
      ],
      "name": "FunctionAlreadyPresent",
      "type": "error"
    },
    {
      "inputs": [
        {
          "internalType": "bytes4",
          "name": "selector",
          "type": "bytes4"
        }
      ],
      "name": "FunctionNotFound",
      "type": "error"
    },
    {
      "inputs": [],
      "name": "IllegalInterfaceId",
      "type": "error"
    },
    {
      "inputs": [
        {
          "internalType": "address",
          "name": "target",
          "type": "address"
        },
        {
          "internalType": "bytes",
          "name": "data",
          "type": "bytes"
        }
      ],
      "name": "InitCallReverted",
      "type": "error"
    },
    {
      "inputs": [
        {
          "internalType": "bytes4",
          "name": "selector",
          "type": "bytes4"
        }
      ],
      "name": "ModifyingImmutableFunction",
      "type": "error"
    },
    {
      "inputs": [
        {
          "internalType": "address",
          "name": "facet",
          "type": "address"
        }
      ],
      "name": "NonContractFacet",
      "type": "error"
    },
    {
      "inputs": [
        {
          "internalType": "address",
          "name": "target",
          "type": "address"
        }
      ],
      "name": "NonContractInitCallTarget",
      "type": "error"
    },
    {
      "inputs": [
        {
          "internalType": "address",
          "name": "account",
          "type": "address"
        }
      ],
      "name": "NotProxyAdmin",
      "type": "error"
    },
    {
      "inputs": [
        {
          "internalType": "address",
          "name": "facet",
          "type": "address"
        }
      ],
      "name": "RemovingWithNonZeroAddressFacet",
      "type": "error"
    },
    {
      "inputs": [
        {
          "internalType": "address",
          "name": "facet",
          "type": "address"
        },
        {
          "internalType": "bytes4",
          "name": "selector",
          "type": "bytes4"
        }
      ],
      "name": "ReplacingFunctionByItself",
      "type": "error"
    },
    {
      "inputs": [],
      "name": "ZeroAddressTargetInitCallButNonEmptyData",
      "type": "error"
    },
    {
      "anonymous": false,
      "inputs": [
        {
          "components": [
            {
              "internalType": "address",
              "name": "facet",
              "type": "address"
            },
            {
              "internalType": "enum FacetCutAction",
              "name": "action",
              "type": "uint8"
            },
            {
              "internalType": "bytes4[]",
              "name": "selectors",
              "type": "bytes4[]"
            }
          ],
          "indexed": false,
          "internalType": "struct FacetCut[]",
          "name": "cuts",
          "type": "tuple[]"
        },
        {
          "indexed": false,
          "internalType": "address",
          "name": "target",
          "type": "address"
        },
        {
          "indexed": false,
          "internalType": "bytes",
          "name": "data",
          "type": "bytes"
        }
      ],
      "name": "DiamondCut",
      "type": "event"
    },
    {
      "inputs": [
        {
          "components": [
            {
              "internalType": "address",
              "name": "facet",
              "type": "address"
            },
            {
              "internalType": "enum FacetCutAction",
              "name": "action",
              "type": "uint8"
            },
            {
              "internalType": "bytes4[]",
              "name": "selectors",
              "type": "bytes4[]"
            }
          ],
          "internalType": "struct FacetCut[]",
          "name": "cuts",
          "type": "tuple[]"
        },
        {
          "internalType": "address",
          "name": "target",
          "type": "address"
        },
        {
          "internalType": "bytes",
          "name": "data",
          "type": "bytes"
        }
      ],
      "name": "diamondCut",
      "outputs": [],
      "stateMutability": "nonpayable",
      "type": "function"
    },
    {
      "inputs": [
        {
          "components": [
            {
              "internalType": "address",
              "name": "facet",
              "type": "address"
            },
            {
              "internalType": "enum FacetCutAction",
              "name": "action",
              "type": "uint8"
            },
            {
              "internalType": "bytes4[]",
              "name": "selectors",
              "type": "bytes4[]"
            }
          ],
          "internalType": "struct FacetCut[]",
          "name": "cuts",
          "type": "tuple[]"
        },
        {
          "components": [
            {
              "internalType": "address",
              "name": "target",
              "type": "address"
            },
            {
              "internalType": "bytes",
              "name": "data",
              "type": "bytes"
            }
          ],
          "internalType": "struct Initialization[]",
          "name": "initializations",
          "type": "tuple[]"
        }
      ],
      "name": "diamondCut",
      "outputs": [],
      "stateMutability": "nonpayable",
      "type": "function"
    },
    {
      "inputs": [],
      "name": "initDiamondCutStorage",
      "outputs": [],
      "stateMutability": "nonpayable",
      "type": "function"
    }
  ],
  "transactionHash": "0x0dba06616c0c984f539583d4a0be1d93e6491543d18f126e9af61d02ed799fc0",
  "args": [
    "0x316a472D084489CB6d4C66e5eB62aE3AdA17521e"
  ],
  "numDeployments": 1,
  "solcInputHash": "84bab0eb3356c2e3bedca0f2f5a163c5",
  "bytecode": "0x60a0604052348015600f57600080fd5b50604051611b54380380611b54833981016040819052602c91603c565b6001600160a01b0316608052606a565b600060208284031215604d57600080fd5b81516001600160a01b0381168114606357600080fd5b9392505050565b608051611ac861008c6000396000818161017b01526102090152611ac86000f3fe608060405234801561001057600080fd5b50600436106100415760003560e01c80631f931c1c1461004657806395bce6661461005b578063b2afc5b514610063575b600080fd5b61005961005436600461129d565b610076565b005b6100596100ec565b610059610071366004611352565b610101565b61008f610081610138565b610089610285565b906102b9565b6100e561009c85876114b1565b8484848080601f0160208091040260200160405190810160405280939291908181526020018383808284376000920191909152506100dd925061032d915050565b92919061035b565b5050505050565b6100f7610081610138565b6100ff6103b0565b565b61010c610081610138565b61013261011984866114b1565b610123838561160d565b61012b61032d565b9190610417565b50505050565b6000333214806101485750601836105b1561015257503390565b7fffffffffffffffffffffffffffffffffffffffffffffffffffffffffffffffec36013560601c7f000000000000000000000000000000000000000000000000000000000000000073ffffffffffffffffffffffffffffffffffffffff1633148061027457506040517f019a202800000000000000000000000000000000000000000000000000000000815273ffffffffffffffffffffffffffffffffffffffff82811660048301523360248301523060448301527f0000000000000000000000000000000000000000000000000000000000000000169063019a202890606401602060405180830381865afa158015610250573d6000803e3d6000fd5b505050506040513d601f19601f82011682018060405250810190610274919061173d565b1561027e57919050565b3391505090565b6000806102b360017fb53127684a568b3173ae13b9f8a6016e243e63b6e8ee1178d6a717850b5d6104611766565b92915050565b815473ffffffffffffffffffffffffffffffffffffffff828116911614610329576040517f673a31a100000000000000000000000000000000000000000000000000000000815273ffffffffffffffffffffffffffffffffffffffff821660048201526024015b60405180910390fd5b5050565b6000806102b360017f65d27473a5b05206737961f69a3b7a55316862d7a6ef82b3f5455fe92fab43e3611766565b61036584846104ad565b61036f828261063d565b7f8faa70878671ccd212d20771b795c50af8fd3ff6cf27f4bde57e5d4de0aeb6738383836040516103a29392919061197c565b60405180910390a150505050565b60006103ba61081e565b90506103e8817f1f931c1c00000000000000000000000000000000000000000000000000000000600161084c565b610414817fb2afc5b500000000000000000000000000000000000000000000000000000000600161084c565b50565b61042183836104ad565b805160005b8181101561047a57610472838281518110610443576104436119c7565b602002602001015160000151848381518110610461576104616119c7565b60200260200101516020015161063d565b600101610426565b507f8faa70878671ccd212d20771b795c50af8fd3ff6cf27f4bde57e5d4de0aeb6738360006040516103a29291906119f6565b600182015461ffff8116908190600090600716156104dd5750600381901c60009081526002850160205260409020545b835160005b818110156105da5760008682815181106104fe576104fe6119c7565b602002602001015190508060400151516000036105625780516040517fb39ad1bb00000000000000000000000000000000000000000000000000000000815273ffffffffffffffffffffffffffffffffffffffff9091166004820152602401610320565b6020810151600081600281111561057b5761057b6117a0565b036105965761058c89878785610928565b90965094506105d0565b60018160028111156105aa576105aa6117a0565b036105be576105b98983610b5c565b6105d0565b6105ca89878785610e1f565b90965094505b50506001016104e2565b50838314610613576001860180547fffffffffffffffffffffffffffffffffffffffffffffffffffffffffffff00001661ffff85161790555b600783161561063557600383901c600090815260028701602052604090208290555b505050505050565b73ffffffffffffffffffffffffffffffffffffffff821661069157805115610329576040517fe694fd8000000000000000000000000000000000000000000000000000000000815260040160405180910390fd5b80516000036106e4576040517ff2a2140000000000000000000000000000000000000000000000000000000000815273ffffffffffffffffffffffffffffffffffffffff83166004820152602401610320565b73ffffffffffffffffffffffffffffffffffffffff821630146107675773ffffffffffffffffffffffffffffffffffffffff82163b610767576040517fdf3b7fa900000000000000000000000000000000000000000000000000000000815273ffffffffffffffffffffffffffffffffffffffff83166004820152602401610320565b6000808373ffffffffffffffffffffffffffffffffffffffff168360405161078f9190611a3f565b600060405180830381855af49150503d80600081146107ca576040519150601f19603f3d011682016040523d82523d6000602084013e6107cf565b606091505b50915091508161013257805180156107e8578082602001fd5b84846040517fe83ddca5000000000000000000000000000000000000000000000000000000008152600401610320929190611a5b565b6000806102b360017fca9d3e17f264b0f3984e2634e94adb37fa3e6a8103f06aeae6fa59e21c769f5e611766565b7c01000000000000000000000000000000000000000000000000000000007fffffffff000000000000000000000000000000000000000000000000000000008316016108c4576040517f72c683bb00000000000000000000000000000000000000000000000000000000815260040160405180910390fd5b7fffffffff00000000000000000000000000000000000000000000000000000000919091166000908152602092909252604090912080547fffffffffffffffffffffffffffffffffffffffffffffffffffffffffffffff0016911515919091179055565b8051600090819073ffffffffffffffffffffffffffffffffffffffff16301480159061096a5750825173ffffffffffffffffffffffffffffffffffffffff163b155b156109bc5782516040517f32185e0200000000000000000000000000000000000000000000000000000000815273ffffffffffffffffffffffffffffffffffffffff9091166004820152602401610320565b60408301515160005b81811015610b4e576000856040015182815181106109e5576109e56119c7565b6020908102919091018101517fffffffff0000000000000000000000000000000000000000000000000000000081166000908152918b905260409091205490915060601c8015610aa1576040517fbe33d13600000000000000000000000000000000000000000000000000000000815273ffffffffffffffffffffffffffffffffffffffff821660048201527fffffffff0000000000000000000000000000000000000000000000000000000083166024820152604401610320565b86517fffffffff00000000000000000000000000000000000000000000000000000000838116600081815260208e90526040902060609390931b7fffffffffffffffffffffffffffffffffffffffff000000000000000000000000168c1790925560058b901b60e090811692831c91831c199a909a161798819003610b3a5760038a901c600090815260028c0160205260408120999099555b8960010199505050508060010190506109c5565b509496939550929350505050565b805173ffffffffffffffffffffffffffffffffffffffff81163b610bc75781516040517f32185e0200000000000000000000000000000000000000000000000000000000815273ffffffffffffffffffffffffffffffffffffffff9091166004820152602401610320565b60408201515160005b818110156100e557600084604001518281518110610bf057610bf06119c7565b6020908102919091018101517fffffffff000000000000000000000000000000000000000000000000000000008116600090815291889052604090912054909150606081901c80610c91576040517f5416eb980000000000000000000000000000000000000000000000000000000081527fffffffff0000000000000000000000000000000000000000000000000000000084166004820152602401610320565b3073ffffffffffffffffffffffffffffffffffffffff821603610d04576040517fc792bbba0000000000000000000000000000000000000000000000000000000081527fffffffff0000000000000000000000000000000000000000000000000000000084166004820152602401610320565b8573ffffffffffffffffffffffffffffffffffffffff168173ffffffffffffffffffffffffffffffffffffffff1603610da9576040517f73d5d79700000000000000000000000000000000000000000000000000000000815273ffffffffffffffffffffffffffffffffffffffff871660048201527fffffffff0000000000000000000000000000000000000000000000000000000084166024820152604401610320565b507fffffffff0000000000000000000000000000000000000000000000000000000090911660009081526020879052604090206bffffffffffffffffffffffff919091167fffffffffffffffffffffffffffffffffffffffff000000000000000000000000606086901b16179055600101610bd0565b8051600090819073ffffffffffffffffffffffffffffffffffffffff1615610e8e5782516040517f91a5e1a300000000000000000000000000000000000000000000000000000000815273ffffffffffffffffffffffffffffffffffffffff9091166004820152602401610320565b600385901c6007861660005b85604001515181101561121457600086604001518281518110610ebf57610ebf6119c7565b6020908102919091018101517fffffffff0000000000000000000000000000000000000000000000000000000081166000908152918c9052604090912054909150606081901c610f5f576040517f5416eb980000000000000000000000000000000000000000000000000000000081527fffffffff0000000000000000000000000000000000000000000000000000000083166004820152602401610320565b7fffffffff000000000000000000000000000000000000000000000000000000008216600090815260208c905260409020543060609190911c03610ff3576040517fc792bbba0000000000000000000000000000000000000000000000000000000081527fffffffff0000000000000000000000000000000000000000000000000000000083166004820152602401610320565b600089900361103d577fffffffffffffffffffffffffffffffffffffffffffffffffffffffffffffffff909401600081815260028c01602052604090205498509360079350611063565b7fffffffffffffffffffffffffffffffffffffffffffffffffffffffffffffffff909301925b600584901b89901b6000807fffffffff0000000000000000000000000000000000000000000000000000000080841690861614611102577fffffffff000000000000000000000000000000000000000000000000000000008316600090815260208f90526040902080547fffffffffffffffffffffffffffffffffffffffff000000000000000000000000166bffffffffffffffffffffffff86161790555b50507fffffffff000000000000000000000000000000000000000000000000000000008316600090815260208d90526040812055611fff600383901c1660e0600584901b1687821461119557600082815260028f016020526040902080547fffffffff0000000000000000000000000000000000000000000000000000000080841c19909116908516831c1790556111e6565b80837bffffffffffffffffffffffffffffffffffffffffffffffffffffffff1916901c817fffffffff0000000000000000000000000000000000000000000000000000000060001b901c198d16179b505b8660000361120457600088815260028f01602052604081208190559b505b5050505050806001019050610e9a565b5060039190911b1796939550929350505050565b60008083601f84011261123a57600080fd5b50813567ffffffffffffffff81111561125257600080fd5b6020830191508360208260051b850101111561126d57600080fd5b9250929050565b803573ffffffffffffffffffffffffffffffffffffffff8116811461129857600080fd5b919050565b6000806000806000606086880312156112b557600080fd5b853567ffffffffffffffff8111156112cc57600080fd5b6112d888828901611228565b90965094506112eb905060208701611274565b9250604086013567ffffffffffffffff81111561130757600080fd5b8601601f8101881361131857600080fd5b803567ffffffffffffffff81111561132f57600080fd5b88602082840101111561134157600080fd5b959894975092955050506020019190565b6000806000806040858703121561136857600080fd5b843567ffffffffffffffff81111561137f57600080fd5b61138b87828801611228565b909550935050602085013567ffffffffffffffff8111156113ab57600080fd5b6113b787828801611228565b95989497509550505050565b7f4e487b7100000000000000000000000000000000000000000000000000000000600052604160045260246000fd5b6040516060810167ffffffffffffffff81118282101715611415576114156113c3565b60405290565b6040805190810167ffffffffffffffff81118282101715611415576114156113c3565b604051601f82017fffffffffffffffffffffffffffffffffffffffffffffffffffffffffffffffe016810167ffffffffffffffff81118282101715611485576114856113c3565b604052919050565b600067ffffffffffffffff8211156114a7576114a76113c3565b5060051b60200190565b60006114c46114bf8461148d565b61143e565b8381526020810190600585901b8401368111156114e057600080fd5b845b8181101561160257803567ffffffffffffffff81111561150157600080fd5b8601606036829003121561151457600080fd5b61151c6113f2565b61152582611274565b815260208201356003811061153957600080fd5b6020820152604082013567ffffffffffffffff81111561155857600080fd5b919091019036601f83011261156c57600080fd5b813561157a6114bf8261148d565b8082825260208201915060208360051b86010192503683111561159c57600080fd5b6020850194505b828510156115ec5784357fffffffff00000000000000000000000000000000000000000000000000000000811681146115db57600080fd5b8252602094850194909101906115a3565b60408401525050855250602093840193016114e2565b509095945050505050565b600061161b6114bf8461148d565b8381526020810190600585901b84013681111561163757600080fd5b845b8181101561160257803567ffffffffffffffff81111561165857600080fd5b8601604036829003121561166b57600080fd5b61167361141b565b61167c82611274565b8152602082013567ffffffffffffffff81111561169857600080fd5b919091019036601f8301126116ac57600080fd5b813567ffffffffffffffff8111156116c6576116c66113c3565b6116f760207fffffffffffffffffffffffffffffffffffffffffffffffffffffffffffffffe0601f8401160161143e565b81815236602083860101111561170c57600080fd5b8160208501602083013760006020838301015280602084015250508086525050602084019350602081019050611639565b60006020828403121561174f57600080fd5b8151801515811461175f57600080fd5b9392505050565b818103818111156102b3577f4e487b7100000000000000000000000000000000000000000000000000000000600052601160045260246000fd5b7f4e487b7100000000000000000000000000000000000000000000000000000000600052602160045260246000fd5b600082825180855260208501945060208160051b8301016020850160005b83811015611902577fffffffffffffffffffffffffffffffffffffffffffffffffffffffffffffffe085840301885281516060840173ffffffffffffffffffffffffffffffffffffffff8251168552602082015160038110611878577f4e487b7100000000000000000000000000000000000000000000000000000000600052602160045260246000fd5b806020870152506040820151915060606040860152808251808352608087019150602084019350600092505b808310156118e9577fffffffff0000000000000000000000000000000000000000000000000000000084511682526020820191506020840193506001830192506118a4565b5060209a8b019a909550939093019250506001016117ed565b50909695505050505050565b60005b83811015611929578181015183820152602001611911565b50506000910152565b6000815180845261194a81602086016020860161190e565b601f017fffffffffffffffffffffffffffffffffffffffffffffffffffffffffffffffe0169290920160200192915050565b60608152600061198f60608301866117cf565b73ffffffffffffffffffffffffffffffffffffffff8516602084015282810360408401526119bd8185611932565b9695505050505050565b7f4e487b7100000000000000000000000000000000000000000000000000000000600052603260045260246000fd5b606081526000611a0960608301856117cf565b73ffffffffffffffffffffffffffffffffffffffff84166020840152828103604084015260008152602081019150509392505050565b60008251611a5181846020870161190e565b9190910192915050565b73ffffffffffffffffffffffffffffffffffffffff83168152604060208201526000611a8a6040830184611932565b94935050505056fea2646970667358221220785df529a1b41407e287c0a50a43691a9787675ed47b705c0c220155b1861a0e64736f6c634300081c0033",
  "devdoc": {
    "details": "See https://eips.ethereum.org/EIPS/eip-2535Note: This facet depends on {ProxyAdminFacet} and {InterfaceDetectionFacet}.",
    "errors": {
      "EmptyFacet(address)": [
        {
          "params": {
            "facet": "The facet address."
          }
        }
      ],
      "EmptyInitCallData(address)": [
        {
          "params": {
            "target": "The target address for the initialization call."
          }
        }
      ],
      "FunctionAlreadyPresent(address,bytes4)": [
        {
          "params": {
            "facet": "The facet address which already has the function.",
            "selector": "The function selector which has already been added."
          }
        }
      ],
      "FunctionNotFound(bytes4)": [
        {
          "params": {
            "selector": "The function selector which has not been added."
          }
        }
      ],
      "InitCallReverted(address,bytes)": [
        {
          "params": {
            "data": "The data for the initialization call.",
            "target": "The target address for the initialization call."
          }
        }
      ],
      "ModifyingImmutableFunction(bytes4)": [
        {
          "params": {
            "selector": "The function selector which is immutable."
          }
        }
      ],
      "NonContractFacet(address)": [
        {
          "params": {
            "facet": "The facet address."
          }
        }
      ],
      "NonContractInitCallTarget(address)": [
        {
          "params": {
            "target": "The target address for the initialization call."
          }
        }
      ],
      "NotProxyAdmin(address)": [
        {
          "params": {
            "account": "The account that was checked."
          }
        }
      ],
      "RemovingWithNonZeroAddressFacet(address)": [
        {
          "params": {
            "facet": "The facet address which is not zero."
          }
        }
      ],
      "ReplacingFunctionByItself(address,bytes4)": [
        {
          "params": {
            "facet": "The facet address.",
            "selector": "The function selector."
          }
        }
      ]
    },
    "events": {
      "DiamondCut((address,uint8,bytes4[])[],address,bytes)": {
        "params": {
          "cuts": "The list of facet addresses, actions and function selectors applied to the diamond.",
          "data": "The encoded function call executed on `target`.",
          "target": "The address of the contract where `data` was executed."
        }
      }
    },
    "kind": "dev",
    "methods": {
      "diamondCut((address,uint8,bytes4[])[],(address,bytes)[])": {
        "details": "Reverts with {NotProxyAdmin} if the sender is not the proxy admin.",
        "params": {
          "cuts": "The list of facet addresses, actions and function selectors to apply to the diamond.",
          "initializations": "The list of addresses and encoded function calls to execute with delegatecall."
        }
      },
      "diamondCut((address,uint8,bytes4[])[],address,bytes)": {
        "details": "Reverts with {NotProxyAdmin} if the sender is not the proxy admin.",
        "params": {
          "cuts": "The list of facet addresses, actions and function selectors to apply to the diamond.",
          "data": "The encoded function call to execute on `target`.",
          "target": "The address of the contract to execute `data` on."
        }
      },
      "initDiamondCutStorage()": {
        "details": "Reverts with {NotProxyAdmin} if the sender is not the proxy admin."
      }
    },
    "title": "Diamond Cut (facet version).",
    "version": 1
  },
  "userdoc": {
    "errors": {
      "EmptyFacet(address)": [
        {
          "notice": "Thrown when trying to cut (add/replace/remove) a facet with no function selectors."
        }
      ],
      "EmptyInitCallData(address)": [
        {
          "notice": "Thrown when trying to call an initialization function with a target and empty data."
        }
      ],
      "FunctionAlreadyPresent(address,bytes4)": [
        {
          "notice": "Thrown when trying to add a function selector that has already been added."
        }
      ],
      "FunctionNotFound(bytes4)": [
        {
          "notice": "Thrown when trying to execute, remove or replace a function selector that has not been added."
        }
      ],
      "IllegalInterfaceId()": [
        {
          "notice": "Thrown when setting the illegal interfaceId 0xffffffff."
        }
      ],
      "InitCallReverted(address,bytes)": [
        {
          "notice": "Thrown when trying to call an initialization function which reverts without return data."
        }
      ],
      "ModifyingImmutableFunction(bytes4)": [
        {
          "notice": "Thrown when trying to remove or replace an immutable function."
        }
      ],
      "NonContractFacet(address)": [
        {
          "notice": "Thrown when trying to add or replace a facet which is not a deployed contract."
        }
      ],
      "NonContractInitCallTarget(address)": [
        {
          "notice": "Thrown when trying to call an initialization function on a non-contract address."
        }
      ],
      "NotProxyAdmin(address)": [
        {
          "notice": "Thrown when an account is not the proxy admin but is required to."
        }
      ],
      "RemovingWithNonZeroAddressFacet(address)": [
        {
          "notice": "Thrown when trying to remove function selectors with a non-zero facet address."
        }
      ],
      "ReplacingFunctionByItself(address,bytes4)": [
        {
          "notice": "Thrown when trying to replace a function with itself (from the same facet)."
        }
      ],
      "ZeroAddressTargetInitCallButNonEmptyData()": [
        {
          "notice": "Thrown when trying to call an initialization function with a zero address target and non-empty data."
        }
      ]
    },
    "events": {
      "DiamondCut((address,uint8,bytes4[])[],address,bytes)": {
        "notice": "Emitted when at least a cut action is operated on the diamond."
      }
    },
    "kind": "user",
    "methods": {
      "diamondCut((address,uint8,bytes4[])[],(address,bytes)[])": {
        "notice": "Add/replace/remove facet functions and execute a batch of functions with delegatecall."
      },
      "diamondCut((address,uint8,bytes4[])[],address,bytes)": {
        "notice": "Add/replace/remove facet functions and optionally execute a function with delegatecall."
      },
      "initDiamondCutStorage()": {
        "notice": "Marks the following ERC165 interface(s) as supported: DiamondCut, DiamondCutBatchInit."
      }
    },
    "version": 1
  },
  "storageLayout": {
    "storage": [],
    "types": null
  }
}