{
  "address": "0x539B86cD88fd41272335f9E46eAf7bF64f9Fa1e5",
  "abi": [
    {
      "inputs": [],
      "stateMutability": "nonpayable",
      "type": "constructor"
    },
    {
      "anonymous": false,
      "inputs": [
        {
          "indexed": true,
          "internalType": "address",
          "name": "signer",
          "type": "address"
        },
        {
          "indexed": true,
          "internalType": "address",
          "name": "forwarder",
          "type": "address"
        },
        {
          "indexed": false,
          "internalType": "bool",
          "name": "approved",
          "type": "bool"
        },
        {
          "indexed": false,
          "internalType": "uint256",
          "name": "nonce",
          "type": "uint256"
        }
      ],
      "name": "ForwarderApproved",
      "type": "event"
    },
    {
      "inputs": [],
      "name": "DOMAIN_SEPARATOR",
      "outputs": [
        {
          "internalType": "bytes32",
          "name": "domainSeparator",
          "type": "bytes32"
        }
      ],
      "stateMutability": "view",
      "type": "function"
    },
    {
      "inputs": [
        {
          "internalType": "bytes",
          "name": "signature",
          "type": "bytes"
        },
        {
          "internalType": "enum ForwarderRegistry.SignatureType",
          "name": "signatureType",
          "type": "uint8"
        },
        {
          "internalType": "address",
          "name": "target",
          "type": "address"
        },
        {
          "internalType": "bytes",
          "name": "data",
          "type": "bytes"
        }
      ],
      "name": "approveAndForward",
      "outputs": [],
      "stateMutability": "payable",
      "type": "function"
    },
    {
      "inputs": [
        {
          "internalType": "address",
          "name": "forwarder",
          "type": "address"
        },
        {
          "internalType": "bool",
          "name": "approved",
          "type": "bool"
        }
      ],
      "name": "approveForwarder",
      "outputs": [],
      "stateMutability": "nonpayable",
      "type": "function"
    },
    {
      "inputs": [
        {
          "internalType": "bool",
          "name": "approved",
          "type": "bool"
        },
        {
          "internalType": "bytes",
          "name": "signature",
          "type": "bytes"
        },
        {
          "internalType": "enum ForwarderRegistry.SignatureType",
          "name": "signatureType",
          "type": "uint8"
        }
      ],
      "name": "approveForwarder",
      "outputs": [],
      "stateMutability": "nonpayable",
      "type": "function"
    },
    {
      "inputs": [
        {
          "internalType": "bytes",
          "name": "signature",
          "type": "bytes"
        },
        {
          "internalType": "enum ForwarderRegistry.SignatureType",
          "name": "signatureType",
          "type": "uint8"
        },
        {
          "internalType": "address",
          "name": "target",
          "type": "address"
        },
        {
          "internalType": "bytes",
          "name": "data",
          "type": "bytes"
        }
      ],
      "name": "checkApprovalAndForward",
      "outputs": [],
      "stateMutability": "payable",
      "type": "function"
    },
    {
      "inputs": [
        {
          "internalType": "address",
          "name": "target",
          "type": "address"
        },
        {
          "internalType": "bytes",
          "name": "data",
          "type": "bytes"
        }
      ],
      "name": "forward",
      "outputs": [],
      "stateMutability": "payable",
      "type": "function"
    },
    {
      "inputs": [
        {
          "internalType": "address",
          "name": "signer",
          "type": "address"
        },
        {
          "internalType": "address",
          "name": "forwarder",
          "type": "address"
        }
      ],
      "name": "getNonce",
      "outputs": [
        {
          "internalType": "uint256",
          "name": "nonce",
          "type": "uint256"
        }
      ],
      "stateMutability": "view",
      "type": "function"
    },
    {
      "inputs": [
        {
          "internalType": "address",
          "name": "signer",
          "type": "address"
        },
        {
          "internalType": "address",
          "name": "forwarder",
          "type": "address"
        }
      ],
      "name": "isForwarderFor",
      "outputs": [
        {
          "internalType": "bool",
          "name": "",
          "type": "bool"
        }
      ],
      "stateMutability": "view",
      "type": "function"
    },
    {
      "inputs": [
        {
          "internalType": "address",
          "name": "",
          "type": "address"
        }
      ],
      "name": "isTrustedForwarder",
      "outputs": [
        {
          "internalType": "bool",
          "name": "",
          "type": "bool"
        }
      ],
      "stateMutability": "pure",
      "type": "function"
    }
  ],
  "transactionHash": "0x03a88aed6628b0501dde34f8b8ef36debde749d16c21441310a54bbea6d94910",
  "args": [],
  "numDeployments": 1,
  "solcInputHash": "9410edcddb86920fedd4d4a708e91790",
  "bytecode": "0x60c060405234801561001057600080fd5b50466080818152604080517f8cad95687ba82c2ce50e74f7b754645e5117c3a5bec8151c0726d5857980a8666020808301919091527f06a520fda4ca688235391b02e357c6a65eb2a3bb40a69c0199f3f7f9cccee041828401526060820185905230828501528251808303909401845260a0909101909152815191012060a0525060805160a05161188e6100b66000396000610daa01526000610d03015261188e6000f3fe6080604052600436106100965760003560e01c8063572b6c0511610069578063d828435d1161004e578063d828435d1461015c578063e55ae5e2146101ce578063e60125d6146101e157600080fd5b8063572b6c05146101185780636fadcf721461014957600080fd5b8063040c1e551461009b5780631d095a69146100bd57806335297d1b146100dd5780633644e515146100f0575b600080fd5b3480156100a757600080fd5b506100bb6100b6366004611445565b610201565b005b3480156100c957600080fd5b506100bb6100d83660046114c9565b610269565b6100bb6100eb36600461152e565b61032c565b3480156100fc57600080fd5b50610105610444565b6040519081526020015b60405180910390f35b34801561012457600080fd5b506101396101333660046115c2565b50600190565b604051901515815260200161010f565b6100bb6101573660046115dd565b610453565b34801561016857600080fd5b50610105610177366004611630565b73ffffffffffffffffffffffffffffffffffffffff9182166000908152602081815260408083209390941682529190915220547effffffffffffffffffffffffffffffffffffffffffffffffffffffffffffff1690565b6100bb6101dc36600461152e565b61058e565b3480156101ed57600080fd5b506101396101fc366004611630565b610764565b3360008181526020818152604080832073ffffffffffffffffffffffffffffffffffffffff87168452909152902080546102639082908490879087907effffffffffffffffffffffffffffffffffffffffffffffffffffffffffffff166107e4565b50505050565b7fffffffffffffffffffffffffffffffffffffffffffffffffffffffffffffffec36013560601c600081815260208181526040808320338085529083529281902080548251601f890185900485028101850190935287835290927effffffffffffffffffffffffffffffffffffffffffffffffffffffffffffff9091169161031591869186918c9186918d908d90819084018382808284376000920191909152508d92506108b4915050565b6103228285858b856107e4565b5050505050505050565b7fffffffffffffffffffffffffffffffffffffffffffffffffffffffffffffffec36013560601c6000818152602081815260408083203380855290835292819020548151601f8b018490048402810184019092528982526103d592859285926001927effffffffffffffffffffffffffffffffffffffffffffffffffffffffffffff90911691908e908e90819084018382808284376000920191909152508e92506108b4915050565b6104398484846040516020016103ed9392919061165a565b604080517fffffffffffffffffffffffffffffffffffffffffffffffffffffffffffffffe081840301815291905273ffffffffffffffffffffffffffffffffffffffff87169034610cd0565b505050505050505050565b600061044e610cfe565b905090565b367fffffffffffffffffffffffffffffffffffffffffffffffffffffffffffffffec013560601c6000818152602081815260408083203384529091529020547f0100000000000000000000000000000000000000000000000000000000000000900460ff16610523576040517f08c379a000000000000000000000000000000000000000000000000000000000815260206004820152601860248201527f4e4f545f415554484f52495a45445f464f52574152444552000000000000000060448201526064015b60405180910390fd5b61058783838360405160200161053b9392919061165a565b604080517fffffffffffffffffffffffffffffffffffffffffffffffffffffffffffffffe081840301815291905273ffffffffffffffffffffffffffffffffffffffff86169034610cd0565b5050505050565b6000367fffffffffffffffffffffffffffffffffffffffffffffffffffffffffffffffec013560601c9050600033905060008060008473ffffffffffffffffffffffffffffffffffffffff1673ffffffffffffffffffffffffffffffffffffffff16815260200190815260200160002060008373ffffffffffffffffffffffffffffffffffffffff1673ffffffffffffffffffffffffffffffffffffffff168152602001908152602001600020905060008160000160009054906101000a90047effffffffffffffffffffffffffffffffffffffffffffffffffffffffffffff167effffffffffffffffffffffffffffffffffffffffffffffffffffffffffffff1690506106e584846001848e8e8080601f016020809104026020016040519081016040528093929190818152602001838380828437600081840152601f19601f820116905080830192505050505050508d6108b4565b6106f38285856001856107e4565b61075786868660405160200161070b9392919061165a565b604080517fffffffffffffffffffffffffffffffffffffffffffffffffffffffffffffffe081840301815291905273ffffffffffffffffffffffffffffffffffffffff89169034610cd0565b5050505050505050505050565b600073ffffffffffffffffffffffffffffffffffffffff82163014806107dd575073ffffffffffffffffffffffffffffffffffffffff838116600090815260208181526040808320938616835292905220547f0100000000000000000000000000000000000000000000000000000000000000900460ff165b9392505050565b600181017effffffffffffffffffffffffffffffffffffffffffffffffffffffffffffff168215157f010000000000000000000000000000000000000000000000000000000000000081027fff0000000000000000000000000000000000000000000000000000000000000016919091178655604080519182526020820183905273ffffffffffffffffffffffffffffffffffffffff85811692908716917f26eeb9a45fc0ed1a714977219563a1ae73a8da96bc19e08479dab98729dec65a910160405180910390a35050505050565b60006108be610cfe565b604080517f9a9934e308f412c61ed88f4935ffd5a85e07384c7daec62cf23534d1ccc6a814602082015273ffffffffffffffffffffffffffffffffffffffff89169181019190915286151560608201526080810186905260a001604051602081830303815290604052805190602001206040516020016109709291907f190100000000000000000000000000000000000000000000000000000000000081526002810192909252602282015260420190565b604080517fffffffffffffffffffffffffffffffffffffffffffffffffffffffffffffffe0818403018152919052905060028260028111156109b4576109b4611693565b03610ade576040517f20c13b0b000000000000000000000000000000000000000000000000000000008082529073ffffffffffffffffffffffffffffffffffffffff8916906320c13b0b90610a0f9085908890600401611738565b602060405180830381865afa158015610a2c573d6000803e3d6000fd5b505050506040513d601f19601f82011682018060405250810190610a509190611766565b7fffffffff000000000000000000000000000000000000000000000000000000001614610ad9576040517f08c379a000000000000000000000000000000000000000000000000000000000815260206004820152601660248201527f5349474e41545552455f313237315f494e56414c494400000000000000000000604482015260640161051a565b610cc7565b6001826002811115610af257610af2611693565b03610c1c57805160208201206040517f1626ba7e000000000000000000000000000000000000000000000000000000008082529173ffffffffffffffffffffffffffffffffffffffff8a1691631626ba7e91610b529188906004016117a8565b602060405180830381865afa158015610b6f573d6000803e3d6000fd5b505050506040513d601f19601f82011682018060405250810190610b939190611766565b7fffffffff000000000000000000000000000000000000000000000000000000001614610ad9576040517f08c379a000000000000000000000000000000000000000000000000000000000815260206004820152601660248201527f5349474e41545552455f313635345f494e56414c494400000000000000000000604482015260640161051a565b80516020820120600090610c309085610dd0565b90508073ffffffffffffffffffffffffffffffffffffffff168873ffffffffffffffffffffffffffffffffffffffff1614610322576040517f08c379a000000000000000000000000000000000000000000000000000000000815260206004820152601660248201527f5349474e41545552455f57524f4e475f5349474e455200000000000000000000604482015260640161051a565b50505050505050565b6060610cf684848460405180606001604052806029815260200161183060299139610df4565b949350505050565b6000467f00000000000000000000000000000000000000000000000000000000000000008114610da857604080517f8cad95687ba82c2ce50e74f7b754645e5117c3a5bec8151c0726d5857980a8666020808301919091527f06a520fda4ca688235391b02e357c6a65eb2a3bb40a69c0199f3f7f9cccee0418284015260608201849052306080808401919091528351808403909101815260a09092019092528051910120610dca565b7f00000000000000000000000000000000000000000000000000000000000000005b91505090565b6000806000610ddf8585610f8a565b91509150610dec81610ff8565b509392505050565b606082471015610e86576040517f08c379a000000000000000000000000000000000000000000000000000000000815260206004820152602660248201527f416464726573733a20696e73756666696369656e742062616c616e636520666f60448201527f722063616c6c0000000000000000000000000000000000000000000000000000606482015260840161051a565b73ffffffffffffffffffffffffffffffffffffffff85163b610f04576040517f08c379a000000000000000000000000000000000000000000000000000000000815260206004820152601d60248201527f416464726573733a2063616c6c20746f206e6f6e2d636f6e7472616374000000604482015260640161051a565b6000808673ffffffffffffffffffffffffffffffffffffffff168587604051610f2d91906117c1565b60006040518083038185875af1925050503d8060008114610f6a576040519150601f19603f3d011682016040523d82523d6000602084013e610f6f565b606091505b5091509150610f7f82828661124f565b979650505050505050565b6000808251604103610fc05760208301516040840151606085015160001a610fb4878285856112a2565b94509450505050610ff1565b8251604003610fe95760208301516040840151610fde8683836113ba565b935093505050610ff1565b506000905060025b9250929050565b600081600481111561100c5761100c611693565b036110145750565b600181600481111561102857611028611693565b0361108f576040517f08c379a000000000000000000000000000000000000000000000000000000000815260206004820152601860248201527f45434453413a20696e76616c6964207369676e61747572650000000000000000604482015260640161051a565b60028160048111156110a3576110a3611693565b0361110a576040517f08c379a000000000000000000000000000000000000000000000000000000000815260206004820152601f60248201527f45434453413a20696e76616c6964207369676e6174757265206c656e67746800604482015260640161051a565b600381600481111561111e5761111e611693565b036111ab576040517f08c379a000000000000000000000000000000000000000000000000000000000815260206004820152602260248201527f45434453413a20696e76616c6964207369676e6174757265202773272076616c60448201527f7565000000000000000000000000000000000000000000000000000000000000606482015260840161051a565b60048160048111156111bf576111bf611693565b0361124c576040517f08c379a000000000000000000000000000000000000000000000000000000000815260206004820152602260248201527f45434453413a20696e76616c6964207369676e6174757265202776272076616c60448201527f7565000000000000000000000000000000000000000000000000000000000000606482015260840161051a565b50565b6060831561125e5750816107dd565b82511561126e5782518084602001fd5b816040517f08c379a000000000000000000000000000000000000000000000000000000000815260040161051a91906117dd565b6000807f7fffffffffffffffffffffffffffffff5d576e7357a4501ddfe92f46681b20a08311156112d957506000905060036113b1565b8460ff16601b141580156112f157508460ff16601c14155b1561130257506000905060046113b1565b6040805160008082526020820180845289905260ff881692820192909252606081018690526080810185905260019060a0016020604051602081039080840390855afa158015611356573d6000803e3d6000fd5b50506040517fffffffffffffffffffffffffffffffffffffffffffffffffffffffffffffffe0015191505073ffffffffffffffffffffffffffffffffffffffff81166113aa576000600192509250506113b1565b9150600090505b94509492505050565b6000807f7fffffffffffffffffffffffffffffffffffffffffffffffffffffffffffffff8316816113f060ff86901c601b6117f0565b90506113fe878288856112a2565b935093505050935093915050565b803573ffffffffffffffffffffffffffffffffffffffff8116811461143057600080fd5b919050565b8035801515811461143057600080fd5b6000806040838503121561145857600080fd5b6114618361140c565b915061146f60208401611435565b90509250929050565b60008083601f84011261148a57600080fd5b50813567ffffffffffffffff8111156114a257600080fd5b602083019150836020828501011115610ff157600080fd5b80356003811061143057600080fd5b600080600080606085870312156114df57600080fd5b6114e885611435565b9350602085013567ffffffffffffffff81111561150457600080fd5b61151087828801611478565b90945092506115239050604086016114ba565b905092959194509250565b6000806000806000806080878903121561154757600080fd5b863567ffffffffffffffff8082111561155f57600080fd5b61156b8a838b01611478565b909850965086915061157f60208a016114ba565b955061158d60408a0161140c565b945060608901359150808211156115a357600080fd5b506115b089828a01611478565b979a9699509497509295939492505050565b6000602082840312156115d457600080fd5b6107dd8261140c565b6000806000604084860312156115f257600080fd5b6115fb8461140c565b9250602084013567ffffffffffffffff81111561161757600080fd5b61162386828701611478565b9497909650939450505050565b6000806040838503121561164357600080fd5b61164c8361140c565b915061146f6020840161140c565b8284823760609190911b7fffffffffffffffffffffffffffffffffffffffff000000000000000000000000169101908152601401919050565b7f4e487b7100000000000000000000000000000000000000000000000000000000600052602160045260246000fd5b60005b838110156116dd5781810151838201526020016116c5565b838111156102635750506000910152565b600081518084526117068160208601602086016116c2565b601f017fffffffffffffffffffffffffffffffffffffffffffffffffffffffffffffffe0169290920160200192915050565b60408152600061174b60408301856116ee565b828103602084015261175d81856116ee565b95945050505050565b60006020828403121561177857600080fd5b81517fffffffff00000000000000000000000000000000000000000000000000000000811681146107dd57600080fd5b828152604060208201526000610cf660408301846116ee565b600082516117d38184602087016116c2565b9190910192915050565b6020815260006107dd60208301846116ee565b6000821982111561182a577f4e487b7100000000000000000000000000000000000000000000000000000000600052601160045260246000fd5b50019056fe416464726573733a206c6f772d6c6576656c2063616c6c20776974682076616c7565206661696c6564a2646970667358221220f155beed9d5d4f9588ec08a29b5fd9d8ed707501dcf0524b6947e19081ceee6764736f6c634300080f0033",
  "devdoc": {
    "details": "Derived from https://github.com/wighawag/universal-forwarder (MIT licence)",
    "events": {
      "ForwarderApproved(address,address,bool,uint256)": {
        "params": {
          "approved": "True for an approval, false for a disapproval.",
          "forwarder": "The account approved or disapproved as forwarder.",
          "nonce": "The `signer`'s account nonce before the approval change.",
          "signer": "The account for which `forwarder` is approved or disapproved."
        }
      }
    },
    "kind": "dev",
    "methods": {
      "DOMAIN_SEPARATOR()": {
        "returns": {
          "domainSeparator": "The ERC1271 domain separator."
        }
      },
      "approveAndForward(bytes,uint8,address,bytes)": {
        "params": {
          "data": "The content of the call (the signer address will be appended to it according to EIP-2771).",
          "signature": "Signature by the signer for approving the forwarder.",
          "target": "The destination of the call (that will receive the meta-transaction)."
        }
      },
      "approveForwarder(address,bool)": {
        "params": {
          "approved": "Whether to approve or disapprove (if previously approved) the forwarder.",
          "forwarder": "The address of the forwarder to change the approval of."
        }
      },
      "approveForwarder(bool,bytes,uint8)": {
        "params": {
          "approved": "Whether to approve or disapprove (if previously approved) the forwarder.",
          "signature": "Signature by signer for approving forwarder.",
          "signatureType": "The signature type."
        }
      },
      "checkApprovalAndForward(bytes,uint8,address,bytes)": {
        "params": {
          "data": "The content of the call (the signer address will be appended to it according to EIP-2771).",
          "signature": "Signature by the signer for approving the forwarder.",
          "target": "The destination of the call (that will receive the meta-transaction)."
        }
      },
      "forward(address,bytes)": {
        "params": {
          "data": "The content of the call (the signer address will be appended to it according to EIP-2771).",
          "target": "The destination of the call (that will receive the meta-transaction)."
        }
      },
      "getNonce(address,address)": {
        "params": {
          "forwarder": "The forwarder account.",
          "signer": "The signer account."
        },
        "returns": {
          "nonce": "The current nonce for the `signer`/`forwarder` pair."
        }
      },
      "isForwarderFor(address,address)": {
        "params": {
          "forwarder": "The forwarder account."
        },
        "returns": {
          "_0": "True if `forwarder` is a meta-transaction forwarder for `signer`, false otherwise."
        }
      },
      "isTrustedForwarder(address)": {
        "params": {
          "forwarder": "The forwarder to check."
        },
        "returns": {
          "_0": "True if `forwarder` is trusted, false if not."
        }
      }
    },
    "title": "Universal Meta-Transactions Forwarder Registry.",
    "version": 1
  },
  "userdoc": {
    "events": {
      "ForwarderApproved(address,address,bool,uint256)": {
        "notice": "Emitted when a forwarder is approved or disapproved."
      }
    },
    "kind": "user",
    "methods": {
      "DOMAIN_SEPARATOR()": {
        "notice": "Gets the ERC1271 DOMAIN_SEPARATOR."
      },
      "approveAndForward(bytes,uint8,address,bytes)": {
        "notice": "Approves the forwarder and forwards the meta-transaction."
      },
      "approveForwarder(address,bool)": {
        "notice": "Approves or disapproves a forwarder for the sender."
      },
      "approveForwarder(bool,bytes,uint8)": {
        "notice": "Approves or disapproves a forwarder using EIP-2771 (msg.sender is the forwarder and the approval signer is appended to the calldata)."
      },
      "checkApprovalAndForward(bytes,uint8,address,bytes)": {
        "notice": "Checks the signed approval (but does not record it) and forwards the meta-transaction."
      },
      "forward(address,bytes)": {
        "notice": "Forwards the meta-transaction (assuming the caller has been approved by the signer as a forwarder)."
      },
      "getNonce(address,address)": {
        "notice": "Gets the current nonce for the signer/forwarder pair."
      },
      "isForwarderFor(address,address)": {
        "notice": "Checks whether an account is as a meta-transaction forwarder for a signer account."
      },
      "isTrustedForwarder(address)": {
        "notice": "Checks whether a forwarder is trusted."
      }
    },
    "notice": "Users can allow specific forwarders to forward meta-transactions on their behalf.",
    "version": 1
  },
  "storageLayout": {
    "storage": [
      {
        "astId": 5385,
        "contract": "contracts/metatx/ForwarderRegistry.sol:ForwarderRegistry",
        "label": "_forwarders",
        "offset": 0,
        "slot": "0",
        "type": "t_mapping(t_address,t_mapping(t_address,t_struct(Forwarder)5362_storage))"
      }
    ],
    "types": {
      "t_address": {
        "encoding": "inplace",
        "label": "address",
        "numberOfBytes": "20"
      },
      "t_bool": {
        "encoding": "inplace",
        "label": "bool",
        "numberOfBytes": "1"
      },
      "t_mapping(t_address,t_mapping(t_address,t_struct(Forwarder)5362_storage))": {
        "encoding": "mapping",
        "key": "t_address",
        "label": "mapping(address => mapping(address => struct ForwarderRegistry.Forwarder))",
        "numberOfBytes": "32",
        "value": "t_mapping(t_address,t_struct(Forwarder)5362_storage)"
      },
      "t_mapping(t_address,t_struct(Forwarder)5362_storage)": {
        "encoding": "mapping",
        "key": "t_address",
        "label": "mapping(address => struct ForwarderRegistry.Forwarder)",
        "numberOfBytes": "32",
        "value": "t_struct(Forwarder)5362_storage"
      },
      "t_struct(Forwarder)5362_storage": {
        "encoding": "inplace",
        "label": "struct ForwarderRegistry.Forwarder",
        "members": [
          {
            "astId": 5359,
            "contract": "contracts/metatx/ForwarderRegistry.sol:ForwarderRegistry",
            "label": "nonce",
            "offset": 0,
            "slot": "0",
            "type": "t_uint248"
          },
          {
            "astId": 5361,
            "contract": "contracts/metatx/ForwarderRegistry.sol:ForwarderRegistry",
            "label": "approved",
            "offset": 31,
            "slot": "0",
            "type": "t_bool"
          }
        ],
        "numberOfBytes": "32"
      },
      "t_uint248": {
        "encoding": "inplace",
        "label": "uint248",
        "numberOfBytes": "31"
      }
    }
  }
}