{
  "address": "0xC6d3b86D96878eeA1f59d6598c0c43000C85cB69",
  "abi": [
    {
      "inputs": [
        {
          "internalType": "address",
          "name": "fxChild",
          "type": "address"
        },
        {
          "internalType": "address",
          "name": "childTokenLogic",
          "type": "address"
        },
        {
          "internalType": "contract IForwarderRegistry",
          "name": "forwarderRegistry",
          "type": "address"
        }
      ],
      "stateMutability": "nonpayable",
      "type": "constructor"
    },
    {
      "inputs": [],
      "name": "FxERC20ChildTokenLogicNotContract",
      "type": "error"
    },
    {
      "inputs": [
        {
          "internalType": "bytes32",
          "name": "syncType",
          "type": "bytes32"
        }
      ],
      "name": "FxERC20InvalidSyncType",
      "type": "error"
    },
    {
      "inputs": [],
      "name": "FxERC20InvalidWithdrawalAddress",
      "type": "error"
    },
    {
      "inputs": [
        {
          "internalType": "address",
          "name": "rootToken",
          "type": "address"
        },
        {
          "internalType": "address",
          "name": "childToken",
          "type": "address"
        }
      ],
      "name": "FxERC20TokenAlreadyMapped",
      "type": "error"
    },
    {
      "inputs": [],
      "name": "FxERC20TokenNotMapped",
      "type": "error"
    },
    {
      "inputs": [],
      "name": "IllegalInterfaceId",
      "type": "error"
    },
    {
      "inputs": [
        {
          "internalType": "address",
          "name": "token",
          "type": "address"
        }
      ],
      "name": "SafeERC20FailedOperation",
      "type": "error"
    },
    {
      "anonymous": false,
      "inputs": [
        {
          "indexed": true,
          "internalType": "address",
          "name": "rootToken",
          "type": "address"
        },
        {
          "indexed": true,
          "internalType": "address",
          "name": "childToken",
          "type": "address"
        },
        {
          "indexed": false,
          "internalType": "address",
          "name": "depositor",
          "type": "address"
        },
        {
          "indexed": false,
          "internalType": "address",
          "name": "recipient",
          "type": "address"
        },
        {
          "indexed": false,
          "internalType": "uint256",
          "name": "amount",
          "type": "uint256"
        }
      ],
      "name": "FxERC20Deposit",
      "type": "event"
    },
    {
      "anonymous": false,
      "inputs": [
        {
          "indexed": true,
          "internalType": "address",
          "name": "rootToken",
          "type": "address"
        },
        {
          "indexed": true,
          "internalType": "address",
          "name": "childToken",
          "type": "address"
        }
      ],
      "name": "FxERC20TokenMapping",
      "type": "event"
    },
    {
      "anonymous": false,
      "inputs": [
        {
          "indexed": true,
          "internalType": "address",
          "name": "rootToken",
          "type": "address"
        },
        {
          "indexed": true,
          "internalType": "address",
          "name": "childToken",
          "type": "address"
        },
        {
          "indexed": false,
          "internalType": "address",
          "name": "withdrawer",
          "type": "address"
        },
        {
          "indexed": false,
          "internalType": "address",
          "name": "recipient",
          "type": "address"
        },
        {
          "indexed": false,
          "internalType": "uint256",
          "name": "amount",
          "type": "uint256"
        }
      ],
      "name": "FxERC20Withdrawal",
      "type": "event"
    },
    {
      "anonymous": false,
      "inputs": [
        {
          "indexed": false,
          "internalType": "bytes",
          "name": "message",
          "type": "bytes"
        }
      ],
      "name": "MessageSent",
      "type": "event"
    },
    {
      "inputs": [],
      "name": "CHILD_TOKEN_LOGIC",
      "outputs": [
        {
          "internalType": "address",
          "name": "",
          "type": "address"
        }
      ],
      "stateMutability": "view",
      "type": "function"
    },
    {
      "inputs": [],
      "name": "DEPOSIT",
      "outputs": [
        {
          "internalType": "bytes32",
          "name": "",
          "type": "bytes32"
        }
      ],
      "stateMutability": "view",
      "type": "function"
    },
    {
      "inputs": [],
      "name": "MAP_TOKEN",
      "outputs": [
        {
          "internalType": "bytes32",
          "name": "",
          "type": "bytes32"
        }
      ],
      "stateMutability": "view",
      "type": "function"
    },
    {
      "inputs": [],
      "name": "PREFIX_SYMBOL",
      "outputs": [
        {
          "internalType": "string",
          "name": "",
          "type": "string"
        }
      ],
      "stateMutability": "view",
      "type": "function"
    },
    {
      "inputs": [],
      "name": "SUFFIX_NAME",
      "outputs": [
        {
          "internalType": "string",
          "name": "",
          "type": "string"
        }
      ],
      "stateMutability": "view",
      "type": "function"
    },
    {
      "inputs": [
        {
          "internalType": "bytes32",
          "name": "salt",
          "type": "bytes32"
        },
        {
          "internalType": "bytes32",
          "name": "bytecodeHash",
          "type": "bytes32"
        },
        {
          "internalType": "address",
          "name": "deployer",
          "type": "address"
        }
      ],
      "name": "computedCreate2Address",
      "outputs": [
        {
          "internalType": "address",
          "name": "",
          "type": "address"
        }
      ],
      "stateMutability": "pure",
      "type": "function"
    },
    {
      "inputs": [],
      "name": "forwarderRegistry",
      "outputs": [
        {
          "internalType": "contract IForwarderRegistry",
          "name": "",
          "type": "address"
        }
      ],
      "stateMutability": "view",
      "type": "function"
    },
    {
      "inputs": [],
      "name": "fxChild",
      "outputs": [
        {
          "internalType": "address",
          "name": "",
          "type": "address"
        }
      ],
      "stateMutability": "view",
      "type": "function"
    },
    {
      "inputs": [],
      "name": "fxRootTunnel",
      "outputs": [
        {
          "internalType": "address",
          "name": "",
          "type": "address"
        }
      ],
      "stateMutability": "view",
      "type": "function"
    },
    {
      "inputs": [
        {
          "internalType": "address",
          "name": "forwarder",
          "type": "address"
        }
      ],
      "name": "isTrustedForwarder",
      "outputs": [
        {
          "internalType": "bool",
          "name": "",
          "type": "bool"
        }
      ],
      "stateMutability": "view",
      "type": "function"
    },
    {
      "inputs": [
        {
          "internalType": "address",
          "name": "",
          "type": "address"
        },
        {
          "internalType": "address",
          "name": "from",
          "type": "address"
        },
        {
          "internalType": "uint256",
          "name": "value",
          "type": "uint256"
        },
        {
          "internalType": "bytes",
          "name": "data",
          "type": "bytes"
        }
      ],
      "name": "onERC20Received",
      "outputs": [
        {
          "internalType": "bytes4",
          "name": "magicValue",
          "type": "bytes4"
        }
      ],
      "stateMutability": "nonpayable",
      "type": "function"
    },
    {
      "inputs": [
        {
          "internalType": "uint256",
          "name": "stateId",
          "type": "uint256"
        },
        {
          "internalType": "address",
          "name": "rootMessageSender",
          "type": "address"
        },
        {
          "internalType": "bytes",
          "name": "data",
          "type": "bytes"
        }
      ],
      "name": "processMessageFromRoot",
      "outputs": [],
      "stateMutability": "nonpayable",
      "type": "function"
    },
    {
      "inputs": [
        {
          "internalType": "address",
          "name": "",
          "type": "address"
        }
      ],
      "name": "rootToChildToken",
      "outputs": [
        {
          "internalType": "address",
          "name": "",
          "type": "address"
        }
      ],
      "stateMutability": "view",
      "type": "function"
    },
    {
      "inputs": [
        {
          "internalType": "address",
          "name": "_fxRootTunnel",
          "type": "address"
        }
      ],
      "name": "setFxRootTunnel",
      "outputs": [],
      "stateMutability": "nonpayable",
      "type": "function"
    },
    {
      "inputs": [
        {
          "internalType": "bytes4",
          "name": "interfaceId",
          "type": "bytes4"
        }
      ],
      "name": "supportsInterface",
      "outputs": [
        {
          "internalType": "bool",
          "name": "",
          "type": "bool"
        }
      ],
      "stateMutability": "view",
      "type": "function"
    },
    {
      "inputs": [
        {
          "internalType": "address",
          "name": "childToken",
          "type": "address"
        },
        {
          "internalType": "uint256",
          "name": "amount",
          "type": "uint256"
        }
      ],
      "name": "withdraw",
      "outputs": [],
      "stateMutability": "nonpayable",
      "type": "function"
    },
    {
      "inputs": [
        {
          "internalType": "address",
          "name": "childToken",
          "type": "address"
        },
        {
          "internalType": "address",
          "name": "receiver",
          "type": "address"
        },
        {
          "internalType": "uint256",
          "name": "amount",
          "type": "uint256"
        }
      ],
      "name": "withdrawTo",
      "outputs": [],
      "stateMutability": "nonpayable",
      "type": "function"
    }
  ],
  "transactionHash": "0xab820a421dfd0f52149ffc80b38778bad0a07d239ead00b57230e48c67336904",
  "args": [
    "0x8397259c983751DAf40400790063935a11afa28a",
    "0x826BED4057985E583D00F3cD2fcd3e4909fE8fB6",
    "0x316a472D084489CB6d4C66e5eB62aE3AdA17521e"
  ],
  "numDeployments": 1,
  "solcInputHash": "4046faabd850477eb3782908ea433876",
  "bytecode": "0x60c060405234801561001057600080fd5b50604051611ccf380380611ccf83398101604081905261002f9161015c565b600080546001600160a01b0319166001600160a01b038516179055828282808061006b634fc3585960e01b60016100646100b4565b91906100e8565b6001600160a01b0390811660805283163b1515905061009d57604051630a1ae39360e11b815260040160405180910390fd5b506001600160a01b031660a052506101ca92505050565b6000806100e260017fca9d3e17f264b0f3984e2634e94adb37fa3e6a8103f06aeae6fa59e21c769f5e6101a9565b92915050565b600160e01b6001600160e01b0319831601610116576040516372c683bb60e01b815260040160405180910390fd5b6001600160e01b03199190911660009081526020929092526040909120805460ff1916911515919091179055565b6001600160a01b038116811461015957600080fd5b50565b60008060006060848603121561017157600080fd5b835161017c81610144565b602085015190935061018d81610144565b604085015190925061019e81610144565b809150509250925092565b818103818111156100e257634e487b7160e01b600052601160045260246000fd5b60805160a051611ac461020b600039600081816102ca0152610f3e01526000818161014a0152818161028801528181610c250152610cb30152611ac46000f3fe608060405234801561001057600080fd5b506004361061011b5760003560e01c80637337957f116100b25780639a7c4b7111610081578063d81c8e5211610066578063d81c8e5214610410578063ea60c7c414610437578063f3fef3a31461046d57600080fd5b80639a7c4b71146103ea578063c3b35a7e146103fd57600080fd5b80637337957f146102ec5780637f1e9cb014610380578063886a69ba146103a057806388837094146103d557600080fd5b8063450d11f0116100ee578063450d11f0146102145780634fc3585914610234578063572b6c05146102785780636c4603c9146102c557600080fd5b806301ffc9a7146101205780632b4c9f16146101485780633740d5a01461018f57806339c6c9e0146101d8575b600080fd5b61013361012e3660046113e3565b610480565b60405190151581526020015b60405180910390f35b7f00000000000000000000000000000000000000000000000000000000000000005b60405173ffffffffffffffffffffffffffffffffffffffff909116815260200161013f565b6101cb6040518060400160405280600181526020017f700000000000000000000000000000000000000000000000000000000000000081525081565b60405161013f919061149a565b6101cb6040518060400160405280600a81526020017f2028506f6c79676f6e290000000000000000000000000000000000000000000081525081565b60005461016a9073ffffffffffffffffffffffffffffffffffffffff1681565b61024761024236600461151b565b61049a565b6040517fffffffff00000000000000000000000000000000000000000000000000000000909116815260200161013f565b61013361028636600461158e565b7f000000000000000000000000000000000000000000000000000000000000000073ffffffffffffffffffffffffffffffffffffffff90811691161490565b61016a7f000000000000000000000000000000000000000000000000000000000000000081565b61016a6102fa3660046115ab565b604080517fff0000000000000000000000000000000000000000000000000000000000000060208083019190915260609390931b7fffffffffffffffffffffffffffffffffffffffff0000000000000000000000001660218201526035810194909452605580850193909352805180850390930183526075909301909252805191012090565b60015461016a9073ffffffffffffffffffffffffffffffffffffffff1681565b6103c77f2cef46a936bdc5b7e6e8c71aa04560c41cf7d88bb26901a7e7f4936ff02accad81565b60405190815260200161013f565b6103e86103e336600461158e565b610536565b005b6103e86103f83660046115e4565b610628565b6103e861040b366004611640565b610716565b6103c77f87a7811f4bfedea3d341ad165680ae306b01aaeacc205d227629cf157dd9f82181565b61016a61044536600461158e565b60026020526000908152604090205473ffffffffffffffffffffffffffffffffffffffff1681565b6103e861047b366004611681565b610786565b60006104948261048e6107ae565b906107dc565b92915050565b60008482156104fe576104af8385018561158e565b905073ffffffffffffffffffffffffffffffffffffffff81166104fe576040517fcb13d6aa00000000000000000000000000000000000000000000000000000000815260040160405180910390fd5b61050a338783886108b6565b507f4fc35859000000000000000000000000000000000000000000000000000000009695505050505050565b60015473ffffffffffffffffffffffffffffffffffffffff16156105e1576040517f08c379a000000000000000000000000000000000000000000000000000000000815260206004820152602a60248201527f4678426173654368696c6454756e6e656c3a20524f4f545f54554e4e454c5f4160448201527f4c52454144595f5345540000000000000000000000000000000000000000000060648201526084015b60405180910390fd5b600180547fffffffffffffffffffffffff00000000000000000000000000000000000000001673ffffffffffffffffffffffffffffffffffffffff92909216919091179055565b60005473ffffffffffffffffffffffffffffffffffffffff1633146106cf576040517f08c379a000000000000000000000000000000000000000000000000000000000815260206004820152602160248201527f4678426173654368696c6454756e6e656c3a20494e56414c49445f53454e444560448201527f520000000000000000000000000000000000000000000000000000000000000060648201526084016105d8565b610710848484848080601f016020809104026020016040519081016040528093929190818152602001838380828437600092019190915250610a7392505050565b50505050565b73ffffffffffffffffffffffffffffffffffffffff8216610763576040517fcb13d6aa00000000000000000000000000000000000000000000000000000000815260040160405180910390fd5b600061076d610be2565b905061077b848285856108b6565b610710848284610d2f565b6000610790610be2565b905061079e838283856108b6565b6107a9838284610d2f565b505050565b60008061049460017fca9d3e17f264b0f3984e2634e94adb37fa3e6a8103f06aeae6fa59e21c769f5e6116ad565b60007c01000000000000000000000000000000000000000000000000000000007fffffffff0000000000000000000000000000000000000000000000000000000083160161082c57506000610494565b7ffe003659000000000000000000000000000000000000000000000000000000007fffffffff0000000000000000000000000000000000000000000000000000000083160161087d57506001610494565b507fffffffff00000000000000000000000000000000000000000000000000000000166000908152602091909152604090205460ff1690565b60008473ffffffffffffffffffffffffffffffffffffffff16630a8a49146040518163ffffffff1660e01b81526004016020604051808303816000875af1158015610905573d6000803e3d6000fd5b505050506040513d601f19601f8201168201806040525081019061092991906116e7565b905073ffffffffffffffffffffffffffffffffffffffff81161580610978575073ffffffffffffffffffffffffffffffffffffffff808216600090815260026020526040902054868216911614155b156109af576040517f6cddfcaf00000000000000000000000000000000000000000000000000000000815260040160405180910390fd5b6040805173ffffffffffffffffffffffffffffffffffffffff8084166020830152808816928201929092528186166060820152908416608082015260a08101839052610a0c9060c001604051602081830303815290604052610d51565b6040805173ffffffffffffffffffffffffffffffffffffffff86811682528581166020830152918101849052818716918316907faa4bbbc02123d0c446b55ec99a14078c9eab05cb4a271e6d8f8e278d9e4cd1849060600160405180910390a35050505050565b600154829073ffffffffffffffffffffffffffffffffffffffff808316911614610b1f576040517f08c379a000000000000000000000000000000000000000000000000000000000815260206004820152602b60248201527f4678426173654368696c6454756e6e656c3a20494e56414c49445f53454e444560448201527f525f46524f4d5f524f4f5400000000000000000000000000000000000000000060648201526084016105d8565b60008083806020019051810190610b3691906117e2565b915091507f87a7811f4bfedea3d341ad165680ae306b01aaeacc205d227629cf157dd9f8218203610b6f57610b6a81610d8b565b610bda565b7f2cef46a936bdc5b7e6e8c71aa04560c41cf7d88bb26901a7e7f4936ff02accad8203610ba557610b9f81610e4b565b50610bda565b6040517f079fc927000000000000000000000000000000000000000000000000000000008152600481018390526024016105d8565b505050505050565b600033321480610bf25750601836105b15610bfc57503390565b7fffffffffffffffffffffffffffffffffffffffffffffffffffffffffffffffec36013560601c7f000000000000000000000000000000000000000000000000000000000000000073ffffffffffffffffffffffffffffffffffffffff16331480610d1e57506040517f019a202800000000000000000000000000000000000000000000000000000000815273ffffffffffffffffffffffffffffffffffffffff82811660048301523360248301523060448301527f0000000000000000000000000000000000000000000000000000000000000000169063019a202890606401602060405180830381865afa158015610cfa573d6000803e3d6000fd5b505050506040513d601f19601f82011682018060405250810190610d1e9190611829565b15610d2857919050565b3391505090565b6107a973ffffffffffffffffffffffffffffffffffffffff8416833084610fef565b7f8c5261668696ce22758910d05bab8f186d6eb247ceac2af2e82c7dc17669b03681604051610d80919061149a565b60405180910390a150565b60008060008084806020019051810190610da5919061185b565b73ffffffffffffffffffffffffffffffffffffffff808516600090815260026020526040902054949850929650909450925016610de3818484611078565b6040805173ffffffffffffffffffffffffffffffffffffffff86811682528581166020830152918101849052818316918716907fd04a997afc07fd79393f2188ae8935e4389ab8aef6144f0f839e3aade5b858ab9060600160405180910390a3505050505050565b600080600083806020019051810190610e6491906118ae565b73ffffffffffffffffffffffffffffffffffffffff80831660009081526002602052604090205416945090925090508215610eeb576040517ff5b9e7de00000000000000000000000000000000000000000000000000000000815273ffffffffffffffffffffffffffffffffffffffff8084166004830152841660248201526044016105d8565b6040517fffffffffffffffffffffffffffffffffffffffff000000000000000000000000606084901b166020820152600090603401604051602081830303815290604052805190602001209050610f62817f0000000000000000000000000000000000000000000000000000000000000000611099565b9350610f6f8385846111a8565b73ffffffffffffffffffffffffffffffffffffffff83811660008181526002602052604080822080547fffffffffffffffffffffffff0000000000000000000000000000000000000000169489169485179055517ff935ffb7c4a7f69e191e46617fc2f41d98d93290443199977b42dd086e744c869190a3505050919050565b60405173ffffffffffffffffffffffffffffffffffffffff84811660248301528381166044830152606482018390526107109186918216906323b872dd906084015b604051602081830303815290604052915060e01b6020820180517bffffffffffffffffffffffffffffffffffffffffffffffffffffffff8381831617835250505050611301565b6107a973ffffffffffffffffffffffffffffffffffffffff841683836113a5565b6000808260601b90506040517f3d602d80600a3d3981f3363d3d373d3d3d363d7300000000000000000000000081528160148201527f5af43d82803e903d91602b57fd5bf300000000000000000000000000000000006028820152846037826000f592505073ffffffffffffffffffffffffffffffffffffffff82166111a1576040517f08c379a000000000000000000000000000000000000000000000000000000000815260206004820152602160248201527f437265617465323a204661696c6564206f6e206d696e696d616c206465706c6f60448201527f790000000000000000000000000000000000000000000000000000000000000060648201526084016105d8565b5092915050565b600080600080600080868060200190518101906111c591906118e9565b9550955095509550955095508773ffffffffffffffffffffffffffffffffffffffff16639d11b050308b89896040518060400160405280600a81526020017f2028506f6c79676f6e29000000000000000000000000000000000000000000008152506040516020016112389291906119b1565b6040516020818303038152906040526040518060400160405280600181526020017f70000000000000000000000000000000000000000000000000000000000000008152508a60405160200161128f9291906119b1565b6040516020818303038152906040528989896040518963ffffffff1660e01b81526004016112c49897969594939291906119e0565b600060405180830381600087803b1580156112de57600080fd5b505af11580156112f2573d6000803e3d6000fd5b50505050505050505050505050565b600080602060008451602086016000885af180611324576040513d6000823e3d81fd5b50506000513d9150811561133c578060011415611356565b73ffffffffffffffffffffffffffffffffffffffff84163b155b15610710576040517f5274afe700000000000000000000000000000000000000000000000000000000815273ffffffffffffffffffffffffffffffffffffffff851660048201526024016105d8565b60405173ffffffffffffffffffffffffffffffffffffffff8381166024830152604482018390526107a991859182169063a9059cbb90606401611031565b6000602082840312156113f557600080fd5b81357fffffffff000000000000000000000000000000000000000000000000000000008116811461142557600080fd5b9392505050565b60005b8381101561144757818101518382015260200161142f565b50506000910152565b6000815180845261146881602086016020860161142c565b601f017fffffffffffffffffffffffffffffffffffffffffffffffffffffffffffffffe0169290920160200192915050565b6020815260006114256020830184611450565b73ffffffffffffffffffffffffffffffffffffffff811681146114cf57600080fd5b50565b60008083601f8401126114e457600080fd5b50813567ffffffffffffffff8111156114fc57600080fd5b60208301915083602082850101111561151457600080fd5b9250929050565b60008060008060006080868803121561153357600080fd5b853561153e816114ad565b9450602086013561154e816114ad565b935060408601359250606086013567ffffffffffffffff81111561157157600080fd5b61157d888289016114d2565b969995985093965092949392505050565b6000602082840312156115a057600080fd5b8135611425816114ad565b6000806000606084860312156115c057600080fd5b833592506020840135915060408401356115d9816114ad565b809150509250925092565b600080600080606085870312156115fa57600080fd5b84359350602085013561160c816114ad565b9250604085013567ffffffffffffffff81111561162857600080fd5b611634878288016114d2565b95989497509550505050565b60008060006060848603121561165557600080fd5b8335611660816114ad565b92506020840135611670816114ad565b929592945050506040919091013590565b6000806040838503121561169457600080fd5b823561169f816114ad565b946020939093013593505050565b81810381811115610494577f4e487b7100000000000000000000000000000000000000000000000000000000600052601160045260246000fd5b6000602082840312156116f957600080fd5b8151611425816114ad565b7f4e487b7100000000000000000000000000000000000000000000000000000000600052604160045260246000fd5b600082601f83011261174457600080fd5b81516020830160008067ffffffffffffffff84111561176557611765611704565b506040517fffffffffffffffffffffffffffffffffffffffffffffffffffffffffffffffe0601f85018116603f0116810181811067ffffffffffffffff821117156117b2576117b2611704565b6040528381529050808284018710156117ca57600080fd5b6117d884602083018561142c565b9695505050505050565b600080604083850312156117f557600080fd5b82519150602083015167ffffffffffffffff81111561181357600080fd5b61181f85828601611733565b9150509250929050565b60006020828403121561183b57600080fd5b8151801515811461142557600080fd5b8051611856816114ad565b919050565b6000806000806080858703121561187157600080fd5b845161187c816114ad565b602086015190945061188d816114ad565b604086015190935061189e816114ad565b6060959095015193969295505050565b600080604083850312156118c157600080fd5b82516118cc816114ad565b602084015190925067ffffffffffffffff81111561181357600080fd5b60008060008060008060c0878903121561190257600080fd5b8651602088015190965067ffffffffffffffff81111561192157600080fd5b61192d89828a01611733565b955050604087015167ffffffffffffffff81111561194a57600080fd5b61195689828a01611733565b945050606087015160ff8116811461196d57600080fd5b608088015190935067ffffffffffffffff81111561198a57600080fd5b61199689828a01611733565b9250506119a560a0880161184b565b90509295509295509295565b600083516119c381846020880161142c565b8351908301906119d781836020880161142c565b01949350505050565b73ffffffffffffffffffffffffffffffffffffffff8916815273ffffffffffffffffffffffffffffffffffffffff8816602082015286604082015261010060608201526000611a33610100830188611450565b8281036080840152611a458188611450565b905060ff861660a084015282810360c0840152611a628186611450565b91505073ffffffffffffffffffffffffffffffffffffffff831660e0830152999850505050505050505056fea264697066735822122009f30526fd1e444037a14ec7eddca299472c926578676278e12055ad3352b74b64736f6c634300081c0033",
  "devdoc": {
    "errors": {
      "FxERC20InvalidSyncType(bytes32)": [
        {
          "params": {
            "syncType": "The unrecognized sync type."
          }
        }
      ],
      "FxERC20TokenAlreadyMapped(address,address)": [
        {
          "params": {
            "childToken": "The mapped child token.",
            "rootToken": "The mapped root token."
          }
        }
      ],
      "SafeERC20FailedOperation(address)": [
        {
          "details": "An operation with an ERC-20 token failed."
        }
      ]
    },
    "events": {
      "FxERC20Deposit(address,address,address,address,uint256)": {
        "params": {
          "amount": "The deposit amount.",
          "childToken": "The child ERC20 token.",
          "depositor": "The depositor address.",
          "recipient": "The recipient address.",
          "rootToken": "The root ERC20 token."
        }
      },
      "FxERC20TokenMapping(address,address)": {
        "params": {
          "childToken": "The child ERC20 token.",
          "rootToken": "The root ERC20 token."
        }
      },
      "FxERC20Withdrawal(address,address,address,address,uint256)": {
        "params": {
          "amount": "The withdrawal amount.",
          "childToken": "The child ERC20 token.",
          "recipient": "The recipient address.",
          "rootToken": "The root ERC20 token.",
          "withdrawer": "The withdrawer address."
        }
      }
    },
    "kind": "dev",
    "methods": {
      "isTrustedForwarder(address)": {
        "params": {
          "forwarder": "The forwarder to check."
        },
        "returns": {
          "_0": "True if `forwarder` is trusted, false if not."
        }
      },
      "onERC20Received(address,address,uint256,bytes)": {
        "params": {
          "data": "Empty if the receiver is the same as the tokens sender, else the abi-encoded address of the receiver.",
          "from": "The previous tokens owner.",
          "value": "The amount of tokens transferred."
        },
        "returns": {
          "magicValue": "`bytes4(keccak256(\"onERC20Received(address,address,uint256,bytes)\"))` (`0x4fc35859`) to accept, any other value to refuse."
        }
      },
      "supportsInterface(bytes4)": {
        "details": "Note: This function call must use less than 30 000 gas.",
        "params": {
          "interfaceId": "the interface identifier to test."
        },
        "returns": {
          "_0": "True if the interface is supported, false if `interfaceId` is `0xffffffff` or if the interface is not supported."
        }
      },
      "withdraw(address,uint256)": {
        "details": "Reverts with `FxERC20TokenNotMapped` if `childToken` has not been deployed through a mapping request.Reverts if the token transfer fails for any reason.",
        "params": {
          "amount": "The amount of tokens to withdraw.",
          "childToken": "The ERC20 child token which has previously been deployed as a mapping for a root token."
        }
      },
      "withdrawTo(address,address,uint256)": {
        "details": "Reverts with `FxERC20InvalidWithdrawalAddress` if `receiver` is the zero address.Reverts with `FxERC20TokenNotMapped` if `childToken` has not been deployed through a mapping request.Reverts if the token transfer fails for any reason.",
        "params": {
          "amount": "The amount of tokens to withdraw.",
          "childToken": "The ERC20 child token which has previously been deployed as a mapping for a root token.",
          "receiver": "The account receiving the withdrawal."
        }
      }
    },
    "title": "FxERC20FixedSupplyChildTunnel",
    "version": 1
  },
  "userdoc": {
    "errors": {
      "FxERC20ChildTokenLogicNotContract()": [
        {
          "notice": "Thrown during construction if the provided child token logic address is not a deployed contract."
        }
      ],
      "FxERC20InvalidSyncType(bytes32)": [
        {
          "notice": "Thrown if a sync request is of an unrecognized type."
        }
      ],
      "FxERC20InvalidWithdrawalAddress()": [
        {
          "notice": "Thrown if a withdrawal recipient is the zero address."
        }
      ],
      "FxERC20TokenAlreadyMapped(address,address)": [
        {
          "notice": "Thrown during a mapping request if the root token already has a mapping."
        }
      ],
      "FxERC20TokenNotMapped()": [
        {
          "notice": "Thrown during a withdrawal if the requested child token withdrawal was not mapped from a root token."
        }
      ],
      "IllegalInterfaceId()": [
        {
          "notice": "Thrown when setting the illegal interfaceId 0xffffffff."
        }
      ]
    },
    "events": {
      "FxERC20Deposit(address,address,address,address,uint256)": {
        "notice": "Emitted when some ERC20 token has been deposited."
      },
      "FxERC20TokenMapping(address,address)": {
        "notice": "Emitted when an ERC20 token has been mapped."
      },
      "FxERC20Withdrawal(address,address,address,address,uint256)": {
        "notice": "Emitted when some ERC20 token has been withdrawn."
      }
    },
    "kind": "user",
    "methods": {
      "isTrustedForwarder(address)": {
        "notice": "Checks whether a forwarder is trusted."
      },
      "supportsInterface(bytes4)": {
        "notice": "Returns whether this contract implements a given interface."
      },
      "withdraw(address,uint256)": {
        "notice": "Requests the withdrawal of an `amount` of `childToken` by and for the message sender.Note: Approval for `amount` of `childToken` must have been previously given to this contract."
      },
      "withdrawTo(address,address,uint256)": {
        "notice": "Requests the withdrawal of an `amount` of `childToken` by the message sender and for a `receiver`.Note: Approval for `amount` of `childToken` must have been previously given to this contract."
      }
    },
    "notice": "Fx child fixed supply ERC20 tunnel.",
    "version": 1
  },
  "storageLayout": {
    "storage": [
      {
        "astId": 10745,
        "contract": "contracts/fx-portal/tunnel/ERC20/FxERC20FixedSupplyChildTunnel.sol:FxERC20FixedSupplyChildTunnel",
        "label": "fxChild",
        "offset": 0,
        "slot": "0",
        "type": "t_address"
      },
      {
        "astId": 10747,
        "contract": "contracts/fx-portal/tunnel/ERC20/FxERC20FixedSupplyChildTunnel.sol:FxERC20FixedSupplyChildTunnel",
        "label": "fxRootTunnel",
        "offset": 0,
        "slot": "1",
        "type": "t_address"
      },
      {
        "astId": 14582,
        "contract": "contracts/fx-portal/tunnel/ERC20/FxERC20FixedSupplyChildTunnel.sol:FxERC20FixedSupplyChildTunnel",
        "label": "rootToChildToken",
        "offset": 0,
        "slot": "2",
        "type": "t_mapping(t_address,t_address)"
      }
    ],
    "types": {
      "t_address": {
        "encoding": "inplace",
        "label": "address",
        "numberOfBytes": "20"
      },
      "t_mapping(t_address,t_address)": {
        "encoding": "mapping",
        "key": "t_address",
        "label": "mapping(address => address)",
        "numberOfBytes": "32",
        "value": "t_address"
      }
    }
  }
}