{
  "address": "0x4C8be5C5BF8fc5297a690eF42D570A0a8C49C1dc",
  "abi": [
    {
      "inputs": [
        {
          "internalType": "address",
          "name": "fxChild",
          "type": "address"
        },
        {
          "internalType": "address",
          "name": "childTokenLogic",
          "type": "address"
        },
        {
          "internalType": "contract IForwarderRegistry",
          "name": "forwarderRegistry",
          "type": "address"
        }
      ],
      "stateMutability": "nonpayable",
      "type": "constructor"
    },
    {
      "inputs": [],
      "name": "FxERC20ChildTokenLogicNotContract",
      "type": "error"
    },
    {
      "inputs": [
        {
          "internalType": "bytes32",
          "name": "syncType",
          "type": "bytes32"
        }
      ],
      "name": "FxERC20InvalidSyncType",
      "type": "error"
    },
    {
      "inputs": [],
      "name": "FxERC20InvalidWithdrawalAddress",
      "type": "error"
    },
    {
      "inputs": [
        {
          "internalType": "address",
          "name": "rootToken",
          "type": "address"
        },
        {
          "internalType": "address",
          "name": "childToken",
          "type": "address"
        }
      ],
      "name": "FxERC20TokenAlreadyMapped",
      "type": "error"
    },
    {
      "inputs": [],
      "name": "FxERC20TokenNotMapped",
      "type": "error"
    },
    {
      "anonymous": false,
      "inputs": [
        {
          "indexed": true,
          "internalType": "address",
          "name": "rootToken",
          "type": "address"
        },
        {
          "indexed": true,
          "internalType": "address",
          "name": "childToken",
          "type": "address"
        },
        {
          "indexed": false,
          "internalType": "address",
          "name": "depositor",
          "type": "address"
        },
        {
          "indexed": false,
          "internalType": "address",
          "name": "recipient",
          "type": "address"
        },
        {
          "indexed": false,
          "internalType": "uint256",
          "name": "amount",
          "type": "uint256"
        }
      ],
      "name": "FxERC20Deposit",
      "type": "event"
    },
    {
      "anonymous": false,
      "inputs": [
        {
          "indexed": true,
          "internalType": "address",
          "name": "rootToken",
          "type": "address"
        },
        {
          "indexed": true,
          "internalType": "address",
          "name": "childToken",
          "type": "address"
        }
      ],
      "name": "FxERC20TokenMapping",
      "type": "event"
    },
    {
      "anonymous": false,
      "inputs": [
        {
          "indexed": true,
          "internalType": "address",
          "name": "rootToken",
          "type": "address"
        },
        {
          "indexed": true,
          "internalType": "address",
          "name": "childToken",
          "type": "address"
        },
        {
          "indexed": false,
          "internalType": "address",
          "name": "withdrawer",
          "type": "address"
        },
        {
          "indexed": false,
          "internalType": "address",
          "name": "recipient",
          "type": "address"
        },
        {
          "indexed": false,
          "internalType": "uint256",
          "name": "amount",
          "type": "uint256"
        }
      ],
      "name": "FxERC20Withdrawal",
      "type": "event"
    },
    {
      "anonymous": false,
      "inputs": [
        {
          "indexed": false,
          "internalType": "bytes",
          "name": "message",
          "type": "bytes"
        }
      ],
      "name": "MessageSent",
      "type": "event"
    },
    {
      "inputs": [],
      "name": "DEPOSIT",
      "outputs": [
        {
          "internalType": "bytes32",
          "name": "",
          "type": "bytes32"
        }
      ],
      "stateMutability": "view",
      "type": "function"
    },
    {
      "inputs": [],
      "name": "MAP_TOKEN",
      "outputs": [
        {
          "internalType": "bytes32",
          "name": "",
          "type": "bytes32"
        }
      ],
      "stateMutability": "view",
      "type": "function"
    },
    {
      "inputs": [],
      "name": "PREFIX_SYMBOL",
      "outputs": [
        {
          "internalType": "string",
          "name": "",
          "type": "string"
        }
      ],
      "stateMutability": "view",
      "type": "function"
    },
    {
      "inputs": [],
      "name": "SUFFIX_NAME",
      "outputs": [
        {
          "internalType": "string",
          "name": "",
          "type": "string"
        }
      ],
      "stateMutability": "view",
      "type": "function"
    },
    {
      "inputs": [],
      "name": "childTokenLogic",
      "outputs": [
        {
          "internalType": "address",
          "name": "",
          "type": "address"
        }
      ],
      "stateMutability": "view",
      "type": "function"
    },
    {
      "inputs": [
        {
          "internalType": "bytes32",
          "name": "salt",
          "type": "bytes32"
        },
        {
          "internalType": "bytes32",
          "name": "bytecodeHash",
          "type": "bytes32"
        },
        {
          "internalType": "address",
          "name": "deployer",
          "type": "address"
        }
      ],
      "name": "computedCreate2Address",
      "outputs": [
        {
          "internalType": "address",
          "name": "",
          "type": "address"
        }
      ],
      "stateMutability": "pure",
      "type": "function"
    },
    {
      "inputs": [],
      "name": "forwarderRegistry",
      "outputs": [
        {
          "internalType": "contract IForwarderRegistry",
          "name": "",
          "type": "address"
        }
      ],
      "stateMutability": "view",
      "type": "function"
    },
    {
      "inputs": [],
      "name": "fxChild",
      "outputs": [
        {
          "internalType": "address",
          "name": "",
          "type": "address"
        }
      ],
      "stateMutability": "view",
      "type": "function"
    },
    {
      "inputs": [],
      "name": "fxRootTunnel",
      "outputs": [
        {
          "internalType": "address",
          "name": "",
          "type": "address"
        }
      ],
      "stateMutability": "view",
      "type": "function"
    },
    {
      "inputs": [
        {
          "internalType": "address",
          "name": "forwarder",
          "type": "address"
        }
      ],
      "name": "isTrustedForwarder",
      "outputs": [
        {
          "internalType": "bool",
          "name": "",
          "type": "bool"
        }
      ],
      "stateMutability": "view",
      "type": "function"
    },
    {
      "inputs": [
        {
          "internalType": "address",
          "name": "",
          "type": "address"
        },
        {
          "internalType": "address",
          "name": "from",
          "type": "address"
        },
        {
          "internalType": "uint256",
          "name": "value",
          "type": "uint256"
        },
        {
          "internalType": "bytes",
          "name": "data",
          "type": "bytes"
        }
      ],
      "name": "onERC20Received",
      "outputs": [
        {
          "internalType": "bytes4",
          "name": "magicValue",
          "type": "bytes4"
        }
      ],
      "stateMutability": "nonpayable",
      "type": "function"
    },
    {
      "inputs": [
        {
          "internalType": "uint256",
          "name": "stateId",
          "type": "uint256"
        },
        {
          "internalType": "address",
          "name": "rootMessageSender",
          "type": "address"
        },
        {
          "internalType": "bytes",
          "name": "data",
          "type": "bytes"
        }
      ],
      "name": "processMessageFromRoot",
      "outputs": [],
      "stateMutability": "nonpayable",
      "type": "function"
    },
    {
      "inputs": [
        {
          "internalType": "address",
          "name": "",
          "type": "address"
        }
      ],
      "name": "rootToChildToken",
      "outputs": [
        {
          "internalType": "address",
          "name": "",
          "type": "address"
        }
      ],
      "stateMutability": "view",
      "type": "function"
    },
    {
      "inputs": [
        {
          "internalType": "address",
          "name": "_fxRootTunnel",
          "type": "address"
        }
      ],
      "name": "setFxRootTunnel",
      "outputs": [],
      "stateMutability": "nonpayable",
      "type": "function"
    },
    {
      "inputs": [
        {
          "internalType": "bytes4",
          "name": "interfaceId",
          "type": "bytes4"
        }
      ],
      "name": "supportsInterface",
      "outputs": [
        {
          "internalType": "bool",
          "name": "",
          "type": "bool"
        }
      ],
      "stateMutability": "view",
      "type": "function"
    },
    {
      "inputs": [
        {
          "internalType": "address",
          "name": "childToken",
          "type": "address"
        },
        {
          "internalType": "uint256",
          "name": "amount",
          "type": "uint256"
        }
      ],
      "name": "withdraw",
      "outputs": [],
      "stateMutability": "nonpayable",
      "type": "function"
    },
    {
      "inputs": [
        {
          "internalType": "address",
          "name": "childToken",
          "type": "address"
        },
        {
          "internalType": "address",
          "name": "receiver",
          "type": "address"
        },
        {
          "internalType": "uint256",
          "name": "amount",
          "type": "uint256"
        }
      ],
      "name": "withdrawTo",
      "outputs": [],
      "stateMutability": "nonpayable",
      "type": "function"
    }
  ],
  "transactionHash": "0x5ea990c1045798d7a8ca6dad40336422afa743f29f844507ac02519853755887",
  "args": [
    "0x8397259c983751DAf40400790063935a11afa28a",
    "0xD4C5A8D58849e7676860655BF507B8e7A6FDd830",
    "0x3f547F87251710F70109Ae0409d461b270709693"
  ],
  "numDeployments": 1,
  "solcInputHash": "4f6396240738df29e51fd81af4a04b52",
  "bytecode": "0x60c06040523480156200001157600080fd5b506040516200213a3803806200213a8339810160408190526200003491620001d9565b600080546001600160a01b0319166001600160a01b03851617905582828280806200008d634fc3585960e01b600162000078620000eb602090811b620007ae17901c565b6200012160201b620007dc179092919060201c565b6001600160a01b03908116608052620000b591508316620001b1602090811b620008e817901c565b620000d357604051630a1ae39360e11b815260040160405180910390fd5b506001600160a01b031660a052506200024f92505050565b6000806200011b60017fca9d3e17f264b0f3984e2634e94adb37fa3e6a8103f06aeae6fa59e21c769f5e6200022d565b92915050565b600160e01b6001600160e01b0319831601620001835760405162461bcd60e51b815260206004820152601f60248201527f496e74657266616365446574656374696f6e3a2077726f6e672076616c756500604482015260640160405180910390fd5b6001600160e01b03199190911660009081526020929092526040909120805460ff1916911515919091179055565b6001600160a01b03163b151590565b6001600160a01b0381168114620001d657600080fd5b50565b600080600060608486031215620001ef57600080fd5b8351620001fc81620001c0565b60208501519093506200020f81620001c0565b60408501519092506200022281620001c0565b809150509250925092565b818103818111156200011b57634e487b7160e01b600052601160045260246000fd5b60805160a051611ea962000291600039600081816102ca015261106001526000818161014a0152818161028801528181610d4d0152610dd50152611ea96000f3fe608060405234801561001057600080fd5b506004361061011b5760003560e01c80637337957f116100b25780639a7c4b7111610081578063d81c8e5211610066578063d81c8e5214610410578063ea60c7c414610437578063f3fef3a31461046d57600080fd5b80639a7c4b71146103ea578063c3b35a7e146103fd57600080fd5b80637337957f146102ec5780637f1e9cb014610380578063886a69ba146103a057806388837094146103d557600080fd5b8063450d11f0116100ee578063450d11f0146102145780634fc3585914610234578063572b6c051461027857806360dc23fc146102c557600080fd5b806301ffc9a7146101205780632b4c9f16146101485780633740d5a01461018f57806339c6c9e0146101d8575b600080fd5b61013361012e3660046117e7565b610480565b60405190151581526020015b60405180910390f35b7f00000000000000000000000000000000000000000000000000000000000000005b60405173ffffffffffffffffffffffffffffffffffffffff909116815260200161013f565b6101cb6040518060400160405280600181526020017f700000000000000000000000000000000000000000000000000000000000000081525081565b60405161013f919061189e565b6101cb6040518060400160405280600a81526020017f2028506f6c79676f6e290000000000000000000000000000000000000000000081525081565b60005461016a9073ffffffffffffffffffffffffffffffffffffffff1681565b61024761024236600461191f565b61049a565b6040517fffffffff00000000000000000000000000000000000000000000000000000000909116815260200161013f565b610133610286366004611992565b7f000000000000000000000000000000000000000000000000000000000000000073ffffffffffffffffffffffffffffffffffffffff90811691161490565b61016a7f000000000000000000000000000000000000000000000000000000000000000081565b61016a6102fa3660046119af565b604080517fff0000000000000000000000000000000000000000000000000000000000000060208083019190915260609390931b7fffffffffffffffffffffffffffffffffffffffff0000000000000000000000001660218201526035810194909452605580850193909352805180850390930183526075909301909252805191012090565b60015461016a9073ffffffffffffffffffffffffffffffffffffffff1681565b6103c77f2cef46a936bdc5b7e6e8c71aa04560c41cf7d88bb26901a7e7f4936ff02accad81565b60405190815260200161013f565b6103e86103e3366004611992565b610536565b005b6103e86103f83660046119e8565b610628565b6103e861040b366004611a44565b610716565b6103c77f87a7811f4bfedea3d341ad165680ae306b01aaeacc205d227629cf157dd9f82181565b61016a610445366004611992565b60026020526000908152604090205473ffffffffffffffffffffffffffffffffffffffff1681565b6103e861047b366004611a85565b610786565b60006104948261048e6107ae565b90610904565b92915050565b60008482156104fe576104af83850185611992565b905073ffffffffffffffffffffffffffffffffffffffff81166104fe576040517fcb13d6aa00000000000000000000000000000000000000000000000000000000815260040160405180910390fd5b61050a338783886109de565b507f4fc35859000000000000000000000000000000000000000000000000000000009695505050505050565b60015473ffffffffffffffffffffffffffffffffffffffff16156105e1576040517f08c379a000000000000000000000000000000000000000000000000000000000815260206004820152602a60248201527f4678426173654368696c6454756e6e656c3a20524f4f545f54554e4e454c5f4160448201527f4c52454144595f5345540000000000000000000000000000000000000000000060648201526084015b60405180910390fd5b600180547fffffffffffffffffffffffff00000000000000000000000000000000000000001673ffffffffffffffffffffffffffffffffffffffff92909216919091179055565b60005473ffffffffffffffffffffffffffffffffffffffff1633146106cf576040517f08c379a000000000000000000000000000000000000000000000000000000000815260206004820152602160248201527f4678426173654368696c6454756e6e656c3a20494e56414c49445f53454e444560448201527f520000000000000000000000000000000000000000000000000000000000000060648201526084016105d8565b610710848484848080601f016020809104026020016040519081016040528093929190818152602001838380828437600092019190915250610b9b92505050565b50505050565b73ffffffffffffffffffffffffffffffffffffffff8216610763576040517fcb13d6aa00000000000000000000000000000000000000000000000000000000815260040160405180910390fd5b600061076d610d0a565b905061077b848285856109de565b610710848284610e51565b6000610790610d0a565b905061079e838283856109de565b6107a9838284610e51565b505050565b60008061049460017fca9d3e17f264b0f3984e2634e94adb37fa3e6a8103f06aeae6fa59e21c769f5e611ab1565b7c01000000000000000000000000000000000000000000000000000000007fffffffff00000000000000000000000000000000000000000000000000000000831601610884576040517f08c379a000000000000000000000000000000000000000000000000000000000815260206004820152601f60248201527f496e74657266616365446574656374696f6e3a2077726f6e672076616c75650060448201526064016105d8565b7fffffffff00000000000000000000000000000000000000000000000000000000919091166000908152602092909252604090912080547fffffffffffffffffffffffffffffffffffffffffffffffffffffffffffffff0016911515919091179055565b73ffffffffffffffffffffffffffffffffffffffff163b151590565b60007c01000000000000000000000000000000000000000000000000000000007fffffffff0000000000000000000000000000000000000000000000000000000083160161095457506000610494565b7ffe003659000000000000000000000000000000000000000000000000000000007fffffffff000000000000000000000000000000000000000000000000000000008316016109a557506001610494565b507fffffffff00000000000000000000000000000000000000000000000000000000166000908152602091909152604090205460ff1690565b60008473ffffffffffffffffffffffffffffffffffffffff16630a8a49146040518163ffffffff1660e01b81526004016020604051808303816000875af1158015610a2d573d6000803e3d6000fd5b505050506040513d601f19601f82011682018060405250810190610a519190611aeb565b905073ffffffffffffffffffffffffffffffffffffffff81161580610aa0575073ffffffffffffffffffffffffffffffffffffffff808216600090815260026020526040902054868216911614155b15610ad7576040517f6cddfcaf00000000000000000000000000000000000000000000000000000000815260040160405180910390fd5b6040805173ffffffffffffffffffffffffffffffffffffffff8084166020830152808816928201929092528186166060820152908416608082015260a08101839052610b349060c001604051602081830303815290604052610e73565b6040805173ffffffffffffffffffffffffffffffffffffffff86811682528581166020830152918101849052818716918316907faa4bbbc02123d0c446b55ec99a14078c9eab05cb4a271e6d8f8e278d9e4cd1849060600160405180910390a35050505050565b600154829073ffffffffffffffffffffffffffffffffffffffff808316911614610c47576040517f08c379a000000000000000000000000000000000000000000000000000000000815260206004820152602b60248201527f4678426173654368696c6454756e6e656c3a20494e56414c49445f53454e444560448201527f525f46524f4d5f524f4f5400000000000000000000000000000000000000000060648201526084016105d8565b60008083806020019051810190610c5e9190611bdd565b915091507f87a7811f4bfedea3d341ad165680ae306b01aaeacc205d227629cf157dd9f8218203610c9757610c9281610ead565b610d02565b7f2cef46a936bdc5b7e6e8c71aa04560c41cf7d88bb26901a7e7f4936ff02accad8203610ccd57610cc781610f6d565b50610d02565b6040517f079fc927000000000000000000000000000000000000000000000000000000008152600481018390526024016105d8565b505050505050565b600033321480610d1a5750601836105b15610d2457503390565b7fffffffffffffffffffffffffffffffffffffffffffffffffffffffffffffffec36013560601c7f000000000000000000000000000000000000000000000000000000000000000073ffffffffffffffffffffffffffffffffffffffff16331480610e4057506040517f8929a8ca00000000000000000000000000000000000000000000000000000000815273ffffffffffffffffffffffffffffffffffffffff82811660048301523360248301527f00000000000000000000000000000000000000000000000000000000000000001690638929a8ca90604401602060405180830381865afa158015610e1c573d6000803e3d6000fd5b505050506040513d601f19601f82011682018060405250810190610e409190611c24565b15610e4a57919050565b3391505090565b6107a973ffffffffffffffffffffffffffffffffffffffff8416833084611111565b7f8c5261668696ce22758910d05bab8f186d6eb247ceac2af2e82c7dc17669b03681604051610ea2919061189e565b60405180910390a150565b60008060008084806020019051810190610ec79190611c56565b73ffffffffffffffffffffffffffffffffffffffff808516600090815260026020526040902054949850929650909450925016610f058184846111ed565b6040805173ffffffffffffffffffffffffffffffffffffffff86811682528581166020830152918101849052818316918716907fd04a997afc07fd79393f2188ae8935e4389ab8aef6144f0f839e3aade5b858ab9060600160405180910390a3505050505050565b600080600083806020019051810190610f869190611ca9565b73ffffffffffffffffffffffffffffffffffffffff8083166000908152600260205260409020541694509092509050821561100d576040517ff5b9e7de00000000000000000000000000000000000000000000000000000000815273ffffffffffffffffffffffffffffffffffffffff8084166004830152841660248201526044016105d8565b6040517fffffffffffffffffffffffffffffffffffffffff000000000000000000000000606084901b166020820152600090603401604051602081830303815290604052805190602001209050611084817f000000000000000000000000000000000000000000000000000000000000000061120e565b935061109183858461131d565b73ffffffffffffffffffffffffffffffffffffffff83811660008181526002602052604080822080547fffffffffffffffffffffffff0000000000000000000000000000000000000000169489169485179055517ff935ffb7c4a7f69e191e46617fc2f41d98d93290443199977b42dd086e744c869190a3505050919050565b60405173ffffffffffffffffffffffffffffffffffffffff808516602483015283166044820152606481018290526107109085907f23b872dd00000000000000000000000000000000000000000000000000000000906084015b604080517fffffffffffffffffffffffffffffffffffffffffffffffffffffffffffffffe08184030181529190526020810180517bffffffffffffffffffffffffffffffffffffffffffffffffffffffff167fffffffff0000000000000000000000000000000000000000000000000000000090931692909217909152611476565b6107a973ffffffffffffffffffffffffffffffffffffffff84168383611582565b6000808260601b90506040517f3d602d80600a3d3981f3363d3d373d3d3d363d7300000000000000000000000081528160148201527f5af43d82803e903d91602b57fd5bf300000000000000000000000000000000006028820152846037826000f592505073ffffffffffffffffffffffffffffffffffffffff8216611316576040517f08c379a000000000000000000000000000000000000000000000000000000000815260206004820152602160248201527f437265617465323a204661696c6564206f6e206d696e696d616c206465706c6f60448201527f790000000000000000000000000000000000000000000000000000000000000060648201526084016105d8565b5092915050565b6000806000806000808680602001905181019061133a9190611ce4565b9550955095509550955095508773ffffffffffffffffffffffffffffffffffffffff16639d11b050308b89896040518060400160405280600a81526020017f2028506f6c79676f6e29000000000000000000000000000000000000000000008152506040516020016113ad929190611d9f565b6040516020818303038152906040526040518060400160405280600181526020017f70000000000000000000000000000000000000000000000000000000000000008152508a604051602001611404929190611d9f565b6040516020818303038152906040528989896040518963ffffffff1660e01b8152600401611439989796959493929190611dce565b600060405180830381600087803b15801561145357600080fd5b505af1158015611467573d6000803e3d6000fd5b50505050505050505050505050565b60006114d8826040518060400160405280602081526020017f5361666545524332303a206c6f772d6c6576656c2063616c6c206661696c65648152508573ffffffffffffffffffffffffffffffffffffffff166115d89092919063ffffffff16565b8051909150156107a957808060200190518101906114f69190611c24565b6107a9576040517f08c379a000000000000000000000000000000000000000000000000000000000815260206004820152602a60248201527f5361666545524332303a204552433230206f7065726174696f6e20646964206e60448201527f6f7420737563636565640000000000000000000000000000000000000000000060648201526084016105d8565b60405173ffffffffffffffffffffffffffffffffffffffff83166024820152604481018290526107a99084907fa9059cbb000000000000000000000000000000000000000000000000000000009060640161116b565b60606115e784846000856115ef565b949350505050565b606082471015611681576040517f08c379a000000000000000000000000000000000000000000000000000000000815260206004820152602660248201527f416464726573733a20696e73756666696369656e742062616c616e636520666f60448201527f722063616c6c000000000000000000000000000000000000000000000000000060648201526084016105d8565b6000808673ffffffffffffffffffffffffffffffffffffffff1685876040516116aa9190611e57565b60006040518083038185875af1925050503d80600081146116e7576040519150601f19603f3d011682016040523d82523d6000602084013e6116ec565b606091505b50915091506116fd87838387611708565b979650505050505050565b6060831561179e5782516000036117975773ffffffffffffffffffffffffffffffffffffffff85163b611797576040517f08c379a000000000000000000000000000000000000000000000000000000000815260206004820152601d60248201527f416464726573733a2063616c6c20746f206e6f6e2d636f6e747261637400000060448201526064016105d8565b50816115e7565b6115e783838151156117b35781518083602001fd5b806040517f08c379a00000000000000000000000000000000000000000000000000000000081526004016105d8919061189e565b6000602082840312156117f957600080fd5b81357fffffffff000000000000000000000000000000000000000000000000000000008116811461182957600080fd5b9392505050565b60005b8381101561184b578181015183820152602001611833565b50506000910152565b6000815180845261186c816020860160208601611830565b601f017fffffffffffffffffffffffffffffffffffffffffffffffffffffffffffffffe0169290920160200192915050565b6020815260006118296020830184611854565b73ffffffffffffffffffffffffffffffffffffffff811681146118d357600080fd5b50565b60008083601f8401126118e857600080fd5b50813567ffffffffffffffff81111561190057600080fd5b60208301915083602082850101111561191857600080fd5b9250929050565b60008060008060006080868803121561193757600080fd5b8535611942816118b1565b94506020860135611952816118b1565b935060408601359250606086013567ffffffffffffffff81111561197557600080fd5b611981888289016118d6565b969995985093965092949392505050565b6000602082840312156119a457600080fd5b8135611829816118b1565b6000806000606084860312156119c457600080fd5b833592506020840135915060408401356119dd816118b1565b809150509250925092565b600080600080606085870312156119fe57600080fd5b843593506020850135611a10816118b1565b9250604085013567ffffffffffffffff811115611a2c57600080fd5b611a38878288016118d6565b95989497509550505050565b600080600060608486031215611a5957600080fd5b8335611a64816118b1565b92506020840135611a74816118b1565b929592945050506040919091013590565b60008060408385031215611a9857600080fd5b8235611aa3816118b1565b946020939093013593505050565b81810381811115610494577f4e487b7100000000000000000000000000000000000000000000000000000000600052601160045260246000fd5b600060208284031215611afd57600080fd5b8151611829816118b1565b7f4e487b7100000000000000000000000000000000000000000000000000000000600052604160045260246000fd5b600082601f830112611b4857600080fd5b815167ffffffffffffffff80821115611b6357611b63611b08565b604051601f83017fffffffffffffffffffffffffffffffffffffffffffffffffffffffffffffffe0908116603f01168101908282118183101715611ba957611ba9611b08565b81604052838152866020858801011115611bc257600080fd5b611bd3846020830160208901611830565b9695505050505050565b60008060408385031215611bf057600080fd5b82519150602083015167ffffffffffffffff811115611c0e57600080fd5b611c1a85828601611b37565b9150509250929050565b600060208284031215611c3657600080fd5b8151801515811461182957600080fd5b8051611c51816118b1565b919050565b60008060008060808587031215611c6c57600080fd5b8451611c77816118b1565b6020860151909450611c88816118b1565b6040860151909350611c99816118b1565b6060959095015193969295505050565b60008060408385031215611cbc57600080fd5b8251611cc7816118b1565b602084015190925067ffffffffffffffff811115611c0e57600080fd5b60008060008060008060c08789031215611cfd57600080fd5b86519550602087015167ffffffffffffffff80821115611d1c57600080fd5b611d288a838b01611b37565b96506040890151915080821115611d3e57600080fd5b611d4a8a838b01611b37565b95506060890151915060ff82168214611d6257600080fd5b608089015191945080821115611d7757600080fd5b50611d8489828a01611b37565b925050611d9360a08801611c46565b90509295509295509295565b60008351611db1818460208801611830565b835190830190611dc5818360208801611830565b01949350505050565b600061010073ffffffffffffffffffffffffffffffffffffffff808c168452808b166020850152896040850152816060850152611e0d8285018a611854565b91508382036080850152611e218289611854565b915060ff871660a085015283820360c0850152611e3e8287611854565b925080851660e085015250509998505050505050505050565b60008251611e69818460208701611830565b919091019291505056fea26469706673582212203ad23aad33adb066d559fad9db6f09f0e2efe44e4eee07741ec1a38d9bdad57764736f6c63430008110033",
  "devdoc": {
    "errors": {
      "FxERC20InvalidSyncType(bytes32)": [
        {
          "params": {
            "syncType": "The unrecognized sync type."
          }
        }
      ],
      "FxERC20TokenAlreadyMapped(address,address)": [
        {
          "params": {
            "childToken": "The mapped child token.",
            "rootToken": "The mapped root token."
          }
        }
      ]
    },
    "kind": "dev",
    "methods": {
      "isTrustedForwarder(address)": {
        "params": {
          "forwarder": "The forwarder to check."
        },
        "returns": {
          "_0": "True if `forwarder` is trusted, false if not."
        }
      },
      "onERC20Received(address,address,uint256,bytes)": {
        "params": {
          "data": "Empty if the receiver is the same as the tokens sender, else the abi-encoded address of the receiver.",
          "from": "The previous tokens owner.",
          "value": "The amount of tokens transferred."
        },
        "returns": {
          "magicValue": "`bytes4(keccak256(\"onERC20Received(address,address,uint256,bytes)\"))` (`0x4fc35859`) to accept, any other value to refuse."
        }
      },
      "supportsInterface(bytes4)": {
        "details": "Note: This function call must use less than 30 000 gas.",
        "params": {
          "interfaceId": "the interface identifier to test."
        },
        "returns": {
          "_0": "True if the interface is supported, false if `interfaceId` is `0xffffffff` or if the interface is not supported."
        }
      },
      "withdraw(address,uint256)": {
        "details": "Reverts with `FxERC20TokenNotMapped` if `childToken` has not been deployed through a mapping request.Reverts if the token transfer fails for any reason.",
        "params": {
          "amount": "The amount of tokens to withdraw.",
          "childToken": "The ERC20 child token which has previously been deployed as a mapping for a root token."
        }
      },
      "withdrawTo(address,address,uint256)": {
        "details": "Reverts with `FxERC20InvalidWithdrawalAddress` if `receiver` is the zero address.Reverts with `FxERC20TokenNotMapped` if `childToken` has not been deployed through a mapping request.Reverts if the token transfer fails for any reason.",
        "params": {
          "amount": "The amount of tokens to withdraw.",
          "childToken": "The ERC20 child token which has previously been deployed as a mapping for a root token.",
          "receiver": "The account receiving the withdrawal."
        }
      }
    },
    "title": "FxERC20FixedSupplyChildTunnel",
    "version": 1
  },
  "userdoc": {
    "errors": {
      "FxERC20ChildTokenLogicNotContract()": [
        {
          "notice": "Thrown during construction if the provided child token logic address is not a deployed contract."
        }
      ],
      "FxERC20InvalidSyncType(bytes32)": [
        {
          "notice": "Thrown if a sync request is of an unrecognized type."
        }
      ],
      "FxERC20InvalidWithdrawalAddress()": [
        {
          "notice": "Thrown if a withdrawal recipient is the zero address."
        }
      ],
      "FxERC20TokenAlreadyMapped(address,address)": [
        {
          "notice": "Thrown during a mapping request if the root token already has a mapping."
        }
      ],
      "FxERC20TokenNotMapped()": [
        {
          "notice": "Thrown during a withdrawal if the requested child token withdrawal was not mapped from a root token."
        }
      ]
    },
    "events": {
      "FxERC20Deposit(address,address,address,address,uint256)": {
        "notice": "Emitted when some ERC20 token has been deposited."
      },
      "FxERC20TokenMapping(address,address)": {
        "notice": "Emitted when an ERC20 token has been mapped."
      },
      "FxERC20Withdrawal(address,address,address,address,uint256)": {
        "notice": "Emitted when some ERC20 token has been withdrawn."
      }
    },
    "kind": "user",
    "methods": {
      "isTrustedForwarder(address)": {
        "notice": "Checks whether a forwarder is trusted."
      },
      "supportsInterface(bytes4)": {
        "notice": "Returns whether this contract implements a given interface."
      },
      "withdraw(address,uint256)": {
        "notice": "Requests the withdrawal of an `amount` of `childToken` by and for the message sender.Note: Approval for `amount` of `childToken` must have been previously given to this contract."
      },
      "withdrawTo(address,address,uint256)": {
        "notice": "Requests the withdrawal of an `amount` of `childToken` by the message sender and for a `receiver`.Note: Approval for `amount` of `childToken` must have been previously given to this contract."
      }
    },
    "notice": "Fx child fixed supply ERC20 tunnel.",
    "version": 1
  },
  "storageLayout": {
    "storage": [
      {
        "astId": 6651,
        "contract": "contracts/fx-portal/ERC20/tunnel/FxERC20FixedSupplyChildTunnel.sol:FxERC20FixedSupplyChildTunnel",
        "label": "fxChild",
        "offset": 0,
        "slot": "0",
        "type": "t_address"
      },
      {
        "astId": 6653,
        "contract": "contracts/fx-portal/ERC20/tunnel/FxERC20FixedSupplyChildTunnel.sol:FxERC20FixedSupplyChildTunnel",
        "label": "fxRootTunnel",
        "offset": 0,
        "slot": "1",
        "type": "t_address"
      },
      {
        "astId": 10099,
        "contract": "contracts/fx-portal/ERC20/tunnel/FxERC20FixedSupplyChildTunnel.sol:FxERC20FixedSupplyChildTunnel",
        "label": "rootToChildToken",
        "offset": 0,
        "slot": "2",
        "type": "t_mapping(t_address,t_address)"
      }
    ],
    "types": {
      "t_address": {
        "encoding": "inplace",
        "label": "address",
        "numberOfBytes": "20"
      },
      "t_mapping(t_address,t_address)": {
        "encoding": "mapping",
        "key": "t_address",
        "label": "mapping(address => address)",
        "numberOfBytes": "32",
        "value": "t_address"
      }
    }
  }
}