{
  "address": "0x1C58217eb4a3B0Bb897949aa32c05808fbd022FE",
  "abi": [
    {
      "inputs": [
        {
          "internalType": "address",
          "name": "fxChild",
          "type": "address"
        },
        {
          "internalType": "address",
          "name": "childTokenLogic",
          "type": "address"
        },
        {
          "internalType": "contract IForwarderRegistry",
          "name": "forwarderRegistry",
          "type": "address"
        }
      ],
      "stateMutability": "nonpayable",
      "type": "constructor"
    },
    {
      "inputs": [],
      "name": "FxERC20ChildTokenLogicNotContract",
      "type": "error"
    },
    {
      "inputs": [
        {
          "internalType": "bytes32",
          "name": "syncType",
          "type": "bytes32"
        }
      ],
      "name": "FxERC20InvalidSyncType",
      "type": "error"
    },
    {
      "inputs": [],
      "name": "FxERC20InvalidWithdrawalAddress",
      "type": "error"
    },
    {
      "inputs": [
        {
          "internalType": "address",
          "name": "rootToken",
          "type": "address"
        },
        {
          "internalType": "address",
          "name": "childToken",
          "type": "address"
        }
      ],
      "name": "FxERC20TokenAlreadyMapped",
      "type": "error"
    },
    {
      "inputs": [],
      "name": "FxERC20TokenNotMapped",
      "type": "error"
    },
    {
      "inputs": [],
      "name": "IllegalInterfaceId",
      "type": "error"
    },
    {
      "anonymous": false,
      "inputs": [
        {
          "indexed": true,
          "internalType": "address",
          "name": "rootToken",
          "type": "address"
        },
        {
          "indexed": true,
          "internalType": "address",
          "name": "childToken",
          "type": "address"
        },
        {
          "indexed": false,
          "internalType": "address",
          "name": "depositor",
          "type": "address"
        },
        {
          "indexed": false,
          "internalType": "address",
          "name": "recipient",
          "type": "address"
        },
        {
          "indexed": false,
          "internalType": "uint256",
          "name": "amount",
          "type": "uint256"
        }
      ],
      "name": "FxERC20Deposit",
      "type": "event"
    },
    {
      "anonymous": false,
      "inputs": [
        {
          "indexed": true,
          "internalType": "address",
          "name": "rootToken",
          "type": "address"
        },
        {
          "indexed": true,
          "internalType": "address",
          "name": "childToken",
          "type": "address"
        }
      ],
      "name": "FxERC20TokenMapping",
      "type": "event"
    },
    {
      "anonymous": false,
      "inputs": [
        {
          "indexed": true,
          "internalType": "address",
          "name": "rootToken",
          "type": "address"
        },
        {
          "indexed": true,
          "internalType": "address",
          "name": "childToken",
          "type": "address"
        },
        {
          "indexed": false,
          "internalType": "address",
          "name": "withdrawer",
          "type": "address"
        },
        {
          "indexed": false,
          "internalType": "address",
          "name": "recipient",
          "type": "address"
        },
        {
          "indexed": false,
          "internalType": "uint256",
          "name": "amount",
          "type": "uint256"
        }
      ],
      "name": "FxERC20Withdrawal",
      "type": "event"
    },
    {
      "anonymous": false,
      "inputs": [
        {
          "indexed": false,
          "internalType": "bytes",
          "name": "message",
          "type": "bytes"
        }
      ],
      "name": "MessageSent",
      "type": "event"
    },
    {
      "inputs": [],
      "name": "CHILD_TOKEN_LOGIC",
      "outputs": [
        {
          "internalType": "address",
          "name": "",
          "type": "address"
        }
      ],
      "stateMutability": "view",
      "type": "function"
    },
    {
      "inputs": [],
      "name": "DEPOSIT",
      "outputs": [
        {
          "internalType": "bytes32",
          "name": "",
          "type": "bytes32"
        }
      ],
      "stateMutability": "view",
      "type": "function"
    },
    {
      "inputs": [],
      "name": "MAP_TOKEN",
      "outputs": [
        {
          "internalType": "bytes32",
          "name": "",
          "type": "bytes32"
        }
      ],
      "stateMutability": "view",
      "type": "function"
    },
    {
      "inputs": [],
      "name": "PREFIX_SYMBOL",
      "outputs": [
        {
          "internalType": "string",
          "name": "",
          "type": "string"
        }
      ],
      "stateMutability": "view",
      "type": "function"
    },
    {
      "inputs": [],
      "name": "SUFFIX_NAME",
      "outputs": [
        {
          "internalType": "string",
          "name": "",
          "type": "string"
        }
      ],
      "stateMutability": "view",
      "type": "function"
    },
    {
      "inputs": [
        {
          "internalType": "bytes32",
          "name": "salt",
          "type": "bytes32"
        },
        {
          "internalType": "bytes32",
          "name": "bytecodeHash",
          "type": "bytes32"
        },
        {
          "internalType": "address",
          "name": "deployer",
          "type": "address"
        }
      ],
      "name": "computedCreate2Address",
      "outputs": [
        {
          "internalType": "address",
          "name": "",
          "type": "address"
        }
      ],
      "stateMutability": "pure",
      "type": "function"
    },
    {
      "inputs": [],
      "name": "forwarderRegistry",
      "outputs": [
        {
          "internalType": "contract IForwarderRegistry",
          "name": "",
          "type": "address"
        }
      ],
      "stateMutability": "view",
      "type": "function"
    },
    {
      "inputs": [],
      "name": "fxChild",
      "outputs": [
        {
          "internalType": "address",
          "name": "",
          "type": "address"
        }
      ],
      "stateMutability": "view",
      "type": "function"
    },
    {
      "inputs": [],
      "name": "fxRootTunnel",
      "outputs": [
        {
          "internalType": "address",
          "name": "",
          "type": "address"
        }
      ],
      "stateMutability": "view",
      "type": "function"
    },
    {
      "inputs": [
        {
          "internalType": "address",
          "name": "forwarder",
          "type": "address"
        }
      ],
      "name": "isTrustedForwarder",
      "outputs": [
        {
          "internalType": "bool",
          "name": "",
          "type": "bool"
        }
      ],
      "stateMutability": "view",
      "type": "function"
    },
    {
      "inputs": [
        {
          "internalType": "address",
          "name": "",
          "type": "address"
        },
        {
          "internalType": "address",
          "name": "from",
          "type": "address"
        },
        {
          "internalType": "uint256",
          "name": "value",
          "type": "uint256"
        },
        {
          "internalType": "bytes",
          "name": "data",
          "type": "bytes"
        }
      ],
      "name": "onERC20Received",
      "outputs": [
        {
          "internalType": "bytes4",
          "name": "magicValue",
          "type": "bytes4"
        }
      ],
      "stateMutability": "nonpayable",
      "type": "function"
    },
    {
      "inputs": [
        {
          "internalType": "uint256",
          "name": "stateId",
          "type": "uint256"
        },
        {
          "internalType": "address",
          "name": "rootMessageSender",
          "type": "address"
        },
        {
          "internalType": "bytes",
          "name": "data",
          "type": "bytes"
        }
      ],
      "name": "processMessageFromRoot",
      "outputs": [],
      "stateMutability": "nonpayable",
      "type": "function"
    },
    {
      "inputs": [
        {
          "internalType": "address",
          "name": "",
          "type": "address"
        }
      ],
      "name": "rootToChildToken",
      "outputs": [
        {
          "internalType": "address",
          "name": "",
          "type": "address"
        }
      ],
      "stateMutability": "view",
      "type": "function"
    },
    {
      "inputs": [
        {
          "internalType": "address",
          "name": "_fxRootTunnel",
          "type": "address"
        }
      ],
      "name": "setFxRootTunnel",
      "outputs": [],
      "stateMutability": "nonpayable",
      "type": "function"
    },
    {
      "inputs": [
        {
          "internalType": "bytes4",
          "name": "interfaceId",
          "type": "bytes4"
        }
      ],
      "name": "supportsInterface",
      "outputs": [
        {
          "internalType": "bool",
          "name": "",
          "type": "bool"
        }
      ],
      "stateMutability": "view",
      "type": "function"
    },
    {
      "inputs": [
        {
          "internalType": "address",
          "name": "childToken",
          "type": "address"
        },
        {
          "internalType": "uint256",
          "name": "amount",
          "type": "uint256"
        }
      ],
      "name": "withdraw",
      "outputs": [],
      "stateMutability": "nonpayable",
      "type": "function"
    },
    {
      "inputs": [
        {
          "internalType": "address",
          "name": "childToken",
          "type": "address"
        },
        {
          "internalType": "address",
          "name": "receiver",
          "type": "address"
        },
        {
          "internalType": "uint256",
          "name": "amount",
          "type": "uint256"
        }
      ],
      "name": "withdrawTo",
      "outputs": [],
      "stateMutability": "nonpayable",
      "type": "function"
    }
  ],
  "transactionHash": "0x8b8149f4d1c5dcdf5e44c16c85588773cd5efd22d70d96ea13dd63c91582138c",
  "args": [
    "0x8397259c983751DAf40400790063935a11afa28a",
    "0xC42642D5f17A60EB8f95FF631090E0544cf2A1d8",
    "0x316a472D084489CB6d4C66e5eB62aE3AdA17521e"
  ],
  "numDeployments": 1,
  "solcInputHash": "4046faabd850477eb3782908ea433876",
  "bytecode": "0x60c060405234801561001057600080fd5b50604051611cca380380611cca83398101604081905261002f9161015c565b600080546001600160a01b0319166001600160a01b038516179055828282808061006b634fc3585960e01b60016100646100b4565b91906100e8565b6001600160a01b0390811660805283163b1515905061009d57604051630a1ae39360e11b815260040160405180910390fd5b506001600160a01b031660a052506101ca92505050565b6000806100e260017fca9d3e17f264b0f3984e2634e94adb37fa3e6a8103f06aeae6fa59e21c769f5e6101a9565b92915050565b600160e01b6001600160e01b0319831601610116576040516372c683bb60e01b815260040160405180910390fd5b6001600160e01b03199190911660009081526020929092526040909120805460ff1916911515919091179055565b6001600160a01b038116811461015957600080fd5b50565b60008060006060848603121561017157600080fd5b835161017c81610144565b602085015190935061018d81610144565b604085015190925061019e81610144565b809150509250925092565b818103818111156100e257634e487b7160e01b600052601160045260246000fd5b60805160a051611abf61020b600039600081816102ca015261105001526000818161014a0152818161028801528181610cc00152610d4e0152611abf6000f3fe608060405234801561001057600080fd5b506004361061011b5760003560e01c80637337957f116100b25780639a7c4b7111610081578063d81c8e5211610066578063d81c8e5214610410578063ea60c7c414610437578063f3fef3a31461046d57600080fd5b80639a7c4b71146103ea578063c3b35a7e146103fd57600080fd5b80637337957f146102ec5780637f1e9cb014610380578063886a69ba146103a057806388837094146103d557600080fd5b8063450d11f0116100ee578063450d11f0146102145780634fc3585914610234578063572b6c05146102785780636c4603c9146102c557600080fd5b806301ffc9a7146101205780632b4c9f16146101485780633740d5a01461018f57806339c6c9e0146101d8575b600080fd5b61013361012e3660046113f0565b610480565b60405190151581526020015b60405180910390f35b7f00000000000000000000000000000000000000000000000000000000000000005b60405173ffffffffffffffffffffffffffffffffffffffff909116815260200161013f565b6101cb6040518060400160405280600181526020017f700000000000000000000000000000000000000000000000000000000000000081525081565b60405161013f91906114a7565b6101cb6040518060400160405280600a81526020017f2028506f6c79676f6e290000000000000000000000000000000000000000000081525081565b60005461016a9073ffffffffffffffffffffffffffffffffffffffff1681565b610247610242366004611528565b61049a565b6040517fffffffff00000000000000000000000000000000000000000000000000000000909116815260200161013f565b61013361028636600461159b565b7f000000000000000000000000000000000000000000000000000000000000000073ffffffffffffffffffffffffffffffffffffffff90811691161490565b61016a7f000000000000000000000000000000000000000000000000000000000000000081565b61016a6102fa3660046115b8565b604080517fff0000000000000000000000000000000000000000000000000000000000000060208083019190915260609390931b7fffffffffffffffffffffffffffffffffffffffff0000000000000000000000001660218201526035810194909452605580850193909352805180850390930183526075909301909252805191012090565b60015461016a9073ffffffffffffffffffffffffffffffffffffffff1681565b6103c77f2cef46a936bdc5b7e6e8c71aa04560c41cf7d88bb26901a7e7f4936ff02accad81565b60405190815260200161013f565b6103e86103e336600461159b565b610540565b005b6103e86103f83660046115f1565b610632565b6103e861040b36600461164d565b610720565b6103c77f87a7811f4bfedea3d341ad165680ae306b01aaeacc205d227629cf157dd9f82181565b61016a61044536600461159b565b60026020526000908152604090205473ffffffffffffffffffffffffffffffffffffffff1681565b6103e861047b36600461168e565b610790565b60006104948261048e6107b8565b906107e6565b92915050565b60008482156104fe576104af8385018561159b565b905073ffffffffffffffffffffffffffffffffffffffff81166104fe576040517fcb13d6aa00000000000000000000000000000000000000000000000000000000815260040160405180910390fd5b61050a338783886108c0565b6105143386610a7d565b507f4fc35859000000000000000000000000000000000000000000000000000000009695505050505050565b60015473ffffffffffffffffffffffffffffffffffffffff16156105eb576040517f08c379a000000000000000000000000000000000000000000000000000000000815260206004820152602a60248201527f4678426173654368696c6454756e6e656c3a20524f4f545f54554e4e454c5f4160448201527f4c52454144595f5345540000000000000000000000000000000000000000000060648201526084015b60405180910390fd5b600180547fffffffffffffffffffffffff00000000000000000000000000000000000000001673ffffffffffffffffffffffffffffffffffffffff92909216919091179055565b60005473ffffffffffffffffffffffffffffffffffffffff1633146106d9576040517f08c379a000000000000000000000000000000000000000000000000000000000815260206004820152602160248201527f4678426173654368696c6454756e6e656c3a20494e56414c49445f53454e444560448201527f520000000000000000000000000000000000000000000000000000000000000060648201526084016105e2565b61071a848484848080601f016020809104026020016040519081016040528093929190818152602001838380828437600092019190915250610b0e92505050565b50505050565b73ffffffffffffffffffffffffffffffffffffffff821661076d576040517fcb13d6aa00000000000000000000000000000000000000000000000000000000815260040160405180910390fd5b6000610777610c7d565b9050610785848285856108c0565b61071a848284610dca565b600061079a610c7d565b90506107a8838283856108c0565b6107b3838284610dca565b505050565b60008061049460017fca9d3e17f264b0f3984e2634e94adb37fa3e6a8103f06aeae6fa59e21c769f5e6116ba565b60007c01000000000000000000000000000000000000000000000000000000007fffffffff0000000000000000000000000000000000000000000000000000000083160161083657506000610494565b7ffe003659000000000000000000000000000000000000000000000000000000007fffffffff0000000000000000000000000000000000000000000000000000000083160161088757506001610494565b507fffffffff00000000000000000000000000000000000000000000000000000000166000908152602091909152604090205460ff1690565b60008473ffffffffffffffffffffffffffffffffffffffff16630a8a49146040518163ffffffff1660e01b81526004016020604051808303816000875af115801561090f573d6000803e3d6000fd5b505050506040513d601f19601f8201168201806040525081019061093391906116f4565b905073ffffffffffffffffffffffffffffffffffffffff81161580610982575073ffffffffffffffffffffffffffffffffffffffff808216600090815260026020526040902054868216911614155b156109b9576040517f6cddfcaf00000000000000000000000000000000000000000000000000000000815260040160405180910390fd5b6040805173ffffffffffffffffffffffffffffffffffffffff8084166020830152808816928201929092528186166060820152908416608082015260a08101839052610a169060c001604051602081830303815290604052610e63565b6040805173ffffffffffffffffffffffffffffffffffffffff86811682528581166020830152918101849052818716918316907faa4bbbc02123d0c446b55ec99a14078c9eab05cb4a271e6d8f8e278d9e4cd1849060600160405180910390a35050505050565b6040517f42966c680000000000000000000000000000000000000000000000000000000081526004810182905273ffffffffffffffffffffffffffffffffffffffff8316906342966c68906024016020604051808303816000875af1158015610aea573d6000803e3d6000fd5b505050506040513d601f19601f820116820180604052508101906107b39190611711565b600154829073ffffffffffffffffffffffffffffffffffffffff808316911614610bba576040517f08c379a000000000000000000000000000000000000000000000000000000000815260206004820152602b60248201527f4678426173654368696c6454756e6e656c3a20494e56414c49445f53454e444560448201527f525f46524f4d5f524f4f5400000000000000000000000000000000000000000060648201526084016105e2565b60008083806020019051810190610bd19190611811565b915091507f87a7811f4bfedea3d341ad165680ae306b01aaeacc205d227629cf157dd9f8218203610c0a57610c0581610e9d565b610c75565b7f2cef46a936bdc5b7e6e8c71aa04560c41cf7d88bb26901a7e7f4936ff02accad8203610c4057610c3a81610f5d565b50610c75565b6040517f079fc927000000000000000000000000000000000000000000000000000000008152600481018390526024016105e2565b505050505050565b600033321480610c8d5750601836105b15610c9757503390565b7fffffffffffffffffffffffffffffffffffffffffffffffffffffffffffffffec36013560601c7f000000000000000000000000000000000000000000000000000000000000000073ffffffffffffffffffffffffffffffffffffffff16331480610db957506040517f019a202800000000000000000000000000000000000000000000000000000000815273ffffffffffffffffffffffffffffffffffffffff82811660048301523360248301523060448301527f0000000000000000000000000000000000000000000000000000000000000000169063019a202890606401602060405180830381865afa158015610d95573d6000803e3d6000fd5b505050506040513d601f19601f82011682018060405250810190610db99190611711565b15610dc357919050565b3391505090565b6040517f79cc679000000000000000000000000000000000000000000000000000000000815273ffffffffffffffffffffffffffffffffffffffff8381166004830152602482018390528416906379cc6790906044016020604051808303816000875af1158015610e3f573d6000803e3d6000fd5b505050506040513d601f19601f8201168201806040525081019061071a9190611711565b7f8c5261668696ce22758910d05bab8f186d6eb247ceac2af2e82c7dc17669b03681604051610e9291906114a7565b60405180910390a150565b60008060008084806020019051810190610eb79190611868565b73ffffffffffffffffffffffffffffffffffffffff808516600090815260026020526040902054949850929650909450925016610ef5818484611101565b6040805173ffffffffffffffffffffffffffffffffffffffff86811682528581166020830152918101849052818316918716907fd04a997afc07fd79393f2188ae8935e4389ab8aef6144f0f839e3aade5b858ab9060600160405180910390a3505050505050565b600080600083806020019051810190610f7691906118bb565b73ffffffffffffffffffffffffffffffffffffffff80831660009081526002602052604090205416945090925090508215610ffd576040517ff5b9e7de00000000000000000000000000000000000000000000000000000000815273ffffffffffffffffffffffffffffffffffffffff8084166004830152841660248201526044016105e2565b6040517fffffffffffffffffffffffffffffffffffffffff000000000000000000000000606084901b166020820152600090603401604051602081830303815290604052805190602001209050611074817f000000000000000000000000000000000000000000000000000000000000000061118e565b935061108183858461129d565b73ffffffffffffffffffffffffffffffffffffffff83811660008181526002602052604080822080547fffffffffffffffffffffffff0000000000000000000000000000000000000000169489169485179055517ff935ffb7c4a7f69e191e46617fc2f41d98d93290443199977b42dd086e744c869190a3505050919050565b6040517f40c10f1900000000000000000000000000000000000000000000000000000000815273ffffffffffffffffffffffffffffffffffffffff8381166004830152602482018390528416906340c10f1990604401600060405180830381600087803b15801561117157600080fd5b505af1158015611185573d6000803e3d6000fd5b50505050505050565b6000808260601b90506040517f3d602d80600a3d3981f3363d3d373d3d3d363d7300000000000000000000000081528160148201527f5af43d82803e903d91602b57fd5bf300000000000000000000000000000000006028820152846037826000f592505073ffffffffffffffffffffffffffffffffffffffff8216611296576040517f08c379a000000000000000000000000000000000000000000000000000000000815260206004820152602160248201527f437265617465323a204661696c6564206f6e206d696e696d616c206465706c6f60448201527f790000000000000000000000000000000000000000000000000000000000000060648201526084016105e2565b5092915050565b6000806000806000858060200190518101906112b991906118f6565b945094509450945094508673ffffffffffffffffffffffffffffffffffffffff16639a0186a3308a886040518060400160405280600a81526020017f2028506f6c79676f6e29000000000000000000000000000000000000000000008152506040516020016113299291906119b5565b6040516020818303038152906040526040518060400160405280600181526020017f7000000000000000000000000000000000000000000000000000000000000000815250896040516020016113809291906119b5565b6040516020818303038152906040528888886040518863ffffffff1660e01b81526004016113b497969594939291906119e4565b600060405180830381600087803b1580156113ce57600080fd5b505af11580156113e2573d6000803e3d6000fd5b505050505050505050505050565b60006020828403121561140257600080fd5b81357fffffffff000000000000000000000000000000000000000000000000000000008116811461143257600080fd5b9392505050565b60005b8381101561145457818101518382015260200161143c565b50506000910152565b60008151808452611475816020860160208601611439565b601f017fffffffffffffffffffffffffffffffffffffffffffffffffffffffffffffffe0169290920160200192915050565b602081526000611432602083018461145d565b73ffffffffffffffffffffffffffffffffffffffff811681146114dc57600080fd5b50565b60008083601f8401126114f157600080fd5b50813567ffffffffffffffff81111561150957600080fd5b60208301915083602082850101111561152157600080fd5b9250929050565b60008060008060006080868803121561154057600080fd5b853561154b816114ba565b9450602086013561155b816114ba565b935060408601359250606086013567ffffffffffffffff81111561157e57600080fd5b61158a888289016114df565b969995985093965092949392505050565b6000602082840312156115ad57600080fd5b8135611432816114ba565b6000806000606084860312156115cd57600080fd5b833592506020840135915060408401356115e6816114ba565b809150509250925092565b6000806000806060858703121561160757600080fd5b843593506020850135611619816114ba565b9250604085013567ffffffffffffffff81111561163557600080fd5b611641878288016114df565b95989497509550505050565b60008060006060848603121561166257600080fd5b833561166d816114ba565b9250602084013561167d816114ba565b929592945050506040919091013590565b600080604083850312156116a157600080fd5b82356116ac816114ba565b946020939093013593505050565b81810381811115610494577f4e487b7100000000000000000000000000000000000000000000000000000000600052601160045260246000fd5b60006020828403121561170657600080fd5b8151611432816114ba565b60006020828403121561172357600080fd5b8151801515811461143257600080fd5b7f4e487b7100000000000000000000000000000000000000000000000000000000600052604160045260246000fd5b600082601f83011261177357600080fd5b81516020830160008067ffffffffffffffff84111561179457611794611733565b506040517fffffffffffffffffffffffffffffffffffffffffffffffffffffffffffffffe0601f85018116603f0116810181811067ffffffffffffffff821117156117e1576117e1611733565b6040528381529050808284018710156117f957600080fd5b611807846020830185611439565b9695505050505050565b6000806040838503121561182457600080fd5b82519150602083015167ffffffffffffffff81111561184257600080fd5b61184e85828601611762565b9150509250929050565b8051611863816114ba565b919050565b6000806000806080858703121561187e57600080fd5b8451611889816114ba565b602086015190945061189a816114ba565b60408601519093506118ab816114ba565b6060959095015193969295505050565b600080604083850312156118ce57600080fd5b82516118d9816114ba565b602084015190925067ffffffffffffffff81111561184257600080fd5b600080600080600060a0868803121561190e57600080fd5b855167ffffffffffffffff81111561192557600080fd5b61193188828901611762565b955050602086015167ffffffffffffffff81111561194e57600080fd5b61195a88828901611762565b945050604086015160ff8116811461197157600080fd5b606087015190935067ffffffffffffffff81111561198e57600080fd5b61199a88828901611762565b9250506119a960808701611858565b90509295509295909350565b600083516119c7818460208801611439565b8351908301906119db818360208801611439565b01949350505050565b73ffffffffffffffffffffffffffffffffffffffff8816815273ffffffffffffffffffffffffffffffffffffffff8716602082015260e060408201526000611a2f60e083018861145d565b8281036060840152611a41818861145d565b905060ff8616608084015282810360a0840152611a5e818661145d565b91505073ffffffffffffffffffffffffffffffffffffffff831660c08301529897505050505050505056fea2646970667358221220da05ed2185f14049aa4ecc03764dfc33288898e9c683675eed2258360b08ba8d64736f6c634300081c0033",
  "devdoc": {
    "errors": {
      "FxERC20InvalidSyncType(bytes32)": [
        {
          "params": {
            "syncType": "The unrecognized sync type."
          }
        }
      ],
      "FxERC20TokenAlreadyMapped(address,address)": [
        {
          "params": {
            "childToken": "The mapped child token.",
            "rootToken": "The mapped root token."
          }
        }
      ]
    },
    "events": {
      "FxERC20Deposit(address,address,address,address,uint256)": {
        "params": {
          "amount": "The deposit amount.",
          "childToken": "The child ERC20 token.",
          "depositor": "The depositor address.",
          "recipient": "The recipient address.",
          "rootToken": "The root ERC20 token."
        }
      },
      "FxERC20TokenMapping(address,address)": {
        "params": {
          "childToken": "The child ERC20 token.",
          "rootToken": "The root ERC20 token."
        }
      },
      "FxERC20Withdrawal(address,address,address,address,uint256)": {
        "params": {
          "amount": "The withdrawal amount.",
          "childToken": "The child ERC20 token.",
          "recipient": "The recipient address.",
          "rootToken": "The root ERC20 token.",
          "withdrawer": "The withdrawer address."
        }
      }
    },
    "kind": "dev",
    "methods": {
      "isTrustedForwarder(address)": {
        "params": {
          "forwarder": "The forwarder to check."
        },
        "returns": {
          "_0": "True if `forwarder` is trusted, false if not."
        }
      },
      "onERC20Received(address,address,uint256,bytes)": {
        "params": {
          "data": "Empty if the receiver is the same as the tokens sender, else the abi-encoded address of the receiver.",
          "from": "The previous tokens owner.",
          "value": "The amount of tokens transferred."
        },
        "returns": {
          "magicValue": "`bytes4(keccak256(\"onERC20Received(address,address,uint256,bytes)\"))` (`0x4fc35859`) to accept, any other value to refuse."
        }
      },
      "supportsInterface(bytes4)": {
        "details": "Note: This function call must use less than 30 000 gas.",
        "params": {
          "interfaceId": "the interface identifier to test."
        },
        "returns": {
          "_0": "True if the interface is supported, false if `interfaceId` is `0xffffffff` or if the interface is not supported."
        }
      },
      "withdraw(address,uint256)": {
        "details": "Reverts with `FxERC20TokenNotMapped` if `childToken` has not been deployed through a mapping request.Reverts if the token transfer fails for any reason.",
        "params": {
          "amount": "The amount of tokens to withdraw.",
          "childToken": "The ERC20 child token which has previously been deployed as a mapping for a root token."
        }
      },
      "withdrawTo(address,address,uint256)": {
        "details": "Reverts with `FxERC20InvalidWithdrawalAddress` if `receiver` is the zero address.Reverts with `FxERC20TokenNotMapped` if `childToken` has not been deployed through a mapping request.Reverts if the token transfer fails for any reason.",
        "params": {
          "amount": "The amount of tokens to withdraw.",
          "childToken": "The ERC20 child token which has previously been deployed as a mapping for a root token.",
          "receiver": "The account receiving the withdrawal."
        }
      }
    },
    "title": "FxERC20MintBurnChildTunnel",
    "version": 1
  },
  "userdoc": {
    "errors": {
      "FxERC20ChildTokenLogicNotContract()": [
        {
          "notice": "Thrown during construction if the provided child token logic address is not a deployed contract."
        }
      ],
      "FxERC20InvalidSyncType(bytes32)": [
        {
          "notice": "Thrown if a sync request is of an unrecognized type."
        }
      ],
      "FxERC20InvalidWithdrawalAddress()": [
        {
          "notice": "Thrown if a withdrawal recipient is the zero address."
        }
      ],
      "FxERC20TokenAlreadyMapped(address,address)": [
        {
          "notice": "Thrown during a mapping request if the root token already has a mapping."
        }
      ],
      "FxERC20TokenNotMapped()": [
        {
          "notice": "Thrown during a withdrawal if the requested child token withdrawal was not mapped from a root token."
        }
      ],
      "IllegalInterfaceId()": [
        {
          "notice": "Thrown when setting the illegal interfaceId 0xffffffff."
        }
      ]
    },
    "events": {
      "FxERC20Deposit(address,address,address,address,uint256)": {
        "notice": "Emitted when some ERC20 token has been deposited."
      },
      "FxERC20TokenMapping(address,address)": {
        "notice": "Emitted when an ERC20 token has been mapped."
      },
      "FxERC20Withdrawal(address,address,address,address,uint256)": {
        "notice": "Emitted when some ERC20 token has been withdrawn."
      }
    },
    "kind": "user",
    "methods": {
      "isTrustedForwarder(address)": {
        "notice": "Checks whether a forwarder is trusted."
      },
      "supportsInterface(bytes4)": {
        "notice": "Returns whether this contract implements a given interface."
      },
      "withdraw(address,uint256)": {
        "notice": "Requests the withdrawal of an `amount` of `childToken` by and for the message sender.Note: Approval for `amount` of `childToken` must have been previously given to this contract."
      },
      "withdrawTo(address,address,uint256)": {
        "notice": "Requests the withdrawal of an `amount` of `childToken` by the message sender and for a `receiver`.Note: Approval for `amount` of `childToken` must have been previously given to this contract."
      }
    },
    "notice": "Fx child mintable burnable ERC20 tunnel.",
    "version": 1
  },
  "storageLayout": {
    "storage": [
      {
        "astId": 10745,
        "contract": "contracts/fx-portal/tunnel/ERC20/FxERC20MintBurnChildTunnel.sol:FxERC20MintBurnChildTunnel",
        "label": "fxChild",
        "offset": 0,
        "slot": "0",
        "type": "t_address"
      },
      {
        "astId": 10747,
        "contract": "contracts/fx-portal/tunnel/ERC20/FxERC20MintBurnChildTunnel.sol:FxERC20MintBurnChildTunnel",
        "label": "fxRootTunnel",
        "offset": 0,
        "slot": "1",
        "type": "t_address"
      },
      {
        "astId": 14582,
        "contract": "contracts/fx-portal/tunnel/ERC20/FxERC20MintBurnChildTunnel.sol:FxERC20MintBurnChildTunnel",
        "label": "rootToChildToken",
        "offset": 0,
        "slot": "2",
        "type": "t_mapping(t_address,t_address)"
      }
    ],
    "types": {
      "t_address": {
        "encoding": "inplace",
        "label": "address",
        "numberOfBytes": "20"
      },
      "t_mapping(t_address,t_address)": {
        "encoding": "mapping",
        "key": "t_address",
        "label": "mapping(address => address)",
        "numberOfBytes": "32",
        "value": "t_address"
      }
    }
  }
}