{
  "address": "0x89B7647067e0958C6c0AC6c9581656537B698543",
  "abi": [
    {
      "inputs": [
        {
          "internalType": "contract IForwarderRegistry",
          "name": "forwarderRegistry",
          "type": "address"
        }
      ],
      "stateMutability": "nonpayable",
      "type": "constructor"
    },
    {
      "inputs": [
        {
          "internalType": "uint256",
          "name": "currentPhase",
          "type": "uint256"
        },
        {
          "internalType": "uint256",
          "name": "newPhase",
          "type": "uint256"
        }
      ],
      "name": "InitializationPhaseAlreadyReached",
      "type": "error"
    },
    {
      "inputs": [
        {
          "internalType": "address",
          "name": "account",
          "type": "address"
        }
      ],
      "name": "NotContractOwner",
      "type": "error"
    },
    {
      "inputs": [],
      "name": "NotPaused",
      "type": "error"
    },
    {
      "inputs": [
        {
          "internalType": "address",
          "name": "account",
          "type": "address"
        }
      ],
      "name": "NotProxyAdmin",
      "type": "error"
    },
    {
      "inputs": [],
      "name": "Paused",
      "type": "error"
    },
    {
      "anonymous": false,
      "inputs": [],
      "name": "Pause",
      "type": "event"
    },
    {
      "anonymous": false,
      "inputs": [],
      "name": "Unpause",
      "type": "event"
    },
    {
      "inputs": [
        {
          "internalType": "bool",
          "name": "isPaused",
          "type": "bool"
        }
      ],
      "name": "initPauseStorage",
      "outputs": [],
      "stateMutability": "nonpayable",
      "type": "function"
    },
    {
      "inputs": [],
      "name": "pause",
      "outputs": [],
      "stateMutability": "nonpayable",
      "type": "function"
    },
    {
      "inputs": [],
      "name": "paused",
      "outputs": [
        {
          "internalType": "bool",
          "name": "",
          "type": "bool"
        }
      ],
      "stateMutability": "view",
      "type": "function"
    },
    {
      "inputs": [],
      "name": "unpause",
      "outputs": [],
      "stateMutability": "nonpayable",
      "type": "function"
    }
  ],
  "transactionHash": "0x3bbcee4098903df92f8e13578e236237a26ed59ff7f4630b137f6c5346b272af",
  "args": [
    "0x316a472D084489CB6d4C66e5eB62aE3AdA17521e"
  ],
  "numDeployments": 1,
  "solcInputHash": "84bab0eb3356c2e3bedca0f2f5a163c5",
  "bytecode": "0x60a0604052348015600f57600080fd5b50604051610747380380610747833981016040819052602c91603c565b6001600160a01b0316608052606a565b600060208284031215604d57600080fd5b81516001600160a01b0381168114606357600080fd5b9392505050565b6080516106bb61008c600039600081816103d3015261046101526106bb6000f3fe608060405234801561001057600080fd5b506004361061004c5760003560e01c80633f4ba83a146100515780635c975abb1461005b5780638456cb5914610077578063b606577c1461007f575b600080fd5b610059610092565b005b6100636100bd565b604051901515815260200160405180910390f35b6100596100d6565b61005961008d36600461060a565b6100f1565b6100ab61009d61011f565b6100a5610129565b9061015d565b6100bb6100b66101d1565b6101ff565b565b60006100d16100ca6101d1565b5460ff1690565b905090565b6100e161009d61011f565b6100bb6100ec6101d1565b61025a565b61010a6100fc61011f565b6101046102b8565b906102e6565b61011c816101166101d1565b90610351565b50565b60006100d1610390565b60008061015760017fc9ed16f33ab3a66c84bfd83099ccb2a8845871e2e1c1928f63797152f0fd54cd61062e565b92915050565b815473ffffffffffffffffffffffffffffffffffffffff8281169116146101cd576040517f2ef4875e00000000000000000000000000000000000000000000000000000000815273ffffffffffffffffffffffffffffffffffffffff821660048201526024015b60405180910390fd5b5050565b60008061015760017f0186a05f63b1553398ad5ea3233c0ce68b8c9eecc47717f123c5c2b42fbd6d9f61062e565b610208816104dd565b80547fffffffffffffffffffffffffffffffffffffffffffffffffffffffffffffff001681556040517f7805862f689e2f13df9f062ff482ad3ad112aca9e0847911ed832e158c525b3390600090a150565b61026381610518565b80547fffffffffffffffffffffffffffffffffffffffffffffffffffffffffffffff001660011781556040517f6985a02210a168e66602d3235cb6db0e70f92b3ba4d376a33c0f3d9434bff62590600090a150565b60008061015760017fb53127684a568b3173ae13b9f8a6016e243e63b6e8ee1178d6a717850b5d610461062e565b815473ffffffffffffffffffffffffffffffffffffffff8281169116146101cd576040517f673a31a100000000000000000000000000000000000000000000000000000000815273ffffffffffffffffffffffffffffffffffffffff821660048201526024016101c4565b61038661037f60017f3bee9ead429adf7e232b4f4b772a209623333b43e5466fc9b9a766da96c2ae0f61062e565b6001610554565b6101cd82826105a0565b6000333214806103a05750601836105b156103aa57503390565b7fffffffffffffffffffffffffffffffffffffffffffffffffffffffffffffffec36013560601c7f000000000000000000000000000000000000000000000000000000000000000073ffffffffffffffffffffffffffffffffffffffff163314806104cc57506040517f019a202800000000000000000000000000000000000000000000000000000000815273ffffffffffffffffffffffffffffffffffffffff82811660048301523360248301523060448301527f0000000000000000000000000000000000000000000000000000000000000000169063019a202890606401602060405180830381865afa1580156104a8573d6000803e3d6000fd5b505050506040513d601f19601f820116820180604052508101906104cc9190610668565b156104d657919050565b3391505090565b805460ff1661011c576040517f6cd6020100000000000000000000000000000000000000000000000000000000815260040160405180910390fd5b805460ff161561011c576040517f9e87fac800000000000000000000000000000000000000000000000000000000815260040160405180910390fd5b8154829082811061059b576040517fbf0c18ec00000000000000000000000000000000000000000000000000000000815260048101829052602481018490526044016101c4565b505550565b80156101cd5781547fffffffffffffffffffffffffffffffffffffffffffffffffffffffffffffff001660011782556040517f6985a02210a168e66602d3235cb6db0e70f92b3ba4d376a33c0f3d9434bff62590600090a15050565b801515811461011c57600080fd5b60006020828403121561061c57600080fd5b8135610627816105fc565b9392505050565b81810381811115610157577f4e487b7100000000000000000000000000000000000000000000000000000000600052601160045260246000fd5b60006020828403121561067a57600080fd5b8151610627816105fc56fea26469706673582212206365d8f1df48f3030791074978b891d9790f010e1c29e87bcf066032989c5df864736f6c634300081c0033",
  "devdoc": {
    "details": "This contract is to be used as a diamond facet (see ERC2535 Diamond Standard https://eips.ethereum.org/EIPS/eip-2535).Note: This facet depends on {ProxyAdminFacet} and {ContractOwnershipFacet}.",
    "errors": {
      "InitializationPhaseAlreadyReached(uint256,uint256)": [
        {
          "params": {
            "currentPhase": "The current phase.",
            "newPhase": "The new phase trying to be set."
          }
        }
      ],
      "NotContractOwner(address)": [
        {
          "params": {
            "account": "The account that was checked."
          }
        }
      ],
      "NotProxyAdmin(address)": [
        {
          "params": {
            "account": "The account that was checked."
          }
        }
      ]
    },
    "kind": "dev",
    "methods": {
      "initPauseStorage(bool)": {
        "details": "Reverts with {NotProxyAdmin} if the sender is not the proxy admin.Reverts with {InitializationPhaseAlreadyReached} if the proxy initialization phase is set to `1` or above.Emits a {Paused} event if `isPaused` is true.",
        "params": {
          "isPaused": "The initial pause state."
        }
      },
      "pause()": {
        "details": "Reverts with {NotContractOwner} if the sender is not the contract owner.Reverts with {Paused} if the contract is paused.Emits a {Paused} event."
      },
      "paused()": {
        "returns": {
          "_0": "The paused state of the contract."
        }
      },
      "unpause()": {
        "details": "Reverts with {NotContractOwner} if the sender is not the contract owner.Reverts with {NotPaused} if the contract is not paused.Emits an {Unpaused} event."
      }
    },
    "title": "Pausing mechanism (facet version).",
    "version": 1
  },
  "userdoc": {
    "errors": {
      "InitializationPhaseAlreadyReached(uint256,uint256)": [
        {
          "notice": "Emitted when trying to set a phase value that has already been reached."
        }
      ],
      "NotContractOwner(address)": [
        {
          "notice": "Thrown when an account is not the contract owner but is required to."
        }
      ],
      "NotPaused()": [
        {
          "notice": "Thrown when the contract is not paused but is required to."
        }
      ],
      "NotProxyAdmin(address)": [
        {
          "notice": "Thrown when an account is not the proxy admin but is required to."
        }
      ],
      "Paused()": [
        {
          "notice": "Thrown when the contract is paused but is required not to."
        }
      ]
    },
    "events": {
      "Pause()": {
        "notice": "Emitted when the pause is triggered."
      },
      "Unpause()": {
        "notice": "Emitted when the pause is lifted."
      }
    },
    "kind": "user",
    "methods": {
      "initPauseStorage(bool)": {
        "notice": "Initializes the storage with an initial pause state.Sets the proxy initialization phase to `1`."
      },
      "pause()": {
        "notice": "Pauses the contract."
      },
      "paused()": {
        "notice": "Gets the paused state of the contract."
      },
      "unpause()": {
        "notice": "Unpauses the contract."
      }
    },
    "version": 1
  },
  "storageLayout": {
    "storage": [],
    "types": null
  }
}