{
  "address": "0x131D5954E5C00cFAe2f21ddF00E3e0b82d9aa512",
  "abi": [
    {
      "inputs": [
        {
          "internalType": "contract IForwarderRegistry",
          "name": "forwarderRegistry",
          "type": "address"
        }
      ],
      "stateMutability": "nonpayable",
      "type": "constructor"
    },
    {
      "inputs": [
        {
          "internalType": "address",
          "name": "recipient",
          "type": "address"
        },
        {
          "internalType": "uint256",
          "name": "id",
          "type": "uint256"
        },
        {
          "internalType": "uint256",
          "name": "balance",
          "type": "uint256"
        },
        {
          "internalType": "uint256",
          "name": "value",
          "type": "uint256"
        }
      ],
      "name": "ERC1155BalanceOverflow",
      "type": "error"
    },
    {
      "inputs": [],
      "name": "ERC1155MintToAddressZero",
      "type": "error"
    },
    {
      "inputs": [
        {
          "internalType": "address",
          "name": "recipient",
          "type": "address"
        },
        {
          "internalType": "uint256",
          "name": "id",
          "type": "uint256"
        },
        {
          "internalType": "uint256",
          "name": "value",
          "type": "uint256"
        }
      ],
      "name": "ERC1155SafeTransferRejected",
      "type": "error"
    },
    {
      "inputs": [],
      "name": "IllegalInterfaceId",
      "type": "error"
    },
    {
      "inputs": [],
      "name": "InconsistentArrayLengths",
      "type": "error"
    },
    {
      "inputs": [
        {
          "internalType": "address",
          "name": "account",
          "type": "address"
        }
      ],
      "name": "NotProxyAdmin",
      "type": "error"
    },
    {
      "inputs": [
        {
          "internalType": "bytes32",
          "name": "role",
          "type": "bytes32"
        },
        {
          "internalType": "address",
          "name": "account",
          "type": "address"
        }
      ],
      "name": "NotRoleHolder",
      "type": "error"
    },
    {
      "anonymous": false,
      "inputs": [
        {
          "indexed": true,
          "internalType": "address",
          "name": "operator",
          "type": "address"
        },
        {
          "indexed": true,
          "internalType": "address",
          "name": "from",
          "type": "address"
        },
        {
          "indexed": true,
          "internalType": "address",
          "name": "to",
          "type": "address"
        },
        {
          "indexed": false,
          "internalType": "uint256",
          "name": "id",
          "type": "uint256"
        },
        {
          "indexed": false,
          "internalType": "uint256",
          "name": "value",
          "type": "uint256"
        }
      ],
      "name": "TransferSingle",
      "type": "event"
    },
    {
      "inputs": [],
      "name": "initERC1155DeliverableStorage",
      "outputs": [],
      "stateMutability": "nonpayable",
      "type": "function"
    },
    {
      "inputs": [
        {
          "internalType": "address[]",
          "name": "recipients",
          "type": "address[]"
        },
        {
          "internalType": "uint256[]",
          "name": "ids",
          "type": "uint256[]"
        },
        {
          "internalType": "uint256[]",
          "name": "values",
          "type": "uint256[]"
        },
        {
          "internalType": "bytes",
          "name": "data",
          "type": "bytes"
        }
      ],
      "name": "safeDeliver",
      "outputs": [],
      "stateMutability": "nonpayable",
      "type": "function"
    }
  ],
  "transactionHash": "0xd70d74aadabf020e539cb5183ba7c53087c6215541c22243d8ac542d5359b74b",
  "args": [
    "0x316a472D084489CB6d4C66e5eB62aE3AdA17521e"
  ],
  "numDeployments": 1,
  "solcInputHash": "84bab0eb3356c2e3bedca0f2f5a163c5",
  "bytecode": "0x60a0604052348015600f57600080fd5b50604051610d12380380610d12833981016040819052602c91603c565b6001600160a01b0316608052606a565b600060208284031215604d57600080fd5b81516001600160a01b0381168114606357600080fd5b9392505050565b608051610c8661008c6000396000818161048a01526105180152610c866000f3fe608060405234801561001057600080fd5b50600436106100365760003560e01c8063ba92ca2a1461003b578063e8ab9ccc14610045575b600080fd5b610043610058565b005b6100436100533660046109c1565b61007b565b6100716100636101a7565b61006b6101b6565b906101ea565b61007961025e565b565b60006100856101a7565b90506100bb7f6d696e7465720000000000000000000000000000000000000000000000000000826100b4610293565b91906102c1565b61019c818a8a8080602002602001604051908101604052809392919081815260200183836020028082843760009201919091525050604080516020808e0282810182019093528d82529093508d92508c91829185019084908082843760009201919091525050604080516020808d0282810182019093528c82529093508c92508b91829185019084908082843760009201919091525050604080516020601f8c018190048102820181019092528a815292508a9150899081908401838280828437600092019190915250610192925061034c915050565b949392919061037a565b505050505050505050565b60006101b1610447565b905090565b6000806101e460017fb53127684a568b3173ae13b9f8a6016e243e63b6e8ee1178d6a717850b5d6104610ac8565b92915050565b815473ffffffffffffffffffffffffffffffffffffffff82811691161461025a576040517f673a31a100000000000000000000000000000000000000000000000000000000815273ffffffffffffffffffffffffffffffffffffffff821660048201526024015b60405180910390fd5b5050565b6100797fe8ab9ccc00000000000000000000000000000000000000000000000000000000600161028c610594565b91906105c2565b6000806101e460017fc8827d3282af6f37b64c3e9e6f3ac9df286ab0bb0fccd6f8661bf19adb368b23610ac8565b60008281526020848152604080832073ffffffffffffffffffffffffffffffffffffffff8516845290915290205460ff16610347576040517f7aa728820000000000000000000000000000000000000000000000000000000081526004810183905273ffffffffffffffffffffffffffffffffffffffff82166024820152604401610251565b505050565b6000806101e460017f5ccf5846fa27a68fafc8e588671a68f5e67c2f9b56af4263806a4d71735e8613610ac8565b835183518114158061038d575082518114155b156103c4576040517f6582533600000000000000000000000000000000000000000000000000000000815260040160405180910390fd5b60005b8181101561043d57610435878783815181106103e5576103e5610b02565b60200260200101518784815181106103ff576103ff610b02565b602002602001015187858151811061041957610419610b02565b6020026020010151878d61069e9095949392919063ffffffff16565b6001016103c7565b5050505050505050565b6000333214806104575750601836105b1561046157503390565b7fffffffffffffffffffffffffffffffffffffffffffffffffffffffffffffffec36013560601c7f000000000000000000000000000000000000000000000000000000000000000073ffffffffffffffffffffffffffffffffffffffff1633148061058357506040517f019a202800000000000000000000000000000000000000000000000000000000815273ffffffffffffffffffffffffffffffffffffffff82811660048301523360248301523060448301527f0000000000000000000000000000000000000000000000000000000000000000169063019a202890606401602060405180830381865afa15801561055f573d6000803e3d6000fd5b505050506040513d601f19601f820116820180604052508101906105839190610b31565b1561058d57919050565b3391505090565b6000806101e460017fca9d3e17f264b0f3984e2634e94adb37fa3e6a8103f06aeae6fa59e21c769f5e610ac8565b7c01000000000000000000000000000000000000000000000000000000007fffffffff0000000000000000000000000000000000000000000000000000000083160161063a576040517f72c683bb00000000000000000000000000000000000000000000000000000000815260040160405180910390fd5b7fffffffff00000000000000000000000000000000000000000000000000000000919091166000908152602092909252604090912080547fffffffffffffffffffffffffffffffffffffffffffffffffffffffffffffff0016911515919091179055565b73ffffffffffffffffffffffffffffffffffffffff84166106eb576040517f021149bd00000000000000000000000000000000000000000000000000000000815260040160405180910390fd5b6106f786858585610784565b604080518481526020810184905273ffffffffffffffffffffffffffffffffffffffff80871692600092918916917fc3d58168c5ae7397731d063d5bbf3d657854427343f4c083240f7aacaa2d0f62910160405180910390a473ffffffffffffffffffffffffffffffffffffffff84163b1561077c5761077c85600086868686610857565b505050505050565b80156108515760008281526020858152604080832073ffffffffffffffffffffffffffffffffffffffff87168452909152902054818101818111610821576040517f42fb00bc00000000000000000000000000000000000000000000000000000000815273ffffffffffffffffffffffffffffffffffffffff86166004820152602481018590526044810183905260648101849052608401610251565b60008481526020878152604080832073ffffffffffffffffffffffffffffffffffffffff89168452909152902055505b50505050565b6040517ff23a6e61000000000000000000000000000000000000000000000000000000008082529073ffffffffffffffffffffffffffffffffffffffff86169063f23a6e61906108b3908a908a90899089908990600401610b5a565b6020604051808303816000875af11580156108d2573d6000803e3d6000fd5b505050506040513d601f19601f820116820180604052508101906108f69190610c0e565b7fffffffff00000000000000000000000000000000000000000000000000000000161461077c576040517f40f39d3800000000000000000000000000000000000000000000000000000000815273ffffffffffffffffffffffffffffffffffffffff851660048201526024810184905260448101839052606401610251565b60008083601f84011261098757600080fd5b50813567ffffffffffffffff81111561099f57600080fd5b6020830191508360208260051b85010111156109ba57600080fd5b9250929050565b6000806000806000806000806080898b0312156109dd57600080fd5b883567ffffffffffffffff8111156109f457600080fd5b610a008b828c01610975565b909950975050602089013567ffffffffffffffff811115610a2057600080fd5b610a2c8b828c01610975565b909750955050604089013567ffffffffffffffff811115610a4c57600080fd5b610a588b828c01610975565b909550935050606089013567ffffffffffffffff811115610a7857600080fd5b8901601f81018b13610a8957600080fd5b803567ffffffffffffffff811115610aa057600080fd5b8b6020828401011115610ab257600080fd5b989b979a50959850939692959194602001935050565b818103818111156101e4577f4e487b7100000000000000000000000000000000000000000000000000000000600052601160045260246000fd5b7f4e487b7100000000000000000000000000000000000000000000000000000000600052603260045260246000fd5b600060208284031215610b4357600080fd5b81518015158114610b5357600080fd5b9392505050565b73ffffffffffffffffffffffffffffffffffffffff8616815273ffffffffffffffffffffffffffffffffffffffff8516602082015283604082015282606082015260a06080820152600082518060a084015260005b81811015610bcc57602081860181015160c0868401015201610baf565b50600060c0828501015260c07fffffffffffffffffffffffffffffffffffffffffffffffffffffffffffffffe0601f8301168401019150509695505050505050565b600060208284031215610c2057600080fd5b81517fffffffff0000000000000000000000000000000000000000000000000000000081168114610b5357600080fdfea26469706673582212208676781f7e7ece91de65bad443cbd6bdf68037595d288704818a23ef8bd7223464736f6c634300081c0033",
  "devdoc": {
    "details": "This contract is to be used as a diamond facet (see ERC2535 Diamond Standard https://eips.ethereum.org/EIPS/eip-2535).Note: This facet depends on {ProxyAdminFacet}, and {InterfaceDetectionFacet}.",
    "errors": {
      "ERC1155BalanceOverflow(address,uint256,uint256,uint256)": [
        {
          "params": {
            "balance": "The current balance.",
            "id": "The token identifier.",
            "recipient": "The recipient.",
            "value": "The amount of tokens to transfer."
          }
        }
      ],
      "ERC1155SafeTransferRejected(address,uint256,uint256)": [
        {
          "params": {
            "id": "The token identifier.",
            "recipient": "The recipient contract.",
            "value": "The amount of tokens to transfer."
          }
        }
      ],
      "NotProxyAdmin(address)": [
        {
          "params": {
            "account": "The account that was checked."
          }
        }
      ],
      "NotRoleHolder(bytes32,address)": [
        {
          "params": {
            "account": "The account that was checked.",
            "role": "The role the caller is missing."
          }
        }
      ]
    },
    "events": {
      "TransferSingle(address,address,address,uint256,uint256)": {
        "params": {
          "from": "The previous token owner.",
          "id": "The transferred token identifier.",
          "operator": "The initiator of the transfer.",
          "to": "The new token owner.",
          "value": "The amount of token."
        }
      }
    },
    "kind": "dev",
    "methods": {
      "initERC1155DeliverableStorage()": {
        "details": "Reverts with {NotProxyAdmin} if the sender is not the proxy admin."
      },
      "safeDeliver(address[],uint256[],uint256[],bytes)": {
        "details": "Reverts with {NotRoleHolder} if the sender does not have the 'minter' role.",
        "params": {
          "data": "Optional data to send along to a receiver contract.",
          "ids": "Identifiers of the tokens to mint.",
          "recipients": "Addresses of the new tokens owners.",
          "values": "Amounts of tokens to mint."
        }
      }
    },
    "title": "ERC1155 Multi Token Standard, optional extension: Deliverable (facet version).",
    "version": 1
  },
  "userdoc": {
    "errors": {
      "ERC1155BalanceOverflow(address,uint256,uint256,uint256)": [
        {
          "notice": "Thrown when minting or transferring an amount of tokens that would overflow the recipient's balance."
        }
      ],
      "ERC1155MintToAddressZero()": [
        {
          "notice": "Thrown when minting tokens to the zero address."
        }
      ],
      "ERC1155SafeTransferRejected(address,uint256,uint256)": [
        {
          "notice": "Thrown when a safe transfer is rejected by the recipient contract."
        }
      ],
      "IllegalInterfaceId()": [
        {
          "notice": "Thrown when setting the illegal interfaceId 0xffffffff."
        }
      ],
      "InconsistentArrayLengths()": [
        {
          "notice": "Thrown when the multiple related arrays have different lengths."
        }
      ],
      "NotProxyAdmin(address)": [
        {
          "notice": "Thrown when an account is not the proxy admin but is required to."
        }
      ],
      "NotRoleHolder(bytes32,address)": [
        {
          "notice": "Thrown when an account does not have the required role."
        }
      ]
    },
    "events": {
      "TransferSingle(address,address,address,uint256,uint256)": {
        "notice": "Emitted when some token is transferred."
      }
    },
    "kind": "user",
    "methods": {
      "initERC1155DeliverableStorage()": {
        "notice": "Marks the following ERC165 interfaces as supported: ERC1155Deliverable."
      },
      "safeDeliver(address[],uint256[],uint256[],bytes)": {
        "notice": "Safely mints tokens to multiple recipients."
      }
    },
    "version": 1
  },
  "storageLayout": {
    "storage": [],
    "types": null
  }
}