{
  "address": "0xdD6423006E3dA5236C28a75290e2080F9FcDE767",
  "abi": [
    {
      "inputs": [
        {
          "internalType": "contract IForwarderRegistry",
          "name": "forwarderRegistry",
          "type": "address"
        }
      ],
      "stateMutability": "nonpayable",
      "type": "constructor"
    },
    {
      "inputs": [
        {
          "internalType": "address",
          "name": "owner",
          "type": "address"
        },
        {
          "internalType": "uint256",
          "name": "id",
          "type": "uint256"
        },
        {
          "internalType": "uint256",
          "name": "balance",
          "type": "uint256"
        },
        {
          "internalType": "uint256",
          "name": "value",
          "type": "uint256"
        }
      ],
      "name": "ERC1155InsufficientBalance",
      "type": "error"
    },
    {
      "inputs": [
        {
          "internalType": "address",
          "name": "sender",
          "type": "address"
        },
        {
          "internalType": "address",
          "name": "owner",
          "type": "address"
        }
      ],
      "name": "ERC1155NonApproved",
      "type": "error"
    },
    {
      "inputs": [],
      "name": "IllegalInterfaceId",
      "type": "error"
    },
    {
      "inputs": [],
      "name": "InconsistentArrayLengths",
      "type": "error"
    },
    {
      "inputs": [
        {
          "internalType": "address",
          "name": "account",
          "type": "address"
        }
      ],
      "name": "NotProxyAdmin",
      "type": "error"
    },
    {
      "anonymous": false,
      "inputs": [
        {
          "indexed": true,
          "internalType": "address",
          "name": "operator",
          "type": "address"
        },
        {
          "indexed": true,
          "internalType": "address",
          "name": "from",
          "type": "address"
        },
        {
          "indexed": true,
          "internalType": "address",
          "name": "to",
          "type": "address"
        },
        {
          "indexed": false,
          "internalType": "uint256[]",
          "name": "ids",
          "type": "uint256[]"
        },
        {
          "indexed": false,
          "internalType": "uint256[]",
          "name": "values",
          "type": "uint256[]"
        }
      ],
      "name": "TransferBatch",
      "type": "event"
    },
    {
      "anonymous": false,
      "inputs": [
        {
          "indexed": true,
          "internalType": "address",
          "name": "operator",
          "type": "address"
        },
        {
          "indexed": true,
          "internalType": "address",
          "name": "from",
          "type": "address"
        },
        {
          "indexed": true,
          "internalType": "address",
          "name": "to",
          "type": "address"
        },
        {
          "indexed": false,
          "internalType": "uint256",
          "name": "id",
          "type": "uint256"
        },
        {
          "indexed": false,
          "internalType": "uint256",
          "name": "value",
          "type": "uint256"
        }
      ],
      "name": "TransferSingle",
      "type": "event"
    },
    {
      "inputs": [
        {
          "internalType": "address",
          "name": "from",
          "type": "address"
        },
        {
          "internalType": "uint256[]",
          "name": "ids",
          "type": "uint256[]"
        },
        {
          "internalType": "uint256[]",
          "name": "values",
          "type": "uint256[]"
        }
      ],
      "name": "batchBurnFrom",
      "outputs": [],
      "stateMutability": "nonpayable",
      "type": "function"
    },
    {
      "inputs": [
        {
          "internalType": "address",
          "name": "from",
          "type": "address"
        },
        {
          "internalType": "uint256",
          "name": "id",
          "type": "uint256"
        },
        {
          "internalType": "uint256",
          "name": "value",
          "type": "uint256"
        }
      ],
      "name": "burnFrom",
      "outputs": [],
      "stateMutability": "nonpayable",
      "type": "function"
    },
    {
      "inputs": [],
      "name": "initERC1155BurnableStorage",
      "outputs": [],
      "stateMutability": "nonpayable",
      "type": "function"
    }
  ],
  "transactionHash": "0x653b4ef11a0f0666fa16f660d182047b20183779684b1c59f0b5c9095e927215",
  "args": [
    "0x316a472D084489CB6d4C66e5eB62aE3AdA17521e"
  ],
  "numDeployments": 1,
  "solcInputHash": "84bab0eb3356c2e3bedca0f2f5a163c5",
  "bytecode": "0x60a0604052348015600f57600080fd5b50604051610ae7380380610ae7833981016040819052602c91603c565b6001600160a01b0316608052606a565b600060208284031215604d57600080fd5b81516001600160a01b0381168114606357600080fd5b9392505050565b608051610a5b61008c6000396000818161048901526105170152610a5b6000f3fe608060405234801561001057600080fd5b50600436106100415760003560e01c8063124d91e514610046578063641ff7d91461005b5780638053493414610063575b600080fd5b610059610054366004610811565b610076565b005b61005961009a565b610059610071366004610890565b6100bd565b6100956100816100e7565b84848461008c6100f6565b9392919061012a565b505050565b6100b36100a56100e7565b6100ad6101fc565b9061022a565b6100bb610299565b565b6100e06100c86100e7565b86868686866100d56100f6565b9594939291906102ce565b5050505050565b60006100f1610446565b905090565b60008061012460017f5ccf5846fa27a68fafc8e588671a68f5e67c2f9b56af4263806a4d71735e8613610916565b92915050565b610135858486610593565b610190576040517f05bbb9c400000000000000000000000000000000000000000000000000000000815273ffffffffffffffffffffffffffffffffffffffff8086166004830152841660248201526044015b60405180910390fd5b61019c8584848461060b565b604080518381526020810183905260009173ffffffffffffffffffffffffffffffffffffffff86811692908816917fc3d58168c5ae7397731d063d5bbf3d657854427343f4c083240f7aacaa2d0f62910160405180910390a45050505050565b60008061012460017fb53127684a568b3173ae13b9f8a6016e243e63b6e8ee1178d6a717850b5d6104610916565b815473ffffffffffffffffffffffffffffffffffffffff828116911614610295576040517f673a31a100000000000000000000000000000000000000000000000000000000815273ffffffffffffffffffffffffffffffffffffffff82166004820152602401610187565b5050565b6100bb7f921ed8d10000000000000000000000000000000000000000000000000000000060016102c76106de565b919061070c565b82818114610308576040517f6582533600000000000000000000000000000000000000000000000000000000815260040160405180910390fd5b610313888789610593565b610369576040517f05bbb9c400000000000000000000000000000000000000000000000000000000815273ffffffffffffffffffffffffffffffffffffffff808916600483015287166024820152604401610187565b60005b818110156103b8576103b0898888888581811061038b5761038b610950565b905060200201358787868181106103a4576103a4610950565b9050602002013561060b565b60010161036c565b50600073ffffffffffffffffffffffffffffffffffffffff168673ffffffffffffffffffffffffffffffffffffffff168873ffffffffffffffffffffffffffffffffffffffff167f4a39dc06d4c0dbc64b70af90fd698a233a518aa5d07e595d983b8c0526c8f7fb8888888860405161043494939291906109ca565b60405180910390a45050505050505050565b6000333214806104565750601836105b1561046057503390565b7fffffffffffffffffffffffffffffffffffffffffffffffffffffffffffffffec36013560601c7f000000000000000000000000000000000000000000000000000000000000000073ffffffffffffffffffffffffffffffffffffffff1633148061058257506040517f019a202800000000000000000000000000000000000000000000000000000000815273ffffffffffffffffffffffffffffffffffffffff82811660048301523360248301523060448301527f0000000000000000000000000000000000000000000000000000000000000000169063019a202890606401602060405180830381865afa15801561055e573d6000803e3d6000fd5b505050506040513d601f19601f8201168201806040525081019061058291906109fc565b1561058c57919050565b3391505090565b60008173ffffffffffffffffffffffffffffffffffffffff168373ffffffffffffffffffffffffffffffffffffffff161480610603575073ffffffffffffffffffffffffffffffffffffffff808416600090815260018601602090815260408083209386168352929052205460ff165b949350505050565b80156106d85760008281526020858152604080832073ffffffffffffffffffffffffffffffffffffffff871684529091529020548181038181106106a8576040517f03dee4c500000000000000000000000000000000000000000000000000000000815273ffffffffffffffffffffffffffffffffffffffff86166004820152602481018590526044810183905260648101849052608401610187565b60008481526020878152604080832073ffffffffffffffffffffffffffffffffffffffff89168452909152902055505b50505050565b60008061012460017fca9d3e17f264b0f3984e2634e94adb37fa3e6a8103f06aeae6fa59e21c769f5e610916565b7c01000000000000000000000000000000000000000000000000000000007fffffffff00000000000000000000000000000000000000000000000000000000831601610784576040517f72c683bb00000000000000000000000000000000000000000000000000000000815260040160405180910390fd5b7fffffffff00000000000000000000000000000000000000000000000000000000919091166000908152602092909252604090912080547fffffffffffffffffffffffffffffffffffffffffffffffffffffffffffffff0016911515919091179055565b803573ffffffffffffffffffffffffffffffffffffffff8116811461080c57600080fd5b919050565b60008060006060848603121561082657600080fd5b61082f846107e8565b95602085013595506040909401359392505050565b60008083601f84011261085657600080fd5b50813567ffffffffffffffff81111561086e57600080fd5b6020830191508360208260051b850101111561088957600080fd5b9250929050565b6000806000806000606086880312156108a857600080fd5b6108b1866107e8565b9450602086013567ffffffffffffffff8111156108cd57600080fd5b6108d988828901610844565b909550935050604086013567ffffffffffffffff8111156108f957600080fd5b61090588828901610844565b969995985093965092949392505050565b81810381811115610124577f4e487b7100000000000000000000000000000000000000000000000000000000600052601160045260246000fd5b7f4e487b7100000000000000000000000000000000000000000000000000000000600052603260045260246000fd5b81835260007f07ffffffffffffffffffffffffffffffffffffffffffffffffffffffffffffff8311156109b157600080fd5b8260051b80836020870137939093016020019392505050565b6040815260006109de60408301868861097f565b82810360208401526109f181858761097f565b979650505050505050565b600060208284031215610a0e57600080fd5b81518015158114610a1e57600080fd5b939250505056fea2646970667358221220a5b5a01f99fac7b0b293af91b98aa9c9c415f77f7047cb2734acabe4a9db737b64736f6c634300081c0033",
  "devdoc": {
    "details": "This contract is to be used as a diamond facet (see ERC2535 Diamond Standard https://eips.ethereum.org/EIPS/eip-2535).Note: This facet depends on {ProxyAdminFacet}, and {InterfaceDetectionFacet}.",
    "errors": {
      "ERC1155InsufficientBalance(address,uint256,uint256,uint256)": [
        {
          "params": {
            "balance": "The current balance.",
            "id": "The token identifier.",
            "owner": "The owner.",
            "value": "The amount of tokens to transfer."
          }
        }
      ],
      "ERC1155NonApproved(address,address)": [
        {
          "params": {
            "owner": "The owner.",
            "sender": "The sender."
          }
        }
      ],
      "NotProxyAdmin(address)": [
        {
          "params": {
            "account": "The account that was checked."
          }
        }
      ]
    },
    "events": {
      "TransferBatch(address,address,address,uint256[],uint256[])": {
        "params": {
          "from": "The previous tokens owner.",
          "ids": "The transferred tokens identifiers.",
          "operator": "The initiator of the transfer.",
          "to": "The new tokens owner.",
          "values": "The amounts of tokens."
        }
      },
      "TransferSingle(address,address,address,uint256,uint256)": {
        "params": {
          "from": "The previous token owner.",
          "id": "The transferred token identifier.",
          "operator": "The initiator of the transfer.",
          "to": "The new token owner.",
          "value": "The amount of token."
        }
      }
    },
    "kind": "dev",
    "methods": {
      "batchBurnFrom(address,uint256[],uint256[])": {
        "details": "Reverts if `ids` and `values` have different lengths.Reverts if the sender is not `from` and has not been approved by `from`.Reverts if `from` has an insufficient balance for any of `ids`.Emits an {IERC1155-TransferBatch} event.",
        "params": {
          "from": "Address of the current tokens owner.",
          "ids": "Identifiers of the tokens to burn.",
          "values": "Amounts of tokens to burn."
        }
      },
      "burnFrom(address,uint256,uint256)": {
        "details": "Reverts if the sender is not `from` and has not been approved by `from`.Reverts if `from` has an insufficient balance of `id`.Emits an {IERC1155-TransferSingle} event.",
        "params": {
          "from": "Address of the current token owner.",
          "id": "Identifier of the token to burn.",
          "value": "Amount of token to burn."
        }
      },
      "initERC1155BurnableStorage()": {
        "details": "Reverts with {NotProxyAdmin} if the sender is not the proxy admin."
      }
    },
    "title": "ERC1155 Multi Token Standard, optional extension: Burnable (facet version).",
    "version": 1
  },
  "userdoc": {
    "errors": {
      "ERC1155InsufficientBalance(address,uint256,uint256,uint256)": [
        {
          "notice": "Thrown when transferring an amount of tokens greater than the current balance."
        }
      ],
      "ERC1155NonApproved(address,address)": [
        {
          "notice": "Thrown when a sender tries to transfer tokens but is neither the owner nor approved by the owner."
        }
      ],
      "IllegalInterfaceId()": [
        {
          "notice": "Thrown when setting the illegal interfaceId 0xffffffff."
        }
      ],
      "InconsistentArrayLengths()": [
        {
          "notice": "Thrown when the multiple related arrays have different lengths."
        }
      ],
      "NotProxyAdmin(address)": [
        {
          "notice": "Thrown when an account is not the proxy admin but is required to."
        }
      ]
    },
    "events": {
      "TransferBatch(address,address,address,uint256[],uint256[])": {
        "notice": "Emitted when a batch of tokens is transferred."
      },
      "TransferSingle(address,address,address,uint256,uint256)": {
        "notice": "Emitted when some token is transferred."
      }
    },
    "kind": "user",
    "methods": {
      "batchBurnFrom(address,uint256[],uint256[])": {
        "notice": "Burns multiple tokens."
      },
      "burnFrom(address,uint256,uint256)": {
        "notice": "Burns some token."
      },
      "initERC1155BurnableStorage()": {
        "notice": "Marks the following ERC165 interfaces as supported: ERC1155Burnable."
      }
    },
    "version": 1
  },
  "storageLayout": {
    "storage": [],
    "types": null
  }
}