{
  "address": "0x343639AB2B652f8729d5454399fe8f1E65411ce5",
  "abi": [
    {
      "inputs": [
        {
          "internalType": "contract IForwarderRegistry",
          "name": "forwarderRegistry",
          "type": "address"
        }
      ],
      "stateMutability": "nonpayable",
      "type": "constructor"
    },
    {
      "inputs": [
        {
          "internalType": "address",
          "name": "owner",
          "type": "address"
        },
        {
          "internalType": "address",
          "name": "spender",
          "type": "address"
        },
        {
          "internalType": "uint256",
          "name": "allowance",
          "type": "uint256"
        },
        {
          "internalType": "uint256",
          "name": "increment",
          "type": "uint256"
        }
      ],
      "name": "ERC20AllowanceOverflow",
      "type": "error"
    },
    {
      "inputs": [
        {
          "internalType": "address",
          "name": "owner",
          "type": "address"
        }
      ],
      "name": "ERC20ApprovalToAddressZero",
      "type": "error"
    },
    {
      "inputs": [],
      "name": "ERC20BatchMintValuesOverflow",
      "type": "error"
    },
    {
      "inputs": [
        {
          "internalType": "address",
          "name": "owner",
          "type": "address"
        },
        {
          "internalType": "address",
          "name": "spender",
          "type": "address"
        },
        {
          "internalType": "uint256",
          "name": "allowance",
          "type": "uint256"
        },
        {
          "internalType": "uint256",
          "name": "decrement",
          "type": "uint256"
        }
      ],
      "name": "ERC20InsufficientAllowance",
      "type": "error"
    },
    {
      "inputs": [
        {
          "internalType": "address",
          "name": "owner",
          "type": "address"
        },
        {
          "internalType": "uint256",
          "name": "balance",
          "type": "uint256"
        },
        {
          "internalType": "uint256",
          "name": "value",
          "type": "uint256"
        }
      ],
      "name": "ERC20InsufficientBalance",
      "type": "error"
    },
    {
      "inputs": [],
      "name": "ERC20MintToAddressZero",
      "type": "error"
    },
    {
      "inputs": [
        {
          "internalType": "uint256",
          "name": "supply",
          "type": "uint256"
        },
        {
          "internalType": "uint256",
          "name": "value",
          "type": "uint256"
        }
      ],
      "name": "ERC20TotalSupplyOverflow",
      "type": "error"
    },
    {
      "inputs": [
        {
          "internalType": "address",
          "name": "owner",
          "type": "address"
        }
      ],
      "name": "ERC20TransferToAddressZero",
      "type": "error"
    },
    {
      "inputs": [],
      "name": "IllegalInterfaceId",
      "type": "error"
    },
    {
      "inputs": [],
      "name": "InconsistentArrayLengths",
      "type": "error"
    },
    {
      "inputs": [
        {
          "internalType": "uint256",
          "name": "currentPhase",
          "type": "uint256"
        },
        {
          "internalType": "uint256",
          "name": "newPhase",
          "type": "uint256"
        }
      ],
      "name": "InitializationPhaseAlreadyReached",
      "type": "error"
    },
    {
      "inputs": [
        {
          "internalType": "address",
          "name": "account",
          "type": "address"
        }
      ],
      "name": "NotProxyAdmin",
      "type": "error"
    },
    {
      "anonymous": false,
      "inputs": [
        {
          "indexed": true,
          "internalType": "address",
          "name": "owner",
          "type": "address"
        },
        {
          "indexed": true,
          "internalType": "address",
          "name": "spender",
          "type": "address"
        },
        {
          "indexed": false,
          "internalType": "uint256",
          "name": "value",
          "type": "uint256"
        }
      ],
      "name": "Approval",
      "type": "event"
    },
    {
      "anonymous": false,
      "inputs": [
        {
          "indexed": true,
          "internalType": "address",
          "name": "from",
          "type": "address"
        },
        {
          "indexed": true,
          "internalType": "address",
          "name": "to",
          "type": "address"
        },
        {
          "indexed": false,
          "internalType": "uint256",
          "name": "value",
          "type": "uint256"
        }
      ],
      "name": "Transfer",
      "type": "event"
    },
    {
      "inputs": [
        {
          "internalType": "address",
          "name": "owner",
          "type": "address"
        },
        {
          "internalType": "address",
          "name": "spender",
          "type": "address"
        }
      ],
      "name": "allowance",
      "outputs": [
        {
          "internalType": "uint256",
          "name": "value",
          "type": "uint256"
        }
      ],
      "stateMutability": "view",
      "type": "function"
    },
    {
      "inputs": [
        {
          "internalType": "address",
          "name": "spender",
          "type": "address"
        },
        {
          "internalType": "uint256",
          "name": "value",
          "type": "uint256"
        }
      ],
      "name": "approve",
      "outputs": [
        {
          "internalType": "bool",
          "name": "result",
          "type": "bool"
        }
      ],
      "stateMutability": "nonpayable",
      "type": "function"
    },
    {
      "inputs": [
        {
          "internalType": "address",
          "name": "owner",
          "type": "address"
        }
      ],
      "name": "balanceOf",
      "outputs": [
        {
          "internalType": "uint256",
          "name": "balance",
          "type": "uint256"
        }
      ],
      "stateMutability": "view",
      "type": "function"
    },
    {
      "inputs": [
        {
          "internalType": "address",
          "name": "spender",
          "type": "address"
        },
        {
          "internalType": "uint256",
          "name": "subtractedValue",
          "type": "uint256"
        }
      ],
      "name": "decreaseAllowance",
      "outputs": [
        {
          "internalType": "bool",
          "name": "result",
          "type": "bool"
        }
      ],
      "stateMutability": "nonpayable",
      "type": "function"
    },
    {
      "inputs": [
        {
          "internalType": "address",
          "name": "spender",
          "type": "address"
        },
        {
          "internalType": "uint256",
          "name": "addedValue",
          "type": "uint256"
        }
      ],
      "name": "increaseAllowance",
      "outputs": [
        {
          "internalType": "bool",
          "name": "result",
          "type": "bool"
        }
      ],
      "stateMutability": "nonpayable",
      "type": "function"
    },
    {
      "inputs": [],
      "name": "initERC20Storage",
      "outputs": [],
      "stateMutability": "nonpayable",
      "type": "function"
    },
    {
      "inputs": [
        {
          "internalType": "address[]",
          "name": "initialHolders",
          "type": "address[]"
        },
        {
          "internalType": "uint256[]",
          "name": "initialAllocations",
          "type": "uint256[]"
        }
      ],
      "name": "initERC20StorageWithAllocations",
      "outputs": [],
      "stateMutability": "nonpayable",
      "type": "function"
    },
    {
      "inputs": [],
      "name": "totalSupply",
      "outputs": [
        {
          "internalType": "uint256",
          "name": "supply",
          "type": "uint256"
        }
      ],
      "stateMutability": "view",
      "type": "function"
    },
    {
      "inputs": [
        {
          "internalType": "address",
          "name": "to",
          "type": "address"
        },
        {
          "internalType": "uint256",
          "name": "value",
          "type": "uint256"
        }
      ],
      "name": "transfer",
      "outputs": [
        {
          "internalType": "bool",
          "name": "result",
          "type": "bool"
        }
      ],
      "stateMutability": "nonpayable",
      "type": "function"
    },
    {
      "inputs": [
        {
          "internalType": "address",
          "name": "from",
          "type": "address"
        },
        {
          "internalType": "address",
          "name": "to",
          "type": "address"
        },
        {
          "internalType": "uint256",
          "name": "value",
          "type": "uint256"
        }
      ],
      "name": "transferFrom",
      "outputs": [
        {
          "internalType": "bool",
          "name": "result",
          "type": "bool"
        }
      ],
      "stateMutability": "nonpayable",
      "type": "function"
    }
  ],
  "transactionHash": "0x478872f315cc2caec7923f346b78ed2a50667c10a41b2a5d28666349057f836a",
  "args": [
    "0x316a472D084489CB6d4C66e5eB62aE3AdA17521e"
  ],
  "numDeployments": 1,
  "solcInputHash": "84bab0eb3356c2e3bedca0f2f5a163c5",
  "bytecode": "0x60a0604052348015600f57600080fd5b50604051611295380380611295833981016040819052602c91603c565b6001600160a01b0316608052606a565b600060208284031215604d57600080fd5b81516001600160a01b0381168114606357600080fd5b9392505050565b60805161120961008c60003960008181610b2c0152610bba01526112096000f3fe608060405234801561001057600080fd5b50600436106100be5760003560e01c8063a457c2d711610076578063c8342b1d1161005b578063c8342b1d14610160578063dd62ed3e14610175578063fb33f6081461018857600080fd5b8063a457c2d71461013a578063a9059cbb1461014d57600080fd5b806323b872dd116100a757806323b872dd14610101578063395093511461011457806370a082311461012757600080fd5b8063095ea7b3146100c357806318160ddd146100eb575b600080fd5b6100d66100d1366004610fd6565b610190565b60405190151581526020015b60405180910390f35b6100f36101b9565b6040519081526020016100e2565b6100d661010f366004611000565b6101d2565b6100d6610122366004610fd6565b6101fd565b6100f361013536600461103d565b61021c565b6100d6610148366004610fd6565b610254565b6100d661015b366004610fd6565b610273565b61017361016e3660046110a4565b610292565b005b6100f3610183366004611115565b61031e565b610173610370565b60006101af61019d610385565b84846101a761038f565b9291906103bd565b5060015b92915050565b60006101cd6101c661038f565b6002015490565b905090565b60006101f36101df610385565b8585856101ea61038f565b93929190610499565b5060019392505050565b60006101af61020a610385565b848461021461038f565b9291906104eb565b60006101b38261022a61038f565b9073ffffffffffffffffffffffffffffffffffffffff166000908152602091909152604090205490565b60006101af610261610385565b848461026b61038f565b92919061069d565b60006101af610280610385565b848461028a61038f565b9291906107d5565b6102ab61029d610385565b6102a5610994565b906109c2565b61031884848080602002602001604051908101604052809392919081815260200183836020028082843760009201919091525050604080516020808802828101820190935287825290935087925086918291850190849080828437600092019190915250610a3192505050565b50505050565b6000610369838361032d61038f565b919073ffffffffffffffffffffffffffffffffffffffff9182166000908152600193909301602090815260408085209290931684525290205490565b9392505050565b61037b61029d610385565b610383610a82565b565b60006101cd610ae9565b6000806101b360017f1da92899d3da68bf9787824388a37ea2bfa79780bcef91b9716c390eec8ecbef611148565b73ffffffffffffffffffffffffffffffffffffffff8216610427576040517ff7e1ac0f00000000000000000000000000000000000000000000000000000000815273ffffffffffffffffffffffffffffffffffffffff841660048201526024015b60405180910390fd5b73ffffffffffffffffffffffffffffffffffffffff838116600081815260018701602090815260408083209487168084529482529182902085905590518481527f8c5be1e5ebec7d5bd14f71427d1e84f3dd0314c0f7b2291e5b200ac8c7c3b92591015b60405180910390a350505050565b8373ffffffffffffffffffffffffffffffffffffffff168373ffffffffffffffffffffffffffffffffffffffff16146104d8576104d88584868461069d565b6104e4858484846107d5565b5050505050565b73ffffffffffffffffffffffffffffffffffffffff8216610550576040517ff7e1ac0f00000000000000000000000000000000000000000000000000000000815273ffffffffffffffffffffffffffffffffffffffff8416600482015260240161041e565b73ffffffffffffffffffffffffffffffffffffffff8084166000908152600186016020908152604080832093861683529290522054811561062f578082018181116105f5576040517f93bc2ff100000000000000000000000000000000000000000000000000000000815273ffffffffffffffffffffffffffffffffffffffff808716600483015285166024820152604481018390526064810184905260840161041e565b73ffffffffffffffffffffffffffffffffffffffff8086166000908152600188016020908152604080832093881683529290522081905590505b8273ffffffffffffffffffffffffffffffffffffffff168473ffffffffffffffffffffffffffffffffffffffff167f8c5be1e5ebec7d5bd14f71427d1e84f3dd0314c0f7b2291e5b200ac8c7c3b9258360405161068e91815260200190565b60405180910390a35050505050565b73ffffffffffffffffffffffffffffffffffffffff8216610702576040517ff7e1ac0f00000000000000000000000000000000000000000000000000000000815273ffffffffffffffffffffffffffffffffffffffff8416600482015260240161041e565b73ffffffffffffffffffffffffffffffffffffffff80841660009081526001860160209081526040808320938616835292905220547fffffffffffffffffffffffffffffffffffffffffffffffffffffffffffffffff811480159061076657508115155b1561062f578181038181106105f5576040517f137ad6ab00000000000000000000000000000000000000000000000000000000815273ffffffffffffffffffffffffffffffffffffffff808716600483015285166024820152604481018390526064810184905260840161041e565b73ffffffffffffffffffffffffffffffffffffffff821661083a576040517f754f425b00000000000000000000000000000000000000000000000000000000815273ffffffffffffffffffffffffffffffffffffffff8416600482015260240161041e565b80156109355773ffffffffffffffffffffffffffffffffffffffff83166000908152602085905260409020548181038181106108c8576040517fe450d38c00000000000000000000000000000000000000000000000000000000815273ffffffffffffffffffffffffffffffffffffffff86166004820152602481018390526044810184905260640161041e565b8373ffffffffffffffffffffffffffffffffffffffff168573ffffffffffffffffffffffffffffffffffffffff16146109325773ffffffffffffffffffffffffffffffffffffffff8086166000908152602088905260408082208490559186168152208054840190555b50505b8173ffffffffffffffffffffffffffffffffffffffff168373ffffffffffffffffffffffffffffffffffffffff167fddf252ad1be2c89b69c2b068fc378daa952ba7f163c4a11628f55a4df523b3ef8360405161048b91815260200190565b6000806101b360017fb53127684a568b3173ae13b9f8a6016e243e63b6e8ee1178d6a717850b5d6104611148565b815473ffffffffffffffffffffffffffffffffffffffff828116911614610a2d576040517f673a31a100000000000000000000000000000000000000000000000000000000815273ffffffffffffffffffffffffffffffffffffffff8216600482015260240161041e565b5050565b610a66610a5f60017f53d309e32e4ca7be7e99298a42b755b0cd82d1ad9411e9a18f57394d12274991611148565b6001610c36565b610a6e610a82565b610a2d8282610a7b61038f565b9190610c82565b6000610a8c610ea3565b9050610aba817f36372b07000000000000000000000000000000000000000000000000000000006001610ed1565b610ae6817f9d075186000000000000000000000000000000000000000000000000000000006001610ed1565b50565b600033321480610af95750601836105b15610b0357503390565b7fffffffffffffffffffffffffffffffffffffffffffffffffffffffffffffffec36013560601c7f000000000000000000000000000000000000000000000000000000000000000073ffffffffffffffffffffffffffffffffffffffff16331480610c2557506040517f019a202800000000000000000000000000000000000000000000000000000000815273ffffffffffffffffffffffffffffffffffffffff82811660048301523360248301523060448301527f0000000000000000000000000000000000000000000000000000000000000000169063019a202890606401602060405180830381865afa158015610c01573d6000803e3d6000fd5b505050506040513d601f19601f82011682018060405250810190610c259190611182565b15610c2f57919050565b3391505090565b81548290828110610c7d576040517fbf0c18ec000000000000000000000000000000000000000000000000000000008152600481018290526024810184905260440161041e565b505550565b815181518114610cbe576040517f6582533600000000000000000000000000000000000000000000000000000000815260040160405180910390fd5b80600003610ccc5750505050565b6000805b82811015610e44576000858281518110610cec57610cec6111a4565b60200260200101519050600073ffffffffffffffffffffffffffffffffffffffff168173ffffffffffffffffffffffffffffffffffffffff1603610d5c576040517f92fd9c8f00000000000000000000000000000000000000000000000000000000815260040160405180910390fd5b6000858381518110610d7057610d706111a4565b6020026020010151905080600014610dec57838101848111610dbe576040517f5542ae7c00000000000000000000000000000000000000000000000000000000815260040160405180910390fd5b73ffffffffffffffffffffffffffffffffffffffff8316600090815260208a90526040902080548301905593505b60405181815273ffffffffffffffffffffffffffffffffffffffff8316906000907fddf252ad1be2c89b69c2b068fc378daa952ba7f163c4a11628f55a4df523b3ef9060200160405180910390a35050600101610cd0565b5080156104e4576002850154818101818111610e96576040517f0366a5f6000000000000000000000000000000000000000000000000000000008152600481018390526024810184905260440161041e565b6002870155505050505050565b6000806101b360017fca9d3e17f264b0f3984e2634e94adb37fa3e6a8103f06aeae6fa59e21c769f5e611148565b7c01000000000000000000000000000000000000000000000000000000007fffffffff00000000000000000000000000000000000000000000000000000000831601610f49576040517f72c683bb00000000000000000000000000000000000000000000000000000000815260040160405180910390fd5b7fffffffff00000000000000000000000000000000000000000000000000000000919091166000908152602092909252604090912080547fffffffffffffffffffffffffffffffffffffffffffffffffffffffffffffff0016911515919091179055565b803573ffffffffffffffffffffffffffffffffffffffff81168114610fd157600080fd5b919050565b60008060408385031215610fe957600080fd5b610ff283610fad565b946020939093013593505050565b60008060006060848603121561101557600080fd5b61101e84610fad565b925061102c60208501610fad565b929592945050506040919091013590565b60006020828403121561104f57600080fd5b61036982610fad565b60008083601f84011261106a57600080fd5b50813567ffffffffffffffff81111561108257600080fd5b6020830191508360208260051b850101111561109d57600080fd5b9250929050565b600080600080604085870312156110ba57600080fd5b843567ffffffffffffffff8111156110d157600080fd5b6110dd87828801611058565b909550935050602085013567ffffffffffffffff8111156110fd57600080fd5b61110987828801611058565b95989497509550505050565b6000806040838503121561112857600080fd5b61113183610fad565b915061113f60208401610fad565b90509250929050565b818103818111156101b3577f4e487b7100000000000000000000000000000000000000000000000000000000600052601160045260246000fd5b60006020828403121561119457600080fd5b8151801515811461036957600080fd5b7f4e487b7100000000000000000000000000000000000000000000000000000000600052603260045260246000fdfea264697066735822122070328c7dbf52d6852492a4a8554ca86dcb66a3a2be21f7af55eee90949a0f2f264736f6c634300081c0033",
  "devdoc": {
    "details": "This contract is to be used as a diamond facet (see ERC2535 Diamond Standard https://eips.ethereum.org/EIPS/eip-2535).Note: This facet depends on {ProxyAdminFacet} and {InterfaceDetectionFacet}.",
    "errors": {
      "ERC20AllowanceOverflow(address,address,uint256,uint256)": [
        {
          "params": {
            "allowance": "The current allowance.",
            "increment": "The allowance increase.",
            "owner": "The owner of the tokens.",
            "spender": "The spender of the tokens."
          }
        }
      ],
      "ERC20ApprovalToAddressZero(address)": [
        {
          "params": {
            "owner": "The owner of the tokens."
          }
        }
      ],
      "ERC20InsufficientAllowance(address,address,uint256,uint256)": [
        {
          "params": {
            "allowance": "The current allowance.",
            "decrement": "The allowance decrease.",
            "owner": "The owner of the tokens.",
            "spender": "The spender of the tokens."
          }
        }
      ],
      "ERC20InsufficientBalance(address,uint256,uint256)": [
        {
          "params": {
            "balance": "The current balance.",
            "owner": "The owner of the tokens.",
            "value": "The amount of tokens being transferred."
          }
        }
      ],
      "ERC20TotalSupplyOverflow(uint256,uint256)": [
        {
          "params": {
            "supply": "The current supply.",
            "value": "The amount of tokens being minted."
          }
        }
      ],
      "ERC20TransferToAddressZero(address)": [
        {
          "params": {
            "owner": "The account from which the tokens are transferred."
          }
        }
      ],
      "InitializationPhaseAlreadyReached(uint256,uint256)": [
        {
          "params": {
            "currentPhase": "The current phase.",
            "newPhase": "The new phase trying to be set."
          }
        }
      ],
      "NotProxyAdmin(address)": [
        {
          "params": {
            "account": "The account that was checked."
          }
        }
      ]
    },
    "events": {
      "Approval(address,address,uint256)": {
        "params": {
          "owner": "The account granting an allowance to `spender`.",
          "spender": "The account being granted an allowance from `owner`.",
          "value": "The allowance amount being granted."
        }
      },
      "Transfer(address,address,uint256)": {
        "params": {
          "from": "The account where the transferred tokens are withdrawn from.",
          "to": "The account where the transferred tokens are deposited to.",
          "value": "The amount of tokens being transferred."
        }
      }
    },
    "kind": "dev",
    "methods": {
      "allowance(address,address)": {
        "params": {
          "owner": "The account that has granted an allowance to `spender`.",
          "spender": "The account that was granted an allowance by `owner`."
        },
        "returns": {
          "value": "The amount which `spender` is allowed to spend on behalf of `owner`."
        }
      },
      "approve(address,uint256)": {
        "details": "Reverts if `spender` is the zero address.Emits an {Approval} event.",
        "params": {
          "spender": "The account being granted the allowance by the message caller.",
          "value": "The allowance amount to grant."
        },
        "returns": {
          "result": "Whether the operation succeeded."
        }
      },
      "balanceOf(address)": {
        "params": {
          "owner": "The account whose balance will be returned."
        },
        "returns": {
          "balance": "The account balance."
        }
      },
      "decreaseAllowance(address,uint256)": {
        "details": "Reverts if `spender` is the zero address.Reverts if `spender` does not have at least `value` of allowance by the sender.Emits an {IERC20-Approval} event with an updated allowance for `spender` by the sender.",
        "params": {
          "spender": "The account whose allowance is being decreased.",
          "value": "The allowance amount decrease."
        },
        "returns": {
          "result": "Whether the operation succeeded."
        }
      },
      "increaseAllowance(address,uint256)": {
        "details": "Reverts if `spender` is the zero address.Reverts if `spender`'s allowance by the sender overflows.Emits an {IERC20-Approval} event with an updated allowance for `spender` by the sender.",
        "params": {
          "spender": "The account whose allowance is being increased.",
          "value": "The allowance amount increase."
        },
        "returns": {
          "result": "Whether the operation succeeded."
        }
      },
      "initERC20Storage()": {
        "details": "Reverts with {NotProxyAdmin} if the sender is not the proxy admin."
      },
      "initERC20StorageWithAllocations(address[],uint256[])": {
        "details": "Reverts with {NotProxyAdmin} if the sender is not the proxy admin."
      },
      "totalSupply()": {
        "returns": {
          "supply": "The total token supply."
        }
      },
      "transfer(address,uint256)": {
        "details": "Reverts if `to` is the zero address.Reverts if the sender does not have at least `value` of balance.Emits a {Transfer} event.",
        "params": {
          "to": "The account to transfer the tokens to.",
          "value": "The amount of tokens to transfer."
        },
        "returns": {
          "result": "Whether the operation succeeded."
        }
      },
      "transferFrom(address,address,uint256)": {
        "details": "Reverts if `to` is the zero address.Reverts if `from` does not have at least `value` of balance.Reverts if the sender is not `from` and does not have at least `value` of allowance by `from`.Emits a {Transfer} event.Optionally emits an {Approval} event if the sender is not `from` (non-standard).",
        "params": {
          "from": "The account which owns the tokens to transfer.",
          "to": "The account to transfer the tokens to.",
          "value": "The amount of tokens to transfer."
        },
        "returns": {
          "result": "Whether the operation succeeded."
        }
      }
    },
    "title": "ERC20 Fungible Token Standard (facet version).",
    "version": 1
  },
  "userdoc": {
    "errors": {
      "ERC20AllowanceOverflow(address,address,uint256,uint256)": [
        {
          "notice": "Thrown when the allowance increase creates an overflow."
        }
      ],
      "ERC20ApprovalToAddressZero(address)": [
        {
          "notice": "Thrown when setting an allowance to the the zero address."
        }
      ],
      "ERC20BatchMintValuesOverflow()": [
        {
          "notice": "Thrown when the `values` array sum overflows on a batch mint operation."
        }
      ],
      "ERC20InsufficientAllowance(address,address,uint256,uint256)": [
        {
          "notice": "Thrown when the allowance decreases below the current alowance set."
        }
      ],
      "ERC20InsufficientBalance(address,uint256,uint256)": [
        {
          "notice": "Thrown when transferring an amount of tokens greater than the current balance."
        }
      ],
      "ERC20MintToAddressZero()": [
        {
          "notice": "Thrown when the minting tokens to the zero address."
        }
      ],
      "ERC20TotalSupplyOverflow(uint256,uint256)": [
        {
          "notice": "Thrown when the minting tokens overflows the supply."
        }
      ],
      "ERC20TransferToAddressZero(address)": [
        {
          "notice": "Thrown when transferring tokens to the zero address."
        }
      ],
      "IllegalInterfaceId()": [
        {
          "notice": "Thrown when setting the illegal interfaceId 0xffffffff."
        }
      ],
      "InconsistentArrayLengths()": [
        {
          "notice": "Thrown when the multiple related arrays have different lengths."
        }
      ],
      "InitializationPhaseAlreadyReached(uint256,uint256)": [
        {
          "notice": "Emitted when trying to set a phase value that has already been reached."
        }
      ],
      "NotProxyAdmin(address)": [
        {
          "notice": "Thrown when an account is not the proxy admin but is required to."
        }
      ]
    },
    "events": {
      "Approval(address,address,uint256)": {
        "notice": "Emitted when an approval is set."
      },
      "Transfer(address,address,uint256)": {
        "notice": "Emitted when tokens are transferred, including zero value transfers."
      }
    },
    "kind": "user",
    "methods": {
      "allowance(address,address)": {
        "notice": "Gets the amount that an account is allowed to spend on behalf of another."
      },
      "approve(address,uint256)": {
        "notice": "Sets the allowance to an account from the sender.Warning: Beware that changing an allowance with this method brings the risk that someone may use both the old and  the new allowance by unfortunate transaction ordering. One possible solution to mitigate this race condition is to first reduce  the spender's allowance to 0 and set the desired value afterwards: https://github.com/ethereum/EIPs/issues/20#issuecomment-263524729"
      },
      "balanceOf(address)": {
        "notice": "Gets an account balance."
      },
      "decreaseAllowance(address,uint256)": {
        "notice": "Decreases the allowance granted to an account by the sender.This is an alternative to {approve} that can be used as a mitigation for transaction ordering problems."
      },
      "increaseAllowance(address,uint256)": {
        "notice": "Increases the allowance granted to an account by the sender.This is an alternative to {approve} that can be used as a mitigation for transaction ordering problems."
      },
      "initERC20Storage()": {
        "notice": "Marks the following ERC165 interface(s) as supported: ERC20, ERC20Allowance."
      },
      "initERC20StorageWithAllocations(address[],uint256[])": {
        "notice": "Marks the following ERC165 interface(s) as supported: ERC20, ERC20Allowance."
      },
      "totalSupply()": {
        "notice": "Gets the total token supply."
      },
      "transfer(address,uint256)": {
        "notice": "Transfers an amount of tokens to a recipient from the sender."
      },
      "transferFrom(address,address,uint256)": {
        "notice": "Transfers an amount of tokens to a recipient from a specified address."
      }
    },
    "version": 1
  },
  "storageLayout": {
    "storage": [],
    "types": null
  }
}