{
  "address": "0x316a472D084489CB6d4C66e5eB62aE3AdA17521e",
  "abi": [
    {
      "inputs": [],
      "stateMutability": "nonpayable",
      "type": "constructor"
    },
    {
      "inputs": [
        {
          "internalType": "address",
          "name": "target",
          "type": "address"
        }
      ],
      "name": "AddressEmptyCode",
      "type": "error"
    },
    {
      "inputs": [],
      "name": "ECDSAInvalidSignature",
      "type": "error"
    },
    {
      "inputs": [
        {
          "internalType": "uint256",
          "name": "length",
          "type": "uint256"
        }
      ],
      "name": "ECDSAInvalidSignatureLength",
      "type": "error"
    },
    {
      "inputs": [
        {
          "internalType": "bytes32",
          "name": "s",
          "type": "bytes32"
        }
      ],
      "name": "ECDSAInvalidSignatureS",
      "type": "error"
    },
    {
      "inputs": [],
      "name": "FailedCall",
      "type": "error"
    },
    {
      "inputs": [
        {
          "internalType": "address",
          "name": "sender",
          "type": "address"
        },
        {
          "internalType": "address",
          "name": "forwarder",
          "type": "address"
        },
        {
          "internalType": "address",
          "name": "target",
          "type": "address"
        }
      ],
      "name": "ForwarderNotApproved",
      "type": "error"
    },
    {
      "inputs": [
        {
          "internalType": "uint256",
          "name": "balance",
          "type": "uint256"
        },
        {
          "internalType": "uint256",
          "name": "needed",
          "type": "uint256"
        }
      ],
      "name": "InsufficientBalance",
      "type": "error"
    },
    {
      "inputs": [],
      "name": "InvalidEIP1271Signature",
      "type": "error"
    },
    {
      "inputs": [],
      "name": "WrongSigner",
      "type": "error"
    },
    {
      "anonymous": false,
      "inputs": [
        {
          "indexed": true,
          "internalType": "address",
          "name": "sender",
          "type": "address"
        },
        {
          "indexed": true,
          "internalType": "address",
          "name": "forwarder",
          "type": "address"
        },
        {
          "indexed": true,
          "internalType": "address",
          "name": "target",
          "type": "address"
        },
        {
          "indexed": false,
          "internalType": "bool",
          "name": "approved",
          "type": "bool"
        },
        {
          "indexed": false,
          "internalType": "uint256",
          "name": "nonce",
          "type": "uint256"
        }
      ],
      "name": "ForwarderApproval",
      "type": "event"
    },
    {
      "inputs": [],
      "name": "DOMAIN_SEPARATOR",
      "outputs": [
        {
          "internalType": "bytes32",
          "name": "domainSeparator",
          "type": "bytes32"
        }
      ],
      "stateMutability": "view",
      "type": "function"
    },
    {
      "inputs": [
        {
          "internalType": "bytes",
          "name": "signature",
          "type": "bytes"
        },
        {
          "internalType": "bool",
          "name": "isEIP1271Signature",
          "type": "bool"
        },
        {
          "internalType": "address",
          "name": "target",
          "type": "address"
        },
        {
          "internalType": "bytes",
          "name": "data",
          "type": "bytes"
        }
      ],
      "name": "approveAndForward",
      "outputs": [],
      "stateMutability": "payable",
      "type": "function"
    },
    {
      "inputs": [
        {
          "internalType": "address",
          "name": "target",
          "type": "address"
        },
        {
          "internalType": "bytes",
          "name": "data",
          "type": "bytes"
        }
      ],
      "name": "forward",
      "outputs": [],
      "stateMutability": "payable",
      "type": "function"
    },
    {
      "inputs": [
        {
          "internalType": "address",
          "name": "sender",
          "type": "address"
        },
        {
          "internalType": "address",
          "name": "forwarder",
          "type": "address"
        },
        {
          "internalType": "address",
          "name": "target",
          "type": "address"
        }
      ],
      "name": "getNonce",
      "outputs": [
        {
          "internalType": "uint256",
          "name": "nonce",
          "type": "uint256"
        }
      ],
      "stateMutability": "view",
      "type": "function"
    },
    {
      "inputs": [
        {
          "internalType": "address",
          "name": "sender",
          "type": "address"
        },
        {
          "internalType": "address",
          "name": "forwarder",
          "type": "address"
        },
        {
          "internalType": "address",
          "name": "target",
          "type": "address"
        }
      ],
      "name": "isApprovedForwarder",
      "outputs": [
        {
          "internalType": "bool",
          "name": "",
          "type": "bool"
        }
      ],
      "stateMutability": "view",
      "type": "function"
    },
    {
      "inputs": [
        {
          "internalType": "address",
          "name": "",
          "type": "address"
        }
      ],
      "name": "isTrustedForwarder",
      "outputs": [
        {
          "internalType": "bool",
          "name": "",
          "type": "bool"
        }
      ],
      "stateMutability": "pure",
      "type": "function"
    },
    {
      "inputs": [
        {
          "internalType": "address",
          "name": "sender",
          "type": "address"
        },
        {
          "internalType": "address",
          "name": "forwarder",
          "type": "address"
        },
        {
          "internalType": "address",
          "name": "target",
          "type": "address"
        },
        {
          "internalType": "bool",
          "name": "approved",
          "type": "bool"
        },
        {
          "internalType": "bytes",
          "name": "signature",
          "type": "bytes"
        },
        {
          "internalType": "bool",
          "name": "isEIP1271Signature",
          "type": "bool"
        }
      ],
      "name": "setForwarderApproval",
      "outputs": [],
      "stateMutability": "nonpayable",
      "type": "function"
    },
    {
      "inputs": [
        {
          "internalType": "address",
          "name": "forwarder",
          "type": "address"
        },
        {
          "internalType": "address",
          "name": "target",
          "type": "address"
        },
        {
          "internalType": "bool",
          "name": "approved",
          "type": "bool"
        }
      ],
      "name": "setForwarderApproval",
      "outputs": [],
      "stateMutability": "nonpayable",
      "type": "function"
    }
  ],
  "transactionHash": "0x187e024898949dab48d030d3c971c07589d2b2cdf5966dd75226327dc3298cb9",
  "args": [],
  "numDeployments": 1,
  "solcInputHash": "84bab0eb3356c2e3bedca0f2f5a163c5",
  "bytecode": "0x60c0604052348015600f57600080fd5b50466080818152604080517f8cad95687ba82c2ce50e74f7b754645e5117c3a5bec8151c0726d5857980a8666020808301919091527f06a520fda4ca688235391b02e357c6a65eb2a3bb40a69c0199f3f7f9cccee041828401526060820185905230828501528251808303909401845260a0909101909152815191012060a0525060805160a0516111366100b56000396000610378015260006102d101526111366000f3fe60806040526004361061007b5760003560e01c80636fadcf721161004e5780636fadcf721461011b5780639438f7f31461012e578063953135f514610141578063ae3c8c2d1461016157600080fd5b8063019a2028146100805780630c695d17146100b55780633644e515146100d7578063572b6c05146100fa575b600080fd5b34801561008c57600080fd5b506100a061009b366004610d61565b6101dd565b60405190151581526020015b60405180910390f35b3480156100c157600080fd5b506100d56100d0366004610dfd565b610246565b005b3480156100e357600080fd5b506100ec6102cc565b6040519081526020016100ac565b34801561010657600080fd5b506100a0610115366004610e94565b50600190565b6100d5610129366004610eaf565b61039e565b6100d561013c366004610f02565b6104ed565b34801561014d57600080fd5b506100d561015c366004610f99565b610546565b34801561016d57600080fd5b506100ec61017c366004610d61565b73ffffffffffffffffffffffffffffffffffffffff928316600090815260208181526040808320948616835293815283822092909416815292529020547effffffffffffffffffffffffffffffffffffffffffffffffffffffffffffff1690565b73ffffffffffffffffffffffffffffffffffffffff83811660009081526020818152604080832086851684528252808320938516835292905220547f0100000000000000000000000000000000000000000000000000000000000000900460ff165b9392505050565b73ffffffffffffffffffffffffffffffffffffffff8088166000908152602081815260408083208a85168452825280832093891683529290522080547effffffffffffffffffffffffffffffffffffffffffffffffffffffffffffff166102b389898989858a8a8a6105bd565b6102c1828a8a8a8a86610848565b505050505050505050565b6000467f0000000000000000000000000000000000000000000000000000000000000000811461037657604080517f8cad95687ba82c2ce50e74f7b754645e5117c3a5bec8151c0726d5857980a8666020808301919091527f06a520fda4ca688235391b02e357c6a65eb2a3bb40a69c0199f3f7f9cccee0418284015260608201849052306080808401919091528351808403909101815260a09092019092528051910120610398565b7f00000000000000000000000000000000000000000000000000000000000000005b91505090565b367fffffffffffffffffffffffffffffffffffffffffffffffffffffffffffffffec013560601c600081815260208181526040808320338452825280832073ffffffffffffffffffffffffffffffffffffffff881684529091529020547f0100000000000000000000000000000000000000000000000000000000000000900460ff16610482576040517f865e4ca900000000000000000000000000000000000000000000000000000000815273ffffffffffffffffffffffffffffffffffffffff8083166004830152336024830152851660448201526064015b60405180910390fd5b6104e683838360405160200161049a93929190610fd3565b604080517fffffffffffffffffffffffffffffffffffffffffffffffffffffffffffffffe081840301815291905273ffffffffffffffffffffffffffffffffffffffff86169034610924565b5050505050565b7fffffffffffffffffffffffffffffffffffffffffffffffffffffffffffffffec36013560601c61052481338660018b8b8b610246565b61053c83838360405160200161049a93929190610fd3565b5050505050505050565b3360008181526020818152604080832073ffffffffffffffffffffffffffffffffffffffff888116855290835281842090871684529091529020805490916105b7918391908790879087907effffffffffffffffffffffffffffffffffffffffffffffffffffffffffffff16610848565b50505050565b60006105c76102cc565b604080517f1d89f51cffda0adbc9dbff2f94eeaa6d10d8c3e27a39a69c4c7a29ebb3e1d284602082015273ffffffffffffffffffffffffffffffffffffffff808d1692820192909252818b166060820152908916608082015287151560a082015260c0810187905260e0016040516020818303038152906040528051906020012060405160200161068a9291907f190100000000000000000000000000000000000000000000000000000000000081526002810192909252602282015260420190565b6040516020818303038152906040529050811561079d57805160208201206040517f1626ba7e000000000000000000000000000000000000000000000000000000008082529173ffffffffffffffffffffffffffffffffffffffff8c1691631626ba7e916106fe918990899060040161100c565b602060405180830381865afa15801561071b573d6000803e3d6000fd5b505050506040513d601f19601f8201168201806040525081019061073f9190611060565b7fffffffff000000000000000000000000000000000000000000000000000000001614610798576040517f5d52cbe300000000000000000000000000000000000000000000000000000000815260040160405180910390fd5b6102c1565b8873ffffffffffffffffffffffffffffffffffffffff166107fb85858080601f0160208091040260200160405190810160405280939291908181526020018383808284376000920191909152505085516020870120929150506109ee565b73ffffffffffffffffffffffffffffffffffffffff16146102c1576040517fa7932e6a00000000000000000000000000000000000000000000000000000000815260040160405180910390fd5b600181017effffffffffffffffffffffffffffffffffffffffffffffffffffffffffffff168215157f0100000000000000000000000000000000000000000000000000000000000000027fff000000000000000000000000000000000000000000000000000000000000001617865560405173ffffffffffffffffffffffffffffffffffffffff80851691868216918816907f61036a3baab62925c6646f1eb84438957e2f9b3c52d084e099f955e04788b0489061091490879087909115158252602082015260400190565b60405180910390a4505050505050565b606081471015610969576040517fcf47918100000000000000000000000000000000000000000000000000000000815247600482015260248101839052604401610479565b6000808573ffffffffffffffffffffffffffffffffffffffff16848660405161099291906110a2565b60006040518083038185875af1925050503d80600081146109cf576040519150601f19603f3d011682016040523d82523d6000602084013e6109d4565b606091505b50915091506109e4868383610a18565b9695505050505050565b6000806000806109fe8686610aa7565b925092509250610a0e8282610af4565b5090949350505050565b606082610a2d57610a2882610bfc565b61023f565b8151158015610a51575073ffffffffffffffffffffffffffffffffffffffff84163b155b15610aa0576040517f9996b31500000000000000000000000000000000000000000000000000000000815273ffffffffffffffffffffffffffffffffffffffff85166004820152602401610479565b508061023f565b60008060008351604103610ae15760208401516040850151606086015160001a610ad388828585610c3e565b955095509550505050610aed565b50508151600091506002905b9250925092565b6000826003811115610b0857610b086110d1565b03610b11575050565b6001826003811115610b2557610b256110d1565b03610b5c576040517ff645eedf00000000000000000000000000000000000000000000000000000000815260040160405180910390fd5b6002826003811115610b7057610b706110d1565b03610baa576040517ffce698f700000000000000000000000000000000000000000000000000000000815260048101829052602401610479565b6003826003811115610bbe57610bbe6110d1565b03610bf8576040517fd78bce0c00000000000000000000000000000000000000000000000000000000815260048101829052602401610479565b5050565b805115610c0c5780518082602001fd5b6040517fd6bda27500000000000000000000000000000000000000000000000000000000815260040160405180910390fd5b600080807f7fffffffffffffffffffffffffffffff5d576e7357a4501ddfe92f46681b20a0841115610c795750600091506003905082610d2e565b604080516000808252602082018084528a905260ff891692820192909252606081018790526080810186905260019060a0016020604051602081039080840390855afa158015610ccd573d6000803e3d6000fd5b50506040517fffffffffffffffffffffffffffffffffffffffffffffffffffffffffffffffe0015191505073ffffffffffffffffffffffffffffffffffffffff8116610d2457506000925060019150829050610d2e565b9250600091508190505b9450945094915050565b803573ffffffffffffffffffffffffffffffffffffffff81168114610d5c57600080fd5b919050565b600080600060608486031215610d7657600080fd5b610d7f84610d38565b9250610d8d60208501610d38565b9150610d9b60408501610d38565b90509250925092565b80358015158114610d5c57600080fd5b60008083601f840112610dc657600080fd5b50813567ffffffffffffffff811115610dde57600080fd5b602083019150836020828501011115610df657600080fd5b9250929050565b600080600080600080600060c0888a031215610e1857600080fd5b610e2188610d38565b9650610e2f60208901610d38565b9550610e3d60408901610d38565b9450610e4b60608901610da4565b9350608088013567ffffffffffffffff811115610e6757600080fd5b610e738a828b01610db4565b9094509250610e86905060a08901610da4565b905092959891949750929550565b600060208284031215610ea657600080fd5b61023f82610d38565b600080600060408486031215610ec457600080fd5b610ecd84610d38565b9250602084013567ffffffffffffffff811115610ee957600080fd5b610ef586828701610db4565b9497909650939450505050565b60008060008060008060808789031215610f1b57600080fd5b863567ffffffffffffffff811115610f3257600080fd5b610f3e89828a01610db4565b9097509550610f51905060208801610da4565b9350610f5f60408801610d38565b9250606087013567ffffffffffffffff811115610f7b57600080fd5b610f8789828a01610db4565b979a9699509497509295939492505050565b600080600060608486031215610fae57600080fd5b610fb784610d38565b9250610fc560208501610d38565b9150610d9b60408501610da4565b8284823760609190911b7fffffffffffffffffffffffffffffffffffffffff000000000000000000000000169101908152601401919050565b83815260406020820152816040820152818360608301376000818301606090810191909152601f9092017fffffffffffffffffffffffffffffffffffffffffffffffffffffffffffffffe016010192915050565b60006020828403121561107257600080fd5b81517fffffffff000000000000000000000000000000000000000000000000000000008116811461023f57600080fd5b6000825160005b818110156110c357602081860181015185830152016110a9565b506000920191825250919050565b7f4e487b7100000000000000000000000000000000000000000000000000000000600052602160045260246000fdfea2646970667358221220179844ac40e4a204b24d8384002a3cbccd70823ee1fcb8e915aec10e1fe5574e64736f6c634300081c0033",
  "devdoc": {
    "details": "This contract should be deployed uniquely per network, in a non-upgradeable way.",
    "errors": {
      "AddressEmptyCode(address)": [
        {
          "details": "There's no code at `target` (it is not a contract)."
        }
      ],
      "ECDSAInvalidSignature()": [
        {
          "details": "The signature derives the `address(0)`."
        }
      ],
      "ECDSAInvalidSignatureLength(uint256)": [
        {
          "details": "The signature has an invalid length."
        }
      ],
      "ECDSAInvalidSignatureS(bytes32)": [
        {
          "details": "The signature has an S value that is in the upper half order."
        }
      ],
      "FailedCall()": [
        {
          "details": "A call to an address target failed. The target may have reverted."
        }
      ],
      "InsufficientBalance(uint256,uint256)": [
        {
          "details": "The ETH balance of the account is not enough to perform the operation."
        }
      ]
    },
    "events": {
      "ForwarderApproval(address,address,address,bool,uint256)": {
        "params": {
          "approved": "True for an approval, false for a disapproval.",
          "forwarder": "The account approved or disapproved as forwarder.",
          "nonce": "The `sender`'s account nonce before the approval change.",
          "sender": "The account for which `forwarder` is approved or disapproved.",
          "target": "The target contract approved or disapproved as forwarder."
        }
      }
    },
    "kind": "dev",
    "methods": {
      "DOMAIN_SEPARATOR()": {
        "returns": {
          "domainSeparator": "The EIP-712 domain separator."
        }
      },
      "approveAndForward(bytes,bool,address,bytes)": {
        "details": "Reverts with {InvalidEIP1271Signature} if `isEIP1271Signature` is true and the signature is reported invalid by the `sender` contract.Reverts with {WrongSigner} if `isEIP1271Signature` is false and `sender` is not the actual signer.Emits a {ForwarderApproval} event.",
        "params": {
          "data": "The content of the call (the `sender` address will be appended to it according to EIP-2771).",
          "isEIP1271Signature": "True if `sender` is a contract that provides authorization via EIP-1271.",
          "signature": "Signature by `sender` for approving the forwarder.",
          "target": "The destination of the call (that will receive the meta-transaction)."
        }
      },
      "forward(address,bytes)": {
        "details": "Reverts with {ForwarderNotApproved} if the caller has not been previously approved as a forwarder by the sender.",
        "params": {
          "data": "The content of the call (the `sender` address will be appended to it according to EIP-2771).",
          "target": "The destination of the call (that will receive the meta-transaction)."
        }
      },
      "getNonce(address,address,address)": {
        "params": {
          "forwarder": "The forwarder account.",
          "sender": "The sender account.",
          "target": "The target contract."
        },
        "returns": {
          "nonce": "The current nonce for the `sender`/`forwarder`/`target` tuple."
        }
      },
      "isApprovedForwarder(address,address,address)": {
        "params": {
          "forwarder": "The forwarder account.",
          "sender": "The sender account.",
          "target": "The target contract."
        },
        "returns": {
          "_0": "True if `forwarder` is an approved meta-transaction forwarder for `sender` to `target`, false otherwise."
        }
      },
      "isTrustedForwarder(address)": {
        "params": {
          "forwarder": "The forwarder to check."
        },
        "returns": {
          "_0": "True if `forwarder` is trusted, false if not."
        }
      },
      "setForwarderApproval(address,address,address,bool,bytes,bool)": {
        "details": "Reverts with {InvalidEIP1271Signature} if `isEIP1271Signature` is true and the signature is reported invalid by the `sender` contract.Reverts with {WrongSigner} if `isEIP1271Signature` is false and `sender` is not the actual signer.Emits a {ForwarderApproval} event.",
        "params": {
          "approved": "Whether to approve or disapprove the forwarder.",
          "forwarder": "The address of the forwarder to change the approval of.",
          "isEIP1271Signature": "True if `sender` is a contract that provides authorization via EIP-1271.",
          "sender": "The address which signed the approval of the approval.",
          "signature": "Signature by `sender` for approving forwarder.",
          "target": "The target contract to change the approval of."
        }
      },
      "setForwarderApproval(address,address,bool)": {
        "details": "Emits a {ForwarderApproval} event.",
        "params": {
          "forwarder": "The address of the forwarder to change the approval of."
        }
      }
    },
    "title": "Meta-Transactions Forwarder Registry.",
    "version": 1
  },
  "userdoc": {
    "events": {
      "ForwarderApproval(address,address,address,bool,uint256)": {
        "notice": "Emitted when a forwarder is approved or disapproved."
      }
    },
    "kind": "user",
    "methods": {
      "DOMAIN_SEPARATOR()": {
        "notice": "Returns the EIP-712 DOMAIN_SEPARATOR."
      },
      "approveAndForward(bytes,bool,address,bytes)": {
        "notice": "Approves the forwarder and forwards the meta-transaction using EIP-2771."
      },
      "forward(address,bytes)": {
        "notice": "Forwards the meta-transaction using EIP-2771."
      },
      "getNonce(address,address,address)": {
        "notice": "Gets the current nonce for the sender/forwarder pair."
      },
      "isApprovedForwarder(address,address,address)": {
        "notice": "Checks whether an account is as an approved meta-transaction forwarder for a sender account to a target contract."
      },
      "isTrustedForwarder(address)": {
        "notice": "Checks whether a forwarder is trusted."
      },
      "setForwarderApproval(address,address,address,bool,bytes,bool)": {
        "notice": "Approves or disapproves a forwarder using a signature."
      },
      "setForwarderApproval(address,address,bool)": {
        "notice": "Approves or disapproves a forwarder for the sender."
      }
    },
    "notice": "Users can allow specific EIP-2771 forwarders to forward meta-transactions on their behalf, per target contract.",
    "version": 1
  },
  "storageLayout": {
    "storage": [
      {
        "astId": 12321,
        "contract": "contracts/metatx/ForwarderRegistry.sol:ForwarderRegistry",
        "label": "_forwarders",
        "offset": 0,
        "slot": "0",
        "type": "t_mapping(t_address,t_mapping(t_address,t_mapping(t_address,t_struct(Forwarder)12287_storage)))"
      }
    ],
    "types": {
      "t_address": {
        "encoding": "inplace",
        "label": "address",
        "numberOfBytes": "20"
      },
      "t_bool": {
        "encoding": "inplace",
        "label": "bool",
        "numberOfBytes": "1"
      },
      "t_mapping(t_address,t_mapping(t_address,t_mapping(t_address,t_struct(Forwarder)12287_storage)))": {
        "encoding": "mapping",
        "key": "t_address",
        "label": "mapping(address => mapping(address => mapping(address => struct ForwarderRegistry.Forwarder)))",
        "numberOfBytes": "32",
        "value": "t_mapping(t_address,t_mapping(t_address,t_struct(Forwarder)12287_storage))"
      },
      "t_mapping(t_address,t_mapping(t_address,t_struct(Forwarder)12287_storage))": {
        "encoding": "mapping",
        "key": "t_address",
        "label": "mapping(address => mapping(address => struct ForwarderRegistry.Forwarder))",
        "numberOfBytes": "32",
        "value": "t_mapping(t_address,t_struct(Forwarder)12287_storage)"
      },
      "t_mapping(t_address,t_struct(Forwarder)12287_storage)": {
        "encoding": "mapping",
        "key": "t_address",
        "label": "mapping(address => struct ForwarderRegistry.Forwarder)",
        "numberOfBytes": "32",
        "value": "t_struct(Forwarder)12287_storage"
      },
      "t_struct(Forwarder)12287_storage": {
        "encoding": "inplace",
        "label": "struct ForwarderRegistry.Forwarder",
        "members": [
          {
            "astId": 12284,
            "contract": "contracts/metatx/ForwarderRegistry.sol:ForwarderRegistry",
            "label": "nonce",
            "offset": 0,
            "slot": "0",
            "type": "t_uint248"
          },
          {
            "astId": 12286,
            "contract": "contracts/metatx/ForwarderRegistry.sol:ForwarderRegistry",
            "label": "approved",
            "offset": 31,
            "slot": "0",
            "type": "t_bool"
          }
        ],
        "numberOfBytes": "32"
      },
      "t_uint248": {
        "encoding": "inplace",
        "label": "uint248",
        "numberOfBytes": "31"
      }
    }
  }
}