{
  "address": "0x20df32A483f68e145a392906890D256315EADcd1",
  "abi": [
    {
      "inputs": [
        {
          "internalType": "contract IForwarderRegistry",
          "name": "forwarderRegistry",
          "type": "address"
        }
      ],
      "stateMutability": "nonpayable",
      "type": "constructor"
    },
    {
      "inputs": [
        {
          "internalType": "address",
          "name": "owner",
          "type": "address"
        },
        {
          "internalType": "address",
          "name": "spender",
          "type": "address"
        },
        {
          "internalType": "uint256",
          "name": "allowance",
          "type": "uint256"
        },
        {
          "internalType": "uint256",
          "name": "increment",
          "type": "uint256"
        }
      ],
      "name": "ERC20AllowanceOverflow",
      "type": "error"
    },
    {
      "inputs": [
        {
          "internalType": "address",
          "name": "owner",
          "type": "address"
        }
      ],
      "name": "ERC20ApprovalToAddressZero",
      "type": "error"
    },
    {
      "inputs": [],
      "name": "ERC20BatchMintValuesOverflow",
      "type": "error"
    },
    {
      "inputs": [],
      "name": "ERC20BatchTransferValuesOverflow",
      "type": "error"
    },
    {
      "inputs": [
        {
          "internalType": "address",
          "name": "owner",
          "type": "address"
        },
        {
          "internalType": "address",
          "name": "spender",
          "type": "address"
        },
        {
          "internalType": "uint256",
          "name": "allowance",
          "type": "uint256"
        },
        {
          "internalType": "uint256",
          "name": "decrement",
          "type": "uint256"
        }
      ],
      "name": "ERC20InsufficientAllowance",
      "type": "error"
    },
    {
      "inputs": [
        {
          "internalType": "address",
          "name": "owner",
          "type": "address"
        },
        {
          "internalType": "uint256",
          "name": "balance",
          "type": "uint256"
        },
        {
          "internalType": "uint256",
          "name": "value",
          "type": "uint256"
        }
      ],
      "name": "ERC20InsufficientBalance",
      "type": "error"
    },
    {
      "inputs": [],
      "name": "ERC20MintToAddressZero",
      "type": "error"
    },
    {
      "inputs": [
        {
          "internalType": "uint256",
          "name": "deadline",
          "type": "uint256"
        }
      ],
      "name": "ERC20PermitExpired",
      "type": "error"
    },
    {
      "inputs": [],
      "name": "ERC20PermitFromAddressZero",
      "type": "error"
    },
    {
      "inputs": [],
      "name": "ERC20PermitInvalidSignature",
      "type": "error"
    },
    {
      "inputs": [
        {
          "internalType": "address",
          "name": "recipient",
          "type": "address"
        }
      ],
      "name": "ERC20SafeTransferRejected",
      "type": "error"
    },
    {
      "inputs": [
        {
          "internalType": "uint256",
          "name": "supply",
          "type": "uint256"
        },
        {
          "internalType": "uint256",
          "name": "value",
          "type": "uint256"
        }
      ],
      "name": "ERC20TotalSupplyOverflow",
      "type": "error"
    },
    {
      "inputs": [
        {
          "internalType": "address",
          "name": "owner",
          "type": "address"
        }
      ],
      "name": "ERC20TransferToAddressZero",
      "type": "error"
    },
    {
      "inputs": [],
      "name": "FailedCall",
      "type": "error"
    },
    {
      "inputs": [],
      "name": "IllegalInterfaceId",
      "type": "error"
    },
    {
      "inputs": [],
      "name": "InconsistentArrayLengths",
      "type": "error"
    },
    {
      "inputs": [
        {
          "internalType": "address",
          "name": "tokenContract",
          "type": "address"
        }
      ],
      "name": "IncorrectTokenContractType",
      "type": "error"
    },
    {
      "inputs": [
        {
          "internalType": "uint256",
          "name": "currentPhase",
          "type": "uint256"
        },
        {
          "internalType": "uint256",
          "name": "newPhase",
          "type": "uint256"
        }
      ],
      "name": "InitializationPhaseAlreadyReached",
      "type": "error"
    },
    {
      "inputs": [
        {
          "internalType": "uint256",
          "name": "balance",
          "type": "uint256"
        },
        {
          "internalType": "uint256",
          "name": "needed",
          "type": "uint256"
        }
      ],
      "name": "InsufficientBalance",
      "type": "error"
    },
    {
      "inputs": [
        {
          "internalType": "address",
          "name": "account",
          "type": "address"
        }
      ],
      "name": "NotContractOwner",
      "type": "error"
    },
    {
      "inputs": [
        {
          "internalType": "bytes32",
          "name": "role",
          "type": "bytes32"
        },
        {
          "internalType": "address",
          "name": "account",
          "type": "address"
        }
      ],
      "name": "NotRoleHolder",
      "type": "error"
    },
    {
      "inputs": [
        {
          "internalType": "address",
          "name": "token",
          "type": "address"
        }
      ],
      "name": "SafeERC20FailedOperation",
      "type": "error"
    },
    {
      "anonymous": false,
      "inputs": [
        {
          "indexed": true,
          "internalType": "address",
          "name": "owner",
          "type": "address"
        },
        {
          "indexed": true,
          "internalType": "address",
          "name": "spender",
          "type": "address"
        },
        {
          "indexed": false,
          "internalType": "uint256",
          "name": "value",
          "type": "uint256"
        }
      ],
      "name": "Approval",
      "type": "event"
    },
    {
      "anonymous": false,
      "inputs": [
        {
          "indexed": true,
          "internalType": "address",
          "name": "previousOwner",
          "type": "address"
        },
        {
          "indexed": true,
          "internalType": "address",
          "name": "newOwner",
          "type": "address"
        }
      ],
      "name": "OwnershipTransferred",
      "type": "event"
    },
    {
      "anonymous": false,
      "inputs": [
        {
          "indexed": false,
          "internalType": "bytes32",
          "name": "role",
          "type": "bytes32"
        },
        {
          "indexed": false,
          "internalType": "address",
          "name": "account",
          "type": "address"
        },
        {
          "indexed": false,
          "internalType": "address",
          "name": "operator",
          "type": "address"
        }
      ],
      "name": "RoleGranted",
      "type": "event"
    },
    {
      "anonymous": false,
      "inputs": [
        {
          "indexed": false,
          "internalType": "bytes32",
          "name": "role",
          "type": "bytes32"
        },
        {
          "indexed": false,
          "internalType": "address",
          "name": "account",
          "type": "address"
        },
        {
          "indexed": false,
          "internalType": "address",
          "name": "operator",
          "type": "address"
        }
      ],
      "name": "RoleRevoked",
      "type": "event"
    },
    {
      "anonymous": false,
      "inputs": [
        {
          "indexed": true,
          "internalType": "address",
          "name": "from",
          "type": "address"
        },
        {
          "indexed": true,
          "internalType": "address",
          "name": "to",
          "type": "address"
        },
        {
          "indexed": false,
          "internalType": "uint256",
          "name": "value",
          "type": "uint256"
        }
      ],
      "name": "Transfer",
      "type": "event"
    },
    {
      "inputs": [],
      "name": "DOMAIN_SEPARATOR",
      "outputs": [
        {
          "internalType": "bytes32",
          "name": "",
          "type": "bytes32"
        }
      ],
      "stateMutability": "view",
      "type": "function"
    },
    {
      "inputs": [],
      "name": "MINTER_ROLE",
      "outputs": [
        {
          "internalType": "bytes32",
          "name": "",
          "type": "bytes32"
        }
      ],
      "stateMutability": "view",
      "type": "function"
    },
    {
      "inputs": [
        {
          "internalType": "address",
          "name": "owner",
          "type": "address"
        },
        {
          "internalType": "address",
          "name": "spender",
          "type": "address"
        }
      ],
      "name": "allowance",
      "outputs": [
        {
          "internalType": "uint256",
          "name": "value",
          "type": "uint256"
        }
      ],
      "stateMutability": "view",
      "type": "function"
    },
    {
      "inputs": [
        {
          "internalType": "address",
          "name": "spender",
          "type": "address"
        },
        {
          "internalType": "uint256",
          "name": "value",
          "type": "uint256"
        }
      ],
      "name": "approve",
      "outputs": [
        {
          "internalType": "bool",
          "name": "result",
          "type": "bool"
        }
      ],
      "stateMutability": "nonpayable",
      "type": "function"
    },
    {
      "inputs": [
        {
          "internalType": "address",
          "name": "owner",
          "type": "address"
        }
      ],
      "name": "balanceOf",
      "outputs": [
        {
          "internalType": "uint256",
          "name": "balance",
          "type": "uint256"
        }
      ],
      "stateMutability": "view",
      "type": "function"
    },
    {
      "inputs": [
        {
          "internalType": "address[]",
          "name": "owners",
          "type": "address[]"
        },
        {
          "internalType": "uint256[]",
          "name": "values",
          "type": "uint256[]"
        }
      ],
      "name": "batchBurnFrom",
      "outputs": [
        {
          "internalType": "bool",
          "name": "",
          "type": "bool"
        }
      ],
      "stateMutability": "nonpayable",
      "type": "function"
    },
    {
      "inputs": [
        {
          "internalType": "address[]",
          "name": "recipients",
          "type": "address[]"
        },
        {
          "internalType": "uint256[]",
          "name": "values",
          "type": "uint256[]"
        }
      ],
      "name": "batchMint",
      "outputs": [],
      "stateMutability": "nonpayable",
      "type": "function"
    },
    {
      "inputs": [
        {
          "internalType": "address[]",
          "name": "recipients",
          "type": "address[]"
        },
        {
          "internalType": "uint256[]",
          "name": "values",
          "type": "uint256[]"
        }
      ],
      "name": "batchTransfer",
      "outputs": [
        {
          "internalType": "bool",
          "name": "",
          "type": "bool"
        }
      ],
      "stateMutability": "nonpayable",
      "type": "function"
    },
    {
      "inputs": [
        {
          "internalType": "address",
          "name": "from",
          "type": "address"
        },
        {
          "internalType": "address[]",
          "name": "recipients",
          "type": "address[]"
        },
        {
          "internalType": "uint256[]",
          "name": "values",
          "type": "uint256[]"
        }
      ],
      "name": "batchTransferFrom",
      "outputs": [
        {
          "internalType": "bool",
          "name": "",
          "type": "bool"
        }
      ],
      "stateMutability": "nonpayable",
      "type": "function"
    },
    {
      "inputs": [
        {
          "internalType": "uint256",
          "name": "value",
          "type": "uint256"
        }
      ],
      "name": "burn",
      "outputs": [
        {
          "internalType": "bool",
          "name": "",
          "type": "bool"
        }
      ],
      "stateMutability": "nonpayable",
      "type": "function"
    },
    {
      "inputs": [
        {
          "internalType": "address",
          "name": "from",
          "type": "address"
        },
        {
          "internalType": "uint256",
          "name": "value",
          "type": "uint256"
        }
      ],
      "name": "burnFrom",
      "outputs": [
        {
          "internalType": "bool",
          "name": "",
          "type": "bool"
        }
      ],
      "stateMutability": "nonpayable",
      "type": "function"
    },
    {
      "inputs": [],
      "name": "decimals",
      "outputs": [
        {
          "internalType": "uint8",
          "name": "",
          "type": "uint8"
        }
      ],
      "stateMutability": "view",
      "type": "function"
    },
    {
      "inputs": [
        {
          "internalType": "address",
          "name": "spender",
          "type": "address"
        },
        {
          "internalType": "uint256",
          "name": "subtractedValue",
          "type": "uint256"
        }
      ],
      "name": "decreaseAllowance",
      "outputs": [
        {
          "internalType": "bool",
          "name": "result",
          "type": "bool"
        }
      ],
      "stateMutability": "nonpayable",
      "type": "function"
    },
    {
      "inputs": [],
      "name": "forwarderRegistry",
      "outputs": [
        {
          "internalType": "contract IForwarderRegistry",
          "name": "",
          "type": "address"
        }
      ],
      "stateMutability": "view",
      "type": "function"
    },
    {
      "inputs": [
        {
          "internalType": "bytes32",
          "name": "role",
          "type": "bytes32"
        },
        {
          "internalType": "address",
          "name": "account",
          "type": "address"
        }
      ],
      "name": "grantRole",
      "outputs": [],
      "stateMutability": "nonpayable",
      "type": "function"
    },
    {
      "inputs": [
        {
          "internalType": "bytes32",
          "name": "role",
          "type": "bytes32"
        },
        {
          "internalType": "address",
          "name": "account",
          "type": "address"
        }
      ],
      "name": "hasRole",
      "outputs": [
        {
          "internalType": "bool",
          "name": "hasRole_",
          "type": "bool"
        }
      ],
      "stateMutability": "view",
      "type": "function"
    },
    {
      "inputs": [
        {
          "internalType": "address",
          "name": "spender",
          "type": "address"
        },
        {
          "internalType": "uint256",
          "name": "addedValue",
          "type": "uint256"
        }
      ],
      "name": "increaseAllowance",
      "outputs": [
        {
          "internalType": "bool",
          "name": "result",
          "type": "bool"
        }
      ],
      "stateMutability": "nonpayable",
      "type": "function"
    },
    {
      "inputs": [
        {
          "internalType": "string",
          "name": "tokenName",
          "type": "string"
        },
        {
          "internalType": "string",
          "name": "tokenSymbol",
          "type": "string"
        },
        {
          "internalType": "uint8",
          "name": "tokenDecimals",
          "type": "uint8"
        }
      ],
      "name": "init",
      "outputs": [],
      "stateMutability": "nonpayable",
      "type": "function"
    },
    {
      "inputs": [
        {
          "internalType": "address",
          "name": "forwarder",
          "type": "address"
        }
      ],
      "name": "isTrustedForwarder",
      "outputs": [
        {
          "internalType": "bool",
          "name": "",
          "type": "bool"
        }
      ],
      "stateMutability": "view",
      "type": "function"
    },
    {
      "inputs": [
        {
          "internalType": "address",
          "name": "to",
          "type": "address"
        },
        {
          "internalType": "uint256",
          "name": "value",
          "type": "uint256"
        }
      ],
      "name": "mint",
      "outputs": [],
      "stateMutability": "nonpayable",
      "type": "function"
    },
    {
      "inputs": [],
      "name": "name",
      "outputs": [
        {
          "internalType": "string",
          "name": "",
          "type": "string"
        }
      ],
      "stateMutability": "view",
      "type": "function"
    },
    {
      "inputs": [
        {
          "internalType": "address",
          "name": "owner",
          "type": "address"
        }
      ],
      "name": "nonces",
      "outputs": [
        {
          "internalType": "uint256",
          "name": "",
          "type": "uint256"
        }
      ],
      "stateMutability": "view",
      "type": "function"
    },
    {
      "inputs": [],
      "name": "owner",
      "outputs": [
        {
          "internalType": "address",
          "name": "",
          "type": "address"
        }
      ],
      "stateMutability": "view",
      "type": "function"
    },
    {
      "inputs": [
        {
          "internalType": "address",
          "name": "owner",
          "type": "address"
        },
        {
          "internalType": "address",
          "name": "spender",
          "type": "address"
        },
        {
          "internalType": "uint256",
          "name": "value",
          "type": "uint256"
        },
        {
          "internalType": "uint256",
          "name": "deadline",
          "type": "uint256"
        },
        {
          "internalType": "uint8",
          "name": "v",
          "type": "uint8"
        },
        {
          "internalType": "bytes32",
          "name": "r",
          "type": "bytes32"
        },
        {
          "internalType": "bytes32",
          "name": "s",
          "type": "bytes32"
        }
      ],
      "name": "permit",
      "outputs": [],
      "stateMutability": "nonpayable",
      "type": "function"
    },
    {
      "inputs": [
        {
          "internalType": "address[]",
          "name": "accounts",
          "type": "address[]"
        },
        {
          "internalType": "contract IERC20[]",
          "name": "tokens",
          "type": "address[]"
        },
        {
          "internalType": "uint256[]",
          "name": "amounts",
          "type": "uint256[]"
        }
      ],
      "name": "recoverERC20s",
      "outputs": [],
      "stateMutability": "nonpayable",
      "type": "function"
    },
    {
      "inputs": [
        {
          "internalType": "address[]",
          "name": "accounts",
          "type": "address[]"
        },
        {
          "internalType": "contract IERC721[]",
          "name": "contracts",
          "type": "address[]"
        },
        {
          "internalType": "uint256[]",
          "name": "tokenIds",
          "type": "uint256[]"
        }
      ],
      "name": "recoverERC721s",
      "outputs": [],
      "stateMutability": "nonpayable",
      "type": "function"
    },
    {
      "inputs": [
        {
          "internalType": "address payable[]",
          "name": "accounts",
          "type": "address[]"
        },
        {
          "internalType": "uint256[]",
          "name": "amounts",
          "type": "uint256[]"
        }
      ],
      "name": "recoverETH",
      "outputs": [],
      "stateMutability": "nonpayable",
      "type": "function"
    },
    {
      "inputs": [
        {
          "internalType": "bytes32",
          "name": "role",
          "type": "bytes32"
        }
      ],
      "name": "renounceRole",
      "outputs": [],
      "stateMutability": "nonpayable",
      "type": "function"
    },
    {
      "inputs": [
        {
          "internalType": "bytes32",
          "name": "role",
          "type": "bytes32"
        },
        {
          "internalType": "address",
          "name": "account",
          "type": "address"
        }
      ],
      "name": "revokeRole",
      "outputs": [],
      "stateMutability": "nonpayable",
      "type": "function"
    },
    {
      "inputs": [
        {
          "internalType": "address",
          "name": "to",
          "type": "address"
        },
        {
          "internalType": "uint256",
          "name": "value",
          "type": "uint256"
        },
        {
          "internalType": "bytes",
          "name": "data",
          "type": "bytes"
        }
      ],
      "name": "safeTransfer",
      "outputs": [
        {
          "internalType": "bool",
          "name": "",
          "type": "bool"
        }
      ],
      "stateMutability": "nonpayable",
      "type": "function"
    },
    {
      "inputs": [
        {
          "internalType": "address",
          "name": "from",
          "type": "address"
        },
        {
          "internalType": "address",
          "name": "to",
          "type": "address"
        },
        {
          "internalType": "uint256",
          "name": "value",
          "type": "uint256"
        },
        {
          "internalType": "bytes",
          "name": "data",
          "type": "bytes"
        }
      ],
      "name": "safeTransferFrom",
      "outputs": [
        {
          "internalType": "bool",
          "name": "",
          "type": "bool"
        }
      ],
      "stateMutability": "nonpayable",
      "type": "function"
    },
    {
      "inputs": [
        {
          "internalType": "string",
          "name": "uri",
          "type": "string"
        }
      ],
      "name": "setTokenURI",
      "outputs": [],
      "stateMutability": "nonpayable",
      "type": "function"
    },
    {
      "inputs": [
        {
          "internalType": "bytes4",
          "name": "interfaceId",
          "type": "bytes4"
        }
      ],
      "name": "supportsInterface",
      "outputs": [
        {
          "internalType": "bool",
          "name": "",
          "type": "bool"
        }
      ],
      "stateMutability": "view",
      "type": "function"
    },
    {
      "inputs": [],
      "name": "symbol",
      "outputs": [
        {
          "internalType": "string",
          "name": "",
          "type": "string"
        }
      ],
      "stateMutability": "view",
      "type": "function"
    },
    {
      "inputs": [],
      "name": "tokenURI",
      "outputs": [
        {
          "internalType": "string",
          "name": "",
          "type": "string"
        }
      ],
      "stateMutability": "view",
      "type": "function"
    },
    {
      "inputs": [],
      "name": "totalSupply",
      "outputs": [
        {
          "internalType": "uint256",
          "name": "supply",
          "type": "uint256"
        }
      ],
      "stateMutability": "view",
      "type": "function"
    },
    {
      "inputs": [
        {
          "internalType": "address",
          "name": "to",
          "type": "address"
        },
        {
          "internalType": "uint256",
          "name": "value",
          "type": "uint256"
        }
      ],
      "name": "transfer",
      "outputs": [
        {
          "internalType": "bool",
          "name": "result",
          "type": "bool"
        }
      ],
      "stateMutability": "nonpayable",
      "type": "function"
    },
    {
      "inputs": [
        {
          "internalType": "address",
          "name": "from",
          "type": "address"
        },
        {
          "internalType": "address",
          "name": "to",
          "type": "address"
        },
        {
          "internalType": "uint256",
          "name": "value",
          "type": "uint256"
        }
      ],
      "name": "transferFrom",
      "outputs": [
        {
          "internalType": "bool",
          "name": "result",
          "type": "bool"
        }
      ],
      "stateMutability": "nonpayable",
      "type": "function"
    },
    {
      "inputs": [
        {
          "internalType": "address",
          "name": "newOwner",
          "type": "address"
        }
      ],
      "name": "transferOwnership",
      "outputs": [],
      "stateMutability": "nonpayable",
      "type": "function"
    }
  ],
  "transactionHash": "0x6b5e3adf5c2a5814d17e214aa292c86ec546b23f2f4209671af982271ae14e13",
  "args": [
    "0x316a472D084489CB6d4C66e5eB62aE3AdA17521e"
  ],
  "numDeployments": 1,
  "solcInputHash": "84bab0eb3356c2e3bedca0f2f5a163c5",
  "bytecode": "0x60a060405234801561001057600080fd5b5060405161416938038061416983398101604081905261002f91610040565b6001600160a01b0316608052610070565b60006020828403121561005257600080fd5b81516001600160a01b038116811461006957600080fd5b9392505050565b6080516140c96100a060003960008181610340015281816104200152818161317d015261320b01526140c96000f3fe608060405234801561001057600080fd5b50600436106102ad5760003560e01c806379cc67901161017b578063c3666c36116100d8578063e0df5b6f1161008c578063f2fde38b11610071578063f2fde38b146105d7578063f57b0182146105ea578063f7ba94bd146105fd57600080fd5b8063e0df5b6f146105b1578063eb795549146105c457600080fd5b8063d5391393116100bd578063d539139314610564578063d547741f1461058b578063dd62ed3e1461059e57600080fd5b8063c3666c361461053e578063d505accf1461055157600080fd5b806391d148541161012f578063a457c2d711610114578063a457c2d714610505578063a9059cbb14610518578063b88d4fde1461052b57600080fd5b806391d14854146104ea57806395d89b41146104fd57600080fd5b806388d695b21161016057806388d695b2146104bc5780638bb9c5bf146104cf5780638da5cb5b146104e257600080fd5b806379cc6790146104965780637ecebe00146104a957600080fd5b80633644e515116102295780634885b254116101dd57806368573107116101c2578063685731071461045d57806370a082311461047057806373c8a9581461048357600080fd5b80634885b254146103fd578063572b6c051461041057600080fd5b80633c130d901161020e5780633c130d90146103cf57806340c10f19146103d757806342966c68146103ea57600080fd5b80633644e515146103b457806339509351146103bc57600080fd5b80631b9a7529116102805780632b4c9f16116102655780632b4c9f161461033e5780632f2ff15d14610385578063313ce5671461039a57600080fd5b80631b9a75291461031857806323b872dd1461032b57600080fd5b806301ffc9a7146102b257806306fdde03146102da578063095ea7b3146102ef57806318160ddd14610302575b600080fd5b6102c56102c03660046137ca565b610610565b60405190151581526020015b60405180910390f35b6102e261062a565b6040516102d1919061384b565b6102c56102fd366004613880565b610641565b61030a610669565b6040519081526020016102d1565b6102c56103263660046138f8565b61067d565b6102c5610339366004613969565b6106ab565b7f00000000000000000000000000000000000000000000000000000000000000005b60405173ffffffffffffffffffffffffffffffffffffffff90911681526020016102d1565b6103986103933660046139aa565b6106d6565b005b6103a261070f565b60405160ff90911681526020016102d1565b61030a610726565b6102c56103ca366004613880565b610730565b6102e261074f565b6103986103e5366004613880565b61075c565b6102c56103f83660046139da565b6107af565b6102c561040b3660046139f3565b6107d4565b6102c561041e366004613a7b565b7f000000000000000000000000000000000000000000000000000000000000000073ffffffffffffffffffffffffffffffffffffffff90811691161490565b61039861046b3660046138f8565b610805565b61030a61047e366004613a7b565b6108af565b610398610491366004613a98565b6108e7565b6102c56104a4366004613880565b610910565b61030a6104b7366004613a7b565b61092f565b6102c56104ca3660046138f8565b61093d565b6103986104dd3660046139da565b610960565b61036061097e565b6102c56104f83660046139aa565b6109a5565b6102e26109f0565b6102c5610513366004613880565b610a02565b6102c5610526366004613880565b610a21565b6102c5610539366004613b80565b610a40565b61039861054c366004613a98565b610a65565b61039861055f366004613bf8565b610a7e565b61030a7f6d696e746572000000000000000000000000000000000000000000000000000081565b6103986105993660046139aa565b610aa5565b61030a6105ac366004613c67565b610ad3565b6103986105bf366004613c95565b610b1e565b6102c56105d2366004613cd7565b610b3d565b6103986105e5366004613a7b565b610b60565b6103986105f8366004613d27565b610b7b565b61039861060b3660046138f8565b610bed565b60006106248261061e610c04565b90610c32565b92915050565b606061063c610637610d0c565b610d3a565b905090565b600061066061064e610dd0565b8484610658610dda565b929190610e08565b50600192915050565b600061063c610676610dda565b6002015490565b60006106a061068a610dd0565b86868686610696610dda565b9493929190610ee4565b506001949350505050565b60006106cc6106b8610dd0565b8585856106c3610dda565b939291906110ee565b5060019392505050565b60006106e0610dd0565b90506106f4816106ee611139565b90611167565b61070a8383836107026111d2565b929190611200565b505050565b600061063c61071c610d0c565b6002015460ff1690565b600061063c6112d6565b600061066061073d610dd0565b8484610747610dda565b929190611371565b606061063c610637611523565b6107977f6d696e7465720000000000000000000000000000000000000000000000000000610788610dd0565b6107906111d2565b9190611551565b6107ab82826107a4610dda565b91906115d7565b5050565b60006107cc6107bc610dd0565b836107c5610dda565b91906116fb565b506001919050565b60006107f96107e1610dd0565b87878787876107ee610dda565b959493929190611807565b50600195945050505050565b6108317f6d696e7465720000000000000000000000000000000000000000000000000000610788610dd0565b6108a9848480806020026020016040519081016040528093929190818152602001838360200280828437600092019190915250506040805160208088028281018201909352878252909350879250869182918501908490808284376000920191909152506108a29250610dda915050565b9190611be1565b50505050565b6000610624826108bd610dda565b9073ffffffffffffffffffffffffffffffffffffffff166000908152602091909152604090205490565b6108fa6108f2610dd0565b6106ee611139565b610908868686868686611e02565b505050505050565b600061066061091d610dd0565b8484610927610dda565b929190611ee3565b6000610624826108bd611f2d565b60006106a061094a610dd0565b86868686610956610dda565b9493929190611f5b565b61097b61096b610dd0565b826109746111d2565b91906122b2565b50565b600061063c61098b611139565b5473ffffffffffffffffffffffffffffffffffffffff1690565b60006109e983836109b46111d2565b60009283526020908152604080842073ffffffffffffffffffffffffffffffffffffffff909316845291905290205460ff1690565b9392505050565b606061063c6109fd610d0c565b612356565b6000610660610a0f610dd0565b8484610a19610dda565b929190612367565b6000610660610a2e610dd0565b8484610a38610dda565b92919061249f565b60006107f9610a4d610dd0565b8787878787610a5a610dda565b95949392919061265e565b610a706108f2610dd0565b6109088686868686866126cb565b610a9c87878787878787610a90611f2d565b96959493929190612961565b50505050505050565b6000610aaf610dd0565b9050610abd816106ee611139565b61070a838383610acb6111d2565b929190612bd0565b60006109e98383610ae2610dda565b919073ffffffffffffffffffffffffffffffffffffffff9182166000908152600193909301602090815260408085209290931684525290205490565b610b296108f2610dd0565b6107ab8282610b36611523565b9190612c9a565b60006106a0610b4a610dd0565b86868686610b56610dda565b9493929190612ca6565b61097b610b6b610dd0565b82610b74611139565b9190612d12565b610b94610b86610dd0565b610b8e611139565b90612e26565b610b9c612e65565b610ba4612ec9565b610bac612f00565b610bb4612f2e565b610bbc612f5c565b610bd68585858585610bcc610d0c565b9493929190612f8a565b610bde613032565b610be6613060565b5050505050565b610bf86108f2610dd0565b6108a98484848461308e565b60008061062460017fca9d3e17f264b0f3984e2634e94adb37fa3e6a8103f06aeae6fa59e21c769f5e613dad565b60007c01000000000000000000000000000000000000000000000000000000007fffffffff00000000000000000000000000000000000000000000000000000000831601610c8257506000610624565b7ffe003659000000000000000000000000000000000000000000000000000000007fffffffff00000000000000000000000000000000000000000000000000000000831601610cd357506001610624565b507fffffffff00000000000000000000000000000000000000000000000000000000166000908152602091909152604090205460ff1690565b60008061062460017f335df4119bbb04f056b33eba33b826d3529129e458faf6daa9924b5a8f3b6a82613dad565b6060816000018054610d4b90613de7565b80601f0160208091040260200160405190810160405280929190818152602001828054610d7790613de7565b8015610dc45780601f10610d9957610100808354040283529160200191610dc4565b820191906000526020600020905b815481529060010190602001808311610da757829003601f168201915b50505050509050919050565b600061063c61313a565b60008061062460017f1da92899d3da68bf9787824388a37ea2bfa79780bcef91b9716c390eec8ecbef613dad565b73ffffffffffffffffffffffffffffffffffffffff8216610e72576040517ff7e1ac0f00000000000000000000000000000000000000000000000000000000815273ffffffffffffffffffffffffffffffffffffffff841660048201526024015b60405180910390fd5b73ffffffffffffffffffffffffffffffffffffffff838116600081815260018701602090815260408083209487168084529482529182902085905590518481527f8c5be1e5ebec7d5bd14f71427d1e84f3dd0314c0f7b2291e5b200ac8c7c3b92591015b60405180910390a350505050565b82818114610f1e576040517f6582533600000000000000000000000000000000000000000000000000000000815260040160405180910390fd5b80600003610f2c5750610908565b6000805b828110156110d1576000878783818110610f4c57610f4c613e3a565b9050602002016020810190610f619190613a7b565b90506000868684818110610f7757610f77613e3a565b9050602002013590508973ffffffffffffffffffffffffffffffffffffffff168273ffffffffffffffffffffffffffffffffffffffff1614610fbf57610fbf8b838c84612367565b80156110795773ffffffffffffffffffffffffffffffffffffffff8216600090815260208c9052604090205481810381811061104d576040517fe450d38c00000000000000000000000000000000000000000000000000000000815273ffffffffffffffffffffffffffffffffffffffff851660048201526024810183905260448101849052606401610e69565b73ffffffffffffffffffffffffffffffffffffffff8416600090815260208e9052604090205550928301925b60405181815260009073ffffffffffffffffffffffffffffffffffffffff8416907fddf252ad1be2c89b69c2b068fc378daa952ba7f163c4a11628f55a4df523b3ef9060200160405180910390a35050600101610f30565b5080156110e45760028801805482900390555b5050505050505050565b8373ffffffffffffffffffffffffffffffffffffffff168373ffffffffffffffffffffffffffffffffffffffff161461112d5761112d85848684612367565b610be68584848461249f565b60008061062460017fc9ed16f33ab3a66c84bfd83099ccb2a8845871e2e1c1928f63797152f0fd54cd613dad565b815473ffffffffffffffffffffffffffffffffffffffff8281169116146107ab576040517f2ef4875e00000000000000000000000000000000000000000000000000000000815273ffffffffffffffffffffffffffffffffffffffff82166004820152602401610e69565b60008061062460017fc8827d3282af6f37b64c3e9e6f3ac9df286ab0bb0fccd6f8661bf19adb368b23613dad565b60008381526020858152604080832073ffffffffffffffffffffffffffffffffffffffff8616845290915290205460ff166108a95760008381526020858152604080832073ffffffffffffffffffffffffffffffffffffffff8681168086529184529382902080547fffffffffffffffffffffffffffffffffffffffffffffffffffffffffffffff00166001179055815187815292830152918316918101919091527f2f8788117e7eff1d82e926ec794901d17c78024a50270940304540a733656f0d906060015b60405180910390a150505050565b6000467f8b73c3c69bb8fe3d512ecc4cf759cc79239f7b179b0ffacaa9a75d522b39400f611305610637610d0c565b80516020918201206040805192830193909352918101919091527fc89efdaa54c0f20c7adf612882df0950f5a951637e0307cdcb4c672f298b8bc66060820152608081018290523060a082015260c0016040516020818303038152906040528051906020012091505090565b73ffffffffffffffffffffffffffffffffffffffff82166113d6576040517ff7e1ac0f00000000000000000000000000000000000000000000000000000000815273ffffffffffffffffffffffffffffffffffffffff84166004820152602401610e69565b73ffffffffffffffffffffffffffffffffffffffff808416600090815260018601602090815260408083209386168352929052205481156114b55780820181811161147b576040517f93bc2ff100000000000000000000000000000000000000000000000000000000815273ffffffffffffffffffffffffffffffffffffffff8087166004830152851660248201526044810183905260648101849052608401610e69565b73ffffffffffffffffffffffffffffffffffffffff8086166000908152600188016020908152604080832093881683529290522081905590505b8273ffffffffffffffffffffffffffffffffffffffff168473ffffffffffffffffffffffffffffffffffffffff167f8c5be1e5ebec7d5bd14f71427d1e84f3dd0314c0f7b2291e5b200ac8c7c3b9258360405161151491815260200190565b60405180910390a35050505050565b60008061062460017ff41bf6a5db26bffdfab174dcf66b31fbba8fdb7e3db040721ce1e62d61839ceb613dad565b60008281526020848152604080832073ffffffffffffffffffffffffffffffffffffffff8516845290915290205460ff1661070a576040517f7aa728820000000000000000000000000000000000000000000000000000000081526004810183905273ffffffffffffffffffffffffffffffffffffffff82166024820152604401610e69565b73ffffffffffffffffffffffffffffffffffffffff8216611624576040517f92fd9c8f00000000000000000000000000000000000000000000000000000000815260040160405180910390fd5b80156116a7576002830154818101818111611675576040517f0366a5f60000000000000000000000000000000000000000000000000000000081526004810183905260248101849052604401610e69565b60028501555073ffffffffffffffffffffffffffffffffffffffff821660009081526020849052604090208054820190555b60405181815273ffffffffffffffffffffffffffffffffffffffff8316906000907fddf252ad1be2c89b69c2b068fc378daa952ba7f163c4a11628f55a4df523b3ef906020015b60405180910390a3505050565b80156117bc5773ffffffffffffffffffffffffffffffffffffffff8216600090815260208490526040902054818103818110611789576040517fe450d38c00000000000000000000000000000000000000000000000000000000815273ffffffffffffffffffffffffffffffffffffffff851660048201526024810183905260448101849052606401610e69565b73ffffffffffffffffffffffffffffffffffffffff84166000908152602086905260409020555060028301805482900390555b60405181815260009073ffffffffffffffffffffffffffffffffffffffff8416907fddf252ad1be2c89b69c2b068fc378daa952ba7f163c4a11628f55a4df523b3ef906020016116ee565b82818114611841576040517f6582533600000000000000000000000000000000000000000000000000000000815260040160405180910390fd5b8060000361184f5750610a9c565b73ffffffffffffffffffffffffffffffffffffffff86166000908152602089905260408120549080805b84811015611b9457600089898381811061189557611895613e3a565b90506020020160208101906118aa9190613a7b565b905073ffffffffffffffffffffffffffffffffffffffff8116611911576040517f754f425b00000000000000000000000000000000000000000000000000000000815273ffffffffffffffffffffffffffffffffffffffff8c166004820152602401610e69565b600088888481811061192557611925613e3a565b90506020020135905080600014611a6357848101858111611972576040517fdedd834100000000000000000000000000000000000000000000000000000000815260040160405180910390fd5b8095508273ffffffffffffffffffffffffffffffffffffffff168d73ffffffffffffffffffffffffffffffffffffffff16146119fc57818f60000160008573ffffffffffffffffffffffffffffffffffffffff1673ffffffffffffffffffffffffffffffffffffffff16815260200190815260200160002060008282540192505081905550611a61565b86821115611a5c576040517fe450d38c00000000000000000000000000000000000000000000000000000000815273ffffffffffffffffffffffffffffffffffffffff8e1660048201526024810188905260448101839052606401610e69565b938101935b505b8173ffffffffffffffffffffffffffffffffffffffff168c73ffffffffffffffffffffffffffffffffffffffff167fddf252ad1be2c89b69c2b068fc378daa952ba7f163c4a11628f55a4df523b3ef83604051611ac291815260200190565b60405180910390a38415801590611ad95750838514155b15611b8a57848603868110611b40576040517fe450d38c00000000000000000000000000000000000000000000000000000000815273ffffffffffffffffffffffffffffffffffffffff8e1660048201526024810188905260448101879052606401610e69565b8481018f60000160008f73ffffffffffffffffffffffffffffffffffffffff1673ffffffffffffffffffffffffffffffffffffffff16815260200190815260200160002081905550505b5050600101611879565b508973ffffffffffffffffffffffffffffffffffffffff168973ffffffffffffffffffffffffffffffffffffffff1614611bd457611bd48b8a8c85612367565b5050505050505050505050565b815181518114611c1d576040517f6582533600000000000000000000000000000000000000000000000000000000815260040160405180910390fd5b80600003611c2b5750505050565b6000805b82811015611da3576000858281518110611c4b57611c4b613e3a565b60200260200101519050600073ffffffffffffffffffffffffffffffffffffffff168173ffffffffffffffffffffffffffffffffffffffff1603611cbb576040517f92fd9c8f00000000000000000000000000000000000000000000000000000000815260040160405180910390fd5b6000858381518110611ccf57611ccf613e3a565b6020026020010151905080600014611d4b57838101848111611d1d576040517f5542ae7c00000000000000000000000000000000000000000000000000000000815260040160405180910390fd5b73ffffffffffffffffffffffffffffffffffffffff8316600090815260208a90526040902080548301905593505b60405181815273ffffffffffffffffffffffffffffffffffffffff8316906000907fddf252ad1be2c89b69c2b068fc378daa952ba7f163c4a11628f55a4df523b3ef9060200160405180910390a35050600101611c2f565b508015610be6576002850154818101818111611df5576040517f0366a5f60000000000000000000000000000000000000000000000000000000081526004810183905260248101849052604401610e69565b6002870155505050505050565b848381141580611e125750808214155b15611e49576040517f6582533600000000000000000000000000000000000000000000000000000000815260040160405180910390fd5b60005b818110156110e457611edb888883818110611e6957611e69613e3a565b9050602002016020810190611e7e9190613a7b565b858584818110611e9057611e90613e3a565b90506020020135888885818110611ea957611ea9613e3a565b9050602002016020810190611ebe9190613a7b565b73ffffffffffffffffffffffffffffffffffffffff169190613287565b600101611e4c565b8273ffffffffffffffffffffffffffffffffffffffff168273ffffffffffffffffffffffffffffffffffffffff1614611f2257611f2284838584612367565b6108a98483836116fb565b60008061062460017f93fe0ff7226b064a4a8f0b09910762afb4bc2441835792c021ffd78cd513011e613dad565b82818114611f95576040517f6582533600000000000000000000000000000000000000000000000000000000815260040160405180910390fd5b80600003611fa35750610908565b73ffffffffffffffffffffffffffffffffffffffff86166000908152602088905260408120549080805b84811015612204576000898983818110611fe957611fe9613e3a565b9050602002016020810190611ffe9190613a7b565b905073ffffffffffffffffffffffffffffffffffffffff8116612065576040517f754f425b00000000000000000000000000000000000000000000000000000000815273ffffffffffffffffffffffffffffffffffffffff8c166004820152602401610e69565b600088888481811061207957612079613e3a565b90506020020135905080600014612193578481018581116120c6576040517fdedd834100000000000000000000000000000000000000000000000000000000815260040160405180910390fd5b8095508273ffffffffffffffffffffffffffffffffffffffff168d73ffffffffffffffffffffffffffffffffffffffff161461212c5773ffffffffffffffffffffffffffffffffffffffff8316600090815260208f905260409020805483019055612191565b8682111561218c576040517fe450d38c00000000000000000000000000000000000000000000000000000000815273ffffffffffffffffffffffffffffffffffffffff8e1660048201526024810188905260448101839052606401610e69565b938101935b505b8173ffffffffffffffffffffffffffffffffffffffff168c73ffffffffffffffffffffffffffffffffffffffff167fddf252ad1be2c89b69c2b068fc378daa952ba7f163c4a11628f55a4df523b3ef836040516121f291815260200190565b60405180910390a35050600101611fcd565b5081158015906122145750808214155b156122a65781830383811061227b576040517fe450d38c00000000000000000000000000000000000000000000000000000000815273ffffffffffffffffffffffffffffffffffffffff8b1660048201526024810185905260448101849052606401610e69565b73ffffffffffffffffffffffffffffffffffffffff8a16600090815260208c90526040902090820190555b50505050505050505050565b6122bd838284611551565b60008181526020848152604080832073ffffffffffffffffffffffffffffffffffffffff86168085529083529281902080547fffffffffffffffffffffffffffffffffffffffffffffffffffffffffffffff0016905580518481529182018390528101919091527ff6391f5c32d9c69d2a47ea670b442974b53935d1edc7fd64eb21e047a839171b9060600160405180910390a1505050565b6060816001018054610d4b90613de7565b73ffffffffffffffffffffffffffffffffffffffff82166123cc576040517ff7e1ac0f00000000000000000000000000000000000000000000000000000000815273ffffffffffffffffffffffffffffffffffffffff84166004820152602401610e69565b73ffffffffffffffffffffffffffffffffffffffff80841660009081526001860160209081526040808320938616835292905220547fffffffffffffffffffffffffffffffffffffffffffffffffffffffffffffffff811480159061243057508115155b156114b55781810381811061147b576040517f137ad6ab00000000000000000000000000000000000000000000000000000000815273ffffffffffffffffffffffffffffffffffffffff8087166004830152851660248201526044810183905260648101849052608401610e69565b73ffffffffffffffffffffffffffffffffffffffff8216612504576040517f754f425b00000000000000000000000000000000000000000000000000000000815273ffffffffffffffffffffffffffffffffffffffff84166004820152602401610e69565b80156125ff5773ffffffffffffffffffffffffffffffffffffffff8316600090815260208590526040902054818103818110612592576040517fe450d38c00000000000000000000000000000000000000000000000000000000815273ffffffffffffffffffffffffffffffffffffffff861660048201526024810183905260448101849052606401610e69565b8373ffffffffffffffffffffffffffffffffffffffff168573ffffffffffffffffffffffffffffffffffffffff16146125fc5773ffffffffffffffffffffffffffffffffffffffff8086166000908152602088905260408082208490559186168152208054840190555b50505b8173ffffffffffffffffffffffffffffffffffffffff168373ffffffffffffffffffffffffffffffffffffffff167fddf252ad1be2c89b69c2b068fc378daa952ba7f163c4a11628f55a4df523b3ef83604051610ed691815260200190565b61266b87878787876110ee565b73ffffffffffffffffffffffffffffffffffffffff84163b15610a9c57610a9c8686868686868080601f01602080910402602001604051908101604052809392919081815260200183838082843760009201919091525061331492505050565b8483811415806126db5750808214155b15612712576040517f6582533600000000000000000000000000000000000000000000000000000000815260040160405180910390fd5b60005b818110156110e457600086868381811061273157612731613e3a565b90506020020160208101906127469190613a7b565b6040517f01ffc9a70000000000000000000000000000000000000000000000000000000081527f80ac58cd00000000000000000000000000000000000000000000000000000000600482015290915073ffffffffffffffffffffffffffffffffffffffff8216906301ffc9a790602401602060405180830381865afa1580156127d3573d6000803e3d6000fd5b505050506040513d601f19601f820116820180604052508101906127f79190613e69565b612845576040517f986b9f1f00000000000000000000000000000000000000000000000000000000815273ffffffffffffffffffffffffffffffffffffffff82166004820152602401610e69565b86868381811061285757612857613e3a565b905060200201602081019061286c9190613a7b565b73ffffffffffffffffffffffffffffffffffffffff166342842e0e308b8b8681811061289a5761289a613e3a565b90506020020160208101906128af9190613a7b565b8888878181106128c1576128c1613e3a565b6040517fffffffff0000000000000000000000000000000000000000000000000000000060e088901b16815273ffffffffffffffffffffffffffffffffffffffff958616600482015294909316602485015250602090910201356044820152606401600060405180830381600087803b15801561293d57600080fd5b505af1158015612951573d6000803e3d6000fd5b5050505050806001019050612715565b73ffffffffffffffffffffffffffffffffffffffff87166129ae576040517fa974697600000000000000000000000000000000000000000000000000000000815260040160405180910390fd5b834211156129eb576040517fea2b6f5800000000000000000000000000000000000000000000000000000000815260048101859052602401610e69565b73ffffffffffffffffffffffffffffffffffffffff878116600081815260208b8152604080832080546001810190915581517f6e71edae12b1b97f4d1f60370fef10105fa2faae0126114a169c64845d6126c98185015280830195909552948b166060850152608084018a905260a084019490945260c08084018990528451808503909101815260e09093019093528151919092012090612a8a6112d6565b6040517f19010000000000000000000000000000000000000000000000000000000000006020820152602281019190915260428101839052606201604080517fffffffffffffffffffffffffffffffffffffffffffffffffffffffffffffffe08184030181528282528051602091820120600080855291840180845281905260ff89169284019290925260608301879052608083018690529092509060019060a0016020604051602081039080840390855afa158015612b4e573d6000803e3d6000fd5b5050506020604051035190508973ffffffffffffffffffffffffffffffffffffffff168173ffffffffffffffffffffffffffffffffffffffff1614612bbf576040517f822a64c800000000000000000000000000000000000000000000000000000000815260040160405180910390fd5b5050506110e4878787610658610dda565b60008381526020858152604080832073ffffffffffffffffffffffffffffffffffffffff8616845290915290205460ff16156108a95760008381526020858152604080832073ffffffffffffffffffffffffffffffffffffffff8681168086529184529382902080547fffffffffffffffffffffffffffffffffffffffffffffffffffffffffffffff00169055815187815292830152918316918101919091527ff6391f5c32d9c69d2a47ea670b442974b53935d1edc7fd64eb21e047a839171b906060016112c8565b826108a9828483613f01565b612cb28686868661249f565b73ffffffffffffffffffffffffffffffffffffffff84163b15610908576109088586868686868080601f01602080910402602001604051908101604052809392919081815260200183838082843760009201919091525061331492505050565b825473ffffffffffffffffffffffffffffffffffffffff9081169083168114612d7f576040517f2ef4875e00000000000000000000000000000000000000000000000000000000815273ffffffffffffffffffffffffffffffffffffffff84166004820152602401610e69565b8173ffffffffffffffffffffffffffffffffffffffff168173ffffffffffffffffffffffffffffffffffffffff16146108a95783547fffffffffffffffffffffffff00000000000000000000000000000000000000001673ffffffffffffffffffffffffffffffffffffffff8381169182178655604051908316907f8be0079c531659141344cd1fd0a4f28419497f9722a3daafe3b4186f6b6457e090600090a350505050565b612e5b612e5460017f5b388d90dc1312ba799f321972f13311234fa1163bcabec7cf66101c4876eb84613dad565b6001613422565b6107ab828261346e565b6000612e6f610c04565b9050612e9d817f36372b07000000000000000000000000000000000000000000000000000000006001613524565b61097b817f9d075186000000000000000000000000000000000000000000000000000000006001613524565b612efe7fc05327e6000000000000000000000000000000000000000000000000000000006001612ef7610c04565b9190613524565b565b612efe7f53f41a97000000000000000000000000000000000000000000000000000000006001612ef7610c04565b612efe7f28963e1e000000000000000000000000000000000000000000000000000000006001612ef7610c04565b612efe7f20c07ed1000000000000000000000000000000000000000000000000000000006001612ef7610c04565b612fb8612e5460017fd217496980d1cb14720b20a80af36676bbece8e5feeb5d8970a9681a2c76bb75613dad565b85612fc4858783613f01565b5060018601612fd4838583613f01565b506002860180547fffffffffffffffffffffffffffffffffffffffffffffffffffffffffffffff001660ff83161790556109087fa219a025000000000000000000000000000000000000000000000000000000006001612ef7610c04565b612efe7f3c130d90000000000000000000000000000000000000000000000000000000006001612ef7610c04565b612efe7f9d8ff7da000000000000000000000000000000000000000000000000000000006001612ef7610c04565b828181146130c8576040517f6582533600000000000000000000000000000000000000000000000000000000815260040160405180910390fd5b60005b81811015610908576131328484838181106130e8576130e8613e3a565b9050602002013587878481811061310157613101613e3a565b90506020020160208101906131169190613a7b565b73ffffffffffffffffffffffffffffffffffffffff1690613600565b6001016130cb565b60003332148061314a5750601836105b1561315457503390565b7fffffffffffffffffffffffffffffffffffffffffffffffffffffffffffffffec36013560601c7f000000000000000000000000000000000000000000000000000000000000000073ffffffffffffffffffffffffffffffffffffffff1633148061327657506040517f019a202800000000000000000000000000000000000000000000000000000000815273ffffffffffffffffffffffffffffffffffffffff82811660048301523360248301523060448301527f0000000000000000000000000000000000000000000000000000000000000000169063019a202890606401602060405180830381865afa158015613252573d6000803e3d6000fd5b505050506040513d601f19601f820116820180604052508101906132769190613e69565b1561328057919050565b3391505090565b6040805173ffffffffffffffffffffffffffffffffffffffff8416602482015260448082018490528251808303909101815260649091019091526020810180517bffffffffffffffffffffffffffffffffffffffffffffffffffffffff167fa9059cbb0000000000000000000000000000000000000000000000000000000017905261070a9084906136b6565b6040517f4fc35859000000000000000000000000000000000000000000000000000000008082529073ffffffffffffffffffffffffffffffffffffffff851690634fc358599061336e90899089908890889060040161401b565b6020604051808303816000875af115801561338d573d6000803e3d6000fd5b505050506040513d601f19601f820116820180604052508101906133b19190614076565b7fffffffff000000000000000000000000000000000000000000000000000000001614610be6576040517f6d44973600000000000000000000000000000000000000000000000000000000815273ffffffffffffffffffffffffffffffffffffffff84166004820152602401610e69565b81548290828110613469576040517fbf0c18ec0000000000000000000000000000000000000000000000000000000081526004810182905260248101849052604401610e69565b505550565b73ffffffffffffffffffffffffffffffffffffffff8116156134f65781547fffffffffffffffffffffffff00000000000000000000000000000000000000001673ffffffffffffffffffffffffffffffffffffffff821690811783556040516000907f8be0079c531659141344cd1fd0a4f28419497f9722a3daafe3b4186f6b6457e0908290a35b6107ab7f7f5828d0000000000000000000000000000000000000000000000000000000006001612ef7610c04565b7c01000000000000000000000000000000000000000000000000000000007fffffffff0000000000000000000000000000000000000000000000000000000083160161359c576040517f72c683bb00000000000000000000000000000000000000000000000000000000815260040160405180910390fd5b7fffffffff00000000000000000000000000000000000000000000000000000000919091166000908152602092909252604090912080547fffffffffffffffffffffffffffffffffffffffffffffffffffffffffffffff0016911515919091179055565b80471015613643576040517fcf47918100000000000000000000000000000000000000000000000000000000815247600482015260248101829052604401610e69565b6000808373ffffffffffffffffffffffffffffffffffffffff168360405160006040518083038185875af1925050503d806000811461369e576040519150601f19603f3d011682016040523d82523d6000602084013e6136a3565b606091505b5091509150816108a9576108a98161375a565b600080602060008451602086016000885af1806136d9576040513d6000823e3d81fd5b50506000513d915081156136f157806001141561370b565b73ffffffffffffffffffffffffffffffffffffffff84163b155b156108a9576040517f5274afe700000000000000000000000000000000000000000000000000000000815273ffffffffffffffffffffffffffffffffffffffff85166004820152602401610e69565b80511561376a5780518082602001fd5b6040517fd6bda27500000000000000000000000000000000000000000000000000000000815260040160405180910390fd5b7fffffffff000000000000000000000000000000000000000000000000000000008116811461097b57600080fd5b6000602082840312156137dc57600080fd5b81356109e98161379c565b6000815180845260005b8181101561380d576020818501810151868301820152016137f1565b5060006020828601015260207fffffffffffffffffffffffffffffffffffffffffffffffffffffffffffffffe0601f83011685010191505092915050565b6020815260006109e960208301846137e7565b73ffffffffffffffffffffffffffffffffffffffff8116811461097b57600080fd5b6000806040838503121561389357600080fd5b823561389e8161385e565b946020939093013593505050565b60008083601f8401126138be57600080fd5b50813567ffffffffffffffff8111156138d657600080fd5b6020830191508360208260051b85010111156138f157600080fd5b9250929050565b6000806000806040858703121561390e57600080fd5b843567ffffffffffffffff81111561392557600080fd5b613931878288016138ac565b909550935050602085013567ffffffffffffffff81111561395157600080fd5b61395d878288016138ac565b95989497509550505050565b60008060006060848603121561397e57600080fd5b83356139898161385e565b925060208401356139998161385e565b929592945050506040919091013590565b600080604083850312156139bd57600080fd5b8235915060208301356139cf8161385e565b809150509250929050565b6000602082840312156139ec57600080fd5b5035919050565b600080600080600060608688031215613a0b57600080fd5b8535613a168161385e565b9450602086013567ffffffffffffffff811115613a3257600080fd5b613a3e888289016138ac565b909550935050604086013567ffffffffffffffff811115613a5e57600080fd5b613a6a888289016138ac565b969995985093965092949392505050565b600060208284031215613a8d57600080fd5b81356109e98161385e565b60008060008060008060608789031215613ab157600080fd5b863567ffffffffffffffff811115613ac857600080fd5b613ad489828a016138ac565b909750955050602087013567ffffffffffffffff811115613af457600080fd5b613b0089828a016138ac565b909550935050604087013567ffffffffffffffff811115613b2057600080fd5b613b2c89828a016138ac565b979a9699509497509295939492505050565b60008083601f840112613b5057600080fd5b50813567ffffffffffffffff811115613b6857600080fd5b6020830191508360208285010111156138f157600080fd5b600080600080600060808688031215613b9857600080fd5b8535613ba38161385e565b94506020860135613bb38161385e565b935060408601359250606086013567ffffffffffffffff811115613bd657600080fd5b613a6a88828901613b3e565b803560ff81168114613bf357600080fd5b919050565b600080600080600080600060e0888a031215613c1357600080fd5b8735613c1e8161385e565b96506020880135613c2e8161385e565b95506040880135945060608801359350613c4a60808901613be2565b9699959850939692959460a0840135945060c09093013592915050565b60008060408385031215613c7a57600080fd5b8235613c858161385e565b915060208301356139cf8161385e565b60008060208385031215613ca857600080fd5b823567ffffffffffffffff811115613cbf57600080fd5b613ccb85828601613b3e565b90969095509350505050565b60008060008060608587031215613ced57600080fd5b8435613cf88161385e565b935060208501359250604085013567ffffffffffffffff811115613d1b57600080fd5b61395d87828801613b3e565b600080600080600060608688031215613d3f57600080fd5b853567ffffffffffffffff811115613d5657600080fd5b613d6288828901613b3e565b909650945050602086013567ffffffffffffffff811115613d8257600080fd5b613d8e88828901613b3e565b9094509250613da1905060408701613be2565b90509295509295909350565b81810381811115610624577f4e487b7100000000000000000000000000000000000000000000000000000000600052601160045260246000fd5b600181811c90821680613dfb57607f821691505b602082108103613e34577f4e487b7100000000000000000000000000000000000000000000000000000000600052602260045260246000fd5b50919050565b7f4e487b7100000000000000000000000000000000000000000000000000000000600052603260045260246000fd5b600060208284031215613e7b57600080fd5b815180151581146109e957600080fd5b7f4e487b7100000000000000000000000000000000000000000000000000000000600052604160045260246000fd5b601f82111561070a57806000526020600020601f840160051c81016020851015613ee15750805b601f840160051c820191505b81811015610be65760008155600101613eed565b67ffffffffffffffff831115613f1957613f19613e8b565b613f2d83613f278354613de7565b83613eba565b6000601f841160018114613f7f5760008515613f495750838201355b7fffffffffffffffffffffffffffffffffffffffffffffffffffffffffffffffff600387901b1c1916600186901b178355610be6565b6000838152602090207fffffffffffffffffffffffffffffffffffffffffffffffffffffffffffffffe0861690835b82811015613fce5786850135825560209485019460019092019101613fae565b5086821015614009577fffffffffffffffffffffffffffffffffffffffffffffffffffffffffffffffff60f88860031b161c19848701351681555b505060018560011b0183555050505050565b73ffffffffffffffffffffffffffffffffffffffff8516815273ffffffffffffffffffffffffffffffffffffffff8416602082015282604082015260806060820152600061406c60808301846137e7565b9695505050505050565b60006020828403121561408857600080fd5b81516109e98161379c56fea264697066735822122021b944789e8dbaba7b4a84bfc0752a301933bc75dd58dc30bc3e1c7c576358e064736f6c634300081c0033",
  "devdoc": {
    "errors": {
      "ERC20AllowanceOverflow(address,address,uint256,uint256)": [
        {
          "params": {
            "allowance": "The current allowance.",
            "increment": "The allowance increase.",
            "owner": "The owner of the tokens.",
            "spender": "The spender of the tokens."
          }
        }
      ],
      "ERC20ApprovalToAddressZero(address)": [
        {
          "params": {
            "owner": "The owner of the tokens."
          }
        }
      ],
      "ERC20InsufficientAllowance(address,address,uint256,uint256)": [
        {
          "params": {
            "allowance": "The current allowance.",
            "decrement": "The allowance decrease.",
            "owner": "The owner of the tokens.",
            "spender": "The spender of the tokens."
          }
        }
      ],
      "ERC20InsufficientBalance(address,uint256,uint256)": [
        {
          "params": {
            "balance": "The current balance.",
            "owner": "The owner of the tokens.",
            "value": "The amount of tokens being transferred."
          }
        }
      ],
      "ERC20PermitExpired(uint256)": [
        {
          "params": {
            "deadline": "The permit deadline."
          }
        }
      ],
      "ERC20SafeTransferRejected(address)": [
        {
          "params": {
            "recipient": "The recipient contract."
          }
        }
      ],
      "ERC20TotalSupplyOverflow(uint256,uint256)": [
        {
          "params": {
            "supply": "The current supply.",
            "value": "The amount of tokens being minted."
          }
        }
      ],
      "ERC20TransferToAddressZero(address)": [
        {
          "params": {
            "owner": "The account from which the tokens are transferred."
          }
        }
      ],
      "FailedCall()": [
        {
          "details": "A call to an address target failed. The target may have reverted."
        }
      ],
      "IncorrectTokenContractType(address)": [
        {
          "params": {
            "tokenContract": "The token contract being recovered."
          }
        }
      ],
      "InitializationPhaseAlreadyReached(uint256,uint256)": [
        {
          "params": {
            "currentPhase": "The current phase.",
            "newPhase": "The new phase trying to be set."
          }
        }
      ],
      "InsufficientBalance(uint256,uint256)": [
        {
          "details": "The ETH balance of the account is not enough to perform the operation."
        }
      ],
      "NotContractOwner(address)": [
        {
          "params": {
            "account": "The account that was checked."
          }
        }
      ],
      "NotRoleHolder(bytes32,address)": [
        {
          "params": {
            "account": "The account that was checked.",
            "role": "The role the caller is missing."
          }
        }
      ],
      "SafeERC20FailedOperation(address)": [
        {
          "details": "An operation with an ERC-20 token failed."
        }
      ]
    },
    "events": {
      "Approval(address,address,uint256)": {
        "params": {
          "owner": "The account granting an allowance to `spender`.",
          "spender": "The account being granted an allowance from `owner`.",
          "value": "The allowance amount being granted."
        }
      },
      "OwnershipTransferred(address,address)": {
        "params": {
          "newOwner": "the new contract owner.",
          "previousOwner": "the previous contract owner."
        }
      },
      "RoleGranted(bytes32,address,address)": {
        "params": {
          "account": "The account that has been granted the role.",
          "operator": "The account that granted the role.",
          "role": "The role that has been granted."
        }
      },
      "RoleRevoked(bytes32,address,address)": {
        "params": {
          "account": "The account that has been revoked the role.",
          "operator": "The account that revoked the role.",
          "role": "The role that has been revoked."
        }
      },
      "Transfer(address,address,uint256)": {
        "params": {
          "from": "The account where the transferred tokens are withdrawn from.",
          "to": "The account where the transferred tokens are deposited to.",
          "value": "The amount of tokens being transferred."
        }
      }
    },
    "kind": "dev",
    "methods": {
      "DOMAIN_SEPARATOR()": {
        "details": "A common ERC-20 permit implementation choice for the `DOMAIN_SEPARATOR` is:  keccak256(      abi.encode(          keccak256(\"EIP712Domain(string name,string version,uint256 chainId,address verifyingContract)\"),          keccak256(bytes(name)),          keccak256(bytes(version)),          chainId,          address(this)))  where   - `name` (string) is the ERC-20 token name.   - `version` (string) refers to the ERC-20 token contract version.   - `chainId` (uint256) is the chain ID to which the ERC-20 token contract is deployed to.   - `verifyingContract` (address) is the ERC-20 token contract address.",
        "returns": {
          "_0": "The EIP-712 encoded hash struct of the domain-specific information for permits."
        }
      },
      "allowance(address,address)": {
        "params": {
          "owner": "The account that has granted an allowance to `spender`.",
          "spender": "The account that was granted an allowance by `owner`."
        },
        "returns": {
          "value": "The amount which `spender` is allowed to spend on behalf of `owner`."
        }
      },
      "approve(address,uint256)": {
        "details": "Reverts if `spender` is the zero address.Emits an {Approval} event.",
        "params": {
          "spender": "The account being granted the allowance by the message caller.",
          "value": "The allowance amount to grant."
        },
        "returns": {
          "result": "Whether the operation succeeded."
        }
      },
      "balanceOf(address)": {
        "params": {
          "owner": "The account whose balance will be returned."
        },
        "returns": {
          "balance": "The account balance."
        }
      },
      "batchBurnFrom(address[],uint256[])": {
        "details": "Reverts if `owners` and `values` have different lengths.Reverts if an `owner` does not have at least the corresponding `value` of balance.Reverts if the sender is not an `owner` and does not have at least the corresponding `value` of allowance by this `owner`.Emits an {IERC20-Transfer} event for each transfer with `to` set to the zero address.Optionally emits an {Approval} event for each transfer if the sender is not this `owner` (non-standard).",
        "params": {
          "owners": "The list of accounts to burn the tokens from.",
          "values": "The list of amounts of tokens to burn."
        },
        "returns": {
          "_0": "Whether the operation succeeded."
        }
      },
      "batchMint(address[],uint256[])": {
        "details": "Reverts with {NotRoleHolder} if the sender does not have the 'minter' role.",
        "params": {
          "recipients": "The list of accounts to mint the tokens to.",
          "values": "The list of amounts of tokens to mint to each of `recipients`."
        }
      },
      "batchTransfer(address[],uint256[])": {
        "details": "Reverts if `recipients` and `values` have different lengths.Reverts if one of `recipients` is the zero address.Reverts if the sender does not have at least `sum(values)` of balance.Emits an {IERC20-Transfer} event for each transfer.",
        "params": {
          "recipients": "The list of accounts to transfer the tokens to.",
          "values": "The list of amounts of tokens to transfer to each of `recipients`."
        },
        "returns": {
          "_0": "Whether the operation succeeded."
        }
      },
      "batchTransferFrom(address,address[],uint256[])": {
        "details": "Reverts if `recipients` and `values` have different lengths.Reverts if one of `recipients` is the zero address.Reverts if `from` does not have at least `sum(values)` of balance.Reverts if the sender is not `from` and does not have at least `sum(values)` of allowance by `from`.Emits an {IERC20-Transfer} event for each transfer.Optionally emits an {IERC20-Approval} event if the sender is not `from` (non-standard).",
        "params": {
          "from": "The account which owns the tokens to be transferred.",
          "recipients": "The list of accounts to transfer the tokens to.",
          "values": "The list of amounts of tokens to transfer to each of `recipients`."
        },
        "returns": {
          "_0": "Whether the operation succeeded."
        }
      },
      "burn(uint256)": {
        "details": "Reverts if the sender does not have at least `value` of balance.Emits an {IERC20-Transfer} event with `to` set to the zero address.",
        "params": {
          "value": "The amount of tokens to burn."
        },
        "returns": {
          "_0": "Whether the operation succeeded."
        }
      },
      "burnFrom(address,uint256)": {
        "details": "Reverts if `from` does not have at least `value` of balance.Reverts if the sender is not `from` and does not have at least `value` of allowance by `from`.Emits an {IERC20-Transfer} event with `to` set to the zero address.Optionally emits an {Approval} event if the sender is not `from` (non-standard).",
        "params": {
          "from": "The account to burn the tokens from.",
          "value": "The amount of tokens to burn."
        },
        "returns": {
          "_0": "Whether the operation succeeded."
        }
      },
      "decimals()": {
        "details": "Note: This information is only used for display purposes: it does  not impact the arithmetic of the contract.",
        "returns": {
          "_0": "The number of decimals used to display the balances."
        }
      },
      "decreaseAllowance(address,uint256)": {
        "details": "Reverts if `spender` is the zero address.Reverts if `spender` does not have at least `value` of allowance by the sender.Emits an {IERC20-Approval} event with an updated allowance for `spender` by the sender.",
        "params": {
          "spender": "The account whose allowance is being decreased.",
          "value": "The allowance amount decrease."
        },
        "returns": {
          "result": "Whether the operation succeeded."
        }
      },
      "grantRole(bytes32,address)": {
        "details": "Reverts with {NotContractOwner} if the sender is not the contract owner.Emits a {RoleGranted} event if the account did not previously have the role.",
        "params": {
          "account": "The account to grant the role to.",
          "role": "The role to grant."
        }
      },
      "hasRole(bytes32,address)": {
        "params": {
          "account": "The account.",
          "role": "The role."
        },
        "returns": {
          "hasRole_": "Whether `account` has `role`."
        }
      },
      "increaseAllowance(address,uint256)": {
        "details": "Reverts if `spender` is the zero address.Reverts if `spender`'s allowance by the sender overflows.Emits an {IERC20-Approval} event with an updated allowance for `spender` by the sender.",
        "params": {
          "spender": "The account whose allowance is being increased.",
          "value": "The allowance amount increase."
        },
        "returns": {
          "result": "Whether the operation succeeded."
        }
      },
      "isTrustedForwarder(address)": {
        "params": {
          "forwarder": "The forwarder to check."
        },
        "returns": {
          "_0": "True if `forwarder` is trusted, false if not."
        }
      },
      "mint(address,uint256)": {
        "details": "Reverts with {NotRoleHolder} if the sender does not have the 'minter' role.",
        "params": {
          "to": "The account to mint the tokens to.",
          "value": "The amount of tokens to mint."
        }
      },
      "name()": {
        "returns": {
          "_0": "The name of the token."
        }
      },
      "nonces(address)": {
        "params": {
          "owner": "The account to check the nonce of."
        },
        "returns": {
          "_0": "The current permit nonce of `owner`."
        }
      },
      "owner()": {
        "returns": {
          "_0": "The address of the contract owner."
        }
      },
      "permit(address,address,uint256,uint256,uint8,bytes32,bytes32)": {
        "details": "Reverts if `owner` is the zero address.Reverts if the current blocktime is greather than `deadline`.Reverts if `r`, `s`, and `v` do not represent a valid `secp256k1` signature from `owner`.Emits an {IERC20-Approval} event.",
        "params": {
          "deadline": "The deadline from which the permit signature is no longer valid.",
          "owner": "The token owner granting the allowance to `spender`.",
          "r": "Permit signature r parameter.",
          "s": "Permit signature s parameter.",
          "spender": "The token spender being granted the allowance by `owner`.",
          "v": "Permit signature v parameter",
          "value": "The allowance amount to grant."
        }
      },
      "recoverERC20s(address[],address[],uint256[])": {
        "details": "Reverts with {NotContractOwner} if the sender is not the contract owner.Reverts with {InconsistentArrayLengths} if `accounts`, `tokens` and `amounts` do not have the same length.Reverts if one of the ERC20 transfers fails for any reason.",
        "params": {
          "accounts": "the list of accounts to transfer the tokens to.",
          "amounts": "the list of token amounts to transfer.",
          "tokens": "the list of ERC20 token addresses."
        }
      },
      "recoverERC721s(address[],address[],uint256[])": {
        "details": "Reverts with {NotContractOwner} if the sender is not the contract owner.Reverts with {InconsistentArrayLengths} if `accounts`, `contracts` and `amounts` do not have the same length.Reverts if one of the ERC721 transfers fails for any reason.",
        "params": {
          "accounts": "the list of accounts to transfer the tokens to.",
          "contracts": "the list of ERC721 contract addresses.",
          "tokenIds": "the list of token ids to transfer."
        }
      },
      "recoverETH(address[],uint256[])": {
        "details": "Reverts with {NotContractOwner} if the sender is not the contract owner.Reverts with {InconsistentArrayLengths} `accounts` and `amounts` do not have the same length.Reverts if one of the ETH transfers fails for any reason.",
        "params": {
          "accounts": "the list of accounts to transfer the tokens to.",
          "amounts": "the list of token amounts to transfer."
        }
      },
      "renounceRole(bytes32)": {
        "details": "Reverts if `sender` does not have `role`.Emits a {RoleRevoked} event.",
        "params": {
          "role": "The role to renounce."
        }
      },
      "revokeRole(bytes32,address)": {
        "details": "Reverts with {NotContractOwner} if the sender is not the contract owner.Emits a {RoleRevoked} event if the account previously had the role.",
        "params": {
          "account": "The account to revoke the role from.",
          "role": "The role to revoke."
        }
      },
      "safeTransfer(address,uint256,bytes)": {
        "details": "Reverts if `to` is the zero address.Reverts if the sender does not have at least `value` of balance.Reverts if `to` is a contract and the call to `onERC20Received` fails, reverts or is rejected.Emits an {IERC20-Transfer} event.",
        "params": {
          "data": "Optional additional data with no specified format, to be passed to the receiver contract.",
          "to": "The account to transfer the tokens to.",
          "value": "The amount of tokens to transfer."
        },
        "returns": {
          "_0": "Whether the operation succeeded."
        }
      },
      "safeTransferFrom(address,address,uint256,bytes)": {
        "details": "Reverts if `to` is the zero address.Reverts if `from` does not have at least `value` of balance.Reverts if the sender is not `from` and does not have at least `value` of allowance by `from`.Reverts if `to` is a contract and the call to `onERC20Received(address,address,uint256,bytes)` fails, reverts or is rejected.Emits an {IERC20-Transfer} event.Optionally emits an {IERC20-Approval} event if the sender is not `from` (non-standard).",
        "params": {
          "data": "Optional additional data with no specified format, to be passed to the receiver contract.",
          "from": "The account which owns the tokens to transfer.",
          "to": "The account to transfer the tokens to.",
          "value": "The amount of tokens to transfer."
        },
        "returns": {
          "_0": "Whether the operation succeeded."
        }
      },
      "setTokenURI(string)": {
        "details": "Reverts with {NotContractOwner} if the sender is not the contract owner.",
        "params": {
          "uri": "The token URI."
        }
      },
      "supportsInterface(bytes4)": {
        "details": "Note: This function call must use less than 30 000 gas.",
        "params": {
          "interfaceId": "the interface identifier to test."
        },
        "returns": {
          "_0": "True if the interface is supported, false if `interfaceId` is `0xffffffff` or if the interface is not supported."
        }
      },
      "symbol()": {
        "returns": {
          "_0": "The symbol of the token."
        }
      },
      "tokenURI()": {
        "returns": {
          "_0": "The token metadata URI."
        }
      },
      "totalSupply()": {
        "returns": {
          "supply": "The total token supply."
        }
      },
      "transfer(address,uint256)": {
        "details": "Reverts if `to` is the zero address.Reverts if the sender does not have at least `value` of balance.Emits a {Transfer} event.",
        "params": {
          "to": "The account to transfer the tokens to.",
          "value": "The amount of tokens to transfer."
        },
        "returns": {
          "result": "Whether the operation succeeded."
        }
      },
      "transferFrom(address,address,uint256)": {
        "details": "Reverts if `to` is the zero address.Reverts if `from` does not have at least `value` of balance.Reverts if the sender is not `from` and does not have at least `value` of allowance by `from`.Emits a {Transfer} event.Optionally emits an {Approval} event if the sender is not `from` (non-standard).",
        "params": {
          "from": "The account which owns the tokens to transfer.",
          "to": "The account to transfer the tokens to.",
          "value": "The amount of tokens to transfer."
        },
        "returns": {
          "result": "Whether the operation succeeded."
        }
      },
      "transferOwnership(address)": {
        "details": "Reverts if the sender is not the contract owner.Emits an {OwnershipTransferred} event if `newOwner` is different from the current contract owner.",
        "params": {
          "newOwner": "The address of the new contract owner. Using the zero address means renouncing ownership."
        }
      }
    },
    "title": "ERC20 Fungible Token Standard, mintable and burnable preset contract (proxied version).",
    "version": 1
  },
  "userdoc": {
    "errors": {
      "ERC20AllowanceOverflow(address,address,uint256,uint256)": [
        {
          "notice": "Thrown when the allowance increase creates an overflow."
        }
      ],
      "ERC20ApprovalToAddressZero(address)": [
        {
          "notice": "Thrown when setting an allowance to the the zero address."
        }
      ],
      "ERC20BatchMintValuesOverflow()": [
        {
          "notice": "Thrown when the `values` array sum overflows on a batch mint operation."
        }
      ],
      "ERC20BatchTransferValuesOverflow()": [
        {
          "notice": "Thrown when the `values` array sum overflows on a batch transfer operation."
        }
      ],
      "ERC20InsufficientAllowance(address,address,uint256,uint256)": [
        {
          "notice": "Thrown when the allowance decreases below the current alowance set."
        }
      ],
      "ERC20InsufficientBalance(address,uint256,uint256)": [
        {
          "notice": "Thrown when transferring an amount of tokens greater than the current balance."
        }
      ],
      "ERC20MintToAddressZero()": [
        {
          "notice": "Thrown when the minting tokens to the zero address."
        }
      ],
      "ERC20PermitExpired(uint256)": [
        {
          "notice": "Thrown when the permit is expired."
        }
      ],
      "ERC20PermitFromAddressZero()": [
        {
          "notice": "Thrown when the permit is from the zero address."
        }
      ],
      "ERC20PermitInvalidSignature()": [
        {
          "notice": "Thrown when the permit signature cannot be verified."
        }
      ],
      "ERC20SafeTransferRejected(address)": [
        {
          "notice": "Thrown when a safe transfer is rejected by the recipient contract."
        }
      ],
      "ERC20TotalSupplyOverflow(uint256,uint256)": [
        {
          "notice": "Thrown when the minting tokens overflows the supply."
        }
      ],
      "ERC20TransferToAddressZero(address)": [
        {
          "notice": "Thrown when transferring tokens to the zero address."
        }
      ],
      "IllegalInterfaceId()": [
        {
          "notice": "Thrown when setting the illegal interfaceId 0xffffffff."
        }
      ],
      "InconsistentArrayLengths()": [
        {
          "notice": "Thrown when the multiple related arrays have different lengths."
        }
      ],
      "IncorrectTokenContractType(address)": [
        {
          "notice": "Thrown when trying to recover a token of the wrong contract type."
        }
      ],
      "InitializationPhaseAlreadyReached(uint256,uint256)": [
        {
          "notice": "Emitted when trying to set a phase value that has already been reached."
        }
      ],
      "NotContractOwner(address)": [
        {
          "notice": "Thrown when an account is not the contract owner but is required to."
        }
      ],
      "NotRoleHolder(bytes32,address)": [
        {
          "notice": "Thrown when an account does not have the required role."
        }
      ]
    },
    "events": {
      "Approval(address,address,uint256)": {
        "notice": "Emitted when an approval is set."
      },
      "OwnershipTransferred(address,address)": {
        "notice": "Emitted when the contract ownership changes."
      },
      "RoleGranted(bytes32,address,address)": {
        "notice": "Emitted when `role` is granted to `account`."
      },
      "RoleRevoked(bytes32,address,address)": {
        "notice": "Emitted when `role` is revoked from `account`."
      },
      "Transfer(address,address,uint256)": {
        "notice": "Emitted when tokens are transferred, including zero value transfers."
      }
    },
    "kind": "user",
    "methods": {
      "DOMAIN_SEPARATOR()": {
        "notice": "Returns the EIP-712 encoded hash struct of the domain-specific information for permits."
      },
      "allowance(address,address)": {
        "notice": "Gets the amount that an account is allowed to spend on behalf of another."
      },
      "approve(address,uint256)": {
        "notice": "Sets the allowance to an account from the sender.Warning: Beware that changing an allowance with this method brings the risk that someone may use both the old and  the new allowance by unfortunate transaction ordering. One possible solution to mitigate this race condition is to first reduce  the spender's allowance to 0 and set the desired value afterwards: https://github.com/ethereum/EIPs/issues/20#issuecomment-263524729"
      },
      "balanceOf(address)": {
        "notice": "Gets an account balance."
      },
      "batchBurnFrom(address[],uint256[])": {
        "notice": "Burns multiple amounts of tokens from multiple owners, decreasing the total supply."
      },
      "batchMint(address[],uint256[])": {
        "notice": "Mints multiple amounts of tokens to multiple recipients, increasing the total supply."
      },
      "batchTransfer(address[],uint256[])": {
        "notice": "Transfers multiple amounts of tokens to multiple recipients from the sender."
      },
      "batchTransferFrom(address,address[],uint256[])": {
        "notice": "Transfers multiple amounts of tokens to multiple recipients from a specified address."
      },
      "burn(uint256)": {
        "notice": "Burns an amount of tokens from the sender, decreasing the total supply."
      },
      "burnFrom(address,uint256)": {
        "notice": "Burns an amount of tokens from a specified address, decreasing the total supply."
      },
      "decimals()": {
        "notice": "Gets the number of decimals used to display the balances.For example, if `decimals` equals `2`, a balance of `505` tokens should be displayed to a user as `5,05` (`505 / 10 ** 2`).Tokens usually opt for a value of 18, imitating the relationship between Ether and Wei."
      },
      "decreaseAllowance(address,uint256)": {
        "notice": "Decreases the allowance granted to an account by the sender.This is an alternative to {approve} that can be used as a mitigation for transaction ordering problems."
      },
      "grantRole(bytes32,address)": {
        "notice": "Grants a role to an account."
      },
      "hasRole(bytes32,address)": {
        "notice": "Retrieves whether an account has a role."
      },
      "increaseAllowance(address,uint256)": {
        "notice": "Increases the allowance granted to an account by the sender.This is an alternative to {approve} that can be used as a mitigation for transaction ordering problems."
      },
      "isTrustedForwarder(address)": {
        "notice": "Checks whether a forwarder is trusted."
      },
      "mint(address,uint256)": {
        "notice": "Mints an amount of tokens to a recipient, increasing the total supply."
      },
      "name()": {
        "notice": "Gets the name of the token. E.g. \"My Token\"."
      },
      "nonces(address)": {
        "notice": "Gets the current permit nonce of an account."
      },
      "owner()": {
        "notice": "Gets the address of the contract owner."
      },
      "permit(address,address,uint256,uint256,uint8,bytes32,bytes32)": {
        "notice": "Sets the allowance to an account from another account using a signed permit.Warning: The standard ERC20 race condition for approvals applies to `permit()` as well: https://swcregistry.io/docs/SWC-114"
      },
      "recoverERC20s(address[],address[],uint256[])": {
        "notice": "Extract ERC20 tokens which were accidentally sent to the contract to a list of accounts."
      },
      "recoverERC721s(address[],address[],uint256[])": {
        "notice": "Extract ERC721 tokens which were accidentally sent to the contract to a list of accounts."
      },
      "recoverETH(address[],uint256[])": {
        "notice": "Extract ETH tokens which were accidentally sent to the contract to a list of accounts."
      },
      "renounceRole(bytes32)": {
        "notice": "Renounces a role by the sender."
      },
      "revokeRole(bytes32,address)": {
        "notice": "Revokes a role from an account."
      },
      "safeTransfer(address,uint256,bytes)": {
        "notice": "Transfers an amount of tokens to a recipient from the sender. If the recipient is a contract, calls `onERC20Received` on it."
      },
      "safeTransferFrom(address,address,uint256,bytes)": {
        "notice": "Transfers an amount of tokens to a recipient from a specified address. If the recipient is a contract, calls `onERC20Received` on it."
      },
      "setTokenURI(string)": {
        "notice": "Sets the token URI."
      },
      "supportsInterface(bytes4)": {
        "notice": "Returns whether this contract implements a given interface."
      },
      "symbol()": {
        "notice": "Gets the symbol of the token. E.g. \"TOK\"."
      },
      "tokenURI()": {
        "notice": "Gets the token metadata URI."
      },
      "totalSupply()": {
        "notice": "Gets the total token supply."
      },
      "transfer(address,uint256)": {
        "notice": "Transfers an amount of tokens to a recipient from the sender."
      },
      "transferFrom(address,address,uint256)": {
        "notice": "Transfers an amount of tokens to a recipient from a specified address."
      },
      "transferOwnership(address)": {
        "notice": "Sets the address of the new contract owner."
      }
    },
    "version": 1
  },
  "storageLayout": {
    "storage": [],
    "types": null
  }
}