{
  "address": "0x7D6b2D04673EebaF0a714c95D73566b2325d410A",
  "abi": [
    {
      "inputs": [
        {
          "internalType": "contract IForwarderRegistry",
          "name": "forwarderRegistry",
          "type": "address"
        }
      ],
      "stateMutability": "nonpayable",
      "type": "constructor"
    },
    {
      "inputs": [
        {
          "internalType": "uint256",
          "name": "tokenId",
          "type": "uint256"
        }
      ],
      "name": "ERC721BurntToken",
      "type": "error"
    },
    {
      "inputs": [
        {
          "internalType": "uint256",
          "name": "tokenId",
          "type": "uint256"
        }
      ],
      "name": "ERC721ExistingToken",
      "type": "error"
    },
    {
      "inputs": [],
      "name": "ERC721MintToAddressZero",
      "type": "error"
    },
    {
      "inputs": [],
      "name": "IllegalInterfaceId",
      "type": "error"
    },
    {
      "inputs": [],
      "name": "InconsistentArrayLengths",
      "type": "error"
    },
    {
      "inputs": [
        {
          "internalType": "address",
          "name": "account",
          "type": "address"
        }
      ],
      "name": "NotProxyAdmin",
      "type": "error"
    },
    {
      "inputs": [
        {
          "internalType": "bytes32",
          "name": "role",
          "type": "bytes32"
        },
        {
          "internalType": "address",
          "name": "account",
          "type": "address"
        }
      ],
      "name": "NotRoleHolder",
      "type": "error"
    },
    {
      "anonymous": false,
      "inputs": [
        {
          "indexed": true,
          "internalType": "address",
          "name": "from",
          "type": "address"
        },
        {
          "indexed": true,
          "internalType": "address",
          "name": "to",
          "type": "address"
        },
        {
          "indexed": true,
          "internalType": "uint256",
          "name": "tokenId",
          "type": "uint256"
        }
      ],
      "name": "Transfer",
      "type": "event"
    },
    {
      "inputs": [
        {
          "internalType": "address[]",
          "name": "recipients",
          "type": "address[]"
        },
        {
          "internalType": "uint256[]",
          "name": "tokenIds",
          "type": "uint256[]"
        }
      ],
      "name": "deliver",
      "outputs": [],
      "stateMutability": "nonpayable",
      "type": "function"
    },
    {
      "inputs": [],
      "name": "initERC721DeliverableOnceStorage",
      "outputs": [],
      "stateMutability": "nonpayable",
      "type": "function"
    }
  ],
  "transactionHash": "0x35f084503bc298c35b630d8181e75fe28f80e173594b49a9d23f1debc14bf66e",
  "args": [
    "0x316a472D084489CB6d4C66e5eB62aE3AdA17521e"
  ],
  "numDeployments": 1,
  "solcInputHash": "84bab0eb3356c2e3bedca0f2f5a163c5",
  "bytecode": "0x60a0604052348015600f57600080fd5b50604051610997380380610997833981016040819052602c91603c565b6001600160a01b0316608052606a565b600060208284031215604d57600080fd5b81516001600160a01b0381168114606357600080fd5b9392505050565b60805161090b61008c600039600081816105720152610600015261090b6000f3fe608060405234801561001057600080fd5b50600436106100365760003560e01c80639da5e8321461003b578063c0b8846814610050575b600080fd5b61004e6100493660046107d2565b610058565b005b61004e610111565b6100937f6d696e7465720000000000000000000000000000000000000000000000000000610084610134565b61008c610143565b9190610177565b61010b848480806020026020016040519081016040528093929190818152602001838360200280828437600092019190915250506040805160208088028281018201909352878252909350879250869182918501908490808284376000920191909152506101049250610207915050565b9190610235565b50505050565b61012a61011c610134565b61012461045d565b9061048b565b6101326104fa565b565b600061013e61052f565b905090565b60008061017160017fc8827d3282af6f37b64c3e9e6f3ac9df286ab0bb0fccd6f8661bf19adb368b23610843565b92915050565b60008281526020848152604080832073ffffffffffffffffffffffffffffffffffffffff8516845290915290205460ff16610202576040517f7aa728820000000000000000000000000000000000000000000000000000000081526004810183905273ffffffffffffffffffffffffffffffffffffffff821660248201526044015b60405180910390fd5b505050565b60008061017160017fddf3ee18ae6d688373c219468f8be446e7ae82215f4779d821c7ea5e8c13c0c1610843565b815181518114610271576040517f6582533600000000000000000000000000000000000000000000000000000000815260040160405180910390fd5b60005b818110156104565760008482815181106102905761029061087d565b60200260200101519050600073ffffffffffffffffffffffffffffffffffffffff168173ffffffffffffffffffffffffffffffffffffffff1603610300576040517f7851b9cd00000000000000000000000000000000000000000000000000000000815260040160405180910390fd5b60008483815181106103145761031461087d565b60209081029190910181015160008181529189905260409091205490915073ffffffffffffffffffffffffffffffffffffffff811615610383576040517f753eceac000000000000000000000000000000000000000000000000000000008152600481018390526024016101f9565b7fdead00000000000000000000000000000000000000000000000000000000000081036103df576040517f31e8d3d5000000000000000000000000000000000000000000000000000000008152600481018390526024016101f9565b60008281526020898152604080832073ffffffffffffffffffffffffffffffffffffffff8716908190558084526001808d019093528184208054909301909255518492907fddf252ad1be2c89b69c2b068fc378daa952ba7f163c4a11628f55a4df523b3ef908290a4505050806001019050610274565b5050505050565b60008061017160017fb53127684a568b3173ae13b9f8a6016e243e63b6e8ee1178d6a717850b5d6104610843565b815473ffffffffffffffffffffffffffffffffffffffff8281169116146104f6576040517f673a31a100000000000000000000000000000000000000000000000000000000815273ffffffffffffffffffffffffffffffffffffffff821660048201526024016101f9565b5050565b6101327f9da5e83200000000000000000000000000000000000000000000000000000000600161052861067c565b91906106aa565b60003332148061053f5750601836105b1561054957503390565b7fffffffffffffffffffffffffffffffffffffffffffffffffffffffffffffffec36013560601c7f000000000000000000000000000000000000000000000000000000000000000073ffffffffffffffffffffffffffffffffffffffff1633148061066b57506040517f019a202800000000000000000000000000000000000000000000000000000000815273ffffffffffffffffffffffffffffffffffffffff82811660048301523360248301523060448301527f0000000000000000000000000000000000000000000000000000000000000000169063019a202890606401602060405180830381865afa158015610647573d6000803e3d6000fd5b505050506040513d601f19601f8201168201806040525081019061066b91906108ac565b1561067557919050565b3391505090565b60008061017160017fca9d3e17f264b0f3984e2634e94adb37fa3e6a8103f06aeae6fa59e21c769f5e610843565b7c01000000000000000000000000000000000000000000000000000000007fffffffff00000000000000000000000000000000000000000000000000000000831601610722576040517f72c683bb00000000000000000000000000000000000000000000000000000000815260040160405180910390fd5b7fffffffff00000000000000000000000000000000000000000000000000000000919091166000908152602092909252604090912080547fffffffffffffffffffffffffffffffffffffffffffffffffffffffffffffff0016911515919091179055565b60008083601f84011261079857600080fd5b50813567ffffffffffffffff8111156107b057600080fd5b6020830191508360208260051b85010111156107cb57600080fd5b9250929050565b600080600080604085870312156107e857600080fd5b843567ffffffffffffffff8111156107ff57600080fd5b61080b87828801610786565b909550935050602085013567ffffffffffffffff81111561082b57600080fd5b61083787828801610786565b95989497509550505050565b81810381811115610171577f4e487b7100000000000000000000000000000000000000000000000000000000600052601160045260246000fd5b7f4e487b7100000000000000000000000000000000000000000000000000000000600052603260045260246000fd5b6000602082840312156108be57600080fd5b815180151581146108ce57600080fd5b939250505056fea2646970667358221220311d1e4826405b333da19bd5b85e770bb125bccc4e202fbdf5f75fc5186fa3c764736f6c634300081c0033",
  "devdoc": {
    "details": "This contract is to be used as a diamond facet (see ERC2535 Diamond Standard https://eips.ethereum.org/EIPS/eip-2535).Note: This facet depends on {ProxyAdminFacet}, {InterfaceDetectionFacet} and {AccessControlFacet}.",
    "errors": {
      "ERC721BurntToken(uint256)": [
        {
          "params": {
            "tokenId": "The identifier of the token that has been burnt before."
          }
        }
      ],
      "ERC721ExistingToken(uint256)": [
        {
          "params": {
            "tokenId": "The identifier of the token that already exists."
          }
        }
      ],
      "NotProxyAdmin(address)": [
        {
          "params": {
            "account": "The account that was checked."
          }
        }
      ],
      "NotRoleHolder(bytes32,address)": [
        {
          "params": {
            "account": "The account that was checked.",
            "role": "The role the caller is missing."
          }
        }
      ]
    },
    "events": {
      "Transfer(address,address,uint256)": {
        "params": {
          "from": "The previous token owner.",
          "to": "The new token owner.",
          "tokenId": "The transferred token identifier."
        }
      }
    },
    "kind": "dev",
    "methods": {
      "deliver(address[],uint256[])": {
        "details": "Reverts with {NotRoleHolder} if the sender does not have the 'minter' role.Reverts with {ERC721BurntToken} if one of `tokenIds` has been previously burnt.",
        "params": {
          "recipients": "Addresses of the new tokens owners.",
          "tokenIds": "Identifiers of the tokens to mint."
        }
      },
      "initERC721DeliverableOnceStorage()": {
        "details": "Reverts with {NotProxyAdmin} if the sender is not the proxy admin."
      }
    },
    "title": "ERC721 Non-Fungible Token Standard, optional extension: Deliverable (facet version).",
    "version": 1
  },
  "userdoc": {
    "errors": {
      "ERC721BurntToken(uint256)": [
        {
          "notice": "Thrown when minting a token which has been burnt before (MintableOnce implementation)."
        }
      ],
      "ERC721ExistingToken(uint256)": [
        {
          "notice": "Thrown when minting a token that already exists."
        }
      ],
      "ERC721MintToAddressZero()": [
        {
          "notice": "Thrown when minting a token to the zero address."
        }
      ],
      "IllegalInterfaceId()": [
        {
          "notice": "Thrown when setting the illegal interfaceId 0xffffffff."
        }
      ],
      "InconsistentArrayLengths()": [
        {
          "notice": "Thrown when the multiple related arrays have different lengths."
        }
      ],
      "NotProxyAdmin(address)": [
        {
          "notice": "Thrown when an account is not the proxy admin but is required to."
        }
      ],
      "NotRoleHolder(bytes32,address)": [
        {
          "notice": "Thrown when an account does not have the required role."
        }
      ]
    },
    "events": {
      "Transfer(address,address,uint256)": {
        "notice": "Emitted when a token is transferred."
      }
    },
    "kind": "user",
    "methods": {
      "deliver(address[],uint256[])": {
        "notice": "Unsafely mints tokens to multiple recipients."
      },
      "initERC721DeliverableOnceStorage()": {
        "notice": "Marks the following ERC165 interface(s) as supported: ERC721Deliverable."
      }
    },
    "notice": "ERC721Deliverable implementation where burnt tokens cannot be minted again.",
    "version": 1
  },
  "storageLayout": {
    "storage": [],
    "types": null
  }
}