{
  "address": "0x3756c1C413D963f8D302c16c9215bFB0f41B0a07",
  "abi": [
    {
      "inputs": [
        {
          "internalType": "contract IForwarderRegistry",
          "name": "forwarderRegistry",
          "type": "address"
        }
      ],
      "stateMutability": "nonpayable",
      "type": "constructor"
    },
    {
      "inputs": [
        {
          "internalType": "address",
          "name": "sender",
          "type": "address"
        },
        {
          "internalType": "address",
          "name": "owner",
          "type": "address"
        },
        {
          "internalType": "uint256",
          "name": "tokenId",
          "type": "uint256"
        }
      ],
      "name": "ERC721NonApprovedForTransfer",
      "type": "error"
    },
    {
      "inputs": [
        {
          "internalType": "uint256",
          "name": "tokenId",
          "type": "uint256"
        }
      ],
      "name": "ERC721NonExistingToken",
      "type": "error"
    },
    {
      "inputs": [
        {
          "internalType": "address",
          "name": "account",
          "type": "address"
        },
        {
          "internalType": "uint256",
          "name": "tokenId",
          "type": "uint256"
        }
      ],
      "name": "ERC721NonOwnedToken",
      "type": "error"
    },
    {
      "inputs": [],
      "name": "ERC721TransferToAddressZero",
      "type": "error"
    },
    {
      "inputs": [],
      "name": "IllegalInterfaceId",
      "type": "error"
    },
    {
      "inputs": [
        {
          "internalType": "address",
          "name": "account",
          "type": "address"
        }
      ],
      "name": "NotProxyAdmin",
      "type": "error"
    },
    {
      "inputs": [
        {
          "internalType": "address",
          "name": "operator",
          "type": "address"
        }
      ],
      "name": "OperatorNotAllowed",
      "type": "error"
    },
    {
      "anonymous": false,
      "inputs": [
        {
          "indexed": true,
          "internalType": "address",
          "name": "from",
          "type": "address"
        },
        {
          "indexed": true,
          "internalType": "address",
          "name": "to",
          "type": "address"
        },
        {
          "indexed": true,
          "internalType": "uint256",
          "name": "tokenId",
          "type": "uint256"
        }
      ],
      "name": "Transfer",
      "type": "event"
    },
    {
      "inputs": [
        {
          "internalType": "address",
          "name": "from",
          "type": "address"
        },
        {
          "internalType": "address",
          "name": "to",
          "type": "address"
        },
        {
          "internalType": "uint256[]",
          "name": "tokenIds",
          "type": "uint256[]"
        }
      ],
      "name": "batchTransferFrom",
      "outputs": [],
      "stateMutability": "nonpayable",
      "type": "function"
    },
    {
      "inputs": [],
      "name": "initERC721BatchTransferStorage",
      "outputs": [],
      "stateMutability": "nonpayable",
      "type": "function"
    }
  ],
  "transactionHash": "0x9c7fde21b165f53d1a93f890b04beb6ef312817d169fc2c0940e9c0d7e7f2127",
  "args": [
    "0x316a472D084489CB6d4C66e5eB62aE3AdA17521e"
  ],
  "numDeployments": 1,
  "solcInputHash": "84bab0eb3356c2e3bedca0f2f5a163c5",
  "bytecode": "0x60a0604052348015600f57600080fd5b50604051610b53380380610b53833981016040819052602c91603c565b6001600160a01b0316608052606a565b600060208284031215604d57600080fd5b81516001600160a01b0381168114606357600080fd5b9392505050565b608051610ac761008c6000396000818161058f015261061d0152610ac76000f3fe608060405234801561001057600080fd5b50600436106100365760003560e01c8063684a78aa1461003b578063f3993d1114610045575b600080fd5b610043610058565b005b61004361005336600461096b565b61007b565b6100716100636100bc565b61006b6100cb565b906100ff565b610079610173565b565b60006100856100bc565b905061009b81866100946101a8565b91906101d6565b6100b581868686866100ab610218565b9493929190610246565b5050505050565b60006100c661054c565b905090565b6000806100f960017fb53127684a568b3173ae13b9f8a6016e243e63b6e8ee1178d6a717850b5d61046109ff565b92915050565b815473ffffffffffffffffffffffffffffffffffffffff82811691161461016f576040517f673a31a100000000000000000000000000000000000000000000000000000000815273ffffffffffffffffffffffffffffffffffffffff821660048201526024015b60405180910390fd5b5050565b6100797ff3993d110000000000000000000000000000000000000000000000000000000060016101a1610699565b91906106c7565b6000806100f960017f609b85bcafa81ecfaf3ff62cdde2c6c9082a68dbe4922f07399c706bdeb7cd316109ff565b8073ffffffffffffffffffffffffffffffffffffffff168273ffffffffffffffffffffffffffffffffffffffff16146102135761021383836107a3565b505050565b6000806100f960017fddf3ee18ae6d688373c219468f8be446e7ae82215f4779d821c7ea5e8c13c0c16109ff565b73ffffffffffffffffffffffffffffffffffffffff8316610293576040517f86c8706700000000000000000000000000000000000000000000000000000000815260040160405180910390fd5b60006102a08786886108ca565b90508160005b818110156104c45760008585838181106102c2576102c2610a39565b602090810292909201356000818152928d90526040909220549192505073ffffffffffffffffffffffffffffffffffffffff811661032f576040517fdd56047500000000000000000000000000000000000000000000000000000000815260048101839052602401610166565b73ffffffffffffffffffffffffffffffffffffffff89168173ffffffffffffffffffffffffffffffffffffffff16146103b3576040517f14dbb53600000000000000000000000000000000000000000000000000000000815273ffffffffffffffffffffffffffffffffffffffff8a16600482015260248101839052604401610166565b846104635774010000000000000000000000000000000000000000811615806104055750600082815260028c01602052604090205473ffffffffffffffffffffffffffffffffffffffff8b8116911614155b15610463576040517fa4a3018b00000000000000000000000000000000000000000000000000000000815273ffffffffffffffffffffffffffffffffffffffff808c1660048301528a16602482015260448101839052606401610166565b600082815260208c9052604080822073ffffffffffffffffffffffffffffffffffffffff808c16918290559151859391928d16917fddf252ad1be2c89b69c2b068fc378daa952ba7f163c4a11628f55a4df523b3ef91a450506001016102a6565b508473ffffffffffffffffffffffffffffffffffffffff168673ffffffffffffffffffffffffffffffffffffffff161415801561050057508015155b156105425773ffffffffffffffffffffffffffffffffffffffff808716600090815260018a016020526040808220805485900390559187168152208054820190555b5050505050505050565b60003332148061055c5750601836105b1561056657503390565b7fffffffffffffffffffffffffffffffffffffffffffffffffffffffffffffffec36013560601c7f000000000000000000000000000000000000000000000000000000000000000073ffffffffffffffffffffffffffffffffffffffff1633148061068857506040517f019a202800000000000000000000000000000000000000000000000000000000815273ffffffffffffffffffffffffffffffffffffffff82811660048301523360248301523060448301527f0000000000000000000000000000000000000000000000000000000000000000169063019a202890606401602060405180830381865afa158015610664573d6000803e3d6000fd5b505050506040513d601f19601f820116820180604052508101906106889190610a68565b1561069257919050565b3391505090565b6000806100f960017fca9d3e17f264b0f3984e2634e94adb37fa3e6a8103f06aeae6fa59e21c769f5e6109ff565b7c01000000000000000000000000000000000000000000000000000000007fffffffff0000000000000000000000000000000000000000000000000000000083160161073f576040517f72c683bb00000000000000000000000000000000000000000000000000000000815260040160405180910390fd5b7fffffffff00000000000000000000000000000000000000000000000000000000919091166000908152602092909252604090912080547fffffffffffffffffffffffffffffffffffffffffffffffffffffffffffffff0016911515919091179055565b815473ffffffffffffffffffffffffffffffffffffffff1680158015906107e1575060008173ffffffffffffffffffffffffffffffffffffffff163b115b15610213576040517fc617113400000000000000000000000000000000000000000000000000000000815230600482015273ffffffffffffffffffffffffffffffffffffffff838116602483015282169063c617113490604401602060405180830381865afa158015610858573d6000803e3d6000fd5b505050506040513d601f19601f8201168201806040525081019061087c9190610a68565b610213576040517fede71dcc00000000000000000000000000000000000000000000000000000000815273ffffffffffffffffffffffffffffffffffffffff83166004820152602401610166565b60008173ffffffffffffffffffffffffffffffffffffffff168373ffffffffffffffffffffffffffffffffffffffff16148061093a575073ffffffffffffffffffffffffffffffffffffffff808416600090815260038601602090815260408083209386168352929052205460ff165b949350505050565b803573ffffffffffffffffffffffffffffffffffffffff8116811461096657600080fd5b919050565b6000806000806060858703121561098157600080fd5b61098a85610942565b935061099860208601610942565b9250604085013567ffffffffffffffff8111156109b457600080fd5b8501601f810187136109c557600080fd5b803567ffffffffffffffff8111156109dc57600080fd5b8760208260051b84010111156109f157600080fd5b949793965060200194505050565b818103818111156100f9577f4e487b7100000000000000000000000000000000000000000000000000000000600052601160045260246000fd5b7f4e487b7100000000000000000000000000000000000000000000000000000000600052603260045260246000fd5b600060208284031215610a7a57600080fd5b81518015158114610a8a57600080fd5b939250505056fea2646970667358221220228bad523eed693b1710c401ea0311b0f2b120f6bdb0410b31ed34af7c99ec8b64736f6c634300081c0033",
  "devdoc": {
    "details": "This contract is to be used as a diamond facet (see ERC2535 Diamond Standard https://eips.ethereum.org/EIPS/eip-2535).Note: This facet depends on {ProxyAdminFacet}, {InterfaceDetectionFacet}  and {OperatorFiltererFacet}.",
    "errors": {
      "ERC721NonApprovedForTransfer(address,address,uint256)": [
        {
          "params": {
            "sender": "The message sender.",
            "tokenId": "The identifier of the token."
          }
        }
      ],
      "ERC721NonExistingToken(uint256)": [
        {
          "params": {
            "tokenId": "The identifier of the token that was checked."
          }
        }
      ],
      "ERC721NonOwnedToken(address,uint256)": [
        {
          "params": {
            "account": "The account that was expected to own the token.",
            "tokenId": "The identifier of the token."
          }
        }
      ],
      "NotProxyAdmin(address)": [
        {
          "params": {
            "account": "The account that was checked."
          }
        }
      ],
      "OperatorNotAllowed(address)": [
        {
          "params": {
            "operator": "The address that is not authorized."
          }
        }
      ]
    },
    "events": {
      "Transfer(address,address,uint256)": {
        "params": {
          "from": "The previous token owner.",
          "to": "The new token owner.",
          "tokenId": "The transferred token identifier."
        }
      }
    },
    "kind": "dev",
    "methods": {
      "batchTransferFrom(address,address,uint256[])": {
        "details": "Reverts with OperatorNotAllowed if the sender is not `from` and is not allowed by the operator registry.",
        "params": {
          "from": "Current tokens owner.",
          "to": "Address of the new token owner.",
          "tokenIds": "Identifiers of the tokens to transfer."
        }
      },
      "initERC721BatchTransferStorage()": {
        "details": "Reverts with {NotProxyAdmin} if the sender is not the proxy admin."
      }
    },
    "title": "ERC721 Non-Fungible Token Standard, optional extension: Batch Transfer with Operator Filterer (facet version).",
    "version": 1
  },
  "userdoc": {
    "errors": {
      "ERC721NonApprovedForTransfer(address,address,uint256)": [
        {
          "notice": "Thrown when a sender tries to transfer a token but is neither the owner nor approved by the owner."
        }
      ],
      "ERC721NonExistingToken(uint256)": [
        {
          "notice": "Thrown when a token does not exist but is required to."
        }
      ],
      "ERC721NonOwnedToken(address,uint256)": [
        {
          "notice": "Thrown when a token is not owned by the expected account."
        }
      ],
      "ERC721TransferToAddressZero()": [
        {
          "notice": "Thrown when transferring a token to the zero address."
        }
      ],
      "IllegalInterfaceId()": [
        {
          "notice": "Thrown when setting the illegal interfaceId 0xffffffff."
        }
      ],
      "NotProxyAdmin(address)": [
        {
          "notice": "Thrown when an account is not the proxy admin but is required to."
        }
      ],
      "OperatorNotAllowed(address)": [
        {
          "notice": "Thrown when transferring to or giving approval to a non-authorized operator."
        }
      ]
    },
    "events": {
      "Transfer(address,address,uint256)": {
        "notice": "Emitted when a token is transferred."
      }
    },
    "kind": "user",
    "methods": {
      "batchTransferFrom(address,address,uint256[])": {
        "notice": "Unsafely transfers a batch of tokens to a recipient."
      },
      "initERC721BatchTransferStorage()": {
        "notice": "Marks the following ERC165 interface(s) as supported: ERC721BatchTransfer."
      }
    },
    "version": 1
  },
  "storageLayout": {
    "storage": [],
    "types": null
  }
}