{
  "address": "0x69E3eA664Eebc6a4E820290d3288879096F8eB2F",
  "abi": [
    {
      "inputs": [
        {
          "internalType": "contract IForwarderRegistry",
          "name": "forwarderRegistry",
          "type": "address"
        }
      ],
      "stateMutability": "nonpayable",
      "type": "constructor"
    },
    {
      "inputs": [],
      "name": "FailedCall",
      "type": "error"
    },
    {
      "inputs": [],
      "name": "InconsistentArrayLengths",
      "type": "error"
    },
    {
      "inputs": [
        {
          "internalType": "address",
          "name": "tokenContract",
          "type": "address"
        }
      ],
      "name": "IncorrectTokenContractType",
      "type": "error"
    },
    {
      "inputs": [
        {
          "internalType": "uint256",
          "name": "balance",
          "type": "uint256"
        },
        {
          "internalType": "uint256",
          "name": "needed",
          "type": "uint256"
        }
      ],
      "name": "InsufficientBalance",
      "type": "error"
    },
    {
      "inputs": [
        {
          "internalType": "address",
          "name": "account",
          "type": "address"
        }
      ],
      "name": "NotContractOwner",
      "type": "error"
    },
    {
      "inputs": [
        {
          "internalType": "address",
          "name": "token",
          "type": "address"
        }
      ],
      "name": "SafeERC20FailedOperation",
      "type": "error"
    },
    {
      "inputs": [
        {
          "internalType": "address[]",
          "name": "accounts",
          "type": "address[]"
        },
        {
          "internalType": "contract IERC20[]",
          "name": "tokens",
          "type": "address[]"
        },
        {
          "internalType": "uint256[]",
          "name": "amounts",
          "type": "uint256[]"
        }
      ],
      "name": "recoverERC20s",
      "outputs": [],
      "stateMutability": "nonpayable",
      "type": "function"
    },
    {
      "inputs": [
        {
          "internalType": "address[]",
          "name": "accounts",
          "type": "address[]"
        },
        {
          "internalType": "contract IERC721[]",
          "name": "contracts",
          "type": "address[]"
        },
        {
          "internalType": "uint256[]",
          "name": "tokenIds",
          "type": "uint256[]"
        }
      ],
      "name": "recoverERC721s",
      "outputs": [],
      "stateMutability": "nonpayable",
      "type": "function"
    },
    {
      "inputs": [
        {
          "internalType": "address payable[]",
          "name": "accounts",
          "type": "address[]"
        },
        {
          "internalType": "uint256[]",
          "name": "amounts",
          "type": "uint256[]"
        }
      ],
      "name": "recoverETH",
      "outputs": [],
      "stateMutability": "nonpayable",
      "type": "function"
    }
  ],
  "transactionHash": "0x378a50131fc59a975730e379f3f72018b2e7082ba6377aa5c626b959c7bb12db",
  "args": [
    "0x316a472D084489CB6d4C66e5eB62aE3AdA17521e"
  ],
  "numDeployments": 1,
  "solcInputHash": "84bab0eb3356c2e3bedca0f2f5a163c5",
  "bytecode": "0x60a0604052348015600f57600080fd5b50604051610c3e380380610c3e833981016040819052602c91603c565b6001600160a01b0316608052606a565b600060208284031215604d57600080fd5b81516001600160a01b0381168114606357600080fd5b9392505050565b608051610bb261008c6000396000818161060d015261069b0152610bb26000f3fe608060405234801561001057600080fd5b50600436106100415760003560e01c806373c8a95814610046578063c3666c361461005b578063f7ba94bd1461006e575b600080fd5b610059610054366004610994565b610081565b005b610059610069366004610994565b6100b0565b61005961007c366004610a3a565b6100c9565b61009a61008c6100e6565b6100946100f5565b90610129565b6100a886868686868661019d565b505050505050565b6100bb61008c6100e6565b6100a8868686868686610288565b6100d461008c6100e6565b6100e08484848461051e565b50505050565b60006100f06105ca565b905090565b60008061012360017fc9ed16f33ab3a66c84bfd83099ccb2a8845871e2e1c1928f63797152f0fd54cd610aab565b92915050565b815473ffffffffffffffffffffffffffffffffffffffff828116911614610199576040517f2ef4875e00000000000000000000000000000000000000000000000000000000815273ffffffffffffffffffffffffffffffffffffffff821660048201526024015b60405180910390fd5b5050565b8483811415806101ad5750808214155b156101e4576040517f6582533600000000000000000000000000000000000000000000000000000000815260040160405180910390fd5b60005b8181101561027e5761027688888381811061020457610204610ae5565b90506020020160208101906102199190610b36565b85858481811061022b5761022b610ae5565b9050602002013588888581811061024457610244610ae5565b90506020020160208101906102599190610b36565b73ffffffffffffffffffffffffffffffffffffffff169190610717565b6001016101e7565b5050505050505050565b8483811415806102985750808214155b156102cf576040517f6582533600000000000000000000000000000000000000000000000000000000815260040160405180910390fd5b60005b8181101561027e5760008686838181106102ee576102ee610ae5565b90506020020160208101906103039190610b36565b6040517f01ffc9a70000000000000000000000000000000000000000000000000000000081527f80ac58cd00000000000000000000000000000000000000000000000000000000600482015290915073ffffffffffffffffffffffffffffffffffffffff8216906301ffc9a790602401602060405180830381865afa158015610390573d6000803e3d6000fd5b505050506040513d601f19601f820116820180604052508101906103b49190610b5a565b610402576040517f986b9f1f00000000000000000000000000000000000000000000000000000000815273ffffffffffffffffffffffffffffffffffffffff82166004820152602401610190565b86868381811061041457610414610ae5565b90506020020160208101906104299190610b36565b73ffffffffffffffffffffffffffffffffffffffff166342842e0e308b8b8681811061045757610457610ae5565b905060200201602081019061046c9190610b36565b88888781811061047e5761047e610ae5565b6040517fffffffff0000000000000000000000000000000000000000000000000000000060e088901b16815273ffffffffffffffffffffffffffffffffffffffff958616600482015294909316602485015250602090910201356044820152606401600060405180830381600087803b1580156104fa57600080fd5b505af115801561050e573d6000803e3d6000fd5b50505050508060010190506102d2565b82818114610558576040517f6582533600000000000000000000000000000000000000000000000000000000815260040160405180910390fd5b60005b818110156100a8576105c284848381811061057857610578610ae5565b9050602002013587878481811061059157610591610ae5565b90506020020160208101906105a69190610b36565b73ffffffffffffffffffffffffffffffffffffffff16906107a9565b60010161055b565b6000333214806105da5750601836105b156105e457503390565b7fffffffffffffffffffffffffffffffffffffffffffffffffffffffffffffffec36013560601c7f000000000000000000000000000000000000000000000000000000000000000073ffffffffffffffffffffffffffffffffffffffff1633148061070657506040517f019a202800000000000000000000000000000000000000000000000000000000815273ffffffffffffffffffffffffffffffffffffffff82811660048301523360248301523060448301527f0000000000000000000000000000000000000000000000000000000000000000169063019a202890606401602060405180830381865afa1580156106e2573d6000803e3d6000fd5b505050506040513d601f19601f820116820180604052508101906107069190610b5a565b1561071057919050565b3391505090565b6040805173ffffffffffffffffffffffffffffffffffffffff8416602482015260448082018490528251808303909101815260649091019091526020810180517bffffffffffffffffffffffffffffffffffffffffffffffffffffffff167fa9059cbb000000000000000000000000000000000000000000000000000000001790526107a490849061085f565b505050565b804710156107ec576040517fcf47918100000000000000000000000000000000000000000000000000000000815247600482015260248101829052604401610190565b6000808373ffffffffffffffffffffffffffffffffffffffff168360405160006040518083038185875af1925050503d8060008114610847576040519150601f19603f3d011682016040523d82523d6000602084013e61084c565b606091505b5091509150816100e0576100e081610903565b600080602060008451602086016000885af180610882576040513d6000823e3d81fd5b50506000513d9150811561089a5780600114156108b4565b73ffffffffffffffffffffffffffffffffffffffff84163b155b156100e0576040517f5274afe700000000000000000000000000000000000000000000000000000000815273ffffffffffffffffffffffffffffffffffffffff85166004820152602401610190565b8051156109135780518082602001fd5b6040517fd6bda27500000000000000000000000000000000000000000000000000000000815260040160405180910390fd5b50565b60008083601f84011261095a57600080fd5b50813567ffffffffffffffff81111561097257600080fd5b6020830191508360208260051b850101111561098d57600080fd5b9250929050565b600080600080600080606087890312156109ad57600080fd5b863567ffffffffffffffff8111156109c457600080fd5b6109d089828a01610948565b909750955050602087013567ffffffffffffffff8111156109f057600080fd5b6109fc89828a01610948565b909550935050604087013567ffffffffffffffff811115610a1c57600080fd5b610a2889828a01610948565b979a9699509497509295939492505050565b60008060008060408587031215610a5057600080fd5b843567ffffffffffffffff811115610a6757600080fd5b610a7387828801610948565b909550935050602085013567ffffffffffffffff811115610a9357600080fd5b610a9f87828801610948565b95989497509550505050565b81810381811115610123577f4e487b7100000000000000000000000000000000000000000000000000000000600052601160045260246000fd5b7f4e487b7100000000000000000000000000000000000000000000000000000000600052603260045260246000fd5b73ffffffffffffffffffffffffffffffffffffffff8116811461094557600080fd5b600060208284031215610b4857600080fd5b8135610b5381610b14565b9392505050565b600060208284031215610b6c57600080fd5b81518015158114610b5357600080fdfea264697066735822122098a10242da3550abfd90155c6e7d36a8accb2a20c0cc5ea03f29205097eb2a1164736f6c634300081c0033",
  "devdoc": {
    "details": "This contract is to be used as a diamond facet (see ERC2535 Diamond Standard https://eips.ethereum.org/EIPS/eip-2535).Note: This facet depends on {ContractOwnershipFacet}.",
    "errors": {
      "FailedCall()": [
        {
          "details": "A call to an address target failed. The target may have reverted."
        }
      ],
      "IncorrectTokenContractType(address)": [
        {
          "params": {
            "tokenContract": "The token contract being recovered."
          }
        }
      ],
      "InsufficientBalance(uint256,uint256)": [
        {
          "details": "The ETH balance of the account is not enough to perform the operation."
        }
      ],
      "NotContractOwner(address)": [
        {
          "params": {
            "account": "The account that was checked."
          }
        }
      ],
      "SafeERC20FailedOperation(address)": [
        {
          "details": "An operation with an ERC-20 token failed."
        }
      ]
    },
    "kind": "dev",
    "methods": {
      "recoverERC20s(address[],address[],uint256[])": {
        "details": "Reverts with {NotContractOwner} if the sender is not the contract owner.Reverts with {InconsistentArrayLengths} if `accounts`, `tokens` and `amounts` do not have the same length.Reverts if one of the ERC20 transfers fails for any reason.",
        "params": {
          "accounts": "the list of accounts to transfer the tokens to.",
          "amounts": "the list of token amounts to transfer.",
          "tokens": "the list of ERC20 token addresses."
        }
      },
      "recoverERC721s(address[],address[],uint256[])": {
        "details": "Reverts with {NotContractOwner} if the sender is not the contract owner.Reverts with {InconsistentArrayLengths} if `accounts`, `contracts` and `amounts` do not have the same length.Reverts if one of the ERC721 transfers fails for any reason.",
        "params": {
          "accounts": "the list of accounts to transfer the tokens to.",
          "contracts": "the list of ERC721 contract addresses.",
          "tokenIds": "the list of token ids to transfer."
        }
      },
      "recoverETH(address[],uint256[])": {
        "details": "Reverts with {NotContractOwner} if the sender is not the contract owner.Reverts with {InconsistentArrayLengths} `accounts` and `amounts` do not have the same length.Reverts if one of the ETH transfers fails for any reason.",
        "params": {
          "accounts": "the list of accounts to transfer the tokens to.",
          "amounts": "the list of token amounts to transfer."
        }
      }
    },
    "title": "Recovery mechanism for ETH/ERC20/ERC721 tokens accidentally sent to this contract (facet version).",
    "version": 1
  },
  "userdoc": {
    "errors": {
      "InconsistentArrayLengths()": [
        {
          "notice": "Thrown when the multiple related arrays have different lengths."
        }
      ],
      "IncorrectTokenContractType(address)": [
        {
          "notice": "Thrown when trying to recover a token of the wrong contract type."
        }
      ],
      "NotContractOwner(address)": [
        {
          "notice": "Thrown when an account is not the contract owner but is required to."
        }
      ]
    },
    "kind": "user",
    "methods": {
      "recoverERC20s(address[],address[],uint256[])": {
        "notice": "Extract ERC20 tokens which were accidentally sent to the contract to a list of accounts."
      },
      "recoverERC721s(address[],address[],uint256[])": {
        "notice": "Extract ERC721 tokens which were accidentally sent to the contract to a list of accounts."
      },
      "recoverETH(address[],uint256[])": {
        "notice": "Extract ETH tokens which were accidentally sent to the contract to a list of accounts."
      }
    },
    "version": 1
  },
  "storageLayout": {
    "storage": [],
    "types": null
  }
}