{
  "address": "0x6065Eb8281eB56a03c9B532Ad202F688730A4E94",
  "abi": [
    {
      "inputs": [
        {
          "internalType": "contract IForwarderRegistry",
          "name": "forwarderRegistry",
          "type": "address"
        }
      ],
      "stateMutability": "nonpayable",
      "type": "constructor"
    },
    {
      "inputs": [
        {
          "internalType": "uint256",
          "name": "tokenId",
          "type": "uint256"
        }
      ],
      "name": "ERC721NonExistingToken",
      "type": "error"
    },
    {
      "inputs": [],
      "name": "IllegalInterfaceId",
      "type": "error"
    },
    {
      "inputs": [
        {
          "internalType": "uint256",
          "name": "currentPhase",
          "type": "uint256"
        },
        {
          "internalType": "uint256",
          "name": "newPhase",
          "type": "uint256"
        }
      ],
      "name": "InitializationPhaseAlreadyReached",
      "type": "error"
    },
    {
      "inputs": [
        {
          "internalType": "address",
          "name": "account",
          "type": "address"
        }
      ],
      "name": "NotProxyAdmin",
      "type": "error"
    },
    {
      "inputs": [
        {
          "internalType": "string",
          "name": "name",
          "type": "string"
        },
        {
          "internalType": "string",
          "name": "symbol",
          "type": "string"
        },
        {
          "internalType": "contract ITokenMetadataResolver",
          "name": "metadataResolver",
          "type": "address"
        }
      ],
      "name": "initERC721MetadataStorage",
      "outputs": [],
      "stateMutability": "nonpayable",
      "type": "function"
    },
    {
      "inputs": [],
      "name": "metadataResolver",
      "outputs": [
        {
          "internalType": "contract ITokenMetadataResolver",
          "name": "tokenMetadataResolver",
          "type": "address"
        }
      ],
      "stateMutability": "view",
      "type": "function"
    },
    {
      "inputs": [],
      "name": "name",
      "outputs": [
        {
          "internalType": "string",
          "name": "tokenName",
          "type": "string"
        }
      ],
      "stateMutability": "view",
      "type": "function"
    },
    {
      "inputs": [],
      "name": "symbol",
      "outputs": [
        {
          "internalType": "string",
          "name": "tokenSymbol",
          "type": "string"
        }
      ],
      "stateMutability": "view",
      "type": "function"
    },
    {
      "inputs": [
        {
          "internalType": "uint256",
          "name": "tokenId",
          "type": "uint256"
        }
      ],
      "name": "tokenURI",
      "outputs": [
        {
          "internalType": "string",
          "name": "uri",
          "type": "string"
        }
      ],
      "stateMutability": "view",
      "type": "function"
    }
  ],
  "transactionHash": "0x72d90f198f7db7e386598cd64e1a1d2cd7ba2d5d3e9307856f26659ace530aa5",
  "args": [
    "0x3f547F87251710F70109Ae0409d461b270709693"
  ],
  "numDeployments": 1,
  "solcInputHash": "143cd077c882cb4b84a4896b7dea96de",
  "bytecode": "0x60a060405234801561001057600080fd5b50604051610d57380380610d5783398101604081905261002f91610040565b6001600160a01b0316608052610070565b60006020828403121561005257600080fd5b81516001600160a01b038116811461006957600080fd5b9392505050565b608051610cc56100926000396000818161039101526104190152610cc56000f3fe608060405234801561001057600080fd5b50600436106100675760003560e01c8063a0c76f6211610050578063a0c76f6214610092578063c87b56dd146100bf578063fa6d22ca146100d257600080fd5b806306fdde031461006c57806395d89b411461008a575b600080fd5b6100746100e7565b604051610081919061082b565b60405180910390f35b6100746100f6565b61009a610100565b60405173ffffffffffffffffffffffffffffffffffffffff9091168152602001610081565b6100746100cd36600461087c565b61012a565b6100e56100e03660046108de565b610159565b005b60606100f161019b565b905090565b60606100f16101ad565b60006100f161010d6101bf565b6002015473ffffffffffffffffffffffffffffffffffffffff1690565b606061013e826101386101ed565b9061021b565b50610153308361014c6101bf565b9190610286565b92915050565b61017261016461034e565b61016c610495565b906104c3565b61018c85858585856101826101bf565b9493929190610532565b6101946105d3565b5050505050565b60606100f16101a86101bf565b61060a565b60606100f16101ba6101bf565b6106a0565b60008061015360017f7ea68fd2dcf1c056b94db6a0a537aa80d26fa9ab1eacd85da1ba0b61b7e7a8a561097b565b60008061015360017fddf3ee18ae6d688373c219468f8be446e7ae82215f4779d821c7ea5e8c13c0c161097b565b60008181526020839052604081205473ffffffffffffffffffffffffffffffffffffffff811661027f576040517fdd560475000000000000000000000000000000000000000000000000000000008152600481018490526024015b60405180910390fd5b9392505050565b60028301546040517ff724dad700000000000000000000000000000000000000000000000000000000815273ffffffffffffffffffffffffffffffffffffffff848116600483015260248201849052606092169063f724dad790604401600060405180830381865afa158015610300573d6000803e3d6000fd5b505050506040513d6000823e601f3d9081017fffffffffffffffffffffffffffffffffffffffffffffffffffffffffffffffe016820160405261034691908101906109e4565b949350505050565b60003332148061035e5750601836105b1561036857503390565b7fffffffffffffffffffffffffffffffffffffffffffffffffffffffffffffffec36013560601c7f000000000000000000000000000000000000000000000000000000000000000073ffffffffffffffffffffffffffffffffffffffff1633148061048457506040517f8929a8ca00000000000000000000000000000000000000000000000000000000815273ffffffffffffffffffffffffffffffffffffffff82811660048301523360248301527f00000000000000000000000000000000000000000000000000000000000000001690638929a8ca90604401602060405180830381865afa158015610460573d6000803e3d6000fd5b505050506040513d601f19601f820116820180604052508101906104849190610aaf565b1561048e57919050565b3391505090565b60008061015360017fb53127684a568b3173ae13b9f8a6016e243e63b6e8ee1178d6a717850b5d610461097b565b815473ffffffffffffffffffffffffffffffffffffffff82811691161461052e576040517f673a31a100000000000000000000000000000000000000000000000000000000815273ffffffffffffffffffffffffffffffffffffffff82166004820152602401610276565b5050565b61056761056060017f92f72593ca50a0096f68ee94e7000db40ed086164b695855e2250750b8bfaf5961097b565b60016106b1565b85610573858783610b75565b5060018601610583838583610b75565b5060029590950180547fffffffffffffffffffffffff00000000000000000000000000000000000000001673ffffffffffffffffffffffffffffffffffffffff9096169590951790945550505050565b6106087f5b5e139f0000000000000000000000000000000000000000000000000000000060016106016106fd565b919061072b565b565b606081600001805461061b90610ad1565b80601f016020809104026020016040519081016040528092919081815260200182805461064790610ad1565b80156106945780601f1061066957610100808354040283529160200191610694565b820191906000526020600020905b81548152906001019060200180831161067757829003601f168201915b50505050509050919050565b606081600101805461061b90610ad1565b815482908281106106f8576040517fbf0c18ec0000000000000000000000000000000000000000000000000000000081526004810182905260248101849052604401610276565b505550565b60008061015360017fca9d3e17f264b0f3984e2634e94adb37fa3e6a8103f06aeae6fa59e21c769f5e61097b565b7c01000000000000000000000000000000000000000000000000000000007fffffffff000000000000000000000000000000000000000000000000000000008316016107a3576040517f72c683bb00000000000000000000000000000000000000000000000000000000815260040160405180910390fd5b7fffffffff00000000000000000000000000000000000000000000000000000000919091166000908152602092909252604090912080547fffffffffffffffffffffffffffffffffffffffffffffffffffffffffffffff0016911515919091179055565b60005b8381101561082257818101518382015260200161080a565b50506000910152565b602081526000825180602084015261084a816040850160208701610807565b601f017fffffffffffffffffffffffffffffffffffffffffffffffffffffffffffffffe0169190910160400192915050565b60006020828403121561088e57600080fd5b5035919050565b60008083601f8401126108a757600080fd5b50813567ffffffffffffffff8111156108bf57600080fd5b6020830191508360208285010111156108d757600080fd5b9250929050565b6000806000806000606086880312156108f657600080fd5b853567ffffffffffffffff8082111561090e57600080fd5b61091a89838a01610895565b9097509550602088013591508082111561093357600080fd5b5061094088828901610895565b909450925050604086013573ffffffffffffffffffffffffffffffffffffffff8116811461096d57600080fd5b809150509295509295909350565b81810381811115610153577f4e487b7100000000000000000000000000000000000000000000000000000000600052601160045260246000fd5b7f4e487b7100000000000000000000000000000000000000000000000000000000600052604160045260246000fd5b6000602082840312156109f657600080fd5b815167ffffffffffffffff80821115610a0e57600080fd5b818401915084601f830112610a2257600080fd5b815181811115610a3457610a346109b5565b604051601f82017fffffffffffffffffffffffffffffffffffffffffffffffffffffffffffffffe0908116603f01168101908382118183101715610a7a57610a7a6109b5565b81604052828152876020848701011115610a9357600080fd5b610aa4836020830160208801610807565b979650505050505050565b600060208284031215610ac157600080fd5b8151801515811461027f57600080fd5b600181811c90821680610ae557607f821691505b602082108103610b1e577f4e487b7100000000000000000000000000000000000000000000000000000000600052602260045260246000fd5b50919050565b601f821115610b70576000816000526020600020601f850160051c81016020861015610b4d5750805b601f850160051c820191505b81811015610b6c57828155600101610b59565b5050505b505050565b67ffffffffffffffff831115610b8d57610b8d6109b5565b610ba183610b9b8354610ad1565b83610b24565b6000601f841160018114610bf35760008515610bbd5750838201355b7fffffffffffffffffffffffffffffffffffffffffffffffffffffffffffffffff600387901b1c1916600186901b178355610194565b6000838152602090207fffffffffffffffffffffffffffffffffffffffffffffffffffffffffffffffe0861690835b82811015610c425786850135825560209485019460019092019101610c22565b5086821015610c7d577fffffffffffffffffffffffffffffffffffffffffffffffffffffffffffffffff60f88860031b161c19848701351681555b505060018560011b018355505050505056fea264697066735822122048ef287163f65ad96faa599ec6944ba0c95a8e71b1f84c29594f568cdf2298c164736f6c63430008160033",
  "devdoc": {
    "details": "This contract is to be used as a diamond facet (see ERC2535 Diamond Standard https://eips.ethereum.org/EIPS/eip-2535).Note: This facet depends on {ProxyAdminFacet} and {InterfaceDetectionFacet}.",
    "errors": {
      "ERC721NonExistingToken(uint256)": [
        {
          "params": {
            "tokenId": "The identifier of the token that was checked."
          }
        }
      ],
      "InitializationPhaseAlreadyReached(uint256,uint256)": [
        {
          "params": {
            "currentPhase": "The current phase.",
            "newPhase": "The new phase trying to be set."
          }
        }
      ],
      "NotProxyAdmin(address)": [
        {
          "params": {
            "account": "The account that was checked."
          }
        }
      ]
    },
    "kind": "dev",
    "methods": {
      "initERC721MetadataStorage(string,string,address)": {
        "details": "Reverts with {NotProxyAdmin} if the sender is not the proxy admin.Reverts with {InitializationPhaseAlreadyReached} if the proxy initialization phase is set to `1` or above.",
        "params": {
          "metadataResolver": "The address of the metadata resolver contract.",
          "name": "The name of the token.",
          "symbol": "The symbol of the token."
        }
      },
      "metadataResolver()": {
        "returns": {
          "tokenMetadataResolver": "The token metadata resolver address."
        }
      },
      "name()": {
        "returns": {
          "tokenName": "The name of the token."
        }
      },
      "symbol()": {
        "returns": {
          "tokenSymbol": "The symbol of the token."
        }
      },
      "tokenURI(uint256)": {
        "details": "Reverts if `tokenId` does not exist.",
        "params": {
          "tokenId": "The token identifier."
        },
        "returns": {
          "uri": "The metadata URI for the token identifier."
        }
      }
    },
    "title": "ERC721 Non-Fungible Token Standard, optional extension: Metadata (facet version).",
    "version": 1
  },
  "userdoc": {
    "errors": {
      "ERC721NonExistingToken(uint256)": [
        {
          "notice": "Thrown when a token does not exist but is required to."
        }
      ],
      "IllegalInterfaceId()": [
        {
          "notice": "Thrown when setting the illegal interfaceId 0xffffffff."
        }
      ],
      "InitializationPhaseAlreadyReached(uint256,uint256)": [
        {
          "notice": "Emitted when trying to set a phase value that has already been reached."
        }
      ],
      "NotProxyAdmin(address)": [
        {
          "notice": "Thrown when an account is not the proxy admin but is required to."
        }
      ]
    },
    "kind": "user",
    "methods": {
      "initERC721MetadataStorage(string,string,address)": {
        "notice": "Initializes the storage with the contract metadata.Sets the proxy initialization phase to `1`.Marks the following ERC165 interfaces as supported: ERC721Metadata."
      },
      "metadataResolver()": {
        "notice": "Gets the token metadata resolver address."
      },
      "name()": {
        "notice": "Gets the name of the token. E.g. \"My Token\"."
      },
      "symbol()": {
        "notice": "Gets the symbol of the token. E.g. \"TOK\"."
      },
      "tokenURI(uint256)": {
        "notice": "Gets the metadata URI for a token identifier."
      }
    },
    "notice": "This contracts uses an external resolver for managing individual tokens metadata.",
    "version": 1
  },
  "storageLayout": {
    "storage": [],
    "types": null
  }
}