{
  "address": "0x54C2120615f1B0b85B69DfE95fD5822DD66F63A0",
  "abi": [
    {
      "inputs": [
        {
          "internalType": "contract IForwarderRegistry",
          "name": "forwarderRegistry",
          "type": "address"
        }
      ],
      "stateMutability": "nonpayable",
      "type": "constructor"
    },
    {
      "inputs": [
        {
          "internalType": "uint256",
          "name": "currentPhase",
          "type": "uint256"
        },
        {
          "internalType": "uint256",
          "name": "newPhase",
          "type": "uint256"
        }
      ],
      "name": "InitializationPhaseAlreadyReached",
      "type": "error"
    },
    {
      "inputs": [
        {
          "internalType": "address",
          "name": "account",
          "type": "address"
        }
      ],
      "name": "NotContractOwner",
      "type": "error"
    },
    {
      "inputs": [
        {
          "internalType": "address",
          "name": "account",
          "type": "address"
        }
      ],
      "name": "NotProxyAdmin",
      "type": "error"
    },
    {
      "inputs": [],
      "name": "ZeroAddressPayoutWallet",
      "type": "error"
    },
    {
      "anonymous": false,
      "inputs": [
        {
          "indexed": false,
          "internalType": "address",
          "name": "payoutWallet",
          "type": "address"
        }
      ],
      "name": "PayoutWalletSet",
      "type": "event"
    },
    {
      "inputs": [
        {
          "internalType": "address payable",
          "name": "initialPayoutWallet",
          "type": "address"
        }
      ],
      "name": "initPayoutWalletStorage",
      "outputs": [],
      "stateMutability": "nonpayable",
      "type": "function"
    },
    {
      "inputs": [],
      "name": "payoutWallet",
      "outputs": [
        {
          "internalType": "address payable",
          "name": "wallet",
          "type": "address"
        }
      ],
      "stateMutability": "view",
      "type": "function"
    },
    {
      "inputs": [
        {
          "internalType": "address payable",
          "name": "newPayoutWallet",
          "type": "address"
        }
      ],
      "name": "setPayoutWallet",
      "outputs": [],
      "stateMutability": "nonpayable",
      "type": "function"
    }
  ],
  "transactionHash": "0x0901c5fe4a79b5ae4af2cc0b46efc4cf9d764174e585b6a6d2bdf73084a49aa0",
  "args": [
    "0x316a472D084489CB6d4C66e5eB62aE3AdA17521e"
  ],
  "numDeployments": 1,
  "solcInputHash": "84bab0eb3356c2e3bedca0f2f5a163c5",
  "bytecode": "0x60a0604052348015600f57600080fd5b50604051610694380380610694833981016040819052602c91603c565b6001600160a01b0316608052606a565b600060208284031215604d57600080fd5b81516001600160a01b0381168114606357600080fd5b9392505050565b60805161060861008c600039600081816103e3015261047101526106086000f3fe608060405234801561001057600080fd5b50600436106100415760003560e01c80636b8f9c43146100465780638488bb4e1461005b578063a556589a1461008c575b600080fd5b610059610054366004610539565b61009f565b005b6100636100cd565b60405173ffffffffffffffffffffffffffffffffffffffff909116815260200160405180910390f35b61005961009a366004610539565b6100f9565b6100b86100aa610124565b6100b261012e565b90610162565b6100ca816100c46101d6565b90610204565b50565b60006100f46100da6101d6565b5473ffffffffffffffffffffffffffffffffffffffff1690565b905090565b610112610104610124565b61010c6102c8565b906102f6565b6100ca8161011e6101d6565b90610361565b60006100f46103a0565b60008061015c60017fc9ed16f33ab3a66c84bfd83099ccb2a8845871e2e1c1928f63797152f0fd54cd610576565b92915050565b815473ffffffffffffffffffffffffffffffffffffffff8281169116146101d2576040517f2ef4875e00000000000000000000000000000000000000000000000000000000815273ffffffffffffffffffffffffffffffffffffffff821660048201526024015b60405180910390fd5b5050565b60008061015c60017f4fb5f8cdfbce77f22b0931a39e9f476a60a0f66524b2f379e96485471eb700ae610576565b73ffffffffffffffffffffffffffffffffffffffff8116610251576040517f40b539cf00000000000000000000000000000000000000000000000000000000815260040160405180910390fd5b81547fffffffffffffffffffffffff00000000000000000000000000000000000000001673ffffffffffffffffffffffffffffffffffffffff821690811783556040519081527fdd880d24a789958a6398c99c2e54ce31bc10a638cbc42f7dd34285479ae0f8559060200160405180910390a15050565b60008061015c60017fb53127684a568b3173ae13b9f8a6016e243e63b6e8ee1178d6a717850b5d6104610576565b815473ffffffffffffffffffffffffffffffffffffffff8281169116146101d2576040517f673a31a100000000000000000000000000000000000000000000000000000000815273ffffffffffffffffffffffffffffffffffffffff821660048201526024016101c9565b61039661038f60017f03497821c97e7d2bd8e34992e1a723a2edcf97a05eef937ff657491b38cca19e610576565b60016104ed565b6101d28282610204565b6000333214806103b05750601836105b156103ba57503390565b7fffffffffffffffffffffffffffffffffffffffffffffffffffffffffffffffec36013560601c7f000000000000000000000000000000000000000000000000000000000000000073ffffffffffffffffffffffffffffffffffffffff163314806104dc57506040517f019a202800000000000000000000000000000000000000000000000000000000815273ffffffffffffffffffffffffffffffffffffffff82811660048301523360248301523060448301527f0000000000000000000000000000000000000000000000000000000000000000169063019a202890606401602060405180830381865afa1580156104b8573d6000803e3d6000fd5b505050506040513d601f19601f820116820180604052508101906104dc91906105b0565b156104e657919050565b3391505090565b81548290828110610534576040517fbf0c18ec00000000000000000000000000000000000000000000000000000000815260048101829052602481018490526044016101c9565b505550565b60006020828403121561054b57600080fd5b813573ffffffffffffffffffffffffffffffffffffffff8116811461056f57600080fd5b9392505050565b8181038181111561015c577f4e487b7100000000000000000000000000000000000000000000000000000000600052601160045260246000fd5b6000602082840312156105c257600080fd5b8151801515811461056f57600080fdfea26469706673582212207abdb2b24eaa802d2cd9cbcefb1a4bfadfc9aaa6d3508e242783b90e6a34ff6f64736f6c634300081c0033",
  "devdoc": {
    "details": "This contract is to be used as a diamond facet (see ERC2535 Diamond Standard https://eips.ethereum.org/EIPS/eip-2535).Note: This facet depends on {ProxyAdminFacet} and {ContractOwnershipFacet}.",
    "errors": {
      "InitializationPhaseAlreadyReached(uint256,uint256)": [
        {
          "params": {
            "currentPhase": "The current phase.",
            "newPhase": "The new phase trying to be set."
          }
        }
      ],
      "NotContractOwner(address)": [
        {
          "params": {
            "account": "The account that was checked."
          }
        }
      ],
      "NotProxyAdmin(address)": [
        {
          "params": {
            "account": "The account that was checked."
          }
        }
      ]
    },
    "events": {
      "PayoutWalletSet(address)": {
        "params": {
          "payoutWallet": "the new payout wallet address."
        }
      }
    },
    "kind": "dev",
    "methods": {
      "initPayoutWalletStorage(address)": {
        "details": "Reverts with {NotProxyAdmin} if the sender is not the proxy admin.Reverts with {InitializationPhaseAlreadyReached} if the proxy initialization phase is set to `1` or above.Reverts with {ZeroAddressPayoutWallet} if `initialPayoutWallet` is the zero address.Emits a {PayoutWalletSet} event.",
        "params": {
          "initialPayoutWallet": "The initial payout wallet."
        }
      },
      "payoutWallet()": {
        "returns": {
          "wallet": "The payout wallet."
        }
      },
      "setPayoutWallet(address)": {
        "details": "Reverts with {NotContractOwner} if the sender is not the contract owner.Reverts with {ZeroAddressPayoutWallet} if `newPayoutWallet` is the zero address.Emits a {PayoutWalletSet} event.",
        "params": {
          "newPayoutWallet": "The payout wallet."
        }
      }
    },
    "title": "Payout wallet (facet version).",
    "version": 1
  },
  "userdoc": {
    "errors": {
      "InitializationPhaseAlreadyReached(uint256,uint256)": [
        {
          "notice": "Emitted when trying to set a phase value that has already been reached."
        }
      ],
      "NotContractOwner(address)": [
        {
          "notice": "Thrown when an account is not the contract owner but is required to."
        }
      ],
      "NotProxyAdmin(address)": [
        {
          "notice": "Thrown when an account is not the proxy admin but is required to."
        }
      ],
      "ZeroAddressPayoutWallet()": [
        {
          "notice": "Thrown when setting the zero address as the payout wallet."
        }
      ]
    },
    "events": {
      "PayoutWalletSet(address)": {
        "notice": "Emitted when the payout wallet address changes."
      }
    },
    "kind": "user",
    "methods": {
      "initPayoutWalletStorage(address)": {
        "notice": "Initializes the storage with an initial payout wallet.Sets the proxy initialization phase to `1`."
      },
      "payoutWallet()": {
        "notice": "Gets the payout wallet."
      },
      "setPayoutWallet(address)": {
        "notice": "Sets the payout wallet."
      }
    },
    "version": 1
  },
  "storageLayout": {
    "storage": [],
    "types": null
  }
}