{
  "address": "0x8C9C12dE0BFE03085EcE30A583dEC1328046f540",
  "abi": [
    {
      "inputs": [],
      "name": "InconsistentArrayLengths",
      "type": "error"
    },
    {
      "inputs": [
        {
          "internalType": "address",
          "name": "targetContract",
          "type": "address"
        },
        {
          "internalType": "bytes32",
          "name": "role",
          "type": "bytes32"
        },
        {
          "internalType": "address",
          "name": "account",
          "type": "address"
        }
      ],
      "name": "NotTargetContractRoleHolder",
      "type": "error"
    },
    {
      "inputs": [
        {
          "internalType": "address",
          "name": "targetContract",
          "type": "address"
        }
      ],
      "name": "TargetIsNotAContract",
      "type": "error"
    },
    {
      "inputs": [],
      "name": "MINTER_ROLE",
      "outputs": [
        {
          "internalType": "bytes32",
          "name": "",
          "type": "bytes32"
        }
      ],
      "stateMutability": "view",
      "type": "function"
    },
    {
      "inputs": [
        {
          "internalType": "address",
          "name": "tokenContract",
          "type": "address"
        },
        {
          "internalType": "uint256[]",
          "name": "tokenIds",
          "type": "uint256[]"
        },
        {
          "internalType": "string[]",
          "name": "tokenURIs",
          "type": "string[]"
        }
      ],
      "name": "batchSetTokenURI",
      "outputs": [],
      "stateMutability": "nonpayable",
      "type": "function"
    },
    {
      "inputs": [
        {
          "internalType": "address",
          "name": "",
          "type": "address"
        },
        {
          "internalType": "uint256",
          "name": "",
          "type": "uint256"
        }
      ],
      "name": "metadataURI",
      "outputs": [
        {
          "internalType": "string",
          "name": "",
          "type": "string"
        }
      ],
      "stateMutability": "view",
      "type": "function"
    },
    {
      "inputs": [
        {
          "internalType": "address",
          "name": "tokenContract",
          "type": "address"
        },
        {
          "internalType": "uint256",
          "name": "tokenId",
          "type": "uint256"
        },
        {
          "internalType": "string",
          "name": "tokenURI",
          "type": "string"
        }
      ],
      "name": "setTokenURI",
      "outputs": [],
      "stateMutability": "nonpayable",
      "type": "function"
    },
    {
      "inputs": [
        {
          "internalType": "address",
          "name": "tokenContract",
          "type": "address"
        },
        {
          "internalType": "uint256",
          "name": "tokenId",
          "type": "uint256"
        }
      ],
      "name": "tokenMetadataURI",
      "outputs": [
        {
          "internalType": "string",
          "name": "tokenURI",
          "type": "string"
        }
      ],
      "stateMutability": "view",
      "type": "function"
    }
  ],
  "transactionHash": "0xb71ac739a27150e046a2d10291943d5d455ff4edfb02a38a8a836d3e6da6aa52",
  "args": [],
  "numDeployments": 1,
  "solcInputHash": "ce5541289a12a5ad82ba0acfc6c277fa",
  "bytecode": "0x608060405234801561001057600080fd5b50610a69806100206000396000f3fe608060405234801561001057600080fd5b50600436106100675760003560e01c8063626dc9a811610050578063626dc9a8146100aa578063d5391393146100bd578063f724dad7146100f257600080fd5b8063361953a31461006c5780634e5786bf14610095575b600080fd5b61007f61007a3660046105a2565b610105565b60405161008c91906105cc565b60405180910390f35b6100a86100a3366004610638565b6101a7565b005b6100a86100b836600461070b565b610228565b6100e47f6d696e746572000000000000000000000000000000000000000000000000000081565b60405190815260200161008c565b61007f6101003660046105a2565b61033d565b6000602081815292815260408082209093529081522080546101269061078c565b80601f01602080910402602001604051908101604052809291908181526020018280546101529061078c565b801561019f5780601f106101745761010080835404028352916020019161019f565b820191906000526020600020905b81548152906001019060200180831161018257829003601f168201915b505050505081565b6101e873ffffffffffffffffffffffffffffffffffffffff85167f6d696e746572000000000000000000000000000000000000000000000000000033610400565b73ffffffffffffffffffffffffffffffffffffffff8416600090815260208181526040808320868452909152902061022182848361085c565b5050505050565b82818114610262576040517f6582533600000000000000000000000000000000000000000000000000000000815260040160405180910390fd5b6102a373ffffffffffffffffffffffffffffffffffffffff87167f6d696e746572000000000000000000000000000000000000000000000000000033610400565b60005b818114610334578383828181106102bf576102bf610976565b90506020028101906102d191906109a5565b73ffffffffffffffffffffffffffffffffffffffff891660009081526020819052604081209089898681811061030957610309610976565b905060200201358152602001908152602001600020918261032b92919061085c565b506001016102a6565b50505050505050565b73ffffffffffffffffffffffffffffffffffffffff8216600090815260208181526040808320848452909152902080546060919061037a9061078c565b80601f01602080910402602001604051908101604052809291908181526020018280546103a69061078c565b80156103f35780601f106103c8576101008083540402835291602001916103f3565b820191906000526020600020905b8154815290600101906020018083116103d657829003601f168201915b5050505050905092915050565b61040b838383610472565b61046d576040517f7a436c1600000000000000000000000000000000000000000000000000000000815273ffffffffffffffffffffffffffffffffffffffff808516600483015260248201849052821660448201526064015b60405180910390fd5b505050565b600073ffffffffffffffffffffffffffffffffffffffff84163b6104da576040517f73a5b5e300000000000000000000000000000000000000000000000000000000815273ffffffffffffffffffffffffffffffffffffffff85166004820152602401610464565b6040517f91d148540000000000000000000000000000000000000000000000000000000081526004810184905273ffffffffffffffffffffffffffffffffffffffff83811660248301528516906391d1485490604401602060405180830381865afa15801561054d573d6000803e3d6000fd5b505050506040513d601f19601f820116820180604052508101906105719190610a0a565b949350505050565b803573ffffffffffffffffffffffffffffffffffffffff8116811461059d57600080fd5b919050565b600080604083850312156105b557600080fd5b6105be83610579565b946020939093013593505050565b600060208083528351808285015260005b818110156105f9578581018301518582016040015282016105dd565b5060006040828601015260407fffffffffffffffffffffffffffffffffffffffffffffffffffffffffffffffe0601f8301168501019250505092915050565b6000806000806060858703121561064e57600080fd5b61065785610579565b935060208501359250604085013567ffffffffffffffff8082111561067b57600080fd5b818701915087601f83011261068f57600080fd5b81358181111561069e57600080fd5b8860208285010111156106b057600080fd5b95989497505060200194505050565b60008083601f8401126106d157600080fd5b50813567ffffffffffffffff8111156106e957600080fd5b6020830191508360208260051b850101111561070457600080fd5b9250929050565b60008060008060006060868803121561072357600080fd5b61072c86610579565b9450602086013567ffffffffffffffff8082111561074957600080fd5b61075589838a016106bf565b9096509450604088013591508082111561076e57600080fd5b5061077b888289016106bf565b969995985093965092949392505050565b600181811c908216806107a057607f821691505b6020821081036107d9577f4e487b7100000000000000000000000000000000000000000000000000000000600052602260045260246000fd5b50919050565b7f4e487b7100000000000000000000000000000000000000000000000000000000600052604160045260246000fd5b601f82111561046d57600081815260208120601f850160051c810160208610156108355750805b601f850160051c820191505b8181101561085457828155600101610841565b505050505050565b67ffffffffffffffff831115610874576108746107df565b61088883610882835461078c565b8361080e565b6000601f8411600181146108da57600085156108a45750838201355b7fffffffffffffffffffffffffffffffffffffffffffffffffffffffffffffffff600387901b1c1916600186901b178355610221565b6000838152602090207fffffffffffffffffffffffffffffffffffffffffffffffffffffffffffffffe0861690835b828110156109295786850135825560209485019460019092019101610909565b5086821015610964577fffffffffffffffffffffffffffffffffffffffffffffffffffffffffffffffff60f88860031b161c19848701351681555b505060018560011b0183555050505050565b7f4e487b7100000000000000000000000000000000000000000000000000000000600052603260045260246000fd5b60008083357fffffffffffffffffffffffffffffffffffffffffffffffffffffffffffffffe18436030181126109da57600080fd5b83018035915067ffffffffffffffff8211156109f557600080fd5b60200191503681900382131561070457600080fd5b600060208284031215610a1c57600080fd5b81518015158114610a2c57600080fd5b939250505056fea2646970667358221220acfb89154e9d12acb88193bf021f063e6e7a7734f539cf4cfe38f88142e135ad64736f6c63430008150033",
  "devdoc": {
    "errors": {
      "NotTargetContractRoleHolder(address,bytes32,address)": [
        {
          "params": {
            "account": "The account that was checked.",
            "role": "The role that was checked.",
            "targetContract": "The contract that was checked."
          }
        }
      ],
      "TargetIsNotAContract(address)": [
        {
          "params": {
            "targetContract": "The contract that was checked"
          }
        }
      ]
    },
    "kind": "dev",
    "methods": {
      "batchSetTokenURI(address,uint256[],string[])": {
        "details": "Reverts with {InconsistentArrayLengths} if the arrays are of inconsistent lengths.Reverts with {NotTargetContractRoleHolder} if the sender is not a 'minter' of the token contract.",
        "params": {
          "tokenContract": "The token contract on which to set the token URI.",
          "tokenIds": "The token identifiers.",
          "tokenURIs": "The token metadata URIs."
        }
      },
      "setTokenURI(address,uint256,string)": {
        "details": "Reverts with {NotTargetContractRoleHolder} if the sender is not a 'minter' of the token contract.",
        "params": {
          "tokenContract": "The token contract on which to set the token URI.",
          "tokenId": "The token identifier.",
          "tokenURI": "The token metadata URI."
        }
      },
      "tokenMetadataURI(address,uint256)": {
        "params": {
          "tokenContract": "The token contract for which to retrieve the token URI.",
          "tokenId": "The token identifier."
        },
        "returns": {
          "tokenURI": "The token metadata URI."
        }
      }
    },
    "title": "TokenMetadataResolverPerToken.",
    "version": 1
  },
  "userdoc": {
    "errors": {
      "InconsistentArrayLengths()": [
        {
          "notice": "Thrown when the multiple related arrays have different lengths."
        }
      ],
      "NotTargetContractRoleHolder(address,bytes32,address)": [
        {
          "notice": "Thrown when an account does not have the required role on a target contract."
        }
      ],
      "TargetIsNotAContract(address)": [
        {
          "notice": "Thrown when the target contract is actually not a contract."
        }
      ]
    },
    "kind": "user",
    "methods": {
      "batchSetTokenURI(address,uint256[],string[])": {
        "notice": "Sets the metadata URIs for a batch of tokens on a contract."
      },
      "setTokenURI(address,uint256,string)": {
        "notice": "Sets the metadata URI for a token on a contract."
      },
      "tokenMetadataURI(address,uint256)": {
        "notice": "Gets the token metadata URI for a token."
      }
    },
    "notice": "Token Metadata Resolver which stores the metadata URI for each token.Only minters of the target token contract can set the token metadata URI for this target contract.",
    "version": 1
  },
  "storageLayout": {
    "storage": [
      {
        "astId": 27291,
        "contract": "contracts/token/metadata/TokenMetadataResolverPerToken.sol:TokenMetadataResolverPerToken",
        "label": "metadataURI",
        "offset": 0,
        "slot": "0",
        "type": "t_mapping(t_address,t_mapping(t_uint256,t_string_storage))"
      }
    ],
    "types": {
      "t_address": {
        "encoding": "inplace",
        "label": "address",
        "numberOfBytes": "20"
      },
      "t_mapping(t_address,t_mapping(t_uint256,t_string_storage))": {
        "encoding": "mapping",
        "key": "t_address",
        "label": "mapping(address => mapping(uint256 => string))",
        "numberOfBytes": "32",
        "value": "t_mapping(t_uint256,t_string_storage)"
      },
      "t_mapping(t_uint256,t_string_storage)": {
        "encoding": "mapping",
        "key": "t_uint256",
        "label": "mapping(uint256 => string)",
        "numberOfBytes": "32",
        "value": "t_string_storage"
      },
      "t_string_storage": {
        "encoding": "bytes",
        "label": "string",
        "numberOfBytes": "32"
      },
      "t_uint256": {
        "encoding": "inplace",
        "label": "uint256",
        "numberOfBytes": "32"
      }
    }
  }
}