{
  "address": "0xb522ADEf2005a65574605568568691f3fE731F82",
  "abi": [
    {
      "inputs": [
        {
          "internalType": "contract IForwarderRegistry",
          "name": "forwarderRegistry",
          "type": "address"
        }
      ],
      "stateMutability": "nonpayable",
      "type": "constructor"
    },
    {
      "inputs": [
        {
          "internalType": "uint256",
          "name": "tokenId",
          "type": "uint256"
        }
      ],
      "name": "ERC721BurntToken",
      "type": "error"
    },
    {
      "inputs": [
        {
          "internalType": "uint256",
          "name": "tokenId",
          "type": "uint256"
        }
      ],
      "name": "ERC721ExistingToken",
      "type": "error"
    },
    {
      "inputs": [],
      "name": "ERC721MintToAddressZero",
      "type": "error"
    },
    {
      "inputs": [
        {
          "internalType": "address",
          "name": "recipient",
          "type": "address"
        },
        {
          "internalType": "uint256",
          "name": "tokenId",
          "type": "uint256"
        }
      ],
      "name": "ERC721SafeTransferRejected",
      "type": "error"
    },
    {
      "inputs": [],
      "name": "IllegalInterfaceId",
      "type": "error"
    },
    {
      "inputs": [
        {
          "internalType": "address",
          "name": "account",
          "type": "address"
        }
      ],
      "name": "NotProxyAdmin",
      "type": "error"
    },
    {
      "inputs": [
        {
          "internalType": "bytes32",
          "name": "role",
          "type": "bytes32"
        },
        {
          "internalType": "address",
          "name": "account",
          "type": "address"
        }
      ],
      "name": "NotRoleHolder",
      "type": "error"
    },
    {
      "anonymous": false,
      "inputs": [
        {
          "indexed": true,
          "internalType": "address",
          "name": "from",
          "type": "address"
        },
        {
          "indexed": true,
          "internalType": "address",
          "name": "to",
          "type": "address"
        },
        {
          "indexed": true,
          "internalType": "uint256",
          "name": "tokenId",
          "type": "uint256"
        }
      ],
      "name": "Transfer",
      "type": "event"
    },
    {
      "inputs": [],
      "name": "MINTER_ROLE",
      "outputs": [
        {
          "internalType": "bytes32",
          "name": "",
          "type": "bytes32"
        }
      ],
      "stateMutability": "view",
      "type": "function"
    },
    {
      "inputs": [
        {
          "internalType": "address",
          "name": "to",
          "type": "address"
        },
        {
          "internalType": "uint256[]",
          "name": "tokenIds",
          "type": "uint256[]"
        }
      ],
      "name": "batchMint",
      "outputs": [],
      "stateMutability": "nonpayable",
      "type": "function"
    },
    {
      "inputs": [],
      "name": "initERC721MintableOnceStorage",
      "outputs": [],
      "stateMutability": "nonpayable",
      "type": "function"
    },
    {
      "inputs": [
        {
          "internalType": "address",
          "name": "to",
          "type": "address"
        },
        {
          "internalType": "uint256",
          "name": "tokenId",
          "type": "uint256"
        }
      ],
      "name": "mint",
      "outputs": [],
      "stateMutability": "nonpayable",
      "type": "function"
    },
    {
      "inputs": [
        {
          "internalType": "address",
          "name": "to",
          "type": "address"
        },
        {
          "internalType": "uint256",
          "name": "tokenId",
          "type": "uint256"
        },
        {
          "internalType": "bytes",
          "name": "data",
          "type": "bytes"
        }
      ],
      "name": "safeMint",
      "outputs": [],
      "stateMutability": "nonpayable",
      "type": "function"
    },
    {
      "inputs": [
        {
          "internalType": "uint256",
          "name": "tokenId",
          "type": "uint256"
        }
      ],
      "name": "wasBurnt",
      "outputs": [
        {
          "internalType": "bool",
          "name": "tokenWasBurnt",
          "type": "bool"
        }
      ],
      "stateMutability": "view",
      "type": "function"
    }
  ],
  "transactionHash": "0x8d67a61cc1248f9ac524eda08ba1b0ea167be283aef9675bac5ee42ccabc0917",
  "args": [
    "0x316a472D084489CB6d4C66e5eB62aE3AdA17521e"
  ],
  "numDeployments": 1,
  "solcInputHash": "84bab0eb3356c2e3bedca0f2f5a163c5",
  "bytecode": "0x60a0604052348015600f57600080fd5b50604051610f46380380610f46833981016040819052602c91603c565b6001600160a01b0316608052606a565b600060208284031215604d57600080fd5b81516001600160a01b0381168114606357600080fd5b9392505050565b608051610eba61008c6000396000818161085c01526108ea0152610eba6000f3fe608060405234801561001057600080fd5b50600436106100725760003560e01c80638832e6e3116100505780638832e6e3146100a7578063c77c6955146100ba578063d5391393146100e257600080fd5b806340c10f19146100775780634684d7e91461008c57806383b0b7401461009f575b600080fd5b61008a610085366004610bae565b610117565b005b61008a61009a366004610bd8565b61016a565b61008a6101e3565b61008a6100b5366004610c60565b610206565b6100cd6100c8366004610cea565b61028e565b60405190151581526020015b60405180910390f35b6101097f6d696e746572000000000000000000000000000000000000000000000000000081565b6040519081526020016100d9565b6101527f6d696e74657200000000000000000000000000000000000000000000000000006101436102d4565b61014b6102e3565b9190610311565b610166828261015f61039c565b91906103ca565b5050565b6101967f6d696e74657200000000000000000000000000000000000000000000000000006101436102d4565b6101de838383808060200260200160405190810160405280939291908181526020018383602002808284376000920191909152506101d7925061039c915050565b9190610542565b505050565b6101fc6101ee6102d4565b6101f661070e565b9061073c565b6102046107a7565b565b6102327f6d696e74657200000000000000000000000000000000000000000000000000006101436102d4565b61028861023d6102d4565b858585858080601f01602080910402602001604051908101604052809392919081815260200183838082843760009201919091525061027f925061039c915050565b939291906107dc565b50505050565b60006102ce8261029c61039c565b600091825260205260409020547fdead0000000000000000000000000000000000000000000000000000000000001490565b92915050565b60006102de610819565b905090565b6000806102ce60017fc8827d3282af6f37b64c3e9e6f3ac9df286ab0bb0fccd6f8661bf19adb368b23610d03565b60008281526020848152604080832073ffffffffffffffffffffffffffffffffffffffff8516845290915290205460ff166101de576040517f7aa728820000000000000000000000000000000000000000000000000000000081526004810183905273ffffffffffffffffffffffffffffffffffffffff821660248201526044015b60405180910390fd5b6000806102ce60017fddf3ee18ae6d688373c219468f8be446e7ae82215f4779d821c7ea5e8c13c0c1610d03565b73ffffffffffffffffffffffffffffffffffffffff8216610417576040517f7851b9cd00000000000000000000000000000000000000000000000000000000815260040160405180910390fd5b60008181526020849052604090205473ffffffffffffffffffffffffffffffffffffffff811615610477576040517f753eceac00000000000000000000000000000000000000000000000000000000815260048101839052602401610393565b7fdead00000000000000000000000000000000000000000000000000000000000081036104d3576040517f31e8d3d500000000000000000000000000000000000000000000000000000000815260048101839052602401610393565b60008281526020858152604080832073ffffffffffffffffffffffffffffffffffffffff87169081905580845260018089019093528184208054909301909255518492907fddf252ad1be2c89b69c2b068fc378daa952ba7f163c4a11628f55a4df523b3ef908290a450505050565b73ffffffffffffffffffffffffffffffffffffffff821661058f576040517f7851b9cd00000000000000000000000000000000000000000000000000000000815260040160405180910390fd5b805160005b818110156106d95760008382815181106105b0576105b0610d3d565b60209081029190910181015160008181529188905260409091205490915073ffffffffffffffffffffffffffffffffffffffff81161561061f576040517f753eceac00000000000000000000000000000000000000000000000000000000815260048101839052602401610393565b7fdead000000000000000000000000000000000000000000000000000000000000810361067b576040517f31e8d3d500000000000000000000000000000000000000000000000000000000815260048101839052602401610393565b60008281526020889052604080822073ffffffffffffffffffffffffffffffffffffffff89169081905590518492907fddf252ad1be2c89b69c2b068fc378daa952ba7f163c4a11628f55a4df523b3ef908290a45050600101610594565b5073ffffffffffffffffffffffffffffffffffffffff9092166000908152600190930160205250604090912080549091019055565b6000806102ce60017fb53127684a568b3173ae13b9f8a6016e243e63b6e8ee1178d6a717850b5d6104610d03565b815473ffffffffffffffffffffffffffffffffffffffff828116911614610166576040517f673a31a100000000000000000000000000000000000000000000000000000000815273ffffffffffffffffffffffffffffffffffffffff82166004820152602401610393565b6102047f8e773e130000000000000000000000000000000000000000000000000000000060016107d5610966565b9190610994565b6107e78584846103ca565b73ffffffffffffffffffffffffffffffffffffffff83163b1561081257610812846000858585610a70565b5050505050565b6000333214806108295750601836105b1561083357503390565b7fffffffffffffffffffffffffffffffffffffffffffffffffffffffffffffffec36013560601c7f000000000000000000000000000000000000000000000000000000000000000073ffffffffffffffffffffffffffffffffffffffff1633148061095557506040517f019a202800000000000000000000000000000000000000000000000000000000815273ffffffffffffffffffffffffffffffffffffffff82811660048301523360248301523060448301527f0000000000000000000000000000000000000000000000000000000000000000169063019a202890606401602060405180830381865afa158015610931573d6000803e3d6000fd5b505050506040513d601f19601f820116820180604052508101906109559190610d6c565b1561095f57919050565b3391505090565b6000806102ce60017fca9d3e17f264b0f3984e2634e94adb37fa3e6a8103f06aeae6fa59e21c769f5e610d03565b7c01000000000000000000000000000000000000000000000000000000007fffffffff00000000000000000000000000000000000000000000000000000000831601610a0c576040517f72c683bb00000000000000000000000000000000000000000000000000000000815260040160405180910390fd5b7fffffffff00000000000000000000000000000000000000000000000000000000919091166000908152602092909252604090912080547fffffffffffffffffffffffffffffffffffffffffffffffffffffffffffffff0016911515919091179055565b6040517f150b7a02000000000000000000000000000000000000000000000000000000008082529073ffffffffffffffffffffffffffffffffffffffff85169063150b7a0290610aca908990899088908890600401610d95565b6020604051808303816000875af1158015610ae9573d6000803e3d6000fd5b505050506040513d601f19601f82011682018060405250810190610b0d9190610e42565b7fffffffff000000000000000000000000000000000000000000000000000000001614610812576040517fc215a7a100000000000000000000000000000000000000000000000000000000815273ffffffffffffffffffffffffffffffffffffffff8416600482015260248101839052604401610393565b803573ffffffffffffffffffffffffffffffffffffffff81168114610ba957600080fd5b919050565b60008060408385031215610bc157600080fd5b610bca83610b85565b946020939093013593505050565b600080600060408486031215610bed57600080fd5b610bf684610b85565b9250602084013567ffffffffffffffff811115610c1257600080fd5b8401601f81018613610c2357600080fd5b803567ffffffffffffffff811115610c3a57600080fd5b8660208260051b8401011115610c4f57600080fd5b939660209190910195509293505050565b60008060008060608587031215610c7657600080fd5b610c7f85610b85565b935060208501359250604085013567ffffffffffffffff811115610ca257600080fd5b8501601f81018713610cb357600080fd5b803567ffffffffffffffff811115610cca57600080fd5b876020828401011115610cdc57600080fd5b949793965060200194505050565b600060208284031215610cfc57600080fd5b5035919050565b818103818111156102ce577f4e487b7100000000000000000000000000000000000000000000000000000000600052601160045260246000fd5b7f4e487b7100000000000000000000000000000000000000000000000000000000600052603260045260246000fd5b600060208284031215610d7e57600080fd5b81518015158114610d8e57600080fd5b9392505050565b73ffffffffffffffffffffffffffffffffffffffff8516815273ffffffffffffffffffffffffffffffffffffffff84166020820152826040820152608060608201526000825180608084015260005b81811015610e0157602081860181015160a0868401015201610de4565b50600060a0828501015260a07fffffffffffffffffffffffffffffffffffffffffffffffffffffffffffffffe0601f83011684010191505095945050505050565b600060208284031215610e5457600080fd5b81517fffffffff0000000000000000000000000000000000000000000000000000000081168114610d8e57600080fdfea2646970667358221220355d202ec580e37e0a3822307a873e06ab6c216b03541517005110523cab989064736f6c634300081c0033",
  "devdoc": {
    "details": "This contract is to be used as a diamond facet (see ERC2535 Diamond Standard https://eips.ethereum.org/EIPS/eip-2535).Note: This facet depends on {ProxyAdminFacet}, {InterfaceDetectionFacet} and {AccessControlFacet}.",
    "errors": {
      "ERC721BurntToken(uint256)": [
        {
          "params": {
            "tokenId": "The identifier of the token that has been burnt before."
          }
        }
      ],
      "ERC721ExistingToken(uint256)": [
        {
          "params": {
            "tokenId": "The identifier of the token that already exists."
          }
        }
      ],
      "ERC721SafeTransferRejected(address,uint256)": [
        {
          "params": {
            "recipient": "The recipient contract.",
            "tokenId": "The identifier of the token."
          }
        }
      ],
      "NotProxyAdmin(address)": [
        {
          "params": {
            "account": "The account that was checked."
          }
        }
      ],
      "NotRoleHolder(bytes32,address)": [
        {
          "params": {
            "account": "The account that was checked.",
            "role": "The role the caller is missing."
          }
        }
      ]
    },
    "events": {
      "Transfer(address,address,uint256)": {
        "params": {
          "from": "The previous token owner.",
          "to": "The new token owner.",
          "tokenId": "The transferred token identifier."
        }
      }
    },
    "kind": "dev",
    "methods": {
      "batchMint(address,uint256[])": {
        "details": "Reverts with {NotRoleHolder} if the sender does not have the 'minter' role.Reverts with {ERC721BurntToken} if one of `tokenIds` has been previously burnt.",
        "params": {
          "to": "Address of the new tokens owner.",
          "tokenIds": "Identifiers of the tokens to mint."
        }
      },
      "initERC721MintableOnceStorage()": {
        "details": "Reverts with {NotProxyAdmin} if the sender is not the proxy admin."
      },
      "mint(address,uint256)": {
        "details": "Reverts with {NotRoleHolder} if the sender does not have the 'minter' role.Reverts with {ERC721BurntToken} if `tokenId` has been previously burnt.",
        "params": {
          "to": "Address of the new token owner.",
          "tokenId": "Identifier of the token to mint."
        }
      },
      "safeMint(address,uint256,bytes)": {
        "details": "Reverts with {NotRoleHolder} if the sender does not have the 'minter' role.Reverts with {ERC721BurntToken} if `tokenId` has been previously burnt.",
        "params": {
          "data": "Optional data to pass along to the receiver call.",
          "to": "Address of the new token owner.",
          "tokenId": "Identifier of the token to mint."
        }
      },
      "wasBurnt(uint256)": {
        "params": {
          "tokenId": "The token identifier."
        },
        "returns": {
          "tokenWasBurnt": "Whether the token was burnt."
        }
      }
    },
    "title": "ERC721 Non-Fungible Token Standard, optional extension: Mintable (facet version).",
    "version": 1
  },
  "userdoc": {
    "errors": {
      "ERC721BurntToken(uint256)": [
        {
          "notice": "Thrown when minting a token which has been burnt before (MintableOnce implementation)."
        }
      ],
      "ERC721ExistingToken(uint256)": [
        {
          "notice": "Thrown when minting a token that already exists."
        }
      ],
      "ERC721MintToAddressZero()": [
        {
          "notice": "Thrown when minting a token to the zero address."
        }
      ],
      "ERC721SafeTransferRejected(address,uint256)": [
        {
          "notice": "Thrown when a safe transfer is rejected by the recipient contract."
        }
      ],
      "IllegalInterfaceId()": [
        {
          "notice": "Thrown when setting the illegal interfaceId 0xffffffff."
        }
      ],
      "NotProxyAdmin(address)": [
        {
          "notice": "Thrown when an account is not the proxy admin but is required to."
        }
      ],
      "NotRoleHolder(bytes32,address)": [
        {
          "notice": "Thrown when an account does not have the required role."
        }
      ]
    },
    "events": {
      "Transfer(address,address,uint256)": {
        "notice": "Emitted when a token is transferred."
      }
    },
    "kind": "user",
    "methods": {
      "batchMint(address,uint256[])": {
        "notice": "Unsafely mints a batch of tokens."
      },
      "initERC721MintableOnceStorage()": {
        "notice": "Marks the following ERC165 interface(s) as supported: ERC721Mintable."
      },
      "mint(address,uint256)": {
        "notice": "Unsafely mints a token."
      },
      "safeMint(address,uint256,bytes)": {
        "notice": "Safely mints a token."
      },
      "wasBurnt(uint256)": {
        "notice": "Gets whether a token was burnt."
      }
    },
    "notice": "ERC721Mintable implementation where burnt tokens cannot be minted again.",
    "version": 1
  },
  "storageLayout": {
    "storage": [],
    "types": null
  }
}