{
  "address": "0xCe59d95731acb61a4B7DDF801C5A83F6ec815f0d",
  "abi": [
    {
      "inputs": [
        {
          "internalType": "contract IForwarderRegistry",
          "name": "forwarderRegistry_",
          "type": "address"
        }
      ],
      "stateMutability": "nonpayable",
      "type": "constructor"
    },
    {
      "inputs": [],
      "name": "forwarderRegistry",
      "outputs": [
        {
          "internalType": "contract IForwarderRegistry",
          "name": "",
          "type": "address"
        }
      ],
      "stateMutability": "view",
      "type": "function"
    },
    {
      "inputs": [
        {
          "internalType": "address",
          "name": "forwarder",
          "type": "address"
        }
      ],
      "name": "isTrustedForwarder",
      "outputs": [
        {
          "internalType": "bool",
          "name": "",
          "type": "bool"
        }
      ],
      "stateMutability": "view",
      "type": "function"
    }
  ],
  "transactionHash": "0x06e0256992aa6917bbe5804e6cd82ce092de10fc153b6b3828288035ac2e3f4f",
  "args": [
    "0x316a472D084489CB6d4C66e5eB62aE3AdA17521e"
  ],
  "numDeployments": 1,
  "solcInputHash": "84bab0eb3356c2e3bedca0f2f5a163c5",
  "bytecode": "0x60a0604052348015600f57600080fd5b506040516101de3803806101de833981016040819052602c91603c565b6001600160a01b0316608052606a565b600060208284031215604d57600080fd5b81516001600160a01b0381168114606357600080fd5b9392505050565b60805161015461008a6000396000818160550152609401526101546000f3fe608060405234801561001057600080fd5b50600436106100365760003560e01c80632b4c9f161461003b578063572b6c0514610084575b600080fd5b60405173ffffffffffffffffffffffffffffffffffffffff7f00000000000000000000000000000000000000000000000000000000000000001681526020015b60405180910390f35b6100d16100923660046100e1565b7f000000000000000000000000000000000000000000000000000000000000000073ffffffffffffffffffffffffffffffffffffffff90811691161490565b604051901515815260200161007b565b6000602082840312156100f357600080fd5b813573ffffffffffffffffffffffffffffffffffffffff8116811461011757600080fd5b939250505056fea264697066735822122027ae134516634cd5277d02a0739ac047a483ce4c0f6e03eaa76ee8f17b13098664736f6c634300081c0033",
  "devdoc": {
    "details": "This contract is to be used as a diamond facet (see ERC2535 Diamond Standard https://eips.ethereum.org/EIPS/eip-2535).Derived from https://github.com/wighawag/universal-forwarder (MIT licence)",
    "kind": "dev",
    "methods": {
      "isTrustedForwarder(address)": {
        "params": {
          "forwarder": "The forwarder to check."
        },
        "returns": {
          "_0": "True if `forwarder` is trusted, false if not."
        }
      }
    },
    "title": "Meta-Transactions Forwarder Registry Context (facet version).",
    "version": 1
  },
  "userdoc": {
    "kind": "user",
    "methods": {
      "isTrustedForwarder(address)": {
        "notice": "Checks whether a forwarder is trusted."
      }
    },
    "version": 1
  },
  "storageLayout": {
    "storage": [],
    "types": null
  }
}