{
  "address": "0x7EF9B1B7a935dec498Ae9ecAC07aC8f2dAFAaB56",
  "abi": [
    {
      "inputs": [
        {
          "internalType": "contract IForwarderRegistry",
          "name": "forwarderRegistry",
          "type": "address"
        }
      ],
      "stateMutability": "nonpayable",
      "type": "constructor"
    },
    {
      "inputs": [],
      "name": "IllegalInterfaceId",
      "type": "error"
    },
    {
      "inputs": [
        {
          "internalType": "uint256",
          "name": "currentPhase",
          "type": "uint256"
        },
        {
          "internalType": "uint256",
          "name": "newPhase",
          "type": "uint256"
        }
      ],
      "name": "InitializationPhaseAlreadyReached",
      "type": "error"
    },
    {
      "inputs": [
        {
          "internalType": "address",
          "name": "account",
          "type": "address"
        }
      ],
      "name": "NotContractOwner",
      "type": "error"
    },
    {
      "inputs": [
        {
          "internalType": "address",
          "name": "account",
          "type": "address"
        }
      ],
      "name": "NotProxyAdmin",
      "type": "error"
    },
    {
      "anonymous": false,
      "inputs": [
        {
          "indexed": true,
          "internalType": "address",
          "name": "previousOwner",
          "type": "address"
        },
        {
          "indexed": true,
          "internalType": "address",
          "name": "newOwner",
          "type": "address"
        }
      ],
      "name": "OwnershipTransferred",
      "type": "event"
    },
    {
      "inputs": [
        {
          "internalType": "address",
          "name": "initialOwner",
          "type": "address"
        }
      ],
      "name": "initContractOwnershipStorage",
      "outputs": [],
      "stateMutability": "nonpayable",
      "type": "function"
    },
    {
      "inputs": [],
      "name": "owner",
      "outputs": [
        {
          "internalType": "address",
          "name": "",
          "type": "address"
        }
      ],
      "stateMutability": "view",
      "type": "function"
    },
    {
      "inputs": [
        {
          "internalType": "address",
          "name": "newOwner",
          "type": "address"
        }
      ],
      "name": "transferOwnership",
      "outputs": [],
      "stateMutability": "nonpayable",
      "type": "function"
    }
  ],
  "transactionHash": "0x439e9e4d3d964ff849e1f455f7e3dbea3b46e2537ce120e4a26156c13311727b",
  "args": [
    "0x316a472D084489CB6d4C66e5eB62aE3AdA17521e"
  ],
  "numDeployments": 1,
  "solcInputHash": "84bab0eb3356c2e3bedca0f2f5a163c5",
  "bytecode": "0x60a0604052348015600f57600080fd5b50604051610803380380610803833981016040819052602c91603c565b6001600160a01b0316608052606a565b600060208284031215604d57600080fd5b81516001600160a01b0381168114606357600080fd5b9392505050565b60805161077761008c6000396000818161038b015261041901526107776000f3fe608060405234801561001057600080fd5b50600436106100415760003560e01c806363e340d6146100465780638da5cb5b1461005b578063f2fde38b1461008c575b600080fd5b6100596100543660046106a8565b61009f565b005b6100636100cd565b60405173ffffffffffffffffffffffffffffffffffffffff909116815260200160405180910390f35b61005961009a3660046106a8565b6100f9565b6100b86100aa610114565b6100b261011e565b90610152565b6100ca816100c46101c6565b906101f4565b50565b60006100f46100da6101c6565b5473ffffffffffffffffffffffffffffffffffffffff1690565b905090565b6100ca610104610114565b8261010d6101c6565b9190610233565b60006100f4610348565b60008061014c60017fb53127684a568b3173ae13b9f8a6016e243e63b6e8ee1178d6a717850b5d61046106e5565b92915050565b815473ffffffffffffffffffffffffffffffffffffffff8281169116146101c2576040517f673a31a100000000000000000000000000000000000000000000000000000000815273ffffffffffffffffffffffffffffffffffffffff821660048201526024015b60405180910390fd5b5050565b60008061014c60017fc9ed16f33ab3a66c84bfd83099ccb2a8845871e2e1c1928f63797152f0fd54cd6106e5565b61022961022260017f5b388d90dc1312ba799f321972f13311234fa1163bcabec7cf66101c4876eb846106e5565b6001610495565b6101c282826104e1565b825473ffffffffffffffffffffffffffffffffffffffff90811690831681146102a0576040517f2ef4875e00000000000000000000000000000000000000000000000000000000815273ffffffffffffffffffffffffffffffffffffffff841660048201526024016101b9565b8173ffffffffffffffffffffffffffffffffffffffff168173ffffffffffffffffffffffffffffffffffffffff16146103425783547fffffffffffffffffffffffff00000000000000000000000000000000000000001673ffffffffffffffffffffffffffffffffffffffff8381169182178655604051908316907f8be0079c531659141344cd1fd0a4f28419497f9722a3daafe3b4186f6b6457e090600090a35b50505050565b6000333214806103585750601836105b1561036257503390565b7fffffffffffffffffffffffffffffffffffffffffffffffffffffffffffffffec36013560601c7f000000000000000000000000000000000000000000000000000000000000000073ffffffffffffffffffffffffffffffffffffffff1633148061048457506040517f019a202800000000000000000000000000000000000000000000000000000000815273ffffffffffffffffffffffffffffffffffffffff82811660048301523360248301523060448301527f0000000000000000000000000000000000000000000000000000000000000000169063019a202890606401602060405180830381865afa158015610460573d6000803e3d6000fd5b505050506040513d601f19601f82011682018060405250810190610484919061071f565b1561048e57919050565b3391505090565b815482908281106104dc576040517fbf0c18ec00000000000000000000000000000000000000000000000000000000815260048101829052602481018490526044016101b9565b505550565b73ffffffffffffffffffffffffffffffffffffffff8116156105695781547fffffffffffffffffffffffff00000000000000000000000000000000000000001673ffffffffffffffffffffffffffffffffffffffff821690811783556040516000907f8be0079c531659141344cd1fd0a4f28419497f9722a3daafe3b4186f6b6457e0908290a35b6101c27f7f5828d000000000000000000000000000000000000000000000000000000000600161059761059e565b91906105cc565b60008061014c60017fca9d3e17f264b0f3984e2634e94adb37fa3e6a8103f06aeae6fa59e21c769f5e6106e5565b7c01000000000000000000000000000000000000000000000000000000007fffffffff00000000000000000000000000000000000000000000000000000000831601610644576040517f72c683bb00000000000000000000000000000000000000000000000000000000815260040160405180910390fd5b7fffffffff00000000000000000000000000000000000000000000000000000000919091166000908152602092909252604090912080547fffffffffffffffffffffffffffffffffffffffffffffffffffffffffffffff0016911515919091179055565b6000602082840312156106ba57600080fd5b813573ffffffffffffffffffffffffffffffffffffffff811681146106de57600080fd5b9392505050565b8181038181111561014c577f4e487b7100000000000000000000000000000000000000000000000000000000600052601160045260246000fd5b60006020828403121561073157600080fd5b815180151581146106de57600080fdfea264697066735822122021b39adb0e5635e252ef41944d6e80d92953f47709559bb30e0ba1b19350590564736f6c634300081c0033",
  "devdoc": {
    "details": "See https://eips.ethereum.org/EIPS/eip-173This contract is to be used as a diamond facet (see ERC2535 Diamond Standard https://eips.ethereum.org/EIPS/eip-2535).Note: This facet depends on {ProxyAdminFacet} and {InterfaceDetectionFacet}.",
    "errors": {
      "InitializationPhaseAlreadyReached(uint256,uint256)": [
        {
          "params": {
            "currentPhase": "The current phase.",
            "newPhase": "The new phase trying to be set."
          }
        }
      ],
      "NotContractOwner(address)": [
        {
          "params": {
            "account": "The account that was checked."
          }
        }
      ],
      "NotProxyAdmin(address)": [
        {
          "params": {
            "account": "The account that was checked."
          }
        }
      ]
    },
    "events": {
      "OwnershipTransferred(address,address)": {
        "params": {
          "newOwner": "the new contract owner.",
          "previousOwner": "the previous contract owner."
        }
      }
    },
    "kind": "dev",
    "methods": {
      "initContractOwnershipStorage(address)": {
        "details": "Reverts with {NotProxyAdmin} if the sender is not the proxy admin.Reverts with {InitializationPhaseAlreadyReached} if the proxy initialization phase is set to `1` or above.Emits an {OwnershipTransferred} if `initialOwner` is not the zero address.",
        "params": {
          "initialOwner": "The initial contract owner."
        }
      },
      "owner()": {
        "returns": {
          "_0": "The address of the contract owner."
        }
      },
      "transferOwnership(address)": {
        "details": "Reverts if the sender is not the contract owner.Emits an {OwnershipTransferred} event if `newOwner` is different from the current contract owner.",
        "params": {
          "newOwner": "The address of the new contract owner. Using the zero address means renouncing ownership."
        }
      }
    },
    "title": "ERC173 Contract Ownership Standard (facet version).",
    "version": 1
  },
  "userdoc": {
    "errors": {
      "IllegalInterfaceId()": [
        {
          "notice": "Thrown when setting the illegal interfaceId 0xffffffff."
        }
      ],
      "InitializationPhaseAlreadyReached(uint256,uint256)": [
        {
          "notice": "Emitted when trying to set a phase value that has already been reached."
        }
      ],
      "NotContractOwner(address)": [
        {
          "notice": "Thrown when an account is not the contract owner but is required to."
        }
      ],
      "NotProxyAdmin(address)": [
        {
          "notice": "Thrown when an account is not the proxy admin but is required to."
        }
      ]
    },
    "events": {
      "OwnershipTransferred(address,address)": {
        "notice": "Emitted when the contract ownership changes."
      }
    },
    "kind": "user",
    "methods": {
      "initContractOwnershipStorage(address)": {
        "notice": "Initializes the storage with an initial contract owner (proxied version).Sets the proxy initialization phase to `1`.Marks the following ERC165 interface(s) as supported: ERC173."
      },
      "owner()": {
        "notice": "Gets the address of the contract owner."
      },
      "transferOwnership(address)": {
        "notice": "Sets the address of the new contract owner."
      }
    },
    "version": 1
  },
  "storageLayout": {
    "storage": [],
    "types": null
  }
}