{
  "address": "0x61331EB27b77D2982FbDdA84C610962DD7b86a62",
  "abi": [
    {
      "inputs": [
        {
          "internalType": "contract IForwarderRegistry",
          "name": "forwarderRegistry",
          "type": "address"
        }
      ],
      "stateMutability": "nonpayable",
      "type": "constructor"
    },
    {
      "inputs": [
        {
          "internalType": "uint256",
          "name": "percentage",
          "type": "uint256"
        }
      ],
      "name": "ERC2981IncorrectRoyaltyPercentage",
      "type": "error"
    },
    {
      "inputs": [],
      "name": "ERC2981IncorrectRoyaltyReceiver",
      "type": "error"
    },
    {
      "inputs": [],
      "name": "ERC721BalanceOfAddressZero",
      "type": "error"
    },
    {
      "inputs": [
        {
          "internalType": "uint256",
          "name": "tokenId",
          "type": "uint256"
        }
      ],
      "name": "ERC721ExistingToken",
      "type": "error"
    },
    {
      "inputs": [],
      "name": "ERC721MintToAddressZero",
      "type": "error"
    },
    {
      "inputs": [
        {
          "internalType": "address",
          "name": "sender",
          "type": "address"
        },
        {
          "internalType": "address",
          "name": "owner",
          "type": "address"
        },
        {
          "internalType": "uint256",
          "name": "tokenId",
          "type": "uint256"
        }
      ],
      "name": "ERC721NonApprovedForApproval",
      "type": "error"
    },
    {
      "inputs": [
        {
          "internalType": "address",
          "name": "sender",
          "type": "address"
        },
        {
          "internalType": "address",
          "name": "owner",
          "type": "address"
        },
        {
          "internalType": "uint256",
          "name": "tokenId",
          "type": "uint256"
        }
      ],
      "name": "ERC721NonApprovedForTransfer",
      "type": "error"
    },
    {
      "inputs": [
        {
          "internalType": "uint256",
          "name": "tokenId",
          "type": "uint256"
        }
      ],
      "name": "ERC721NonExistingToken",
      "type": "error"
    },
    {
      "inputs": [
        {
          "internalType": "address",
          "name": "account",
          "type": "address"
        },
        {
          "internalType": "uint256",
          "name": "tokenId",
          "type": "uint256"
        }
      ],
      "name": "ERC721NonOwnedToken",
      "type": "error"
    },
    {
      "inputs": [
        {
          "internalType": "address",
          "name": "recipient",
          "type": "address"
        },
        {
          "internalType": "uint256",
          "name": "tokenId",
          "type": "uint256"
        }
      ],
      "name": "ERC721SafeTransferRejected",
      "type": "error"
    },
    {
      "inputs": [
        {
          "internalType": "address",
          "name": "account",
          "type": "address"
        }
      ],
      "name": "ERC721SelfApproval",
      "type": "error"
    },
    {
      "inputs": [
        {
          "internalType": "address",
          "name": "account",
          "type": "address"
        }
      ],
      "name": "ERC721SelfApprovalForAll",
      "type": "error"
    },
    {
      "inputs": [],
      "name": "ERC721TransferToAddressZero",
      "type": "error"
    },
    {
      "inputs": [],
      "name": "FailedCall",
      "type": "error"
    },
    {
      "inputs": [],
      "name": "IllegalInterfaceId",
      "type": "error"
    },
    {
      "inputs": [],
      "name": "InconsistentArrayLengths",
      "type": "error"
    },
    {
      "inputs": [
        {
          "internalType": "address",
          "name": "tokenContract",
          "type": "address"
        }
      ],
      "name": "IncorrectTokenContractType",
      "type": "error"
    },
    {
      "inputs": [
        {
          "internalType": "uint256",
          "name": "currentPhase",
          "type": "uint256"
        },
        {
          "internalType": "uint256",
          "name": "newPhase",
          "type": "uint256"
        }
      ],
      "name": "InitializationPhaseAlreadyReached",
      "type": "error"
    },
    {
      "inputs": [
        {
          "internalType": "uint256",
          "name": "balance",
          "type": "uint256"
        },
        {
          "internalType": "uint256",
          "name": "needed",
          "type": "uint256"
        }
      ],
      "name": "InsufficientBalance",
      "type": "error"
    },
    {
      "inputs": [
        {
          "internalType": "address",
          "name": "account",
          "type": "address"
        }
      ],
      "name": "NotContractOwner",
      "type": "error"
    },
    {
      "inputs": [
        {
          "internalType": "bytes32",
          "name": "role",
          "type": "bytes32"
        },
        {
          "internalType": "address",
          "name": "account",
          "type": "address"
        }
      ],
      "name": "NotRoleHolder",
      "type": "error"
    },
    {
      "inputs": [
        {
          "internalType": "address",
          "name": "operator",
          "type": "address"
        }
      ],
      "name": "OperatorNotAllowed",
      "type": "error"
    },
    {
      "inputs": [
        {
          "internalType": "address",
          "name": "token",
          "type": "address"
        }
      ],
      "name": "SafeERC20FailedOperation",
      "type": "error"
    },
    {
      "anonymous": false,
      "inputs": [
        {
          "indexed": true,
          "internalType": "address",
          "name": "owner",
          "type": "address"
        },
        {
          "indexed": true,
          "internalType": "address",
          "name": "approved",
          "type": "address"
        },
        {
          "indexed": true,
          "internalType": "uint256",
          "name": "tokenId",
          "type": "uint256"
        }
      ],
      "name": "Approval",
      "type": "event"
    },
    {
      "anonymous": false,
      "inputs": [
        {
          "indexed": true,
          "internalType": "address",
          "name": "owner",
          "type": "address"
        },
        {
          "indexed": true,
          "internalType": "address",
          "name": "operator",
          "type": "address"
        },
        {
          "indexed": false,
          "internalType": "bool",
          "name": "approved",
          "type": "bool"
        }
      ],
      "name": "ApprovalForAll",
      "type": "event"
    },
    {
      "anonymous": false,
      "inputs": [
        {
          "indexed": true,
          "internalType": "address",
          "name": "previousOwner",
          "type": "address"
        },
        {
          "indexed": true,
          "internalType": "address",
          "name": "newOwner",
          "type": "address"
        }
      ],
      "name": "OwnershipTransferred",
      "type": "event"
    },
    {
      "anonymous": false,
      "inputs": [
        {
          "indexed": false,
          "internalType": "bytes32",
          "name": "role",
          "type": "bytes32"
        },
        {
          "indexed": false,
          "internalType": "address",
          "name": "account",
          "type": "address"
        },
        {
          "indexed": false,
          "internalType": "address",
          "name": "operator",
          "type": "address"
        }
      ],
      "name": "RoleGranted",
      "type": "event"
    },
    {
      "anonymous": false,
      "inputs": [
        {
          "indexed": false,
          "internalType": "bytes32",
          "name": "role",
          "type": "bytes32"
        },
        {
          "indexed": false,
          "internalType": "address",
          "name": "account",
          "type": "address"
        },
        {
          "indexed": false,
          "internalType": "address",
          "name": "operator",
          "type": "address"
        }
      ],
      "name": "RoleRevoked",
      "type": "event"
    },
    {
      "anonymous": false,
      "inputs": [
        {
          "indexed": true,
          "internalType": "address",
          "name": "from",
          "type": "address"
        },
        {
          "indexed": true,
          "internalType": "address",
          "name": "to",
          "type": "address"
        },
        {
          "indexed": true,
          "internalType": "uint256",
          "name": "tokenId",
          "type": "uint256"
        }
      ],
      "name": "Transfer",
      "type": "event"
    },
    {
      "inputs": [],
      "name": "MINTER_ROLE",
      "outputs": [
        {
          "internalType": "bytes32",
          "name": "",
          "type": "bytes32"
        }
      ],
      "stateMutability": "view",
      "type": "function"
    },
    {
      "inputs": [],
      "name": "ROYALTY_FEE_DENOMINATOR",
      "outputs": [
        {
          "internalType": "uint256",
          "name": "",
          "type": "uint256"
        }
      ],
      "stateMutability": "view",
      "type": "function"
    },
    {
      "inputs": [
        {
          "internalType": "address",
          "name": "to",
          "type": "address"
        },
        {
          "internalType": "uint256",
          "name": "tokenId",
          "type": "uint256"
        }
      ],
      "name": "approve",
      "outputs": [],
      "stateMutability": "nonpayable",
      "type": "function"
    },
    {
      "inputs": [
        {
          "internalType": "address",
          "name": "owner",
          "type": "address"
        }
      ],
      "name": "balanceOf",
      "outputs": [
        {
          "internalType": "uint256",
          "name": "balance",
          "type": "uint256"
        }
      ],
      "stateMutability": "view",
      "type": "function"
    },
    {
      "inputs": [
        {
          "internalType": "address",
          "name": "to",
          "type": "address"
        },
        {
          "internalType": "uint256[]",
          "name": "tokenIds",
          "type": "uint256[]"
        }
      ],
      "name": "batchMint",
      "outputs": [],
      "stateMutability": "nonpayable",
      "type": "function"
    },
    {
      "inputs": [
        {
          "internalType": "address",
          "name": "from",
          "type": "address"
        },
        {
          "internalType": "address",
          "name": "to",
          "type": "address"
        },
        {
          "internalType": "uint256[]",
          "name": "tokenIds",
          "type": "uint256[]"
        }
      ],
      "name": "batchTransferFrom",
      "outputs": [],
      "stateMutability": "nonpayable",
      "type": "function"
    },
    {
      "inputs": [
        {
          "internalType": "address[]",
          "name": "recipients",
          "type": "address[]"
        },
        {
          "internalType": "uint256[]",
          "name": "tokenIds",
          "type": "uint256[]"
        }
      ],
      "name": "deliver",
      "outputs": [],
      "stateMutability": "nonpayable",
      "type": "function"
    },
    {
      "inputs": [],
      "name": "forwarderRegistry",
      "outputs": [
        {
          "internalType": "contract IForwarderRegistry",
          "name": "",
          "type": "address"
        }
      ],
      "stateMutability": "view",
      "type": "function"
    },
    {
      "inputs": [
        {
          "internalType": "uint256",
          "name": "tokenId",
          "type": "uint256"
        }
      ],
      "name": "getApproved",
      "outputs": [
        {
          "internalType": "address",
          "name": "approved",
          "type": "address"
        }
      ],
      "stateMutability": "view",
      "type": "function"
    },
    {
      "inputs": [
        {
          "internalType": "bytes32",
          "name": "role",
          "type": "bytes32"
        },
        {
          "internalType": "address",
          "name": "account",
          "type": "address"
        }
      ],
      "name": "grantRole",
      "outputs": [],
      "stateMutability": "nonpayable",
      "type": "function"
    },
    {
      "inputs": [
        {
          "internalType": "bytes32",
          "name": "role",
          "type": "bytes32"
        },
        {
          "internalType": "address",
          "name": "account",
          "type": "address"
        }
      ],
      "name": "hasRole",
      "outputs": [
        {
          "internalType": "bool",
          "name": "hasRole_",
          "type": "bool"
        }
      ],
      "stateMutability": "view",
      "type": "function"
    },
    {
      "inputs": [
        {
          "internalType": "string",
          "name": "tokenName",
          "type": "string"
        },
        {
          "internalType": "string",
          "name": "tokenSymbol",
          "type": "string"
        },
        {
          "internalType": "contract ITokenMetadataResolver",
          "name": "metadataResolver",
          "type": "address"
        },
        {
          "internalType": "contract IOperatorFilterRegistry",
          "name": "filterRegistry",
          "type": "address"
        }
      ],
      "name": "init",
      "outputs": [],
      "stateMutability": "nonpayable",
      "type": "function"
    },
    {
      "inputs": [
        {
          "internalType": "address",
          "name": "owner",
          "type": "address"
        },
        {
          "internalType": "address",
          "name": "operator",
          "type": "address"
        }
      ],
      "name": "isApprovedForAll",
      "outputs": [
        {
          "internalType": "bool",
          "name": "approvedForAll",
          "type": "bool"
        }
      ],
      "stateMutability": "view",
      "type": "function"
    },
    {
      "inputs": [
        {
          "internalType": "address",
          "name": "forwarder",
          "type": "address"
        }
      ],
      "name": "isTrustedForwarder",
      "outputs": [
        {
          "internalType": "bool",
          "name": "",
          "type": "bool"
        }
      ],
      "stateMutability": "view",
      "type": "function"
    },
    {
      "inputs": [],
      "name": "metadataResolver",
      "outputs": [
        {
          "internalType": "contract ITokenMetadataResolver",
          "name": "tokenMetadataResolver",
          "type": "address"
        }
      ],
      "stateMutability": "view",
      "type": "function"
    },
    {
      "inputs": [
        {
          "internalType": "address",
          "name": "to",
          "type": "address"
        },
        {
          "internalType": "uint256",
          "name": "tokenId",
          "type": "uint256"
        }
      ],
      "name": "mint",
      "outputs": [],
      "stateMutability": "nonpayable",
      "type": "function"
    },
    {
      "inputs": [],
      "name": "name",
      "outputs": [
        {
          "internalType": "string",
          "name": "tokenName",
          "type": "string"
        }
      ],
      "stateMutability": "view",
      "type": "function"
    },
    {
      "inputs": [],
      "name": "operatorFilterRegistry",
      "outputs": [
        {
          "internalType": "contract IOperatorFilterRegistry",
          "name": "",
          "type": "address"
        }
      ],
      "stateMutability": "view",
      "type": "function"
    },
    {
      "inputs": [],
      "name": "owner",
      "outputs": [
        {
          "internalType": "address",
          "name": "",
          "type": "address"
        }
      ],
      "stateMutability": "view",
      "type": "function"
    },
    {
      "inputs": [
        {
          "internalType": "uint256",
          "name": "tokenId",
          "type": "uint256"
        }
      ],
      "name": "ownerOf",
      "outputs": [
        {
          "internalType": "address",
          "name": "tokenOwner",
          "type": "address"
        }
      ],
      "stateMutability": "view",
      "type": "function"
    },
    {
      "inputs": [
        {
          "internalType": "address[]",
          "name": "accounts",
          "type": "address[]"
        },
        {
          "internalType": "contract IERC20[]",
          "name": "tokens",
          "type": "address[]"
        },
        {
          "internalType": "uint256[]",
          "name": "amounts",
          "type": "uint256[]"
        }
      ],
      "name": "recoverERC20s",
      "outputs": [],
      "stateMutability": "nonpayable",
      "type": "function"
    },
    {
      "inputs": [
        {
          "internalType": "address[]",
          "name": "accounts",
          "type": "address[]"
        },
        {
          "internalType": "contract IERC721[]",
          "name": "contracts",
          "type": "address[]"
        },
        {
          "internalType": "uint256[]",
          "name": "tokenIds",
          "type": "uint256[]"
        }
      ],
      "name": "recoverERC721s",
      "outputs": [],
      "stateMutability": "nonpayable",
      "type": "function"
    },
    {
      "inputs": [
        {
          "internalType": "address payable[]",
          "name": "accounts",
          "type": "address[]"
        },
        {
          "internalType": "uint256[]",
          "name": "amounts",
          "type": "uint256[]"
        }
      ],
      "name": "recoverETH",
      "outputs": [],
      "stateMutability": "nonpayable",
      "type": "function"
    },
    {
      "inputs": [
        {
          "internalType": "bytes32",
          "name": "role",
          "type": "bytes32"
        }
      ],
      "name": "renounceRole",
      "outputs": [],
      "stateMutability": "nonpayable",
      "type": "function"
    },
    {
      "inputs": [
        {
          "internalType": "bytes32",
          "name": "role",
          "type": "bytes32"
        },
        {
          "internalType": "address",
          "name": "account",
          "type": "address"
        }
      ],
      "name": "revokeRole",
      "outputs": [],
      "stateMutability": "nonpayable",
      "type": "function"
    },
    {
      "inputs": [
        {
          "internalType": "uint256",
          "name": "tokenId",
          "type": "uint256"
        },
        {
          "internalType": "uint256",
          "name": "salePrice",
          "type": "uint256"
        }
      ],
      "name": "royaltyInfo",
      "outputs": [
        {
          "internalType": "address",
          "name": "receiver",
          "type": "address"
        },
        {
          "internalType": "uint256",
          "name": "royaltyAmount",
          "type": "uint256"
        }
      ],
      "stateMutability": "view",
      "type": "function"
    },
    {
      "inputs": [
        {
          "internalType": "address",
          "name": "to",
          "type": "address"
        },
        {
          "internalType": "uint256",
          "name": "tokenId",
          "type": "uint256"
        },
        {
          "internalType": "bytes",
          "name": "data",
          "type": "bytes"
        }
      ],
      "name": "safeMint",
      "outputs": [],
      "stateMutability": "nonpayable",
      "type": "function"
    },
    {
      "inputs": [
        {
          "internalType": "address",
          "name": "from",
          "type": "address"
        },
        {
          "internalType": "address",
          "name": "to",
          "type": "address"
        },
        {
          "internalType": "uint256",
          "name": "tokenId",
          "type": "uint256"
        }
      ],
      "name": "safeTransferFrom",
      "outputs": [],
      "stateMutability": "nonpayable",
      "type": "function"
    },
    {
      "inputs": [
        {
          "internalType": "address",
          "name": "from",
          "type": "address"
        },
        {
          "internalType": "address",
          "name": "to",
          "type": "address"
        },
        {
          "internalType": "uint256",
          "name": "tokenId",
          "type": "uint256"
        },
        {
          "internalType": "bytes",
          "name": "data",
          "type": "bytes"
        }
      ],
      "name": "safeTransferFrom",
      "outputs": [],
      "stateMutability": "nonpayable",
      "type": "function"
    },
    {
      "inputs": [
        {
          "internalType": "address",
          "name": "operator",
          "type": "address"
        },
        {
          "internalType": "bool",
          "name": "approved",
          "type": "bool"
        }
      ],
      "name": "setApprovalForAll",
      "outputs": [],
      "stateMutability": "nonpayable",
      "type": "function"
    },
    {
      "inputs": [
        {
          "internalType": "uint256",
          "name": "percentage",
          "type": "uint256"
        }
      ],
      "name": "setRoyaltyPercentage",
      "outputs": [],
      "stateMutability": "nonpayable",
      "type": "function"
    },
    {
      "inputs": [
        {
          "internalType": "address",
          "name": "receiver",
          "type": "address"
        }
      ],
      "name": "setRoyaltyReceiver",
      "outputs": [],
      "stateMutability": "nonpayable",
      "type": "function"
    },
    {
      "inputs": [
        {
          "internalType": "bytes4",
          "name": "interfaceId",
          "type": "bytes4"
        }
      ],
      "name": "supportsInterface",
      "outputs": [
        {
          "internalType": "bool",
          "name": "",
          "type": "bool"
        }
      ],
      "stateMutability": "view",
      "type": "function"
    },
    {
      "inputs": [],
      "name": "symbol",
      "outputs": [
        {
          "internalType": "string",
          "name": "tokenSymbol",
          "type": "string"
        }
      ],
      "stateMutability": "view",
      "type": "function"
    },
    {
      "inputs": [
        {
          "internalType": "uint256",
          "name": "tokenId",
          "type": "uint256"
        }
      ],
      "name": "tokenURI",
      "outputs": [
        {
          "internalType": "string",
          "name": "uri",
          "type": "string"
        }
      ],
      "stateMutability": "view",
      "type": "function"
    },
    {
      "inputs": [
        {
          "internalType": "address",
          "name": "from",
          "type": "address"
        },
        {
          "internalType": "address",
          "name": "to",
          "type": "address"
        },
        {
          "internalType": "uint256",
          "name": "tokenId",
          "type": "uint256"
        }
      ],
      "name": "transferFrom",
      "outputs": [],
      "stateMutability": "nonpayable",
      "type": "function"
    },
    {
      "inputs": [
        {
          "internalType": "address",
          "name": "newOwner",
          "type": "address"
        }
      ],
      "name": "transferOwnership",
      "outputs": [],
      "stateMutability": "nonpayable",
      "type": "function"
    },
    {
      "inputs": [
        {
          "internalType": "contract IOperatorFilterRegistry",
          "name": "registry",
          "type": "address"
        }
      ],
      "name": "updateOperatorFilterRegistry",
      "outputs": [],
      "stateMutability": "nonpayable",
      "type": "function"
    }
  ],
  "transactionHash": "0x33e09f19c2b7fcf7efb7f717b5f891d65171fc480611987e6be7c6cf286dfc38",
  "args": [
    "0x316a472D084489CB6d4C66e5eB62aE3AdA17521e"
  ],
  "numDeployments": 1,
  "solcInputHash": "84bab0eb3356c2e3bedca0f2f5a163c5",
  "bytecode": "0x60a060405234801561001057600080fd5b50604051613f71380380613f7183398101604081905261002f91610040565b6001600160a01b0316608052610070565b60006020828403121561005257600080fd5b81516001600160a01b038116811461006957600080fd5b9392505050565b608051613ed16100a06000396000818161039b0152818161041b01528181612dd80152612e660152613ed16000f3fe608060405234801561001057600080fd5b50600436106102925760003560e01c80638bb9c5bf11610160578063b88d4fde116100d8578063e1a8bf2c1161008c578063f2fde38b11610071578063f2fde38b146105d4578063f3993d11146105e7578063f7ba94bd146105fa57600080fd5b8063e1a8bf2c146105b7578063e985e9c5146105c157600080fd5b8063c87b56dd116100bd578063c87b56dd1461056a578063d53913931461057d578063d547741f146105a457600080fd5b8063b88d4fde14610544578063c3666c361461055757600080fd5b806395d89b411161012f578063a0c76f6211610114578063a0c76f6214610521578063a22cb46514610529578063b0ccc31e1461053c57600080fd5b806395d89b41146105065780639da5e8321461050e57600080fd5b80638bb9c5bf146104c55780638da5cb5b146104d85780638dc251e3146104e057806391d14854146104f357600080fd5b80632f2ff15d1161020e57806361ba27da116101c257806370a08231116101a757806370a082311461047e57806373c8a9581461049f5780638832e6e3146104b257600080fd5b806361ba27da146104585780636352211e1461046b57600080fd5b806342842e0e116101f357806342842e0e146103e55780634684d7e9146103f8578063572b6c051461040b57600080fd5b80632f2ff15d146103bf57806340c10f19146103d257600080fd5b80630e07f8541161026557806323b872dd1161024a57806323b872dd146103475780632a55205a1461035a5780632b4c9f161461039957600080fd5b80630e07f85414610321578063114ba8ee1461033457600080fd5b806301ffc9a71461029757806306fdde03146102bf578063081812fc146102d4578063095ea7b31461030c575b600080fd5b6102aa6102a53660046134b2565b61060d565b60405190151581526020015b60405180910390f35b6102c7610627565b6040516102b6919061353d565b6102e76102e2366004613550565b610636565b60405173ffffffffffffffffffffffffffffffffffffffff90911681526020016102b6565b61031f61031a36600461358b565b61064a565b005b61031f61032f3660046135f9565b610699565b61031f610342366004613693565b610716565b61031f6103553660046136b0565b610781565b61036d6103683660046136f1565b6107bf565b6040805173ffffffffffffffffffffffffffffffffffffffff90931683526020830191909152016102b6565b7f00000000000000000000000000000000000000000000000000000000000000006102e7565b61031f6103cd366004613713565b6107e2565b61031f6103e036600461358b565b610815565b61031f6103f33660046136b0565b610864565b61031f610406366004613788565b610895565b6102aa610419366004613693565b7f000000000000000000000000000000000000000000000000000000000000000073ffffffffffffffffffffffffffffffffffffffff90811691161490565b61031f610466366004613550565b610909565b6102e7610479366004613550565b610926565b61049161048c366004613693565b61093a565b6040519081526020016102b6565b61031f6104ad3660046137dd565b61094e565b61031f6104c0366004613883565b610967565b61031f6104d3366004613550565b6109e9565b6102e7610a04565b61031f6104ee366004613693565b610a2b565b6102aa610501366004613713565b610a48565b6102c7610a93565b61031f61051c3660046138df565b610a9d565b6102e7610b41565b61031f610537366004613952565b610b6b565b6102e7610b9a565b61031f610552366004613980565b610ba7565b61031f6105653660046137dd565b610bdc565b6102c7610578366004613550565b610bf5565b6104917f6d696e746572000000000000000000000000000000000000000000000000000081565b61031f6105b2366004613713565b610c18565b610491620186a081565b6102aa6105cf3660046139f3565b610c46565b61031f6105e2366004613693565b610c94565b61031f6105f5366004613a21565b610caf565b61031f6106083660046138df565b610ce9565b60006106218261061b610d00565b90610d2e565b92915050565b6060610631610e08565b905090565b600061062182610644610e1a565b90610e48565b73ffffffffffffffffffffffffffffffffffffffff8216156106785761067882610672610f01565b90610f2f565b610695610683610f39565b838361068d610e1a565b929190610f43565b5050565b6106b26106a4610f39565b6106ac6111be565b906111ec565b6106ba61122b565b6106c2611262565b6106ca611290565b6106d26112be565b6106da6112ec565b6106e261131a565b6106fc86868686866106f2611348565b9493929190611376565b61070e81610708610f01565b90611410565b505050505050565b61072f610721610f39565b6107296111be565b90611480565b61077e8161073b610f01565b9081547fffffffffffffffffffffffff00000000000000000000000000000000000000001673ffffffffffffffffffffffffffffffffffffffff91909116179055565b50565b600061078b610f39565b90506107a1818561079a610f01565b91906114eb565b6107b9818585856107b0610e1a565b93929190611528565b50505050565b6000806107d684846107cf611806565b9190611834565b915091505b9250929050565b60006107ec610f39565b90506107fa816107296111be565b6108108383836108086118de565b92919061190c565b505050565b6108507f6d696e7465720000000000000000000000000000000000000000000000000000610841610f39565b6108496118de565b91906119e2565b610695828261085d610e1a565b9190611a68565b600061086e610f39565b905061087d818561079a610f01565b6107b98185858561088c610e1a565b93929190611b82565b6108c17f6d696e7465720000000000000000000000000000000000000000000000000000610841610f39565b610810838383808060200260200160405190810160405280939291908181526020018383602002808284376000920191909152506109029250610e1a915050565b9190611bc8565b610914610721610f39565b61077e81610920611806565b90611d40565b600061062182610934610e1a565b90611dc6565b600061062182610948610e1a565b90611e2f565b610959610721610f39565b61070e868686868686611eab565b6109937f6d696e7465720000000000000000000000000000000000000000000000000000610841610f39565b6107b961099e610f39565b858585858080601f0160208091040260200160405190810160405280939291908181526020018383808284376000920191909152506109e09250610e1a915050565b93929190611f96565b61077e6109f4610f39565b826109fd6118de565b9190611fcc565b6000610631610a116111be565b5473ffffffffffffffffffffffffffffffffffffffff1690565b610a36610721610f39565b61077e81610a42611806565b90612070565b6000610a8c8383610a576118de565b60009283526020908152604080842073ffffffffffffffffffffffffffffffffffffffff909316845291905290205460ff1690565b9392505050565b60606106316120bd565b610ac97f6d696e7465720000000000000000000000000000000000000000000000000000610841610f39565b6107b984848080602002602001604051908101604052809392919081815260200183836020028082843760009201919091525050604080516020808802828101820190935287825290935087925086918291850190849080828437600092019190915250610b3a9250610e1a915050565b91906120cf565b6000610631610b4e611348565b6002015473ffffffffffffffffffffffffffffffffffffffff1690565b8015610b7d57610b7d82610672610f01565b610695610b88610f39565b8383610b92610e1a565b929190612165565b6000610631610a11610f01565b6000610bb1610f39565b9050610bc0818761079a610f01565b61070e818787878787610bd1610e1a565b95949392919061227d565b610be7610721610f39565b61070e8686868686866122f3565b6060610c0382610934610e1a565b506106213083610c11611348565b9190612589565b6000610c22610f39565b9050610c30816107296111be565b610810838383610c3e6118de565b929190612649565b6000610a8c8383610c55610e1a565b919073ffffffffffffffffffffffffffffffffffffffff9182166000908152600393909301602090815260408085209290931684525290205460ff1690565b61077e610c9f610f39565b82610ca86111be565b9190612713565b6000610cb9610f39565b9050610cc8818661079a610f01565b610ce28186868686610cd8610e1a565b9493929190612827565b5050505050565b610cf4610721610f39565b6107b984848484612b2c565b60008061062160017fca9d3e17f264b0f3984e2634e94adb37fa3e6a8103f06aeae6fa59e21c769f5e613a9d565b60007c01000000000000000000000000000000000000000000000000000000007fffffffff00000000000000000000000000000000000000000000000000000000831601610d7e57506000610621565b7ffe003659000000000000000000000000000000000000000000000000000000007fffffffff00000000000000000000000000000000000000000000000000000000831601610dcf57506001610621565b507fffffffff00000000000000000000000000000000000000000000000000000000166000908152602091909152604090205460ff1690565b6060610631610e15611348565b612bd8565b60008061062160017fddf3ee18ae6d688373c219468f8be446e7ae82215f4779d821c7ea5e8c13c0c1613a9d565b60008181526020839052604081205473ffffffffffffffffffffffffffffffffffffffff8116610eac576040517fdd560475000000000000000000000000000000000000000000000000000000008152600481018490526024015b60405180910390fd5b74010000000000000000000000000000000000000000811615610ef7575050600081815260028301602052604090205473ffffffffffffffffffffffffffffffffffffffff16610621565b6000915050610621565b60008061062160017f609b85bcafa81ecfaf3ff62cdde2c6c9082a68dbe4922f07399c706bdeb7cd31613a9d565b6106958282612c6e565b6000610631612d95565b60008181526020859052604090205473ffffffffffffffffffffffffffffffffffffffff8116610fa2576040517fdd56047500000000000000000000000000000000000000000000000000000000815260048101839052602401610ea3565b8073ffffffffffffffffffffffffffffffffffffffff8082169085160361100d576040517fb7fdc01000000000000000000000000000000000000000000000000000000000815273ffffffffffffffffffffffffffffffffffffffff82166004820152602401610ea3565b611018868287612ee2565b611075576040517fc7563a1800000000000000000000000000000000000000000000000000000000815273ffffffffffffffffffffffffffffffffffffffff80871660048301528216602482015260448101849052606401610ea3565b73ffffffffffffffffffffffffffffffffffffffff84166110da57740100000000000000000000000000000000000000008216156110d557600083815260208790526040902073ffffffffffffffffffffffffffffffffffffffff821690555b61115b565b74010000000000000000000000000000000000000000821780831461110b5760008481526020889052604090208190555b506000838152600287016020526040902080547fffffffffffffffffffffffff00000000000000000000000000000000000000001673ffffffffffffffffffffffffffffffffffffffff86161790555b828473ffffffffffffffffffffffffffffffffffffffff168273ffffffffffffffffffffffffffffffffffffffff167f8c5be1e5ebec7d5bd14f71427d1e84f3dd0314c0f7b2291e5b200ac8c7c3b92560405160405180910390a4505050505050565b60008061062160017fc9ed16f33ab3a66c84bfd83099ccb2a8845871e2e1c1928f63797152f0fd54cd613a9d565b61122161121a60017f5b388d90dc1312ba799f321972f13311234fa1163bcabec7cf66101c4876eb84613a9d565b6001612f57565b6106958282612fa3565b6112607f80ac58cd000000000000000000000000000000000000000000000000000000006001611259610d00565b9190613059565b565b6112607ff3993d11000000000000000000000000000000000000000000000000000000006001611259610d00565b6112607f5b5e139f000000000000000000000000000000000000000000000000000000006001611259610d00565b6112607f8e773e13000000000000000000000000000000000000000000000000000000006001611259610d00565b6112607f9da5e832000000000000000000000000000000000000000000000000000000006001611259610d00565b6112607f2a55205a000000000000000000000000000000000000000000000000000000006001611259610d00565b60008061062160017f7ea68fd2dcf1c056b94db6a0a537aa80d26fa9ab1eacd85da1ba0b61b7e7a8a5613a9d565b6113a461121a60017f92f72593ca50a0096f68ee94e7000db40ed086164b695855e2250750b8bfaf59613a9d565b856113b0858783613b79565b50600186016113c0838583613b79565b5060029590950180547fffffffffffffffffffffffff00000000000000000000000000000000000000001673ffffffffffffffffffffffffffffffffffffffff9096169590951790945550505050565b61143e61121a60017f2f02d396cb1be29636682c8684200b30a98554d3b74293aa4495cb5e1d252f6e613a9d565b81547fffffffffffffffffffffffff00000000000000000000000000000000000000001673ffffffffffffffffffffffffffffffffffffffff91909116179055565b815473ffffffffffffffffffffffffffffffffffffffff828116911614610695576040517f2ef4875e00000000000000000000000000000000000000000000000000000000815273ffffffffffffffffffffffffffffffffffffffff82166004820152602401610ea3565b8073ffffffffffffffffffffffffffffffffffffffff168273ffffffffffffffffffffffffffffffffffffffff1614610810576108108383612c6e565b73ffffffffffffffffffffffffffffffffffffffff8216611575576040517f86c8706700000000000000000000000000000000000000000000000000000000815260040160405180910390fd5b60008181526020869052604090205473ffffffffffffffffffffffffffffffffffffffff81166115d4576040517fdd56047500000000000000000000000000000000000000000000000000000000815260048101839052602401610ea3565b73ffffffffffffffffffffffffffffffffffffffff84168173ffffffffffffffffffffffffffffffffffffffff1614611658576040517f14dbb53600000000000000000000000000000000000000000000000000000000815273ffffffffffffffffffffffffffffffffffffffff8516600482015260248101839052604401610ea3565b611663868587612ee2565b6117125774010000000000000000000000000000000000000000811615806116b45750600082815260028701602052604090205473ffffffffffffffffffffffffffffffffffffffff868116911614155b15611712576040517fa4a3018b00000000000000000000000000000000000000000000000000000000815273ffffffffffffffffffffffffffffffffffffffff80871660048301528516602482015260448101839052606401610ea3565b600082815260208790526040902073ffffffffffffffffffffffffffffffffffffffff808516918290558516146117a35773ffffffffffffffffffffffffffffffffffffffff80851660009081526001808901602052604080832080547fffffffffffffffffffffffffffffffffffffffffffffffffffffffffffffffff0190559286168252919020805490910190555b818373ffffffffffffffffffffffffffffffffffffffff168573ffffffffffffffffffffffffffffffffffffffff167fddf252ad1be2c89b69c2b068fc378daa952ba7f163c4a11628f55a4df523b3ef60405160405180910390a4505050505050565b60008061062160017f2c0cf10337caabbd02dcf226f05f5fd19a0919a41a8df8958c39b80007826858613a9d565b825473ffffffffffffffffffffffffffffffffffffffff8116906000907401000000000000000000000000000000000000000090046bffffffffffffffffffffffff16831580611882575080155b1561189057600091506118d5565b620186a08410156118ba57620186a06118a98286613c93565b6118b39190613caa565b91506118d5565b806118c8620186a086613caa565b6118d29190613c93565b91505b50935093915050565b60008061062160017fc8827d3282af6f37b64c3e9e6f3ac9df286ab0bb0fccd6f8661bf19adb368b23613a9d565b60008381526020858152604080832073ffffffffffffffffffffffffffffffffffffffff8616845290915290205460ff166107b95760008381526020858152604080832073ffffffffffffffffffffffffffffffffffffffff8681168086529184529382902080547fffffffffffffffffffffffffffffffffffffffffffffffffffffffffffffff00166001179055815187815292830152918316918101919091527f2f8788117e7eff1d82e926ec794901d17c78024a50270940304540a733656f0d906060015b60405180910390a150505050565b60008281526020848152604080832073ffffffffffffffffffffffffffffffffffffffff8516845290915290205460ff16610810576040517f7aa728820000000000000000000000000000000000000000000000000000000081526004810183905273ffffffffffffffffffffffffffffffffffffffff82166024820152604401610ea3565b73ffffffffffffffffffffffffffffffffffffffff8216611ab5576040517f7851b9cd00000000000000000000000000000000000000000000000000000000815260040160405180910390fd5b60008181526020849052604090205473ffffffffffffffffffffffffffffffffffffffff1615611b14576040517f753eceac00000000000000000000000000000000000000000000000000000000815260048101829052602401610ea3565b60008181526020848152604080832073ffffffffffffffffffffffffffffffffffffffff86169081905580845260018088019093528184208054909301909255518392907fddf252ad1be2c89b69c2b068fc378daa952ba7f163c4a11628f55a4df523b3ef908290a4505050565b611b8f8585858585611528565b73ffffffffffffffffffffffffffffffffffffffff82163b15610ce257610ce28484848460405180602001604052806000815250613135565b73ffffffffffffffffffffffffffffffffffffffff8216611c15576040517f7851b9cd00000000000000000000000000000000000000000000000000000000815260040160405180910390fd5b805160005b81811015611d0b576000838281518110611c3657611c36613ce5565b60200260200101519050611c748660000160008381526020019081526020016000205473ffffffffffffffffffffffffffffffffffffffff16151590565b15611cae576040517f753eceac00000000000000000000000000000000000000000000000000000000815260048101829052602401610ea3565b60008181526020879052604080822073ffffffffffffffffffffffffffffffffffffffff88169081905590518392907fddf252ad1be2c89b69c2b068fc378daa952ba7f163c4a11628f55a4df523b3ef908290a450600101611c1a565b5073ffffffffffffffffffffffffffffffffffffffff9092166000908152600190930160205250604090912080549091019055565b620186a0811115611d80576040517fac04040800000000000000000000000000000000000000000000000000000000815260048101829052602401610ea3565b81546bffffffffffffffffffffffff909116740100000000000000000000000000000000000000000273ffffffffffffffffffffffffffffffffffffffff909116179055565b60008181526020839052604081205473ffffffffffffffffffffffffffffffffffffffff8116611e25576040517fdd56047500000000000000000000000000000000000000000000000000000000815260048101849052602401610ea3565b805b949350505050565b600073ffffffffffffffffffffffffffffffffffffffff8216611e7e576040517faefbce4e00000000000000000000000000000000000000000000000000000000815260040160405180910390fd5b5073ffffffffffffffffffffffffffffffffffffffff166000908152600191909101602052604090205490565b848381141580611ebb5750808214155b15611ef2576040517f6582533600000000000000000000000000000000000000000000000000000000815260040160405180910390fd5b60005b81811015611f8c57611f84888883818110611f1257611f12613ce5565b9050602002016020810190611f279190613693565b858584818110611f3957611f39613ce5565b90506020020135888885818110611f5257611f52613ce5565b9050602002016020810190611f679190613693565b73ffffffffffffffffffffffffffffffffffffffff16919061324a565b600101611ef5565b5050505050505050565b611fa1858484611a68565b73ffffffffffffffffffffffffffffffffffffffff83163b15610ce257610ce2846000858585613135565b611fd78382846119e2565b60008181526020848152604080832073ffffffffffffffffffffffffffffffffffffffff86168085529083529281902080547fffffffffffffffffffffffffffffffffffffffffffffffffffffffffffffff0016905580518481529182018390528101919091527ff6391f5c32d9c69d2a47ea670b442974b53935d1edc7fd64eb21e047a839171b9060600160405180910390a1505050565b73ffffffffffffffffffffffffffffffffffffffff811661143e576040517f16de0c8000000000000000000000000000000000000000000000000000000000815260040160405180910390fd5b60606106316120ca611348565b6132d7565b81518151811461210b576040517f6582533600000000000000000000000000000000000000000000000000000000815260040160405180910390fd5b60005b81811015610ce25761215d84828151811061212b5761212b613ce5565b602002602001015184838151811061214557612145613ce5565b602002602001015187611a689092919063ffffffff16565b60010161210e565b8273ffffffffffffffffffffffffffffffffffffffff168273ffffffffffffffffffffffffffffffffffffffff16036121e2576040517fe4215c6a00000000000000000000000000000000000000000000000000000000815273ffffffffffffffffffffffffffffffffffffffff84166004820152602401610ea3565b73ffffffffffffffffffffffffffffffffffffffff838116600081815260038701602090815260408083209487168084529482529182902080547fffffffffffffffffffffffffffffffffffffffffffffffffffffffffffffff001686151590811790915591519182527f17307eab39ab6107e8899845ad3d59bd9653f200f220920489ca2b5937696c31910160405180910390a350505050565b61228a8787878787611528565b73ffffffffffffffffffffffffffffffffffffffff84163b156122ea576122ea8686868686868080601f01602080910402602001604051908101604052809392919081815260200183838082843760009201919091525061313592505050565b50505050505050565b8483811415806123035750808214155b1561233a576040517f6582533600000000000000000000000000000000000000000000000000000000815260040160405180910390fd5b60005b81811015611f8c57600086868381811061235957612359613ce5565b905060200201602081019061236e9190613693565b6040517f01ffc9a70000000000000000000000000000000000000000000000000000000081527f80ac58cd00000000000000000000000000000000000000000000000000000000600482015290915073ffffffffffffffffffffffffffffffffffffffff8216906301ffc9a790602401602060405180830381865afa1580156123fb573d6000803e3d6000fd5b505050506040513d601f19601f8201168201806040525081019061241f9190613d14565b61246d576040517f986b9f1f00000000000000000000000000000000000000000000000000000000815273ffffffffffffffffffffffffffffffffffffffff82166004820152602401610ea3565b86868381811061247f5761247f613ce5565b90506020020160208101906124949190613693565b73ffffffffffffffffffffffffffffffffffffffff166342842e0e308b8b868181106124c2576124c2613ce5565b90506020020160208101906124d79190613693565b8888878181106124e9576124e9613ce5565b6040517fffffffff0000000000000000000000000000000000000000000000000000000060e088901b16815273ffffffffffffffffffffffffffffffffffffffff958616600482015294909316602485015250602090910201356044820152606401600060405180830381600087803b15801561256557600080fd5b505af1158015612579573d6000803e3d6000fd5b505050505080600101905061233d565b60028301546040517ff724dad700000000000000000000000000000000000000000000000000000000815273ffffffffffffffffffffffffffffffffffffffff848116600483015260248201849052606092169063f724dad790604401600060405180830381865afa158015612603573d6000803e3d6000fd5b505050506040513d6000823e601f3d9081017fffffffffffffffffffffffffffffffffffffffffffffffffffffffffffffffe0168201604052611e279190810190613d31565b60008381526020858152604080832073ffffffffffffffffffffffffffffffffffffffff8616845290915290205460ff16156107b95760008381526020858152604080832073ffffffffffffffffffffffffffffffffffffffff8681168086529184529382902080547fffffffffffffffffffffffffffffffffffffffffffffffffffffffffffffff00169055815187815292830152918316918101919091527ff6391f5c32d9c69d2a47ea670b442974b53935d1edc7fd64eb21e047a839171b906060016119d4565b825473ffffffffffffffffffffffffffffffffffffffff9081169083168114612780576040517f2ef4875e00000000000000000000000000000000000000000000000000000000815273ffffffffffffffffffffffffffffffffffffffff84166004820152602401610ea3565b8173ffffffffffffffffffffffffffffffffffffffff168173ffffffffffffffffffffffffffffffffffffffff16146107b95783547fffffffffffffffffffffffff00000000000000000000000000000000000000001673ffffffffffffffffffffffffffffffffffffffff8381169182178655604051908316907f8be0079c531659141344cd1fd0a4f28419497f9722a3daafe3b4186f6b6457e090600090a350505050565b73ffffffffffffffffffffffffffffffffffffffff8316612874576040517f86c8706700000000000000000000000000000000000000000000000000000000815260040160405180910390fd5b6000612881878688612ee2565b90508160005b81811015612aa55760008585838181106128a3576128a3613ce5565b602090810292909201356000818152928d90526040909220549192505073ffffffffffffffffffffffffffffffffffffffff8116612910576040517fdd56047500000000000000000000000000000000000000000000000000000000815260048101839052602401610ea3565b73ffffffffffffffffffffffffffffffffffffffff89168173ffffffffffffffffffffffffffffffffffffffff1614612994576040517f14dbb53600000000000000000000000000000000000000000000000000000000815273ffffffffffffffffffffffffffffffffffffffff8a16600482015260248101839052604401610ea3565b84612a445774010000000000000000000000000000000000000000811615806129e65750600082815260028c01602052604090205473ffffffffffffffffffffffffffffffffffffffff8b8116911614155b15612a44576040517fa4a3018b00000000000000000000000000000000000000000000000000000000815273ffffffffffffffffffffffffffffffffffffffff808c1660048301528a16602482015260448101839052606401610ea3565b600082815260208c9052604080822073ffffffffffffffffffffffffffffffffffffffff808c16918290559151859391928d16917fddf252ad1be2c89b69c2b068fc378daa952ba7f163c4a11628f55a4df523b3ef91a45050600101612887565b508473ffffffffffffffffffffffffffffffffffffffff168673ffffffffffffffffffffffffffffffffffffffff1614158015612ae157508015155b15611f8c5773ffffffffffffffffffffffffffffffffffffffff808716600090815260018a016020526040808220805485900390559187168152208054820190555050505050505050565b82818114612b66576040517f6582533600000000000000000000000000000000000000000000000000000000815260040160405180910390fd5b60005b8181101561070e57612bd0848483818110612b8657612b86613ce5565b90506020020135878784818110612b9f57612b9f613ce5565b9050602002016020810190612bb49190613693565b73ffffffffffffffffffffffffffffffffffffffff16906132e8565b600101612b69565b6060816000018054612be990613adf565b80601f0160208091040260200160405190810160405280929190818152602001828054612c1590613adf565b8015612c625780601f10612c3757610100808354040283529160200191612c62565b820191906000526020600020905b815481529060010190602001808311612c4557829003601f168201915b50505050509050919050565b815473ffffffffffffffffffffffffffffffffffffffff168015801590612cac575060008173ffffffffffffffffffffffffffffffffffffffff163b115b15610810576040517fc617113400000000000000000000000000000000000000000000000000000000815230600482015273ffffffffffffffffffffffffffffffffffffffff838116602483015282169063c617113490604401602060405180830381865afa158015612d23573d6000803e3d6000fd5b505050506040513d601f19601f82011682018060405250810190612d479190613d14565b610810576040517fede71dcc00000000000000000000000000000000000000000000000000000000815273ffffffffffffffffffffffffffffffffffffffff83166004820152602401610ea3565b600033321480612da55750601836105b15612daf57503390565b7fffffffffffffffffffffffffffffffffffffffffffffffffffffffffffffffec36013560601c7f000000000000000000000000000000000000000000000000000000000000000073ffffffffffffffffffffffffffffffffffffffff16331480612ed157506040517f019a202800000000000000000000000000000000000000000000000000000000815273ffffffffffffffffffffffffffffffffffffffff82811660048301523360248301523060448301527f0000000000000000000000000000000000000000000000000000000000000000169063019a202890606401602060405180830381865afa158015612ead573d6000803e3d6000fd5b505050506040513d601f19601f82011682018060405250810190612ed19190613d14565b15612edb57919050565b3391505090565b60008173ffffffffffffffffffffffffffffffffffffffff168373ffffffffffffffffffffffffffffffffffffffff161480611e2757505073ffffffffffffffffffffffffffffffffffffffff9182166000908152600393909301602090815260408085209290931684525290205460ff1690565b81548290828110612f9e576040517fbf0c18ec0000000000000000000000000000000000000000000000000000000081526004810182905260248101849052604401610ea3565b505550565b73ffffffffffffffffffffffffffffffffffffffff81161561302b5781547fffffffffffffffffffffffff00000000000000000000000000000000000000001673ffffffffffffffffffffffffffffffffffffffff821690811783556040516000907f8be0079c531659141344cd1fd0a4f28419497f9722a3daafe3b4186f6b6457e0908290a35b6106957f7f5828d0000000000000000000000000000000000000000000000000000000006001611259610d00565b7c01000000000000000000000000000000000000000000000000000000007fffffffff000000000000000000000000000000000000000000000000000000008316016130d1576040517f72c683bb00000000000000000000000000000000000000000000000000000000815260040160405180910390fd5b7fffffffff00000000000000000000000000000000000000000000000000000000919091166000908152602092909252604090912080547fffffffffffffffffffffffffffffffffffffffffffffffffffffffffffffff0016911515919091179055565b6040517f150b7a02000000000000000000000000000000000000000000000000000000008082529073ffffffffffffffffffffffffffffffffffffffff85169063150b7a029061318f908990899088908890600401613e23565b6020604051808303816000875af11580156131ae573d6000803e3d6000fd5b505050506040513d601f19601f820116820180604052508101906131d29190613e7e565b7fffffffff000000000000000000000000000000000000000000000000000000001614610ce2576040517fc215a7a100000000000000000000000000000000000000000000000000000000815273ffffffffffffffffffffffffffffffffffffffff8416600482015260248101839052604401610ea3565b6040805173ffffffffffffffffffffffffffffffffffffffff8416602482015260448082018490528251808303909101815260649091019091526020810180517bffffffffffffffffffffffffffffffffffffffffffffffffffffffff167fa9059cbb0000000000000000000000000000000000000000000000000000000017905261081090849061339e565b6060816001018054612be990613adf565b8047101561332b576040517fcf47918100000000000000000000000000000000000000000000000000000000815247600482015260248101829052604401610ea3565b6000808373ffffffffffffffffffffffffffffffffffffffff168360405160006040518083038185875af1925050503d8060008114613386576040519150601f19603f3d011682016040523d82523d6000602084013e61338b565b606091505b5091509150816107b9576107b981613442565b600080602060008451602086016000885af1806133c1576040513d6000823e3d81fd5b50506000513d915081156133d95780600114156133f3565b73ffffffffffffffffffffffffffffffffffffffff84163b155b156107b9576040517f5274afe700000000000000000000000000000000000000000000000000000000815273ffffffffffffffffffffffffffffffffffffffff85166004820152602401610ea3565b8051156134525780518082602001fd5b6040517fd6bda27500000000000000000000000000000000000000000000000000000000815260040160405180910390fd5b7fffffffff000000000000000000000000000000000000000000000000000000008116811461077e57600080fd5b6000602082840312156134c457600080fd5b8135610a8c81613484565b60005b838110156134ea5781810151838201526020016134d2565b50506000910152565b6000815180845261350b8160208601602086016134cf565b601f017fffffffffffffffffffffffffffffffffffffffffffffffffffffffffffffffe0169290920160200192915050565b602081526000610a8c60208301846134f3565b60006020828403121561356257600080fd5b5035919050565b73ffffffffffffffffffffffffffffffffffffffff8116811461077e57600080fd5b6000806040838503121561359e57600080fd5b82356135a981613569565b946020939093013593505050565b60008083601f8401126135c957600080fd5b50813567ffffffffffffffff8111156135e157600080fd5b6020830191508360208285010111156107db57600080fd5b6000806000806000806080878903121561361257600080fd5b863567ffffffffffffffff81111561362957600080fd5b61363589828a016135b7565b909750955050602087013567ffffffffffffffff81111561365557600080fd5b61366189828a016135b7565b909550935050604087013561367581613569565b9150606087013561368581613569565b809150509295509295509295565b6000602082840312156136a557600080fd5b8135610a8c81613569565b6000806000606084860312156136c557600080fd5b83356136d081613569565b925060208401356136e081613569565b929592945050506040919091013590565b6000806040838503121561370457600080fd5b50508035926020909101359150565b6000806040838503121561372657600080fd5b82359150602083013561373881613569565b809150509250929050565b60008083601f84011261375557600080fd5b50813567ffffffffffffffff81111561376d57600080fd5b6020830191508360208260051b85010111156107db57600080fd5b60008060006040848603121561379d57600080fd5b83356137a881613569565b9250602084013567ffffffffffffffff8111156137c457600080fd5b6137d086828701613743565b9497909650939450505050565b600080600080600080606087890312156137f657600080fd5b863567ffffffffffffffff81111561380d57600080fd5b61381989828a01613743565b909750955050602087013567ffffffffffffffff81111561383957600080fd5b61384589828a01613743565b909550935050604087013567ffffffffffffffff81111561386557600080fd5b61387189828a01613743565b979a9699509497509295939492505050565b6000806000806060858703121561389957600080fd5b84356138a481613569565b935060208501359250604085013567ffffffffffffffff8111156138c757600080fd5b6138d3878288016135b7565b95989497509550505050565b600080600080604085870312156138f557600080fd5b843567ffffffffffffffff81111561390c57600080fd5b61391887828801613743565b909550935050602085013567ffffffffffffffff81111561393857600080fd5b6138d387828801613743565b801515811461077e57600080fd5b6000806040838503121561396557600080fd5b823561397081613569565b9150602083013561373881613944565b60008060008060006080868803121561399857600080fd5b85356139a381613569565b945060208601356139b381613569565b935060408601359250606086013567ffffffffffffffff8111156139d657600080fd5b6139e2888289016135b7565b969995985093965092949392505050565b60008060408385031215613a0657600080fd5b8235613a1181613569565b9150602083013561373881613569565b60008060008060608587031215613a3757600080fd5b8435613a4281613569565b93506020850135613a5281613569565b9250604085013567ffffffffffffffff81111561393857600080fd5b7f4e487b7100000000000000000000000000000000000000000000000000000000600052601160045260246000fd5b8181038181111561062157610621613a6e565b7f4e487b7100000000000000000000000000000000000000000000000000000000600052604160045260246000fd5b600181811c90821680613af357607f821691505b602082108103613b2c577f4e487b7100000000000000000000000000000000000000000000000000000000600052602260045260246000fd5b50919050565b601f82111561081057806000526020600020601f840160051c81016020851015613b595750805b601f840160051c820191505b81811015610ce25760008155600101613b65565b67ffffffffffffffff831115613b9157613b91613ab0565b613ba583613b9f8354613adf565b83613b32565b6000601f841160018114613bf75760008515613bc15750838201355b7fffffffffffffffffffffffffffffffffffffffffffffffffffffffffffffffff600387901b1c1916600186901b178355610ce2565b6000838152602090207fffffffffffffffffffffffffffffffffffffffffffffffffffffffffffffffe0861690835b82811015613c465786850135825560209485019460019092019101613c26565b5086821015613c81577fffffffffffffffffffffffffffffffffffffffffffffffffffffffffffffffff60f88860031b161c19848701351681555b505060018560011b0183555050505050565b808202811582820484141761062157610621613a6e565b600082613ce0577f4e487b7100000000000000000000000000000000000000000000000000000000600052601260045260246000fd5b500490565b7f4e487b7100000000000000000000000000000000000000000000000000000000600052603260045260246000fd5b600060208284031215613d2657600080fd5b8151610a8c81613944565b600060208284031215613d4357600080fd5b815167ffffffffffffffff811115613d5a57600080fd5b8201601f81018413613d6b57600080fd5b805167ffffffffffffffff811115613d8557613d85613ab0565b6040517fffffffffffffffffffffffffffffffffffffffffffffffffffffffffffffffe0603f7fffffffffffffffffffffffffffffffffffffffffffffffffffffffffffffffe0601f8501160116810181811067ffffffffffffffff82111715613df157613df1613ab0565b604052818152828201602001861015613e0957600080fd5b613e1a8260208301602086016134cf565b95945050505050565b73ffffffffffffffffffffffffffffffffffffffff8516815273ffffffffffffffffffffffffffffffffffffffff84166020820152826040820152608060608201526000613e7460808301846134f3565b9695505050505050565b600060208284031215613e9057600080fd5b8151610a8c8161348456fea26469706673582212203454858823522c04afbf7c9a70f53eca8512a00b4aa4a5b944c8b65846bf9e9764736f6c634300081c0033",
  "devdoc": {
    "errors": {
      "ERC2981IncorrectRoyaltyPercentage(uint256)": [
        {
          "params": {
            "percentage": "The royalty percentage that was attempted to be set."
          }
        }
      ],
      "ERC721ExistingToken(uint256)": [
        {
          "params": {
            "tokenId": "The identifier of the token that already exists."
          }
        }
      ],
      "ERC721NonApprovedForApproval(address,address,uint256)": [
        {
          "params": {
            "sender": "The message sender.",
            "tokenId": "The identifier of the token."
          }
        }
      ],
      "ERC721NonApprovedForTransfer(address,address,uint256)": [
        {
          "params": {
            "sender": "The message sender.",
            "tokenId": "The identifier of the token."
          }
        }
      ],
      "ERC721NonExistingToken(uint256)": [
        {
          "params": {
            "tokenId": "The identifier of the token that was checked."
          }
        }
      ],
      "ERC721NonOwnedToken(address,uint256)": [
        {
          "params": {
            "account": "The account that was expected to own the token.",
            "tokenId": "The identifier of the token."
          }
        }
      ],
      "ERC721SafeTransferRejected(address,uint256)": [
        {
          "params": {
            "recipient": "The recipient contract.",
            "tokenId": "The identifier of the token."
          }
        }
      ],
      "ERC721SelfApproval(address)": [
        {
          "params": {
            "account": "The account trying to approve itself."
          }
        }
      ],
      "ERC721SelfApprovalForAll(address)": [
        {
          "params": {
            "account": "The account trying to approveForAll itself."
          }
        }
      ],
      "FailedCall()": [
        {
          "details": "A call to an address target failed. The target may have reverted."
        }
      ],
      "IncorrectTokenContractType(address)": [
        {
          "params": {
            "tokenContract": "The token contract being recovered."
          }
        }
      ],
      "InitializationPhaseAlreadyReached(uint256,uint256)": [
        {
          "params": {
            "currentPhase": "The current phase.",
            "newPhase": "The new phase trying to be set."
          }
        }
      ],
      "InsufficientBalance(uint256,uint256)": [
        {
          "details": "The ETH balance of the account is not enough to perform the operation."
        }
      ],
      "NotContractOwner(address)": [
        {
          "params": {
            "account": "The account that was checked."
          }
        }
      ],
      "NotRoleHolder(bytes32,address)": [
        {
          "params": {
            "account": "The account that was checked.",
            "role": "The role the caller is missing."
          }
        }
      ],
      "OperatorNotAllowed(address)": [
        {
          "params": {
            "operator": "The address that is not authorized."
          }
        }
      ],
      "SafeERC20FailedOperation(address)": [
        {
          "details": "An operation with an ERC-20 token failed."
        }
      ]
    },
    "events": {
      "Approval(address,address,uint256)": {
        "params": {
          "approved": "The approved address.",
          "owner": "The token owner.",
          "tokenId": "The approved token identifier."
        }
      },
      "ApprovalForAll(address,address,bool)": {
        "params": {
          "approved": "True when then approval is set, false when it is unset.",
          "operator": "The approved address.",
          "owner": "The tokens owner."
        }
      },
      "OwnershipTransferred(address,address)": {
        "params": {
          "newOwner": "the new contract owner.",
          "previousOwner": "the previous contract owner."
        }
      },
      "RoleGranted(bytes32,address,address)": {
        "params": {
          "account": "The account that has been granted the role.",
          "operator": "The account that granted the role.",
          "role": "The role that has been granted."
        }
      },
      "RoleRevoked(bytes32,address,address)": {
        "params": {
          "account": "The account that has been revoked the role.",
          "operator": "The account that revoked the role.",
          "role": "The role that has been revoked."
        }
      },
      "Transfer(address,address,uint256)": {
        "params": {
          "from": "The previous token owner.",
          "to": "The new token owner.",
          "tokenId": "The transferred token identifier."
        }
      }
    },
    "kind": "dev",
    "methods": {
      "approve(address,uint256)": {
        "details": "Reverts with {OperatorNotAllowed} if `to` is not the zero address and is not allowed by the operator registry.",
        "params": {
          "to": "The address to approve, or the zero address to remove any existing approval.",
          "tokenId": "The token identifier to give approval for."
        }
      },
      "balanceOf(address)": {
        "details": "Reverts if `owner` is the zero address.",
        "params": {
          "owner": "The address to query the balance of."
        },
        "returns": {
          "balance": "The amount owned by the owner."
        }
      },
      "batchMint(address,uint256[])": {
        "details": "Reverts with {NotRoleHolder} if the sender does not have the 'minter' role.",
        "params": {
          "to": "Address of the new tokens owner.",
          "tokenIds": "Identifiers of the tokens to mint."
        }
      },
      "batchTransferFrom(address,address,uint256[])": {
        "details": "Reverts with OperatorNotAllowed if the sender is not `from` and is not allowed by the operator registry.",
        "params": {
          "from": "Current tokens owner.",
          "to": "Address of the new token owner.",
          "tokenIds": "Identifiers of the tokens to transfer."
        }
      },
      "deliver(address[],uint256[])": {
        "details": "Reverts with {NotRoleHolder} if the sender does not have the 'minter' role.",
        "params": {
          "recipients": "Addresses of the new tokens owners.",
          "tokenIds": "Identifiers of the tokens to mint."
        }
      },
      "getApproved(uint256)": {
        "details": "Reverts if `tokenId` does not exist.",
        "params": {
          "tokenId": "The token identifier to query the approval of."
        },
        "returns": {
          "approved": "The approved address for the token identifier, or the zero address if no approval is set."
        }
      },
      "grantRole(bytes32,address)": {
        "details": "Reverts with {NotContractOwner} if the sender is not the contract owner.Emits a {RoleGranted} event if the account did not previously have the role.",
        "params": {
          "account": "The account to grant the role to.",
          "role": "The role to grant."
        }
      },
      "hasRole(bytes32,address)": {
        "params": {
          "account": "The account.",
          "role": "The role."
        },
        "returns": {
          "hasRole_": "Whether `account` has `role`."
        }
      },
      "isApprovedForAll(address,address)": {
        "params": {
          "operator": "The address which receives the approval for all tokens.",
          "owner": "The address which gives the approval for all tokens."
        },
        "returns": {
          "approvedForAll": "Whether the operator is approved for all tokens by the owner."
        }
      },
      "isTrustedForwarder(address)": {
        "params": {
          "forwarder": "The forwarder to check."
        },
        "returns": {
          "_0": "True if `forwarder` is trusted, false if not."
        }
      },
      "metadataResolver()": {
        "returns": {
          "tokenMetadataResolver": "The token metadata resolver address."
        }
      },
      "mint(address,uint256)": {
        "details": "Reverts with {NotRoleHolder} if the sender does not have the 'minter' role.",
        "params": {
          "to": "Address of the new token owner.",
          "tokenId": "Identifier of the token to mint."
        }
      },
      "name()": {
        "returns": {
          "tokenName": "The name of the token."
        }
      },
      "owner()": {
        "returns": {
          "_0": "The address of the contract owner."
        }
      },
      "ownerOf(uint256)": {
        "details": "Reverts if `tokenId` does not exist.",
        "params": {
          "tokenId": "The token identifier to query the owner of."
        },
        "returns": {
          "tokenOwner": "The owner of the token identifier."
        }
      },
      "recoverERC20s(address[],address[],uint256[])": {
        "details": "Reverts with {NotContractOwner} if the sender is not the contract owner.Reverts with {InconsistentArrayLengths} if `accounts`, `tokens` and `amounts` do not have the same length.Reverts if one of the ERC20 transfers fails for any reason.",
        "params": {
          "accounts": "the list of accounts to transfer the tokens to.",
          "amounts": "the list of token amounts to transfer.",
          "tokens": "the list of ERC20 token addresses."
        }
      },
      "recoverERC721s(address[],address[],uint256[])": {
        "details": "Reverts with {NotContractOwner} if the sender is not the contract owner.Reverts with {InconsistentArrayLengths} if `accounts`, `contracts` and `amounts` do not have the same length.Reverts if one of the ERC721 transfers fails for any reason.",
        "params": {
          "accounts": "the list of accounts to transfer the tokens to.",
          "contracts": "the list of ERC721 contract addresses.",
          "tokenIds": "the list of token ids to transfer."
        }
      },
      "recoverETH(address[],uint256[])": {
        "details": "Reverts with {NotContractOwner} if the sender is not the contract owner.Reverts with {InconsistentArrayLengths} `accounts` and `amounts` do not have the same length.Reverts if one of the ETH transfers fails for any reason.",
        "params": {
          "accounts": "the list of accounts to transfer the tokens to.",
          "amounts": "the list of token amounts to transfer."
        }
      },
      "renounceRole(bytes32)": {
        "details": "Reverts if `sender` does not have `role`.Emits a {RoleRevoked} event.",
        "params": {
          "role": "The role to renounce."
        }
      },
      "revokeRole(bytes32,address)": {
        "details": "Reverts with {NotContractOwner} if the sender is not the contract owner.Emits a {RoleRevoked} event if the account previously had the role.",
        "params": {
          "account": "The account to revoke the role from.",
          "role": "The role to revoke."
        }
      },
      "royaltyInfo(uint256,uint256)": {
        "params": {
          "salePrice": "The sale price of the NFT asset specified by `tokenId`",
          "tokenId": "The NFT asset queried for royalty information"
        },
        "returns": {
          "receiver": "Address of who should be sent the royalty payment",
          "royaltyAmount": "The royalty payment amount for `salePrice`"
        }
      },
      "safeMint(address,uint256,bytes)": {
        "details": "Reverts with {NotRoleHolder} if the sender does not have the 'minter' role.",
        "params": {
          "data": "Optional data to pass along to the receiver call.",
          "to": "Address of the new token owner.",
          "tokenId": "Identifier of the token to mint."
        }
      },
      "safeTransferFrom(address,address,uint256)": {
        "details": "Reverts with {OperatorNotAllowed} if the sender is not `from` and is not allowed by the operator registry.",
        "params": {
          "from": "The current token owner.",
          "to": "The recipient of the token transfer.",
          "tokenId": "The identifier of the token to transfer."
        }
      },
      "safeTransferFrom(address,address,uint256,bytes)": {
        "details": "Reverts with {OperatorNotAllowed} if the sender is not `from` and is not allowed by the operator registry.",
        "params": {
          "data": "Optional data to send along to a receiver contract.",
          "from": "The current token owner.",
          "to": "The recipient of the token transfer.",
          "tokenId": "The identifier of the token to transfer."
        }
      },
      "setApprovalForAll(address,bool)": {
        "details": "Reverts with {OperatorNotAllowed} if `approved` is true and `operator` is not allowed by the operator registry.",
        "params": {
          "approved": "True to set an approval for all tokens, false to unset it.",
          "operator": "The address to approve for all tokens."
        }
      },
      "setRoyaltyPercentage(uint256)": {
        "details": "Reverts with {NotContractOwner} if the sender is not the contract owner.Reverts with {IncorrectRoyaltyPercentage} if `percentage` is above 100% (> FEE_DENOMINATOR).",
        "params": {
          "percentage": "The new percentage to set. For example 50000 sets 50% royalty."
        }
      },
      "setRoyaltyReceiver(address)": {
        "details": "Reverts with {NotContractOwner} if the sender is not the contract owner.Reverts with {IncorrectRoyaltyReceiver} if `receiver` is the zero address.",
        "params": {
          "receiver": "The new receiver to set."
        }
      },
      "supportsInterface(bytes4)": {
        "details": "Note: This function call must use less than 30 000 gas.",
        "params": {
          "interfaceId": "the interface identifier to test."
        },
        "returns": {
          "_0": "True if the interface is supported, false if `interfaceId` is `0xffffffff` or if the interface is not supported."
        }
      },
      "symbol()": {
        "returns": {
          "tokenSymbol": "The symbol of the token."
        }
      },
      "tokenURI(uint256)": {
        "details": "Reverts if `tokenId` does not exist.",
        "params": {
          "tokenId": "The token identifier."
        },
        "returns": {
          "uri": "The metadata URI for the token identifier."
        }
      },
      "transferFrom(address,address,uint256)": {
        "details": "Reverts with {OperatorNotAllowed} if the sender is not `from` and is not allowed by the operator registry.",
        "params": {
          "from": "The current token owner.",
          "to": "The recipient of the token transfer. Self-transfers are possible.",
          "tokenId": "The identifier of the token to transfer."
        }
      },
      "transferOwnership(address)": {
        "details": "Reverts if the sender is not the contract owner.Emits an {OwnershipTransferred} event if `newOwner` is different from the current contract owner.",
        "params": {
          "newOwner": "The address of the new contract owner. Using the zero address means renouncing ownership."
        }
      },
      "updateOperatorFilterRegistry(address)": {
        "details": "Reverts with {NotContractOwner} if the sender is not the contract owner.",
        "params": {
          "registry": "The new operator filter registry address. When set to the zero address, checks will be bypassed."
        }
      }
    },
    "version": 1
  },
  "userdoc": {
    "errors": {
      "ERC2981IncorrectRoyaltyPercentage(uint256)": [
        {
          "notice": "Thrown when setting a royalty percentage that is above 100% (> FEE_DENOMINATOR)."
        }
      ],
      "ERC2981IncorrectRoyaltyReceiver()": [
        {
          "notice": "Thrown when setting a royalty receiver that is the zero address."
        }
      ],
      "ERC721BalanceOfAddressZero()": [
        {
          "notice": "Thrown when querying the balance of the zero address."
        }
      ],
      "ERC721ExistingToken(uint256)": [
        {
          "notice": "Thrown when minting a token that already exists."
        }
      ],
      "ERC721MintToAddressZero()": [
        {
          "notice": "Thrown when minting a token to the zero address."
        }
      ],
      "ERC721NonApprovedForApproval(address,address,uint256)": [
        {
          "notice": "Thrown when a sender tries to set a token approval but is neither the owner nor approvedForAll by the owner."
        }
      ],
      "ERC721NonApprovedForTransfer(address,address,uint256)": [
        {
          "notice": "Thrown when a sender tries to transfer a token but is neither the owner nor approved by the owner."
        }
      ],
      "ERC721NonExistingToken(uint256)": [
        {
          "notice": "Thrown when a token does not exist but is required to."
        }
      ],
      "ERC721NonOwnedToken(address,uint256)": [
        {
          "notice": "Thrown when a token is not owned by the expected account."
        }
      ],
      "ERC721SafeTransferRejected(address,uint256)": [
        {
          "notice": "Thrown when a safe transfer is rejected by the recipient contract."
        }
      ],
      "ERC721SelfApproval(address)": [
        {
          "notice": "Thrown when trying to approve oneself."
        }
      ],
      "ERC721SelfApprovalForAll(address)": [
        {
          "notice": "Thrown when trying to approveForAll oneself."
        }
      ],
      "ERC721TransferToAddressZero()": [
        {
          "notice": "Thrown when transferring a token to the zero address."
        }
      ],
      "IllegalInterfaceId()": [
        {
          "notice": "Thrown when setting the illegal interfaceId 0xffffffff."
        }
      ],
      "InconsistentArrayLengths()": [
        {
          "notice": "Thrown when the multiple related arrays have different lengths."
        }
      ],
      "IncorrectTokenContractType(address)": [
        {
          "notice": "Thrown when trying to recover a token of the wrong contract type."
        }
      ],
      "InitializationPhaseAlreadyReached(uint256,uint256)": [
        {
          "notice": "Emitted when trying to set a phase value that has already been reached."
        }
      ],
      "NotContractOwner(address)": [
        {
          "notice": "Thrown when an account is not the contract owner but is required to."
        }
      ],
      "NotRoleHolder(bytes32,address)": [
        {
          "notice": "Thrown when an account does not have the required role."
        }
      ],
      "OperatorNotAllowed(address)": [
        {
          "notice": "Thrown when transferring to or giving approval to a non-authorized operator."
        }
      ]
    },
    "events": {
      "Approval(address,address,uint256)": {
        "notice": "Emitted when a single token approval is set."
      },
      "ApprovalForAll(address,address,bool)": {
        "notice": "Emitted when an approval for all tokens is set or unset."
      },
      "OwnershipTransferred(address,address)": {
        "notice": "Emitted when the contract ownership changes."
      },
      "RoleGranted(bytes32,address,address)": {
        "notice": "Emitted when `role` is granted to `account`."
      },
      "RoleRevoked(bytes32,address,address)": {
        "notice": "Emitted when `role` is revoked from `account`."
      },
      "Transfer(address,address,uint256)": {
        "notice": "Emitted when a token is transferred."
      }
    },
    "kind": "user",
    "methods": {
      "approve(address,uint256)": {
        "notice": "Sets or unsets an approval to transfer a single token on behalf of its owner."
      },
      "balanceOf(address)": {
        "notice": "Gets the balance of an address."
      },
      "batchMint(address,uint256[])": {
        "notice": "Unsafely mints a batch of tokens."
      },
      "batchTransferFrom(address,address,uint256[])": {
        "notice": "Unsafely transfers a batch of tokens to a recipient."
      },
      "deliver(address[],uint256[])": {
        "notice": "Unsafely mints tokens to multiple recipients."
      },
      "getApproved(uint256)": {
        "notice": "Gets the approved address for a token."
      },
      "grantRole(bytes32,address)": {
        "notice": "Grants a role to an account."
      },
      "hasRole(bytes32,address)": {
        "notice": "Retrieves whether an account has a role."
      },
      "isApprovedForAll(address,address)": {
        "notice": "Gets whether an operator is approved for all tokens by an owner."
      },
      "isTrustedForwarder(address)": {
        "notice": "Checks whether a forwarder is trusted."
      },
      "metadataResolver()": {
        "notice": "Gets the token metadata resolver address."
      },
      "mint(address,uint256)": {
        "notice": "Unsafely mints a token."
      },
      "name()": {
        "notice": "Gets the name of the token. E.g. \"My Token\"."
      },
      "operatorFilterRegistry()": {
        "notice": "Gets the operator filter registry address."
      },
      "owner()": {
        "notice": "Gets the address of the contract owner."
      },
      "ownerOf(uint256)": {
        "notice": "Gets the owner of a token."
      },
      "recoverERC20s(address[],address[],uint256[])": {
        "notice": "Extract ERC20 tokens which were accidentally sent to the contract to a list of accounts."
      },
      "recoverERC721s(address[],address[],uint256[])": {
        "notice": "Extract ERC721 tokens which were accidentally sent to the contract to a list of accounts."
      },
      "recoverETH(address[],uint256[])": {
        "notice": "Extract ETH tokens which were accidentally sent to the contract to a list of accounts."
      },
      "renounceRole(bytes32)": {
        "notice": "Renounces a role by the sender."
      },
      "revokeRole(bytes32,address)": {
        "notice": "Revokes a role from an account."
      },
      "royaltyInfo(uint256,uint256)": {
        "notice": "Called with the sale price to determine how much royalty is owed and to whom."
      },
      "safeMint(address,uint256,bytes)": {
        "notice": "Safely mints a token."
      },
      "safeTransferFrom(address,address,uint256)": {
        "notice": "Safely transfers the ownership of a token to a recipient."
      },
      "safeTransferFrom(address,address,uint256,bytes)": {
        "notice": "Safely transfers the ownership of a token to a recipient."
      },
      "setApprovalForAll(address,bool)": {
        "notice": "Sets or unsets an approval to transfer all tokens on behalf of their owner."
      },
      "setRoyaltyPercentage(uint256)": {
        "notice": "Sets the royalty percentage."
      },
      "setRoyaltyReceiver(address)": {
        "notice": "Sets the royalty receiver."
      },
      "supportsInterface(bytes4)": {
        "notice": "Returns whether this contract implements a given interface."
      },
      "symbol()": {
        "notice": "Gets the symbol of the token. E.g. \"TOK\"."
      },
      "tokenURI(uint256)": {
        "notice": "Gets the metadata URI for a token identifier."
      },
      "transferFrom(address,address,uint256)": {
        "notice": "Unsafely transfers the ownership of a token to a recipient."
      },
      "transferOwnership(address)": {
        "notice": "Sets the address of the new contract owner."
      },
      "updateOperatorFilterRegistry(address)": {
        "notice": "Updates the address that the contract will make OperatorFilter checks against."
      }
    },
    "version": 1
  },
  "storageLayout": {
    "storage": [],
    "types": null
  }
}