{
  "address": "0x9612c4F94C47D1CDBfAd18FcED3d161e2e8Ad207",
  "abi": [
    {
      "inputs": [
        {
          "internalType": "address",
          "name": "checkpointManager",
          "type": "address"
        },
        {
          "internalType": "address",
          "name": "fxRoot",
          "type": "address"
        },
        {
          "internalType": "address",
          "name": "fxERC20Token",
          "type": "address"
        },
        {
          "internalType": "contract IForwarderRegistry",
          "name": "forwarderRegistry",
          "type": "address"
        }
      ],
      "stateMutability": "nonpayable",
      "type": "constructor"
    },
    {
      "inputs": [],
      "name": "FxERC20InvalidDepositAddress",
      "type": "error"
    },
    {
      "inputs": [
        {
          "internalType": "address",
          "name": "childToken",
          "type": "address"
        },
        {
          "internalType": "address",
          "name": "expectedRootToken",
          "type": "address"
        },
        {
          "internalType": "address",
          "name": "actualRootToken",
          "type": "address"
        }
      ],
      "name": "FxERC20InvalidMappingOnExit",
      "type": "error"
    },
    {
      "inputs": [],
      "name": "IllegalInterfaceId",
      "type": "error"
    },
    {
      "anonymous": false,
      "inputs": [
        {
          "indexed": true,
          "internalType": "address",
          "name": "rootToken",
          "type": "address"
        },
        {
          "indexed": true,
          "internalType": "address",
          "name": "childToken",
          "type": "address"
        },
        {
          "indexed": false,
          "internalType": "address",
          "name": "depositor",
          "type": "address"
        },
        {
          "indexed": false,
          "internalType": "address",
          "name": "recipient",
          "type": "address"
        },
        {
          "indexed": false,
          "internalType": "uint256",
          "name": "amount",
          "type": "uint256"
        }
      ],
      "name": "FxERC20Deposit",
      "type": "event"
    },
    {
      "anonymous": false,
      "inputs": [
        {
          "indexed": true,
          "internalType": "address",
          "name": "rootToken",
          "type": "address"
        },
        {
          "indexed": true,
          "internalType": "address",
          "name": "childToken",
          "type": "address"
        }
      ],
      "name": "FxERC20TokenMapping",
      "type": "event"
    },
    {
      "anonymous": false,
      "inputs": [
        {
          "indexed": true,
          "internalType": "address",
          "name": "rootToken",
          "type": "address"
        },
        {
          "indexed": true,
          "internalType": "address",
          "name": "childToken",
          "type": "address"
        },
        {
          "indexed": false,
          "internalType": "address",
          "name": "withdrawer",
          "type": "address"
        },
        {
          "indexed": false,
          "internalType": "address",
          "name": "recipient",
          "type": "address"
        },
        {
          "indexed": false,
          "internalType": "uint256",
          "name": "amount",
          "type": "uint256"
        }
      ],
      "name": "FxERC20Withdrawal",
      "type": "event"
    },
    {
      "inputs": [],
      "name": "CHILD_TOKEN_PROXY_CODE_HASH",
      "outputs": [
        {
          "internalType": "bytes32",
          "name": "",
          "type": "bytes32"
        }
      ],
      "stateMutability": "view",
      "type": "function"
    },
    {
      "inputs": [],
      "name": "DEPOSIT",
      "outputs": [
        {
          "internalType": "bytes32",
          "name": "",
          "type": "bytes32"
        }
      ],
      "stateMutability": "view",
      "type": "function"
    },
    {
      "inputs": [],
      "name": "MAP_TOKEN",
      "outputs": [
        {
          "internalType": "bytes32",
          "name": "",
          "type": "bytes32"
        }
      ],
      "stateMutability": "view",
      "type": "function"
    },
    {
      "inputs": [],
      "name": "SEND_MESSAGE_EVENT_SIG",
      "outputs": [
        {
          "internalType": "bytes32",
          "name": "",
          "type": "bytes32"
        }
      ],
      "stateMutability": "view",
      "type": "function"
    },
    {
      "inputs": [],
      "name": "checkpointManager",
      "outputs": [
        {
          "internalType": "contract ICheckpointManager",
          "name": "",
          "type": "address"
        }
      ],
      "stateMutability": "view",
      "type": "function"
    },
    {
      "inputs": [
        {
          "internalType": "bytes32",
          "name": "salt",
          "type": "bytes32"
        },
        {
          "internalType": "bytes32",
          "name": "bytecodeHash",
          "type": "bytes32"
        },
        {
          "internalType": "address",
          "name": "deployer",
          "type": "address"
        }
      ],
      "name": "computedCreate2Address",
      "outputs": [
        {
          "internalType": "address",
          "name": "",
          "type": "address"
        }
      ],
      "stateMutability": "pure",
      "type": "function"
    },
    {
      "inputs": [
        {
          "internalType": "address",
          "name": "rootToken",
          "type": "address"
        },
        {
          "internalType": "uint256",
          "name": "amount",
          "type": "uint256"
        }
      ],
      "name": "deposit",
      "outputs": [],
      "stateMutability": "nonpayable",
      "type": "function"
    },
    {
      "inputs": [
        {
          "internalType": "address",
          "name": "rootToken",
          "type": "address"
        },
        {
          "internalType": "address",
          "name": "receiver",
          "type": "address"
        },
        {
          "internalType": "uint256",
          "name": "amount",
          "type": "uint256"
        }
      ],
      "name": "depositTo",
      "outputs": [],
      "stateMutability": "nonpayable",
      "type": "function"
    },
    {
      "inputs": [],
      "name": "forwarderRegistry",
      "outputs": [
        {
          "internalType": "contract IForwarderRegistry",
          "name": "",
          "type": "address"
        }
      ],
      "stateMutability": "view",
      "type": "function"
    },
    {
      "inputs": [],
      "name": "fxChildTunnel",
      "outputs": [
        {
          "internalType": "address",
          "name": "",
          "type": "address"
        }
      ],
      "stateMutability": "view",
      "type": "function"
    },
    {
      "inputs": [],
      "name": "fxRoot",
      "outputs": [
        {
          "internalType": "contract IFxStateSender",
          "name": "",
          "type": "address"
        }
      ],
      "stateMutability": "view",
      "type": "function"
    },
    {
      "inputs": [
        {
          "internalType": "address",
          "name": "forwarder",
          "type": "address"
        }
      ],
      "name": "isTrustedForwarder",
      "outputs": [
        {
          "internalType": "bool",
          "name": "",
          "type": "bool"
        }
      ],
      "stateMutability": "view",
      "type": "function"
    },
    {
      "inputs": [
        {
          "internalType": "address",
          "name": "rootToken",
          "type": "address"
        }
      ],
      "name": "mapToken",
      "outputs": [
        {
          "internalType": "address",
          "name": "childToken",
          "type": "address"
        }
      ],
      "stateMutability": "nonpayable",
      "type": "function"
    },
    {
      "inputs": [
        {
          "internalType": "address",
          "name": "",
          "type": "address"
        },
        {
          "internalType": "address",
          "name": "from",
          "type": "address"
        },
        {
          "internalType": "uint256",
          "name": "value",
          "type": "uint256"
        },
        {
          "internalType": "bytes",
          "name": "data",
          "type": "bytes"
        }
      ],
      "name": "onERC20Received",
      "outputs": [
        {
          "internalType": "bytes4",
          "name": "magicValue",
          "type": "bytes4"
        }
      ],
      "stateMutability": "nonpayable",
      "type": "function"
    },
    {
      "inputs": [
        {
          "internalType": "bytes32",
          "name": "",
          "type": "bytes32"
        }
      ],
      "name": "processedExits",
      "outputs": [
        {
          "internalType": "bool",
          "name": "",
          "type": "bool"
        }
      ],
      "stateMutability": "view",
      "type": "function"
    },
    {
      "inputs": [
        {
          "internalType": "bytes",
          "name": "inputData",
          "type": "bytes"
        }
      ],
      "name": "receiveMessage",
      "outputs": [],
      "stateMutability": "nonpayable",
      "type": "function"
    },
    {
      "inputs": [
        {
          "internalType": "address",
          "name": "",
          "type": "address"
        }
      ],
      "name": "rootToChildToken",
      "outputs": [
        {
          "internalType": "address",
          "name": "",
          "type": "address"
        }
      ],
      "stateMutability": "view",
      "type": "function"
    },
    {
      "inputs": [
        {
          "internalType": "address",
          "name": "_fxChildTunnel",
          "type": "address"
        }
      ],
      "name": "setFxChildTunnel",
      "outputs": [],
      "stateMutability": "nonpayable",
      "type": "function"
    },
    {
      "inputs": [
        {
          "internalType": "bytes4",
          "name": "interfaceId",
          "type": "bytes4"
        }
      ],
      "name": "supportsInterface",
      "outputs": [
        {
          "internalType": "bool",
          "name": "",
          "type": "bool"
        }
      ],
      "stateMutability": "view",
      "type": "function"
    }
  ],
  "transactionHash": "0x1a06845eae0cadfacce631b681206b647073a057af0098721920fb3b7a11e946",
  "args": [
    "0xbd07D7E1E93c8d4b2a261327F3C28a8EA7167209",
    "0x0E13EBEdDb8cf9f5987512d5E081FdC2F5b0991e",
    "0xC42642D5f17A60EB8f95FF631090E0544cf2A1d8",
    "0x316a472D084489CB6d4C66e5eB62aE3AdA17521e"
  ],
  "numDeployments": 1,
  "solcInputHash": "4046faabd850477eb3782908ea433876",
  "bytecode": "0x60c060405234801561001057600080fd5b5060405161350238038061350283398101604081905261002f916101b9565b600180546001600160a01b038087166001600160a01b0319928316178355600080549187169190921617905584908490849084908190819061008390634fc3585960e01b9061007c610111565b9190610145565b6001600160a01b03166080525060408051693d602d80600a3d3981f360b01b602082015269363d3d373d3d3d363d7360b01b602a8201526001600160601b0319606085901b1660348201526e5af43d82803e903d91602b57fd5bf360881b6048820152815180820360370181526057909101909152805160209091012060a052506102399650505050505050565b60008061013f60017fca9d3e17f264b0f3984e2634e94adb37fa3e6a8103f06aeae6fa59e21c769f5e610218565b92915050565b600160e01b6001600160e01b0319831601610173576040516372c683bb60e01b815260040160405180910390fd5b6001600160e01b03199190911660009081526020929092526040909120805460ff1916911515919091179055565b6001600160a01b03811681146101b657600080fd5b50565b600080600080608085870312156101cf57600080fd5b84516101da816101a1565b60208601519094506101eb816101a1565b60408601519093506101fc816101a1565b606086015190925061020d816101a1565b939692955090935050565b8181038181111561013f57634e487b7160e01b600052601160045260246000fd5b60805160a05161328861027a60003960008181610355015261081b0152600081816101b50152818161026301528181610a3f0152610acd01526132886000f3fe608060405234801561001057600080fd5b50600436106101515760003560e01c8063972c4928116100cd578063de9b771f11610081578063f213159c11610066578063f213159c146103f4578063f4a120f714610407578063f953cec71461041a57600080fd5b8063de9b771f1461039e578063ea60c7c4146103be57600080fd5b8063c0857ba0116100b2578063c0857ba014610330578063c63e81f814610350578063d81c8e521461037757600080fd5b8063972c4928146102fd578063aea4e49e1461031d57600080fd5b80634fc3585911610124578063607f2d4211610109578063607f2d42146102a05780637337957f146102c3578063886a69ba146102d657600080fd5b80634fc358591461020f578063572b6c051461025357600080fd5b806301ffc9a7146101565780630e387de61461017e5780632b4c9f16146101b357806347e7ef24146101fa575b600080fd5b610169610164366004612991565b61042d565b60405190151581526020015b60405180910390f35b6101a57f8c5261668696ce22758910d05bab8f186d6eb247ceac2af2e82c7dc17669b03681565b604051908152602001610175565b7f00000000000000000000000000000000000000000000000000000000000000005b60405173ffffffffffffffffffffffffffffffffffffffff9091168152602001610175565b61020d6102083660046129f8565b610447565b005b61022261021d366004612a24565b61046f565b6040517fffffffff000000000000000000000000000000000000000000000000000000009091168152602001610175565b610169610261366004612ac5565b7f000000000000000000000000000000000000000000000000000000000000000073ffffffffffffffffffffffffffffffffffffffff90811691161490565b6101696102ae366004612ae2565b60036020526000908152604090205460ff1681565b6101d56102d1366004612afb565b610514565b6101a57f2cef46a936bdc5b7e6e8c71aa04560c41cf7d88bb26901a7e7f4936ff02accad81565b6002546101d59073ffffffffffffffffffffffffffffffffffffffff1681565b61020d61032b366004612ac5565b61059c565b6001546101d59073ffffffffffffffffffffffffffffffffffffffff1681565b6101a57f000000000000000000000000000000000000000000000000000000000000000081565b6101a57f87a7811f4bfedea3d341ad165680ae306b01aaeacc205d227629cf157dd9f82181565b6000546101d59073ffffffffffffffffffffffffffffffffffffffff1681565b6101d56103cc366004612ac5565b60046020526000908152604090205473ffffffffffffffffffffffffffffffffffffffff1681565b61020d610402366004612b34565b61068e565b6101d5610415366004612ac5565b610703565b61020d610428366004612c39565b6108da565b60006104418261043b6108f4565b90610922565b92915050565b60006104516109fc565b905061045f83828385610b49565b61046a838284610c4e565b505050565b60008482156104d25761048483850185612ac5565b905073ffffffffffffffffffffffffffffffffffffffff81166104d2576040517e7336b000000000000000000000000000000000000000000000000000000000815260040160405180910390fd5b6104de33878388610b49565b6104e83386610ce7565b507f4fc35859000000000000000000000000000000000000000000000000000000009695505050505050565b604080517fff00000000000000000000000000000000000000000000000000000000000000602080830191909152606084901b7fffffffffffffffffffffffffffffffffffffffff00000000000000000000000016602183015260358201869052605580830186905283518084039091018152607590920190925280519101205b9392505050565b60025473ffffffffffffffffffffffffffffffffffffffff1615610647576040517f08c379a000000000000000000000000000000000000000000000000000000000815260206004820152602a60248201527f467842617365526f6f7454756e6e656c3a204348494c445f54554e4e454c5f4160448201527f4c52454144595f5345540000000000000000000000000000000000000000000060648201526084015b60405180910390fd5b600280547fffffffffffffffffffffffff00000000000000000000000000000000000000001673ffffffffffffffffffffffffffffffffffffffff92909216919091179055565b73ffffffffffffffffffffffffffffffffffffffff82166106da576040517e7336b000000000000000000000000000000000000000000000000000000000815260040160405180910390fd5b60006106e46109fc565b90506106f284828585610b49565b6106fd848284610c4e565b50505050565b73ffffffffffffffffffffffffffffffffffffffff80821660009081526004602052604090205416801561073657919050565b6107c57f2cef46a936bdc5b7e6e8c71aa04560c41cf7d88bb26901a7e7f4936ff02accad8361076485610d78565b604051602001610775929190612d27565b604080517fffffffffffffffffffffffffffffffffffffffffffffffffffffffffffffffe0818403018152908290526107b19291602001612d56565b604051602081830303815290604052611059565b60408051606084901b7fffffffffffffffffffffffffffffffffffffffff0000000000000000000000001660208083019190915282516014818403018152603490920190925280519101206002546108569082907f00000000000000000000000000000000000000000000000000000000000000009073ffffffffffffffffffffffffffffffffffffffff16610514565b73ffffffffffffffffffffffffffffffffffffffff84811660008181526004602052604080822080547fffffffffffffffffffffffff000000000000000000000000000000000000000016948616948517905551939550919290917ff935ffb7c4a7f69e191e46617fc2f41d98d93290443199977b42dd086e744c8691a350919050565b60006108e5826110ea565b90506108f0816114cc565b5050565b60008061044160017fca9d3e17f264b0f3984e2634e94adb37fa3e6a8103f06aeae6fa59e21c769f5e612d9e565b60007c01000000000000000000000000000000000000000000000000000000007fffffffff0000000000000000000000000000000000000000000000000000000083160161097257506000610441565b7ffe003659000000000000000000000000000000000000000000000000000000007fffffffff000000000000000000000000000000000000000000000000000000008316016109c357506001610441565b507fffffffff00000000000000000000000000000000000000000000000000000000166000908152602091909152604090205460ff1690565b600033321480610a0c5750601836105b15610a1657503390565b7fffffffffffffffffffffffffffffffffffffffffffffffffffffffffffffffec36013560601c7f000000000000000000000000000000000000000000000000000000000000000073ffffffffffffffffffffffffffffffffffffffff16331480610b3857506040517f019a202800000000000000000000000000000000000000000000000000000000815273ffffffffffffffffffffffffffffffffffffffff82811660048301523360248301523060448301527f0000000000000000000000000000000000000000000000000000000000000000169063019a202890606401602060405180830381865afa158015610b14573d6000803e3d6000fd5b505050506040513d601f19601f82011682018060405250810190610b389190612db1565b15610b4257919050565b3391505090565b6040805173ffffffffffffffffffffffffffffffffffffffff8681166020830152858116828401528416606082015260808082018490528251808303909101815260a08201909252600091610bc3917f87a7811f4bfedea3d341ad165680ae306b01aaeacc205d227629cf157dd9f821919060c001612d56565b6040516020818303038152906040529050610bdd81611059565b610be685610703565b6040805173ffffffffffffffffffffffffffffffffffffffff8781168252868116602083015291810185905291811691908716907fd04a997afc07fd79393f2188ae8935e4389ab8aef6144f0f839e3aade5b858ab9060600160405180910390a35050505050565b6040517f79cc679000000000000000000000000000000000000000000000000000000000815273ffffffffffffffffffffffffffffffffffffffff8381166004830152602482018390528416906379cc6790906044016020604051808303816000875af1158015610cc3573d6000803e3d6000fd5b505050506040513d601f19601f820116820180604052508101906106fd9190612db1565b6040517f42966c680000000000000000000000000000000000000000000000000000000081526004810182905273ffffffffffffffffffffffffffffffffffffffff8316906342966c68906024016020604051808303816000875af1158015610d54573d6000803e3d6000fd5b505050506040513d601f19601f8201168201806040525081019061046a9190612db1565b6060600082905060008173ffffffffffffffffffffffffffffffffffffffff166306fdde036040518163ffffffff1660e01b8152600401600060405180830381865afa158015610dcc573d6000803e3d6000fd5b505050506040513d6000823e601f3d9081017fffffffffffffffffffffffffffffffffffffffffffffffffffffffffffffffe0168201604052610e129190810190612e03565b905060008273ffffffffffffffffffffffffffffffffffffffff166395d89b416040518163ffffffff1660e01b8152600401600060405180830381865afa158015610e61573d6000803e3d6000fd5b505050506040513d6000823e601f3d9081017fffffffffffffffffffffffffffffffffffffffffffffffffffffffffffffffe0168201604052610ea79190810190612e03565b905060008373ffffffffffffffffffffffffffffffffffffffff1663313ce5676040518163ffffffff1660e01b8152600401602060405180830381865afa158015610ef6573d6000803e3d6000fd5b505050506040513d601f19601f82011682018060405250810190610f1a9190612e4c565b905060008673ffffffffffffffffffffffffffffffffffffffff16633c130d906040518163ffffffff1660e01b8152600401600060405180830381865afa158015610f69573d6000803e3d6000fd5b505050506040513d6000823e601f3d9081017fffffffffffffffffffffffffffffffffffffffffffffffffffffffffffffffe0168201604052610faf9190810190612e03565b905060008773ffffffffffffffffffffffffffffffffffffffff16638da5cb5b6040518163ffffffff1660e01b8152600401602060405180830381865afa158015610ffe573d6000803e3d6000fd5b505050506040513d601f19601f820116820180604052508101906110229190612e6f565b9050848484848460405160200161103d959493929190612e8c565b6040516020818303038152906040529650505050505050919050565b6000546002546040517fb472047700000000000000000000000000000000000000000000000000000000815273ffffffffffffffffffffffffffffffffffffffff9283169263b4720477926110b5929116908590600401612d27565b600060405180830381600087803b1580156110cf57600080fd5b505af11580156110e3573d6000803e3d6000fd5b5050505050565b606060006110f7836115f6565b9050600061110482611655565b905060006111118361167e565b905060008161111f846116a7565b6111288661188b565b60405160200161113a93929190612ef7565b604080517fffffffffffffffffffffffffffffffffffffffffffffffffffffffffffffffe081840301815291815281516020928301206000818152600390935291205490915060ff161561120f576040517f08c379a0000000000000000000000000000000000000000000000000000000008152602060048201526024808201527f4678526f6f7454756e6e656c3a20455849545f414c52454144595f50524f434560448201527f5353454400000000000000000000000000000000000000000000000000000000606482015260840161063e565b600081815260036020526040812080547fffffffffffffffffffffffffffffffffffffffffffffffffffffffffffffff0016600117905561124f856118a7565b9050600061125c826119f1565b905061126781611a81565b60025473ffffffffffffffffffffffffffffffffffffffff908116911614611311576040517f08c379a000000000000000000000000000000000000000000000000000000000815260206004820152602560248201527f4678526f6f7454756e6e656c3a20494e56414c49445f46585f4348494c445f5460448201527f554e4e454c000000000000000000000000000000000000000000000000000000606482015260840161063e565b600061131c87611aaa565b905061133c61132c846020015190565b876113368a611ac6565b84611ae2565b6113c8576040517f08c379a000000000000000000000000000000000000000000000000000000000815260206004820152602360248201527f4678526f6f7454756e6e656c3a20494e56414c49445f524543454950545f505260448201527f4f4f460000000000000000000000000000000000000000000000000000000000606482015260840161063e565b6113f6856113d589611d8b565b6113de8a611da7565b846113e88c611dc3565b6113f18d611ddf565b611dfb565b50600061140283611f61565b90507f8c5261668696ce22758910d05bab8f186d6eb247ceac2af2e82c7dc17669b036611438611433836000611f9d565b611fd5565b1461149f576040517f08c379a000000000000000000000000000000000000000000000000000000000815260206004820152601f60248201527f4678526f6f7454756e6e656c3a20494e56414c49445f5349474e415455524500604482015260640161063e565b60006114aa84612050565b8060200190518101906114bd9190612e03565b9b9a5050505050505050505050565b6000806000806000858060200190518101906114e89190612f24565b73ffffffffffffffffffffffffffffffffffffffff808616600090815260046020526040902054959a50939850919650945092509081169085168114611582576040517f3855947700000000000000000000000000000000000000000000000000000000815273ffffffffffffffffffffffffffffffffffffffff808816600483015280871660248301528216604482015260640161063e565b61158d86848461206c565b6040805173ffffffffffffffffffffffffffffffffffffffff86811682528581166020830152918101849052818716918816907faa4bbbc02123d0c446b55ec99a14078c9eab05cb4a271e6d8f8e278d9e4cd1849060600160405180910390a350505050505050565b604080516020810190915260608152600061164061163b8460408051808201825260008082526020918201528151808301909252825182529182019181019190915290565b6120f9565b60408051602081019091529081529392505050565b6060610441826000015160088151811061167157611671612f8f565b6020026020010151612205565b6000610441826000015160028151811061169a5761169a612f8f565b6020026020010151611fd5565b60408051602081019091526000815281516060919015610441576000806116cf6000866122a2565b60f81c905060018114806116e657508060ff166003145b156117a6576001855160026116fb9190612fbe565b6117059190612d9e565b67ffffffffffffffff81111561171d5761171d612b75565b6040519080825280601f01601f191660200182016040528015611747576020820181803683370190505b50925060006117576001876122a2565b9050808460008151811061176d5761176d612f8f565b60200101907effffffffffffffffffffffffffffffffffffffffffffffffffffffffffffff1916908160001a905350600192505061180a565b6002855160026117b69190612fbe565b6117c09190612d9e565b67ffffffffffffffff8111156117d8576117d8612b75565b6040519080825280601f01601f191660200182016040528015611802576020820181803683370190505b509250600091505b60ff82165b83518110156118825761183961182860ff851683612d9e565b611833906002612fd5565b876122a2565b84828151811061184b5761184b612f8f565b60200101907effffffffffffffffffffffffffffffffffffffffffffffffffffffffffffff1916908160001a90535060010161180f565b50505092915050565b6000610441826000015160098151811061169a5761169a612f8f565b6118cb60405180606001604052806060815260200160608152602001600081525090565b6118e5826000015160068151811061167157611671612f8f565b60208281018290526040805180820182526000808252908301528051808201909152825181529181019082015261191b81612323565b1561193057611929816120f9565b82526119dd565b6020820151805160009061194690600190612d9e565b67ffffffffffffffff81111561195e5761195e612b75565b6040519080825280601f01601f191660200182016040528015611988576020820181803683370190505b5090506000808360210191508260200190506119a68282855161235e565b6040805180820182526000808252602091820152815180830190925284518252808501908201526119d6906120f9565b8652505050505b6119e68361188b565b604083015250919050565b604080516080810182526000918101828152606080830193909352815260208101919091526000611a3f8360000151600381518110611a3257611a32612f8f565b60200260200101516120f9565b836040015181518110611a5457611a54612f8f565b602002602001015190506040518060400160405280828152602001611a78836120f9565b90529392505050565b60006104418260200151600081518110611a9d57611a9d612f8f565b60200260200101516123e9565b6000610441826000015160058151811061169a5761169a612f8f565b6060610441826000015160078151811061167157611671612f8f565b600080611b168460408051808201825260008082526020918201528151808301909252825182529182019181019190915290565b90506000611b23826120f9565b905060608085600080611b358b6116a7565b90508051600003611b50576000975050505050505050611d83565b60005b8651811015611d7a578151831115611b7657600098505050505050505050611d83565b611b98878281518110611b8b57611b8b612f8f565b6020026020010151612403565b955085805190602001208414611bb957600098505050505050505050611d83565b611bce878281518110611a3257611a32612f8f565b94508451601103611ca05781518303611c2d578c80519060200120611bff8660108151811061167157611671612f8f565b8051906020012003611c1c57600198505050505050505050611d83565b600098505050505050505050611d83565b6000828481518110611c4157611c41612f8f565b016020015160f81c90506010811115611c665760009950505050505050505050611d83565b611c8b868260ff1681518110611c7e57611c7e612f8f565b6020026020010151612482565b9450611c98600185612fd5565b935050611d72565b8451600203611c1c576000611ccb611cc48760008151811061167157611671612f8f565b84866124b0565b8351909150611cda8286612fd5565b03611d2d578d80519060200120611cfd8760018151811061167157611671612f8f565b8051906020012003611d1b5760019950505050505050505050611d83565b60009950505050505050505050611d83565b80600003611d475760009950505050505050505050611d83565b611d518185612fd5565b9350611d6986600181518110611c7e57611c7e612f8f565b9450611d729050565b600101611b53565b50505050505050505b949350505050565b6000610441826000015160038151811061169a5761169a612f8f565b6000610441826000015160048151811061169a5761169a612f8f565b6000610441826000015160008151811061169a5761169a612f8f565b6060610441826000015160018151811061167157611671612f8f565b6001546040517f41539d4a0000000000000000000000000000000000000000000000000000000081526004810184905260009182918291829173ffffffffffffffffffffffffffffffffffffffff909116906341539d4a9060240160a060405180830381865afa158015611e73573d6000803e3d6000fd5b505050506040513d601f19601f82011682018060405250810190611e979190612fe8565b5093505092509250611eee828b611eae9190612d9e565b6040805160208082018f90528183018e9052606082018d905260808083018d90528351808403909101815260a090920190925280519101209085886125dd565b611f54576040517f08c379a000000000000000000000000000000000000000000000000000000000815260206004820152601c60248201527f4678526f6f7454756e6e656c3a20494e56414c49445f48454144455200000000604482015260640161063e565b9998505050505050505050565b6040805160208101909152606081526040518060200160405280611f958460200151600181518110611a3257611a32612f8f565b905292915050565b60408051808201909152600080825260208201528251805183908110611fc557611fc5612f8f565b6020026020010151905092915050565b805160009015801590611fea57508151602110155b611ff357600080fd5b6000612002836020015161278a565b905060008184600001516120169190612d9e565b905060008083866020015161202b9190612fd5565b905080519150602083101561204757826020036101000a820491505b50949350505050565b6060610441826020015160028151811061167157611671612f8f565b6040517f40c10f1900000000000000000000000000000000000000000000000000000000815273ffffffffffffffffffffffffffffffffffffffff8381166004830152602482018390528416906340c10f1990604401600060405180830381600087803b1580156120dc57600080fd5b505af11580156120f0573d6000803e3d6000fd5b50505050505050565b606061210482612323565b61210d57600080fd5b600061211883612805565b905060008167ffffffffffffffff81111561213557612135612b75565b60405190808252806020026020018201604052801561217a57816020015b60408051808201909152600080825260208201528152602001906001900390816121535790505b509050600061218c856020015161278a565b856020015161219b9190612fd5565b90506000805b848110156121fa576121b28361288a565b91506040518060400160405280838152602001848152508482815181106121db576121db612f8f565b60209081029190910101526121f08284612fd5565b92506001016121a1565b509195945050505050565b805160609061221357600080fd5b6000612222836020015161278a565b905060008184600001516122369190612d9e565b905060008167ffffffffffffffff81111561225357612253612b75565b6040519080825280601f01601f19166020018201604052801561227d576020820181803683370190505b509050600081602001905061204784876020015161229b9190612fd5565b828561294c565b60006122af600284613066565b156122e9576010826122c260028661307a565b815181106122d2576122d2612f8f565b01602001516122e4919060f81c61308e565b612319565b6010826122f760028661307a565b8151811061230757612307612f8f565b0160200151612319919060f81c6130b0565b60f81b9392505050565b8051600090810361233657506000919050565b6020820151805160001a9060c0821015612354575060009392505050565b5060019392505050565b8060000361236b57505050565b602081106123a35782518252612382602084612fd5565b925061238f602083612fd5565b915061239c602082612d9e565b905061236b565b806000036123b057505050565b600060016123bf836020612d9e565b6123cb906101006131f5565b6123d59190612d9e565b935183518516941916939093179091525050565b80516000906015146123fa57600080fd5b61044182611fd5565b60606000826000015167ffffffffffffffff81111561242457612424612b75565b6040519080825280601f01601f19166020018201604052801561244e576020820181803683370190505b50905080516000036124605792915050565b600081602001905061247b846020015182866000015161294c565b5092915050565b805160009060211461249357600080fd5b600080836020015160016124a79190612fd5565b51949350505050565b600080806124bd866116a7565b90506000815167ffffffffffffffff8111156124db576124db612b75565b6040519080825280601f01601f191660200182016040528015612505576020820181803683370190505b509050845b82516125169087612fd5565b8110156125ae57600087828151811061253157612531612f8f565b01602001517fff0000000000000000000000000000000000000000000000000000000000000016905080836125668985612d9e565b8151811061257657612576612f8f565b60200101907effffffffffffffffffffffffffffffffffffffffffffffffffffffffffffff1916908160001a9053505060010161250a565b5080805190602001208280519060200120036125cd57815192506125d2565b600092505b509095945050505050565b6000602082516125ed9190613066565b15612654576040517f08c379a000000000000000000000000000000000000000000000000000000000815260206004820152601460248201527f496e76616c69642070726f6f66206c656e677468000000000000000000000000604482015260640161063e565b600060208351612664919061307a565b90506126718160026131f5565b85106126d9576040517f08c379a000000000000000000000000000000000000000000000000000000000815260206004820152601560248201527f4c65616620696e64657820697320746f6f206269670000000000000000000000604482015260640161063e565b60008660205b8551811161277c578581015192506126f8600289613066565b60000361273057604080516020810184905290810184905260600160405160208183030381529060405280519060200120915061275d565b60408051602081018590529081018390526060016040516020818303038152906040528051906020012091505b61276860028961307a565b9750612775602082612fd5565b90506126df565b509094149695505050505050565b8051600090811a60808110156127a35750600092915050565b60b88110806127be575060c081108015906127be575060f881105b156127cc5750600192915050565b60c08110156127f9576127e1600160b8613201565b6127ee9060ff1682612d9e565b610595906001612fd5565b6127e1600160f8613201565b8051600090810361281857506000919050565b600080612828846020015161278a565b84602001516128379190612fd5565b905060008460000151856020015161284f9190612fd5565b90505b80821015612881576128638261288a565b61286d9083612fd5565b9150826128798161321a565b935050612852565b50909392505050565b80516000908190811a60808110156128a5576001915061247b565b60b88110156128cb576128b9608082612d9e565b6128c4906001612fd5565b915061247b565b60c08110156128f85760b78103600185019450806020036101000a8551046001820181019350505061247b565b60f881101561290c576128b960c082612d9e565b60019390930151602084900360f7016101000a90049092017fffffffffffffffffffffffffffffffffffffffffffffffffffffffffffffff0a0192915050565b8060000361295957505050565b602081106123a35782518252612970602084612fd5565b925061297d602083612fd5565b915061298a602082612d9e565b9050612959565b6000602082840312156129a357600080fd5b81357fffffffff000000000000000000000000000000000000000000000000000000008116811461059557600080fd5b73ffffffffffffffffffffffffffffffffffffffff811681146129f557600080fd5b50565b60008060408385031215612a0b57600080fd5b8235612a16816129d3565b946020939093013593505050565b600080600080600060808688031215612a3c57600080fd5b8535612a47816129d3565b94506020860135612a57816129d3565b935060408601359250606086013567ffffffffffffffff811115612a7a57600080fd5b8601601f81018813612a8b57600080fd5b803567ffffffffffffffff811115612aa257600080fd5b886020828401011115612ab457600080fd5b959894975092955050506020019190565b600060208284031215612ad757600080fd5b8135610595816129d3565b600060208284031215612af457600080fd5b5035919050565b600080600060608486031215612b1057600080fd5b83359250602084013591506040840135612b29816129d3565b809150509250925092565b600080600060608486031215612b4957600080fd5b8335612b54816129d3565b92506020840135612b64816129d3565b929592945050506040919091013590565b7f4e487b7100000000000000000000000000000000000000000000000000000000600052604160045260246000fd5b604051601f82017fffffffffffffffffffffffffffffffffffffffffffffffffffffffffffffffe016810167ffffffffffffffff81118282101715612beb57612beb612b75565b604052919050565b600067ffffffffffffffff821115612c0d57612c0d612b75565b50601f017fffffffffffffffffffffffffffffffffffffffffffffffffffffffffffffffe01660200190565b600060208284031215612c4b57600080fd5b813567ffffffffffffffff811115612c6257600080fd5b8201601f81018413612c7357600080fd5b8035612c86612c8182612bf3565b612ba4565b818152856020838501011115612c9b57600080fd5b81602084016020830137600091810160200191909152949350505050565b60005b83811015612cd4578181015183820152602001612cbc565b50506000910152565b60008151808452612cf5816020860160208601612cb9565b601f017fffffffffffffffffffffffffffffffffffffffffffffffffffffffffffffffe0169290920160200192915050565b73ffffffffffffffffffffffffffffffffffffffff83168152604060208201526000611d836040830184612cdd565b828152604060208201526000611d836040830184612cdd565b7f4e487b7100000000000000000000000000000000000000000000000000000000600052601160045260246000fd5b8181038181111561044157610441612d6f565b600060208284031215612dc357600080fd5b8151801515811461059557600080fd5b6000612de1612c8184612bf3565b9050828152838383011115612df557600080fd5b610595836020830184612cb9565b600060208284031215612e1557600080fd5b815167ffffffffffffffff811115612e2c57600080fd5b8201601f81018413612e3d57600080fd5b611d8384825160208401612dd3565b600060208284031215612e5e57600080fd5b815160ff8116811461059557600080fd5b600060208284031215612e8157600080fd5b8151610595816129d3565b60a081526000612e9f60a0830188612cdd565b8281036020840152612eb18188612cdd565b905060ff861660408401528281036060840152612ece8186612cdd565b91505073ffffffffffffffffffffffffffffffffffffffff831660808301529695505050505050565b83815260008351612f0f816020850160208801612cb9565b60209201918201929092526040019392505050565b600080600080600060a08688031215612f3c57600080fd5b8551612f47816129d3565b6020870151909550612f58816129d3565b6040870151909450612f69816129d3565b6060870151909350612f7a816129d3565b60809690960151949793965091949392915050565b7f4e487b7100000000000000000000000000000000000000000000000000000000600052603260045260246000fd5b808202811582820484141761044157610441612d6f565b8082018082111561044157610441612d6f565b600080600080600060a0868803121561300057600080fd5b855160208701516040880151606089015160808a015193985091965094509250613029816129d3565b809150509295509295909350565b7f4e487b7100000000000000000000000000000000000000000000000000000000600052601260045260246000fd5b60008261307557613075613037565b500690565b60008261308957613089613037565b500490565b600060ff8316806130a1576130a1613037565b8060ff84160691505092915050565b600060ff8316806130c3576130c3613037565b8060ff84160491505092915050565b6001815b600184111561310d578085048111156130f1576130f1612d6f565b60018416156130ff57908102905b60019390931c9280026130d6565b935093915050565b60008261312457506001610441565b8161313157506000610441565b816001811461314757600281146131515761316d565b6001915050610441565b60ff84111561316257613162612d6f565b50506001821b610441565b5060208310610133831016604e8410600b8410161715613190575081810a610441565b6131bb7fffffffffffffffffffffffffffffffffffffffffffffffffffffffffffffffff84846130d2565b807fffffffffffffffffffffffffffffffffffffffffffffffffffffffffffffffff048211156131ed576131ed612d6f565b029392505050565b60006105958383613115565b60ff828116828216039081111561044157610441612d6f565b60007fffffffffffffffffffffffffffffffffffffffffffffffffffffffffffffffff820361324b5761324b612d6f565b506001019056fea26469706673582212207e4b2a6d3e1e9caa02710e050543e2ae4034b0eac2f2c233f9a105e65f75a9bf64736f6c634300081c0033",
  "devdoc": {
    "errors": {
      "FxERC20InvalidMappingOnExit(address,address,address)": [
        {
          "params": {
            "actualRootToken": "The actual root token.",
            "childToken": "The child token.",
            "expectedRootToken": "The expected root token."
          }
        }
      ]
    },
    "events": {
      "FxERC20Deposit(address,address,address,address,uint256)": {
        "params": {
          "amount": "The deposit amount.",
          "childToken": "The child ERC20 token.",
          "depositor": "The depositor address.",
          "recipient": "The recipient address.",
          "rootToken": "The root ERC20 token."
        }
      },
      "FxERC20TokenMapping(address,address)": {
        "params": {
          "childToken": "The child ERC20 token.",
          "rootToken": "The root ERC20 token."
        }
      },
      "FxERC20Withdrawal(address,address,address,address,uint256)": {
        "params": {
          "amount": "The withdrawal amount.",
          "childToken": "The child ERC20 token.",
          "recipient": "The recipient address.",
          "rootToken": "The root ERC20 token.",
          "withdrawer": "The withdrawer address."
        }
      }
    },
    "kind": "dev",
    "methods": {
      "deposit(address,uint256)": {
        "details": "Reverts if the token transfer fails for any reason.",
        "params": {
          "amount": "The amount of tokens to deposit.",
          "rootToken": "The ERC20 root token."
        }
      },
      "depositTo(address,address,uint256)": {
        "details": "Reverts with `FxERC20TokenNotMapped` if `childToken has not been deployed through a mapping request.Reverts if the token transfer fails for any reason.",
        "params": {
          "amount": "The amount of tokens to deposit.",
          "receiver": "The account receiving the deposit.",
          "rootToken": "The ERC20 root token."
        }
      },
      "isTrustedForwarder(address)": {
        "params": {
          "forwarder": "The forwarder to check."
        },
        "returns": {
          "_0": "True if `forwarder` is trusted, false if not."
        }
      },
      "mapToken(address)": {
        "params": {
          "rootToken": "address of token on root chain"
        }
      },
      "onERC20Received(address,address,uint256,bytes)": {
        "params": {
          "data": "Empty if the receiver is the same as the tokens sender, else the abi-encoded address of the receiver.",
          "from": "The previous tokens owner.",
          "value": "The amount of tokens transferred."
        },
        "returns": {
          "magicValue": "`bytes4(keccak256(\"onERC20Received(address,address,uint256,bytes)\"))` (`0x4fc35859`) to accept, any other value to refuse."
        }
      },
      "receiveMessage(bytes)": {
        "details": "This function verifies if the transaction actually happened on child chain",
        "params": {
          "inputData": "RLP encoded data of the reference tx containing following list of fields  0 - headerNumber - Checkpoint header block number containing the reference tx  1 - blockProof - Proof that the block header (in the child chain) is a leaf in the submitted merkle root  2 - blockNumber - Block number containing the reference tx on child chain  3 - blockTime - Reference tx block time  4 - txRoot - Transactions root of block  5 - receiptRoot - Receipts root of block  6 - receipt - Receipt of the reference transaction  7 - receiptProof - Merkle proof of the reference receipt  8 - branchMask - 32 bits denoting the path of receipt in merkle tree  9 - receiptLogIndex - Log Index to read from the receipt"
        }
      },
      "supportsInterface(bytes4)": {
        "details": "Note: This function call must use less than 30 000 gas.",
        "params": {
          "interfaceId": "the interface identifier to test."
        },
        "returns": {
          "_0": "True if the interface is supported, false if `interfaceId` is `0xffffffff` or if the interface is not supported."
        }
      }
    },
    "title": "FxERC20MintBurnRootTunnel",
    "version": 1
  },
  "userdoc": {
    "errors": {
      "FxERC20InvalidDepositAddress()": [
        {
          "notice": "Thrown if a deposit recipient is the zero address."
        }
      ],
      "FxERC20InvalidMappingOnExit(address,address,address)": [
        {
          "notice": "Thrown when a deposit request refers to an invalid token mapping."
        }
      ],
      "IllegalInterfaceId()": [
        {
          "notice": "Thrown when setting the illegal interfaceId 0xffffffff."
        }
      ]
    },
    "events": {
      "FxERC20Deposit(address,address,address,address,uint256)": {
        "notice": "Emitted when some ERC20 token has been deposited."
      },
      "FxERC20TokenMapping(address,address)": {
        "notice": "Emitted when an ERC20 token has been mapped."
      },
      "FxERC20Withdrawal(address,address,address,address,uint256)": {
        "notice": "Emitted when some ERC20 token has been withdrawn."
      }
    },
    "kind": "user",
    "methods": {
      "deposit(address,uint256)": {
        "notice": "Deposits an `amount` of `rootToken` by and for the message sender.Note: Approval for `amount` of `rootToken` must have been previously given to this contract."
      },
      "depositTo(address,address,uint256)": {
        "notice": "Deposits an `amount` of `rootToken` by the message sender and for a `receiver`.Note: Approval for `amount` of `rootToken` must have been previously given to this contract."
      },
      "isTrustedForwarder(address)": {
        "notice": "Checks whether a forwarder is trusted."
      },
      "mapToken(address)": {
        "notice": "Map a token to enable its movement via the Fx Portal"
      },
      "receiveMessage(bytes)": {
        "notice": "receive message from  L2 to L1, validated by proof"
      },
      "supportsInterface(bytes4)": {
        "notice": "Returns whether this contract implements a given interface."
      }
    },
    "notice": "Fx root mintable burnable ERC20 tunnel.",
    "version": 1
  },
  "storageLayout": {
    "storage": [
      {
        "astId": 10904,
        "contract": "contracts/fx-portal/tunnel/ERC20/FxERC20MintBurnRootTunnel.sol:FxERC20MintBurnRootTunnel",
        "label": "fxRoot",
        "offset": 0,
        "slot": "0",
        "type": "t_contract(IFxStateSender)10854"
      },
      {
        "astId": 10907,
        "contract": "contracts/fx-portal/tunnel/ERC20/FxERC20MintBurnRootTunnel.sol:FxERC20MintBurnRootTunnel",
        "label": "checkpointManager",
        "offset": 0,
        "slot": "1",
        "type": "t_contract(ICheckpointManager)10872"
      },
      {
        "astId": 10909,
        "contract": "contracts/fx-portal/tunnel/ERC20/FxERC20MintBurnRootTunnel.sol:FxERC20MintBurnRootTunnel",
        "label": "fxChildTunnel",
        "offset": 0,
        "slot": "2",
        "type": "t_address"
      },
      {
        "astId": 10913,
        "contract": "contracts/fx-portal/tunnel/ERC20/FxERC20MintBurnRootTunnel.sol:FxERC20MintBurnRootTunnel",
        "label": "processedExits",
        "offset": 0,
        "slot": "3",
        "type": "t_mapping(t_bytes32,t_bool)"
      },
      {
        "astId": 14582,
        "contract": "contracts/fx-portal/tunnel/ERC20/FxERC20MintBurnRootTunnel.sol:FxERC20MintBurnRootTunnel",
        "label": "rootToChildToken",
        "offset": 0,
        "slot": "4",
        "type": "t_mapping(t_address,t_address)"
      }
    ],
    "types": {
      "t_address": {
        "encoding": "inplace",
        "label": "address",
        "numberOfBytes": "20"
      },
      "t_bool": {
        "encoding": "inplace",
        "label": "bool",
        "numberOfBytes": "1"
      },
      "t_bytes32": {
        "encoding": "inplace",
        "label": "bytes32",
        "numberOfBytes": "32"
      },
      "t_contract(ICheckpointManager)10872": {
        "encoding": "inplace",
        "label": "contract ICheckpointManager",
        "numberOfBytes": "20"
      },
      "t_contract(IFxStateSender)10854": {
        "encoding": "inplace",
        "label": "contract IFxStateSender",
        "numberOfBytes": "20"
      },
      "t_mapping(t_address,t_address)": {
        "encoding": "mapping",
        "key": "t_address",
        "label": "mapping(address => address)",
        "numberOfBytes": "32",
        "value": "t_address"
      },
      "t_mapping(t_bytes32,t_bool)": {
        "encoding": "mapping",
        "key": "t_bytes32",
        "label": "mapping(bytes32 => bool)",
        "numberOfBytes": "32",
        "value": "t_bool"
      }
    }
  }
}