{
  "address": "0xf3A9422023b3Fd22cfF381680E2C37eE45FCcAb4",
  "abi": [
    {
      "inputs": [
        {
          "internalType": "address",
          "name": "checkpointManager",
          "type": "address"
        },
        {
          "internalType": "address",
          "name": "fxRoot",
          "type": "address"
        },
        {
          "internalType": "address",
          "name": "fxERC20Token",
          "type": "address"
        },
        {
          "internalType": "contract IForwarderRegistry",
          "name": "forwarderRegistry",
          "type": "address"
        }
      ],
      "stateMutability": "nonpayable",
      "type": "constructor"
    },
    {
      "inputs": [],
      "name": "FxERC20InvalidDepositAddress",
      "type": "error"
    },
    {
      "inputs": [
        {
          "internalType": "address",
          "name": "childToken",
          "type": "address"
        },
        {
          "internalType": "address",
          "name": "expectedRootToken",
          "type": "address"
        },
        {
          "internalType": "address",
          "name": "actualRootToken",
          "type": "address"
        }
      ],
      "name": "FxERC20InvalidMappingOnExit",
      "type": "error"
    },
    {
      "inputs": [],
      "name": "IllegalInterfaceId",
      "type": "error"
    },
    {
      "inputs": [
        {
          "internalType": "address",
          "name": "token",
          "type": "address"
        }
      ],
      "name": "SafeERC20FailedOperation",
      "type": "error"
    },
    {
      "anonymous": false,
      "inputs": [
        {
          "indexed": true,
          "internalType": "address",
          "name": "rootToken",
          "type": "address"
        },
        {
          "indexed": true,
          "internalType": "address",
          "name": "childToken",
          "type": "address"
        },
        {
          "indexed": false,
          "internalType": "address",
          "name": "depositor",
          "type": "address"
        },
        {
          "indexed": false,
          "internalType": "address",
          "name": "recipient",
          "type": "address"
        },
        {
          "indexed": false,
          "internalType": "uint256",
          "name": "amount",
          "type": "uint256"
        }
      ],
      "name": "FxERC20Deposit",
      "type": "event"
    },
    {
      "anonymous": false,
      "inputs": [
        {
          "indexed": true,
          "internalType": "address",
          "name": "rootToken",
          "type": "address"
        },
        {
          "indexed": true,
          "internalType": "address",
          "name": "childToken",
          "type": "address"
        }
      ],
      "name": "FxERC20TokenMapping",
      "type": "event"
    },
    {
      "anonymous": false,
      "inputs": [
        {
          "indexed": true,
          "internalType": "address",
          "name": "rootToken",
          "type": "address"
        },
        {
          "indexed": true,
          "internalType": "address",
          "name": "childToken",
          "type": "address"
        },
        {
          "indexed": false,
          "internalType": "address",
          "name": "withdrawer",
          "type": "address"
        },
        {
          "indexed": false,
          "internalType": "address",
          "name": "recipient",
          "type": "address"
        },
        {
          "indexed": false,
          "internalType": "uint256",
          "name": "amount",
          "type": "uint256"
        }
      ],
      "name": "FxERC20Withdrawal",
      "type": "event"
    },
    {
      "inputs": [],
      "name": "CHILD_TOKEN_PROXY_CODE_HASH",
      "outputs": [
        {
          "internalType": "bytes32",
          "name": "",
          "type": "bytes32"
        }
      ],
      "stateMutability": "view",
      "type": "function"
    },
    {
      "inputs": [],
      "name": "DEPOSIT",
      "outputs": [
        {
          "internalType": "bytes32",
          "name": "",
          "type": "bytes32"
        }
      ],
      "stateMutability": "view",
      "type": "function"
    },
    {
      "inputs": [],
      "name": "MAP_TOKEN",
      "outputs": [
        {
          "internalType": "bytes32",
          "name": "",
          "type": "bytes32"
        }
      ],
      "stateMutability": "view",
      "type": "function"
    },
    {
      "inputs": [],
      "name": "SEND_MESSAGE_EVENT_SIG",
      "outputs": [
        {
          "internalType": "bytes32",
          "name": "",
          "type": "bytes32"
        }
      ],
      "stateMutability": "view",
      "type": "function"
    },
    {
      "inputs": [],
      "name": "checkpointManager",
      "outputs": [
        {
          "internalType": "contract ICheckpointManager",
          "name": "",
          "type": "address"
        }
      ],
      "stateMutability": "view",
      "type": "function"
    },
    {
      "inputs": [
        {
          "internalType": "bytes32",
          "name": "salt",
          "type": "bytes32"
        },
        {
          "internalType": "bytes32",
          "name": "bytecodeHash",
          "type": "bytes32"
        },
        {
          "internalType": "address",
          "name": "deployer",
          "type": "address"
        }
      ],
      "name": "computedCreate2Address",
      "outputs": [
        {
          "internalType": "address",
          "name": "",
          "type": "address"
        }
      ],
      "stateMutability": "pure",
      "type": "function"
    },
    {
      "inputs": [
        {
          "internalType": "address",
          "name": "rootToken",
          "type": "address"
        },
        {
          "internalType": "uint256",
          "name": "amount",
          "type": "uint256"
        }
      ],
      "name": "deposit",
      "outputs": [],
      "stateMutability": "nonpayable",
      "type": "function"
    },
    {
      "inputs": [
        {
          "internalType": "address",
          "name": "rootToken",
          "type": "address"
        },
        {
          "internalType": "address",
          "name": "receiver",
          "type": "address"
        },
        {
          "internalType": "uint256",
          "name": "amount",
          "type": "uint256"
        }
      ],
      "name": "depositTo",
      "outputs": [],
      "stateMutability": "nonpayable",
      "type": "function"
    },
    {
      "inputs": [],
      "name": "forwarderRegistry",
      "outputs": [
        {
          "internalType": "contract IForwarderRegistry",
          "name": "",
          "type": "address"
        }
      ],
      "stateMutability": "view",
      "type": "function"
    },
    {
      "inputs": [],
      "name": "fxChildTunnel",
      "outputs": [
        {
          "internalType": "address",
          "name": "",
          "type": "address"
        }
      ],
      "stateMutability": "view",
      "type": "function"
    },
    {
      "inputs": [],
      "name": "fxRoot",
      "outputs": [
        {
          "internalType": "contract IFxStateSender",
          "name": "",
          "type": "address"
        }
      ],
      "stateMutability": "view",
      "type": "function"
    },
    {
      "inputs": [
        {
          "internalType": "address",
          "name": "forwarder",
          "type": "address"
        }
      ],
      "name": "isTrustedForwarder",
      "outputs": [
        {
          "internalType": "bool",
          "name": "",
          "type": "bool"
        }
      ],
      "stateMutability": "view",
      "type": "function"
    },
    {
      "inputs": [
        {
          "internalType": "address",
          "name": "rootToken",
          "type": "address"
        }
      ],
      "name": "mapToken",
      "outputs": [
        {
          "internalType": "address",
          "name": "childToken",
          "type": "address"
        }
      ],
      "stateMutability": "nonpayable",
      "type": "function"
    },
    {
      "inputs": [
        {
          "internalType": "address",
          "name": "",
          "type": "address"
        },
        {
          "internalType": "address",
          "name": "from",
          "type": "address"
        },
        {
          "internalType": "uint256",
          "name": "value",
          "type": "uint256"
        },
        {
          "internalType": "bytes",
          "name": "data",
          "type": "bytes"
        }
      ],
      "name": "onERC20Received",
      "outputs": [
        {
          "internalType": "bytes4",
          "name": "magicValue",
          "type": "bytes4"
        }
      ],
      "stateMutability": "nonpayable",
      "type": "function"
    },
    {
      "inputs": [
        {
          "internalType": "bytes32",
          "name": "",
          "type": "bytes32"
        }
      ],
      "name": "processedExits",
      "outputs": [
        {
          "internalType": "bool",
          "name": "",
          "type": "bool"
        }
      ],
      "stateMutability": "view",
      "type": "function"
    },
    {
      "inputs": [
        {
          "internalType": "bytes",
          "name": "inputData",
          "type": "bytes"
        }
      ],
      "name": "receiveMessage",
      "outputs": [],
      "stateMutability": "nonpayable",
      "type": "function"
    },
    {
      "inputs": [
        {
          "internalType": "address",
          "name": "",
          "type": "address"
        }
      ],
      "name": "rootToChildToken",
      "outputs": [
        {
          "internalType": "address",
          "name": "",
          "type": "address"
        }
      ],
      "stateMutability": "view",
      "type": "function"
    },
    {
      "inputs": [
        {
          "internalType": "address",
          "name": "_fxChildTunnel",
          "type": "address"
        }
      ],
      "name": "setFxChildTunnel",
      "outputs": [],
      "stateMutability": "nonpayable",
      "type": "function"
    },
    {
      "inputs": [
        {
          "internalType": "bytes4",
          "name": "interfaceId",
          "type": "bytes4"
        }
      ],
      "name": "supportsInterface",
      "outputs": [
        {
          "internalType": "bool",
          "name": "",
          "type": "bool"
        }
      ],
      "stateMutability": "view",
      "type": "function"
    }
  ],
  "transactionHash": "0xe8cb9a57adeb4939dfe9ee22f7f65ca012b152dad427c8ccbf7dbb2b50ed6c98",
  "args": [
    "0xbd07D7E1E93c8d4b2a261327F3C28a8EA7167209",
    "0x0E13EBEdDb8cf9f5987512d5E081FdC2F5b0991e",
    "0x826BED4057985E583D00F3cD2fcd3e4909fE8fB6",
    "0x316a472D084489CB6d4C66e5eB62aE3AdA17521e"
  ],
  "numDeployments": 1,
  "solcInputHash": "4046faabd850477eb3782908ea433876",
  "bytecode": "0x60c060405234801561001057600080fd5b5060405161358538038061358583398101604081905261002f916101b9565b600180546001600160a01b038087166001600160a01b0319928316178355600080549187169190921617905584908490849084908190819061008390634fc3585960e01b9061007c610111565b9190610145565b6001600160a01b03166080525060408051693d602d80600a3d3981f360b01b602082015269363d3d373d3d3d363d7360b01b602a8201526001600160601b0319606085901b1660348201526e5af43d82803e903d91602b57fd5bf360881b6048820152815180820360370181526057909101909152805160209091012060a052506102399650505050505050565b60008061013f60017fca9d3e17f264b0f3984e2634e94adb37fa3e6a8103f06aeae6fa59e21c769f5e610218565b92915050565b600160e01b6001600160e01b0319831601610173576040516372c683bb60e01b815260040160405180910390fd5b6001600160e01b03199190911660009081526020929092526040909120805460ff1916911515919091179055565b6001600160a01b03811681146101b657600080fd5b50565b600080600080608085870312156101cf57600080fd5b84516101da816101a1565b60208601519094506101eb816101a1565b60408601519093506101fc816101a1565b606086015190925061020d816101a1565b939692955090935050565b8181038181111561013f57634e487b7160e01b600052601160045260246000fd5b60805160a05161330b61027a6000396000818161035501526108110152600081816101b50152818161026301528181610a350152610ac3015261330b6000f3fe608060405234801561001057600080fd5b50600436106101515760003560e01c8063972c4928116100cd578063de9b771f11610081578063f213159c11610066578063f213159c146103f4578063f4a120f714610407578063f953cec71461041a57600080fd5b8063de9b771f1461039e578063ea60c7c4146103be57600080fd5b8063c0857ba0116100b2578063c0857ba014610330578063c63e81f814610350578063d81c8e521461037757600080fd5b8063972c4928146102fd578063aea4e49e1461031d57600080fd5b80634fc3585911610124578063607f2d4211610109578063607f2d42146102a05780637337957f146102c3578063886a69ba146102d657600080fd5b80634fc358591461020f578063572b6c051461025357600080fd5b806301ffc9a7146101565780630e387de61461017e5780632b4c9f16146101b357806347e7ef24146101fa575b600080fd5b6101696101643660046129f4565b61042d565b60405190151581526020015b60405180910390f35b6101a57f8c5261668696ce22758910d05bab8f186d6eb247ceac2af2e82c7dc17669b03681565b604051908152602001610175565b7f00000000000000000000000000000000000000000000000000000000000000005b60405173ffffffffffffffffffffffffffffffffffffffff9091168152602001610175565b61020d610208366004612a5b565b610447565b005b61022261021d366004612a87565b61046f565b6040517fffffffff000000000000000000000000000000000000000000000000000000009091168152602001610175565b610169610261366004612b28565b7f000000000000000000000000000000000000000000000000000000000000000073ffffffffffffffffffffffffffffffffffffffff90811691161490565b6101696102ae366004612b45565b60036020526000908152604090205460ff1681565b6101d56102d1366004612b5e565b61050a565b6101a57f2cef46a936bdc5b7e6e8c71aa04560c41cf7d88bb26901a7e7f4936ff02accad81565b6002546101d59073ffffffffffffffffffffffffffffffffffffffff1681565b61020d61032b366004612b28565b610592565b6001546101d59073ffffffffffffffffffffffffffffffffffffffff1681565b6101a57f000000000000000000000000000000000000000000000000000000000000000081565b6101a57f87a7811f4bfedea3d341ad165680ae306b01aaeacc205d227629cf157dd9f82181565b6000546101d59073ffffffffffffffffffffffffffffffffffffffff1681565b6101d56103cc366004612b28565b60046020526000908152604090205473ffffffffffffffffffffffffffffffffffffffff1681565b61020d610402366004612b97565b610684565b6101d5610415366004612b28565b6106f9565b61020d610428366004612c9c565b6108d0565b60006104418261043b6108ea565b90610918565b92915050565b60006104516109f2565b905061045f83828385610b3f565b61046a838284610c44565b505050565b60008482156104d25761048483850185612b28565b905073ffffffffffffffffffffffffffffffffffffffff81166104d2576040517e7336b000000000000000000000000000000000000000000000000000000000815260040160405180910390fd5b6104de33878388610b3f565b507f4fc35859000000000000000000000000000000000000000000000000000000009695505050505050565b604080517fff00000000000000000000000000000000000000000000000000000000000000602080830191909152606084901b7fffffffffffffffffffffffffffffffffffffffff00000000000000000000000016602183015260358201869052605580830186905283518084039091018152607590920190925280519101205b9392505050565b60025473ffffffffffffffffffffffffffffffffffffffff161561063d576040517f08c379a000000000000000000000000000000000000000000000000000000000815260206004820152602a60248201527f467842617365526f6f7454756e6e656c3a204348494c445f54554e4e454c5f4160448201527f4c52454144595f5345540000000000000000000000000000000000000000000060648201526084015b60405180910390fd5b600280547fffffffffffffffffffffffff00000000000000000000000000000000000000001673ffffffffffffffffffffffffffffffffffffffff92909216919091179055565b73ffffffffffffffffffffffffffffffffffffffff82166106d0576040517e7336b000000000000000000000000000000000000000000000000000000000815260040160405180910390fd5b60006106da6109f2565b90506106e884828585610b3f565b6106f3848284610c44565b50505050565b73ffffffffffffffffffffffffffffffffffffffff80821660009081526004602052604090205416801561072c57919050565b6107bb7f2cef46a936bdc5b7e6e8c71aa04560c41cf7d88bb26901a7e7f4936ff02accad8361075a85610c66565b60405160200161076b929190612d8a565b604080517fffffffffffffffffffffffffffffffffffffffffffffffffffffffffffffffe0818403018152908290526107a79291602001612db9565b604051602081830303815290604052610fbd565b60408051606084901b7fffffffffffffffffffffffffffffffffffffffff00000000000000000000000016602080830191909152825160148184030181526034909201909252805191012060025461084c9082907f00000000000000000000000000000000000000000000000000000000000000009073ffffffffffffffffffffffffffffffffffffffff1661050a565b73ffffffffffffffffffffffffffffffffffffffff84811660008181526004602052604080822080547fffffffffffffffffffffffff000000000000000000000000000000000000000016948616948517905551939550919290917ff935ffb7c4a7f69e191e46617fc2f41d98d93290443199977b42dd086e744c8691a350919050565b60006108db8261104e565b90506108e681611430565b5050565b60008061044160017fca9d3e17f264b0f3984e2634e94adb37fa3e6a8103f06aeae6fa59e21c769f5e612e01565b60007c01000000000000000000000000000000000000000000000000000000007fffffffff0000000000000000000000000000000000000000000000000000000083160161096857506000610441565b7ffe003659000000000000000000000000000000000000000000000000000000007fffffffff000000000000000000000000000000000000000000000000000000008316016109b957506001610441565b507fffffffff00000000000000000000000000000000000000000000000000000000166000908152602091909152604090205460ff1690565b600033321480610a025750601836105b15610a0c57503390565b7fffffffffffffffffffffffffffffffffffffffffffffffffffffffffffffffec36013560601c7f000000000000000000000000000000000000000000000000000000000000000073ffffffffffffffffffffffffffffffffffffffff16331480610b2e57506040517f019a202800000000000000000000000000000000000000000000000000000000815273ffffffffffffffffffffffffffffffffffffffff82811660048301523360248301523060448301527f0000000000000000000000000000000000000000000000000000000000000000169063019a202890606401602060405180830381865afa158015610b0a573d6000803e3d6000fd5b505050506040513d601f19601f82011682018060405250810190610b2e9190612e14565b15610b3857919050565b3391505090565b6040805173ffffffffffffffffffffffffffffffffffffffff8681166020830152858116828401528416606082015260808082018490528251808303909101815260a08201909252600091610bb9917f87a7811f4bfedea3d341ad165680ae306b01aaeacc205d227629cf157dd9f821919060c001612db9565b6040516020818303038152906040529050610bd381610fbd565b610bdc856106f9565b6040805173ffffffffffffffffffffffffffffffffffffffff8781168252868116602083015291810185905291811691908716907fd04a997afc07fd79393f2188ae8935e4389ab8aef6144f0f839e3aade5b858ab9060600160405180910390a35050505050565b61046a73ffffffffffffffffffffffffffffffffffffffff841683308461155a565b606060008273ffffffffffffffffffffffffffffffffffffffff166318160ddd6040518163ffffffff1660e01b8152600401602060405180830381865afa158015610cb5573d6000803e3d6000fd5b505050506040513d601f19601f82011682018060405250810190610cd99190612e36565b9050600083905060008173ffffffffffffffffffffffffffffffffffffffff166306fdde036040518163ffffffff1660e01b8152600401600060405180830381865afa158015610d2d573d6000803e3d6000fd5b505050506040513d6000823e601f3d9081017fffffffffffffffffffffffffffffffffffffffffffffffffffffffffffffffe0168201604052610d739190810190612e7f565b905060008273ffffffffffffffffffffffffffffffffffffffff166395d89b416040518163ffffffff1660e01b8152600401600060405180830381865afa158015610dc2573d6000803e3d6000fd5b505050506040513d6000823e601f3d9081017fffffffffffffffffffffffffffffffffffffffffffffffffffffffffffffffe0168201604052610e089190810190612e7f565b905060008373ffffffffffffffffffffffffffffffffffffffff1663313ce5676040518163ffffffff1660e01b8152600401602060405180830381865afa158015610e57573d6000803e3d6000fd5b505050506040513d601f19601f82011682018060405250810190610e7b9190612ec8565b905060008773ffffffffffffffffffffffffffffffffffffffff16633c130d906040518163ffffffff1660e01b8152600401600060405180830381865afa158015610eca573d6000803e3d6000fd5b505050506040513d6000823e601f3d9081017fffffffffffffffffffffffffffffffffffffffffffffffffffffffffffffffe0168201604052610f109190810190612e7f565b905060008873ffffffffffffffffffffffffffffffffffffffff16638da5cb5b6040518163ffffffff1660e01b8152600401602060405180830381865afa158015610f5f573d6000803e3d6000fd5b505050506040513d601f19601f82011682018060405250810190610f839190612eeb565b9050868585858585604051602001610fa096959493929190612f08565b604051602081830303815290604052975050505050505050919050565b6000546002546040517fb472047700000000000000000000000000000000000000000000000000000000815273ffffffffffffffffffffffffffffffffffffffff9283169263b472047792611019929116908590600401612d8a565b600060405180830381600087803b15801561103357600080fd5b505af1158015611047573d6000803e3d6000fd5b5050505050565b6060600061105b836115e3565b9050600061106882611642565b905060006110758361166b565b905060008161108384611694565b61108c86611878565b60405160200161109e93929190612f7a565b604080517fffffffffffffffffffffffffffffffffffffffffffffffffffffffffffffffe081840301815291815281516020928301206000818152600390935291205490915060ff1615611173576040517f08c379a0000000000000000000000000000000000000000000000000000000008152602060048201526024808201527f4678526f6f7454756e6e656c3a20455849545f414c52454144595f50524f434560448201527f53534544000000000000000000000000000000000000000000000000000000006064820152608401610634565b600081815260036020526040812080547fffffffffffffffffffffffffffffffffffffffffffffffffffffffffffffff001660011790556111b385611894565b905060006111c0826119de565b90506111cb81611a6e565b60025473ffffffffffffffffffffffffffffffffffffffff908116911614611275576040517f08c379a000000000000000000000000000000000000000000000000000000000815260206004820152602560248201527f4678526f6f7454756e6e656c3a20494e56414c49445f46585f4348494c445f5460448201527f554e4e454c0000000000000000000000000000000000000000000000000000006064820152608401610634565b600061128087611a97565b90506112a0611290846020015190565b8761129a8a611ab3565b84611acf565b61132c576040517f08c379a000000000000000000000000000000000000000000000000000000000815260206004820152602360248201527f4678526f6f7454756e6e656c3a20494e56414c49445f524543454950545f505260448201527f4f4f4600000000000000000000000000000000000000000000000000000000006064820152608401610634565b61135a8561133989611d78565b6113428a611d94565b8461134c8c611db0565b6113558d611dcc565b611de8565b50600061136683611f4e565b90507f8c5261668696ce22758910d05bab8f186d6eb247ceac2af2e82c7dc17669b03661139c611397836000611f8a565b611fc2565b14611403576040517f08c379a000000000000000000000000000000000000000000000000000000000815260206004820152601f60248201527f4678526f6f7454756e6e656c3a20494e56414c49445f5349474e4154555245006044820152606401610634565b600061140e8461203d565b8060200190518101906114219190612e7f565b9b9a5050505050505050505050565b60008060008060008580602001905181019061144c9190612fa7565b73ffffffffffffffffffffffffffffffffffffffff808616600090815260046020526040902054959a509398509196509450925090811690851681146114e6576040517f3855947700000000000000000000000000000000000000000000000000000000815273ffffffffffffffffffffffffffffffffffffffff8088166004830152808716602483015282166044820152606401610634565b6114f1868484612059565b6040805173ffffffffffffffffffffffffffffffffffffffff86811682528581166020830152918101849052818716918816907faa4bbbc02123d0c446b55ec99a14078c9eab05cb4a271e6d8f8e278d9e4cd1849060600160405180910390a350505050505050565b60405173ffffffffffffffffffffffffffffffffffffffff84811660248301528381166044830152606482018390526106f39186918216906323b872dd906084015b604051602081830303815290604052915060e01b6020820180517bffffffffffffffffffffffffffffffffffffffffffffffffffffffff838183161783525050505061207a565b604080516020810190915260608152600061162d6116288460408051808201825260008082526020918201528151808301909252825182529182019181019190915290565b61211e565b60408051602081019091529081529392505050565b6060610441826000015160088151811061165e5761165e613012565b602002602001015161222a565b6000610441826000015160028151811061168757611687613012565b6020026020010151611fc2565b60408051602081019091526000815281516060919015610441576000806116bc6000866122c7565b60f81c905060018114806116d357508060ff166003145b15611793576001855160026116e89190613041565b6116f29190612e01565b67ffffffffffffffff81111561170a5761170a612bd8565b6040519080825280601f01601f191660200182016040528015611734576020820181803683370190505b50925060006117446001876122c7565b9050808460008151811061175a5761175a613012565b60200101907effffffffffffffffffffffffffffffffffffffffffffffffffffffffffffff1916908160001a90535060019250506117f7565b6002855160026117a39190613041565b6117ad9190612e01565b67ffffffffffffffff8111156117c5576117c5612bd8565b6040519080825280601f01601f1916602001820160405280156117ef576020820181803683370190505b509250600091505b60ff82165b835181101561186f5761182661181560ff851683612e01565b611820906002613058565b876122c7565b84828151811061183857611838613012565b60200101907effffffffffffffffffffffffffffffffffffffffffffffffffffffffffffff1916908160001a9053506001016117fc565b50505092915050565b6000610441826000015160098151811061168757611687613012565b6118b860405180606001604052806060815260200160608152602001600081525090565b6118d2826000015160068151811061165e5761165e613012565b60208281018290526040805180820182526000808252908301528051808201909152825181529181019082015261190881612348565b1561191d576119168161211e565b82526119ca565b6020820151805160009061193390600190612e01565b67ffffffffffffffff81111561194b5761194b612bd8565b6040519080825280601f01601f191660200182016040528015611975576020820181803683370190505b50905060008083602101915082602001905061199382828551612383565b6040805180820182526000808252602091820152815180830190925284518252808501908201526119c39061211e565b8652505050505b6119d383611878565b604083015250919050565b604080516080810182526000918101828152606080830193909352815260208101919091526000611a2c8360000151600381518110611a1f57611a1f613012565b602002602001015161211e565b836040015181518110611a4157611a41613012565b602002602001015190506040518060400160405280828152602001611a658361211e565b90529392505050565b60006104418260200151600081518110611a8a57611a8a613012565b602002602001015161240e565b6000610441826000015160058151811061168757611687613012565b6060610441826000015160078151811061165e5761165e613012565b600080611b038460408051808201825260008082526020918201528151808301909252825182529182019181019190915290565b90506000611b108261211e565b905060608085600080611b228b611694565b90508051600003611b3d576000975050505050505050611d70565b60005b8651811015611d67578151831115611b6357600098505050505050505050611d70565b611b85878281518110611b7857611b78613012565b6020026020010151612428565b955085805190602001208414611ba657600098505050505050505050611d70565b611bbb878281518110611a1f57611a1f613012565b94508451601103611c8d5781518303611c1a578c80519060200120611bec8660108151811061165e5761165e613012565b8051906020012003611c0957600198505050505050505050611d70565b600098505050505050505050611d70565b6000828481518110611c2e57611c2e613012565b016020015160f81c90506010811115611c535760009950505050505050505050611d70565b611c78868260ff1681518110611c6b57611c6b613012565b60200260200101516124a7565b9450611c85600185613058565b935050611d5f565b8451600203611c09576000611cb8611cb18760008151811061165e5761165e613012565b84866124d5565b8351909150611cc78286613058565b03611d1a578d80519060200120611cea8760018151811061165e5761165e613012565b8051906020012003611d085760019950505050505050505050611d70565b60009950505050505050505050611d70565b80600003611d345760009950505050505050505050611d70565b611d3e8185613058565b9350611d5686600181518110611c6b57611c6b613012565b9450611d5f9050565b600101611b40565b50505050505050505b949350505050565b6000610441826000015160038151811061168757611687613012565b6000610441826000015160048151811061168757611687613012565b6000610441826000015160008151811061168757611687613012565b6060610441826000015160018151811061165e5761165e613012565b6001546040517f41539d4a0000000000000000000000000000000000000000000000000000000081526004810184905260009182918291829173ffffffffffffffffffffffffffffffffffffffff909116906341539d4a9060240160a060405180830381865afa158015611e60573d6000803e3d6000fd5b505050506040513d601f19601f82011682018060405250810190611e84919061306b565b5093505092509250611edb828b611e9b9190612e01565b6040805160208082018f90528183018e9052606082018d905260808083018d90528351808403909101815260a09092019092528051910120908588612602565b611f41576040517f08c379a000000000000000000000000000000000000000000000000000000000815260206004820152601c60248201527f4678526f6f7454756e6e656c3a20494e56414c49445f484541444552000000006044820152606401610634565b9998505050505050505050565b6040805160208101909152606081526040518060200160405280611f828460200151600181518110611a1f57611a1f613012565b905292915050565b60408051808201909152600080825260208201528251805183908110611fb257611fb2613012565b6020026020010151905092915050565b805160009015801590611fd757508151602110155b611fe057600080fd5b6000611fef83602001516127af565b905060008184600001516120039190612e01565b90506000808386602001516120189190613058565b905080519150602083101561203457826020036101000a820491505b50949350505050565b6060610441826020015160028151811061165e5761165e613012565b61046a73ffffffffffffffffffffffffffffffffffffffff8416838361282a565b600080602060008451602086016000885af18061209d576040513d6000823e3d81fd5b50506000513d915081156120b55780600114156120cf565b73ffffffffffffffffffffffffffffffffffffffff84163b155b156106f3576040517f5274afe700000000000000000000000000000000000000000000000000000000815273ffffffffffffffffffffffffffffffffffffffff85166004820152602401610634565b606061212982612348565b61213257600080fd5b600061213d83612868565b905060008167ffffffffffffffff81111561215a5761215a612bd8565b60405190808252806020026020018201604052801561219f57816020015b60408051808201909152600080825260208201528152602001906001900390816121785790505b50905060006121b185602001516127af565b85602001516121c09190613058565b90506000805b8481101561221f576121d7836128ed565b915060405180604001604052808381526020018481525084828151811061220057612200613012565b60209081029190910101526122158284613058565b92506001016121c6565b509195945050505050565b805160609061223857600080fd5b600061224783602001516127af565b9050600081846000015161225b9190612e01565b905060008167ffffffffffffffff81111561227857612278612bd8565b6040519080825280601f01601f1916602001820160405280156122a2576020820181803683370190505b50905060008160200190506120348487602001516122c09190613058565b82856129af565b60006122d46002846130e9565b1561230e576010826122e76002866130fd565b815181106122f7576122f7613012565b0160200151612309919060f81c613111565b61233e565b60108261231c6002866130fd565b8151811061232c5761232c613012565b016020015161233e919060f81c613133565b60f81b9392505050565b8051600090810361235b57506000919050565b6020820151805160001a9060c0821015612379575060009392505050565b5060019392505050565b8060000361239057505050565b602081106123c857825182526123a7602084613058565b92506123b4602083613058565b91506123c1602082612e01565b9050612390565b806000036123d557505050565b600060016123e4836020612e01565b6123f090610100613278565b6123fa9190612e01565b935183518516941916939093179091525050565b805160009060151461241f57600080fd5b61044182611fc2565b60606000826000015167ffffffffffffffff81111561244957612449612bd8565b6040519080825280601f01601f191660200182016040528015612473576020820181803683370190505b50905080516000036124855792915050565b60008160200190506124a084602001518286600001516129af565b5092915050565b80516000906021146124b857600080fd5b600080836020015160016124cc9190613058565b51949350505050565b600080806124e286611694565b90506000815167ffffffffffffffff81111561250057612500612bd8565b6040519080825280601f01601f19166020018201604052801561252a576020820181803683370190505b509050845b825161253b9087613058565b8110156125d357600087828151811061255657612556613012565b01602001517fff00000000000000000000000000000000000000000000000000000000000000169050808361258b8985612e01565b8151811061259b5761259b613012565b60200101907effffffffffffffffffffffffffffffffffffffffffffffffffffffffffffff1916908160001a9053505060010161252f565b5080805190602001208280519060200120036125f257815192506125f7565b600092505b509095945050505050565b60006020825161261291906130e9565b15612679576040517f08c379a000000000000000000000000000000000000000000000000000000000815260206004820152601460248201527f496e76616c69642070726f6f66206c656e6774680000000000000000000000006044820152606401610634565b60006020835161268991906130fd565b9050612696816002613278565b85106126fe576040517f08c379a000000000000000000000000000000000000000000000000000000000815260206004820152601560248201527f4c65616620696e64657820697320746f6f2062696700000000000000000000006044820152606401610634565b60008660205b855181116127a15785810151925061271d6002896130e9565b600003612755576040805160208101849052908101849052606001604051602081830303815290604052805190602001209150612782565b60408051602081018590529081018390526060016040516020818303038152906040528051906020012091505b61278d6002896130fd565b975061279a602082613058565b9050612704565b509094149695505050505050565b8051600090811a60808110156127c85750600092915050565b60b88110806127e3575060c081108015906127e3575060f881105b156127f15750600192915050565b60c081101561281e57612806600160b8613284565b6128139060ff1682612e01565b61058b906001613058565b612806600160f8613284565b60405173ffffffffffffffffffffffffffffffffffffffff83811660248301526044820183905261046a91859182169063a9059cbb9060640161159c565b8051600090810361287b57506000919050565b60008061288b84602001516127af565b846020015161289a9190613058565b90506000846000015185602001516128b29190613058565b90505b808210156128e4576128c6826128ed565b6128d09083613058565b9150826128dc8161329d565b9350506128b5565b50909392505050565b80516000908190811a608081101561290857600191506124a0565b60b881101561292e5761291c608082612e01565b612927906001613058565b91506124a0565b60c081101561295b5760b78103600185019450806020036101000a855104600182018101935050506124a0565b60f881101561296f5761291c60c082612e01565b60019390930151602084900360f7016101000a90049092017fffffffffffffffffffffffffffffffffffffffffffffffffffffffffffffff0a0192915050565b806000036129bc57505050565b602081106123c857825182526129d3602084613058565b92506129e0602083613058565b91506129ed602082612e01565b90506129bc565b600060208284031215612a0657600080fd5b81357fffffffff000000000000000000000000000000000000000000000000000000008116811461058b57600080fd5b73ffffffffffffffffffffffffffffffffffffffff81168114612a5857600080fd5b50565b60008060408385031215612a6e57600080fd5b8235612a7981612a36565b946020939093013593505050565b600080600080600060808688031215612a9f57600080fd5b8535612aaa81612a36565b94506020860135612aba81612a36565b935060408601359250606086013567ffffffffffffffff811115612add57600080fd5b8601601f81018813612aee57600080fd5b803567ffffffffffffffff811115612b0557600080fd5b886020828401011115612b1757600080fd5b959894975092955050506020019190565b600060208284031215612b3a57600080fd5b813561058b81612a36565b600060208284031215612b5757600080fd5b5035919050565b600080600060608486031215612b7357600080fd5b83359250602084013591506040840135612b8c81612a36565b809150509250925092565b600080600060608486031215612bac57600080fd5b8335612bb781612a36565b92506020840135612bc781612a36565b929592945050506040919091013590565b7f4e487b7100000000000000000000000000000000000000000000000000000000600052604160045260246000fd5b604051601f82017fffffffffffffffffffffffffffffffffffffffffffffffffffffffffffffffe016810167ffffffffffffffff81118282101715612c4e57612c4e612bd8565b604052919050565b600067ffffffffffffffff821115612c7057612c70612bd8565b50601f017fffffffffffffffffffffffffffffffffffffffffffffffffffffffffffffffe01660200190565b600060208284031215612cae57600080fd5b813567ffffffffffffffff811115612cc557600080fd5b8201601f81018413612cd657600080fd5b8035612ce9612ce482612c56565b612c07565b818152856020838501011115612cfe57600080fd5b81602084016020830137600091810160200191909152949350505050565b60005b83811015612d37578181015183820152602001612d1f565b50506000910152565b60008151808452612d58816020860160208601612d1c565b601f017fffffffffffffffffffffffffffffffffffffffffffffffffffffffffffffffe0169290920160200192915050565b73ffffffffffffffffffffffffffffffffffffffff83168152604060208201526000611d706040830184612d40565b828152604060208201526000611d706040830184612d40565b7f4e487b7100000000000000000000000000000000000000000000000000000000600052601160045260246000fd5b8181038181111561044157610441612dd2565b600060208284031215612e2657600080fd5b8151801515811461058b57600080fd5b600060208284031215612e4857600080fd5b5051919050565b6000612e5d612ce484612c56565b9050828152838383011115612e7157600080fd5b61058b836020830184612d1c565b600060208284031215612e9157600080fd5b815167ffffffffffffffff811115612ea857600080fd5b8201601f81018413612eb957600080fd5b611d7084825160208401612e4f565b600060208284031215612eda57600080fd5b815160ff8116811461058b57600080fd5b600060208284031215612efd57600080fd5b815161058b81612a36565b86815260c060208201526000612f2160c0830188612d40565b8281036040840152612f338188612d40565b905060ff861660608401528281036080840152612f508186612d40565b91505073ffffffffffffffffffffffffffffffffffffffff831660a0830152979650505050505050565b83815260008351612f92816020850160208801612d1c565b60209201918201929092526040019392505050565b600080600080600060a08688031215612fbf57600080fd5b8551612fca81612a36565b6020870151909550612fdb81612a36565b6040870151909450612fec81612a36565b6060870151909350612ffd81612a36565b60809690960151949793965091949392915050565b7f4e487b7100000000000000000000000000000000000000000000000000000000600052603260045260246000fd5b808202811582820484141761044157610441612dd2565b8082018082111561044157610441612dd2565b600080600080600060a0868803121561308357600080fd5b855160208701516040880151606089015160808a0151939850919650945092506130ac81612a36565b809150509295509295909350565b7f4e487b7100000000000000000000000000000000000000000000000000000000600052601260045260246000fd5b6000826130f8576130f86130ba565b500690565b60008261310c5761310c6130ba565b500490565b600060ff831680613124576131246130ba565b8060ff84160691505092915050565b600060ff831680613146576131466130ba565b8060ff84160491505092915050565b6001815b60018411156131905780850481111561317457613174612dd2565b600184161561318257908102905b60019390931c928002613159565b935093915050565b6000826131a757506001610441565b816131b457506000610441565b81600181146131ca57600281146131d4576131f0565b6001915050610441565b60ff8411156131e5576131e5612dd2565b50506001821b610441565b5060208310610133831016604e8410600b8410161715613213575081810a610441565b61323e7fffffffffffffffffffffffffffffffffffffffffffffffffffffffffffffffff8484613155565b807fffffffffffffffffffffffffffffffffffffffffffffffffffffffffffffffff0482111561327057613270612dd2565b029392505050565b600061058b8383613198565b60ff828116828216039081111561044157610441612dd2565b60007fffffffffffffffffffffffffffffffffffffffffffffffffffffffffffffffff82036132ce576132ce612dd2565b506001019056fea2646970667358221220fe15d3cf3d495b4ea525e75cc243b8b8e2aadbe54f8f513f8390901d0eda0d7b64736f6c634300081c0033",
  "devdoc": {
    "errors": {
      "FxERC20InvalidMappingOnExit(address,address,address)": [
        {
          "params": {
            "actualRootToken": "The actual root token.",
            "childToken": "The child token.",
            "expectedRootToken": "The expected root token."
          }
        }
      ],
      "SafeERC20FailedOperation(address)": [
        {
          "details": "An operation with an ERC-20 token failed."
        }
      ]
    },
    "events": {
      "FxERC20Deposit(address,address,address,address,uint256)": {
        "params": {
          "amount": "The deposit amount.",
          "childToken": "The child ERC20 token.",
          "depositor": "The depositor address.",
          "recipient": "The recipient address.",
          "rootToken": "The root ERC20 token."
        }
      },
      "FxERC20TokenMapping(address,address)": {
        "params": {
          "childToken": "The child ERC20 token.",
          "rootToken": "The root ERC20 token."
        }
      },
      "FxERC20Withdrawal(address,address,address,address,uint256)": {
        "params": {
          "amount": "The withdrawal amount.",
          "childToken": "The child ERC20 token.",
          "recipient": "The recipient address.",
          "rootToken": "The root ERC20 token.",
          "withdrawer": "The withdrawer address."
        }
      }
    },
    "kind": "dev",
    "methods": {
      "deposit(address,uint256)": {
        "details": "Reverts if the token transfer fails for any reason.",
        "params": {
          "amount": "The amount of tokens to deposit.",
          "rootToken": "The ERC20 root token."
        }
      },
      "depositTo(address,address,uint256)": {
        "details": "Reverts with `FxERC20TokenNotMapped` if `childToken has not been deployed through a mapping request.Reverts if the token transfer fails for any reason.",
        "params": {
          "amount": "The amount of tokens to deposit.",
          "receiver": "The account receiving the deposit.",
          "rootToken": "The ERC20 root token."
        }
      },
      "isTrustedForwarder(address)": {
        "params": {
          "forwarder": "The forwarder to check."
        },
        "returns": {
          "_0": "True if `forwarder` is trusted, false if not."
        }
      },
      "mapToken(address)": {
        "params": {
          "rootToken": "address of token on root chain"
        }
      },
      "onERC20Received(address,address,uint256,bytes)": {
        "params": {
          "data": "Empty if the receiver is the same as the tokens sender, else the abi-encoded address of the receiver.",
          "from": "The previous tokens owner.",
          "value": "The amount of tokens transferred."
        },
        "returns": {
          "magicValue": "`bytes4(keccak256(\"onERC20Received(address,address,uint256,bytes)\"))` (`0x4fc35859`) to accept, any other value to refuse."
        }
      },
      "receiveMessage(bytes)": {
        "details": "This function verifies if the transaction actually happened on child chain",
        "params": {
          "inputData": "RLP encoded data of the reference tx containing following list of fields  0 - headerNumber - Checkpoint header block number containing the reference tx  1 - blockProof - Proof that the block header (in the child chain) is a leaf in the submitted merkle root  2 - blockNumber - Block number containing the reference tx on child chain  3 - blockTime - Reference tx block time  4 - txRoot - Transactions root of block  5 - receiptRoot - Receipts root of block  6 - receipt - Receipt of the reference transaction  7 - receiptProof - Merkle proof of the reference receipt  8 - branchMask - 32 bits denoting the path of receipt in merkle tree  9 - receiptLogIndex - Log Index to read from the receipt"
        }
      },
      "supportsInterface(bytes4)": {
        "details": "Note: This function call must use less than 30 000 gas.",
        "params": {
          "interfaceId": "the interface identifier to test."
        },
        "returns": {
          "_0": "True if the interface is supported, false if `interfaceId` is `0xffffffff` or if the interface is not supported."
        }
      }
    },
    "title": "FxERC20FixedSupplyRootTunnel",
    "version": 1
  },
  "userdoc": {
    "errors": {
      "FxERC20InvalidDepositAddress()": [
        {
          "notice": "Thrown if a deposit recipient is the zero address."
        }
      ],
      "FxERC20InvalidMappingOnExit(address,address,address)": [
        {
          "notice": "Thrown when a deposit request refers to an invalid token mapping."
        }
      ],
      "IllegalInterfaceId()": [
        {
          "notice": "Thrown when setting the illegal interfaceId 0xffffffff."
        }
      ]
    },
    "events": {
      "FxERC20Deposit(address,address,address,address,uint256)": {
        "notice": "Emitted when some ERC20 token has been deposited."
      },
      "FxERC20TokenMapping(address,address)": {
        "notice": "Emitted when an ERC20 token has been mapped."
      },
      "FxERC20Withdrawal(address,address,address,address,uint256)": {
        "notice": "Emitted when some ERC20 token has been withdrawn."
      }
    },
    "kind": "user",
    "methods": {
      "deposit(address,uint256)": {
        "notice": "Deposits an `amount` of `rootToken` by and for the message sender.Note: Approval for `amount` of `rootToken` must have been previously given to this contract."
      },
      "depositTo(address,address,uint256)": {
        "notice": "Deposits an `amount` of `rootToken` by the message sender and for a `receiver`.Note: Approval for `amount` of `rootToken` must have been previously given to this contract."
      },
      "isTrustedForwarder(address)": {
        "notice": "Checks whether a forwarder is trusted."
      },
      "mapToken(address)": {
        "notice": "Map a token to enable its movement via the Fx Portal"
      },
      "receiveMessage(bytes)": {
        "notice": "receive message from  L2 to L1, validated by proof"
      },
      "supportsInterface(bytes4)": {
        "notice": "Returns whether this contract implements a given interface."
      }
    },
    "notice": "Fx root fixed supply ERC20 tunnel.",
    "version": 1
  },
  "storageLayout": {
    "storage": [
      {
        "astId": 10904,
        "contract": "contracts/fx-portal/tunnel/ERC20/FxERC20FixedSupplyRootTunnel.sol:FxERC20FixedSupplyRootTunnel",
        "label": "fxRoot",
        "offset": 0,
        "slot": "0",
        "type": "t_contract(IFxStateSender)10854"
      },
      {
        "astId": 10907,
        "contract": "contracts/fx-portal/tunnel/ERC20/FxERC20FixedSupplyRootTunnel.sol:FxERC20FixedSupplyRootTunnel",
        "label": "checkpointManager",
        "offset": 0,
        "slot": "1",
        "type": "t_contract(ICheckpointManager)10872"
      },
      {
        "astId": 10909,
        "contract": "contracts/fx-portal/tunnel/ERC20/FxERC20FixedSupplyRootTunnel.sol:FxERC20FixedSupplyRootTunnel",
        "label": "fxChildTunnel",
        "offset": 0,
        "slot": "2",
        "type": "t_address"
      },
      {
        "astId": 10913,
        "contract": "contracts/fx-portal/tunnel/ERC20/FxERC20FixedSupplyRootTunnel.sol:FxERC20FixedSupplyRootTunnel",
        "label": "processedExits",
        "offset": 0,
        "slot": "3",
        "type": "t_mapping(t_bytes32,t_bool)"
      },
      {
        "astId": 14582,
        "contract": "contracts/fx-portal/tunnel/ERC20/FxERC20FixedSupplyRootTunnel.sol:FxERC20FixedSupplyRootTunnel",
        "label": "rootToChildToken",
        "offset": 0,
        "slot": "4",
        "type": "t_mapping(t_address,t_address)"
      }
    ],
    "types": {
      "t_address": {
        "encoding": "inplace",
        "label": "address",
        "numberOfBytes": "20"
      },
      "t_bool": {
        "encoding": "inplace",
        "label": "bool",
        "numberOfBytes": "1"
      },
      "t_bytes32": {
        "encoding": "inplace",
        "label": "bytes32",
        "numberOfBytes": "32"
      },
      "t_contract(ICheckpointManager)10872": {
        "encoding": "inplace",
        "label": "contract ICheckpointManager",
        "numberOfBytes": "20"
      },
      "t_contract(IFxStateSender)10854": {
        "encoding": "inplace",
        "label": "contract IFxStateSender",
        "numberOfBytes": "20"
      },
      "t_mapping(t_address,t_address)": {
        "encoding": "mapping",
        "key": "t_address",
        "label": "mapping(address => address)",
        "numberOfBytes": "32",
        "value": "t_address"
      },
      "t_mapping(t_bytes32,t_bool)": {
        "encoding": "mapping",
        "key": "t_bytes32",
        "label": "mapping(bytes32 => bool)",
        "numberOfBytes": "32",
        "value": "t_bool"
      }
    }
  }
}