{
  "address": "0x4F06945703F9E772244191d05Ff86429bA05165A",
  "abi": [
    {
      "inputs": [
        {
          "internalType": "contract IForwarderRegistry",
          "name": "forwarderRegistry",
          "type": "address"
        }
      ],
      "stateMutability": "nonpayable",
      "type": "constructor"
    },
    {
      "inputs": [
        {
          "internalType": "uint256",
          "name": "percentage",
          "type": "uint256"
        }
      ],
      "name": "ERC2981IncorrectRoyaltyPercentage",
      "type": "error"
    },
    {
      "inputs": [],
      "name": "ERC2981IncorrectRoyaltyReceiver",
      "type": "error"
    },
    {
      "inputs": [],
      "name": "ERC721BalanceOfAddressZero",
      "type": "error"
    },
    {
      "inputs": [
        {
          "internalType": "uint256",
          "name": "tokenId",
          "type": "uint256"
        }
      ],
      "name": "ERC721ExistingToken",
      "type": "error"
    },
    {
      "inputs": [],
      "name": "ERC721MintToAddressZero",
      "type": "error"
    },
    {
      "inputs": [
        {
          "internalType": "address",
          "name": "sender",
          "type": "address"
        },
        {
          "internalType": "address",
          "name": "owner",
          "type": "address"
        },
        {
          "internalType": "uint256",
          "name": "tokenId",
          "type": "uint256"
        }
      ],
      "name": "ERC721NonApprovedForApproval",
      "type": "error"
    },
    {
      "inputs": [
        {
          "internalType": "address",
          "name": "sender",
          "type": "address"
        },
        {
          "internalType": "address",
          "name": "owner",
          "type": "address"
        },
        {
          "internalType": "uint256",
          "name": "tokenId",
          "type": "uint256"
        }
      ],
      "name": "ERC721NonApprovedForTransfer",
      "type": "error"
    },
    {
      "inputs": [
        {
          "internalType": "uint256",
          "name": "tokenId",
          "type": "uint256"
        }
      ],
      "name": "ERC721NonExistingToken",
      "type": "error"
    },
    {
      "inputs": [
        {
          "internalType": "address",
          "name": "account",
          "type": "address"
        },
        {
          "internalType": "uint256",
          "name": "tokenId",
          "type": "uint256"
        }
      ],
      "name": "ERC721NonOwnedToken",
      "type": "error"
    },
    {
      "inputs": [
        {
          "internalType": "address",
          "name": "recipient",
          "type": "address"
        },
        {
          "internalType": "uint256",
          "name": "tokenId",
          "type": "uint256"
        }
      ],
      "name": "ERC721SafeTransferRejected",
      "type": "error"
    },
    {
      "inputs": [
        {
          "internalType": "address",
          "name": "account",
          "type": "address"
        }
      ],
      "name": "ERC721SelfApproval",
      "type": "error"
    },
    {
      "inputs": [
        {
          "internalType": "address",
          "name": "account",
          "type": "address"
        }
      ],
      "name": "ERC721SelfApprovalForAll",
      "type": "error"
    },
    {
      "inputs": [],
      "name": "ERC721TransferToAddressZero",
      "type": "error"
    },
    {
      "inputs": [],
      "name": "FailedCall",
      "type": "error"
    },
    {
      "inputs": [],
      "name": "IllegalInterfaceId",
      "type": "error"
    },
    {
      "inputs": [],
      "name": "InconsistentArrayLengths",
      "type": "error"
    },
    {
      "inputs": [
        {
          "internalType": "address",
          "name": "tokenContract",
          "type": "address"
        }
      ],
      "name": "IncorrectTokenContractType",
      "type": "error"
    },
    {
      "inputs": [
        {
          "internalType": "uint256",
          "name": "currentPhase",
          "type": "uint256"
        },
        {
          "internalType": "uint256",
          "name": "newPhase",
          "type": "uint256"
        }
      ],
      "name": "InitializationPhaseAlreadyReached",
      "type": "error"
    },
    {
      "inputs": [
        {
          "internalType": "uint256",
          "name": "balance",
          "type": "uint256"
        },
        {
          "internalType": "uint256",
          "name": "needed",
          "type": "uint256"
        }
      ],
      "name": "InsufficientBalance",
      "type": "error"
    },
    {
      "inputs": [
        {
          "internalType": "address",
          "name": "account",
          "type": "address"
        }
      ],
      "name": "NotContractOwner",
      "type": "error"
    },
    {
      "inputs": [
        {
          "internalType": "bytes32",
          "name": "role",
          "type": "bytes32"
        },
        {
          "internalType": "address",
          "name": "account",
          "type": "address"
        }
      ],
      "name": "NotRoleHolder",
      "type": "error"
    },
    {
      "inputs": [
        {
          "internalType": "address",
          "name": "operator",
          "type": "address"
        }
      ],
      "name": "OperatorNotAllowed",
      "type": "error"
    },
    {
      "inputs": [
        {
          "internalType": "address",
          "name": "token",
          "type": "address"
        }
      ],
      "name": "SafeERC20FailedOperation",
      "type": "error"
    },
    {
      "anonymous": false,
      "inputs": [
        {
          "indexed": true,
          "internalType": "address",
          "name": "owner",
          "type": "address"
        },
        {
          "indexed": true,
          "internalType": "address",
          "name": "approved",
          "type": "address"
        },
        {
          "indexed": true,
          "internalType": "uint256",
          "name": "tokenId",
          "type": "uint256"
        }
      ],
      "name": "Approval",
      "type": "event"
    },
    {
      "anonymous": false,
      "inputs": [
        {
          "indexed": true,
          "internalType": "address",
          "name": "owner",
          "type": "address"
        },
        {
          "indexed": true,
          "internalType": "address",
          "name": "operator",
          "type": "address"
        },
        {
          "indexed": false,
          "internalType": "bool",
          "name": "approved",
          "type": "bool"
        }
      ],
      "name": "ApprovalForAll",
      "type": "event"
    },
    {
      "anonymous": false,
      "inputs": [
        {
          "indexed": true,
          "internalType": "address",
          "name": "previousOwner",
          "type": "address"
        },
        {
          "indexed": true,
          "internalType": "address",
          "name": "newOwner",
          "type": "address"
        }
      ],
      "name": "OwnershipTransferred",
      "type": "event"
    },
    {
      "anonymous": false,
      "inputs": [
        {
          "indexed": false,
          "internalType": "bytes32",
          "name": "role",
          "type": "bytes32"
        },
        {
          "indexed": false,
          "internalType": "address",
          "name": "account",
          "type": "address"
        },
        {
          "indexed": false,
          "internalType": "address",
          "name": "operator",
          "type": "address"
        }
      ],
      "name": "RoleGranted",
      "type": "event"
    },
    {
      "anonymous": false,
      "inputs": [
        {
          "indexed": false,
          "internalType": "bytes32",
          "name": "role",
          "type": "bytes32"
        },
        {
          "indexed": false,
          "internalType": "address",
          "name": "account",
          "type": "address"
        },
        {
          "indexed": false,
          "internalType": "address",
          "name": "operator",
          "type": "address"
        }
      ],
      "name": "RoleRevoked",
      "type": "event"
    },
    {
      "anonymous": false,
      "inputs": [
        {
          "indexed": true,
          "internalType": "address",
          "name": "from",
          "type": "address"
        },
        {
          "indexed": true,
          "internalType": "address",
          "name": "to",
          "type": "address"
        },
        {
          "indexed": true,
          "internalType": "uint256",
          "name": "tokenId",
          "type": "uint256"
        }
      ],
      "name": "Transfer",
      "type": "event"
    },
    {
      "inputs": [],
      "name": "MINTER_ROLE",
      "outputs": [
        {
          "internalType": "bytes32",
          "name": "",
          "type": "bytes32"
        }
      ],
      "stateMutability": "view",
      "type": "function"
    },
    {
      "inputs": [],
      "name": "ROYALTY_FEE_DENOMINATOR",
      "outputs": [
        {
          "internalType": "uint256",
          "name": "",
          "type": "uint256"
        }
      ],
      "stateMutability": "view",
      "type": "function"
    },
    {
      "inputs": [
        {
          "internalType": "address",
          "name": "to",
          "type": "address"
        },
        {
          "internalType": "uint256",
          "name": "tokenId",
          "type": "uint256"
        }
      ],
      "name": "approve",
      "outputs": [],
      "stateMutability": "nonpayable",
      "type": "function"
    },
    {
      "inputs": [
        {
          "internalType": "address",
          "name": "owner",
          "type": "address"
        }
      ],
      "name": "balanceOf",
      "outputs": [
        {
          "internalType": "uint256",
          "name": "balance",
          "type": "uint256"
        }
      ],
      "stateMutability": "view",
      "type": "function"
    },
    {
      "inputs": [
        {
          "internalType": "address",
          "name": "from",
          "type": "address"
        },
        {
          "internalType": "uint256[]",
          "name": "tokenIds",
          "type": "uint256[]"
        }
      ],
      "name": "batchBurnFrom",
      "outputs": [],
      "stateMutability": "nonpayable",
      "type": "function"
    },
    {
      "inputs": [
        {
          "internalType": "address",
          "name": "to",
          "type": "address"
        },
        {
          "internalType": "uint256[]",
          "name": "tokenIds",
          "type": "uint256[]"
        }
      ],
      "name": "batchMint",
      "outputs": [],
      "stateMutability": "nonpayable",
      "type": "function"
    },
    {
      "inputs": [
        {
          "internalType": "address",
          "name": "from",
          "type": "address"
        },
        {
          "internalType": "address",
          "name": "to",
          "type": "address"
        },
        {
          "internalType": "uint256[]",
          "name": "tokenIds",
          "type": "uint256[]"
        }
      ],
      "name": "batchTransferFrom",
      "outputs": [],
      "stateMutability": "nonpayable",
      "type": "function"
    },
    {
      "inputs": [
        {
          "internalType": "address",
          "name": "from",
          "type": "address"
        },
        {
          "internalType": "uint256",
          "name": "tokenId",
          "type": "uint256"
        }
      ],
      "name": "burnFrom",
      "outputs": [],
      "stateMutability": "nonpayable",
      "type": "function"
    },
    {
      "inputs": [
        {
          "internalType": "address[]",
          "name": "recipients",
          "type": "address[]"
        },
        {
          "internalType": "uint256[]",
          "name": "tokenIds",
          "type": "uint256[]"
        }
      ],
      "name": "deliver",
      "outputs": [],
      "stateMutability": "nonpayable",
      "type": "function"
    },
    {
      "inputs": [],
      "name": "forwarderRegistry",
      "outputs": [
        {
          "internalType": "contract IForwarderRegistry",
          "name": "",
          "type": "address"
        }
      ],
      "stateMutability": "view",
      "type": "function"
    },
    {
      "inputs": [
        {
          "internalType": "uint256",
          "name": "tokenId",
          "type": "uint256"
        }
      ],
      "name": "getApproved",
      "outputs": [
        {
          "internalType": "address",
          "name": "approved",
          "type": "address"
        }
      ],
      "stateMutability": "view",
      "type": "function"
    },
    {
      "inputs": [
        {
          "internalType": "bytes32",
          "name": "role",
          "type": "bytes32"
        },
        {
          "internalType": "address",
          "name": "account",
          "type": "address"
        }
      ],
      "name": "grantRole",
      "outputs": [],
      "stateMutability": "nonpayable",
      "type": "function"
    },
    {
      "inputs": [
        {
          "internalType": "bytes32",
          "name": "role",
          "type": "bytes32"
        },
        {
          "internalType": "address",
          "name": "account",
          "type": "address"
        }
      ],
      "name": "hasRole",
      "outputs": [
        {
          "internalType": "bool",
          "name": "hasRole_",
          "type": "bool"
        }
      ],
      "stateMutability": "view",
      "type": "function"
    },
    {
      "inputs": [
        {
          "internalType": "string",
          "name": "tokenName",
          "type": "string"
        },
        {
          "internalType": "string",
          "name": "tokenSymbol",
          "type": "string"
        },
        {
          "internalType": "contract ITokenMetadataResolver",
          "name": "metadataResolver",
          "type": "address"
        },
        {
          "internalType": "contract IOperatorFilterRegistry",
          "name": "filterRegistry",
          "type": "address"
        }
      ],
      "name": "init",
      "outputs": [],
      "stateMutability": "nonpayable",
      "type": "function"
    },
    {
      "inputs": [
        {
          "internalType": "address",
          "name": "owner",
          "type": "address"
        },
        {
          "internalType": "address",
          "name": "operator",
          "type": "address"
        }
      ],
      "name": "isApprovedForAll",
      "outputs": [
        {
          "internalType": "bool",
          "name": "approvedForAll",
          "type": "bool"
        }
      ],
      "stateMutability": "view",
      "type": "function"
    },
    {
      "inputs": [
        {
          "internalType": "address",
          "name": "forwarder",
          "type": "address"
        }
      ],
      "name": "isTrustedForwarder",
      "outputs": [
        {
          "internalType": "bool",
          "name": "",
          "type": "bool"
        }
      ],
      "stateMutability": "view",
      "type": "function"
    },
    {
      "inputs": [],
      "name": "metadataResolver",
      "outputs": [
        {
          "internalType": "contract ITokenMetadataResolver",
          "name": "tokenMetadataResolver",
          "type": "address"
        }
      ],
      "stateMutability": "view",
      "type": "function"
    },
    {
      "inputs": [
        {
          "internalType": "address",
          "name": "to",
          "type": "address"
        },
        {
          "internalType": "uint256",
          "name": "tokenId",
          "type": "uint256"
        }
      ],
      "name": "mint",
      "outputs": [],
      "stateMutability": "nonpayable",
      "type": "function"
    },
    {
      "inputs": [],
      "name": "name",
      "outputs": [
        {
          "internalType": "string",
          "name": "tokenName",
          "type": "string"
        }
      ],
      "stateMutability": "view",
      "type": "function"
    },
    {
      "inputs": [],
      "name": "operatorFilterRegistry",
      "outputs": [
        {
          "internalType": "contract IOperatorFilterRegistry",
          "name": "",
          "type": "address"
        }
      ],
      "stateMutability": "view",
      "type": "function"
    },
    {
      "inputs": [],
      "name": "owner",
      "outputs": [
        {
          "internalType": "address",
          "name": "",
          "type": "address"
        }
      ],
      "stateMutability": "view",
      "type": "function"
    },
    {
      "inputs": [
        {
          "internalType": "uint256",
          "name": "tokenId",
          "type": "uint256"
        }
      ],
      "name": "ownerOf",
      "outputs": [
        {
          "internalType": "address",
          "name": "tokenOwner",
          "type": "address"
        }
      ],
      "stateMutability": "view",
      "type": "function"
    },
    {
      "inputs": [
        {
          "internalType": "address[]",
          "name": "accounts",
          "type": "address[]"
        },
        {
          "internalType": "contract IERC20[]",
          "name": "tokens",
          "type": "address[]"
        },
        {
          "internalType": "uint256[]",
          "name": "amounts",
          "type": "uint256[]"
        }
      ],
      "name": "recoverERC20s",
      "outputs": [],
      "stateMutability": "nonpayable",
      "type": "function"
    },
    {
      "inputs": [
        {
          "internalType": "address[]",
          "name": "accounts",
          "type": "address[]"
        },
        {
          "internalType": "contract IERC721[]",
          "name": "contracts",
          "type": "address[]"
        },
        {
          "internalType": "uint256[]",
          "name": "tokenIds",
          "type": "uint256[]"
        }
      ],
      "name": "recoverERC721s",
      "outputs": [],
      "stateMutability": "nonpayable",
      "type": "function"
    },
    {
      "inputs": [
        {
          "internalType": "address payable[]",
          "name": "accounts",
          "type": "address[]"
        },
        {
          "internalType": "uint256[]",
          "name": "amounts",
          "type": "uint256[]"
        }
      ],
      "name": "recoverETH",
      "outputs": [],
      "stateMutability": "nonpayable",
      "type": "function"
    },
    {
      "inputs": [
        {
          "internalType": "bytes32",
          "name": "role",
          "type": "bytes32"
        }
      ],
      "name": "renounceRole",
      "outputs": [],
      "stateMutability": "nonpayable",
      "type": "function"
    },
    {
      "inputs": [
        {
          "internalType": "bytes32",
          "name": "role",
          "type": "bytes32"
        },
        {
          "internalType": "address",
          "name": "account",
          "type": "address"
        }
      ],
      "name": "revokeRole",
      "outputs": [],
      "stateMutability": "nonpayable",
      "type": "function"
    },
    {
      "inputs": [
        {
          "internalType": "uint256",
          "name": "tokenId",
          "type": "uint256"
        },
        {
          "internalType": "uint256",
          "name": "salePrice",
          "type": "uint256"
        }
      ],
      "name": "royaltyInfo",
      "outputs": [
        {
          "internalType": "address",
          "name": "receiver",
          "type": "address"
        },
        {
          "internalType": "uint256",
          "name": "royaltyAmount",
          "type": "uint256"
        }
      ],
      "stateMutability": "view",
      "type": "function"
    },
    {
      "inputs": [
        {
          "internalType": "address",
          "name": "to",
          "type": "address"
        },
        {
          "internalType": "uint256",
          "name": "tokenId",
          "type": "uint256"
        },
        {
          "internalType": "bytes",
          "name": "data",
          "type": "bytes"
        }
      ],
      "name": "safeMint",
      "outputs": [],
      "stateMutability": "nonpayable",
      "type": "function"
    },
    {
      "inputs": [
        {
          "internalType": "address",
          "name": "from",
          "type": "address"
        },
        {
          "internalType": "address",
          "name": "to",
          "type": "address"
        },
        {
          "internalType": "uint256",
          "name": "tokenId",
          "type": "uint256"
        }
      ],
      "name": "safeTransferFrom",
      "outputs": [],
      "stateMutability": "nonpayable",
      "type": "function"
    },
    {
      "inputs": [
        {
          "internalType": "address",
          "name": "from",
          "type": "address"
        },
        {
          "internalType": "address",
          "name": "to",
          "type": "address"
        },
        {
          "internalType": "uint256",
          "name": "tokenId",
          "type": "uint256"
        },
        {
          "internalType": "bytes",
          "name": "data",
          "type": "bytes"
        }
      ],
      "name": "safeTransferFrom",
      "outputs": [],
      "stateMutability": "nonpayable",
      "type": "function"
    },
    {
      "inputs": [
        {
          "internalType": "address",
          "name": "operator",
          "type": "address"
        },
        {
          "internalType": "bool",
          "name": "approved",
          "type": "bool"
        }
      ],
      "name": "setApprovalForAll",
      "outputs": [],
      "stateMutability": "nonpayable",
      "type": "function"
    },
    {
      "inputs": [
        {
          "internalType": "uint256",
          "name": "percentage",
          "type": "uint256"
        }
      ],
      "name": "setRoyaltyPercentage",
      "outputs": [],
      "stateMutability": "nonpayable",
      "type": "function"
    },
    {
      "inputs": [
        {
          "internalType": "address",
          "name": "receiver",
          "type": "address"
        }
      ],
      "name": "setRoyaltyReceiver",
      "outputs": [],
      "stateMutability": "nonpayable",
      "type": "function"
    },
    {
      "inputs": [
        {
          "internalType": "bytes4",
          "name": "interfaceId",
          "type": "bytes4"
        }
      ],
      "name": "supportsInterface",
      "outputs": [
        {
          "internalType": "bool",
          "name": "",
          "type": "bool"
        }
      ],
      "stateMutability": "view",
      "type": "function"
    },
    {
      "inputs": [],
      "name": "symbol",
      "outputs": [
        {
          "internalType": "string",
          "name": "tokenSymbol",
          "type": "string"
        }
      ],
      "stateMutability": "view",
      "type": "function"
    },
    {
      "inputs": [
        {
          "internalType": "uint256",
          "name": "tokenId",
          "type": "uint256"
        }
      ],
      "name": "tokenURI",
      "outputs": [
        {
          "internalType": "string",
          "name": "uri",
          "type": "string"
        }
      ],
      "stateMutability": "view",
      "type": "function"
    },
    {
      "inputs": [
        {
          "internalType": "address",
          "name": "from",
          "type": "address"
        },
        {
          "internalType": "address",
          "name": "to",
          "type": "address"
        },
        {
          "internalType": "uint256",
          "name": "tokenId",
          "type": "uint256"
        }
      ],
      "name": "transferFrom",
      "outputs": [],
      "stateMutability": "nonpayable",
      "type": "function"
    },
    {
      "inputs": [
        {
          "internalType": "address",
          "name": "newOwner",
          "type": "address"
        }
      ],
      "name": "transferOwnership",
      "outputs": [],
      "stateMutability": "nonpayable",
      "type": "function"
    },
    {
      "inputs": [
        {
          "internalType": "contract IOperatorFilterRegistry",
          "name": "registry",
          "type": "address"
        }
      ],
      "name": "updateOperatorFilterRegistry",
      "outputs": [],
      "stateMutability": "nonpayable",
      "type": "function"
    }
  ],
  "transactionHash": "0x1e66caf72227365f4649bb71190aa13ecb37863c8872edb8b39e457efecfae0c",
  "args": [
    "0x316a472D084489CB6d4C66e5eB62aE3AdA17521e"
  ],
  "numDeployments": 1,
  "solcInputHash": "84bab0eb3356c2e3bedca0f2f5a163c5",
  "bytecode": "0x60a060405234801561001057600080fd5b5060405161451438038061451483398101604081905261002f91610040565b6001600160a01b0316608052610070565b60006020828403121561005257600080fd5b81516001600160a01b038116811461006957600080fd5b9392505050565b6080516144746100a0600039600081816103d1015281816104510152818161337b015261340901526144746000f3fe608060405234801561001057600080fd5b50600436106102c85760003560e01c80638bb9c5bf1161017b578063c3666c36116100d8578063e985e9c51161008c578063f2fde38b11610071578063f2fde38b14610630578063f3993d1114610643578063f7ba94bd1461065657600080fd5b8063e985e9c51461060a578063f24729651461061d57600080fd5b8063d5391393116100bd578063d5391393146105c6578063d547741f146105ed578063e1a8bf2c1461060057600080fd5b8063c3666c36146105a0578063c87b56dd146105b357600080fd5b80639da5e8321161012f578063a22cb46511610114578063a22cb46514610572578063b0ccc31e14610585578063b88d4fde1461058d57600080fd5b80639da5e83214610557578063a0c76f621461056a57600080fd5b80638dc251e3116101605780638dc251e31461052957806391d148541461053c57806395d89b411461054f57600080fd5b80638bb9c5bf1461050e5780638da5cb5b1461052157600080fd5b806340c10f19116102295780636352211e116101dd57806373c8a958116101c257806373c8a958146104d557806379cc6790146104e85780638832e6e3146104fb57600080fd5b80636352211e146104a157806370a08231146104b457600080fd5b80634684d7e91161020e5780634684d7e91461042e578063572b6c051461044157806361ba27da1461048e57600080fd5b806340c10f191461040857806342842e0e1461041b57600080fd5b8063114ba8ee116102805780632a55205a116102655780632a55205a146103905780632b4c9f16146103cf5780632f2ff15d146103f557600080fd5b8063114ba8ee1461036a57806323b872dd1461037d57600080fd5b8063081812fc116102b1578063081812fc1461030a578063095ea7b3146103425780630e07f8541461035757600080fd5b806301ffc9a7146102cd57806306fdde03146102f5575b600080fd5b6102e06102db366004613a55565b610669565b60405190151581526020015b60405180910390f35b6102fd610683565b6040516102ec9190613ae0565b61031d610318366004613af3565b610692565b60405173ffffffffffffffffffffffffffffffffffffffff90911681526020016102ec565b610355610350366004613b2e565b6106a6565b005b610355610365366004613b9c565b6106f5565b610355610378366004613c36565b61077a565b61035561038b366004613c53565b6107e5565b6103a361039e366004613c94565b610823565b6040805173ffffffffffffffffffffffffffffffffffffffff90931683526020830191909152016102ec565b7f000000000000000000000000000000000000000000000000000000000000000061031d565b610355610403366004613cb6565b610846565b610355610416366004613b2e565b610879565b610355610429366004613c53565b6108c8565b61035561043c366004613d2b565b6108f9565b6102e061044f366004613c36565b7f000000000000000000000000000000000000000000000000000000000000000073ffffffffffffffffffffffffffffffffffffffff90811691161490565b61035561049c366004613af3565b61096d565b61031d6104af366004613af3565b61098a565b6104c76104c2366004613c36565b61099e565b6040519081526020016102ec565b6103556104e3366004613d80565b6109b2565b6103556104f6366004613b2e565b6109cb565b610355610509366004613e26565b6109e8565b61035561051c366004613af3565b610a6a565b61031d610a85565b610355610537366004613c36565b610aac565b6102e061054a366004613cb6565b610ac9565b6102fd610b14565b610355610565366004613e82565b610b1e565b61031d610bc2565b610355610580366004613ef5565b610bec565b61031d610c1b565b61035561059b366004613f23565b610c28565b6103556105ae366004613d80565b610c5d565b6102fd6105c1366004613af3565b610c76565b6104c77f6d696e746572000000000000000000000000000000000000000000000000000081565b6103556105fb366004613cb6565b610c99565b6104c7620186a081565b6102e0610618366004613f96565b610cc7565b61035561062b366004613d2b565b610d15565b61035561063e366004613c36565b610d34565b610355610651366004613fc4565b610d4f565b610355610664366004613e82565b610d89565b600061067d82610677610da0565b90610dce565b92915050565b606061068d610ea8565b905090565b600061067d826106a0610eba565b90610ee8565b73ffffffffffffffffffffffffffffffffffffffff8216156106d4576106d4826106ce610fa1565b90610fcf565b6106f16106df610fd9565b83836106e9610eba565b929190610fe3565b5050565b61070e610700610fd9565b61070861125e565b9061128c565b6107166112cb565b61071e611302565b610726611330565b61072e61135e565b61073661138c565b61073e6113ba565b6107466113e8565b6107608686868686610756611416565b9493929190611444565b6107728161076c610fa1565b906114de565b505050505050565b610793610785610fd9565b61078d61125e565b9061154e565b6107e28161079f610fa1565b9081547fffffffffffffffffffffffff00000000000000000000000000000000000000001673ffffffffffffffffffffffffffffffffffffffff91909116179055565b50565b60006107ef610fd9565b905061080581856107fe610fa1565b91906115b9565b61081d81858585610814610eba565b939291906115f6565b50505050565b60008061083a84846108336118d4565b9190611902565b915091505b9250929050565b6000610850610fd9565b905061085e8161078d61125e565b61087483838361086c6119ac565b9291906119da565b505050565b6108b47f6d696e74657200000000000000000000000000000000000000000000000000006108a5610fd9565b6108ad6119ac565b9190611ab0565b6106f182826108c1610eba565b9190611b36565b60006108d2610fd9565b90506108e181856107fe610fa1565b61081d818585856108f0610eba565b93929190611c50565b6109257f6d696e74657200000000000000000000000000000000000000000000000000006108a5610fd9565b610874838383808060200260200160405190810160405280939291908181526020018383602002808284376000920191909152506109669250610eba915050565b9190611c96565b610978610785610fd9565b6107e2816109846118d4565b90611e0e565b600061067d82610998610eba565b90611e94565b600061067d826109ac610eba565b90611efd565b6109bd610785610fd9565b610772868686868686611f79565b6106f16109d6610fd9565b83836109e0610eba565b929190612064565b610a147f6d696e74657200000000000000000000000000000000000000000000000000006108a5610fd9565b61081d610a1f610fd9565b858585858080601f016020809104026020016040519081016040528093929190818152602001838380828437600092019190915250610a619250610eba915050565b939291906122ae565b6107e2610a75610fd9565b82610a7e6119ac565b91906122e4565b600061068d610a9261125e565b5473ffffffffffffffffffffffffffffffffffffffff1690565b610ab7610785610fd9565b6107e281610ac36118d4565b90612388565b6000610b0d8383610ad86119ac565b60009283526020908152604080842073ffffffffffffffffffffffffffffffffffffffff909316845291905290205460ff1690565b9392505050565b606061068d6123d5565b610b4a7f6d696e74657200000000000000000000000000000000000000000000000000006108a5610fd9565b61081d84848080602002602001604051908101604052809392919081815260200183836020028082843760009201919091525050604080516020808802828101820190935287825290935087925086918291850190849080828437600092019190915250610bbb9250610eba915050565b91906123e7565b600061068d610bcf611416565b6002015473ffffffffffffffffffffffffffffffffffffffff1690565b8015610bfe57610bfe826106ce610fa1565b6106f1610c09610fd9565b8383610c13610eba565b92919061247d565b600061068d610a92610fa1565b6000610c32610fd9565b9050610c4181876107fe610fa1565b610772818787878787610c52610eba565b959493929190612595565b610c68610785610fd9565b61077286868686868661260b565b6060610c8482610998610eba565b5061067d3083610c92611416565b91906128a1565b6000610ca3610fd9565b9050610cb18161078d61125e565b610874838383610cbf6119ac565b929190612961565b6000610b0d8383610cd6610eba565b919073ffffffffffffffffffffffffffffffffffffffff9182166000908152600393909301602090815260408085209290931684525290205460ff1690565b610874610d20610fd9565b848484610d2b610eba565b93929190612a2b565b6107e2610d3f610fd9565b82610d4861125e565b9190612cb6565b6000610d59610fd9565b9050610d6881866107fe610fa1565b610d828186868686610d78610eba565b9493929190612dca565b5050505050565b610d94610785610fd9565b61081d848484846130cf565b60008061067d60017fca9d3e17f264b0f3984e2634e94adb37fa3e6a8103f06aeae6fa59e21c769f5e614040565b60007c01000000000000000000000000000000000000000000000000000000007fffffffff00000000000000000000000000000000000000000000000000000000831601610e1e5750600061067d565b7ffe003659000000000000000000000000000000000000000000000000000000007fffffffff00000000000000000000000000000000000000000000000000000000831601610e6f5750600161067d565b507fffffffff00000000000000000000000000000000000000000000000000000000166000908152602091909152604090205460ff1690565b606061068d610eb5611416565b61317b565b60008061067d60017fddf3ee18ae6d688373c219468f8be446e7ae82215f4779d821c7ea5e8c13c0c1614040565b60008181526020839052604081205473ffffffffffffffffffffffffffffffffffffffff8116610f4c576040517fdd560475000000000000000000000000000000000000000000000000000000008152600481018490526024015b60405180910390fd5b74010000000000000000000000000000000000000000811615610f97575050600081815260028301602052604090205473ffffffffffffffffffffffffffffffffffffffff1661067d565b600091505061067d565b60008061067d60017f609b85bcafa81ecfaf3ff62cdde2c6c9082a68dbe4922f07399c706bdeb7cd31614040565b6106f18282613211565b600061068d613338565b60008181526020859052604090205473ffffffffffffffffffffffffffffffffffffffff8116611042576040517fdd56047500000000000000000000000000000000000000000000000000000000815260048101839052602401610f43565b8073ffffffffffffffffffffffffffffffffffffffff808216908516036110ad576040517fb7fdc01000000000000000000000000000000000000000000000000000000000815273ffffffffffffffffffffffffffffffffffffffff82166004820152602401610f43565b6110b8868287613485565b611115576040517fc7563a1800000000000000000000000000000000000000000000000000000000815273ffffffffffffffffffffffffffffffffffffffff80871660048301528216602482015260448101849052606401610f43565b73ffffffffffffffffffffffffffffffffffffffff841661117a577401000000000000000000000000000000000000000082161561117557600083815260208790526040902073ffffffffffffffffffffffffffffffffffffffff821690555b6111fb565b7401000000000000000000000000000000000000000082178083146111ab5760008481526020889052604090208190555b506000838152600287016020526040902080547fffffffffffffffffffffffff00000000000000000000000000000000000000001673ffffffffffffffffffffffffffffffffffffffff86161790555b828473ffffffffffffffffffffffffffffffffffffffff168273ffffffffffffffffffffffffffffffffffffffff167f8c5be1e5ebec7d5bd14f71427d1e84f3dd0314c0f7b2291e5b200ac8c7c3b92560405160405180910390a4505050505050565b60008061067d60017fc9ed16f33ab3a66c84bfd83099ccb2a8845871e2e1c1928f63797152f0fd54cd614040565b6112c16112ba60017f5b388d90dc1312ba799f321972f13311234fa1163bcabec7cf66101c4876eb84614040565b60016134fa565b6106f18282613546565b6113007f80ac58cd0000000000000000000000000000000000000000000000000000000060016112f9610da0565b91906135fc565b565b6113007ff3993d110000000000000000000000000000000000000000000000000000000060016112f9610da0565b6113007f5b5e139f0000000000000000000000000000000000000000000000000000000060016112f9610da0565b6113007f8e773e130000000000000000000000000000000000000000000000000000000060016112f9610da0565b6113007f9da5e8320000000000000000000000000000000000000000000000000000000060016112f9610da0565b6113007f8b8b4ef50000000000000000000000000000000000000000000000000000000060016112f9610da0565b6113007f2a55205a0000000000000000000000000000000000000000000000000000000060016112f9610da0565b60008061067d60017f7ea68fd2dcf1c056b94db6a0a537aa80d26fa9ab1eacd85da1ba0b61b7e7a8a5614040565b6114726112ba60017f92f72593ca50a0096f68ee94e7000db40ed086164b695855e2250750b8bfaf59614040565b8561147e85878361411c565b506001860161148e83858361411c565b5060029590950180547fffffffffffffffffffffffff00000000000000000000000000000000000000001673ffffffffffffffffffffffffffffffffffffffff9096169590951790945550505050565b61150c6112ba60017f2f02d396cb1be29636682c8684200b30a98554d3b74293aa4495cb5e1d252f6e614040565b81547fffffffffffffffffffffffff00000000000000000000000000000000000000001673ffffffffffffffffffffffffffffffffffffffff91909116179055565b815473ffffffffffffffffffffffffffffffffffffffff8281169116146106f1576040517f2ef4875e00000000000000000000000000000000000000000000000000000000815273ffffffffffffffffffffffffffffffffffffffff82166004820152602401610f43565b8073ffffffffffffffffffffffffffffffffffffffff168273ffffffffffffffffffffffffffffffffffffffff1614610874576108748383613211565b73ffffffffffffffffffffffffffffffffffffffff8216611643576040517f86c8706700000000000000000000000000000000000000000000000000000000815260040160405180910390fd5b60008181526020869052604090205473ffffffffffffffffffffffffffffffffffffffff81166116a2576040517fdd56047500000000000000000000000000000000000000000000000000000000815260048101839052602401610f43565b73ffffffffffffffffffffffffffffffffffffffff84168173ffffffffffffffffffffffffffffffffffffffff1614611726576040517f14dbb53600000000000000000000000000000000000000000000000000000000815273ffffffffffffffffffffffffffffffffffffffff8516600482015260248101839052604401610f43565b611731868587613485565b6117e05774010000000000000000000000000000000000000000811615806117825750600082815260028701602052604090205473ffffffffffffffffffffffffffffffffffffffff868116911614155b156117e0576040517fa4a3018b00000000000000000000000000000000000000000000000000000000815273ffffffffffffffffffffffffffffffffffffffff80871660048301528516602482015260448101839052606401610f43565b600082815260208790526040902073ffffffffffffffffffffffffffffffffffffffff808516918290558516146118715773ffffffffffffffffffffffffffffffffffffffff80851660009081526001808901602052604080832080547fffffffffffffffffffffffffffffffffffffffffffffffffffffffffffffffff0190559286168252919020805490910190555b818373ffffffffffffffffffffffffffffffffffffffff168573ffffffffffffffffffffffffffffffffffffffff167fddf252ad1be2c89b69c2b068fc378daa952ba7f163c4a11628f55a4df523b3ef60405160405180910390a4505050505050565b60008061067d60017f2c0cf10337caabbd02dcf226f05f5fd19a0919a41a8df8958c39b80007826858614040565b825473ffffffffffffffffffffffffffffffffffffffff8116906000907401000000000000000000000000000000000000000090046bffffffffffffffffffffffff16831580611950575080155b1561195e57600091506119a3565b620186a084101561198857620186a06119778286614236565b611981919061424d565b91506119a3565b80611996620186a08661424d565b6119a09190614236565b91505b50935093915050565b60008061067d60017fc8827d3282af6f37b64c3e9e6f3ac9df286ab0bb0fccd6f8661bf19adb368b23614040565b60008381526020858152604080832073ffffffffffffffffffffffffffffffffffffffff8616845290915290205460ff1661081d5760008381526020858152604080832073ffffffffffffffffffffffffffffffffffffffff8681168086529184529382902080547fffffffffffffffffffffffffffffffffffffffffffffffffffffffffffffff00166001179055815187815292830152918316918101919091527f2f8788117e7eff1d82e926ec794901d17c78024a50270940304540a733656f0d906060015b60405180910390a150505050565b60008281526020848152604080832073ffffffffffffffffffffffffffffffffffffffff8516845290915290205460ff16610874576040517f7aa728820000000000000000000000000000000000000000000000000000000081526004810183905273ffffffffffffffffffffffffffffffffffffffff82166024820152604401610f43565b73ffffffffffffffffffffffffffffffffffffffff8216611b83576040517f7851b9cd00000000000000000000000000000000000000000000000000000000815260040160405180910390fd5b60008181526020849052604090205473ffffffffffffffffffffffffffffffffffffffff1615611be2576040517f753eceac00000000000000000000000000000000000000000000000000000000815260048101829052602401610f43565b60008181526020848152604080832073ffffffffffffffffffffffffffffffffffffffff86169081905580845260018088019093528184208054909301909255518392907fddf252ad1be2c89b69c2b068fc378daa952ba7f163c4a11628f55a4df523b3ef908290a4505050565b611c5d85858585856115f6565b73ffffffffffffffffffffffffffffffffffffffff82163b15610d8257610d8284848484604051806020016040528060008152506136d8565b73ffffffffffffffffffffffffffffffffffffffff8216611ce3576040517f7851b9cd00000000000000000000000000000000000000000000000000000000815260040160405180910390fd5b805160005b81811015611dd9576000838281518110611d0457611d04614288565b60200260200101519050611d428660000160008381526020019081526020016000205473ffffffffffffffffffffffffffffffffffffffff16151590565b15611d7c576040517f753eceac00000000000000000000000000000000000000000000000000000000815260048101829052602401610f43565b60008181526020879052604080822073ffffffffffffffffffffffffffffffffffffffff88169081905590518392907fddf252ad1be2c89b69c2b068fc378daa952ba7f163c4a11628f55a4df523b3ef908290a450600101611ce8565b5073ffffffffffffffffffffffffffffffffffffffff9092166000908152600190930160205250604090912080549091019055565b620186a0811115611e4e576040517fac04040800000000000000000000000000000000000000000000000000000000815260048101829052602401610f43565b81546bffffffffffffffffffffffff909116740100000000000000000000000000000000000000000273ffffffffffffffffffffffffffffffffffffffff909116179055565b60008181526020839052604081205473ffffffffffffffffffffffffffffffffffffffff8116611ef3576040517fdd56047500000000000000000000000000000000000000000000000000000000815260048101849052602401610f43565b805b949350505050565b600073ffffffffffffffffffffffffffffffffffffffff8216611f4c576040517faefbce4e00000000000000000000000000000000000000000000000000000000815260040160405180910390fd5b5073ffffffffffffffffffffffffffffffffffffffff166000908152600191909101602052604090205490565b848381141580611f895750808214155b15611fc0576040517f6582533600000000000000000000000000000000000000000000000000000000815260040160405180910390fd5b60005b8181101561205a57612052888883818110611fe057611fe0614288565b9050602002016020810190611ff59190613c36565b85858481811061200757612007614288565b9050602002013588888581811061202057612020614288565b90506020020160208101906120359190613c36565b73ffffffffffffffffffffffffffffffffffffffff1691906137ed565b600101611fc3565b5050505050505050565b60008181526020859052604090205473ffffffffffffffffffffffffffffffffffffffff81166120c3576040517fdd56047500000000000000000000000000000000000000000000000000000000815260048101839052602401610f43565b73ffffffffffffffffffffffffffffffffffffffff83168173ffffffffffffffffffffffffffffffffffffffff1614612147576040517f14dbb53600000000000000000000000000000000000000000000000000000000815273ffffffffffffffffffffffffffffffffffffffff8416600482015260248101839052604401610f43565b612152858486613485565b6122015774010000000000000000000000000000000000000000811615806121a35750600082815260028601602052604090205473ffffffffffffffffffffffffffffffffffffffff858116911614155b15612201576040517fa4a3018b00000000000000000000000000000000000000000000000000000000815273ffffffffffffffffffffffffffffffffffffffff80861660048301528416602482015260448101839052606401610f43565b6000828152602086815260408083207fdead000000000000000000000000000000000000000000000000000000000000905573ffffffffffffffffffffffffffffffffffffffff86168084526001890190925280832080547fffffffffffffffffffffffffffffffffffffffffffffffffffffffffffffffff01905551849291907fddf252ad1be2c89b69c2b068fc378daa952ba7f163c4a11628f55a4df523b3ef908390a45050505050565b6122b9858484611b36565b73ffffffffffffffffffffffffffffffffffffffff83163b15610d8257610d828460008585856136d8565b6122ef838284611ab0565b60008181526020848152604080832073ffffffffffffffffffffffffffffffffffffffff86168085529083529281902080547fffffffffffffffffffffffffffffffffffffffffffffffffffffffffffffff0016905580518481529182018390528101919091527ff6391f5c32d9c69d2a47ea670b442974b53935d1edc7fd64eb21e047a839171b9060600160405180910390a1505050565b73ffffffffffffffffffffffffffffffffffffffff811661150c576040517f16de0c8000000000000000000000000000000000000000000000000000000000815260040160405180910390fd5b606061068d6123e2611416565b61387a565b815181518114612423576040517f6582533600000000000000000000000000000000000000000000000000000000815260040160405180910390fd5b60005b81811015610d825761247584828151811061244357612443614288565b602002602001015184838151811061245d5761245d614288565b602002602001015187611b369092919063ffffffff16565b600101612426565b8273ffffffffffffffffffffffffffffffffffffffff168273ffffffffffffffffffffffffffffffffffffffff16036124fa576040517fe4215c6a00000000000000000000000000000000000000000000000000000000815273ffffffffffffffffffffffffffffffffffffffff84166004820152602401610f43565b73ffffffffffffffffffffffffffffffffffffffff838116600081815260038701602090815260408083209487168084529482529182902080547fffffffffffffffffffffffffffffffffffffffffffffffffffffffffffffff001686151590811790915591519182527f17307eab39ab6107e8899845ad3d59bd9653f200f220920489ca2b5937696c31910160405180910390a350505050565b6125a287878787876115f6565b73ffffffffffffffffffffffffffffffffffffffff84163b15612602576126028686868686868080601f0160208091040260200160405190810160405280939291908181526020018383808284376000920191909152506136d892505050565b50505050505050565b84838114158061261b5750808214155b15612652576040517f6582533600000000000000000000000000000000000000000000000000000000815260040160405180910390fd5b60005b8181101561205a57600086868381811061267157612671614288565b90506020020160208101906126869190613c36565b6040517f01ffc9a70000000000000000000000000000000000000000000000000000000081527f80ac58cd00000000000000000000000000000000000000000000000000000000600482015290915073ffffffffffffffffffffffffffffffffffffffff8216906301ffc9a790602401602060405180830381865afa158015612713573d6000803e3d6000fd5b505050506040513d601f19601f8201168201806040525081019061273791906142b7565b612785576040517f986b9f1f00000000000000000000000000000000000000000000000000000000815273ffffffffffffffffffffffffffffffffffffffff82166004820152602401610f43565b86868381811061279757612797614288565b90506020020160208101906127ac9190613c36565b73ffffffffffffffffffffffffffffffffffffffff166342842e0e308b8b868181106127da576127da614288565b90506020020160208101906127ef9190613c36565b88888781811061280157612801614288565b6040517fffffffff0000000000000000000000000000000000000000000000000000000060e088901b16815273ffffffffffffffffffffffffffffffffffffffff958616600482015294909316602485015250602090910201356044820152606401600060405180830381600087803b15801561287d57600080fd5b505af1158015612891573d6000803e3d6000fd5b5050505050806001019050612655565b60028301546040517ff724dad700000000000000000000000000000000000000000000000000000000815273ffffffffffffffffffffffffffffffffffffffff848116600483015260248201849052606092169063f724dad790604401600060405180830381865afa15801561291b573d6000803e3d6000fd5b505050506040513d6000823e601f3d9081017fffffffffffffffffffffffffffffffffffffffffffffffffffffffffffffffe0168201604052611ef591908101906142d4565b60008381526020858152604080832073ffffffffffffffffffffffffffffffffffffffff8616845290915290205460ff161561081d5760008381526020858152604080832073ffffffffffffffffffffffffffffffffffffffff8681168086529184529382902080547fffffffffffffffffffffffffffffffffffffffffffffffffffffffffffffff00169055815187815292830152918316918101919091527ff6391f5c32d9c69d2a47ea670b442974b53935d1edc7fd64eb21e047a839171b90606001611aa2565b6000612a38868587613485565b90508160005b81811015612c78576000858583818110612a5a57612a5a614288565b602090810292909201356000818152928c90526040909220549192505073ffffffffffffffffffffffffffffffffffffffff8116612ac7576040517fdd56047500000000000000000000000000000000000000000000000000000000815260048101839052602401610f43565b73ffffffffffffffffffffffffffffffffffffffff88168173ffffffffffffffffffffffffffffffffffffffff1614612b4b576040517f14dbb53600000000000000000000000000000000000000000000000000000000815273ffffffffffffffffffffffffffffffffffffffff8916600482015260248101839052604401610f43565b84612bfb577401000000000000000000000000000000000000000081161580612b9d5750600082815260028b01602052604090205473ffffffffffffffffffffffffffffffffffffffff8a8116911614155b15612bfb576040517fa4a3018b00000000000000000000000000000000000000000000000000000000815273ffffffffffffffffffffffffffffffffffffffff808b1660048301528916602482015260448101839052606401610f43565b600082815260208b905260408082207fdead00000000000000000000000000000000000000000000000000000000000090555183919073ffffffffffffffffffffffffffffffffffffffff8b16907fddf252ad1be2c89b69c2b068fc378daa952ba7f163c4a11628f55a4df523b3ef908390a45050600101612a3e565b5080156126025773ffffffffffffffffffffffffffffffffffffffff8516600090815260018801602052604090208054829003905550505050505050565b825473ffffffffffffffffffffffffffffffffffffffff9081169083168114612d23576040517f2ef4875e00000000000000000000000000000000000000000000000000000000815273ffffffffffffffffffffffffffffffffffffffff84166004820152602401610f43565b8173ffffffffffffffffffffffffffffffffffffffff168173ffffffffffffffffffffffffffffffffffffffff161461081d5783547fffffffffffffffffffffffff00000000000000000000000000000000000000001673ffffffffffffffffffffffffffffffffffffffff8381169182178655604051908316907f8be0079c531659141344cd1fd0a4f28419497f9722a3daafe3b4186f6b6457e090600090a350505050565b73ffffffffffffffffffffffffffffffffffffffff8316612e17576040517f86c8706700000000000000000000000000000000000000000000000000000000815260040160405180910390fd5b6000612e24878688613485565b90508160005b81811015613048576000858583818110612e4657612e46614288565b602090810292909201356000818152928d90526040909220549192505073ffffffffffffffffffffffffffffffffffffffff8116612eb3576040517fdd56047500000000000000000000000000000000000000000000000000000000815260048101839052602401610f43565b73ffffffffffffffffffffffffffffffffffffffff89168173ffffffffffffffffffffffffffffffffffffffff1614612f37576040517f14dbb53600000000000000000000000000000000000000000000000000000000815273ffffffffffffffffffffffffffffffffffffffff8a16600482015260248101839052604401610f43565b84612fe7577401000000000000000000000000000000000000000081161580612f895750600082815260028c01602052604090205473ffffffffffffffffffffffffffffffffffffffff8b8116911614155b15612fe7576040517fa4a3018b00000000000000000000000000000000000000000000000000000000815273ffffffffffffffffffffffffffffffffffffffff808c1660048301528a16602482015260448101839052606401610f43565b600082815260208c9052604080822073ffffffffffffffffffffffffffffffffffffffff808c16918290559151859391928d16917fddf252ad1be2c89b69c2b068fc378daa952ba7f163c4a11628f55a4df523b3ef91a45050600101612e2a565b508473ffffffffffffffffffffffffffffffffffffffff168673ffffffffffffffffffffffffffffffffffffffff161415801561308457508015155b1561205a5773ffffffffffffffffffffffffffffffffffffffff808716600090815260018a016020526040808220805485900390559187168152208054820190555050505050505050565b82818114613109576040517f6582533600000000000000000000000000000000000000000000000000000000815260040160405180910390fd5b60005b818110156107725761317384848381811061312957613129614288565b9050602002013587878481811061314257613142614288565b90506020020160208101906131579190613c36565b73ffffffffffffffffffffffffffffffffffffffff169061388b565b60010161310c565b606081600001805461318c90614082565b80601f01602080910402602001604051908101604052809291908181526020018280546131b890614082565b80156132055780601f106131da57610100808354040283529160200191613205565b820191906000526020600020905b8154815290600101906020018083116131e857829003601f168201915b50505050509050919050565b815473ffffffffffffffffffffffffffffffffffffffff16801580159061324f575060008173ffffffffffffffffffffffffffffffffffffffff163b115b15610874576040517fc617113400000000000000000000000000000000000000000000000000000000815230600482015273ffffffffffffffffffffffffffffffffffffffff838116602483015282169063c617113490604401602060405180830381865afa1580156132c6573d6000803e3d6000fd5b505050506040513d601f19601f820116820180604052508101906132ea91906142b7565b610874576040517fede71dcc00000000000000000000000000000000000000000000000000000000815273ffffffffffffffffffffffffffffffffffffffff83166004820152602401610f43565b6000333214806133485750601836105b1561335257503390565b7fffffffffffffffffffffffffffffffffffffffffffffffffffffffffffffffec36013560601c7f000000000000000000000000000000000000000000000000000000000000000073ffffffffffffffffffffffffffffffffffffffff1633148061347457506040517f019a202800000000000000000000000000000000000000000000000000000000815273ffffffffffffffffffffffffffffffffffffffff82811660048301523360248301523060448301527f0000000000000000000000000000000000000000000000000000000000000000169063019a202890606401602060405180830381865afa158015613450573d6000803e3d6000fd5b505050506040513d601f19601f8201168201806040525081019061347491906142b7565b1561347e57919050565b3391505090565b60008173ffffffffffffffffffffffffffffffffffffffff168373ffffffffffffffffffffffffffffffffffffffff161480611ef557505073ffffffffffffffffffffffffffffffffffffffff9182166000908152600393909301602090815260408085209290931684525290205460ff1690565b81548290828110613541576040517fbf0c18ec0000000000000000000000000000000000000000000000000000000081526004810182905260248101849052604401610f43565b505550565b73ffffffffffffffffffffffffffffffffffffffff8116156135ce5781547fffffffffffffffffffffffff00000000000000000000000000000000000000001673ffffffffffffffffffffffffffffffffffffffff821690811783556040516000907f8be0079c531659141344cd1fd0a4f28419497f9722a3daafe3b4186f6b6457e0908290a35b6106f17f7f5828d00000000000000000000000000000000000000000000000000000000060016112f9610da0565b7c01000000000000000000000000000000000000000000000000000000007fffffffff00000000000000000000000000000000000000000000000000000000831601613674576040517f72c683bb00000000000000000000000000000000000000000000000000000000815260040160405180910390fd5b7fffffffff00000000000000000000000000000000000000000000000000000000919091166000908152602092909252604090912080547fffffffffffffffffffffffffffffffffffffffffffffffffffffffffffffff0016911515919091179055565b6040517f150b7a02000000000000000000000000000000000000000000000000000000008082529073ffffffffffffffffffffffffffffffffffffffff85169063150b7a02906137329089908990889088906004016143c6565b6020604051808303816000875af1158015613751573d6000803e3d6000fd5b505050506040513d601f19601f820116820180604052508101906137759190614421565b7fffffffff000000000000000000000000000000000000000000000000000000001614610d82576040517fc215a7a100000000000000000000000000000000000000000000000000000000815273ffffffffffffffffffffffffffffffffffffffff8416600482015260248101839052604401610f43565b6040805173ffffffffffffffffffffffffffffffffffffffff8416602482015260448082018490528251808303909101815260649091019091526020810180517bffffffffffffffffffffffffffffffffffffffffffffffffffffffff167fa9059cbb00000000000000000000000000000000000000000000000000000000179052610874908490613941565b606081600101805461318c90614082565b804710156138ce576040517fcf47918100000000000000000000000000000000000000000000000000000000815247600482015260248101829052604401610f43565b6000808373ffffffffffffffffffffffffffffffffffffffff168360405160006040518083038185875af1925050503d8060008114613929576040519150601f19603f3d011682016040523d82523d6000602084013e61392e565b606091505b50915091508161081d5761081d816139e5565b600080602060008451602086016000885af180613964576040513d6000823e3d81fd5b50506000513d9150811561397c578060011415613996565b73ffffffffffffffffffffffffffffffffffffffff84163b155b1561081d576040517f5274afe700000000000000000000000000000000000000000000000000000000815273ffffffffffffffffffffffffffffffffffffffff85166004820152602401610f43565b8051156139f55780518082602001fd5b6040517fd6bda27500000000000000000000000000000000000000000000000000000000815260040160405180910390fd5b7fffffffff00000000000000000000000000000000000000000000000000000000811681146107e257600080fd5b600060208284031215613a6757600080fd5b8135610b0d81613a27565b60005b83811015613a8d578181015183820152602001613a75565b50506000910152565b60008151808452613aae816020860160208601613a72565b601f017fffffffffffffffffffffffffffffffffffffffffffffffffffffffffffffffe0169290920160200192915050565b602081526000610b0d6020830184613a96565b600060208284031215613b0557600080fd5b5035919050565b73ffffffffffffffffffffffffffffffffffffffff811681146107e257600080fd5b60008060408385031215613b4157600080fd5b8235613b4c81613b0c565b946020939093013593505050565b60008083601f840112613b6c57600080fd5b50813567ffffffffffffffff811115613b8457600080fd5b60208301915083602082850101111561083f57600080fd5b60008060008060008060808789031215613bb557600080fd5b863567ffffffffffffffff811115613bcc57600080fd5b613bd889828a01613b5a565b909750955050602087013567ffffffffffffffff811115613bf857600080fd5b613c0489828a01613b5a565b9095509350506040870135613c1881613b0c565b91506060870135613c2881613b0c565b809150509295509295509295565b600060208284031215613c4857600080fd5b8135610b0d81613b0c565b600080600060608486031215613c6857600080fd5b8335613c7381613b0c565b92506020840135613c8381613b0c565b929592945050506040919091013590565b60008060408385031215613ca757600080fd5b50508035926020909101359150565b60008060408385031215613cc957600080fd5b823591506020830135613cdb81613b0c565b809150509250929050565b60008083601f840112613cf857600080fd5b50813567ffffffffffffffff811115613d1057600080fd5b6020830191508360208260051b850101111561083f57600080fd5b600080600060408486031215613d4057600080fd5b8335613d4b81613b0c565b9250602084013567ffffffffffffffff811115613d6757600080fd5b613d7386828701613ce6565b9497909650939450505050565b60008060008060008060608789031215613d9957600080fd5b863567ffffffffffffffff811115613db057600080fd5b613dbc89828a01613ce6565b909750955050602087013567ffffffffffffffff811115613ddc57600080fd5b613de889828a01613ce6565b909550935050604087013567ffffffffffffffff811115613e0857600080fd5b613e1489828a01613ce6565b979a9699509497509295939492505050565b60008060008060608587031215613e3c57600080fd5b8435613e4781613b0c565b935060208501359250604085013567ffffffffffffffff811115613e6a57600080fd5b613e7687828801613b5a565b95989497509550505050565b60008060008060408587031215613e9857600080fd5b843567ffffffffffffffff811115613eaf57600080fd5b613ebb87828801613ce6565b909550935050602085013567ffffffffffffffff811115613edb57600080fd5b613e7687828801613ce6565b80151581146107e257600080fd5b60008060408385031215613f0857600080fd5b8235613f1381613b0c565b91506020830135613cdb81613ee7565b600080600080600060808688031215613f3b57600080fd5b8535613f4681613b0c565b94506020860135613f5681613b0c565b935060408601359250606086013567ffffffffffffffff811115613f7957600080fd5b613f8588828901613b5a565b969995985093965092949392505050565b60008060408385031215613fa957600080fd5b8235613fb481613b0c565b91506020830135613cdb81613b0c565b60008060008060608587031215613fda57600080fd5b8435613fe581613b0c565b93506020850135613ff581613b0c565b9250604085013567ffffffffffffffff811115613edb57600080fd5b7f4e487b7100000000000000000000000000000000000000000000000000000000600052601160045260246000fd5b8181038181111561067d5761067d614011565b7f4e487b7100000000000000000000000000000000000000000000000000000000600052604160045260246000fd5b600181811c9082168061409657607f821691505b6020821081036140cf577f4e487b7100000000000000000000000000000000000000000000000000000000600052602260045260246000fd5b50919050565b601f82111561087457806000526020600020601f840160051c810160208510156140fc5750805b601f840160051c820191505b81811015610d825760008155600101614108565b67ffffffffffffffff83111561413457614134614053565b614148836141428354614082565b836140d5565b6000601f84116001811461419a57600085156141645750838201355b7fffffffffffffffffffffffffffffffffffffffffffffffffffffffffffffffff600387901b1c1916600186901b178355610d82565b6000838152602090207fffffffffffffffffffffffffffffffffffffffffffffffffffffffffffffffe0861690835b828110156141e957868501358255602094850194600190920191016141c9565b5086821015614224577fffffffffffffffffffffffffffffffffffffffffffffffffffffffffffffffff60f88860031b161c19848701351681555b505060018560011b0183555050505050565b808202811582820484141761067d5761067d614011565b600082614283577f4e487b7100000000000000000000000000000000000000000000000000000000600052601260045260246000fd5b500490565b7f4e487b7100000000000000000000000000000000000000000000000000000000600052603260045260246000fd5b6000602082840312156142c957600080fd5b8151610b0d81613ee7565b6000602082840312156142e657600080fd5b815167ffffffffffffffff8111156142fd57600080fd5b8201601f8101841361430e57600080fd5b805167ffffffffffffffff81111561432857614328614053565b6040517fffffffffffffffffffffffffffffffffffffffffffffffffffffffffffffffe0603f7fffffffffffffffffffffffffffffffffffffffffffffffffffffffffffffffe0601f8501160116810181811067ffffffffffffffff8211171561439457614394614053565b6040528181528282016020018610156143ac57600080fd5b6143bd826020830160208601613a72565b95945050505050565b73ffffffffffffffffffffffffffffffffffffffff8516815273ffffffffffffffffffffffffffffffffffffffff841660208201528260408201526080606082015260006144176080830184613a96565b9695505050505050565b60006020828403121561443357600080fd5b8151610b0d81613a2756fea2646970667358221220880b95e0681c99e69820e32adb217b9185a24af85bdc40b368a6e74fcb90508e64736f6c634300081c0033",
  "devdoc": {
    "errors": {
      "ERC2981IncorrectRoyaltyPercentage(uint256)": [
        {
          "params": {
            "percentage": "The royalty percentage that was attempted to be set."
          }
        }
      ],
      "ERC721ExistingToken(uint256)": [
        {
          "params": {
            "tokenId": "The identifier of the token that already exists."
          }
        }
      ],
      "ERC721NonApprovedForApproval(address,address,uint256)": [
        {
          "params": {
            "sender": "The message sender.",
            "tokenId": "The identifier of the token."
          }
        }
      ],
      "ERC721NonApprovedForTransfer(address,address,uint256)": [
        {
          "params": {
            "sender": "The message sender.",
            "tokenId": "The identifier of the token."
          }
        }
      ],
      "ERC721NonExistingToken(uint256)": [
        {
          "params": {
            "tokenId": "The identifier of the token that was checked."
          }
        }
      ],
      "ERC721NonOwnedToken(address,uint256)": [
        {
          "params": {
            "account": "The account that was expected to own the token.",
            "tokenId": "The identifier of the token."
          }
        }
      ],
      "ERC721SafeTransferRejected(address,uint256)": [
        {
          "params": {
            "recipient": "The recipient contract.",
            "tokenId": "The identifier of the token."
          }
        }
      ],
      "ERC721SelfApproval(address)": [
        {
          "params": {
            "account": "The account trying to approve itself."
          }
        }
      ],
      "ERC721SelfApprovalForAll(address)": [
        {
          "params": {
            "account": "The account trying to approveForAll itself."
          }
        }
      ],
      "FailedCall()": [
        {
          "details": "A call to an address target failed. The target may have reverted."
        }
      ],
      "IncorrectTokenContractType(address)": [
        {
          "params": {
            "tokenContract": "The token contract being recovered."
          }
        }
      ],
      "InitializationPhaseAlreadyReached(uint256,uint256)": [
        {
          "params": {
            "currentPhase": "The current phase.",
            "newPhase": "The new phase trying to be set."
          }
        }
      ],
      "InsufficientBalance(uint256,uint256)": [
        {
          "details": "The ETH balance of the account is not enough to perform the operation."
        }
      ],
      "NotContractOwner(address)": [
        {
          "params": {
            "account": "The account that was checked."
          }
        }
      ],
      "NotRoleHolder(bytes32,address)": [
        {
          "params": {
            "account": "The account that was checked.",
            "role": "The role the caller is missing."
          }
        }
      ],
      "OperatorNotAllowed(address)": [
        {
          "params": {
            "operator": "The address that is not authorized."
          }
        }
      ],
      "SafeERC20FailedOperation(address)": [
        {
          "details": "An operation with an ERC-20 token failed."
        }
      ]
    },
    "events": {
      "Approval(address,address,uint256)": {
        "params": {
          "approved": "The approved address.",
          "owner": "The token owner.",
          "tokenId": "The approved token identifier."
        }
      },
      "ApprovalForAll(address,address,bool)": {
        "params": {
          "approved": "True when then approval is set, false when it is unset.",
          "operator": "The approved address.",
          "owner": "The tokens owner."
        }
      },
      "OwnershipTransferred(address,address)": {
        "params": {
          "newOwner": "the new contract owner.",
          "previousOwner": "the previous contract owner."
        }
      },
      "RoleGranted(bytes32,address,address)": {
        "params": {
          "account": "The account that has been granted the role.",
          "operator": "The account that granted the role.",
          "role": "The role that has been granted."
        }
      },
      "RoleRevoked(bytes32,address,address)": {
        "params": {
          "account": "The account that has been revoked the role.",
          "operator": "The account that revoked the role.",
          "role": "The role that has been revoked."
        }
      },
      "Transfer(address,address,uint256)": {
        "params": {
          "from": "The previous token owner.",
          "to": "The new token owner.",
          "tokenId": "The transferred token identifier."
        }
      }
    },
    "kind": "dev",
    "methods": {
      "approve(address,uint256)": {
        "details": "Reverts with {OperatorNotAllowed} if `to` is not the zero address and is not allowed by the operator registry.",
        "params": {
          "to": "The address to approve, or the zero address to remove any existing approval.",
          "tokenId": "The token identifier to give approval for."
        }
      },
      "balanceOf(address)": {
        "details": "Reverts if `owner` is the zero address.",
        "params": {
          "owner": "The address to query the balance of."
        },
        "returns": {
          "balance": "The amount owned by the owner."
        }
      },
      "batchBurnFrom(address,uint256[])": {
        "details": "Reverts if one of `tokenIds` is not owned by `from`.Reverts if the sender is not `from` and has not been approved by `from` for each of `tokenIds`.Emits an {IERC721-Transfer} event with `to` set to the zero address for each of `tokenIds`.",
        "params": {
          "from": "The current tokens owner.",
          "tokenIds": "The identifiers of the tokens to burn."
        }
      },
      "batchMint(address,uint256[])": {
        "details": "Reverts with {NotRoleHolder} if the sender does not have the 'minter' role.",
        "params": {
          "to": "Address of the new tokens owner.",
          "tokenIds": "Identifiers of the tokens to mint."
        }
      },
      "batchTransferFrom(address,address,uint256[])": {
        "details": "Reverts with OperatorNotAllowed if the sender is not `from` and is not allowed by the operator registry.",
        "params": {
          "from": "Current tokens owner.",
          "to": "Address of the new token owner.",
          "tokenIds": "Identifiers of the tokens to transfer."
        }
      },
      "burnFrom(address,uint256)": {
        "details": "Reverts if `tokenId` is not owned by `from`.Reverts if the sender is not `from` and has not been approved by `from` for `tokenId`.Emits an {IERC721-Transfer} event with `to` set to the zero address.",
        "params": {
          "from": "The current token owner.",
          "tokenId": "The identifier of the token to burn."
        }
      },
      "deliver(address[],uint256[])": {
        "details": "Reverts with {NotRoleHolder} if the sender does not have the 'minter' role.",
        "params": {
          "recipients": "Addresses of the new tokens owners.",
          "tokenIds": "Identifiers of the tokens to mint."
        }
      },
      "getApproved(uint256)": {
        "details": "Reverts if `tokenId` does not exist.",
        "params": {
          "tokenId": "The token identifier to query the approval of."
        },
        "returns": {
          "approved": "The approved address for the token identifier, or the zero address if no approval is set."
        }
      },
      "grantRole(bytes32,address)": {
        "details": "Reverts with {NotContractOwner} if the sender is not the contract owner.Emits a {RoleGranted} event if the account did not previously have the role.",
        "params": {
          "account": "The account to grant the role to.",
          "role": "The role to grant."
        }
      },
      "hasRole(bytes32,address)": {
        "params": {
          "account": "The account.",
          "role": "The role."
        },
        "returns": {
          "hasRole_": "Whether `account` has `role`."
        }
      },
      "isApprovedForAll(address,address)": {
        "params": {
          "operator": "The address which receives the approval for all tokens.",
          "owner": "The address which gives the approval for all tokens."
        },
        "returns": {
          "approvedForAll": "Whether the operator is approved for all tokens by the owner."
        }
      },
      "isTrustedForwarder(address)": {
        "params": {
          "forwarder": "The forwarder to check."
        },
        "returns": {
          "_0": "True if `forwarder` is trusted, false if not."
        }
      },
      "metadataResolver()": {
        "returns": {
          "tokenMetadataResolver": "The token metadata resolver address."
        }
      },
      "mint(address,uint256)": {
        "details": "Reverts with {NotRoleHolder} if the sender does not have the 'minter' role.",
        "params": {
          "to": "Address of the new token owner.",
          "tokenId": "Identifier of the token to mint."
        }
      },
      "name()": {
        "returns": {
          "tokenName": "The name of the token."
        }
      },
      "owner()": {
        "returns": {
          "_0": "The address of the contract owner."
        }
      },
      "ownerOf(uint256)": {
        "details": "Reverts if `tokenId` does not exist.",
        "params": {
          "tokenId": "The token identifier to query the owner of."
        },
        "returns": {
          "tokenOwner": "The owner of the token identifier."
        }
      },
      "recoverERC20s(address[],address[],uint256[])": {
        "details": "Reverts with {NotContractOwner} if the sender is not the contract owner.Reverts with {InconsistentArrayLengths} if `accounts`, `tokens` and `amounts` do not have the same length.Reverts if one of the ERC20 transfers fails for any reason.",
        "params": {
          "accounts": "the list of accounts to transfer the tokens to.",
          "amounts": "the list of token amounts to transfer.",
          "tokens": "the list of ERC20 token addresses."
        }
      },
      "recoverERC721s(address[],address[],uint256[])": {
        "details": "Reverts with {NotContractOwner} if the sender is not the contract owner.Reverts with {InconsistentArrayLengths} if `accounts`, `contracts` and `amounts` do not have the same length.Reverts if one of the ERC721 transfers fails for any reason.",
        "params": {
          "accounts": "the list of accounts to transfer the tokens to.",
          "contracts": "the list of ERC721 contract addresses.",
          "tokenIds": "the list of token ids to transfer."
        }
      },
      "recoverETH(address[],uint256[])": {
        "details": "Reverts with {NotContractOwner} if the sender is not the contract owner.Reverts with {InconsistentArrayLengths} `accounts` and `amounts` do not have the same length.Reverts if one of the ETH transfers fails for any reason.",
        "params": {
          "accounts": "the list of accounts to transfer the tokens to.",
          "amounts": "the list of token amounts to transfer."
        }
      },
      "renounceRole(bytes32)": {
        "details": "Reverts if `sender` does not have `role`.Emits a {RoleRevoked} event.",
        "params": {
          "role": "The role to renounce."
        }
      },
      "revokeRole(bytes32,address)": {
        "details": "Reverts with {NotContractOwner} if the sender is not the contract owner.Emits a {RoleRevoked} event if the account previously had the role.",
        "params": {
          "account": "The account to revoke the role from.",
          "role": "The role to revoke."
        }
      },
      "royaltyInfo(uint256,uint256)": {
        "params": {
          "salePrice": "The sale price of the NFT asset specified by `tokenId`",
          "tokenId": "The NFT asset queried for royalty information"
        },
        "returns": {
          "receiver": "Address of who should be sent the royalty payment",
          "royaltyAmount": "The royalty payment amount for `salePrice`"
        }
      },
      "safeMint(address,uint256,bytes)": {
        "details": "Reverts with {NotRoleHolder} if the sender does not have the 'minter' role.",
        "params": {
          "data": "Optional data to pass along to the receiver call.",
          "to": "Address of the new token owner.",
          "tokenId": "Identifier of the token to mint."
        }
      },
      "safeTransferFrom(address,address,uint256)": {
        "details": "Reverts with {OperatorNotAllowed} if the sender is not `from` and is not allowed by the operator registry.",
        "params": {
          "from": "The current token owner.",
          "to": "The recipient of the token transfer.",
          "tokenId": "The identifier of the token to transfer."
        }
      },
      "safeTransferFrom(address,address,uint256,bytes)": {
        "details": "Reverts with {OperatorNotAllowed} if the sender is not `from` and is not allowed by the operator registry.",
        "params": {
          "data": "Optional data to send along to a receiver contract.",
          "from": "The current token owner.",
          "to": "The recipient of the token transfer.",
          "tokenId": "The identifier of the token to transfer."
        }
      },
      "setApprovalForAll(address,bool)": {
        "details": "Reverts with {OperatorNotAllowed} if `approved` is true and `operator` is not allowed by the operator registry.",
        "params": {
          "approved": "True to set an approval for all tokens, false to unset it.",
          "operator": "The address to approve for all tokens."
        }
      },
      "setRoyaltyPercentage(uint256)": {
        "details": "Reverts with {NotContractOwner} if the sender is not the contract owner.Reverts with {IncorrectRoyaltyPercentage} if `percentage` is above 100% (> FEE_DENOMINATOR).",
        "params": {
          "percentage": "The new percentage to set. For example 50000 sets 50% royalty."
        }
      },
      "setRoyaltyReceiver(address)": {
        "details": "Reverts with {NotContractOwner} if the sender is not the contract owner.Reverts with {IncorrectRoyaltyReceiver} if `receiver` is the zero address.",
        "params": {
          "receiver": "The new receiver to set."
        }
      },
      "supportsInterface(bytes4)": {
        "details": "Note: This function call must use less than 30 000 gas.",
        "params": {
          "interfaceId": "the interface identifier to test."
        },
        "returns": {
          "_0": "True if the interface is supported, false if `interfaceId` is `0xffffffff` or if the interface is not supported."
        }
      },
      "symbol()": {
        "returns": {
          "tokenSymbol": "The symbol of the token."
        }
      },
      "tokenURI(uint256)": {
        "details": "Reverts if `tokenId` does not exist.",
        "params": {
          "tokenId": "The token identifier."
        },
        "returns": {
          "uri": "The metadata URI for the token identifier."
        }
      },
      "transferFrom(address,address,uint256)": {
        "details": "Reverts with {OperatorNotAllowed} if the sender is not `from` and is not allowed by the operator registry.",
        "params": {
          "from": "The current token owner.",
          "to": "The recipient of the token transfer. Self-transfers are possible.",
          "tokenId": "The identifier of the token to transfer."
        }
      },
      "transferOwnership(address)": {
        "details": "Reverts if the sender is not the contract owner.Emits an {OwnershipTransferred} event if `newOwner` is different from the current contract owner.",
        "params": {
          "newOwner": "The address of the new contract owner. Using the zero address means renouncing ownership."
        }
      },
      "updateOperatorFilterRegistry(address)": {
        "details": "Reverts with {NotContractOwner} if the sender is not the contract owner.",
        "params": {
          "registry": "The new operator filter registry address. When set to the zero address, checks will be bypassed."
        }
      }
    },
    "version": 1
  },
  "userdoc": {
    "errors": {
      "ERC2981IncorrectRoyaltyPercentage(uint256)": [
        {
          "notice": "Thrown when setting a royalty percentage that is above 100% (> FEE_DENOMINATOR)."
        }
      ],
      "ERC2981IncorrectRoyaltyReceiver()": [
        {
          "notice": "Thrown when setting a royalty receiver that is the zero address."
        }
      ],
      "ERC721BalanceOfAddressZero()": [
        {
          "notice": "Thrown when querying the balance of the zero address."
        }
      ],
      "ERC721ExistingToken(uint256)": [
        {
          "notice": "Thrown when minting a token that already exists."
        }
      ],
      "ERC721MintToAddressZero()": [
        {
          "notice": "Thrown when minting a token to the zero address."
        }
      ],
      "ERC721NonApprovedForApproval(address,address,uint256)": [
        {
          "notice": "Thrown when a sender tries to set a token approval but is neither the owner nor approvedForAll by the owner."
        }
      ],
      "ERC721NonApprovedForTransfer(address,address,uint256)": [
        {
          "notice": "Thrown when a sender tries to transfer a token but is neither the owner nor approved by the owner."
        }
      ],
      "ERC721NonExistingToken(uint256)": [
        {
          "notice": "Thrown when a token does not exist but is required to."
        }
      ],
      "ERC721NonOwnedToken(address,uint256)": [
        {
          "notice": "Thrown when a token is not owned by the expected account."
        }
      ],
      "ERC721SafeTransferRejected(address,uint256)": [
        {
          "notice": "Thrown when a safe transfer is rejected by the recipient contract."
        }
      ],
      "ERC721SelfApproval(address)": [
        {
          "notice": "Thrown when trying to approve oneself."
        }
      ],
      "ERC721SelfApprovalForAll(address)": [
        {
          "notice": "Thrown when trying to approveForAll oneself."
        }
      ],
      "ERC721TransferToAddressZero()": [
        {
          "notice": "Thrown when transferring a token to the zero address."
        }
      ],
      "IllegalInterfaceId()": [
        {
          "notice": "Thrown when setting the illegal interfaceId 0xffffffff."
        }
      ],
      "InconsistentArrayLengths()": [
        {
          "notice": "Thrown when the multiple related arrays have different lengths."
        }
      ],
      "IncorrectTokenContractType(address)": [
        {
          "notice": "Thrown when trying to recover a token of the wrong contract type."
        }
      ],
      "InitializationPhaseAlreadyReached(uint256,uint256)": [
        {
          "notice": "Emitted when trying to set a phase value that has already been reached."
        }
      ],
      "NotContractOwner(address)": [
        {
          "notice": "Thrown when an account is not the contract owner but is required to."
        }
      ],
      "NotRoleHolder(bytes32,address)": [
        {
          "notice": "Thrown when an account does not have the required role."
        }
      ],
      "OperatorNotAllowed(address)": [
        {
          "notice": "Thrown when transferring to or giving approval to a non-authorized operator."
        }
      ]
    },
    "events": {
      "Approval(address,address,uint256)": {
        "notice": "Emitted when a single token approval is set."
      },
      "ApprovalForAll(address,address,bool)": {
        "notice": "Emitted when an approval for all tokens is set or unset."
      },
      "OwnershipTransferred(address,address)": {
        "notice": "Emitted when the contract ownership changes."
      },
      "RoleGranted(bytes32,address,address)": {
        "notice": "Emitted when `role` is granted to `account`."
      },
      "RoleRevoked(bytes32,address,address)": {
        "notice": "Emitted when `role` is revoked from `account`."
      },
      "Transfer(address,address,uint256)": {
        "notice": "Emitted when a token is transferred."
      }
    },
    "kind": "user",
    "methods": {
      "approve(address,uint256)": {
        "notice": "Sets or unsets an approval to transfer a single token on behalf of its owner."
      },
      "balanceOf(address)": {
        "notice": "Gets the balance of an address."
      },
      "batchBurnFrom(address,uint256[])": {
        "notice": "Burns a batch of tokens."
      },
      "batchMint(address,uint256[])": {
        "notice": "Unsafely mints a batch of tokens."
      },
      "batchTransferFrom(address,address,uint256[])": {
        "notice": "Unsafely transfers a batch of tokens to a recipient."
      },
      "burnFrom(address,uint256)": {
        "notice": "Burns a token."
      },
      "deliver(address[],uint256[])": {
        "notice": "Unsafely mints tokens to multiple recipients."
      },
      "getApproved(uint256)": {
        "notice": "Gets the approved address for a token."
      },
      "grantRole(bytes32,address)": {
        "notice": "Grants a role to an account."
      },
      "hasRole(bytes32,address)": {
        "notice": "Retrieves whether an account has a role."
      },
      "isApprovedForAll(address,address)": {
        "notice": "Gets whether an operator is approved for all tokens by an owner."
      },
      "isTrustedForwarder(address)": {
        "notice": "Checks whether a forwarder is trusted."
      },
      "metadataResolver()": {
        "notice": "Gets the token metadata resolver address."
      },
      "mint(address,uint256)": {
        "notice": "Unsafely mints a token."
      },
      "name()": {
        "notice": "Gets the name of the token. E.g. \"My Token\"."
      },
      "operatorFilterRegistry()": {
        "notice": "Gets the operator filter registry address."
      },
      "owner()": {
        "notice": "Gets the address of the contract owner."
      },
      "ownerOf(uint256)": {
        "notice": "Gets the owner of a token."
      },
      "recoverERC20s(address[],address[],uint256[])": {
        "notice": "Extract ERC20 tokens which were accidentally sent to the contract to a list of accounts."
      },
      "recoverERC721s(address[],address[],uint256[])": {
        "notice": "Extract ERC721 tokens which were accidentally sent to the contract to a list of accounts."
      },
      "recoverETH(address[],uint256[])": {
        "notice": "Extract ETH tokens which were accidentally sent to the contract to a list of accounts."
      },
      "renounceRole(bytes32)": {
        "notice": "Renounces a role by the sender."
      },
      "revokeRole(bytes32,address)": {
        "notice": "Revokes a role from an account."
      },
      "royaltyInfo(uint256,uint256)": {
        "notice": "Called with the sale price to determine how much royalty is owed and to whom."
      },
      "safeMint(address,uint256,bytes)": {
        "notice": "Safely mints a token."
      },
      "safeTransferFrom(address,address,uint256)": {
        "notice": "Safely transfers the ownership of a token to a recipient."
      },
      "safeTransferFrom(address,address,uint256,bytes)": {
        "notice": "Safely transfers the ownership of a token to a recipient."
      },
      "setApprovalForAll(address,bool)": {
        "notice": "Sets or unsets an approval to transfer all tokens on behalf of their owner."
      },
      "setRoyaltyPercentage(uint256)": {
        "notice": "Sets the royalty percentage."
      },
      "setRoyaltyReceiver(address)": {
        "notice": "Sets the royalty receiver."
      },
      "supportsInterface(bytes4)": {
        "notice": "Returns whether this contract implements a given interface."
      },
      "symbol()": {
        "notice": "Gets the symbol of the token. E.g. \"TOK\"."
      },
      "tokenURI(uint256)": {
        "notice": "Gets the metadata URI for a token identifier."
      },
      "transferFrom(address,address,uint256)": {
        "notice": "Unsafely transfers the ownership of a token to a recipient."
      },
      "transferOwnership(address)": {
        "notice": "Sets the address of the new contract owner."
      },
      "updateOperatorFilterRegistry(address)": {
        "notice": "Updates the address that the contract will make OperatorFilter checks against."
      }
    },
    "version": 1
  },
  "storageLayout": {
    "storage": [],
    "types": null
  }
}