{
  "address": "0x87312D370248200Cb04C02c0C97E8E85DBC5Da2a",
  "abi": [
    {
      "inputs": [
        {
          "internalType": "contract IForwarderRegistry",
          "name": "forwarderRegistry",
          "type": "address"
        }
      ],
      "stateMutability": "nonpayable",
      "type": "constructor"
    },
    {
      "anonymous": false,
      "inputs": [
        {
          "indexed": false,
          "internalType": "bytes32",
          "name": "checkpointId",
          "type": "bytes32"
        },
        {
          "indexed": false,
          "internalType": "uint256",
          "name": "timestamp",
          "type": "uint256"
        }
      ],
      "name": "CheckpointSet",
      "type": "event"
    },
    {
      "inputs": [
        {
          "internalType": "bytes32[]",
          "name": "checkpointIds",
          "type": "bytes32[]"
        },
        {
          "internalType": "uint256[]",
          "name": "timestamps",
          "type": "uint256[]"
        }
      ],
      "name": "batchSetCheckpoint",
      "outputs": [],
      "stateMutability": "nonpayable",
      "type": "function"
    },
    {
      "inputs": [
        {
          "internalType": "bytes32",
          "name": "checkpointId",
          "type": "bytes32"
        }
      ],
      "name": "checkpoint",
      "outputs": [
        {
          "internalType": "uint256",
          "name": "",
          "type": "uint256"
        }
      ],
      "stateMutability": "view",
      "type": "function"
    },
    {
      "inputs": [
        {
          "internalType": "bytes32",
          "name": "checkpointId",
          "type": "bytes32"
        }
      ],
      "name": "checkpointReached",
      "outputs": [
        {
          "internalType": "bool",
          "name": "",
          "type": "bool"
        }
      ],
      "stateMutability": "view",
      "type": "function"
    },
    {
      "inputs": [
        {
          "internalType": "bytes32",
          "name": "checkpointId",
          "type": "bytes32"
        },
        {
          "internalType": "uint256",
          "name": "timestamp",
          "type": "uint256"
        }
      ],
      "name": "setCheckpoint",
      "outputs": [],
      "stateMutability": "nonpayable",
      "type": "function"
    },
    {
      "inputs": [
        {
          "internalType": "bytes32",
          "name": "checkpointId",
          "type": "bytes32"
        }
      ],
      "name": "triggerCheckpoint",
      "outputs": [],
      "stateMutability": "nonpayable",
      "type": "function"
    }
  ],
  "transactionHash": "0x65e542339e4d29e04cc4abc99623d512d04046a82f9e7c22e91a7d3f98d9e61a",
  "args": [
    "0x3f547F87251710F70109Ae0409d461b270709693"
  ],
  "numDeployments": 1,
  "solcInputHash": "a6ab94751dde68b4d6125ac6f179d1ce",
  "bytecode": "0x60a060405234801561001057600080fd5b50604051610b86380380610b8683398101604081905261002f91610040565b6001600160a01b0316608052610070565b60006020828403121561005257600080fd5b81516001600160a01b038116811461006957600080fd5b9392505050565b608051610af4610092600039600081816104ff01526105870152610af46000f3fe608060405234801561001057600080fd5b50600436106100675760003560e01c80634f410a80116100505780634f410a80146100a95780635b34eba0146100bc578063deb4d746146100dd57600080fd5b8063151bdba61461006c5780633b14936914610094575b600080fd5b61007f61007a3660046107bd565b6100f0565b60405190151581526020015b60405180910390f35b6100a76100a2366004610822565b61010a565b005b6100a76100b736600461088e565b610141565b6100cf6100ca3660046107bd565b610164565b60405190815260200161008b565b6100a76100eb3660046107bd565b610182565b6000610104826100fe6101a2565b906101d0565b92915050565b6101236101156101f6565b61011d610205565b90610233565b61013b848484846101326101a2565b939291906102bb565b50505050565b61014c6101156101f6565b61016082826101596101a2565b9190610385565b5050565b6000610104826101726101a2565b6000918252602052604090205490565b61018d6101156101f6565b61019f816101996101a2565b90610465565b50565b60008061010460017f0def758eb96c12015155889b8e63d1cb5c0dbce5585bbdf9d99ea353f56c716c6108b0565b60008181526020839052604081205480158015906101ee5750804210155b949350505050565b60006102006104bc565b905090565b60008061010460017fc9ed16f33ab3a66c84bfd83099ccb2a8845871e2e1c1928f63797152f0fd54cd6108b0565b815473ffffffffffffffffffffffffffffffffffffffff828116911614610160576040517f08c379a000000000000000000000000000000000000000000000000000000000815260206004820152601860248201527f4f776e6572736869703a206e6f7420746865206f776e6572000000000000000060448201526064015b60405180910390fd5b82818114610325576040517f08c379a000000000000000000000000000000000000000000000000000000000815260206004820152601f60248201527f436865636b706f696e74733a2077726f6e67206172726179206c656e6774680060448201526064016102b2565b60005b81811461037c57610374868683818110610344576103446108ea565b9050602002013585858481811061035d5761035d6108ea565b90506020020135896103859092919063ffffffff16565b600101610328565b50505050505050565b60008281526020849052604090205415610410576103a282610603565b6040516020016103b2919061093d565b604080517fffffffffffffffffffffffffffffffffffffffffffffffffffffffffffffffe0818403018152908290527f08c379a00000000000000000000000000000000000000000000000000000000082526102b2916004016109a9565b8015610460576000828152602084815260409182902083905581518481529081018390527f099ea97db121bdf4a102e67113e27b6bb74713015b32a5f0e1c3ea0d44fb2953910160405180910390a15b505050565b61046f8282610795565b6000818152602083815260409182902042908190558251848152918201527f099ea97db121bdf4a102e67113e27b6bb74713015b32a5f0e1c3ea0d44fb2953910160405180910390a15050565b6000333214806104cc5750601836105b156104d657503390565b7fffffffffffffffffffffffffffffffffffffffffffffffffffffffffffffffec36013560601c7f000000000000000000000000000000000000000000000000000000000000000073ffffffffffffffffffffffffffffffffffffffff163314806105f257506040517f8929a8ca00000000000000000000000000000000000000000000000000000000815273ffffffffffffffffffffffffffffffffffffffff82811660048301523360248301527f00000000000000000000000000000000000000000000000000000000000000001690638929a8ca90604401602060405180830381865afa1580156105ce573d6000803e3d6000fd5b505050506040513d601f19601f820116820180604052508101906105f291906109fa565b156105fc57919050565b3391505090565b6060600082900361062257505060408051602081019091526000815290565b60008260405160200161063791815260200190565b604080517fffffffffffffffffffffffffffffffffffffffffffffffffffffffffffffffe08184030181529190529050601f5b81818151811061067c5761067c6108ea565b01602001517fff00000000000000000000000000000000000000000000000000000000000000166000036106d1577fffffffffffffffffffffffffffffffffffffffffffffffffffffffffffffffff0161066a565b60008160010167ffffffffffffffff8111156106ef576106ef610a23565b6040519080825280601f01601f191660200182016040528015610719576020820181803683370190505b50905060005b82811161078c57838181518110610738576107386108ea565b602001015160f81c60f81b828281518110610755576107556108ea565b60200101907effffffffffffffffffffffffffffffffffffffffffffffffffffffffffffff1916908160001a90535060010161071f565b50949350505050565b61079f82826101d0565b15610160576107ad81610603565b6040516020016103b29190610a52565b6000602082840312156107cf57600080fd5b5035919050565b60008083601f8401126107e857600080fd5b50813567ffffffffffffffff81111561080057600080fd5b6020830191508360208260051b850101111561081b57600080fd5b9250929050565b6000806000806040858703121561083857600080fd5b843567ffffffffffffffff8082111561085057600080fd5b61085c888389016107d6565b9096509450602087013591508082111561087557600080fd5b50610882878288016107d6565b95989497509550505050565b600080604083850312156108a157600080fd5b50508035926020909101359150565b81810381811115610104577f4e487b7100000000000000000000000000000000000000000000000000000000600052601160045260246000fd5b7f4e487b7100000000000000000000000000000000000000000000000000000000600052603260045260246000fd5b60005b8381101561093457818101518382015260200161091c565b50506000910152565b7f436865636b706f696e74733a20636865636b706f696e74202700000000000000815260008251610975816019850160208701610919565b7f2720616c726561647920736574000000000000000000000000000000000000006019939091019283015250602601919050565b60208152600082518060208401526109c8816040850160208701610919565b601f017fffffffffffffffffffffffffffffffffffffffffffffffffffffffffffffffe0169190910160400192915050565b600060208284031215610a0c57600080fd5b81518015158114610a1c57600080fd5b9392505050565b7f4e487b7100000000000000000000000000000000000000000000000000000000600052604160045260246000fd5b7f436865636b706f696e74733a20636865636b706f696e74202700000000000000815260008251610a8a816019850160208701610919565b7f2720616c726561647920726561636865640000000000000000000000000000006019939091019283015250602a0191905056fea26469706673582212200048baae27f6a4ed7d8684c2584d9a52af32b29e57d3392736a0251751e3d6a864736f6c63430008110033",
  "devdoc": {
    "details": "This contract is to be used as a diamond facet (see ERC2535 Diamond Standard https://eips.ethereum.org/EIPS/eip-2535).Note: This facet depends on {ProxyAdminFacet} and {ContractOwnershipFacet}.",
    "kind": "dev",
    "methods": {
      "batchSetCheckpoint(bytes32[],uint256[])": {
        "details": "Reverts if the caller is not the contract owner.Reverts if one of the checkpoints is already set.Emits a {CheckpointSet} event for each timestamp set to a non-zero value.",
        "params": {
          "checkpointIds": "The checkpoint identifier.",
          "timestamps": "The checkpoint timestamp."
        }
      },
      "checkpoint(bytes32)": {
        "params": {
          "checkpointId": "The checkpoint identifier."
        },
        "returns": {
          "_0": "timestamp The timestamp associated to the checkpoint. A zero value indicates that the checkpoint is not set."
        }
      },
      "checkpointReached(bytes32)": {
        "params": {
          "checkpointId": "The checkpoint identifier."
        },
        "returns": {
          "_0": "reached True if the checkpoint has been set and the current block timestamp has already reached it, false otherwise."
        }
      },
      "setCheckpoint(bytes32,uint256)": {
        "details": "Reverts if the caller is not the contract owner.Reverts if the checkpoint is already set.Emits a {CheckpointSet} event if the timestamp is set to a non-zero value.",
        "params": {
          "checkpointId": "The checkpoint identifiers.",
          "timestamp": "The checkpoint timestamps."
        }
      },
      "triggerCheckpoint(bytes32)": {
        "details": "Reverts if the caller is not the contract owner.Reverts if the checkpoint is set and the current block timestamp has already reached it.Emits a {CheckpointSet} event.",
        "params": {
          "checkpointId": "The checkpoint identifier."
        }
      }
    },
    "title": "Timestamp-based checkpoints management (facet version).",
    "version": 1
  },
  "userdoc": {
    "events": {
      "CheckpointSet(bytes32,uint256)": {
        "notice": "Emitted when a checkpoint is set."
      }
    },
    "kind": "user",
    "methods": {
      "batchSetCheckpoint(bytes32[],uint256[])": {
        "notice": "Sets a batch of checkpoints."
      },
      "checkpoint(bytes32)": {
        "notice": "Gets the checkpoint timestamp."
      },
      "checkpointReached(bytes32)": {
        "notice": "Retrieves whether the checkpoint has been reached already."
      },
      "setCheckpoint(bytes32,uint256)": {
        "notice": "Sets the checkpoints."
      },
      "triggerCheckpoint(bytes32)": {
        "notice": "Sets the checkpoint to the current block timestamp."
      }
    },
    "version": 1
  },
  "storageLayout": {
    "storage": [],
    "types": null
  }
}