{
  "address": "0x063C11A6E6cF4d350976c77967De984cB7CfA086",
  "abi": [
    {
      "inputs": [
        {
          "internalType": "contract IForwarderRegistry",
          "name": "forwarderRegistry",
          "type": "address"
        }
      ],
      "stateMutability": "nonpayable",
      "type": "constructor"
    },
    {
      "anonymous": false,
      "inputs": [
        {
          "indexed": true,
          "internalType": "address",
          "name": "previousOwner",
          "type": "address"
        },
        {
          "indexed": true,
          "internalType": "address",
          "name": "newOwner",
          "type": "address"
        }
      ],
      "name": "OwnershipTransferred",
      "type": "event"
    },
    {
      "inputs": [
        {
          "internalType": "address",
          "name": "initialOwner",
          "type": "address"
        }
      ],
      "name": "initContractOwnershipStorage",
      "outputs": [],
      "stateMutability": "nonpayable",
      "type": "function"
    },
    {
      "inputs": [],
      "name": "owner",
      "outputs": [
        {
          "internalType": "address",
          "name": "",
          "type": "address"
        }
      ],
      "stateMutability": "view",
      "type": "function"
    },
    {
      "inputs": [
        {
          "internalType": "address",
          "name": "newOwner",
          "type": "address"
        }
      ],
      "name": "transferOwnership",
      "outputs": [],
      "stateMutability": "nonpayable",
      "type": "function"
    }
  ],
  "transactionHash": "0x1e47b052840971bb0cc3730370115ac138c0b1db95cee28de35a9cae708c44ee",
  "args": [
    "0x3f547F87251710F70109Ae0409d461b270709693"
  ],
  "numDeployments": 1,
  "solcInputHash": "a6ab94751dde68b4d6125ac6f179d1ce",
  "bytecode": "0x60a060405234801561001057600080fd5b5060405161088738038061088783398101604081905261002f91610040565b6001600160a01b0316608052610070565b60006020828403121561005257600080fd5b81516001600160a01b038116811461006957600080fd5b9392505050565b6080516107f5610092600039600081816103bb015261044301526107f56000f3fe608060405234801561001057600080fd5b50600436106100415760003560e01c806363e340d6146100465780638da5cb5b1461005b578063f2fde38b1461008c575b600080fd5b610059610054366004610726565b61009f565b005b6100636100cd565b60405173ffffffffffffffffffffffffffffffffffffffff909116815260200160405180910390f35b61005961009a366004610726565b6100f9565b6100b86100aa610114565b6100b261011e565b90610152565b6100ca816100c46101de565b9061020c565b50565b60006100f46100da6101de565b5473ffffffffffffffffffffffffffffffffffffffff1690565b905090565b6100ca610104610114565b8261010d6101de565b919061024b565b60006100f4610378565b60008061014c60017fb53127684a568b3173ae13b9f8a6016e243e63b6e8ee1178d6a717850b5d6104610763565b92915050565b815473ffffffffffffffffffffffffffffffffffffffff8281169116146101da576040517f08c379a000000000000000000000000000000000000000000000000000000000815260206004820152601960248201527f50726f787941646d696e3a206e6f74207468652061646d696e0000000000000060448201526064015b60405180910390fd5b5050565b60008061014c60017fc9ed16f33ab3a66c84bfd83099ccb2a8845871e2e1c1928f63797152f0fd54cd610763565b61024161023a60017f5b388d90dc1312ba799f321972f13311234fa1163bcabec7cf66101c4876eb84610763565b60016104bf565b6101da828261052f565b825473ffffffffffffffffffffffffffffffffffffffff90811690831681146102d0576040517f08c379a000000000000000000000000000000000000000000000000000000000815260206004820152601860248201527f4f776e6572736869703a206e6f7420746865206f776e6572000000000000000060448201526064016101d1565b8173ffffffffffffffffffffffffffffffffffffffff168173ffffffffffffffffffffffffffffffffffffffff16146103725783547fffffffffffffffffffffffff00000000000000000000000000000000000000001673ffffffffffffffffffffffffffffffffffffffff8381169182178655604051908316907f8be0079c531659141344cd1fd0a4f28419497f9722a3daafe3b4186f6b6457e090600090a35b50505050565b6000333214806103885750601836105b1561039257503390565b7fffffffffffffffffffffffffffffffffffffffffffffffffffffffffffffffec36013560601c7f000000000000000000000000000000000000000000000000000000000000000073ffffffffffffffffffffffffffffffffffffffff163314806104ae57506040517f8929a8ca00000000000000000000000000000000000000000000000000000000815273ffffffffffffffffffffffffffffffffffffffff82811660048301523360248301527f00000000000000000000000000000000000000000000000000000000000000001690638929a8ca90604401602060405180830381865afa15801561048a573d6000803e3d6000fd5b505050506040513d601f19601f820116820180604052508101906104ae919061079d565b156104b857919050565b3391505090565b81548290821161052b576040517f08c379a000000000000000000000000000000000000000000000000000000000815260206004820152601660248201527f53746f726167653a20706861736520726561636865640000000000000000000060448201526064016101d1565b5550565b73ffffffffffffffffffffffffffffffffffffffff8116156105b75781547fffffffffffffffffffffffff00000000000000000000000000000000000000001673ffffffffffffffffffffffffffffffffffffffff821690811783556040516000907f8be0079c531659141344cd1fd0a4f28419497f9722a3daafe3b4186f6b6457e0908290a35b6101da7f7f5828d00000000000000000000000000000000000000000000000000000000060016105e56105ec565b919061061a565b60008061014c60017fca9d3e17f264b0f3984e2634e94adb37fa3e6a8103f06aeae6fa59e21c769f5e610763565b7c01000000000000000000000000000000000000000000000000000000007fffffffff000000000000000000000000000000000000000000000000000000008316016106c2576040517f08c379a000000000000000000000000000000000000000000000000000000000815260206004820152601f60248201527f496e74657266616365446574656374696f6e3a2077726f6e672076616c75650060448201526064016101d1565b7fffffffff00000000000000000000000000000000000000000000000000000000919091166000908152602092909252604090912080547fffffffffffffffffffffffffffffffffffffffffffffffffffffffffffffff0016911515919091179055565b60006020828403121561073857600080fd5b813573ffffffffffffffffffffffffffffffffffffffff8116811461075c57600080fd5b9392505050565b8181038181111561014c577f4e487b7100000000000000000000000000000000000000000000000000000000600052601160045260246000fd5b6000602082840312156107af57600080fd5b8151801515811461075c57600080fdfea26469706673582212202f27db6e3ae490a9e8ab125f4e12470717c76fdaf42abfdb49fe552ee173c96364736f6c63430008110033",
  "devdoc": {
    "details": "See https://eips.ethereum.org/EIPS/eip-173This contract is to be used as a diamond facet (see ERC2535 Diamond Standard https://eips.ethereum.org/EIPS/eip-2535).Note: This facet depends on {ProxyAdminFacet} and {InterfaceDetectionFacet}.",
    "kind": "dev",
    "methods": {
      "initContractOwnershipStorage(address)": {
        "details": "Reverts if the sender is not the proxy admin.Reverts if the proxy initialization phase is set to `1` or above.Emits an {OwnershipTransferred} if `initialOwner` is not the zero address.",
        "params": {
          "initialOwner": "The initial contract owner."
        }
      },
      "owner()": {
        "returns": {
          "_0": "The address of the contract owner."
        }
      },
      "transferOwnership(address)": {
        "details": "Reverts if the sender is not the contract owner.Emits an {OwnershipTransferred} event if `newOwner` is different from the current contract owner.",
        "params": {
          "newOwner": "The address of the new contract owner. Using the zero address means renouncing ownership."
        }
      }
    },
    "title": "ERC173 Contract Ownership Standard (facet version).",
    "version": 1
  },
  "userdoc": {
    "events": {
      "OwnershipTransferred(address,address)": {
        "notice": "Emitted when the contract ownership changes."
      }
    },
    "kind": "user",
    "methods": {
      "initContractOwnershipStorage(address)": {
        "notice": "Initializes the storage with an initial contract owner (proxied version).Sets the proxy initialization phase to `1`.Marks the following ERC165 interface(s) as supported: ERC173."
      },
      "owner()": {
        "notice": "Gets the address of the contract owner."
      },
      "transferOwnership(address)": {
        "notice": "Sets the address of the new contract owner."
      }
    },
    "version": 1
  },
  "storageLayout": {
    "storage": [],
    "types": null
  }
}