{
  "address": "0x498B7c704e1663113D3a90848A3f122476639583",
  "abi": [
    {
      "inputs": [
        {
          "internalType": "contract IForwarderRegistry",
          "name": "forwarderRegistry",
          "type": "address"
        }
      ],
      "stateMutability": "nonpayable",
      "type": "constructor"
    },
    {
      "anonymous": false,
      "inputs": [
        {
          "components": [
            {
              "internalType": "address",
              "name": "facet",
              "type": "address"
            },
            {
              "internalType": "enum IDiamondCutCommon.FacetCutAction",
              "name": "action",
              "type": "uint8"
            },
            {
              "internalType": "bytes4[]",
              "name": "selectors",
              "type": "bytes4[]"
            }
          ],
          "indexed": false,
          "internalType": "struct IDiamondCutCommon.FacetCut[]",
          "name": "cuts",
          "type": "tuple[]"
        },
        {
          "indexed": false,
          "internalType": "address",
          "name": "target",
          "type": "address"
        },
        {
          "indexed": false,
          "internalType": "bytes",
          "name": "data",
          "type": "bytes"
        }
      ],
      "name": "DiamondCut",
      "type": "event"
    },
    {
      "inputs": [
        {
          "components": [
            {
              "internalType": "address",
              "name": "facet",
              "type": "address"
            },
            {
              "internalType": "enum IDiamondCutCommon.FacetCutAction",
              "name": "action",
              "type": "uint8"
            },
            {
              "internalType": "bytes4[]",
              "name": "selectors",
              "type": "bytes4[]"
            }
          ],
          "internalType": "struct IDiamondCutCommon.FacetCut[]",
          "name": "cuts",
          "type": "tuple[]"
        },
        {
          "internalType": "address",
          "name": "target",
          "type": "address"
        },
        {
          "internalType": "bytes",
          "name": "data",
          "type": "bytes"
        }
      ],
      "name": "diamondCut",
      "outputs": [],
      "stateMutability": "nonpayable",
      "type": "function"
    },
    {
      "inputs": [
        {
          "components": [
            {
              "internalType": "address",
              "name": "facet",
              "type": "address"
            },
            {
              "internalType": "enum IDiamondCutCommon.FacetCutAction",
              "name": "action",
              "type": "uint8"
            },
            {
              "internalType": "bytes4[]",
              "name": "selectors",
              "type": "bytes4[]"
            }
          ],
          "internalType": "struct IDiamondCutCommon.FacetCut[]",
          "name": "cuts",
          "type": "tuple[]"
        },
        {
          "components": [
            {
              "internalType": "address",
              "name": "target",
              "type": "address"
            },
            {
              "internalType": "bytes",
              "name": "data",
              "type": "bytes"
            }
          ],
          "internalType": "struct IDiamondCutCommon.Initialization[]",
          "name": "initializations",
          "type": "tuple[]"
        }
      ],
      "name": "diamondCut",
      "outputs": [],
      "stateMutability": "nonpayable",
      "type": "function"
    },
    {
      "inputs": [],
      "name": "initDiamondCutStorage",
      "outputs": [],
      "stateMutability": "nonpayable",
      "type": "function"
    }
  ],
  "transactionHash": "0x604e73aaf8adb71b0280813348f04ce525e9fe9f9dcbe5faec9da2a80fbfa718",
  "args": [
    "0x3f547F87251710F70109Ae0409d461b270709693"
  ],
  "numDeployments": 1,
  "solcInputHash": "a6ab94751dde68b4d6125ac6f179d1ce",
  "bytecode": "0x60a060405234801561001057600080fd5b50604051611bcd380380611bcd83398101604081905261002f91610040565b6001600160a01b0316608052610070565b60006020828403121561005257600080fd5b81516001600160a01b038116811461006957600080fd5b9392505050565b608051611b3b6100926000396000818161017b01526102030152611b3b6000f3fe608060405234801561001057600080fd5b50600436106100415760003560e01c80631f931c1c1461004657806395bce6661461005b578063b2afc5b514610063575b600080fd5b61005961005436600461139d565b610076565b005b6100596100ec565b61005961007136600461144b565b610101565b61008f610081610138565b61008961027f565b906102b3565b6100e561009c85876115a5565b8484848080601f0160208091040260200160405190810160405280939291908181526020018383808284376000920191909152506100dd925061033f915050565b92919061036d565b5050505050565b6100f7610081610138565b6100ff6103bc565b565b61010c610081610138565b61013261011984866115a5565b6101238385611701565b61012b61033f565b9190610423565b50505050565b6000333214806101485750601836105b1561015257503390565b7fffffffffffffffffffffffffffffffffffffffffffffffffffffffffffffffec36013560601c7f000000000000000000000000000000000000000000000000000000000000000073ffffffffffffffffffffffffffffffffffffffff1633148061026e57506040517f8929a8ca00000000000000000000000000000000000000000000000000000000815273ffffffffffffffffffffffffffffffffffffffff82811660048301523360248301527f00000000000000000000000000000000000000000000000000000000000000001690638929a8ca90604401602060405180830381865afa15801561024a573d6000803e3d6000fd5b505050506040513d601f19601f8201168201806040525081019061026e919061182d565b1561027857919050565b3391505090565b6000806102ad60017fb53127684a568b3173ae13b9f8a6016e243e63b6e8ee1178d6a717850b5d6104611856565b92915050565b815473ffffffffffffffffffffffffffffffffffffffff82811691161461033b576040517f08c379a000000000000000000000000000000000000000000000000000000000815260206004820152601960248201527f50726f787941646d696e3a206e6f74207468652061646d696e0000000000000060448201526064015b60405180910390fd5b5050565b6000806102ad60017f65d27473a5b05206737961f69a3b7a55316862d7a6ef82b3f5455fe92fab43e3611856565b61037784846104bf565b7f8faa70878671ccd212d20771b795c50af8fd3ff6cf27f4bde57e5d4de0aeb6738383836040516103aa939291906119f2565b60405180910390a16101328282610667565b60006103c66108d4565b90506103f4817f1f931c1c000000000000000000000000000000000000000000000000000000006001610902565b610420817fb2afc5b5000000000000000000000000000000000000000000000000000000006001610902565b50565b61042d83836104bf565b7f8faa70878671ccd212d20771b795c50af8fd3ff6cf27f4bde57e5d4de0aeb67382600060405161045f929190611a71565b60405180910390a1805160005b8181146100e5576104b783828151811061048857610488611aba565b6020026020010151600001518483815181106104a6576104a6611aba565b602002602001015160200151610667565b60010161046c565b600182015461ffff8116908190600090600716156104ef5750600381901c60009081526002850160205260409020545b835160005b81811461060457600086828151811061050f5761050f611aba565b60200260200101519050600081602001519050816040015151600003610591576040517f08c379a000000000000000000000000000000000000000000000000000000000815260206004820152601e60248201527f4469616d6f6e643a206e6f2066756e6374696f6e2073656c6563746f727300006044820152606401610332565b60008160028111156105a5576105a5611890565b036105c0576105b689878785610a0e565b90965094506105fa565b60018160028111156105d4576105d4611890565b036105e8576105e38983610c40565b6105fa565b6105f489878785610f26565b90965094505b50506001016104f4565b5083831461063d576001860180547fffffffffffffffffffffffffffffffffffffffffffffffffffffffffffff00001661ffff85161790555b600783161561065f57600383901c600090815260028701602052604090208290555b505050505050565b73ffffffffffffffffffffffffffffffffffffffff82166106eb5780511561033b576040517f08c379a000000000000000000000000000000000000000000000000000000000815260206004820152601a60248201527f4469616d6f6e643a2064617461206973206e6f7420656d7074790000000000006044820152606401610332565b8051600003610756576040517f08c379a000000000000000000000000000000000000000000000000000000000815260206004820152601660248201527f4469616d6f6e643a206461746120697320656d707479000000000000000000006044820152606401610332565b73ffffffffffffffffffffffffffffffffffffffff821630146107f15773ffffffffffffffffffffffffffffffffffffffff82163b6107f1576040517f08c379a000000000000000000000000000000000000000000000000000000000815260206004820152601b60248201527f4469616d6f6e643a2074617267657420686173206e6f20636f646500000000006044820152606401610332565b6000808373ffffffffffffffffffffffffffffffffffffffff16836040516108199190611ae9565b600060405180830381855af49150503d8060008114610854576040519150601f19603f3d011682016040523d82523d6000602084013e610859565b606091505b5091509150816101325780518015610872578082602001fd5b6040517f08c379a000000000000000000000000000000000000000000000000000000000815260206004820152601b60248201527f4469616d6f6e643a20696e69742063616c6c20726576657274656400000000006044820152606401610332565b6000806102ad60017fca9d3e17f264b0f3984e2634e94adb37fa3e6a8103f06aeae6fa59e21c769f5e611856565b7c01000000000000000000000000000000000000000000000000000000007fffffffff000000000000000000000000000000000000000000000000000000008316016109aa576040517f08c379a000000000000000000000000000000000000000000000000000000000815260206004820152601f60248201527f496e74657266616365446574656374696f6e3a2077726f6e672076616c7565006044820152606401610332565b7fffffffff00000000000000000000000000000000000000000000000000000000919091166000908152602092909252604090912080547fffffffffffffffffffffffffffffffffffffffffffffffffffffffffffffff0016911515919091179055565b8051600090819073ffffffffffffffffffffffffffffffffffffffff163014610ab057825173ffffffffffffffffffffffffffffffffffffffff163b610ab0576040517f08c379a000000000000000000000000000000000000000000000000000000000815260206004820152601a60248201527f4469616d6f6e643a20666163657420686173206e6f20636f64650000000000006044820152606401610332565b60408301515160005b818114610c3257600085604001518281518110610ad857610ad8611aba565b6020908102919091018101517fffffffff0000000000000000000000000000000000000000000000000000000081166000908152918b9052604090912054909150606081901c15610b85576040517f08c379a000000000000000000000000000000000000000000000000000000000815260206004820152601f60248201527f4469616d6f6e643a2073656c6563746f7220616c7265616479206164646564006044820152606401610332565b86517fffffffff00000000000000000000000000000000000000000000000000000000838116600081815260208e90526040902060609390931b7fffffffffffffffffffffffffffffffffffffffff000000000000000000000000168c1790925560058b901b60e090811692831c91831c199a909a161798819003610c1e5760038a901c600090815260028c0160205260408120999099555b896001019950505050806001019050610ab9565b509496939550929350505050565b805173ffffffffffffffffffffffffffffffffffffffff163b610cbf576040517f08c379a000000000000000000000000000000000000000000000000000000000815260206004820152601a60248201527f4469616d6f6e643a20666163657420686173206e6f20636f64650000000000006044820152606401610332565b60408101515160005b81811461013257600083604001518281518110610ce757610ce7611aba565b6020908102919091018101517fffffffff000000000000000000000000000000000000000000000000000000008116600090815291879052604090912054909150606081901c80610d94576040517f08c379a000000000000000000000000000000000000000000000000000000000815260206004820152601b60248201527f4469616d6f6e643a2073656c6563746f72206e6f7420666f756e6400000000006044820152606401610332565b3073ffffffffffffffffffffffffffffffffffffffff821603610e13576040517f08c379a000000000000000000000000000000000000000000000000000000000815260206004820152601b60248201527f4469616d6f6e643a20696d6d757461626c652066756e6374696f6e00000000006044820152606401610332565b856000015173ffffffffffffffffffffffffffffffffffffffff168173ffffffffffffffffffffffffffffffffffffffff1603610eac576040517f08c379a000000000000000000000000000000000000000000000000000000000815260206004820152601b60248201527f4469616d6f6e643a206964656e746963616c2066756e6374696f6e00000000006044820152606401610332565b5084517fffffffff0000000000000000000000000000000000000000000000000000000092909216600090815260208790526040902060609290921b7fffffffffffffffffffffffffffffffffffffffff000000000000000000000000166bffffffffffffffffffffffff91909116179055600101610cc8565b8051600090819073ffffffffffffffffffffffffffffffffffffffff1615610faa576040517f08c379a000000000000000000000000000000000000000000000000000000000815260206004820152601f60248201527f4469616d6f6e643a206e6f6e2d7a65726f2061646472657373206661636574006044820152606401610332565b600385901c6007861660005b856040015151811461131457600086604001518281518110610fda57610fda611aba565b6020908102919091018101517fffffffff0000000000000000000000000000000000000000000000000000000081166000908152918c9052604090912054909150606081901c611086576040517f08c379a000000000000000000000000000000000000000000000000000000000815260206004820152601b60248201527f4469616d6f6e643a2073656c6563746f72206e6f7420666f756e6400000000006044820152606401610332565b30606082901c036110f3576040517f08c379a000000000000000000000000000000000000000000000000000000000815260206004820152601b60248201527f4469616d6f6e643a20696d6d757461626c652066756e6374696f6e00000000006044820152606401610332565b600089900361113d577fffffffffffffffffffffffffffffffffffffffffffffffffffffffffffffffff909401600081815260028c01602052604090205498509360079350611163565b7fffffffffffffffffffffffffffffffffffffffffffffffffffffffffffffffff909301925b600584901b89901b6000807fffffffff0000000000000000000000000000000000000000000000000000000080841690861614611202577fffffffff000000000000000000000000000000000000000000000000000000008316600090815260208f90526040902080547fffffffffffffffffffffffffffffffffffffffff000000000000000000000000166bffffffffffffffffffffffff86161790555b50507fffffffff000000000000000000000000000000000000000000000000000000008316600090815260208d90526040812055611fff600383901c1660e0600584901b1687821461129557600082815260028f016020526040902080547fffffffff0000000000000000000000000000000000000000000000000000000080841c19909116908516831c1790556112e6565b80837bffffffffffffffffffffffffffffffffffffffffffffffffffffffff1916901c817fffffffff0000000000000000000000000000000000000000000000000000000060001b901c198d16179b505b8660000361130457600088815260028f01602052604081208190559b505b5050505050806001019050610fb6565b5060039190911b1796939550929350505050565b60008083601f84011261133a57600080fd5b50813567ffffffffffffffff81111561135257600080fd5b6020830191508360208260051b850101111561136d57600080fd5b9250929050565b803573ffffffffffffffffffffffffffffffffffffffff8116811461139857600080fd5b919050565b6000806000806000606086880312156113b557600080fd5b853567ffffffffffffffff808211156113cd57600080fd5b6113d989838a01611328565b90975095508591506113ed60208901611374565b9450604088013591508082111561140357600080fd5b818801915088601f83011261141757600080fd5b81358181111561142657600080fd5b89602082850101111561143857600080fd5b9699959850939650602001949392505050565b6000806000806040858703121561146157600080fd5b843567ffffffffffffffff8082111561147957600080fd5b61148588838901611328565b9096509450602087013591508082111561149e57600080fd5b506114ab87828801611328565b95989497509550505050565b7f4e487b7100000000000000000000000000000000000000000000000000000000600052604160045260246000fd5b6040516060810167ffffffffffffffff81118282101715611509576115096114b7565b60405290565b6040805190810167ffffffffffffffff81118282101715611509576115096114b7565b604051601f82017fffffffffffffffffffffffffffffffffffffffffffffffffffffffffffffffe016810167ffffffffffffffff81118282101715611579576115796114b7565b604052919050565b600067ffffffffffffffff82111561159b5761159b6114b7565b5060051b60200190565b60006115b86115b384611581565b611532565b83815260208082019190600586811b8601368111156115d657600080fd5b865b818110156116f457803567ffffffffffffffff808211156115f95760008081fd5b818a0191506060823603121561160f5760008081fd5b6116176114e6565b61162083611374565b815286830135600381106116345760008081fd5b818801526040838101358381111561164c5760008081fd5b939093019236601f85011261166357600092508283fd5b833592506116736115b384611581565b83815292871b840188019288810190368511156116905760008081fd5b948901945b848610156116dd5785357fffffffff00000000000000000000000000000000000000000000000000000000811681146116ce5760008081fd5b82529489019490890190611695565b9183019190915250885250509483019483016115d8565b5092979650505050505050565b600061170f6115b384611581565b80848252602080830192508560051b85013681111561172d57600080fd5b855b8181101561182157803567ffffffffffffffff808211156117505760008081fd5b8189019150604082360312156117665760008081fd5b61176e61150f565b61177783611374565b8152858301358281111561178b5760008081fd5b9290920191601f36818501126117a15760008081fd5b8335838111156117b3576117b36114b7565b6117e2887fffffffffffffffffffffffffffffffffffffffffffffffffffffffffffffffe08484011601611532565b935080845236888287010111156117fb57600091508182fd5b80888601898601376000908401880152508086019190915286525093820193820161172f565b50919695505050505050565b60006020828403121561183f57600080fd5b8151801515811461184f57600080fd5b9392505050565b818103818111156102ad577f4e487b7100000000000000000000000000000000000000000000000000000000600052601160045260246000fd5b7f4e487b7100000000000000000000000000000000000000000000000000000000600052602160045260246000fd5b600081518084526020808501808196508360051b8101915082860160005b858110156119c15782840389528151606080860173ffffffffffffffffffffffffffffffffffffffff83511687528783015160038110611946577f4e487b7100000000000000000000000000000000000000000000000000000000600052602160045260246000fd5b87890152604092830151928701919091528151908190529086019060808601906000905b808210156119ac5783517fffffffff0000000000000000000000000000000000000000000000000000000016835292880192918801916001919091019061196a565b505099860199945050908401906001016118dd565b5091979650505050505050565b60005b838110156119e95781810151838201526020016119d1565b50506000910152565b606081526000611a0560608301866118bf565b73ffffffffffffffffffffffffffffffffffffffff8516602084015282810360408401528351808252611a3f8160208401602088016119ce565b601f017fffffffffffffffffffffffffffffffffffffffffffffffffffffffffffffffe0160160200195945050505050565b606081526000611a8460608301856118bf565b73ffffffffffffffffffffffffffffffffffffffff84166020840152828103604084015260008152602081019150509392505050565b7f4e487b7100000000000000000000000000000000000000000000000000000000600052603260045260246000fd5b60008251611afb8184602087016119ce565b919091019291505056fea2646970667358221220123979ef7608d3423ed6221da074ba08579616c71cb1e810cc9be9b6d77995d064736f6c63430008110033",
  "devdoc": {
    "details": "See https://eips.ethereum.org/EIPS/eip-2535Note: This facet depends on {ProxyAdminFacet} and {InterfaceDetectionFacet}.",
    "kind": "dev",
    "methods": {
      "diamondCut((address,uint8,bytes4[])[],(address,bytes)[])": {
        "details": "Reverts if the sender is not the proxy admin.",
        "params": {
          "cuts": "The list of facet addresses, actions and function selectors to apply to the diamond.",
          "initializations": "The list of addresses and encoded function calls to execute with delegatecall."
        }
      },
      "diamondCut((address,uint8,bytes4[])[],address,bytes)": {
        "details": "Reverts if the sender is not the proxy admin.",
        "params": {
          "cuts": "The list of facet addresses, actions and function selectors to apply to the diamond.",
          "data": "The encoded function call to execute on `target`.",
          "target": "The address of the contract to execute `data` on."
        }
      },
      "initDiamondCutStorage()": {
        "details": "Reverts if the sender is not the proxy admin."
      }
    },
    "title": "Diamond Cut (facet version).",
    "version": 1
  },
  "userdoc": {
    "events": {
      "DiamondCut((address,uint8,bytes4[])[],address,bytes)": {
        "notice": "Emitted when at least a cut action is operated on the diamond."
      }
    },
    "kind": "user",
    "methods": {
      "diamondCut((address,uint8,bytes4[])[],(address,bytes)[])": {
        "notice": "Add/replace/remove facet functions and execute a batch of functions with delegatecall."
      },
      "diamondCut((address,uint8,bytes4[])[],address,bytes)": {
        "notice": "Add/replace/remove facet functions and optionally execute a function with delegatecall."
      },
      "initDiamondCutStorage()": {
        "notice": "Marks the following ERC165 interface(s) as supported: DiamondCut, DiamondCutBatchInit."
      }
    },
    "version": 1
  },
  "storageLayout": {
    "storage": [],
    "types": null
  }
}