{
  "address": "0x6e8364f916b521a8eE3E5EFe7EC64eD5E3f39968",
  "abi": [
    {
      "inputs": [
        {
          "internalType": "contract IForwarderRegistry",
          "name": "forwarderRegistry",
          "type": "address"
        }
      ],
      "stateMutability": "nonpayable",
      "type": "constructor"
    },
    {
      "inputs": [
        {
          "internalType": "bytes4",
          "name": "functionSelector",
          "type": "bytes4"
        }
      ],
      "name": "facetAddress",
      "outputs": [
        {
          "internalType": "address",
          "name": "facetAddress_",
          "type": "address"
        }
      ],
      "stateMutability": "view",
      "type": "function"
    },
    {
      "inputs": [],
      "name": "facetAddresses",
      "outputs": [
        {
          "internalType": "address[]",
          "name": "facetAddresses_",
          "type": "address[]"
        }
      ],
      "stateMutability": "view",
      "type": "function"
    },
    {
      "inputs": [
        {
          "internalType": "address",
          "name": "facet",
          "type": "address"
        }
      ],
      "name": "facetFunctionSelectors",
      "outputs": [
        {
          "internalType": "bytes4[]",
          "name": "facetFunctionSelectors_",
          "type": "bytes4[]"
        }
      ],
      "stateMutability": "view",
      "type": "function"
    },
    {
      "inputs": [],
      "name": "facets",
      "outputs": [
        {
          "components": [
            {
              "internalType": "address",
              "name": "facet",
              "type": "address"
            },
            {
              "internalType": "bytes4[]",
              "name": "selectors",
              "type": "bytes4[]"
            }
          ],
          "internalType": "struct IDiamondLoupe.Facet[]",
          "name": "facets_",
          "type": "tuple[]"
        }
      ],
      "stateMutability": "view",
      "type": "function"
    },
    {
      "inputs": [],
      "name": "initDiamondLoupeStorage",
      "outputs": [],
      "stateMutability": "nonpayable",
      "type": "function"
    }
  ],
  "transactionHash": "0x878c8c65735e84d0a43f4343e8f28b2ebfb084d96114a0fe1f249925c3fccfd7",
  "args": [
    "0x3f547F87251710F70109Ae0409d461b270709693"
  ],
  "numDeployments": 1,
  "solcInputHash": "a6ab94751dde68b4d6125ac6f179d1ce",
  "bytecode": "0x60a060405234801561001057600080fd5b50604051610fe9380380610fe983398101604081905261002f91610040565b6001600160a01b0316608052610070565b60006020828403121561005257600080fd5b81516001600160a01b038116811461006957600080fd5b9392505050565b608051610f57610092600039600081816101f101526102790152610f576000f3fe608060405234801561001057600080fd5b50600436106100675760003560e01c80637a0ed627116100505780637a0ed62714610094578063adfca15e146100a9578063cdffacc6146100c957600080fd5b80634fe5dd791461006c57806352ef6b2c14610076575b600080fd5b610074610101565b005b61007e610124565b60405161008b9190610c76565b60405180910390f35b61009c61013b565b60405161008b9190610d2d565b6100bc6100b7366004610dd5565b61014d565b60405161008b9190610e12565b6100dc6100d7366004610e25565b610167565b60405173ffffffffffffffffffffffffffffffffffffffff909116815260200161008b565b61011a61010c6101ae565b6101146102f5565b90610323565b6101226103af565b565b60606101366101316103e4565b610412565b905090565b60606101366101486103e4565b6105c7565b60606101618261015b6103e4565b906109eb565b92915050565b6000610161826101756103e4565b907fffffffff00000000000000000000000000000000000000000000000000000000166000908152602091909152604090205460601c90565b6000333214806101be5750601836105b156101c857503390565b7fffffffffffffffffffffffffffffffffffffffffffffffffffffffffffffffec36013560601c7f000000000000000000000000000000000000000000000000000000000000000073ffffffffffffffffffffffffffffffffffffffff163314806102e457506040517f8929a8ca00000000000000000000000000000000000000000000000000000000815273ffffffffffffffffffffffffffffffffffffffff82811660048301523360248301527f00000000000000000000000000000000000000000000000000000000000000001690638929a8ca90604401602060405180830381865afa1580156102c0573d6000803e3d6000fd5b505050506040513d601f19601f820116820180604052508101906102e49190610e67565b156102ee57919050565b3391505090565b60008061016160017fb53127684a568b3173ae13b9f8a6016e243e63b6e8ee1178d6a717850b5d6104610e89565b815473ffffffffffffffffffffffffffffffffffffffff8281169116146103ab576040517f08c379a000000000000000000000000000000000000000000000000000000000815260206004820152601960248201527f50726f787941646d696e3a206e6f74207468652061646d696e0000000000000060448201526064015b60405180910390fd5b5050565b6101227f48e2b0930000000000000000000000000000000000000000000000000000000060016103dd610b3c565b9190610b6a565b60008061016160017f65d27473a5b05206737961f69a3b7a55316862d7a6ef82b3f5455fe92fab43e3610e89565b600181015460609061ffff168067ffffffffffffffff81111561043757610437610ec3565b604051908082528060200260200182016040528015610460578160200160208202803683370190505b50915060008060005b8361ffff168210156105bd576000818152600287016020526040812054905b806008146105b3578360010193508561ffff1684116105b357600581901b82901b7fffffffff000000000000000000000000000000000000000000000000000000008116600090815260208a9052604081205460601c90805b888114610545578a81815181106104fa576104fa610ef2565b602002602001015173ffffffffffffffffffffffffffffffffffffffff168373ffffffffffffffffffffffffffffffffffffffff160361053d5760019150610545565b6001016104e1565b508015610554575050506105ab565b818a898151811061056757610567610ef2565b602002602001019073ffffffffffffffffffffffffffffffffffffffff16908173ffffffffffffffffffffffffffffffffffffffff16815250508760010197505050505b600101610488565b5050600101610469565b5050825250919050565b600181015460609061ffff168067ffffffffffffffff8111156105ec576105ec610ec3565b60405190808252806020026020018201604052801561063257816020015b60408051808201909152600081526060602082015281526020019060019003908161060a5790505b50915060008161ffff1667ffffffffffffffff81111561065457610654610ec3565b60405190808252806020026020018201604052801561067d578160200160208202803683370190505b50905060008060005b8461ffff16821015610987576000818152600288016020526040812054905b8060081461097d578360010193508661ffff16841161097d57600581901b82901b7fffffffff000000000000000000000000000000000000000000000000000000008116600090815260208b9052604081205460601c90805b88811461081f578273ffffffffffffffffffffffffffffffffffffffff168c828151811061072e5761072e610ef2565b60200260200101516000015173ffffffffffffffffffffffffffffffffffffffff160361081757838c828151811061076857610768610ef2565b6020026020010151602001518b838151811061078657610786610ef2565b60200260200101518151811061079e5761079e610ef2565b60200260200101907bffffffffffffffffffffffffffffffffffffffffffffffffffffffff191690817bffffffffffffffffffffffffffffffffffffffffffffffffffffffff1916815250508981815181106107fc576107fc610ef2565b6020026020010180516001019081815250506001915061081f565b6001016106fe565b50801561082e57505050610975565b818b898151811061084157610841610ef2565b602090810291909101015173ffffffffffffffffffffffffffffffffffffffff909116905261ffff8a1667ffffffffffffffff81111561088357610883610ec3565b6040519080825280602002602001820160405280156108ac578160200160208202803683370190505b508b89815181106108bf576108bf610ef2565b602002602001015160200181905250828b89815181106108e1576108e1610ef2565b6020026020010151602001516000815181106108ff576108ff610ef2565b60200260200101907bffffffffffffffffffffffffffffffffffffffffffffffffffffffff191690817bffffffffffffffffffffffffffffffffffffffffffffffffffffffff191681525050600189898151811061095f5761095f610ef2565b6020026020010181815250508760010197505050505b6001016106a5565b5050600101610686565b5060005b8281146109df5760008482815181106109a6576109a6610ef2565b6020026020010151905060008783815181106109c4576109c4610ef2565b6020908102919091018101510151919091525060010161098b565b50508352509092915050565b600182015460609061ffff168067ffffffffffffffff811115610a1057610a10610ec3565b604051908082528060200260200182016040528015610a39578160200160208202803683370190505b50915060008060005b8361ffff16821015610b31576000818152600288016020526040812054905b80600814610b27578360010193508561ffff168411610b2757600581901b82901b7fffffffff000000000000000000000000000000000000000000000000000000008116600090815260208b9052604090205460601c73ffffffffffffffffffffffffffffffffffffffff8a1603610b1e5780888781518110610ae657610ae6610ef2565b7fffffffff00000000000000000000000000000000000000000000000000000000909216602092830291909101909101526001909501945b50600101610a61565b5050600101610a42565b505082525092915050565b60008061016160017fca9d3e17f264b0f3984e2634e94adb37fa3e6a8103f06aeae6fa59e21c769f5e610e89565b7c01000000000000000000000000000000000000000000000000000000007fffffffff00000000000000000000000000000000000000000000000000000000831601610c12576040517f08c379a000000000000000000000000000000000000000000000000000000000815260206004820152601f60248201527f496e74657266616365446574656374696f6e3a2077726f6e672076616c75650060448201526064016103a2565b7fffffffff00000000000000000000000000000000000000000000000000000000919091166000908152602092909252604090912080547fffffffffffffffffffffffffffffffffffffffffffffffffffffffffffffff0016911515919091179055565b6020808252825182820181905260009190848201906040850190845b81811015610cc457835173ffffffffffffffffffffffffffffffffffffffff1683529284019291840191600101610c92565b50909695505050505050565b600081518084526020808501945080840160005b83811015610d225781517fffffffff000000000000000000000000000000000000000000000000000000001687529582019590820190600101610ce4565b509495945050505050565b60006020808301818452808551808352604092508286019150828160051b87010184880160005b83811015610dc7578883037fffffffffffffffffffffffffffffffffffffffffffffffffffffffffffffffc00185528151805173ffffffffffffffffffffffffffffffffffffffff168452870151878401879052610db487850182610cd0565b9588019593505090860190600101610d54565b509098975050505050505050565b600060208284031215610de757600080fd5b813573ffffffffffffffffffffffffffffffffffffffff81168114610e0b57600080fd5b9392505050565b602081526000610e0b6020830184610cd0565b600060208284031215610e3757600080fd5b81357fffffffff0000000000000000000000000000000000000000000000000000000081168114610e0b57600080fd5b600060208284031215610e7957600080fd5b81518015158114610e0b57600080fd5b81810381811115610161577f4e487b7100000000000000000000000000000000000000000000000000000000600052601160045260246000fd5b7f4e487b7100000000000000000000000000000000000000000000000000000000600052604160045260246000fd5b7f4e487b7100000000000000000000000000000000000000000000000000000000600052603260045260246000fdfea26469706673582212203aa6c50ac1fd25f0bfdb0e389e142badffa38533390730696a45c39001802a8864736f6c63430008110033",
  "devdoc": {
    "details": "See https://eips.ethereum.org/EIPS/eip-2535Note: This facet depends on {ProxyAdminFacet} and {InterfaceDetectionFacet}.",
    "kind": "dev",
    "methods": {
      "facetAddress(bytes4)": {
        "params": {
          "functionSelector": "The function selector."
        },
        "returns": {
          "facetAddress_": "The facet address that supports `functionSelector`, or the zero address if the facet is not found."
        }
      },
      "facetAddresses()": {
        "returns": {
          "facetAddresses_": "The facet addresses used by the diamond."
        }
      },
      "facetFunctionSelectors(address)": {
        "params": {
          "facetAddress": "The facet address."
        },
        "returns": {
          "facetFunctionSelectors_": "The function selectors supported by `facet`."
        }
      },
      "facets()": {
        "returns": {
          "facets_": "The facet addresses used by the diamond and their function selectors."
        }
      },
      "initDiamondLoupeStorage()": {
        "details": "Reverts if the sender is not the proxy admin."
      }
    },
    "title": "Diamond Loupe (facet version).",
    "version": 1
  },
  "userdoc": {
    "kind": "user",
    "methods": {
      "facetAddress(bytes4)": {
        "notice": "Gets the facet address that supports a given function selector."
      },
      "facetAddresses()": {
        "notice": "Get all the facet addresses used by the diamond."
      },
      "facetFunctionSelectors(address)": {
        "notice": "Gets all the function selectors supported by a facet."
      },
      "facets()": {
        "notice": "Gets all the facet addresses used by the diamond and their function selectors."
      },
      "initDiamondLoupeStorage()": {
        "notice": "Marks the following ERC165 interface(s) as supported: DiamondLoupe."
      }
    },
    "version": 1
  },
  "storageLayout": {
    "storage": [],
    "types": null
  }
}