{
  "address": "0x6d4E15cf6775dA6411fc255338D704909E347141",
  "abi": [
    {
      "inputs": [
        {
          "internalType": "contract IForwarderRegistry",
          "name": "forwarderRegistry",
          "type": "address"
        }
      ],
      "stateMutability": "nonpayable",
      "type": "constructor"
    },
    {
      "inputs": [
        {
          "internalType": "uint256[]",
          "name": "ids",
          "type": "uint256[]"
        },
        {
          "internalType": "string[]",
          "name": "metadataURIs",
          "type": "string[]"
        }
      ],
      "name": "batchSetTokenURI",
      "outputs": [],
      "stateMutability": "nonpayable",
      "type": "function"
    },
    {
      "inputs": [],
      "name": "initERC1155MetadataURIStorage",
      "outputs": [],
      "stateMutability": "nonpayable",
      "type": "function"
    },
    {
      "inputs": [
        {
          "internalType": "uint256",
          "name": "id",
          "type": "uint256"
        },
        {
          "internalType": "string",
          "name": "metadataURI",
          "type": "string"
        }
      ],
      "name": "setTokenURI",
      "outputs": [],
      "stateMutability": "nonpayable",
      "type": "function"
    },
    {
      "inputs": [
        {
          "internalType": "uint256",
          "name": "id",
          "type": "uint256"
        }
      ],
      "name": "uri",
      "outputs": [
        {
          "internalType": "string",
          "name": "metadataURI",
          "type": "string"
        }
      ],
      "stateMutability": "view",
      "type": "function"
    }
  ],
  "transactionHash": "0xe5d80ff1a01cb4f24d7226896751deb34d86f9fd8a97782be52b68a9f88e9287",
  "args": [
    "0x3f547F87251710F70109Ae0409d461b270709693"
  ],
  "numDeployments": 1,
  "solcInputHash": "a6ab94751dde68b4d6125ac6f179d1ce",
  "bytecode": "0x60a060405234801561001057600080fd5b50604051610f1f380380610f1f83398101604081905261002f91610040565b6001600160a01b0316608052610070565b60006020828403121561005257600080fd5b81516001600160a01b038116811461006957600080fd5b9392505050565b608051610e8d6100926000396000818161057801526106000152610e8d6000f3fe608060405234801561001057600080fd5b506004361061004c5760003560e01c80630e89341c14610051578063162094c41461007a5780636706467b1461008f578063f310ed79146100a2575b600080fd5b61006461005f366004610948565b6100aa565b6040516100719190610985565b60405180910390f35b61008d6100883660046109d6565b6100c4565b005b61008d61009d366004610a9e565b61011a565b61008d610164565b60606100be826100b8610187565b906101b5565b92915050565b6100ff7f6d696e74657200000000000000000000000000000000000000000000000000006100f0610258565b6100f8610267565b9190610295565b61011583838361010d610187565b92919061034a565b505050565b6101467f6d696e74657200000000000000000000000000000000000000000000000000006100f0610258565b61015e84848484610155610187565b9392919061036a565b50505050565b61017d61016f610258565b61017761044b565b90610479565b610185610500565b565b6000806100be60017f10425d47eba0194223d0d18d437db44682fcfacfc9f759b1b8092cc8a56516aa610b0a565b60008181526020839052604090208054606091906101d290610b44565b80601f01602080910402602001604051908101604052809291908181526020018280546101fe90610b44565b801561024b5780601f106102205761010080835404028352916020019161024b565b820191906000526020600020905b81548152906001019060200180831161022e57829003601f168201915b5050505050905092915050565b6000610262610535565b905090565b6000806100be60017fc8827d3282af6f37b64c3e9e6f3ac9df286ab0bb0fccd6f8661bf19adb368b23610b0a565b60008281526020848152604080832073ffffffffffffffffffffffffffffffffffffffff8516845290915290205460ff16610115576102d38261067c565b6040516020016102e39190610b97565b604080517fffffffffffffffffffffffffffffffffffffffffffffffffffffffffffffffe0818403018152908290527f08c379a000000000000000000000000000000000000000000000000000000000825261034191600401610985565b60405180910390fd5b6000838152602085905260409020610363828483610c80565b5050505050565b828181146103d4576040517f08c379a000000000000000000000000000000000000000000000000000000000815260206004820152601d60248201527f4d657461646174613a20696e636f6e73697374656e74206172726179730000006044820152606401610341565b60005b818114610442578383828181106103f0576103f0610d9a565b90506020028101906104029190610dc9565b88600089898681811061041757610417610d9a565b9050602002013581526020019081526020016000209182610439929190610c80565b506001016103d7565b50505050505050565b6000806100be60017fb53127684a568b3173ae13b9f8a6016e243e63b6e8ee1178d6a717850b5d6104610b0a565b815473ffffffffffffffffffffffffffffffffffffffff8281169116146104fc576040517f08c379a000000000000000000000000000000000000000000000000000000000815260206004820152601960248201527f50726f787941646d696e3a206e6f74207468652061646d696e000000000000006044820152606401610341565b5050565b6101857f0e89341c00000000000000000000000000000000000000000000000000000000600161052e61080e565b919061083c565b6000333214806105455750601836105b1561054f57503390565b7fffffffffffffffffffffffffffffffffffffffffffffffffffffffffffffffec36013560601c7f000000000000000000000000000000000000000000000000000000000000000073ffffffffffffffffffffffffffffffffffffffff1633148061066b57506040517f8929a8ca00000000000000000000000000000000000000000000000000000000815273ffffffffffffffffffffffffffffffffffffffff82811660048301523360248301527f00000000000000000000000000000000000000000000000000000000000000001690638929a8ca90604401602060405180830381865afa158015610647573d6000803e3d6000fd5b505050506040513d601f19601f8201168201806040525081019061066b9190610e2e565b1561067557919050565b3391505090565b6060600082900361069b57505060408051602081019091526000815290565b6000826040516020016106b091815260200190565b604080517fffffffffffffffffffffffffffffffffffffffffffffffffffffffffffffffe08184030181529190529050601f5b8181815181106106f5576106f5610d9a565b01602001517fff000000000000000000000000000000000000000000000000000000000000001660000361074a577fffffffffffffffffffffffffffffffffffffffffffffffffffffffffffffffff016106e3565b60008160010167ffffffffffffffff81111561076857610768610c03565b6040519080825280601f01601f191660200182016040528015610792576020820181803683370190505b50905060005b828111610805578381815181106107b1576107b1610d9a565b602001015160f81c60f81b8282815181106107ce576107ce610d9a565b60200101907effffffffffffffffffffffffffffffffffffffffffffffffffffffffffffff1916908160001a905350600101610798565b50949350505050565b6000806100be60017fca9d3e17f264b0f3984e2634e94adb37fa3e6a8103f06aeae6fa59e21c769f5e610b0a565b7c01000000000000000000000000000000000000000000000000000000007fffffffff000000000000000000000000000000000000000000000000000000008316016108e4576040517f08c379a000000000000000000000000000000000000000000000000000000000815260206004820152601f60248201527f496e74657266616365446574656374696f6e3a2077726f6e672076616c7565006044820152606401610341565b7fffffffff00000000000000000000000000000000000000000000000000000000919091166000908152602092909252604090912080547fffffffffffffffffffffffffffffffffffffffffffffffffffffffffffffff0016911515919091179055565b60006020828403121561095a57600080fd5b5035919050565b60005b8381101561097c578181015183820152602001610964565b50506000910152565b60208152600082518060208401526109a4816040850160208701610961565b601f017fffffffffffffffffffffffffffffffffffffffffffffffffffffffffffffffe0169190910160400192915050565b6000806000604084860312156109eb57600080fd5b83359250602084013567ffffffffffffffff80821115610a0a57600080fd5b818601915086601f830112610a1e57600080fd5b813581811115610a2d57600080fd5b876020828501011115610a3f57600080fd5b6020830194508093505050509250925092565b60008083601f840112610a6457600080fd5b50813567ffffffffffffffff811115610a7c57600080fd5b6020830191508360208260051b8501011115610a9757600080fd5b9250929050565b60008060008060408587031215610ab457600080fd5b843567ffffffffffffffff80821115610acc57600080fd5b610ad888838901610a52565b90965094506020870135915080821115610af157600080fd5b50610afe87828801610a52565b95989497509550505050565b818103818111156100be577f4e487b7100000000000000000000000000000000000000000000000000000000600052601160045260246000fd5b600181811c90821680610b5857607f821691505b602082108103610b91577f4e487b7100000000000000000000000000000000000000000000000000000000600052602260045260246000fd5b50919050565b7f416363657373436f6e74726f6c3a206d697373696e6720270000000000000000815260008251610bcf816018850160208701610961565b7f2720726f6c6500000000000000000000000000000000000000000000000000006018939091019283015250601e01919050565b7f4e487b7100000000000000000000000000000000000000000000000000000000600052604160045260246000fd5b601f82111561011557600081815260208120601f850160051c81016020861015610c595750805b601f850160051c820191505b81811015610c7857828155600101610c65565b505050505050565b67ffffffffffffffff831115610c9857610c98610c03565b610cac83610ca68354610b44565b83610c32565b6000601f841160018114610cfe5760008515610cc85750838201355b7fffffffffffffffffffffffffffffffffffffffffffffffffffffffffffffffff600387901b1c1916600186901b178355610363565b6000838152602090207fffffffffffffffffffffffffffffffffffffffffffffffffffffffffffffffe0861690835b82811015610d4d5786850135825560209485019460019092019101610d2d565b5086821015610d88577fffffffffffffffffffffffffffffffffffffffffffffffffffffffffffffffff60f88860031b161c19848701351681555b505060018560011b0183555050505050565b7f4e487b7100000000000000000000000000000000000000000000000000000000600052603260045260246000fd5b60008083357fffffffffffffffffffffffffffffffffffffffffffffffffffffffffffffffe1843603018112610dfe57600080fd5b83018035915067ffffffffffffffff821115610e1957600080fd5b602001915036819003821315610a9757600080fd5b600060208284031215610e4057600080fd5b81518015158114610e5057600080fd5b939250505056fea2646970667358221220da1e4860d22360302daefc8782852b61451f7d524afe56c5bace2a25a6d0754764736f6c63430008110033",
  "devdoc": {
    "details": "This contract is to be used as a diamond facet (see ERC2535 Diamond Standard https://eips.ethereum.org/EIPS/eip-2535).Note: This facet depends on {ProxyAdminFacet}, and {InterfaceDetectionFacet}.",
    "kind": "dev",
    "methods": {
      "batchSetTokenURI(uint256[],string[])": {
        "details": "Reverts if the sender does not have the 'minter' role.",
        "params": {
          "ids": "The token identifiers.",
          "metadataURIs": "The token metadata URIs."
        }
      },
      "initERC1155MetadataURIStorage()": {
        "details": "Reverts if the sender is not the proxy admin."
      },
      "setTokenURI(uint256,string)": {
        "details": "Reverts if the sender does not have the 'minter' role.",
        "params": {
          "id": "The token identifier.",
          "metadataURI": "The token metadata URI."
        }
      },
      "uri(uint256)": {
        "details": "URIs are defined in RFC 3986.The URI MUST point to a JSON file that conforms to the \"ERC1155 Metadata URI JSON Schema\".The uri function SHOULD be used to retrieve values if no event was emitted.The uri function MUST return the same value as the latest event for an _id if it was emitted.The uri function MUST NOT be used to check for the existence of a token as it is possible for  an implementation to return a valid string even if the token does not exist.",
        "returns": {
          "metadataURI": "The URI associated to the token."
        }
      }
    },
    "title": "ERC1155 Multi Token Standard, optional extension: Metadata URI (facet version).",
    "version": 1
  },
  "userdoc": {
    "kind": "user",
    "methods": {
      "batchSetTokenURI(uint256[],string[])": {
        "notice": "Sets the metadata URIs for a batch of tokens."
      },
      "initERC1155MetadataURIStorage()": {
        "notice": "Marks the following ERC165 interfaces as supported: ERC1155MetadataURI."
      },
      "setTokenURI(uint256,string)": {
        "notice": "Sets the metadata URI for a token."
      },
      "uri(uint256)": {
        "notice": "Retrieves the URI for a given token."
      }
    },
    "notice": "ERC1155MetadataURI implementation where tokenURIs are set individually per token.",
    "version": 1
  },
  "storageLayout": {
    "storage": [],
    "types": null
  }
}