{
  "address": "0xde170CaeB72aF4258Efc141ad4D5f142Ab30a8E6",
  "abi": [
    {
      "inputs": [
        {
          "internalType": "contract IForwarderRegistry",
          "name": "forwarderRegistry",
          "type": "address"
        }
      ],
      "stateMutability": "nonpayable",
      "type": "constructor"
    },
    {
      "inputs": [
        {
          "internalType": "address",
          "name": "operator",
          "type": "address"
        }
      ],
      "name": "OperatorNotAllowed",
      "type": "error"
    },
    {
      "anonymous": false,
      "inputs": [
        {
          "indexed": true,
          "internalType": "address",
          "name": "owner",
          "type": "address"
        },
        {
          "indexed": true,
          "internalType": "address",
          "name": "operator",
          "type": "address"
        },
        {
          "indexed": false,
          "internalType": "bool",
          "name": "approved",
          "type": "bool"
        }
      ],
      "name": "ApprovalForAll",
      "type": "event"
    },
    {
      "anonymous": false,
      "inputs": [
        {
          "indexed": true,
          "internalType": "address",
          "name": "operator",
          "type": "address"
        },
        {
          "indexed": true,
          "internalType": "address",
          "name": "from",
          "type": "address"
        },
        {
          "indexed": true,
          "internalType": "address",
          "name": "to",
          "type": "address"
        },
        {
          "indexed": false,
          "internalType": "uint256[]",
          "name": "ids",
          "type": "uint256[]"
        },
        {
          "indexed": false,
          "internalType": "uint256[]",
          "name": "values",
          "type": "uint256[]"
        }
      ],
      "name": "TransferBatch",
      "type": "event"
    },
    {
      "anonymous": false,
      "inputs": [
        {
          "indexed": true,
          "internalType": "address",
          "name": "operator",
          "type": "address"
        },
        {
          "indexed": true,
          "internalType": "address",
          "name": "from",
          "type": "address"
        },
        {
          "indexed": true,
          "internalType": "address",
          "name": "to",
          "type": "address"
        },
        {
          "indexed": false,
          "internalType": "uint256",
          "name": "id",
          "type": "uint256"
        },
        {
          "indexed": false,
          "internalType": "uint256",
          "name": "value",
          "type": "uint256"
        }
      ],
      "name": "TransferSingle",
      "type": "event"
    },
    {
      "anonymous": false,
      "inputs": [
        {
          "indexed": false,
          "internalType": "string",
          "name": "value",
          "type": "string"
        },
        {
          "indexed": true,
          "internalType": "uint256",
          "name": "id",
          "type": "uint256"
        }
      ],
      "name": "URI",
      "type": "event"
    },
    {
      "inputs": [
        {
          "internalType": "address",
          "name": "owner",
          "type": "address"
        },
        {
          "internalType": "uint256",
          "name": "id",
          "type": "uint256"
        }
      ],
      "name": "balanceOf",
      "outputs": [
        {
          "internalType": "uint256",
          "name": "balance",
          "type": "uint256"
        }
      ],
      "stateMutability": "view",
      "type": "function"
    },
    {
      "inputs": [
        {
          "internalType": "address[]",
          "name": "owners",
          "type": "address[]"
        },
        {
          "internalType": "uint256[]",
          "name": "ids",
          "type": "uint256[]"
        }
      ],
      "name": "balanceOfBatch",
      "outputs": [
        {
          "internalType": "uint256[]",
          "name": "balances",
          "type": "uint256[]"
        }
      ],
      "stateMutability": "view",
      "type": "function"
    },
    {
      "inputs": [],
      "name": "initERC1155Storage",
      "outputs": [],
      "stateMutability": "nonpayable",
      "type": "function"
    },
    {
      "inputs": [
        {
          "internalType": "address",
          "name": "owner",
          "type": "address"
        },
        {
          "internalType": "address",
          "name": "operator",
          "type": "address"
        }
      ],
      "name": "isApprovedForAll",
      "outputs": [
        {
          "internalType": "bool",
          "name": "approvedForAll",
          "type": "bool"
        }
      ],
      "stateMutability": "view",
      "type": "function"
    },
    {
      "inputs": [
        {
          "internalType": "address",
          "name": "from",
          "type": "address"
        },
        {
          "internalType": "address",
          "name": "to",
          "type": "address"
        },
        {
          "internalType": "uint256[]",
          "name": "ids",
          "type": "uint256[]"
        },
        {
          "internalType": "uint256[]",
          "name": "values",
          "type": "uint256[]"
        },
        {
          "internalType": "bytes",
          "name": "data",
          "type": "bytes"
        }
      ],
      "name": "safeBatchTransferFrom",
      "outputs": [],
      "stateMutability": "nonpayable",
      "type": "function"
    },
    {
      "inputs": [
        {
          "internalType": "address",
          "name": "from",
          "type": "address"
        },
        {
          "internalType": "address",
          "name": "to",
          "type": "address"
        },
        {
          "internalType": "uint256",
          "name": "id",
          "type": "uint256"
        },
        {
          "internalType": "uint256",
          "name": "value",
          "type": "uint256"
        },
        {
          "internalType": "bytes",
          "name": "data",
          "type": "bytes"
        }
      ],
      "name": "safeTransferFrom",
      "outputs": [],
      "stateMutability": "nonpayable",
      "type": "function"
    },
    {
      "inputs": [
        {
          "internalType": "address",
          "name": "operator",
          "type": "address"
        },
        {
          "internalType": "bool",
          "name": "approved",
          "type": "bool"
        }
      ],
      "name": "setApprovalForAll",
      "outputs": [],
      "stateMutability": "nonpayable",
      "type": "function"
    }
  ],
  "transactionHash": "0x1c211aec6faee269e58a6395f4d19ffdf32ea8798bf5a8166fe4b78a835920ca",
  "args": [
    "0x3f547F87251710F70109Ae0409d461b270709693"
  ],
  "numDeployments": 1,
  "solcInputHash": "a6ab94751dde68b4d6125ac6f179d1ce",
  "bytecode": "0x60a060405234801561001057600080fd5b50604051611a6a380380611a6a83398101604081905261002f91610040565b6001600160a01b0316608052610070565b60006020828403121561005257600080fd5b81516001600160a01b038116811461006957600080fd5b9392505050565b6080516119d861009260003960008181610c920152610d1a01526119d86000f3fe608060405234801561001057600080fd5b506004361061007c5760003560e01c8063a22cb4651161005b578063a22cb465146100dc578063c34106c8146100ef578063e985e9c5146100f7578063f242432a1461011a57600080fd5b8062fdd58e146100815780632eb2c2d6146100a75780634e1273f4146100bc575b600080fd5b61009461008f3660046113d8565b61012d565b6040519081526020015b60405180910390f35b6100ba6100b5366004611490565b61014c565b005b6100cf6100ca36600461154b565b610199565b60405161009e91906115f2565b6100ba6100ea366004611616565b6101bc565b6100ba6101f5565b61010a61010536600461164d565b610218565b604051901515815260200161009e565b6100ba610128366004611680565b610266565b6000610143838361013c6102a6565b91906102d4565b90505b92915050565b600061015661038d565b905061016c818a61016561039c565b91906103ca565b61018e818a8a8a8a8a8a8a8a6101806102a6565b98979695949392919061040c565b505050505050505050565b60606101b3858585856101aa6102a6565b93929190610704565b95945050505050565b80156101d4576101d4826101ce61039c565b90610842565b6101f16101df61038d565b83836101e96102a6565b92919061084c565b5050565b61020e61020061038d565b61020861097c565b906109aa565b610216610a2d565b565b600061014383836102276102a6565b919073ffffffffffffffffffffffffffffffffffffffff9182166000908152600193909301602090815260408085209290931684525290205460ff1690565b600061027061038d565b905061027f818861016561039c565b61029d818888888888886102916102a6565b96959493929190610a62565b50505050505050565b60008061014660017f5ccf5846fa27a68fafc8e588671a68f5e67c2f9b56af4263806a4d71735e86136116f8565b600073ffffffffffffffffffffffffffffffffffffffff8316610358576040517f08c379a000000000000000000000000000000000000000000000000000000000815260206004820152601e60248201527f455243313135353a2062616c616e6365206f662061646472657373283029000060448201526064015b60405180910390fd5b5060009081526020928352604080822073ffffffffffffffffffffffffffffffffffffffff9390931682529190925290205490565b6000610397610c4f565b905090565b60008061014660017f609b85bcafa81ecfaf3ff62cdde2c6c9082a68dbe4922f07399c706bdeb7cd316116f8565b8073ffffffffffffffffffffffffffffffffffffffff168273ffffffffffffffffffffffffffffffffffffffff1614610407576104078383610d96565b505050565b73ffffffffffffffffffffffffffffffffffffffff8716610489576040517f08c379a000000000000000000000000000000000000000000000000000000000815260206004820152601f60248201527f455243313135353a207472616e7366657220746f206164647265737328302900604482015260640161034f565b848381146104f3576040517f08c379a000000000000000000000000000000000000000000000000000000000815260206004820152601c60248201527f455243313135353a20696e636f6e73697374656e742061727261797300000000604482015260640161034f565b6104fe8b8a8c610ebd565b610564576040517f08c379a000000000000000000000000000000000000000000000000000000000815260206004820152601c60248201527f455243313135353a206e6f6e2d617070726f7665642073656e64657200000000604482015260640161034f565b60005b8181146105b3576105ab8c8b8b8b8b8681811061058657610586611732565b905060200201358a8a8781811061059f5761059f611732565b90506020020135610f35565b600101610567565b508773ffffffffffffffffffffffffffffffffffffffff168973ffffffffffffffffffffffffffffffffffffffff168b73ffffffffffffffffffffffffffffffffffffffff167f4a39dc06d4c0dbc64b70af90fd698a233a518aa5d07e595d983b8c0526c8f7fb8a8a8a8a60405161062e94939291906117ac565b60405180910390a473ffffffffffffffffffffffffffffffffffffffff88163b156106f7576106f78a8a8a8a8a8080602002602001604051908101604052809392919081815260200183836020028082843760009201919091525050604080516020808e0282810182019093528d82529093508d92508c91829185019084908082843760009201919091525050604080516020601f8d018190048102820181019092528b815292508b91508a90819084018382808284376000920191909152506110e992505050565b5050505050505050505050565b606083828114610770576040517f08c379a000000000000000000000000000000000000000000000000000000000815260206004820152601c60248201527f455243313135353a20696e636f6e73697374656e742061727261797300000000604482015260640161034f565b8467ffffffffffffffff811115610789576107896117de565b6040519080825280602002602001820160405280156107b2578160200160208202803683370190505b50915060005b818114610837576108128787838181106107d4576107d4611732565b90506020020160208101906107e9919061180d565b8686848181106107fb576107fb611732565b905060200201358a6102d49092919063ffffffff16565b83828151811061082457610824611732565b60209081029190910101526001016107b8565b505095945050505050565b6101f18282610d96565b8273ffffffffffffffffffffffffffffffffffffffff168273ffffffffffffffffffffffffffffffffffffffff16036108e1576040517f08c379a000000000000000000000000000000000000000000000000000000000815260206004820152601e60248201527f455243313135353a2073656c662d617070726f76616c20666f7220616c6c0000604482015260640161034f565b73ffffffffffffffffffffffffffffffffffffffff838116600081815260018701602090815260408083209487168084529482529182902080547fffffffffffffffffffffffffffffffffffffffffffffffffffffffffffffff001686151590811790915591519182527f17307eab39ab6107e8899845ad3d59bd9653f200f220920489ca2b5937696c31910160405180910390a350505050565b60008061014660017fb53127684a568b3173ae13b9f8a6016e243e63b6e8ee1178d6a717850b5d61046116f8565b815473ffffffffffffffffffffffffffffffffffffffff8281169116146101f1576040517f08c379a000000000000000000000000000000000000000000000000000000000815260206004820152601960248201527f50726f787941646d696e3a206e6f74207468652061646d696e00000000000000604482015260640161034f565b6102167fd9b67a26000000000000000000000000000000000000000000000000000000006001610a5b611219565b9190611247565b73ffffffffffffffffffffffffffffffffffffffff8516610adf576040517f08c379a000000000000000000000000000000000000000000000000000000000815260206004820152601f60248201527f455243313135353a207472616e7366657220746f206164647265737328302900604482015260640161034f565b610aea888789610ebd565b610b50576040517f08c379a000000000000000000000000000000000000000000000000000000000815260206004820152601c60248201527f455243313135353a206e6f6e2d617070726f7665642073656e64657200000000604482015260640161034f565b610b5d8887878787610f35565b8473ffffffffffffffffffffffffffffffffffffffff168673ffffffffffffffffffffffffffffffffffffffff168873ffffffffffffffffffffffffffffffffffffffff167fc3d58168c5ae7397731d063d5bbf3d657854427343f4c083240f7aacaa2d0f628787604051610bdc929190918252602082015260400190565b60405180910390a473ffffffffffffffffffffffffffffffffffffffff85163b15610c4557610c45878787878787878080601f01602080910402602001604051908101604052809392919081815260200183838082843760009201919091525061135392505050565b5050505050505050565b600033321480610c5f5750601836105b15610c6957503390565b7fffffffffffffffffffffffffffffffffffffffffffffffffffffffffffffffec36013560601c7f000000000000000000000000000000000000000000000000000000000000000073ffffffffffffffffffffffffffffffffffffffff16331480610d8557506040517f8929a8ca00000000000000000000000000000000000000000000000000000000815273ffffffffffffffffffffffffffffffffffffffff82811660048301523360248301527f00000000000000000000000000000000000000000000000000000000000000001690638929a8ca90604401602060405180830381865afa158015610d61573d6000803e3d6000fd5b505050506040513d601f19601f82011682018060405250810190610d859190611828565b15610d8f57919050565b3391505090565b815473ffffffffffffffffffffffffffffffffffffffff168015801590610dd4575060008173ffffffffffffffffffffffffffffffffffffffff163b115b15610407576040517fc617113400000000000000000000000000000000000000000000000000000000815230600482015273ffffffffffffffffffffffffffffffffffffffff838116602483015282169063c617113490604401602060405180830381865afa158015610e4b573d6000803e3d6000fd5b505050506040513d601f19601f82011682018060405250810190610e6f9190611828565b610407576040517fede71dcc00000000000000000000000000000000000000000000000000000000815273ffffffffffffffffffffffffffffffffffffffff8316600482015260240161034f565b60008173ffffffffffffffffffffffffffffffffffffffff168373ffffffffffffffffffffffffffffffffffffffff161480610f2d575073ffffffffffffffffffffffffffffffffffffffff808416600090815260018601602090815260408083209386168352929052205460ff165b949350505050565b80156110e25760008281526020868152604080832073ffffffffffffffffffffffffffffffffffffffff88168452909152902054818103818110610fd5576040517f08c379a000000000000000000000000000000000000000000000000000000000815260206004820152601d60248201527f455243313135353a20696e73756666696369656e742062616c616e6365000000604482015260640161034f565b8473ffffffffffffffffffffffffffffffffffffffff168673ffffffffffffffffffffffffffffffffffffffff161461029d5760008481526020888152604080832073ffffffffffffffffffffffffffffffffffffffff891684529091529020548381018181116110a2576040517f08c379a000000000000000000000000000000000000000000000000000000000815260206004820152601960248201527f455243313135353a2062616c616e6365206f766572666c6f7700000000000000604482015260640161034f565b600086815260208a8152604080832073ffffffffffffffffffffffffffffffffffffffff808d1685528184528285208890558b1684529091529020555050505b5050505050565b6040517fbc197c81000000000000000000000000000000000000000000000000000000008082529073ffffffffffffffffffffffffffffffffffffffff86169063bc197c8190611145908a908a908990899089906004016118b0565b6020604051808303816000875af1158015611164573d6000803e3d6000fd5b505050506040513d601f19601f82011682018060405250810190611188919061191b565b7fffffffff000000000000000000000000000000000000000000000000000000001614611211576040517f08c379a000000000000000000000000000000000000000000000000000000000815260206004820152601a60248201527f455243313135353a207472616e736665722072656a6563746564000000000000604482015260640161034f565b505050505050565b60008061014660017fca9d3e17f264b0f3984e2634e94adb37fa3e6a8103f06aeae6fa59e21c769f5e6116f8565b7c01000000000000000000000000000000000000000000000000000000007fffffffff000000000000000000000000000000000000000000000000000000008316016112ef576040517f08c379a000000000000000000000000000000000000000000000000000000000815260206004820152601f60248201527f496e74657266616365446574656374696f6e3a2077726f6e672076616c756500604482015260640161034f565b7fffffffff00000000000000000000000000000000000000000000000000000000919091166000908152602092909252604090912080547fffffffffffffffffffffffffffffffffffffffffffffffffffffffffffffff0016911515919091179055565b6040517ff23a6e61000000000000000000000000000000000000000000000000000000008082529073ffffffffffffffffffffffffffffffffffffffff86169063f23a6e6190611145908a908a9089908990899060040161195d565b803573ffffffffffffffffffffffffffffffffffffffff811681146113d357600080fd5b919050565b600080604083850312156113eb57600080fd5b6113f4836113af565b946020939093013593505050565b60008083601f84011261141457600080fd5b50813567ffffffffffffffff81111561142c57600080fd5b6020830191508360208260051b850101111561144757600080fd5b9250929050565b60008083601f84011261146057600080fd5b50813567ffffffffffffffff81111561147857600080fd5b60208301915083602082850101111561144757600080fd5b60008060008060008060008060a0898b0312156114ac57600080fd5b6114b5896113af565b97506114c360208a016113af565b9650604089013567ffffffffffffffff808211156114e057600080fd5b6114ec8c838d01611402565b909850965060608b013591508082111561150557600080fd5b6115118c838d01611402565b909650945060808b013591508082111561152a57600080fd5b506115378b828c0161144e565b999c989b5096995094979396929594505050565b6000806000806040858703121561156157600080fd5b843567ffffffffffffffff8082111561157957600080fd5b61158588838901611402565b9096509450602087013591508082111561159e57600080fd5b506115ab87828801611402565b95989497509550505050565b600081518084526020808501945080840160005b838110156115e7578151875295820195908201906001016115cb565b509495945050505050565b60208152600061014360208301846115b7565b801515811461161357600080fd5b50565b6000806040838503121561162957600080fd5b611632836113af565b9150602083013561164281611605565b809150509250929050565b6000806040838503121561166057600080fd5b611669836113af565b9150611677602084016113af565b90509250929050565b60008060008060008060a0878903121561169957600080fd5b6116a2876113af565b95506116b0602088016113af565b94506040870135935060608701359250608087013567ffffffffffffffff8111156116da57600080fd5b6116e689828a0161144e565b979a9699509497509295939492505050565b81810381811115610146577f4e487b7100000000000000000000000000000000000000000000000000000000600052601160045260246000fd5b7f4e487b7100000000000000000000000000000000000000000000000000000000600052603260045260246000fd5b81835260007f07ffffffffffffffffffffffffffffffffffffffffffffffffffffffffffffff83111561179357600080fd5b8260051b80836020870137939093016020019392505050565b6040815260006117c0604083018688611761565b82810360208401526117d3818587611761565b979650505050505050565b7f4e487b7100000000000000000000000000000000000000000000000000000000600052604160045260246000fd5b60006020828403121561181f57600080fd5b610143826113af565b60006020828403121561183a57600080fd5b815161184581611605565b9392505050565b6000815180845260005b8181101561187257602081850181015186830182015201611856565b5060006020828601015260207fffffffffffffffffffffffffffffffffffffffffffffffffffffffffffffffe0601f83011685010191505092915050565b600073ffffffffffffffffffffffffffffffffffffffff808816835280871660208401525060a060408301526118e960a08301866115b7565b82810360608401526118fb81866115b7565b9050828103608084015261190f818561184c565b98975050505050505050565b60006020828403121561192d57600080fd5b81517fffffffff000000000000000000000000000000000000000000000000000000008116811461184557600080fd5b600073ffffffffffffffffffffffffffffffffffffffff808816835280871660208401525084604083015283606083015260a060808301526117d360a083018461184c56fea2646970667358221220330de81643cc379788d0a8394b1ef589aec5706c6340c85dc37fb8c51b72023c64736f6c63430008110033",
  "devdoc": {
    "details": "This contract is to be used as a diamond facet (see ERC2535 Diamond Standard https://eips.ethereum.org/EIPS/eip-2535).Note: This facet depends on {ProxyAdminFacet}, {InterfaceDetectionFacet}, {ContractOwnershipFacet} and {OperatorFiltererFacet}.",
    "kind": "dev",
    "methods": {
      "balanceOf(address,uint256)": {
        "params": {
          "id": "The identifier to retrieve the balance of.",
          "owner": "The account to retrieve the balance of."
        },
        "returns": {
          "balance": "The balance of `id` owned by account `owner`."
        }
      },
      "balanceOfBatch(address[],uint256[])": {
        "details": "Reverts if `owners` and `ids` have different lengths.",
        "params": {
          "ids": "The identifiers to retrieve the balance of.",
          "owners": "The addresses of the token holders"
        },
        "returns": {
          "balances": "The balances of `ids` owned by accounts `owners`."
        }
      },
      "initERC1155Storage()": {
        "details": "Reverts if the sender is not the proxy admin."
      },
      "isApprovedForAll(address,address)": {
        "params": {
          "operator": "Address of the operator.",
          "owner": "Address of the authorisation giver."
        },
        "returns": {
          "approvedForAll": "True if the operator is approved, false if not."
        }
      },
      "safeBatchTransferFrom(address,address,uint256[],uint256[],bytes)": {
        "details": "Reverts with OperatorNotAllowed if the sender is not `from` and is not allowed by the operator registry.",
        "params": {
          "data": "Optional data to send along to a receiver contract.",
          "from": "Current tokens owner.",
          "ids": "Identifiers of the tokens to transfer.",
          "to": "Address of the new tokens owner.",
          "values": "Amounts of tokens to transfer."
        }
      },
      "safeTransferFrom(address,address,uint256,uint256,bytes)": {
        "details": "Reverts with OperatorNotAllowed if the sender is not `from` and is not allowed by the operator registry.",
        "params": {
          "data": "Optional data to send along to a receiver contract.",
          "from": "Current token owner.",
          "id": "Identifier of the token to transfer.",
          "to": "Address of the new token owner.",
          "value": "Amount of token to transfer."
        }
      },
      "setApprovalForAll(address,bool)": {
        "details": "Reverts with OperatorNotAllowed if `operator` is not allowed by the operator registry.",
        "params": {
          "approved": "True to approve the operator, false to revoke its approval.",
          "operator": "Address of the operator."
        }
      }
    },
    "title": "ERC1155 Multi Token Standard with Operator Filterer (facet version).",
    "version": 1
  },
  "userdoc": {
    "events": {
      "ApprovalForAll(address,address,bool)": {
        "notice": "Emitted when an approval for all tokens is set or unset."
      },
      "TransferBatch(address,address,address,uint256[],uint256[])": {
        "notice": "Emitted when a batch of tokens is transferred."
      },
      "TransferSingle(address,address,address,uint256,uint256)": {
        "notice": "Emitted when some token is transferred."
      },
      "URI(string,uint256)": {
        "notice": "Emitted optionally when a token metadata URI is set."
      }
    },
    "kind": "user",
    "methods": {
      "balanceOf(address,uint256)": {
        "notice": "Retrieves the balance of `id` owned by account `owner`."
      },
      "balanceOfBatch(address[],uint256[])": {
        "notice": "Retrieves the balances of `ids` owned by accounts `owners`."
      },
      "initERC1155Storage()": {
        "notice": "Marks the following ERC165 interfaces as supported: ERC1155."
      },
      "isApprovedForAll(address,address)": {
        "notice": "Retrieves the approval status of an operator for a given owner."
      },
      "safeBatchTransferFrom(address,address,uint256[],uint256[],bytes)": {
        "notice": "Safely transfers a batch of tokens."
      },
      "safeTransferFrom(address,address,uint256,uint256,bytes)": {
        "notice": "Safely transfers some token."
      },
      "setApprovalForAll(address,bool)": {
        "notice": "Enables or disables an operator's approval."
      }
    },
    "version": 1
  },
  "storageLayout": {
    "storage": [],
    "types": null
  }
}