{
  "address": "0xCD4080DB871Fded2226801F19bd2Cc50B91c7e7A",
  "abi": [
    {
      "inputs": [
        {
          "internalType": "contract IForwarderRegistry",
          "name": "forwarderRegistry",
          "type": "address"
        }
      ],
      "stateMutability": "nonpayable",
      "type": "constructor"
    },
    {
      "inputs": [],
      "name": "IllegalInterfaceId",
      "type": "error"
    },
    {
      "inputs": [],
      "name": "InconsistentArrayLengths",
      "type": "error"
    },
    {
      "inputs": [
        {
          "internalType": "uint256",
          "name": "currentPhase",
          "type": "uint256"
        },
        {
          "internalType": "uint256",
          "name": "newPhase",
          "type": "uint256"
        }
      ],
      "name": "InitializationPhaseAlreadyReached",
      "type": "error"
    },
    {
      "inputs": [
        {
          "internalType": "address",
          "name": "account",
          "type": "address"
        }
      ],
      "name": "NotMetadataResolver",
      "type": "error"
    },
    {
      "inputs": [
        {
          "internalType": "address",
          "name": "account",
          "type": "address"
        }
      ],
      "name": "NotProxyAdmin",
      "type": "error"
    },
    {
      "anonymous": false,
      "inputs": [
        {
          "indexed": false,
          "internalType": "string",
          "name": "value",
          "type": "string"
        },
        {
          "indexed": true,
          "internalType": "uint256",
          "name": "id",
          "type": "uint256"
        }
      ],
      "name": "URI",
      "type": "event"
    },
    {
      "inputs": [
        {
          "internalType": "uint256[]",
          "name": "tokenIds",
          "type": "uint256[]"
        },
        {
          "internalType": "string[]",
          "name": "tokenURIs",
          "type": "string[]"
        }
      ],
      "name": "batchSetTokenURI",
      "outputs": [],
      "stateMutability": "nonpayable",
      "type": "function"
    },
    {
      "inputs": [
        {
          "internalType": "string",
          "name": "name",
          "type": "string"
        },
        {
          "internalType": "string",
          "name": "symbol",
          "type": "string"
        },
        {
          "internalType": "contract ITokenMetadataResolver",
          "name": "metadataResolver",
          "type": "address"
        }
      ],
      "name": "initERC1155MetadataStorage",
      "outputs": [],
      "stateMutability": "nonpayable",
      "type": "function"
    },
    {
      "inputs": [],
      "name": "metadataResolver",
      "outputs": [
        {
          "internalType": "contract ITokenMetadataResolver",
          "name": "tokenMetadataResolver",
          "type": "address"
        }
      ],
      "stateMutability": "view",
      "type": "function"
    },
    {
      "inputs": [],
      "name": "name",
      "outputs": [
        {
          "internalType": "string",
          "name": "tokenName",
          "type": "string"
        }
      ],
      "stateMutability": "view",
      "type": "function"
    },
    {
      "inputs": [
        {
          "internalType": "uint256",
          "name": "tokenId",
          "type": "uint256"
        },
        {
          "internalType": "string",
          "name": "tokenURI",
          "type": "string"
        }
      ],
      "name": "setTokenURI",
      "outputs": [],
      "stateMutability": "nonpayable",
      "type": "function"
    },
    {
      "inputs": [],
      "name": "symbol",
      "outputs": [
        {
          "internalType": "string",
          "name": "tokenSymbol",
          "type": "string"
        }
      ],
      "stateMutability": "view",
      "type": "function"
    },
    {
      "inputs": [
        {
          "internalType": "uint256",
          "name": "tokenId",
          "type": "uint256"
        }
      ],
      "name": "uri",
      "outputs": [
        {
          "internalType": "string",
          "name": "metadataURI",
          "type": "string"
        }
      ],
      "stateMutability": "view",
      "type": "function"
    }
  ],
  "transactionHash": "0x099ed29b1fa67b5cb183d51b33751b8a7a25c3cb1249834feeca496897429238",
  "args": [
    "0x3f547F87251710F70109Ae0409d461b270709693"
  ],
  "numDeployments": 1,
  "solcInputHash": "143cd077c882cb4b84a4896b7dea96de",
  "bytecode": "0x60a060405234801561001057600080fd5b5060405161109a38038061109a83398101604081905261002f91610040565b6001600160a01b0316608052610070565b60006020828403121561005257600080fd5b81516001600160a01b038116811461006957600080fd5b9392505050565b60805161100861009260003960008181610585015261060d01526110086000f3fe608060405234801561001057600080fd5b506004361061007d5760003560e01c8063345c14ad1161005b578063345c14ad146100c85780636706467b146100db57806395d89b41146100ee578063a0c76f62146100f657600080fd5b806306fdde03146100825780630e89341c146100a0578063162094c4146100b3575b600080fd5b61008a610123565b6040516100979190610989565b60405180910390f35b61008a6100ae3660046109da565b61013a565b6100c66100c1366004610a3c565b610156565b005b6100c66100d6366004610a88565b610228565b6100c66100e9366004610b6a565b61026a565b61008a61039b565b6100fe6103ad565b60405173ffffffffffffffffffffffffffffffffffffffff9091168152602001610097565b60606101356101306103b6565b6103e4565b905090565b606061015030836101496103b6565b919061047a565b92915050565b61017e6101616103b6565b6002015473ffffffffffffffffffffffffffffffffffffffff1690565b73ffffffffffffffffffffffffffffffffffffffff163373ffffffffffffffffffffffffffffffffffffffff16146101e9576040517f220606710000000000000000000000000000000000000000000000000000000081523360048201526024015b60405180910390fd5b827f6bb7ff708619ba0610cba295a58592e0451dee2622938c8755667688daf3529b838360405161021b929190610bd6565b60405180910390a2505050565b610241610233610542565b61023b610689565b906106b7565b61025b85858585856102516103b6565b9493929190610726565b6102636107c7565b5050505050565b8281146102a3576040517f6582533600000000000000000000000000000000000000000000000000000000815260040160405180910390fd5b6102ae6101616103b6565b73ffffffffffffffffffffffffffffffffffffffff163373ffffffffffffffffffffffffffffffffffffffff1614610314576040517f220606710000000000000000000000000000000000000000000000000000000081523360048201526024016101e0565b60005b838110156102635784848281811061033157610331610c23565b905060200201357f6bb7ff708619ba0610cba295a58592e0451dee2622938c8755667688daf3529b84848481811061036b5761036b610c23565b905060200281019061037d9190610c52565b60405161038b929190610bd6565b60405180910390a2600101610317565b60606101356103a86103b6565b6107fe565b60006101356101615b60008061015060017f7ea68fd2dcf1c056b94db6a0a537aa80d26fa9ab1eacd85da1ba0b61b7e7a8a5610cb7565b60608160000180546103f590610cf1565b80601f016020809104026020016040519081016040528092919081815260200182805461042190610cf1565b801561046e5780601f106104435761010080835404028352916020019161046e565b820191906000526020600020905b81548152906001019060200180831161045157829003601f168201915b50505050509050919050565b60028301546040517ff724dad700000000000000000000000000000000000000000000000000000000815273ffffffffffffffffffffffffffffffffffffffff848116600483015260248201849052606092169063f724dad790604401600060405180830381865afa1580156104f4573d6000803e3d6000fd5b505050506040513d6000823e601f3d9081017fffffffffffffffffffffffffffffffffffffffffffffffffffffffffffffffe016820160405261053a9190810190610d73565b949350505050565b6000333214806105525750601836105b1561055c57503390565b7fffffffffffffffffffffffffffffffffffffffffffffffffffffffffffffffec36013560601c7f000000000000000000000000000000000000000000000000000000000000000073ffffffffffffffffffffffffffffffffffffffff1633148061067857506040517f8929a8ca00000000000000000000000000000000000000000000000000000000815273ffffffffffffffffffffffffffffffffffffffff82811660048301523360248301527f00000000000000000000000000000000000000000000000000000000000000001690638929a8ca90604401602060405180830381865afa158015610654573d6000803e3d6000fd5b505050506040513d601f19601f820116820180604052508101906106789190610e3e565b1561068257919050565b3391505090565b60008061015060017fb53127684a568b3173ae13b9f8a6016e243e63b6e8ee1178d6a717850b5d6104610cb7565b815473ffffffffffffffffffffffffffffffffffffffff828116911614610722576040517f673a31a100000000000000000000000000000000000000000000000000000000815273ffffffffffffffffffffffffffffffffffffffff821660048201526024016101e0565b5050565b61075b61075460017f92f72593ca50a0096f68ee94e7000db40ed086164b695855e2250750b8bfaf59610cb7565b600161080f565b85610767858783610eb8565b5060018601610777838583610eb8565b5060029590950180547fffffffffffffffffffffffff00000000000000000000000000000000000000001673ffffffffffffffffffffffffffffffffffffffff9096169590951790945550505050565b6107fc7f0e89341c0000000000000000000000000000000000000000000000000000000060016107f561085b565b9190610889565b565b60608160010180546103f590610cf1565b81548290828110610856576040517fbf0c18ec00000000000000000000000000000000000000000000000000000000815260048101829052602481018490526044016101e0565b505550565b60008061015060017fca9d3e17f264b0f3984e2634e94adb37fa3e6a8103f06aeae6fa59e21c769f5e610cb7565b7c01000000000000000000000000000000000000000000000000000000007fffffffff00000000000000000000000000000000000000000000000000000000831601610901576040517f72c683bb00000000000000000000000000000000000000000000000000000000815260040160405180910390fd5b7fffffffff00000000000000000000000000000000000000000000000000000000919091166000908152602092909252604090912080547fffffffffffffffffffffffffffffffffffffffffffffffffffffffffffffff0016911515919091179055565b60005b83811015610980578181015183820152602001610968565b50506000910152565b60208152600082518060208401526109a8816040850160208701610965565b601f017fffffffffffffffffffffffffffffffffffffffffffffffffffffffffffffffe0169190910160400192915050565b6000602082840312156109ec57600080fd5b5035919050565b60008083601f840112610a0557600080fd5b50813567ffffffffffffffff811115610a1d57600080fd5b602083019150836020828501011115610a3557600080fd5b9250929050565b600080600060408486031215610a5157600080fd5b83359250602084013567ffffffffffffffff811115610a6f57600080fd5b610a7b868287016109f3565b9497909650939450505050565b600080600080600060608688031215610aa057600080fd5b853567ffffffffffffffff80821115610ab857600080fd5b610ac489838a016109f3565b90975095506020880135915080821115610add57600080fd5b50610aea888289016109f3565b909450925050604086013573ffffffffffffffffffffffffffffffffffffffff81168114610b1757600080fd5b809150509295509295909350565b60008083601f840112610b3757600080fd5b50813567ffffffffffffffff811115610b4f57600080fd5b6020830191508360208260051b8501011115610a3557600080fd5b60008060008060408587031215610b8057600080fd5b843567ffffffffffffffff80821115610b9857600080fd5b610ba488838901610b25565b90965094506020870135915080821115610bbd57600080fd5b50610bca87828801610b25565b95989497509550505050565b60208152816020820152818360408301376000818301604090810191909152601f9092017fffffffffffffffffffffffffffffffffffffffffffffffffffffffffffffffe0160101919050565b7f4e487b7100000000000000000000000000000000000000000000000000000000600052603260045260246000fd5b60008083357fffffffffffffffffffffffffffffffffffffffffffffffffffffffffffffffe1843603018112610c8757600080fd5b83018035915067ffffffffffffffff821115610ca257600080fd5b602001915036819003821315610a3557600080fd5b81810381811115610150577f4e487b7100000000000000000000000000000000000000000000000000000000600052601160045260246000fd5b600181811c90821680610d0557607f821691505b602082108103610d3e577f4e487b7100000000000000000000000000000000000000000000000000000000600052602260045260246000fd5b50919050565b7f4e487b7100000000000000000000000000000000000000000000000000000000600052604160045260246000fd5b600060208284031215610d8557600080fd5b815167ffffffffffffffff80821115610d9d57600080fd5b818401915084601f830112610db157600080fd5b815181811115610dc357610dc3610d44565b604051601f82017fffffffffffffffffffffffffffffffffffffffffffffffffffffffffffffffe0908116603f01168101908382118183101715610e0957610e09610d44565b81604052828152876020848701011115610e2257600080fd5b610e33836020830160208801610965565b979650505050505050565b600060208284031215610e5057600080fd5b81518015158114610e6057600080fd5b9392505050565b601f821115610eb3576000816000526020600020601f850160051c81016020861015610e905750805b601f850160051c820191505b81811015610eaf57828155600101610e9c565b5050505b505050565b67ffffffffffffffff831115610ed057610ed0610d44565b610ee483610ede8354610cf1565b83610e67565b6000601f841160018114610f365760008515610f005750838201355b7fffffffffffffffffffffffffffffffffffffffffffffffffffffffffffffffff600387901b1c1916600186901b178355610263565b6000838152602090207fffffffffffffffffffffffffffffffffffffffffffffffffffffffffffffffe0861690835b82811015610f855786850135825560209485019460019092019101610f65565b5086821015610fc0577fffffffffffffffffffffffffffffffffffffffffffffffffffffffffffffffff60f88860031b161c19848701351681555b505060018560011b018355505050505056fea26469706673582212202a564684a7ada8b65c6586c46eac924b9dd2e49352f2581e530ef2bd6ab9e0fa64736f6c63430008160033",
  "devdoc": {
    "details": "This contract is to be used as a diamond facet (see ERC2535 Diamond Standard https://eips.ethereum.org/EIPS/eip-2535).Note: This facet depends on {ProxyAdminFacet} and {InterfaceDetectionFacet}.",
    "errors": {
      "InitializationPhaseAlreadyReached(uint256,uint256)": [
        {
          "params": {
            "currentPhase": "The current phase.",
            "newPhase": "The new phase trying to be set."
          }
        }
      ],
      "NotMetadataResolver(address)": [
        {
          "params": {
            "account": "The account that was checked."
          }
        }
      ],
      "NotProxyAdmin(address)": [
        {
          "params": {
            "account": "The account that was checked."
          }
        }
      ]
    },
    "events": {
      "URI(string,uint256)": {
        "params": {
          "id": "The token identifier.",
          "value": "The token metadata URI."
        }
      }
    },
    "kind": "dev",
    "methods": {
      "batchSetTokenURI(uint256[],string[])": {
        "details": "Reverts if `tokenIds` and `tokenURIs` have different lengths.Reverts if the caller is not the metadata resolver.Emits a {URI} event for each token.",
        "params": {
          "tokenIds": "The token identifiers.",
          "tokenURIs": "The token metadata URIs."
        }
      },
      "initERC1155MetadataStorage(string,string,address)": {
        "details": "Reverts with {NotProxyAdmin} if the sender is not the proxy admin.Reverts with {InitializationPhaseAlreadyReached} if the proxy initialization phase is set to `1` or above.",
        "params": {
          "metadataResolver": "The address of the metadata resolver contract.",
          "name": "The name of the token.",
          "symbol": "The symbol of the token."
        }
      },
      "metadataResolver()": {
        "returns": {
          "tokenMetadataResolver": "The token metadata resolver address."
        }
      },
      "name()": {
        "returns": {
          "tokenName": "The token name."
        }
      },
      "setTokenURI(uint256,string)": {
        "details": "Reverts if the caller is not the metadata resolver.Emits a {URI} event.",
        "params": {
          "tokenId": "The token identifier.",
          "tokenURI": "The token metadata URI."
        }
      },
      "symbol()": {
        "returns": {
          "tokenSymbol": "The token symbol."
        }
      },
      "uri(uint256)": {
        "details": "URIs are defined in RFC 3986.The URI MUST point to a JSON file that conforms to the \"ERC1155 Metadata URI JSON Schema\".The uri function SHOULD be used to retrieve values if no event was emitted.The uri function MUST return the same value as the latest event for an _id if it was emitted.The uri function MUST NOT be used to check for the existence of a token as it is possible for  an implementation to return a valid string even if the token does not exist.",
        "returns": {
          "metadataURI": "The URI associated to the token."
        }
      }
    },
    "title": "ERC1155 Multi Token Standard, optional extension: Metadata (facet version).",
    "version": 1
  },
  "userdoc": {
    "errors": {
      "IllegalInterfaceId()": [
        {
          "notice": "Thrown when setting the illegal interfaceId 0xffffffff."
        }
      ],
      "InconsistentArrayLengths()": [
        {
          "notice": "Thrown when the multiple related arrays have different lengths."
        }
      ],
      "InitializationPhaseAlreadyReached(uint256,uint256)": [
        {
          "notice": "Emitted when trying to set a phase value that has already been reached."
        }
      ],
      "NotMetadataResolver(address)": [
        {
          "notice": "Thrown when an account is not the metadata resolver but is required to."
        }
      ],
      "NotProxyAdmin(address)": [
        {
          "notice": "Thrown when an account is not the proxy admin but is required to."
        }
      ]
    },
    "events": {
      "URI(string,uint256)": {
        "notice": "Emitted when a token metadata URI is set updated."
      }
    },
    "kind": "user",
    "methods": {
      "batchSetTokenURI(uint256[],string[])": {
        "notice": "Emits URI events when a batch of token metadata URIs is set by the metadata resolver."
      },
      "initERC1155MetadataStorage(string,string,address)": {
        "notice": "Initializes the storage with the contract metadata.Sets the proxy initialization phase to `1`.Marks the following ERC165 interfaces as supported: ERC1155MetadataURI."
      },
      "metadataResolver()": {
        "notice": "Gets the token metadata resolver address."
      },
      "name()": {
        "notice": "Gets the token name. E.g. \"My Token\"."
      },
      "setTokenURI(uint256,string)": {
        "notice": "Emits the URI event when a token metadata URI is set by the metadata resolver."
      },
      "symbol()": {
        "notice": "Gets the token symbol. E.g. \"TOK\"."
      },
      "uri(uint256)": {
        "notice": "Retrieves the URI for a given token."
      }
    },
    "notice": "This contracts uses an external resolver for managing individual tokens metadata.",
    "version": 1
  },
  "storageLayout": {
    "storage": [],
    "types": null
  }
}