{
  "address": "0x56DBa1cA55e84A56E8fCf0f67c7E823Cc0a35bc7",
  "abi": [
    {
      "inputs": [
        {
          "internalType": "contract IForwarderRegistry",
          "name": "forwarderRegistry",
          "type": "address"
        }
      ],
      "stateMutability": "nonpayable",
      "type": "constructor"
    },
    {
      "inputs": [
        {
          "internalType": "address",
          "name": "from",
          "type": "address"
        },
        {
          "internalType": "uint256[]",
          "name": "ids",
          "type": "uint256[]"
        },
        {
          "internalType": "uint256[]",
          "name": "values",
          "type": "uint256[]"
        }
      ],
      "name": "batchBurnFrom",
      "outputs": [],
      "stateMutability": "nonpayable",
      "type": "function"
    },
    {
      "inputs": [
        {
          "internalType": "address",
          "name": "from",
          "type": "address"
        },
        {
          "internalType": "uint256",
          "name": "id",
          "type": "uint256"
        },
        {
          "internalType": "uint256",
          "name": "value",
          "type": "uint256"
        }
      ],
      "name": "burnFrom",
      "outputs": [],
      "stateMutability": "nonpayable",
      "type": "function"
    },
    {
      "inputs": [],
      "name": "initERC1155BurnableStorage",
      "outputs": [],
      "stateMutability": "nonpayable",
      "type": "function"
    }
  ],
  "transactionHash": "0xaac8ad694ef4faa5fbdcf5410d2cecff3a0cba9d2fedef07989df640693ffbed",
  "args": [
    "0x3f547F87251710F70109Ae0409d461b270709693"
  ],
  "numDeployments": 1,
  "solcInputHash": "a6ab94751dde68b4d6125ac6f179d1ce",
  "bytecode": "0x60a060405234801561001057600080fd5b50604051610b7c380380610b7c83398101604081905261002f91610040565b6001600160a01b0316608052610070565b60006020828403121561005257600080fd5b81516001600160a01b038116811461006957600080fd5b9392505050565b608051610aea610092600039600081816104f001526105780152610aea6000f3fe608060405234801561001057600080fd5b50600436106100415760003560e01c8063124d91e514610046578063641ff7d91461005b5780638053493414610063575b600080fd5b6100596100543660046108a5565b610076565b005b61005961009a565b610059610071366004610924565b6100bd565b6100956100816100e7565b84848461008c6100f6565b9392919061012a565b505050565b6100b36100a56100e7565b6100ad61020c565b9061023a565b6100bb6102c1565b565b6100e06100c86100e7565b86868686866100d56100f6565b9594939291906102f6565b5050505050565b60006100f16104ad565b905090565b60008061012460017f5ccf5846fa27a68fafc8e588671a68f5e67c2f9b56af4263806a4d71735e86136109a5565b92915050565b6101358584866105f4565b6101a0576040517f08c379a000000000000000000000000000000000000000000000000000000000815260206004820152601c60248201527f455243313135353a206e6f6e2d617070726f7665642073656e6465720000000060448201526064015b60405180910390fd5b6101ac8584848461066c565b604080518381526020810183905260009173ffffffffffffffffffffffffffffffffffffffff86811692908816917fc3d58168c5ae7397731d063d5bbf3d657854427343f4c083240f7aacaa2d0f62910160405180910390a45050505050565b60008061012460017fb53127684a568b3173ae13b9f8a6016e243e63b6e8ee1178d6a717850b5d61046109a5565b815473ffffffffffffffffffffffffffffffffffffffff8281169116146102bd576040517f08c379a000000000000000000000000000000000000000000000000000000000815260206004820152601960248201527f50726f787941646d696e3a206e6f74207468652061646d696e000000000000006044820152606401610197565b5050565b6100bb7f921ed8d10000000000000000000000000000000000000000000000000000000060016102ef610742565b9190610770565b82818114610360576040517f08c379a000000000000000000000000000000000000000000000000000000000815260206004820152601c60248201527f455243313135353a20696e636f6e73697374656e7420617272617973000000006044820152606401610197565b61036b8887896105f4565b6103d1576040517f08c379a000000000000000000000000000000000000000000000000000000000815260206004820152601c60248201527f455243313135353a206e6f6e2d617070726f7665642073656e646572000000006044820152606401610197565b60005b81811461041f5761041789888888858181106103f2576103f26109df565b9050602002013587878681811061040b5761040b6109df565b9050602002013561066c565b6001016103d4565b50600073ffffffffffffffffffffffffffffffffffffffff168673ffffffffffffffffffffffffffffffffffffffff168873ffffffffffffffffffffffffffffffffffffffff167f4a39dc06d4c0dbc64b70af90fd698a233a518aa5d07e595d983b8c0526c8f7fb8888888860405161049b9493929190610a59565b60405180910390a45050505050505050565b6000333214806104bd5750601836105b156104c757503390565b7fffffffffffffffffffffffffffffffffffffffffffffffffffffffffffffffec36013560601c7f000000000000000000000000000000000000000000000000000000000000000073ffffffffffffffffffffffffffffffffffffffff163314806105e357506040517f8929a8ca00000000000000000000000000000000000000000000000000000000815273ffffffffffffffffffffffffffffffffffffffff82811660048301523360248301527f00000000000000000000000000000000000000000000000000000000000000001690638929a8ca90604401602060405180830381865afa1580156105bf573d6000803e3d6000fd5b505050506040513d601f19601f820116820180604052508101906105e39190610a8b565b156105ed57919050565b3391505090565b60008173ffffffffffffffffffffffffffffffffffffffff168373ffffffffffffffffffffffffffffffffffffffff161480610664575073ffffffffffffffffffffffffffffffffffffffff808416600090815260018601602090815260408083209386168352929052205460ff165b949350505050565b801561073c5760008281526020858152604080832073ffffffffffffffffffffffffffffffffffffffff8716845290915290205481810381811061070c576040517f08c379a000000000000000000000000000000000000000000000000000000000815260206004820152601d60248201527f455243313135353a20696e73756666696369656e742062616c616e63650000006044820152606401610197565b60008481526020878152604080832073ffffffffffffffffffffffffffffffffffffffff89168452909152902055505b50505050565b60008061012460017fca9d3e17f264b0f3984e2634e94adb37fa3e6a8103f06aeae6fa59e21c769f5e6109a5565b7c01000000000000000000000000000000000000000000000000000000007fffffffff00000000000000000000000000000000000000000000000000000000831601610818576040517f08c379a000000000000000000000000000000000000000000000000000000000815260206004820152601f60248201527f496e74657266616365446574656374696f6e3a2077726f6e672076616c7565006044820152606401610197565b7fffffffff00000000000000000000000000000000000000000000000000000000919091166000908152602092909252604090912080547fffffffffffffffffffffffffffffffffffffffffffffffffffffffffffffff0016911515919091179055565b803573ffffffffffffffffffffffffffffffffffffffff811681146108a057600080fd5b919050565b6000806000606084860312156108ba57600080fd5b6108c38461087c565b95602085013595506040909401359392505050565b60008083601f8401126108ea57600080fd5b50813567ffffffffffffffff81111561090257600080fd5b6020830191508360208260051b850101111561091d57600080fd5b9250929050565b60008060008060006060868803121561093c57600080fd5b6109458661087c565b9450602086013567ffffffffffffffff8082111561096257600080fd5b61096e89838a016108d8565b9096509450604088013591508082111561098757600080fd5b50610994888289016108d8565b969995985093965092949392505050565b81810381811115610124577f4e487b7100000000000000000000000000000000000000000000000000000000600052601160045260246000fd5b7f4e487b7100000000000000000000000000000000000000000000000000000000600052603260045260246000fd5b81835260007f07ffffffffffffffffffffffffffffffffffffffffffffffffffffffffffffff831115610a4057600080fd5b8260051b80836020870137939093016020019392505050565b604081526000610a6d604083018688610a0e565b8281036020840152610a80818587610a0e565b979650505050505050565b600060208284031215610a9d57600080fd5b81518015158114610aad57600080fd5b939250505056fea26469706673582212204856707773e9a6ecd791e1630b41f92ca86fa6b560eaa63e6c383aef0152902e64736f6c63430008110033",
  "devdoc": {
    "details": "This contract is to be used as a diamond facet (see ERC2535 Diamond Standard https://eips.ethereum.org/EIPS/eip-2535).Note: This facet depends on {ProxyAdminFacet}, and {InterfaceDetectionFacet}.",
    "kind": "dev",
    "methods": {
      "batchBurnFrom(address,uint256[],uint256[])": {
        "details": "Reverts if `ids` and `values` have different lengths.Reverts if the sender is not `from` and has not been approved by `from`.Reverts if `from` has an insufficient balance for any of `ids`.Emits an {IERC1155-TransferBatch} event.",
        "params": {
          "from": "Address of the current tokens owner.",
          "ids": "Identifiers of the tokens to burn.",
          "values": "Amounts of tokens to burn."
        }
      },
      "burnFrom(address,uint256,uint256)": {
        "details": "Reverts if the sender is not `from` and has not been approved by `from`.Reverts if `from` has an insufficient balance of `id`.Emits an {IERC1155-TransferSingle} event.",
        "params": {
          "from": "Address of the current token owner.",
          "id": "Identifier of the token to burn.",
          "value": "Amount of token to burn."
        }
      },
      "initERC1155BurnableStorage()": {
        "details": "Reverts if the sender is not the proxy admin."
      }
    },
    "title": "ERC1155 Multi Token Standard, optional extension: Burnable (facet version).",
    "version": 1
  },
  "userdoc": {
    "kind": "user",
    "methods": {
      "batchBurnFrom(address,uint256[],uint256[])": {
        "notice": "Burns multiple tokens."
      },
      "burnFrom(address,uint256,uint256)": {
        "notice": "Burns some token."
      },
      "initERC1155BurnableStorage()": {
        "notice": "Marks the following ERC165 interfaces as supported: ERC1155Burnable."
      }
    },
    "version": 1
  },
  "storageLayout": {
    "storage": [],
    "types": null
  }
}