{
  "address": "0xAB75a6a8278B8cB0d4f0afb4Af7425e1AFDDEaA6",
  "abi": [
    {
      "inputs": [
        {
          "internalType": "contract IForwarderRegistry",
          "name": "forwarderRegistry",
          "type": "address"
        }
      ],
      "stateMutability": "nonpayable",
      "type": "constructor"
    },
    {
      "inputs": [],
      "name": "initERC1155DeliverableStorage",
      "outputs": [],
      "stateMutability": "nonpayable",
      "type": "function"
    },
    {
      "inputs": [
        {
          "internalType": "address[]",
          "name": "recipients",
          "type": "address[]"
        },
        {
          "internalType": "uint256[]",
          "name": "ids",
          "type": "uint256[]"
        },
        {
          "internalType": "uint256[]",
          "name": "values",
          "type": "uint256[]"
        },
        {
          "internalType": "bytes",
          "name": "data",
          "type": "bytes"
        }
      ],
      "name": "safeDeliver",
      "outputs": [],
      "stateMutability": "nonpayable",
      "type": "function"
    }
  ],
  "transactionHash": "0xdd761c7ad262149ec40133740d5fc4c90f1f14322ef1ac18d25c0f502bfde361",
  "args": [
    "0x3f547F87251710F70109Ae0409d461b270709693"
  ],
  "numDeployments": 1,
  "solcInputHash": "a6ab94751dde68b4d6125ac6f179d1ce",
  "bytecode": "0x60a060405234801561001057600080fd5b5060405161101e38038061101e83398101604081905261002f91610040565b6001600160a01b0316608052610070565b60006020828403121561005257600080fd5b81516001600160a01b038116811461006957600080fd5b9392505050565b608051610f8c610092600039600081816104f5015261057d0152610f8c6000f3fe608060405234801561001057600080fd5b50600436106100365760003560e01c8063ba92ca2a1461003b578063e8ab9ccc14610045575b600080fd5b610043610058565b005b610043610053366004610c25565b61007b565b6100716100636101a7565b61006b6101b6565b906101ea565b610079610276565b565b60006100856101a7565b90506100bb7f6d696e7465720000000000000000000000000000000000000000000000000000826100b46102ab565b91906102d9565b61019c818a8a8080602002602001604051908101604052809392919081815260200183836020028082843760009201919091525050604080516020808e0282810182019093528d82529093508d92508c91829185019084908082843760009201919091525050604080516020808d0282810182019093528c82529093508c92508b91829185019084908082843760009201919091525050604080516020601f8c018190048102820181019092528a815292508a9150899081908401838280828437600092019190915250610192925061038a915050565b94939291906103b8565b505050505050505050565b60006101b16104b2565b905090565b6000806101e460017fb53127684a568b3173ae13b9f8a6016e243e63b6e8ee1178d6a717850b5d6104610d16565b92915050565b815473ffffffffffffffffffffffffffffffffffffffff828116911614610272576040517f08c379a000000000000000000000000000000000000000000000000000000000815260206004820152601960248201527f50726f787941646d696e3a206e6f74207468652061646d696e0000000000000060448201526064015b60405180910390fd5b5050565b6100797fe8ab9ccc0000000000000000000000000000000000000000000000000000000060016102a46105f9565b9190610627565b6000806101e460017fc8827d3282af6f37b64c3e9e6f3ac9df286ab0bb0fccd6f8661bf19adb368b23610d16565b60008281526020848152604080832073ffffffffffffffffffffffffffffffffffffffff8516845290915290205460ff166103855761031782610733565b6040516020016103279190610d74565b604080517fffffffffffffffffffffffffffffffffffffffffffffffffffffffffffffffe0818403018152908290527f08c379a000000000000000000000000000000000000000000000000000000000825261026991600401610e2a565b505050565b6000806101e460017f5ccf5846fa27a68fafc8e588671a68f5e67c2f9b56af4263806a4d71735e8613610d16565b83518351811480156103ca5750825181145b610430576040517f08c379a000000000000000000000000000000000000000000000000000000000815260206004820152601c60248201527f455243313135353a20696e636f6e73697374656e7420617272617973000000006044820152606401610269565b60005b8181146104a8576104a08787838151811061045057610450610e44565b602002602001015187848151811061046a5761046a610e44565b602002602001015187858151811061048457610484610e44565b6020026020010151878d6108c59095949392919063ffffffff16565b600101610433565b5050505050505050565b6000333214806104c25750601836105b156104cc57503390565b7fffffffffffffffffffffffffffffffffffffffffffffffffffffffffffffffec36013560601c7f000000000000000000000000000000000000000000000000000000000000000073ffffffffffffffffffffffffffffffffffffffff163314806105e857506040517f8929a8ca00000000000000000000000000000000000000000000000000000000815273ffffffffffffffffffffffffffffffffffffffff82811660048301523360248301527f00000000000000000000000000000000000000000000000000000000000000001690638929a8ca90604401602060405180830381865afa1580156105c4573d6000803e3d6000fd5b505050506040513d601f19601f820116820180604052508101906105e89190610e73565b156105f257919050565b3391505090565b6000806101e460017fca9d3e17f264b0f3984e2634e94adb37fa3e6a8103f06aeae6fa59e21c769f5e610d16565b7c01000000000000000000000000000000000000000000000000000000007fffffffff000000000000000000000000000000000000000000000000000000008316016106cf576040517f08c379a000000000000000000000000000000000000000000000000000000000815260206004820152601f60248201527f496e74657266616365446574656374696f6e3a2077726f6e672076616c7565006044820152606401610269565b7fffffffff00000000000000000000000000000000000000000000000000000000919091166000908152602092909252604090912080547fffffffffffffffffffffffffffffffffffffffffffffffffffffffffffffff0016911515919091179055565b6060600082900361075257505060408051602081019091526000815290565b60008260405160200161076791815260200190565b604080517fffffffffffffffffffffffffffffffffffffffffffffffffffffffffffffffe08184030181529190529050601f5b8181815181106107ac576107ac610e44565b01602001517fff0000000000000000000000000000000000000000000000000000000000000016600003610801577fffffffffffffffffffffffffffffffffffffffffffffffffffffffffffffffff0161079a565b60008160010167ffffffffffffffff81111561081f5761081f610e95565b6040519080825280601f01601f191660200182016040528015610849576020820181803683370190505b50905060005b8281116108bc5783818151811061086857610868610e44565b602001015160f81c60f81b82828151811061088557610885610e44565b60200101907effffffffffffffffffffffffffffffffffffffffffffffffffffffffffffff1916908160001a90535060010161084f565b50949350505050565b73ffffffffffffffffffffffffffffffffffffffff8416610942576040517f08c379a000000000000000000000000000000000000000000000000000000000815260206004820152601b60248201527f455243313135353a206d696e7420746f206164647265737328302900000000006044820152606401610269565b61094e868585856109db565b604080518481526020810184905273ffffffffffffffffffffffffffffffffffffffff80871692600092918916917fc3d58168c5ae7397731d063d5bbf3d657854427343f4c083240f7aacaa2d0f62910160405180910390a473ffffffffffffffffffffffffffffffffffffffff84163b156109d3576109d385600086868686610ab1565b505050505050565b8015610aab5760008281526020858152604080832073ffffffffffffffffffffffffffffffffffffffff87168452909152902054818101818111610a7b576040517f08c379a000000000000000000000000000000000000000000000000000000000815260206004820152601960248201527f455243313135353a2062616c616e6365206f766572666c6f77000000000000006044820152606401610269565b60008481526020878152604080832073ffffffffffffffffffffffffffffffffffffffff89168452909152902055505b50505050565b6040517ff23a6e61000000000000000000000000000000000000000000000000000000008082529073ffffffffffffffffffffffffffffffffffffffff86169063f23a6e6190610b0d908a908a90899089908990600401610ec4565b6020604051808303816000875af1158015610b2c573d6000803e3d6000fd5b505050506040513d601f19601f82011682018060405250810190610b509190610f14565b7fffffffff0000000000000000000000000000000000000000000000000000000016146109d3576040517f08c379a000000000000000000000000000000000000000000000000000000000815260206004820152601a60248201527f455243313135353a207472616e736665722072656a65637465640000000000006044820152606401610269565b60008083601f840112610beb57600080fd5b50813567ffffffffffffffff811115610c0357600080fd5b6020830191508360208260051b8501011115610c1e57600080fd5b9250929050565b6000806000806000806000806080898b031215610c4157600080fd5b883567ffffffffffffffff80821115610c5957600080fd5b610c658c838d01610bd9565b909a50985060208b0135915080821115610c7e57600080fd5b610c8a8c838d01610bd9565b909850965060408b0135915080821115610ca357600080fd5b610caf8c838d01610bd9565b909650945060608b0135915080821115610cc857600080fd5b818b0191508b601f830112610cdc57600080fd5b813581811115610ceb57600080fd5b8c6020828501011115610cfd57600080fd5b6020830194508093505050509295985092959890939650565b818103818111156101e4577f4e487b7100000000000000000000000000000000000000000000000000000000600052601160045260246000fd5b60005b83811015610d6b578181015183820152602001610d53565b50506000910152565b7f416363657373436f6e74726f6c3a206d697373696e6720270000000000000000815260008251610dac816018850160208701610d50565b7f2720726f6c6500000000000000000000000000000000000000000000000000006018939091019283015250601e01919050565b60008151808452610df8816020860160208601610d50565b601f017fffffffffffffffffffffffffffffffffffffffffffffffffffffffffffffffe0169290920160200192915050565b602081526000610e3d6020830184610de0565b9392505050565b7f4e487b7100000000000000000000000000000000000000000000000000000000600052603260045260246000fd5b600060208284031215610e8557600080fd5b81518015158114610e3d57600080fd5b7f4e487b7100000000000000000000000000000000000000000000000000000000600052604160045260246000fd5b600073ffffffffffffffffffffffffffffffffffffffff808816835280871660208401525084604083015283606083015260a06080830152610f0960a0830184610de0565b979650505050505050565b600060208284031215610f2657600080fd5b81517fffffffff0000000000000000000000000000000000000000000000000000000081168114610e3d57600080fdfea26469706673582212201bda07d13cb67632d844ba70aa5f928270709da34d899aedf36c0365b264146d64736f6c63430008110033",
  "devdoc": {
    "details": "This contract is to be used as a diamond facet (see ERC2535 Diamond Standard https://eips.ethereum.org/EIPS/eip-2535).Note: This facet depends on {ProxyAdminFacet}, and {InterfaceDetectionFacet}.",
    "kind": "dev",
    "methods": {
      "initERC1155DeliverableStorage()": {
        "details": "Reverts if the sender is not the proxy admin."
      },
      "safeDeliver(address[],uint256[],uint256[],bytes)": {
        "details": "Reverts if the sender does not have the 'minter' role.",
        "params": {
          "data": "Optional data to send along to a receiver contract.",
          "ids": "Identifiers of the tokens to mint.",
          "recipients": "Addresses of the new tokens owners.",
          "values": "Amounts of tokens to mint."
        }
      }
    },
    "title": "ERC1155 Multi Token Standard, optional extension: Deliverable (facet version).",
    "version": 1
  },
  "userdoc": {
    "kind": "user",
    "methods": {
      "initERC1155DeliverableStorage()": {
        "notice": "Marks the following ERC165 interfaces as supported: ERC1155Deliverable."
      },
      "safeDeliver(address[],uint256[],uint256[],bytes)": {
        "notice": "Safely mints tokens to multiple recipients."
      }
    },
    "version": 1
  },
  "storageLayout": {
    "storage": [],
    "types": null
  }
}