{
  "address": "0x622657ad5996995d19E624866153a2a0A8651636",
  "abi": [
    {
      "inputs": [
        {
          "internalType": "contract IForwarderRegistry",
          "name": "forwarderRegistry",
          "type": "address"
        }
      ],
      "stateMutability": "nonpayable",
      "type": "constructor"
    },
    {
      "inputs": [],
      "name": "decimals",
      "outputs": [
        {
          "internalType": "uint8",
          "name": "",
          "type": "uint8"
        }
      ],
      "stateMutability": "view",
      "type": "function"
    },
    {
      "inputs": [
        {
          "internalType": "string",
          "name": "tokenName",
          "type": "string"
        },
        {
          "internalType": "string",
          "name": "tokenSymbol",
          "type": "string"
        },
        {
          "internalType": "uint8",
          "name": "tokenDecimals",
          "type": "uint8"
        }
      ],
      "name": "initERC20DetailedStorage",
      "outputs": [],
      "stateMutability": "nonpayable",
      "type": "function"
    },
    {
      "inputs": [],
      "name": "name",
      "outputs": [
        {
          "internalType": "string",
          "name": "",
          "type": "string"
        }
      ],
      "stateMutability": "view",
      "type": "function"
    },
    {
      "inputs": [],
      "name": "symbol",
      "outputs": [
        {
          "internalType": "string",
          "name": "",
          "type": "string"
        }
      ],
      "stateMutability": "view",
      "type": "function"
    }
  ],
  "transactionHash": "0x1398dc1a6cbe4c392d05cac54cc1b0e00b16caf294b5f200d52cba8275db1e53",
  "args": [
    "0x3f547F87251710F70109Ae0409d461b270709693"
  ],
  "numDeployments": 1,
  "solcInputHash": "a6ab94751dde68b4d6125ac6f179d1ce",
  "bytecode": "0x60a060405234801561001057600080fd5b50604051610ab5380380610ab583398101604081905261002f91610040565b6001600160a01b0316608052610070565b60006020828403121561005257600080fd5b81516001600160a01b038116811461006957600080fd5b9392505050565b608051610a236100926000396000818161023e01526102c60152610a236000f3fe608060405234801561001057600080fd5b506004361061004c5760003560e01c806306fdde0314610051578063313ce5671461006f57806395d89b4114610089578063ef96127914610091575b600080fd5b6100596100a6565b6040516100669190610664565b60405180910390f35b6100776100bd565b60405160ff9091168152602001610066565b6100596100d4565b6100a461009f366004610719565b6100e6565b005b60606100b86100b3610120565b610154565b905090565b60006100b86100ca610120565b6002015460ff1690565b60606100b86100e1610120565b6101ea565b6100ff6100f16101fb565b6100f9610342565b90610370565b610119858585858561010f610120565b94939291906103fc565b5050505050565b60008061014e60017f335df4119bbb04f056b33eba33b826d3529129e458faf6daa9924b5a8f3b6a826107a3565b92915050565b6060816000018054610165906107dd565b80601f0160208091040260200160405190810160405280929190818152602001828054610191906107dd565b80156101de5780601f106101b3576101008083540402835291602001916101de565b820191906000526020600020905b8154815290600101906020018083116101c157829003601f168201915b50505050509050919050565b6060816001018054610165906107dd565b60003332148061020b5750601836105b1561021557503390565b7fffffffffffffffffffffffffffffffffffffffffffffffffffffffffffffffec36013560601c7f000000000000000000000000000000000000000000000000000000000000000073ffffffffffffffffffffffffffffffffffffffff1633148061033157506040517f8929a8ca00000000000000000000000000000000000000000000000000000000815273ffffffffffffffffffffffffffffffffffffffff82811660048301523360248301527f00000000000000000000000000000000000000000000000000000000000000001690638929a8ca90604401602060405180830381865afa15801561030d573d6000803e3d6000fd5b505050506040513d601f19601f820116820180604052508101906103319190610830565b1561033b57919050565b3391505090565b60008061014e60017fb53127684a568b3173ae13b9f8a6016e243e63b6e8ee1178d6a717850b5d61046107a3565b815473ffffffffffffffffffffffffffffffffffffffff8281169116146103f8576040517f08c379a000000000000000000000000000000000000000000000000000000000815260206004820152601960248201527f50726f787941646d696e3a206e6f74207468652061646d696e0000000000000060448201526064015b60405180910390fd5b5050565b61043161042a60017fd217496980d1cb14720b20a80af36676bbece8e5feeb5d8970a9681a2c76bb756107a3565b60016104ba565b8561043d8587836108d3565b506001860161044d8385836108d3565b506002860180547fffffffffffffffffffffffffffffffffffffffffffffffffffffffffffffff001660ff83161790556104b27fa219a0250000000000000000000000000000000000000000000000000000000060016104ab61052a565b9190610558565b505050505050565b815482908211610526576040517f08c379a000000000000000000000000000000000000000000000000000000000815260206004820152601660248201527f53746f726167653a20706861736520726561636865640000000000000000000060448201526064016103ef565b5550565b60008061014e60017fca9d3e17f264b0f3984e2634e94adb37fa3e6a8103f06aeae6fa59e21c769f5e6107a3565b7c01000000000000000000000000000000000000000000000000000000007fffffffff00000000000000000000000000000000000000000000000000000000831601610600576040517f08c379a000000000000000000000000000000000000000000000000000000000815260206004820152601f60248201527f496e74657266616365446574656374696f6e3a2077726f6e672076616c75650060448201526064016103ef565b7fffffffff00000000000000000000000000000000000000000000000000000000919091166000908152602092909252604090912080547fffffffffffffffffffffffffffffffffffffffffffffffffffffffffffffff0016911515919091179055565b600060208083528351808285015260005b8181101561069157858101830151858201604001528201610675565b5060006040828601015260407fffffffffffffffffffffffffffffffffffffffffffffffffffffffffffffffe0601f8301168501019250505092915050565b60008083601f8401126106e257600080fd5b50813567ffffffffffffffff8111156106fa57600080fd5b60208301915083602082850101111561071257600080fd5b9250929050565b60008060008060006060868803121561073157600080fd5b853567ffffffffffffffff8082111561074957600080fd5b61075589838a016106d0565b9097509550602088013591508082111561076e57600080fd5b5061077b888289016106d0565b909450925050604086013560ff8116811461079557600080fd5b809150509295509295909350565b8181038181111561014e577f4e487b7100000000000000000000000000000000000000000000000000000000600052601160045260246000fd5b600181811c908216806107f157607f821691505b60208210810361082a577f4e487b7100000000000000000000000000000000000000000000000000000000600052602260045260246000fd5b50919050565b60006020828403121561084257600080fd5b8151801515811461085257600080fd5b9392505050565b7f4e487b7100000000000000000000000000000000000000000000000000000000600052604160045260246000fd5b601f8211156108ce57600081815260208120601f850160051c810160208610156108af5750805b601f850160051c820191505b818110156104b2578281556001016108bb565b505050565b67ffffffffffffffff8311156108eb576108eb610859565b6108ff836108f983546107dd565b83610888565b6000601f841160018114610951576000851561091b5750838201355b7fffffffffffffffffffffffffffffffffffffffffffffffffffffffffffffffff600387901b1c1916600186901b178355610119565b6000838152602090207fffffffffffffffffffffffffffffffffffffffffffffffffffffffffffffffe0861690835b828110156109a05786850135825560209485019460019092019101610980565b50868210156109db577fffffffffffffffffffffffffffffffffffffffffffffffffffffffffffffffff60f88860031b161c19848701351681555b505060018560011b018355505050505056fea2646970667358221220459d370c0f4782462c1dfaa34519b3a3395dbff2ee51a3bfe1d53fa8f81e7ffc64736f6c63430008110033",
  "devdoc": {
    "details": "This contract is to be used as a diamond facet (see ERC2535 Diamond Standard https://eips.ethereum.org/EIPS/eip-2535).Note: This facet depends on {ProxyAdminFacet} and {InterfaceDetectionFacet}.",
    "kind": "dev",
    "methods": {
      "decimals()": {
        "details": "Note: This information is only used for display purposes: it does  not impact the arithmetic of the contract.",
        "returns": {
          "_0": "The number of decimals used to display the balances."
        }
      },
      "initERC20DetailedStorage(string,string,uint8)": {
        "details": "Reverts if the sender is not the proxy admin.Reverts if the proxy initialization phase is set to `1` or above.",
        "params": {
          "tokenDecimals": "The token decimals.",
          "tokenName": "The token name.",
          "tokenSymbol": "The token symbol."
        }
      },
      "name()": {
        "returns": {
          "_0": "The name of the token."
        }
      },
      "symbol()": {
        "returns": {
          "_0": "The symbol of the token."
        }
      }
    },
    "title": "ERC20 Fungible Token Standard, optional extension: Detailed (facet version).",
    "version": 1
  },
  "userdoc": {
    "kind": "user",
    "methods": {
      "decimals()": {
        "notice": "Gets the number of decimals used to display the balances.For example, if `decimals` equals `2`, a balance of `505` tokens should be displayed to a user as `5,05` (`505 / 10 ** 2`).Tokens usually opt for a value of 18, imitating the relationship between Ether and Wei."
      },
      "initERC20DetailedStorage(string,string,uint8)": {
        "notice": "Initializes the storage with the token details.Sets the proxy initialization phase to `1`.Marks the following ERC165 interface(s) as supported: ERC20Detailed."
      },
      "name()": {
        "notice": "Gets the name of the token. E.g. \"My Token\"."
      },
      "symbol()": {
        "notice": "Gets the symbol of the token. E.g. \"TOK\"."
      }
    },
    "version": 1
  },
  "storageLayout": {
    "storage": [],
    "types": null
  }
}