{
  "address": "0xED812A534C1671CC0e5fddb27283980De454fE68",
  "abi": [
    {
      "inputs": [
        {
          "internalType": "contract IForwarderRegistry",
          "name": "forwarderRegistry",
          "type": "address"
        }
      ],
      "stateMutability": "nonpayable",
      "type": "constructor"
    },
    {
      "inputs": [
        {
          "internalType": "uint256",
          "name": "percentage",
          "type": "uint256"
        }
      ],
      "name": "ERC2981IncorrectRoyaltyPercentage",
      "type": "error"
    },
    {
      "inputs": [],
      "name": "ERC2981IncorrectRoyaltyReceiver",
      "type": "error"
    },
    {
      "inputs": [],
      "name": "IllegalInterfaceId",
      "type": "error"
    },
    {
      "inputs": [
        {
          "internalType": "address",
          "name": "account",
          "type": "address"
        }
      ],
      "name": "NotContractOwner",
      "type": "error"
    },
    {
      "inputs": [
        {
          "internalType": "address",
          "name": "account",
          "type": "address"
        }
      ],
      "name": "NotProxyAdmin",
      "type": "error"
    },
    {
      "inputs": [],
      "name": "ROYALTY_FEE_DENOMINATOR",
      "outputs": [
        {
          "internalType": "uint256",
          "name": "",
          "type": "uint256"
        }
      ],
      "stateMutability": "view",
      "type": "function"
    },
    {
      "inputs": [],
      "name": "initERC2981",
      "outputs": [],
      "stateMutability": "nonpayable",
      "type": "function"
    },
    {
      "inputs": [
        {
          "internalType": "uint256",
          "name": "tokenId",
          "type": "uint256"
        },
        {
          "internalType": "uint256",
          "name": "salePrice",
          "type": "uint256"
        }
      ],
      "name": "royaltyInfo",
      "outputs": [
        {
          "internalType": "address",
          "name": "receiver",
          "type": "address"
        },
        {
          "internalType": "uint256",
          "name": "royaltyAmount",
          "type": "uint256"
        }
      ],
      "stateMutability": "view",
      "type": "function"
    },
    {
      "inputs": [
        {
          "internalType": "uint256",
          "name": "percentage",
          "type": "uint256"
        }
      ],
      "name": "setRoyaltyPercentage",
      "outputs": [],
      "stateMutability": "nonpayable",
      "type": "function"
    },
    {
      "inputs": [
        {
          "internalType": "address",
          "name": "receiver",
          "type": "address"
        }
      ],
      "name": "setRoyaltyReceiver",
      "outputs": [],
      "stateMutability": "nonpayable",
      "type": "function"
    }
  ],
  "transactionHash": "0xae3ef7e099dc95f83adc72cb7c14b02ee1c184b48ed3c68ab3074f461da27c44",
  "args": [
    "0x316a472D084489CB6d4C66e5eB62aE3AdA17521e"
  ],
  "numDeployments": 1,
  "solcInputHash": "84bab0eb3356c2e3bedca0f2f5a163c5",
  "bytecode": "0x60a0604052348015600f57600080fd5b50604051610941380380610941833981016040819052602c91603c565b6001600160a01b0316608052606a565b600060208284031215604d57600080fd5b81516001600160a01b0381168114606357600080fd5b9392505050565b6080516108b561008c6000396000818161053d01526105cb01526108b56000f3fe608060405234801561001057600080fd5b50600436106100675760003560e01c80638dc251e3116100505780638dc251e3146100c5578063d60da201146100d8578063e1a8bf2c146100e057600080fd5b80632a55205a1461006c57806361ba27da146100b0575b600080fd5b61007f61007a366004610751565b6100f8565b6040805173ffffffffffffffffffffffffffffffffffffffff90931683526020830191909152015b60405180910390f35b6100c36100be366004610773565b61011a565b005b6100c36100d336600461078c565b610148565b6100c3610165565b6100ea620186a081565b6040519081526020016100a7565b60008061010f8484610108610188565b91906101bc565b915091509250929050565b610133610125610266565b61012d610275565b906102a3565b6101458161013f610188565b90610317565b50565b610153610125610266565b6101458161015f610188565b9061039d565b61017e610170610266565b61017861042c565b9061045a565b6101866104c5565b565b6000806101b660017f2c0cf10337caabbd02dcf226f05f5fd19a0919a41a8df8958c39b800078268586107f8565b92915050565b825473ffffffffffffffffffffffffffffffffffffffff8116906000907401000000000000000000000000000000000000000090046bffffffffffffffffffffffff1683158061020a575080155b15610218576000915061025d565b620186a084101561024257620186a0610231828661080b565b61023b9190610822565b915061025d565b80610250620186a086610822565b61025a919061080b565b91505b50935093915050565b60006102706104fa565b905090565b6000806101b660017fc9ed16f33ab3a66c84bfd83099ccb2a8845871e2e1c1928f63797152f0fd54cd6107f8565b815473ffffffffffffffffffffffffffffffffffffffff828116911614610313576040517f2ef4875e00000000000000000000000000000000000000000000000000000000815273ffffffffffffffffffffffffffffffffffffffff821660048201526024015b60405180910390fd5b5050565b620186a0811115610357576040517fac0404080000000000000000000000000000000000000000000000000000000081526004810182905260240161030a565b81546bffffffffffffffffffffffff909116740100000000000000000000000000000000000000000273ffffffffffffffffffffffffffffffffffffffff909116179055565b73ffffffffffffffffffffffffffffffffffffffff81166103ea576040517f16de0c8000000000000000000000000000000000000000000000000000000000815260040160405180910390fd5b81547fffffffffffffffffffffffff00000000000000000000000000000000000000001673ffffffffffffffffffffffffffffffffffffffff91909116179055565b6000806101b660017fb53127684a568b3173ae13b9f8a6016e243e63b6e8ee1178d6a717850b5d61046107f8565b815473ffffffffffffffffffffffffffffffffffffffff828116911614610313576040517f673a31a100000000000000000000000000000000000000000000000000000000815273ffffffffffffffffffffffffffffffffffffffff8216600482015260240161030a565b6101867f2a55205a0000000000000000000000000000000000000000000000000000000060016104f3610647565b9190610675565b60003332148061050a5750601836105b1561051457503390565b7fffffffffffffffffffffffffffffffffffffffffffffffffffffffffffffffec36013560601c7f000000000000000000000000000000000000000000000000000000000000000073ffffffffffffffffffffffffffffffffffffffff1633148061063657506040517f019a202800000000000000000000000000000000000000000000000000000000815273ffffffffffffffffffffffffffffffffffffffff82811660048301523360248301523060448301527f0000000000000000000000000000000000000000000000000000000000000000169063019a202890606401602060405180830381865afa158015610612573d6000803e3d6000fd5b505050506040513d601f19601f82011682018060405250810190610636919061085d565b1561064057919050565b3391505090565b6000806101b660017fca9d3e17f264b0f3984e2634e94adb37fa3e6a8103f06aeae6fa59e21c769f5e6107f8565b7c01000000000000000000000000000000000000000000000000000000007fffffffff000000000000000000000000000000000000000000000000000000008316016106ed576040517f72c683bb00000000000000000000000000000000000000000000000000000000815260040160405180910390fd5b7fffffffff00000000000000000000000000000000000000000000000000000000919091166000908152602092909252604090912080547fffffffffffffffffffffffffffffffffffffffffffffffffffffffffffffff0016911515919091179055565b6000806040838503121561076457600080fd5b50508035926020909101359150565b60006020828403121561078557600080fd5b5035919050565b60006020828403121561079e57600080fd5b813573ffffffffffffffffffffffffffffffffffffffff811681146107c257600080fd5b9392505050565b7f4e487b7100000000000000000000000000000000000000000000000000000000600052601160045260246000fd5b818103818111156101b6576101b66107c9565b80820281158282048414176101b6576101b66107c9565b600082610858577f4e487b7100000000000000000000000000000000000000000000000000000000600052601260045260246000fd5b500490565b60006020828403121561086f57600080fd5b815180151581146107c257600080fdfea2646970667358221220dfea8c1a9bcadec3d4ecd4b2edc0680473b44441890582b4851c9f119870656864736f6c634300081c0033",
  "devdoc": {
    "details": "This contract is to be used as a diamond facet (see ERC2535 Diamond Standard https://eips.ethereum.org/EIPS/eip-2535).Note: This facet depends on {ProxyAdminFacet}, {InterfaceDetectionFacet} and {ContractOwnershipFacet}.",
    "errors": {
      "ERC2981IncorrectRoyaltyPercentage(uint256)": [
        {
          "params": {
            "percentage": "The royalty percentage that was attempted to be set."
          }
        }
      ],
      "NotContractOwner(address)": [
        {
          "params": {
            "account": "The account that was checked."
          }
        }
      ],
      "NotProxyAdmin(address)": [
        {
          "params": {
            "account": "The account that was checked."
          }
        }
      ]
    },
    "kind": "dev",
    "methods": {
      "initERC2981()": {
        "details": "Reverts with {NotProxyAdmin} if the sender is not the proxy admin."
      },
      "royaltyInfo(uint256,uint256)": {
        "params": {
          "salePrice": "The sale price of the NFT asset specified by `tokenId`",
          "tokenId": "The NFT asset queried for royalty information"
        },
        "returns": {
          "receiver": "Address of who should be sent the royalty payment",
          "royaltyAmount": "The royalty payment amount for `salePrice`"
        }
      },
      "setRoyaltyPercentage(uint256)": {
        "details": "Reverts with {NotContractOwner} if the sender is not the contract owner.Reverts with {IncorrectRoyaltyPercentage} if `percentage` is above 100% (> FEE_DENOMINATOR).",
        "params": {
          "percentage": "The new percentage to set. For example 50000 sets 50% royalty."
        }
      },
      "setRoyaltyReceiver(address)": {
        "details": "Reverts with {NotContractOwner} if the sender is not the contract owner.Reverts with {IncorrectRoyaltyReceiver} if `receiver` is the zero address.",
        "params": {
          "receiver": "The new receiver to set."
        }
      }
    },
    "title": "ERC2981 NFT Royalty Standard (facet version).",
    "version": 1
  },
  "userdoc": {
    "errors": {
      "ERC2981IncorrectRoyaltyPercentage(uint256)": [
        {
          "notice": "Thrown when setting a royalty percentage that is above 100% (> FEE_DENOMINATOR)."
        }
      ],
      "ERC2981IncorrectRoyaltyReceiver()": [
        {
          "notice": "Thrown when setting a royalty receiver that is the zero address."
        }
      ],
      "IllegalInterfaceId()": [
        {
          "notice": "Thrown when setting the illegal interfaceId 0xffffffff."
        }
      ],
      "NotContractOwner(address)": [
        {
          "notice": "Thrown when an account is not the contract owner but is required to."
        }
      ],
      "NotProxyAdmin(address)": [
        {
          "notice": "Thrown when an account is not the proxy admin but is required to."
        }
      ]
    },
    "kind": "user",
    "methods": {
      "initERC2981()": {
        "notice": "Marks the following ERC165 interface(s) as supported: ERC2981."
      },
      "royaltyInfo(uint256,uint256)": {
        "notice": "Called with the sale price to determine how much royalty is owed and to whom."
      },
      "setRoyaltyPercentage(uint256)": {
        "notice": "Sets the royalty percentage."
      },
      "setRoyaltyReceiver(address)": {
        "notice": "Sets the royalty receiver."
      }
    },
    "version": 1
  },
  "storageLayout": {
    "storage": [],
    "types": null
  }
}