{
  "address": "0x56319F993F2d7126956d70b215b7F73a577d42D8",
  "abi": [
    {
      "inputs": [
        {
          "internalType": "contract IForwarderRegistry",
          "name": "forwarderRegistry",
          "type": "address"
        }
      ],
      "stateMutability": "nonpayable",
      "type": "constructor"
    },
    {
      "anonymous": false,
      "inputs": [
        {
          "indexed": true,
          "internalType": "address",
          "name": "owner",
          "type": "address"
        },
        {
          "indexed": true,
          "internalType": "address",
          "name": "spender",
          "type": "address"
        },
        {
          "indexed": false,
          "internalType": "uint256",
          "name": "value",
          "type": "uint256"
        }
      ],
      "name": "Approval",
      "type": "event"
    },
    {
      "anonymous": false,
      "inputs": [
        {
          "indexed": true,
          "internalType": "address",
          "name": "from",
          "type": "address"
        },
        {
          "indexed": true,
          "internalType": "address",
          "name": "to",
          "type": "address"
        },
        {
          "indexed": false,
          "internalType": "uint256",
          "name": "value",
          "type": "uint256"
        }
      ],
      "name": "Transfer",
      "type": "event"
    },
    {
      "inputs": [
        {
          "internalType": "address",
          "name": "owner",
          "type": "address"
        },
        {
          "internalType": "address",
          "name": "spender",
          "type": "address"
        }
      ],
      "name": "allowance",
      "outputs": [
        {
          "internalType": "uint256",
          "name": "value",
          "type": "uint256"
        }
      ],
      "stateMutability": "view",
      "type": "function"
    },
    {
      "inputs": [
        {
          "internalType": "address",
          "name": "spender",
          "type": "address"
        },
        {
          "internalType": "uint256",
          "name": "value",
          "type": "uint256"
        }
      ],
      "name": "approve",
      "outputs": [
        {
          "internalType": "bool",
          "name": "result",
          "type": "bool"
        }
      ],
      "stateMutability": "nonpayable",
      "type": "function"
    },
    {
      "inputs": [
        {
          "internalType": "address",
          "name": "owner",
          "type": "address"
        }
      ],
      "name": "balanceOf",
      "outputs": [
        {
          "internalType": "uint256",
          "name": "balance",
          "type": "uint256"
        }
      ],
      "stateMutability": "view",
      "type": "function"
    },
    {
      "inputs": [
        {
          "internalType": "address",
          "name": "spender",
          "type": "address"
        },
        {
          "internalType": "uint256",
          "name": "subtractedValue",
          "type": "uint256"
        }
      ],
      "name": "decreaseAllowance",
      "outputs": [
        {
          "internalType": "bool",
          "name": "result",
          "type": "bool"
        }
      ],
      "stateMutability": "nonpayable",
      "type": "function"
    },
    {
      "inputs": [
        {
          "internalType": "address",
          "name": "spender",
          "type": "address"
        },
        {
          "internalType": "uint256",
          "name": "addedValue",
          "type": "uint256"
        }
      ],
      "name": "increaseAllowance",
      "outputs": [
        {
          "internalType": "bool",
          "name": "result",
          "type": "bool"
        }
      ],
      "stateMutability": "nonpayable",
      "type": "function"
    },
    {
      "inputs": [],
      "name": "initERC20Storage",
      "outputs": [],
      "stateMutability": "nonpayable",
      "type": "function"
    },
    {
      "inputs": [],
      "name": "totalSupply",
      "outputs": [
        {
          "internalType": "uint256",
          "name": "supply",
          "type": "uint256"
        }
      ],
      "stateMutability": "view",
      "type": "function"
    },
    {
      "inputs": [
        {
          "internalType": "address",
          "name": "to",
          "type": "address"
        },
        {
          "internalType": "uint256",
          "name": "value",
          "type": "uint256"
        }
      ],
      "name": "transfer",
      "outputs": [
        {
          "internalType": "bool",
          "name": "result",
          "type": "bool"
        }
      ],
      "stateMutability": "nonpayable",
      "type": "function"
    },
    {
      "inputs": [
        {
          "internalType": "address",
          "name": "from",
          "type": "address"
        },
        {
          "internalType": "address",
          "name": "to",
          "type": "address"
        },
        {
          "internalType": "uint256",
          "name": "value",
          "type": "uint256"
        }
      ],
      "name": "transferFrom",
      "outputs": [
        {
          "internalType": "bool",
          "name": "result",
          "type": "bool"
        }
      ],
      "stateMutability": "nonpayable",
      "type": "function"
    }
  ],
  "transactionHash": "0x5404a62c89587e0b2d1615416b39f3a3278c8d6242331e4ffb816da18989e035",
  "args": [
    "0x3f547F87251710F70109Ae0409d461b270709693"
  ],
  "numDeployments": 1,
  "solcInputHash": "a6ab94751dde68b4d6125ac6f179d1ce",
  "bytecode": "0x60a060405234801561001057600080fd5b50604051610ef4380380610ef483398101604081905261002f91610040565b6001600160a01b0316608052610070565b60006020828403121561005257600080fd5b81516001600160a01b038116811461006957600080fd5b9392505050565b608051610e6261009260003960008181610ab50152610b3d0152610e626000f3fe608060405234801561001057600080fd5b50600436106100a35760003560e01c806370a0823111610076578063a9059cbb1161005b578063a9059cbb14610132578063dd62ed3e14610145578063fb33f6081461015857600080fd5b806370a082311461010c578063a457c2d71461011f57600080fd5b8063095ea7b3146100a857806318160ddd146100d057806323b872dd146100e657806339509351146100f9575b600080fd5b6100bb6100b6366004610d1c565b610162565b60405190151581526020015b60405180910390f35b6100d861018b565b6040519081526020016100c7565b6100bb6100f4366004610d46565b6101a4565b6100bb610107366004610d1c565b6101cf565b6100d861011a366004610d82565b6101ee565b6100bb61012d366004610d1c565b610226565b6100bb610140366004610d1c565b610245565b6100d8610153366004610d9d565b610264565b6101606102b6565b005b600061018161016f6102d9565b84846101796102e3565b929190610311565b5060015b92915050565b600061019f6101986102e3565b6002015490565b905090565b60006101c56101b16102d9565b8585856101bc6102e3565b93929190610405565b5060019392505050565b60006101816101dc6102d9565b84846101e66102e3565b929190610457565b6000610185826101fc6102e3565b9073ffffffffffffffffffffffffffffffffffffffff166000908152602091909152604090205490565b60006101816102336102d9565b848461023d6102e3565b929190610623565b60006101816102526102d9565b848461025c6102e3565b929190610775565b60006102af83836102736102e3565b919073ffffffffffffffffffffffffffffffffffffffff9182166000908152600193909301602090815260408085209290931684525290205490565b9392505050565b6102cf6102c16102d9565b6102c9610956565b90610984565b6102d7610a0b565b565b600061019f610a72565b60008061018560017f1da92899d3da68bf9787824388a37ea2bfa79780bcef91b9716c390eec8ecbef610dd0565b73ffffffffffffffffffffffffffffffffffffffff8216610393576040517f08c379a000000000000000000000000000000000000000000000000000000000815260206004820152601d60248201527f45524332303a20617070726f76616c20746f206164647265737328302900000060448201526064015b60405180910390fd5b73ffffffffffffffffffffffffffffffffffffffff838116600081815260018701602090815260408083209487168084529482529182902085905590518481527f8c5be1e5ebec7d5bd14f71427d1e84f3dd0314c0f7b2291e5b200ac8c7c3b92591015b60405180910390a350505050565b8373ffffffffffffffffffffffffffffffffffffffff168373ffffffffffffffffffffffffffffffffffffffff16146104445761044485848684610623565b61045085848484610775565b5050505050565b73ffffffffffffffffffffffffffffffffffffffff82166104d4576040517f08c379a000000000000000000000000000000000000000000000000000000000815260206004820152601d60248201527f45524332303a20617070726f76616c20746f2061646472657373283029000000604482015260640161038a565b73ffffffffffffffffffffffffffffffffffffffff808416600090815260018601602090815260408083209386168352929052205481156105b55780820181811161057b576040517f08c379a000000000000000000000000000000000000000000000000000000000815260206004820152601960248201527f45524332303a20616c6c6f77616e6365206f766572666c6f7700000000000000604482015260640161038a565b73ffffffffffffffffffffffffffffffffffffffff8086166000908152600188016020908152604080832093881683529290522081905590505b8273ffffffffffffffffffffffffffffffffffffffff168473ffffffffffffffffffffffffffffffffffffffff167f8c5be1e5ebec7d5bd14f71427d1e84f3dd0314c0f7b2291e5b200ac8c7c3b9258360405161061491815260200190565b60405180910390a35050505050565b73ffffffffffffffffffffffffffffffffffffffff82166106a0576040517f08c379a000000000000000000000000000000000000000000000000000000000815260206004820152601d60248201527f45524332303a20617070726f76616c20746f2061646472657373283029000000604482015260640161038a565b73ffffffffffffffffffffffffffffffffffffffff80841660009081526001860160209081526040808320938616835292905220547fffffffffffffffffffffffffffffffffffffffffffffffffffffffffffffffff811480159061070457508115155b156105b55781810381811061057b576040517f08c379a000000000000000000000000000000000000000000000000000000000815260206004820152601d60248201527f45524332303a20696e73756666696369656e7420616c6c6f77616e6365000000604482015260640161038a565b73ffffffffffffffffffffffffffffffffffffffff82166107f2576040517f08c379a000000000000000000000000000000000000000000000000000000000815260206004820152601d60248201527f45524332303a207472616e7366657220746f2061646472657373283029000000604482015260640161038a565b80156108f75773ffffffffffffffffffffffffffffffffffffffff831660009081526020859052604090205481810381811061088a576040517f08c379a000000000000000000000000000000000000000000000000000000000815260206004820152601b60248201527f45524332303a20696e73756666696369656e742062616c616e63650000000000604482015260640161038a565b8373ffffffffffffffffffffffffffffffffffffffff168573ffffffffffffffffffffffffffffffffffffffff16146108f45773ffffffffffffffffffffffffffffffffffffffff8086166000908152602088905260408082208490559186168152208054840190555b50505b8173ffffffffffffffffffffffffffffffffffffffff168373ffffffffffffffffffffffffffffffffffffffff167fddf252ad1be2c89b69c2b068fc378daa952ba7f163c4a11628f55a4df523b3ef836040516103f791815260200190565b60008061018560017fb53127684a568b3173ae13b9f8a6016e243e63b6e8ee1178d6a717850b5d6104610dd0565b815473ffffffffffffffffffffffffffffffffffffffff828116911614610a07576040517f08c379a000000000000000000000000000000000000000000000000000000000815260206004820152601960248201527f50726f787941646d696e3a206e6f74207468652061646d696e00000000000000604482015260640161038a565b5050565b6000610a15610bb9565b9050610a43817f36372b07000000000000000000000000000000000000000000000000000000006001610be7565b610a6f817f9d075186000000000000000000000000000000000000000000000000000000006001610be7565b50565b600033321480610a825750601836105b15610a8c57503390565b7fffffffffffffffffffffffffffffffffffffffffffffffffffffffffffffffec36013560601c7f000000000000000000000000000000000000000000000000000000000000000073ffffffffffffffffffffffffffffffffffffffff16331480610ba857506040517f8929a8ca00000000000000000000000000000000000000000000000000000000815273ffffffffffffffffffffffffffffffffffffffff82811660048301523360248301527f00000000000000000000000000000000000000000000000000000000000000001690638929a8ca90604401602060405180830381865afa158015610b84573d6000803e3d6000fd5b505050506040513d601f19601f82011682018060405250810190610ba89190610e0a565b15610bb257919050565b3391505090565b60008061018560017fca9d3e17f264b0f3984e2634e94adb37fa3e6a8103f06aeae6fa59e21c769f5e610dd0565b7c01000000000000000000000000000000000000000000000000000000007fffffffff00000000000000000000000000000000000000000000000000000000831601610c8f576040517f08c379a000000000000000000000000000000000000000000000000000000000815260206004820152601f60248201527f496e74657266616365446574656374696f6e3a2077726f6e672076616c756500604482015260640161038a565b7fffffffff00000000000000000000000000000000000000000000000000000000919091166000908152602092909252604090912080547fffffffffffffffffffffffffffffffffffffffffffffffffffffffffffffff0016911515919091179055565b803573ffffffffffffffffffffffffffffffffffffffff81168114610d1757600080fd5b919050565b60008060408385031215610d2f57600080fd5b610d3883610cf3565b946020939093013593505050565b600080600060608486031215610d5b57600080fd5b610d6484610cf3565b9250610d7260208501610cf3565b9150604084013590509250925092565b600060208284031215610d9457600080fd5b6102af82610cf3565b60008060408385031215610db057600080fd5b610db983610cf3565b9150610dc760208401610cf3565b90509250929050565b81810381811115610185577f4e487b7100000000000000000000000000000000000000000000000000000000600052601160045260246000fd5b600060208284031215610e1c57600080fd5b815180151581146102af57600080fdfea2646970667358221220b574d9437ee3086889104b076355ceb47e345b89a0865284e03af0cf2ba49e7b64736f6c63430008110033",
  "devdoc": {
    "details": "This contract is to be used as a diamond facet (see ERC2535 Diamond Standard https://eips.ethereum.org/EIPS/eip-2535).Note: This facet depends on {ProxyAdminFacet} and {InterfaceDetectionFacet}.",
    "kind": "dev",
    "methods": {
      "allowance(address,address)": {
        "params": {
          "owner": "The account that has granted an allowance to `spender`.",
          "spender": "The account that was granted an allowance by `owner`."
        },
        "returns": {
          "value": "The amount which `spender` is allowed to spend on behalf of `owner`."
        }
      },
      "approve(address,uint256)": {
        "details": "Reverts if `spender` is the zero address.Emits an {Approval} event.",
        "params": {
          "spender": "The account being granted the allowance by the message caller.",
          "value": "The allowance amount to grant."
        },
        "returns": {
          "result": "Whether the operation succeeded."
        }
      },
      "balanceOf(address)": {
        "params": {
          "owner": "The account whose balance will be returned."
        },
        "returns": {
          "balance": "The account balance."
        }
      },
      "decreaseAllowance(address,uint256)": {
        "details": "Reverts if `spender` is the zero address.Reverts if `spender` does not have at least `value` of allowance by the sender.Emits an {IERC20-Approval} event with an updated allowance for `spender` by the sender.",
        "params": {
          "spender": "The account whose allowance is being decreased.",
          "value": "The allowance amount decrease."
        },
        "returns": {
          "result": "Whether the operation succeeded."
        }
      },
      "increaseAllowance(address,uint256)": {
        "details": "Reverts if `spender` is the zero address.Reverts if `spender`'s allowance by the sender overflows.Emits an {IERC20-Approval} event with an updated allowance for `spender` by the sender.",
        "params": {
          "spender": "The account whose allowance is being increased.",
          "value": "The allowance amount increase."
        },
        "returns": {
          "result": "Whether the operation succeeded."
        }
      },
      "initERC20Storage()": {
        "details": "Reverts if the sender is not the proxy admin."
      },
      "totalSupply()": {
        "returns": {
          "supply": "The total token supply."
        }
      },
      "transfer(address,uint256)": {
        "details": "Reverts if `to` is the zero address.Reverts if the sender does not have at least `value` of balance.Emits a {Transfer} event.",
        "params": {
          "to": "The account to transfer the tokens to.",
          "value": "The amount of tokens to transfer."
        },
        "returns": {
          "result": "Whether the operation succeeded."
        }
      },
      "transferFrom(address,address,uint256)": {
        "details": "Reverts if `to` is the zero address.Reverts if `from` does not have at least `value` of balance.Reverts if the sender is not `from` and does not have at least `value` of allowance by `from`.Emits a {Transfer} event.Optionally emits an {Approval} event if the sender is not `from` (non-standard).",
        "params": {
          "from": "The account which owns the tokens to transfer.",
          "to": "The account to transfer the tokens to.",
          "value": "The amount of tokens to transfer."
        },
        "returns": {
          "result": "Whether the operation succeeded."
        }
      }
    },
    "title": "ERC20 Fungible Token Standard (facet version).",
    "version": 1
  },
  "userdoc": {
    "events": {
      "Approval(address,address,uint256)": {
        "notice": "Emitted when an approval is set."
      },
      "Transfer(address,address,uint256)": {
        "notice": "Emitted when tokens are transferred, including zero value transfers."
      }
    },
    "kind": "user",
    "methods": {
      "allowance(address,address)": {
        "notice": "Gets the amount that an account is allowed to spend on behalf of another."
      },
      "approve(address,uint256)": {
        "notice": "Sets the allowance to an account from the sender.Warning: Beware that changing an allowance with this method brings the risk that someone may use both the old and  the new allowance by unfortunate transaction ordering. One possible solution to mitigate this race condition is to first reduce  the spender's allowance to 0 and set the desired value afterwards: https://github.com/ethereum/EIPs/issues/20#issuecomment-263524729"
      },
      "balanceOf(address)": {
        "notice": "Gets an account balance."
      },
      "decreaseAllowance(address,uint256)": {
        "notice": "Decreases the allowance granted to an account by the sender.This is an alternative to {approve} that can be used as a mitigation for transaction ordering problems."
      },
      "increaseAllowance(address,uint256)": {
        "notice": "Increases the allowance granted to an account by the sender.This is an alternative to {approve} that can be used as a mitigation for transaction ordering problems."
      },
      "initERC20Storage()": {
        "notice": "Marks the following ERC165 interface(s) as supported: ERC20, ERC20Allowance."
      },
      "totalSupply()": {
        "notice": "Gets the total token supply."
      },
      "transfer(address,uint256)": {
        "notice": "Transfers an amount of tokens to a recipient from the sender."
      },
      "transferFrom(address,address,uint256)": {
        "notice": "Transfers an amount of tokens to a recipient from a specified address."
      }
    },
    "version": 1
  },
  "storageLayout": {
    "storage": [],
    "types": null
  }
}