{
  "address": "0xed65ddda84726ba3Db58d4e05F5b6a9529850fE1",
  "abi": [
    {
      "inputs": [
        {
          "internalType": "contract IForwarderRegistry",
          "name": "forwarderRegistry",
          "type": "address"
        }
      ],
      "stateMutability": "nonpayable",
      "type": "constructor"
    },
    {
      "inputs": [],
      "name": "initERC20MetadataStorage",
      "outputs": [],
      "stateMutability": "nonpayable",
      "type": "function"
    },
    {
      "inputs": [
        {
          "internalType": "string",
          "name": "uri",
          "type": "string"
        }
      ],
      "name": "setTokenURI",
      "outputs": [],
      "stateMutability": "nonpayable",
      "type": "function"
    },
    {
      "inputs": [],
      "name": "tokenURI",
      "outputs": [
        {
          "internalType": "string",
          "name": "",
          "type": "string"
        }
      ],
      "stateMutability": "view",
      "type": "function"
    }
  ],
  "transactionHash": "0x374deff739759502fdc53a6b6e30c52f8a8248bc1fb5f02b17509a53197948e9",
  "args": [
    "0x3f547F87251710F70109Ae0409d461b270709693"
  ],
  "numDeployments": 1,
  "solcInputHash": "a6ab94751dde68b4d6125ac6f179d1ce",
  "bytecode": "0x60a060405234801561001057600080fd5b506040516109e43803806109e483398101604081905261002f91610040565b6001600160a01b0316608052610070565b60006020828403121561005257600080fd5b81516001600160a01b038116811461006957600080fd5b9392505050565b608051610952610092600039600081816103b1015261043901526109526000f3fe608060405234801561001057600080fd5b50600436106100415760003560e01c80633c130d9014610046578063529eec4714610064578063e0df5b6f1461006e575b600080fd5b61004e610081565b60405161005b91906105ef565b60405180910390f35b61006c610098565b005b61006c61007c36600461065b565b6100bb565b606061009361008e6100ec565b610120565b905090565b6100b16100a36101b6565b6100ab6101c0565b906101ee565b6100b9610276565b565b6100d46100c66101b6565b6100ce6102ab565b906102d9565b6100e882826100e16100ec565b919061035c565b5050565b60008061011a60017ff41bf6a5db26bffdfab174dcf66b31fbba8fdb7e3db040721ce1e62d61839ceb6106cd565b92915050565b606081600001805461013190610707565b80601f016020809104026020016040519081016040528092919081815260200182805461015d90610707565b80156101aa5780601f1061017f576101008083540402835291602001916101aa565b820191906000526020600020905b81548152906001019060200180831161018d57829003601f168201915b50505050509050919050565b600061009361036e565b60008061011a60017fb53127684a568b3173ae13b9f8a6016e243e63b6e8ee1178d6a717850b5d61046106cd565b815473ffffffffffffffffffffffffffffffffffffffff8281169116146100e8576040517f08c379a000000000000000000000000000000000000000000000000000000000815260206004820152601960248201527f50726f787941646d696e3a206e6f74207468652061646d696e0000000000000060448201526064015b60405180910390fd5b6100b97f3c130d900000000000000000000000000000000000000000000000000000000060016102a46104b5565b91906104e3565b60008061011a60017fc9ed16f33ab3a66c84bfd83099ccb2a8845871e2e1c1928f63797152f0fd54cd6106cd565b815473ffffffffffffffffffffffffffffffffffffffff8281169116146100e8576040517f08c379a000000000000000000000000000000000000000000000000000000000815260206004820152601860248201527f4f776e6572736869703a206e6f7420746865206f776e65720000000000000000604482015260640161026d565b826103688284836107d8565b50505050565b60003332148061037e5750601836105b1561038857503390565b7fffffffffffffffffffffffffffffffffffffffffffffffffffffffffffffffec36013560601c7f000000000000000000000000000000000000000000000000000000000000000073ffffffffffffffffffffffffffffffffffffffff163314806104a457506040517f8929a8ca00000000000000000000000000000000000000000000000000000000815273ffffffffffffffffffffffffffffffffffffffff82811660048301523360248301527f00000000000000000000000000000000000000000000000000000000000000001690638929a8ca90604401602060405180830381865afa158015610480573d6000803e3d6000fd5b505050506040513d601f19601f820116820180604052508101906104a491906108f3565b156104ae57919050565b3391505090565b60008061011a60017fca9d3e17f264b0f3984e2634e94adb37fa3e6a8103f06aeae6fa59e21c769f5e6106cd565b7c01000000000000000000000000000000000000000000000000000000007fffffffff0000000000000000000000000000000000000000000000000000000083160161058b576040517f08c379a000000000000000000000000000000000000000000000000000000000815260206004820152601f60248201527f496e74657266616365446574656374696f6e3a2077726f6e672076616c756500604482015260640161026d565b7fffffffff00000000000000000000000000000000000000000000000000000000919091166000908152602092909252604090912080547fffffffffffffffffffffffffffffffffffffffffffffffffffffffffffffff0016911515919091179055565b600060208083528351808285015260005b8181101561061c57858101830151858201604001528201610600565b5060006040828601015260407fffffffffffffffffffffffffffffffffffffffffffffffffffffffffffffffe0601f8301168501019250505092915050565b6000806020838503121561066e57600080fd5b823567ffffffffffffffff8082111561068657600080fd5b818501915085601f83011261069a57600080fd5b8135818111156106a957600080fd5b8660208285010111156106bb57600080fd5b60209290920196919550909350505050565b8181038181111561011a577f4e487b7100000000000000000000000000000000000000000000000000000000600052601160045260246000fd5b600181811c9082168061071b57607f821691505b602082108103610754577f4e487b7100000000000000000000000000000000000000000000000000000000600052602260045260246000fd5b50919050565b7f4e487b7100000000000000000000000000000000000000000000000000000000600052604160045260246000fd5b601f8211156107d357600081815260208120601f850160051c810160208610156107b05750805b601f850160051c820191505b818110156107cf578281556001016107bc565b5050505b505050565b67ffffffffffffffff8311156107f0576107f061075a565b610804836107fe8354610707565b83610789565b6000601f84116001811461085657600085156108205750838201355b7fffffffffffffffffffffffffffffffffffffffffffffffffffffffffffffffff600387901b1c1916600186901b1783556108ec565b6000838152602090207fffffffffffffffffffffffffffffffffffffffffffffffffffffffffffffffe0861690835b828110156108a55786850135825560209485019460019092019101610885565b50868210156108e0577fffffffffffffffffffffffffffffffffffffffffffffffffffffffffffffffff60f88860031b161c19848701351681555b505060018560011b0183555b5050505050565b60006020828403121561090557600080fd5b8151801515811461091557600080fd5b939250505056fea2646970667358221220dd738aa867d0fb86b364678f85a134202e60d0c40c8ead327157e0eda7e3116764736f6c63430008110033",
  "devdoc": {
    "details": "This contract is to be used as a diamond facet (see ERC2535 Diamond Standard https://eips.ethereum.org/EIPS/eip-2535).Note: This facet depends on {ProxyAdminFacet}, {ContractOwnershipFacet} and {InterfaceDetectionFacet}.",
    "kind": "dev",
    "methods": {
      "setTokenURI(string)": {
        "details": "Reverts if the sender is not the contract owner.",
        "params": {
          "uri": "The token URI."
        }
      },
      "tokenURI()": {
        "returns": {
          "_0": "The token metadata URI."
        }
      }
    },
    "title": "ERC20 Fungible Token Standard, optional extension: Metadata (facet version).",
    "version": 1
  },
  "userdoc": {
    "kind": "user",
    "methods": {
      "initERC20MetadataStorage()": {
        "notice": "Marks the following ERC165 interface(s) as supported: ERC20Metadata."
      },
      "setTokenURI(string)": {
        "notice": "Sets the token URI."
      },
      "tokenURI()": {
        "notice": "Gets the token metadata URI."
      }
    },
    "version": 1
  },
  "storageLayout": {
    "storage": [],
    "types": null
  }
}