{
  "address": "0xF6Ff6A312a330a6A00cc18B27Cc41D81f432E9A5",
  "abi": [
    {
      "inputs": [
        {
          "internalType": "contract IForwarderRegistry",
          "name": "forwarderRegistry",
          "type": "address"
        }
      ],
      "stateMutability": "nonpayable",
      "type": "constructor"
    },
    {
      "inputs": [],
      "name": "initERC20SafeTransfersStorage",
      "outputs": [],
      "stateMutability": "nonpayable",
      "type": "function"
    },
    {
      "inputs": [
        {
          "internalType": "address",
          "name": "to",
          "type": "address"
        },
        {
          "internalType": "uint256",
          "name": "value",
          "type": "uint256"
        },
        {
          "internalType": "bytes",
          "name": "data",
          "type": "bytes"
        }
      ],
      "name": "safeTransfer",
      "outputs": [
        {
          "internalType": "bool",
          "name": "",
          "type": "bool"
        }
      ],
      "stateMutability": "nonpayable",
      "type": "function"
    },
    {
      "inputs": [
        {
          "internalType": "address",
          "name": "from",
          "type": "address"
        },
        {
          "internalType": "address",
          "name": "to",
          "type": "address"
        },
        {
          "internalType": "uint256",
          "name": "value",
          "type": "uint256"
        },
        {
          "internalType": "bytes",
          "name": "data",
          "type": "bytes"
        }
      ],
      "name": "safeTransferFrom",
      "outputs": [
        {
          "internalType": "bool",
          "name": "",
          "type": "bool"
        }
      ],
      "stateMutability": "nonpayable",
      "type": "function"
    }
  ],
  "transactionHash": "0x01a31dad9340b76d8a53b728cdc763c78cf4c81664c7880977b906d8a3f635cc",
  "args": [
    "0x3f547F87251710F70109Ae0409d461b270709693"
  ],
  "numDeployments": 1,
  "solcInputHash": "a6ab94751dde68b4d6125ac6f179d1ce",
  "bytecode": "0x60a060405234801561001057600080fd5b50604051610e4f380380610e4f83398101604081905261002f91610040565b6001600160a01b0316608052610070565b60006020828403121561005257600080fd5b81516001600160a01b038116811461006957600080fd5b9392505050565b608051610dbd6100926000396000818161036b01526103f30152610dbd6000f3fe608060405234801561001057600080fd5b50600436106100415760003560e01c8063b88d4fde14610046578063d294f8eb1461006d578063eb79554914610077575b600080fd5b610059610054366004610b7c565b61008a565b604051901515815260200160405180910390f35b6100756100bb565b005b610059610085366004610beb565b6100de565b60006100af61009761010c565b87878787876100a461011b565b95949392919061014f565b50600195945050505050565b6100d46100c661010c565b6100ce6101c5565b906101f3565b6100dc61027f565b565b60006101016100eb61010c565b868686866100f761011b565b94939291906102b4565b506001949350505050565b6000610116610328565b905090565b60008061014960017f1da92899d3da68bf9787824388a37ea2bfa79780bcef91b9716c390eec8ecbef610c45565b92915050565b61015c878787878761046f565b73ffffffffffffffffffffffffffffffffffffffff84163b156101bc576101bc8686868686868080601f0160208091040260200160405190810160405280939291908181526020018383808284376000920191909152506104c192505050565b50505050505050565b60008061014960017fb53127684a568b3173ae13b9f8a6016e243e63b6e8ee1178d6a717850b5d6104610c45565b815473ffffffffffffffffffffffffffffffffffffffff82811691161461027b576040517f08c379a000000000000000000000000000000000000000000000000000000000815260206004820152601960248201527f50726f787941646d696e3a206e6f74207468652061646d696e0000000000000060448201526064015b60405180910390fd5b5050565b6100dc7f53f41a970000000000000000000000000000000000000000000000000000000060016102ad6105e7565b9190610615565b6102c086868686610721565b73ffffffffffffffffffffffffffffffffffffffff84163b15610320576103208586868686868080601f0160208091040260200160405190810160405280939291908181526020018383808284376000920191909152506104c192505050565b505050505050565b6000333214806103385750601836105b1561034257503390565b7fffffffffffffffffffffffffffffffffffffffffffffffffffffffffffffffec36013560601c7f000000000000000000000000000000000000000000000000000000000000000073ffffffffffffffffffffffffffffffffffffffff1633148061045e57506040517f8929a8ca00000000000000000000000000000000000000000000000000000000815273ffffffffffffffffffffffffffffffffffffffff82811660048301523360248301527f00000000000000000000000000000000000000000000000000000000000000001690638929a8ca90604401602060405180830381865afa15801561043a573d6000803e3d6000fd5b505050506040513d601f19601f8201168201806040525081019061045e9190610c7f565b1561046857919050565b3391505090565b8373ffffffffffffffffffffffffffffffffffffffff168373ffffffffffffffffffffffffffffffffffffffff16146104ae576104ae85848684610910565b6104ba85848484610721565b5050505050565b6040517f4fc35859000000000000000000000000000000000000000000000000000000008082529073ffffffffffffffffffffffffffffffffffffffff851690634fc358599061051b908990899088908890600401610ca8565b6020604051808303816000875af115801561053a573d6000803e3d6000fd5b505050506040513d601f19601f8201168201806040525081019061055e9190610d45565b7fffffffff0000000000000000000000000000000000000000000000000000000016146104ba576040517f08c379a000000000000000000000000000000000000000000000000000000000815260206004820152601d60248201527f45524332303a2073616665207472616e736665722072656a65637465640000006044820152606401610272565b60008061014960017fca9d3e17f264b0f3984e2634e94adb37fa3e6a8103f06aeae6fa59e21c769f5e610c45565b7c01000000000000000000000000000000000000000000000000000000007fffffffff000000000000000000000000000000000000000000000000000000008316016106bd576040517f08c379a000000000000000000000000000000000000000000000000000000000815260206004820152601f60248201527f496e74657266616365446574656374696f6e3a2077726f6e672076616c7565006044820152606401610272565b7fffffffff00000000000000000000000000000000000000000000000000000000919091166000908152602092909252604090912080547fffffffffffffffffffffffffffffffffffffffffffffffffffffffffffffff0016911515919091179055565b73ffffffffffffffffffffffffffffffffffffffff821661079e576040517f08c379a000000000000000000000000000000000000000000000000000000000815260206004820152601d60248201527f45524332303a207472616e7366657220746f20616464726573732830290000006044820152606401610272565b80156108a35773ffffffffffffffffffffffffffffffffffffffff8316600090815260208590526040902054818103818110610836576040517f08c379a000000000000000000000000000000000000000000000000000000000815260206004820152601b60248201527f45524332303a20696e73756666696369656e742062616c616e636500000000006044820152606401610272565b8373ffffffffffffffffffffffffffffffffffffffff168573ffffffffffffffffffffffffffffffffffffffff16146108a05773ffffffffffffffffffffffffffffffffffffffff8086166000908152602088905260408082208490559186168152208054840190555b50505b8173ffffffffffffffffffffffffffffffffffffffff168373ffffffffffffffffffffffffffffffffffffffff167fddf252ad1be2c89b69c2b068fc378daa952ba7f163c4a11628f55a4df523b3ef8360405161090291815260200190565b60405180910390a350505050565b73ffffffffffffffffffffffffffffffffffffffff821661098d576040517f08c379a000000000000000000000000000000000000000000000000000000000815260206004820152601d60248201527f45524332303a20617070726f76616c20746f20616464726573732830290000006044820152606401610272565b73ffffffffffffffffffffffffffffffffffffffff80841660009081526001860160209081526040808320938616835292905220547fffffffffffffffffffffffffffffffffffffffffffffffffffffffffffffffff81148015906109f157508115155b15610a9c57818103818110610a62576040517f08c379a000000000000000000000000000000000000000000000000000000000815260206004820152601d60248201527f45524332303a20696e73756666696369656e7420616c6c6f77616e63650000006044820152606401610272565b73ffffffffffffffffffffffffffffffffffffffff8086166000908152600188016020908152604080832093881683529290522081905590505b8273ffffffffffffffffffffffffffffffffffffffff168473ffffffffffffffffffffffffffffffffffffffff167f8c5be1e5ebec7d5bd14f71427d1e84f3dd0314c0f7b2291e5b200ac8c7c3b92583604051610afb91815260200190565b60405180910390a35050505050565b803573ffffffffffffffffffffffffffffffffffffffff81168114610b2e57600080fd5b919050565b60008083601f840112610b4557600080fd5b50813567ffffffffffffffff811115610b5d57600080fd5b602083019150836020828501011115610b7557600080fd5b9250929050565b600080600080600060808688031215610b9457600080fd5b610b9d86610b0a565b9450610bab60208701610b0a565b935060408601359250606086013567ffffffffffffffff811115610bce57600080fd5b610bda88828901610b33565b969995985093965092949392505050565b60008060008060608587031215610c0157600080fd5b610c0a85610b0a565b935060208501359250604085013567ffffffffffffffff811115610c2d57600080fd5b610c3987828801610b33565b95989497509550505050565b81810381811115610149577f4e487b7100000000000000000000000000000000000000000000000000000000600052601160045260246000fd5b600060208284031215610c9157600080fd5b81518015158114610ca157600080fd5b9392505050565b600073ffffffffffffffffffffffffffffffffffffffff8087168352602081871681850152856040850152608060608501528451915081608085015260005b82811015610d035785810182015185820160a001528101610ce7565b5050600060a0828501015260a07fffffffffffffffffffffffffffffffffffffffffffffffffffffffffffffffe0601f83011684010191505095945050505050565b600060208284031215610d5757600080fd5b81517fffffffff0000000000000000000000000000000000000000000000000000000081168114610ca157600080fdfea26469706673582212203b06231c2ed163cdbe71704619c21a3c90df0e7be7b82cb3bb215ab67b973f3264736f6c63430008110033",
  "devdoc": {
    "details": "This contract is to be used as a diamond facet (see ERC2535 Diamond Standard https://eips.ethereum.org/EIPS/eip-2535).Note: This facet depends on {ProxyAdminFacet} and {InterfaceDetectionFacet}.",
    "kind": "dev",
    "methods": {
      "initERC20SafeTransfersStorage()": {
        "details": "Reverts if the sender is not the proxy admin."
      },
      "safeTransfer(address,uint256,bytes)": {
        "details": "Reverts if `to` is the zero address.Reverts if the sender does not have at least `value` of balance.Reverts if `to` is a contract and the call to `onERC20Received` fails, reverts or is rejected.Emits an {IERC20-Transfer} event.",
        "params": {
          "data": "Optional additional data with no specified format, to be passed to the receiver contract.",
          "to": "The account to transfer the tokens to.",
          "value": "The amount of tokens to transfer."
        },
        "returns": {
          "_0": "Whether the operation succeeded."
        }
      },
      "safeTransferFrom(address,address,uint256,bytes)": {
        "details": "Reverts if `to` is the zero address.Reverts if `from` does not have at least `value` of balance.Reverts if the sender is not `from` and does not have at least `value` of allowance by `from`.Reverts if `to` is a contract and the call to `onERC20Received(address,address,uint256,bytes)` fails, reverts or is rejected.Emits an {IERC20-Transfer} event.Optionally emits an {IERC20-Approval} event if the sender is not `from` (non-standard).",
        "params": {
          "data": "Optional additional data with no specified format, to be passed to the receiver contract.",
          "from": "The account which owns the tokens to transfer.",
          "to": "The account to transfer the tokens to.",
          "value": "The amount of tokens to transfer."
        },
        "returns": {
          "_0": "Whether the operation succeeded."
        }
      }
    },
    "title": "ERC20 Fungible Token Standard, optional extension: Safe Transfers (facet version).",
    "version": 1
  },
  "userdoc": {
    "kind": "user",
    "methods": {
      "initERC20SafeTransfersStorage()": {
        "notice": "Marks the following ERC165 interface(s) as supported: ERC20BatchTransfers."
      },
      "safeTransfer(address,uint256,bytes)": {
        "notice": "Transfers an amount of tokens to a recipient from the sender. If the recipient is a contract, calls `onERC20Received` on it."
      },
      "safeTransferFrom(address,address,uint256,bytes)": {
        "notice": "Transfers an amount of tokens to a recipient from a specified address. If the recipient is a contract, calls `onERC20Received` on it."
      }
    },
    "version": 1
  },
  "storageLayout": {
    "storage": [],
    "types": null
  }
}