{
  "address": "0x5c93D066Fd6A20150489A638ebD6221D8d9397Eb",
  "abi": [
    {
      "inputs": [
        {
          "internalType": "contract IForwarderRegistry",
          "name": "forwarderRegistry",
          "type": "address"
        }
      ],
      "stateMutability": "nonpayable",
      "type": "constructor"
    },
    {
      "inputs": [],
      "name": "MINTER_ROLE",
      "outputs": [
        {
          "internalType": "bytes32",
          "name": "",
          "type": "bytes32"
        }
      ],
      "stateMutability": "view",
      "type": "function"
    },
    {
      "inputs": [
        {
          "internalType": "address[]",
          "name": "recipients",
          "type": "address[]"
        },
        {
          "internalType": "uint256[]",
          "name": "values",
          "type": "uint256[]"
        }
      ],
      "name": "batchMint",
      "outputs": [],
      "stateMutability": "nonpayable",
      "type": "function"
    },
    {
      "inputs": [],
      "name": "initERC20MintableStorage",
      "outputs": [],
      "stateMutability": "nonpayable",
      "type": "function"
    },
    {
      "inputs": [
        {
          "internalType": "address",
          "name": "to",
          "type": "address"
        },
        {
          "internalType": "uint256",
          "name": "value",
          "type": "uint256"
        }
      ],
      "name": "mint",
      "outputs": [],
      "stateMutability": "nonpayable",
      "type": "function"
    }
  ],
  "transactionHash": "0x4d9572fe0ea1ca3836308f70a722426e2f273c82fe468d9cd1170ae951cb8aaa",
  "args": [
    "0x3f547F87251710F70109Ae0409d461b270709693"
  ],
  "numDeployments": 1,
  "solcInputHash": "a6ab94751dde68b4d6125ac6f179d1ce",
  "bytecode": "0x60a060405234801561001057600080fd5b50604051610fb1380380610fb183398101604081905261002f91610040565b6001600160a01b0316608052610070565b60006020828403121561005257600080fd5b81516001600160a01b038116811461006957600080fd5b9392505050565b608051610f1f6100926000396000818161087a01526109020152610f1f6000f3fe608060405234801561001057600080fd5b506004361061004c5760003560e01c806311e60a3e1461005157806340c10f191461005b578063685731071461006e578063d539139314610081575b600080fd5b6100596100ba565b005b610059610069366004610c4a565b6100dd565b61005961007c366004610cdb565b610130565b6100a87f6d696e746572000000000000000000000000000000000000000000000000000081565b60405190815260200160405180910390f35b6100d36100c56101da565b6100cd6101e9565b9061021d565b6100db6102a5565b565b6101187f6d696e74657200000000000000000000000000000000000000000000000000006101096101da565b6101116102da565b9190610308565b61012c82826101256103b9565b91906103e7565b5050565b61015c7f6d696e74657200000000000000000000000000000000000000000000000000006101096101da565b6101d4848480806020026020016040519081016040528093929190818152602001838360200280828437600092019190915250506040805160208088028281018201909352878252909350879250869182918501908490808284376000920191909152506101cd92506103b9915050565b9190610560565b50505050565b60006101e4610837565b905090565b60008061021760017fb53127684a568b3173ae13b9f8a6016e243e63b6e8ee1178d6a717850b5d6104610d47565b92915050565b815473ffffffffffffffffffffffffffffffffffffffff82811691161461012c576040517f08c379a000000000000000000000000000000000000000000000000000000000815260206004820152601960248201527f50726f787941646d696e3a206e6f74207468652061646d696e0000000000000060448201526064015b60405180910390fd5b6100db7f28963e1e0000000000000000000000000000000000000000000000000000000060016102d361097e565b91906109ac565b60008061021760017fc8827d3282af6f37b64c3e9e6f3ac9df286ab0bb0fccd6f8661bf19adb368b23610d47565b60008281526020848152604080832073ffffffffffffffffffffffffffffffffffffffff8516845290915290205460ff166103b45761034682610ab8565b6040516020016103569190610da5565b604080517fffffffffffffffffffffffffffffffffffffffffffffffffffffffffffffffe0818403018152908290527f08c379a000000000000000000000000000000000000000000000000000000000825261029c91600401610e11565b505050565b60008061021760017f1da92899d3da68bf9787824388a37ea2bfa79780bcef91b9716c390eec8ecbef610d47565b73ffffffffffffffffffffffffffffffffffffffff8216610464576040517f08c379a000000000000000000000000000000000000000000000000000000000815260206004820152601960248201527f45524332303a206d696e7420746f206164647265737328302900000000000000604482015260640161029c565b801561050d5760028301548181018181116104db576040517f08c379a000000000000000000000000000000000000000000000000000000000815260206004820152601660248201527f45524332303a20737570706c79206f766572666c6f7700000000000000000000604482015260640161029c565b60028501555073ffffffffffffffffffffffffffffffffffffffff821660009081526020849052604090208054820190555b60405181815273ffffffffffffffffffffffffffffffffffffffff8316906000907fddf252ad1be2c89b69c2b068fc378daa952ba7f163c4a11628f55a4df523b3ef9060200160405180910390a3505050565b8151815181146105cc576040517f08c379a000000000000000000000000000000000000000000000000000000000815260206004820152601a60248201527f45524332303a20696e636f6e73697374656e7420617272617973000000000000604482015260640161029c565b806000036105da5750505050565b6000805b8281146107b15760008582815181106105f9576105f9610e62565b60200260200101519050600073ffffffffffffffffffffffffffffffffffffffff168173ffffffffffffffffffffffffffffffffffffffff1603610699576040517f08c379a000000000000000000000000000000000000000000000000000000000815260206004820152601960248201527f45524332303a206d696e7420746f206164647265737328302900000000000000604482015260640161029c565b60008583815181106106ad576106ad610e62565b60200260200101519050806000146107595783810184811161072b576040517f08c379a000000000000000000000000000000000000000000000000000000000815260206004820152601660248201527f45524332303a2076616c756573206f766572666c6f7700000000000000000000604482015260640161029c565b73ffffffffffffffffffffffffffffffffffffffff8316600090815260208a90526040902080548301905593505b60405181815273ffffffffffffffffffffffffffffffffffffffff8316906000907fddf252ad1be2c89b69c2b068fc378daa952ba7f163c4a11628f55a4df523b3ef9060200160405180910390a350506001016105de565b508015610830576002850154818101818111610829576040517f08c379a000000000000000000000000000000000000000000000000000000000815260206004820152601660248201527f45524332303a20737570706c79206f766572666c6f7700000000000000000000604482015260640161029c565b6002870155505b5050505050565b6000333214806108475750601836105b1561085157503390565b7fffffffffffffffffffffffffffffffffffffffffffffffffffffffffffffffec36013560601c7f000000000000000000000000000000000000000000000000000000000000000073ffffffffffffffffffffffffffffffffffffffff1633148061096d57506040517f8929a8ca00000000000000000000000000000000000000000000000000000000815273ffffffffffffffffffffffffffffffffffffffff82811660048301523360248301527f00000000000000000000000000000000000000000000000000000000000000001690638929a8ca90604401602060405180830381865afa158015610949573d6000803e3d6000fd5b505050506040513d601f19601f8201168201806040525081019061096d9190610e91565b1561097757919050565b3391505090565b60008061021760017fca9d3e17f264b0f3984e2634e94adb37fa3e6a8103f06aeae6fa59e21c769f5e610d47565b7c01000000000000000000000000000000000000000000000000000000007fffffffff00000000000000000000000000000000000000000000000000000000831601610a54576040517f08c379a000000000000000000000000000000000000000000000000000000000815260206004820152601f60248201527f496e74657266616365446574656374696f6e3a2077726f6e672076616c756500604482015260640161029c565b7fffffffff00000000000000000000000000000000000000000000000000000000919091166000908152602092909252604090912080547fffffffffffffffffffffffffffffffffffffffffffffffffffffffffffffff0016911515919091179055565b60606000829003610ad757505060408051602081019091526000815290565b600082604051602001610aec91815260200190565b604080517fffffffffffffffffffffffffffffffffffffffffffffffffffffffffffffffe08184030181529190529050601f5b818181518110610b3157610b31610e62565b01602001517fff0000000000000000000000000000000000000000000000000000000000000016600003610b86577fffffffffffffffffffffffffffffffffffffffffffffffffffffffffffffffff01610b1f565b60008160010167ffffffffffffffff811115610ba457610ba4610eba565b6040519080825280601f01601f191660200182016040528015610bce576020820181803683370190505b50905060005b828111610c4157838181518110610bed57610bed610e62565b602001015160f81c60f81b828281518110610c0a57610c0a610e62565b60200101907effffffffffffffffffffffffffffffffffffffffffffffffffffffffffffff1916908160001a905350600101610bd4565b50949350505050565b60008060408385031215610c5d57600080fd5b823573ffffffffffffffffffffffffffffffffffffffff81168114610c8157600080fd5b946020939093013593505050565b60008083601f840112610ca157600080fd5b50813567ffffffffffffffff811115610cb957600080fd5b6020830191508360208260051b8501011115610cd457600080fd5b9250929050565b60008060008060408587031215610cf157600080fd5b843567ffffffffffffffff80821115610d0957600080fd5b610d1588838901610c8f565b90965094506020870135915080821115610d2e57600080fd5b50610d3b87828801610c8f565b95989497509550505050565b81810381811115610217577f4e487b7100000000000000000000000000000000000000000000000000000000600052601160045260246000fd5b60005b83811015610d9c578181015183820152602001610d84565b50506000910152565b7f416363657373436f6e74726f6c3a206d697373696e6720270000000000000000815260008251610ddd816018850160208701610d81565b7f2720726f6c6500000000000000000000000000000000000000000000000000006018939091019283015250601e01919050565b6020815260008251806020840152610e30816040850160208701610d81565b601f017fffffffffffffffffffffffffffffffffffffffffffffffffffffffffffffffe0169190910160400192915050565b7f4e487b7100000000000000000000000000000000000000000000000000000000600052603260045260246000fd5b600060208284031215610ea357600080fd5b81518015158114610eb357600080fd5b9392505050565b7f4e487b7100000000000000000000000000000000000000000000000000000000600052604160045260246000fdfea264697066735822122091c4ae9009dad81820edc6f862e62cf01c4bd8bccb53dfa6eb7fef0c5511aff864736f6c63430008110033",
  "devdoc": {
    "details": "This contract is to be used as a diamond facet (see ERC2535 Diamond Standard https://eips.ethereum.org/EIPS/eip-2535).Note: This facet depends on {ProxyAdminFacet}, {ContractOwnershipFacet}, {InterfaceDetectionFacet} and {AccessControlFacet}.",
    "kind": "dev",
    "methods": {
      "batchMint(address[],uint256[])": {
        "details": "Reverts if the sender does not have the 'minter' role.",
        "params": {
          "recipients": "The list of accounts to mint the tokens to.",
          "values": "The list of amounts of tokens to mint to each of `recipients`."
        }
      },
      "initERC20MintableStorage()": {
        "details": "Reverts if the sender is not the proxy admin."
      },
      "mint(address,uint256)": {
        "details": "Reverts if the sender does not have the 'minter' role.",
        "params": {
          "to": "The account to mint the tokens to.",
          "value": "The amount of tokens to mint."
        }
      }
    },
    "title": "ERC20 Fungible Token Standard, optional extension: Mintable (facet version).",
    "version": 1
  },
  "userdoc": {
    "kind": "user",
    "methods": {
      "batchMint(address[],uint256[])": {
        "notice": "Mints multiple amounts of tokens to multiple recipients, increasing the total supply."
      },
      "initERC20MintableStorage()": {
        "notice": "Marks the following ERC165 interface(s) as supported: ERC20Mintable."
      },
      "mint(address,uint256)": {
        "notice": "Mints an amount of tokens to a recipient, increasing the total supply."
      }
    },
    "version": 1
  },
  "storageLayout": {
    "storage": [],
    "types": null
  }
}