{
  "address": "0x032FcFFbfD8F4500520F2e9406b3c27a7892Ce53",
  "abi": [
    {
      "inputs": [
        {
          "internalType": "contract IForwarderRegistry",
          "name": "forwarderRegistry",
          "type": "address"
        }
      ],
      "stateMutability": "nonpayable",
      "type": "constructor"
    },
    {
      "inputs": [],
      "name": "DOMAIN_SEPARATOR",
      "outputs": [
        {
          "internalType": "bytes32",
          "name": "",
          "type": "bytes32"
        }
      ],
      "stateMutability": "view",
      "type": "function"
    },
    {
      "inputs": [],
      "name": "initERC20PermitStorage",
      "outputs": [],
      "stateMutability": "nonpayable",
      "type": "function"
    },
    {
      "inputs": [
        {
          "internalType": "address",
          "name": "owner",
          "type": "address"
        }
      ],
      "name": "nonces",
      "outputs": [
        {
          "internalType": "uint256",
          "name": "",
          "type": "uint256"
        }
      ],
      "stateMutability": "view",
      "type": "function"
    },
    {
      "inputs": [
        {
          "internalType": "address",
          "name": "owner",
          "type": "address"
        },
        {
          "internalType": "address",
          "name": "spender",
          "type": "address"
        },
        {
          "internalType": "uint256",
          "name": "value",
          "type": "uint256"
        },
        {
          "internalType": "uint256",
          "name": "deadline",
          "type": "uint256"
        },
        {
          "internalType": "uint8",
          "name": "v",
          "type": "uint8"
        },
        {
          "internalType": "bytes32",
          "name": "r",
          "type": "bytes32"
        },
        {
          "internalType": "bytes32",
          "name": "s",
          "type": "bytes32"
        }
      ],
      "name": "permit",
      "outputs": [],
      "stateMutability": "nonpayable",
      "type": "function"
    }
  ],
  "transactionHash": "0xfb5dd9da96ede0a16b969a324db0960b4a4d3a0eb130f90f9b3c5c7dd4632a3e",
  "args": [
    "0x3f547F87251710F70109Ae0409d461b270709693"
  ],
  "numDeployments": 1,
  "solcInputHash": "a6ab94751dde68b4d6125ac6f179d1ce",
  "bytecode": "0x60a060405234801561001057600080fd5b50604051610c9d380380610c9d83398101604081905261002f91610040565b6001600160a01b0316608052610070565b60006020828403121561005257600080fd5b81516001600160a01b038116811461006957600080fd5b9392505050565b608051610c0b6100926000396000818161064a01526106d20152610c0b6000f3fe608060405234801561001057600080fd5b506004361061004c5760003560e01c80631de5d844146100515780633644e5151461005b5780637ecebe0014610075578063d505accf14610088575b600080fd5b61005961009b565b005b6100636100be565b60405190815260200160405180910390f35b610063610083366004610a91565b6100cd565b610059610096366004610ab3565b61010b565b6100b46100a6610132565b6100ae61013c565b9061016a565b6100bc6101f6565b565b60006100c861022b565b905090565b6000610105826100db6102cb565b9073ffffffffffffffffffffffffffffffffffffffff166000908152602091909152604090205490565b92915050565b6101298787878787878761011d6102cb565b969594939291906102f9565b50505050505050565b60006100c8610607565b60008061010560017fb53127684a568b3173ae13b9f8a6016e243e63b6e8ee1178d6a717850b5d6104610b26565b815473ffffffffffffffffffffffffffffffffffffffff8281169116146101f2576040517f08c379a000000000000000000000000000000000000000000000000000000000815260206004820152601960248201527f50726f787941646d696e3a206e6f74207468652061646d696e0000000000000060448201526064015b60405180910390fd5b5050565b6100bc7f9d8ff7da00000000000000000000000000000000000000000000000000000000600161022461074e565b919061077c565b6000467f8b73c3c69bb8fe3d512ecc4cf759cc79239f7b179b0ffacaa9a75d522b39400f61025f61025a610888565b6108b6565b80516020918201206040805192830193909352918101919091527fc89efdaa54c0f20c7adf612882df0950f5a951637e0307cdcb4c672f298b8bc66060820152608081018290523060a082015260c0016040516020818303038152906040528051906020012091505090565b60008061010560017f93fe0ff7226b064a4a8f0b09910762afb4bc2441835792c021ffd78cd513011e610b26565b73ffffffffffffffffffffffffffffffffffffffff8716610376576040517f08c379a000000000000000000000000000000000000000000000000000000000815260206004820152601d60248201527f45524332303a207065726d69742066726f6d206164647265737328302900000060448201526064016101e9565b834211156103e0576040517f08c379a000000000000000000000000000000000000000000000000000000000815260206004820152601560248201527f45524332303a2065787069726564207065726d6974000000000000000000000060448201526064016101e9565b73ffffffffffffffffffffffffffffffffffffffff878116600081815260208b8152604080832080546001810190915581517f6e71edae12b1b97f4d1f60370fef10105fa2faae0126114a169c64845d6126c98185015280830195909552948b166060850152608084018a905260a084019490945260c08084018990528451808503909101815260e0909301909352815191909201209061047f61022b565b6040517f19010000000000000000000000000000000000000000000000000000000000006020820152602281019190915260428101839052606201604080517fffffffffffffffffffffffffffffffffffffffffffffffffffffffffffffffe08184030181528282528051602091820120600080855291840180845281905260ff89169284019290925260608301879052608083018690529092509060019060a0016020604051602081039080840390855afa158015610543573d6000803e3d6000fd5b5050506020604051035190508973ffffffffffffffffffffffffffffffffffffffff168173ffffffffffffffffffffffffffffffffffffffff16146105e4576040517f08c379a000000000000000000000000000000000000000000000000000000000815260206004820152601560248201527f45524332303a20696e76616c6964207065726d6974000000000000000000000060448201526064016101e9565b5050506105fd8787876105f561094c565b92919061097a565b5050505050505050565b6000333214806106175750601836105b1561062157503390565b7fffffffffffffffffffffffffffffffffffffffffffffffffffffffffffffffec36013560601c7f000000000000000000000000000000000000000000000000000000000000000073ffffffffffffffffffffffffffffffffffffffff1633148061073d57506040517f8929a8ca00000000000000000000000000000000000000000000000000000000815273ffffffffffffffffffffffffffffffffffffffff82811660048301523360248301527f00000000000000000000000000000000000000000000000000000000000000001690638929a8ca90604401602060405180830381865afa158015610719573d6000803e3d6000fd5b505050506040513d601f19601f8201168201806040525081019061073d9190610b60565b1561074757919050565b3391505090565b60008061010560017fca9d3e17f264b0f3984e2634e94adb37fa3e6a8103f06aeae6fa59e21c769f5e610b26565b7c01000000000000000000000000000000000000000000000000000000007fffffffff00000000000000000000000000000000000000000000000000000000831601610824576040517f08c379a000000000000000000000000000000000000000000000000000000000815260206004820152601f60248201527f496e74657266616365446574656374696f6e3a2077726f6e672076616c75650060448201526064016101e9565b7fffffffff00000000000000000000000000000000000000000000000000000000919091166000908152602092909252604090912080547fffffffffffffffffffffffffffffffffffffffffffffffffffffffffffffff0016911515919091179055565b60008061010560017f335df4119bbb04f056b33eba33b826d3529129e458faf6daa9924b5a8f3b6a82610b26565b60608160000180546108c790610b82565b80601f01602080910402602001604051908101604052809291908181526020018280546108f390610b82565b80156109405780601f1061091557610100808354040283529160200191610940565b820191906000526020600020905b81548152906001019060200180831161092357829003601f168201915b50505050509050919050565b60008061010560017f1da92899d3da68bf9787824388a37ea2bfa79780bcef91b9716c390eec8ecbef610b26565b73ffffffffffffffffffffffffffffffffffffffff82166109f7576040517f08c379a000000000000000000000000000000000000000000000000000000000815260206004820152601d60248201527f45524332303a20617070726f76616c20746f206164647265737328302900000060448201526064016101e9565b73ffffffffffffffffffffffffffffffffffffffff838116600081815260018701602090815260408083209487168084529482529182902085905590518481527f8c5be1e5ebec7d5bd14f71427d1e84f3dd0314c0f7b2291e5b200ac8c7c3b925910160405180910390a350505050565b803573ffffffffffffffffffffffffffffffffffffffff81168114610a8c57600080fd5b919050565b600060208284031215610aa357600080fd5b610aac82610a68565b9392505050565b600080600080600080600060e0888a031215610ace57600080fd5b610ad788610a68565b9650610ae560208901610a68565b95506040880135945060608801359350608088013560ff81168114610b0957600080fd5b9699959850939692959460a0840135945060c09093013592915050565b81810381811115610105577f4e487b7100000000000000000000000000000000000000000000000000000000600052601160045260246000fd5b600060208284031215610b7257600080fd5b81518015158114610aac57600080fd5b600181811c90821680610b9657607f821691505b602082108103610bcf577f4e487b7100000000000000000000000000000000000000000000000000000000600052602260045260246000fd5b5091905056fea26469706673582212208b63c661ee7df005c36ccd2d73c6aece33883f39d510519208948a6ad68caa0f64736f6c63430008110033",
  "devdoc": {
    "details": "This contract is to be used as a diamond facet (see ERC2535 Diamond Standard https://eips.ethereum.org/EIPS/eip-2535).Note: This facet depends on {ProxyAdminFacet}, {InterfaceDetectionFacet} and {ERC20DetailedFacet}.",
    "kind": "dev",
    "methods": {
      "DOMAIN_SEPARATOR()": {
        "details": "A common ERC-20 permit implementation choice for the `DOMAIN_SEPARATOR` is:  keccak256(      abi.encode(          keccak256(\"EIP712Domain(string name,string version,uint256 chainId,address verifyingContract)\"),          keccak256(bytes(name)),          keccak256(bytes(version)),          chainId,          address(this)))  where   - `name` (string) is the ERC-20 token name.   - `version` (string) refers to the ERC-20 token contract version.   - `chainId` (uint256) is the chain ID to which the ERC-20 token contract is deployed to.   - `verifyingContract` (address) is the ERC-20 token contract address.",
        "returns": {
          "_0": "The EIP-712 encoded hash struct of the domain-specific information for permits."
        }
      },
      "initERC20PermitStorage()": {
        "details": "Reverts if the sender is not the proxy admin."
      },
      "nonces(address)": {
        "params": {
          "owner": "The account to check the nonce of."
        },
        "returns": {
          "_0": "The current permit nonce of `owner`."
        }
      },
      "permit(address,address,uint256,uint256,uint8,bytes32,bytes32)": {
        "details": "Reverts if `owner` is the zero address.Reverts if the current blocktime is greather than `deadline`.Reverts if `r`, `s`, and `v` do not represent a valid `secp256k1` signature from `owner`.Emits an {IERC20-Approval} event.",
        "params": {
          "deadline": "The deadline from which the permit signature is no longer valid.",
          "owner": "The token owner granting the allowance to `spender`.",
          "r": "Permit signature r parameter.",
          "s": "Permit signature s parameter.",
          "spender": "The token spender being granted the allowance by `owner`.",
          "v": "Permit signature v parameter",
          "value": "The allowance amount to grant."
        }
      }
    },
    "title": "ERC20 Fungible Token Standard, optional extension: Permit (facet version).",
    "version": 1
  },
  "userdoc": {
    "kind": "user",
    "methods": {
      "DOMAIN_SEPARATOR()": {
        "notice": "Returns the EIP-712 encoded hash struct of the domain-specific information for permits."
      },
      "initERC20PermitStorage()": {
        "notice": "Marks the following ERC165 interface(s) as supported: ERC20Permit."
      },
      "nonces(address)": {
        "notice": "Gets the current permit nonce of an account."
      },
      "permit(address,address,uint256,uint256,uint8,bytes32,bytes32)": {
        "notice": "Sets the allowance to an account from another account using a signed permit.Warning: The standard ERC20 race condition for approvals applies to `permit()` as well: https://swcregistry.io/docs/SWC-114"
      }
    },
    "version": 1
  },
  "storageLayout": {
    "storage": [],
    "types": null
  }
}