{
  "address": "0xCeFD8c937C52Ae85C02774C6C8abDed422aD2C1a",
  "abi": [
    {
      "inputs": [
        {
          "internalType": "contract IForwarderRegistry",
          "name": "forwarderRegistry",
          "type": "address"
        }
      ],
      "stateMutability": "nonpayable",
      "type": "constructor"
    },
    {
      "inputs": [
        {
          "internalType": "address",
          "name": "operator",
          "type": "address"
        }
      ],
      "name": "OperatorNotAllowed",
      "type": "error"
    },
    {
      "anonymous": false,
      "inputs": [
        {
          "indexed": true,
          "internalType": "address",
          "name": "owner",
          "type": "address"
        },
        {
          "indexed": true,
          "internalType": "address",
          "name": "approved",
          "type": "address"
        },
        {
          "indexed": true,
          "internalType": "uint256",
          "name": "tokenId",
          "type": "uint256"
        }
      ],
      "name": "Approval",
      "type": "event"
    },
    {
      "anonymous": false,
      "inputs": [
        {
          "indexed": true,
          "internalType": "address",
          "name": "owner",
          "type": "address"
        },
        {
          "indexed": true,
          "internalType": "address",
          "name": "operator",
          "type": "address"
        },
        {
          "indexed": false,
          "internalType": "bool",
          "name": "approved",
          "type": "bool"
        }
      ],
      "name": "ApprovalForAll",
      "type": "event"
    },
    {
      "anonymous": false,
      "inputs": [
        {
          "indexed": true,
          "internalType": "address",
          "name": "from",
          "type": "address"
        },
        {
          "indexed": true,
          "internalType": "address",
          "name": "to",
          "type": "address"
        },
        {
          "indexed": true,
          "internalType": "uint256",
          "name": "tokenId",
          "type": "uint256"
        }
      ],
      "name": "Transfer",
      "type": "event"
    },
    {
      "inputs": [
        {
          "internalType": "address",
          "name": "to",
          "type": "address"
        },
        {
          "internalType": "uint256",
          "name": "tokenId",
          "type": "uint256"
        }
      ],
      "name": "approve",
      "outputs": [],
      "stateMutability": "nonpayable",
      "type": "function"
    },
    {
      "inputs": [
        {
          "internalType": "address",
          "name": "owner",
          "type": "address"
        }
      ],
      "name": "balanceOf",
      "outputs": [
        {
          "internalType": "uint256",
          "name": "balance",
          "type": "uint256"
        }
      ],
      "stateMutability": "view",
      "type": "function"
    },
    {
      "inputs": [
        {
          "internalType": "uint256",
          "name": "tokenId",
          "type": "uint256"
        }
      ],
      "name": "getApproved",
      "outputs": [
        {
          "internalType": "address",
          "name": "approved",
          "type": "address"
        }
      ],
      "stateMutability": "view",
      "type": "function"
    },
    {
      "inputs": [],
      "name": "initERC721Storage",
      "outputs": [],
      "stateMutability": "nonpayable",
      "type": "function"
    },
    {
      "inputs": [
        {
          "internalType": "address",
          "name": "owner",
          "type": "address"
        },
        {
          "internalType": "address",
          "name": "operator",
          "type": "address"
        }
      ],
      "name": "isApprovedForAll",
      "outputs": [
        {
          "internalType": "bool",
          "name": "approvedForAll",
          "type": "bool"
        }
      ],
      "stateMutability": "view",
      "type": "function"
    },
    {
      "inputs": [
        {
          "internalType": "uint256",
          "name": "tokenId",
          "type": "uint256"
        }
      ],
      "name": "ownerOf",
      "outputs": [
        {
          "internalType": "address",
          "name": "tokenOwner",
          "type": "address"
        }
      ],
      "stateMutability": "view",
      "type": "function"
    },
    {
      "inputs": [
        {
          "internalType": "address",
          "name": "from",
          "type": "address"
        },
        {
          "internalType": "address",
          "name": "to",
          "type": "address"
        },
        {
          "internalType": "uint256",
          "name": "tokenId",
          "type": "uint256"
        }
      ],
      "name": "safeTransferFrom",
      "outputs": [],
      "stateMutability": "nonpayable",
      "type": "function"
    },
    {
      "inputs": [
        {
          "internalType": "address",
          "name": "from",
          "type": "address"
        },
        {
          "internalType": "address",
          "name": "to",
          "type": "address"
        },
        {
          "internalType": "uint256",
          "name": "tokenId",
          "type": "uint256"
        },
        {
          "internalType": "bytes",
          "name": "data",
          "type": "bytes"
        }
      ],
      "name": "safeTransferFrom",
      "outputs": [],
      "stateMutability": "nonpayable",
      "type": "function"
    },
    {
      "inputs": [
        {
          "internalType": "address",
          "name": "operator",
          "type": "address"
        },
        {
          "internalType": "bool",
          "name": "approved",
          "type": "bool"
        }
      ],
      "name": "setApprovalForAll",
      "outputs": [],
      "stateMutability": "nonpayable",
      "type": "function"
    },
    {
      "inputs": [
        {
          "internalType": "address",
          "name": "from",
          "type": "address"
        },
        {
          "internalType": "address",
          "name": "to",
          "type": "address"
        },
        {
          "internalType": "uint256",
          "name": "tokenId",
          "type": "uint256"
        }
      ],
      "name": "transferFrom",
      "outputs": [],
      "stateMutability": "nonpayable",
      "type": "function"
    }
  ],
  "transactionHash": "0xcb9761628371f8a8b8e14a21c5c86a83cdc49be46e324d3af36495a8e722ca37",
  "args": [
    "0x3f547F87251710F70109Ae0409d461b270709693"
  ],
  "numDeployments": 1,
  "solcInputHash": "a6ab94751dde68b4d6125ac6f179d1ce",
  "bytecode": "0x60a060405234801561001057600080fd5b5060405161189438038061189483398101604081905261002f91610040565b6001600160a01b0316608052610070565b60006020828403121561005257600080fd5b81516001600160a01b038116811461006957600080fd5b9392505050565b608051611802610092600039600081816110e4015261116c01526118026000f3fe608060405234801561001057600080fd5b50600436106100be5760003560e01c806370a0823111610076578063b1c7ee021161005b578063b1c7ee0214610182578063b88d4fde1461018a578063e985e9c51461019d57600080fd5b806370a082311461014e578063a22cb4651461016f57600080fd5b806323b872dd116100a757806323b872dd1461011557806342842e0e146101285780636352211e1461013b57600080fd5b8063081812fc146100c3578063095ea7b314610100575b600080fd5b6100d66100d13660046114bd565b6101c0565b60405173ffffffffffffffffffffffffffffffffffffffff90911681526020015b60405180910390f35b61011361010e3660046114ff565b6101da565b005b610113610123366004611529565b610229565b610113610136366004611529565b610267565b6100d66101493660046114bd565b610298565b61016161015c366004611565565b6102ac565b6040519081526020016100f7565b61011361017d366004611591565b6102c0565b6101136102ef565b6101136101983660046115c8565b610312565b6101b06101ab366004611663565b61034f565b60405190151581526020016100f7565b60006101d4826101ce6103a4565b906103d2565b92915050565b73ffffffffffffffffffffffffffffffffffffffff82161561020857610208826102026104b8565b906104e6565b6102256102136104f0565b838361021d6103a4565b9291906104ff565b5050565b60006102336104f0565b905061024981856102426104b8565b91906107c8565b610261818585856102586103a4565b9392919061080a565b50505050565b60006102716104f0565b905061028081856102426104b8565b6102618185858561028f6103a4565b93929190610b5f565b60006101d4826102a66103a4565b90610bac565b60006101d4826102ba6103a4565b90610c42565b80156102d2576102d2826102026104b8565b6102256102dd6104f0565b83836102e76103a4565b929190610cee565b6103086102fa6104f0565b610302610e1e565b90610e4c565b610310610ecf565b565b600061031c6104f0565b905061032b81876102426104b8565b61034781878787878761033c6103a4565b959493929190610f04565b505050505050565b600061039d838361035e6103a4565b919073ffffffffffffffffffffffffffffffffffffffff9182166000908152600393909301602090815260408085209290931684525290205460ff1690565b9392505050565b6000806101d460017fddf3ee18ae6d688373c219468f8be446e7ae82215f4779d821c7ea5e8c13c0c1611696565b60008181526020839052604081205473ffffffffffffffffffffffffffffffffffffffff8116610463576040517f08c379a000000000000000000000000000000000000000000000000000000000815260206004820152601a60248201527f4552433732313a206e6f6e2d6578697374696e6720746f6b656e00000000000060448201526064015b60405180910390fd5b740100000000000000000000000000000000000000008116156104ae575050600081815260028301602052604090205473ffffffffffffffffffffffffffffffffffffffff166101d4565b60009150506101d4565b6000806101d460017f609b85bcafa81ecfaf3ff62cdde2c6c9082a68dbe4922f07399c706bdeb7cd31611696565b6102258282610f7a565b60006104fa6110a1565b905090565b60008181526020859052604090205473ffffffffffffffffffffffffffffffffffffffff811661058b576040517f08c379a000000000000000000000000000000000000000000000000000000000815260206004820152601a60248201527f4552433732313a206e6f6e2d6578697374696e6720746f6b656e000000000000604482015260640161045a565b8073ffffffffffffffffffffffffffffffffffffffff8082169085160361060e576040517f08c379a000000000000000000000000000000000000000000000000000000000815260206004820152601560248201527f4552433732313a2073656c662d617070726f76616c0000000000000000000000604482015260640161045a565b6106198682876111e8565b61067f576040517f08c379a000000000000000000000000000000000000000000000000000000000815260206004820152601b60248201527f4552433732313a206e6f6e2d617070726f7665642073656e6465720000000000604482015260640161045a565b73ffffffffffffffffffffffffffffffffffffffff84166106e457740100000000000000000000000000000000000000008216156106df57600083815260208790526040902073ffffffffffffffffffffffffffffffffffffffff821690555b610765565b7401000000000000000000000000000000000000000082178083146107155760008481526020889052604090208190555b506000838152600287016020526040902080547fffffffffffffffffffffffff00000000000000000000000000000000000000001673ffffffffffffffffffffffffffffffffffffffff86161790555b828473ffffffffffffffffffffffffffffffffffffffff168273ffffffffffffffffffffffffffffffffffffffff167f8c5be1e5ebec7d5bd14f71427d1e84f3dd0314c0f7b2291e5b200ac8c7c3b92560405160405180910390a4505050505050565b8073ffffffffffffffffffffffffffffffffffffffff168273ffffffffffffffffffffffffffffffffffffffff1614610805576108058383610f7a565b505050565b73ffffffffffffffffffffffffffffffffffffffff8216610887576040517f08c379a000000000000000000000000000000000000000000000000000000000815260206004820152601e60248201527f4552433732313a207472616e7366657220746f20616464726573732830290000604482015260640161045a565b60008181526020869052604090205473ffffffffffffffffffffffffffffffffffffffff8116610913576040517f08c379a000000000000000000000000000000000000000000000000000000000815260206004820152601a60248201527f4552433732313a206e6f6e2d6578697374696e6720746f6b656e000000000000604482015260640161045a565b73ffffffffffffffffffffffffffffffffffffffff84168173ffffffffffffffffffffffffffffffffffffffff16146109a8576040517f08c379a000000000000000000000000000000000000000000000000000000000815260206004820152601760248201527f4552433732313a206e6f6e2d6f776e656420746f6b656e000000000000000000604482015260640161045a565b6109b38685876111e8565b610a6b5774010000000000000000000000000000000000000000811615158015610a055750600082815260028701602052604090205473ffffffffffffffffffffffffffffffffffffffff8681169116145b610a6b576040517f08c379a000000000000000000000000000000000000000000000000000000000815260206004820152601b60248201527f4552433732313a206e6f6e2d617070726f7665642073656e6465720000000000604482015260640161045a565b600082815260208790526040902073ffffffffffffffffffffffffffffffffffffffff80851691829055851614610afc5773ffffffffffffffffffffffffffffffffffffffff80851660009081526001808901602052604080832080547fffffffffffffffffffffffffffffffffffffffffffffffffffffffffffffffff0190559286168252919020805490910190555b818373ffffffffffffffffffffffffffffffffffffffff168573ffffffffffffffffffffffffffffffffffffffff167fddf252ad1be2c89b69c2b068fc378daa952ba7f163c4a11628f55a4df523b3ef60405160405180910390a4505050505050565b610b6c858585858561080a565b73ffffffffffffffffffffffffffffffffffffffff82163b15610ba557610ba5848484846040518060200160405280600081525061125d565b5050505050565b60008181526020839052604081205473ffffffffffffffffffffffffffffffffffffffff8116610c38576040517f08c379a000000000000000000000000000000000000000000000000000000000815260206004820152601a60248201527f4552433732313a206e6f6e2d6578697374696e6720746f6b656e000000000000604482015260640161045a565b805b949350505050565b600073ffffffffffffffffffffffffffffffffffffffff8216610cc1576040517f08c379a000000000000000000000000000000000000000000000000000000000815260206004820152601d60248201527f4552433732313a2062616c616e6365206f662061646472657373283029000000604482015260640161045a565b5073ffffffffffffffffffffffffffffffffffffffff166000908152600191909101602052604090205490565b8273ffffffffffffffffffffffffffffffffffffffff168273ffffffffffffffffffffffffffffffffffffffff1603610d83576040517f08c379a000000000000000000000000000000000000000000000000000000000815260206004820152601d60248201527f4552433732313a2073656c662d617070726f76616c20666f7220616c6c000000604482015260640161045a565b73ffffffffffffffffffffffffffffffffffffffff838116600081815260038701602090815260408083209487168084529482529182902080547fffffffffffffffffffffffffffffffffffffffffffffffffffffffffffffff001686151590811790915591519182527f17307eab39ab6107e8899845ad3d59bd9653f200f220920489ca2b5937696c31910160405180910390a350505050565b6000806101d460017fb53127684a568b3173ae13b9f8a6016e243e63b6e8ee1178d6a717850b5d6104611696565b815473ffffffffffffffffffffffffffffffffffffffff828116911614610225576040517f08c379a000000000000000000000000000000000000000000000000000000000815260206004820152601960248201527f50726f787941646d696e3a206e6f74207468652061646d696e00000000000000604482015260640161045a565b6103107f80ac58cd000000000000000000000000000000000000000000000000000000006001610efd611383565b91906113b1565b610f11878787878761080a565b73ffffffffffffffffffffffffffffffffffffffff84163b15610f7157610f718686868686868080601f01602080910402602001604051908101604052809392919081815260200183838082843760009201919091525061125d92505050565b50505050505050565b815473ffffffffffffffffffffffffffffffffffffffff168015801590610fb8575060008173ffffffffffffffffffffffffffffffffffffffff163b115b15610805576040517fc617113400000000000000000000000000000000000000000000000000000000815230600482015273ffffffffffffffffffffffffffffffffffffffff838116602483015282169063c617113490604401602060405180830381865afa15801561102f573d6000803e3d6000fd5b505050506040513d601f19601f8201168201806040525081019061105391906116d0565b610805576040517fede71dcc00000000000000000000000000000000000000000000000000000000815273ffffffffffffffffffffffffffffffffffffffff8316600482015260240161045a565b6000333214806110b15750601836105b156110bb57503390565b7fffffffffffffffffffffffffffffffffffffffffffffffffffffffffffffffec36013560601c7f000000000000000000000000000000000000000000000000000000000000000073ffffffffffffffffffffffffffffffffffffffff163314806111d757506040517f8929a8ca00000000000000000000000000000000000000000000000000000000815273ffffffffffffffffffffffffffffffffffffffff82811660048301523360248301527f00000000000000000000000000000000000000000000000000000000000000001690638929a8ca90604401602060405180830381865afa1580156111b3573d6000803e3d6000fd5b505050506040513d601f19601f820116820180604052508101906111d791906116d0565b156111e157919050565b3391505090565b60008173ffffffffffffffffffffffffffffffffffffffff168373ffffffffffffffffffffffffffffffffffffffff161480610c3a57505073ffffffffffffffffffffffffffffffffffffffff9182166000908152600393909301602090815260408085209290931684525290205460ff1690565b6040517f150b7a02000000000000000000000000000000000000000000000000000000008082529073ffffffffffffffffffffffffffffffffffffffff85169063150b7a02906112b79089908990889088906004016116ed565b6020604051808303816000875af11580156112d6573d6000803e3d6000fd5b505050506040513d601f19601f820116820180604052508101906112fa919061178a565b7fffffffff000000000000000000000000000000000000000000000000000000001614610ba5576040517f08c379a000000000000000000000000000000000000000000000000000000000815260206004820152601e60248201527f4552433732313a2073616665207472616e736665722072656a65637465640000604482015260640161045a565b6000806101d460017fca9d3e17f264b0f3984e2634e94adb37fa3e6a8103f06aeae6fa59e21c769f5e611696565b7c01000000000000000000000000000000000000000000000000000000007fffffffff00000000000000000000000000000000000000000000000000000000831601611459576040517f08c379a000000000000000000000000000000000000000000000000000000000815260206004820152601f60248201527f496e74657266616365446574656374696f6e3a2077726f6e672076616c756500604482015260640161045a565b7fffffffff00000000000000000000000000000000000000000000000000000000919091166000908152602092909252604090912080547fffffffffffffffffffffffffffffffffffffffffffffffffffffffffffffff0016911515919091179055565b6000602082840312156114cf57600080fd5b5035919050565b803573ffffffffffffffffffffffffffffffffffffffff811681146114fa57600080fd5b919050565b6000806040838503121561151257600080fd5b61151b836114d6565b946020939093013593505050565b60008060006060848603121561153e57600080fd5b611547846114d6565b9250611555602085016114d6565b9150604084013590509250925092565b60006020828403121561157757600080fd5b61039d826114d6565b801515811461158e57600080fd5b50565b600080604083850312156115a457600080fd5b6115ad836114d6565b915060208301356115bd81611580565b809150509250929050565b6000806000806000608086880312156115e057600080fd5b6115e9866114d6565b94506115f7602087016114d6565b935060408601359250606086013567ffffffffffffffff8082111561161b57600080fd5b818801915088601f83011261162f57600080fd5b81358181111561163e57600080fd5b89602082850101111561165057600080fd5b9699959850939650602001949392505050565b6000806040838503121561167657600080fd5b61167f836114d6565b915061168d602084016114d6565b90509250929050565b818103818111156101d4577f4e487b7100000000000000000000000000000000000000000000000000000000600052601160045260246000fd5b6000602082840312156116e257600080fd5b815161039d81611580565b600073ffffffffffffffffffffffffffffffffffffffff8087168352602081871681850152856040850152608060608501528451915081608085015260005b828110156117485785810182015185820160a00152810161172c565b5050600060a0828501015260a07fffffffffffffffffffffffffffffffffffffffffffffffffffffffffffffffe0601f83011684010191505095945050505050565b60006020828403121561179c57600080fd5b81517fffffffff000000000000000000000000000000000000000000000000000000008116811461039d57600080fdfea2646970667358221220cd8dce04038e0f59e3f1ed8ce20ed39a1012593d809af07a65eeb566f30f784d64736f6c63430008110033",
  "devdoc": {
    "details": "This contract is to be used as a diamond facet (see ERC2535 Diamond Standard https://eips.ethereum.org/EIPS/eip-2535).Note: This facet depends on {ProxyAdminFacet}, {InterfaceDetectionFacet}, {ContractOwnershipFacet} and {OperatorFiltererFacet}.",
    "kind": "dev",
    "methods": {
      "approve(address,uint256)": {
        "details": "Reverts with OperatorNotAllowed if `to` is not the zero address and is not allowed by the operator registry.",
        "params": {
          "to": "The address to approve, or the zero address to remove any existing approval.",
          "tokenId": "The token identifier to give approval for."
        }
      },
      "balanceOf(address)": {
        "details": "Reverts if `owner` is the zero address.",
        "params": {
          "owner": "The address to query the balance of."
        },
        "returns": {
          "balance": "The amount owned by the owner."
        }
      },
      "getApproved(uint256)": {
        "details": "Reverts if `tokenId` does not exist.",
        "params": {
          "tokenId": "The token identifier to query the approval of."
        },
        "returns": {
          "approved": "The approved address for the token identifier, or the zero address if no approval is set."
        }
      },
      "initERC721Storage()": {
        "details": "Reverts if the sender is not the proxy admin."
      },
      "isApprovedForAll(address,address)": {
        "params": {
          "operator": "The address which receives the approval for all tokens.",
          "owner": "The address which gives the approval for all tokens."
        },
        "returns": {
          "approvedForAll": "Whether the operator is approved for all tokens by the owner."
        }
      },
      "ownerOf(uint256)": {
        "details": "Reverts if `tokenId` does not exist.",
        "params": {
          "tokenId": "The token identifier to query the owner of."
        },
        "returns": {
          "tokenOwner": "The owner of the token identifier."
        }
      },
      "safeTransferFrom(address,address,uint256)": {
        "details": "Reverts with OperatorNotAllowed if the sender is not `from` and is not allowed by the operator registry.",
        "params": {
          "from": "The current token owner.",
          "to": "The recipient of the token transfer.",
          "tokenId": "The identifier of the token to transfer."
        }
      },
      "safeTransferFrom(address,address,uint256,bytes)": {
        "details": "Reverts with OperatorNotAllowed if the sender is not `from` and is not allowed by the operator registry.",
        "params": {
          "data": "Optional data to send along to a receiver contract.",
          "from": "The current token owner.",
          "to": "The recipient of the token transfer.",
          "tokenId": "The identifier of the token to transfer."
        }
      },
      "setApprovalForAll(address,bool)": {
        "details": "Reverts with OperatorNotAllowed if `approved` is true and `operator` is not allowed by the operator registry.",
        "params": {
          "approved": "True to set an approval for all tokens, false to unset it.",
          "operator": "The address to approve for all tokens."
        }
      },
      "transferFrom(address,address,uint256)": {
        "details": "Reverts with OperatorNotAllowed if the sender is not `from` and is not allowed by the operator registry.",
        "params": {
          "from": "The current token owner.",
          "to": "The recipient of the token transfer. Self-transfers are possible.",
          "tokenId": "The identifier of the token to transfer."
        }
      }
    },
    "title": "ERC721 Non-Fungible Token Standard with Operator Filterer (facet version).",
    "version": 1
  },
  "userdoc": {
    "events": {
      "Approval(address,address,uint256)": {
        "notice": "Emitted when a single token approval is set."
      },
      "ApprovalForAll(address,address,bool)": {
        "notice": "Emitted when an approval for all tokens is set or unset."
      },
      "Transfer(address,address,uint256)": {
        "notice": "Emitted when a token is transferred."
      }
    },
    "kind": "user",
    "methods": {
      "approve(address,uint256)": {
        "notice": "Sets or unsets an approval to transfer a single token on behalf of its owner."
      },
      "balanceOf(address)": {
        "notice": "Gets the balance of an address."
      },
      "getApproved(uint256)": {
        "notice": "Gets the approved address for a token."
      },
      "initERC721Storage()": {
        "notice": "Marks the following ERC165 interfaces as supported: ERC721."
      },
      "isApprovedForAll(address,address)": {
        "notice": "Gets whether an operator is approved for all tokens by an owner."
      },
      "ownerOf(uint256)": {
        "notice": "Gets the owner of a token."
      },
      "safeTransferFrom(address,address,uint256)": {
        "notice": "Safely transfers the ownership of a token to a recipient."
      },
      "safeTransferFrom(address,address,uint256,bytes)": {
        "notice": "Safely transfers the ownership of a token to a recipient."
      },
      "setApprovalForAll(address,bool)": {
        "notice": "Sets or unsets an approval to transfer all tokens on behalf of their owner."
      },
      "transferFrom(address,address,uint256)": {
        "notice": "Unsafely transfers the ownership of a token to a recipient."
      }
    },
    "version": 1
  },
  "storageLayout": {
    "storage": [],
    "types": null
  }
}