{
  "address": "0xD3F152F3DFd493968eB6255cAcF2dAFbe29BC795",
  "abi": [
    {
      "inputs": [
        {
          "internalType": "contract IForwarderRegistry",
          "name": "forwarderRegistry",
          "type": "address"
        }
      ],
      "stateMutability": "nonpayable",
      "type": "constructor"
    },
    {
      "anonymous": false,
      "inputs": [
        {
          "indexed": true,
          "internalType": "address",
          "name": "owner",
          "type": "address"
        },
        {
          "indexed": true,
          "internalType": "address",
          "name": "approved",
          "type": "address"
        },
        {
          "indexed": true,
          "internalType": "uint256",
          "name": "tokenId",
          "type": "uint256"
        }
      ],
      "name": "Approval",
      "type": "event"
    },
    {
      "anonymous": false,
      "inputs": [
        {
          "indexed": true,
          "internalType": "address",
          "name": "owner",
          "type": "address"
        },
        {
          "indexed": true,
          "internalType": "address",
          "name": "operator",
          "type": "address"
        },
        {
          "indexed": false,
          "internalType": "bool",
          "name": "approved",
          "type": "bool"
        }
      ],
      "name": "ApprovalForAll",
      "type": "event"
    },
    {
      "anonymous": false,
      "inputs": [
        {
          "indexed": true,
          "internalType": "address",
          "name": "from",
          "type": "address"
        },
        {
          "indexed": true,
          "internalType": "address",
          "name": "to",
          "type": "address"
        },
        {
          "indexed": true,
          "internalType": "uint256",
          "name": "tokenId",
          "type": "uint256"
        }
      ],
      "name": "Transfer",
      "type": "event"
    },
    {
      "inputs": [
        {
          "internalType": "address",
          "name": "to",
          "type": "address"
        },
        {
          "internalType": "uint256",
          "name": "tokenId",
          "type": "uint256"
        }
      ],
      "name": "approve",
      "outputs": [],
      "stateMutability": "nonpayable",
      "type": "function"
    },
    {
      "inputs": [
        {
          "internalType": "address",
          "name": "owner",
          "type": "address"
        }
      ],
      "name": "balanceOf",
      "outputs": [
        {
          "internalType": "uint256",
          "name": "balance",
          "type": "uint256"
        }
      ],
      "stateMutability": "view",
      "type": "function"
    },
    {
      "inputs": [
        {
          "internalType": "uint256",
          "name": "tokenId",
          "type": "uint256"
        }
      ],
      "name": "getApproved",
      "outputs": [
        {
          "internalType": "address",
          "name": "approved",
          "type": "address"
        }
      ],
      "stateMutability": "view",
      "type": "function"
    },
    {
      "inputs": [],
      "name": "initERC721Storage",
      "outputs": [],
      "stateMutability": "nonpayable",
      "type": "function"
    },
    {
      "inputs": [
        {
          "internalType": "address",
          "name": "owner",
          "type": "address"
        },
        {
          "internalType": "address",
          "name": "operator",
          "type": "address"
        }
      ],
      "name": "isApprovedForAll",
      "outputs": [
        {
          "internalType": "bool",
          "name": "approvedForAll",
          "type": "bool"
        }
      ],
      "stateMutability": "view",
      "type": "function"
    },
    {
      "inputs": [
        {
          "internalType": "uint256",
          "name": "tokenId",
          "type": "uint256"
        }
      ],
      "name": "ownerOf",
      "outputs": [
        {
          "internalType": "address",
          "name": "tokenOwner",
          "type": "address"
        }
      ],
      "stateMutability": "view",
      "type": "function"
    },
    {
      "inputs": [
        {
          "internalType": "address",
          "name": "from",
          "type": "address"
        },
        {
          "internalType": "address",
          "name": "to",
          "type": "address"
        },
        {
          "internalType": "uint256",
          "name": "tokenId",
          "type": "uint256"
        }
      ],
      "name": "safeTransferFrom",
      "outputs": [],
      "stateMutability": "nonpayable",
      "type": "function"
    },
    {
      "inputs": [
        {
          "internalType": "address",
          "name": "from",
          "type": "address"
        },
        {
          "internalType": "address",
          "name": "to",
          "type": "address"
        },
        {
          "internalType": "uint256",
          "name": "tokenId",
          "type": "uint256"
        },
        {
          "internalType": "bytes",
          "name": "data",
          "type": "bytes"
        }
      ],
      "name": "safeTransferFrom",
      "outputs": [],
      "stateMutability": "nonpayable",
      "type": "function"
    },
    {
      "inputs": [
        {
          "internalType": "address",
          "name": "operator",
          "type": "address"
        },
        {
          "internalType": "bool",
          "name": "approved",
          "type": "bool"
        }
      ],
      "name": "setApprovalForAll",
      "outputs": [],
      "stateMutability": "nonpayable",
      "type": "function"
    },
    {
      "inputs": [
        {
          "internalType": "address",
          "name": "from",
          "type": "address"
        },
        {
          "internalType": "address",
          "name": "to",
          "type": "address"
        },
        {
          "internalType": "uint256",
          "name": "tokenId",
          "type": "uint256"
        }
      ],
      "name": "transferFrom",
      "outputs": [],
      "stateMutability": "nonpayable",
      "type": "function"
    }
  ],
  "transactionHash": "0xec30550cd6d735efab875765c0e3893196a7e17e0b549f53f0af9a0d5227c38a",
  "args": [
    "0x3f547F87251710F70109Ae0409d461b270709693"
  ],
  "numDeployments": 1,
  "solcInputHash": "a6ab94751dde68b4d6125ac6f179d1ce",
  "bytecode": "0x60a060405234801561001057600080fd5b5060405161166d38038061166d83398101604081905261002f91610040565b6001600160a01b0316608052610070565b60006020828403121561005257600080fd5b81516001600160a01b038116811461006957600080fd5b9392505050565b6080516115db61009260003960008181610ebd0152610f4501526115db6000f3fe608060405234801561001057600080fd5b50600436106100be5760003560e01c806370a0823111610076578063b1c7ee021161005b578063b1c7ee0214610182578063b88d4fde1461018a578063e985e9c51461019d57600080fd5b806370a082311461014e578063a22cb4651461016f57600080fd5b806323b872dd116100a757806323b872dd1461011557806342842e0e146101285780636352211e1461013b57600080fd5b8063081812fc146100c3578063095ea7b314610100575b600080fd5b6100d66100d1366004611296565b6101c0565b60405173ffffffffffffffffffffffffffffffffffffffff90911681526020015b60405180910390f35b61011361010e3660046112d8565b6101da565b005b610113610123366004611302565b6101fb565b610113610136366004611302565b61021f565b6100d6610149366004611296565b61023e565b61016161015c36600461133e565b610252565b6040519081526020016100f7565b61011361017d36600461136a565b610266565b610113610283565b6101136101983660046113a1565b6102a6565b6101b06101ab36600461143c565b6102d0565b60405190151581526020016100f7565b60006101d4826101ce610325565b90610353565b92915050565b6101f76101e5610439565b83836101ef610325565b929190610448565b5050565b61021a610206610439565b848484610211610325565b93929190610711565b505050565b61021a61022a610439565b848484610235610325565b93929190610a66565b60006101d48261024c610325565b90610aac565b60006101d482610260610325565b90610b42565b6101f7610271610439565b838361027b610325565b929190610bee565b61029c61028e610439565b610296610d1e565b90610d4c565b6102a4610dcf565b565b6102c96102b1610439565b86868686866102be610325565b959493929190610e04565b5050505050565b600061031e83836102df610325565b919073ffffffffffffffffffffffffffffffffffffffff9182166000908152600393909301602090815260408085209290931684525290205460ff1690565b9392505050565b6000806101d460017fddf3ee18ae6d688373c219468f8be446e7ae82215f4779d821c7ea5e8c13c0c161146f565b60008181526020839052604081205473ffffffffffffffffffffffffffffffffffffffff81166103e4576040517f08c379a000000000000000000000000000000000000000000000000000000000815260206004820152601a60248201527f4552433732313a206e6f6e2d6578697374696e6720746f6b656e00000000000060448201526064015b60405180910390fd5b7401000000000000000000000000000000000000000081161561042f575050600081815260028301602052604090205473ffffffffffffffffffffffffffffffffffffffff166101d4565b60009150506101d4565b6000610443610e7a565b905090565b60008181526020859052604090205473ffffffffffffffffffffffffffffffffffffffff81166104d4576040517f08c379a000000000000000000000000000000000000000000000000000000000815260206004820152601a60248201527f4552433732313a206e6f6e2d6578697374696e6720746f6b656e00000000000060448201526064016103db565b8073ffffffffffffffffffffffffffffffffffffffff80821690851603610557576040517f08c379a000000000000000000000000000000000000000000000000000000000815260206004820152601560248201527f4552433732313a2073656c662d617070726f76616c000000000000000000000060448201526064016103db565b610562868287610fc1565b6105c8576040517f08c379a000000000000000000000000000000000000000000000000000000000815260206004820152601b60248201527f4552433732313a206e6f6e2d617070726f7665642073656e646572000000000060448201526064016103db565b73ffffffffffffffffffffffffffffffffffffffff841661062d577401000000000000000000000000000000000000000082161561062857600083815260208790526040902073ffffffffffffffffffffffffffffffffffffffff821690555b6106ae565b74010000000000000000000000000000000000000000821780831461065e5760008481526020889052604090208190555b506000838152600287016020526040902080547fffffffffffffffffffffffff00000000000000000000000000000000000000001673ffffffffffffffffffffffffffffffffffffffff86161790555b828473ffffffffffffffffffffffffffffffffffffffff168273ffffffffffffffffffffffffffffffffffffffff167f8c5be1e5ebec7d5bd14f71427d1e84f3dd0314c0f7b2291e5b200ac8c7c3b92560405160405180910390a4505050505050565b73ffffffffffffffffffffffffffffffffffffffff821661078e576040517f08c379a000000000000000000000000000000000000000000000000000000000815260206004820152601e60248201527f4552433732313a207472616e7366657220746f2061646472657373283029000060448201526064016103db565b60008181526020869052604090205473ffffffffffffffffffffffffffffffffffffffff811661081a576040517f08c379a000000000000000000000000000000000000000000000000000000000815260206004820152601a60248201527f4552433732313a206e6f6e2d6578697374696e6720746f6b656e00000000000060448201526064016103db565b73ffffffffffffffffffffffffffffffffffffffff84168173ffffffffffffffffffffffffffffffffffffffff16146108af576040517f08c379a000000000000000000000000000000000000000000000000000000000815260206004820152601760248201527f4552433732313a206e6f6e2d6f776e656420746f6b656e00000000000000000060448201526064016103db565b6108ba868587610fc1565b610972577401000000000000000000000000000000000000000081161515801561090c5750600082815260028701602052604090205473ffffffffffffffffffffffffffffffffffffffff8681169116145b610972576040517f08c379a000000000000000000000000000000000000000000000000000000000815260206004820152601b60248201527f4552433732313a206e6f6e2d617070726f7665642073656e646572000000000060448201526064016103db565b600082815260208790526040902073ffffffffffffffffffffffffffffffffffffffff80851691829055851614610a035773ffffffffffffffffffffffffffffffffffffffff80851660009081526001808901602052604080832080547fffffffffffffffffffffffffffffffffffffffffffffffffffffffffffffffff0190559286168252919020805490910190555b818373ffffffffffffffffffffffffffffffffffffffff168573ffffffffffffffffffffffffffffffffffffffff167fddf252ad1be2c89b69c2b068fc378daa952ba7f163c4a11628f55a4df523b3ef60405160405180910390a4505050505050565b610a738585858585610711565b73ffffffffffffffffffffffffffffffffffffffff82163b156102c9576102c98484848460405180602001604052806000815250611036565b60008181526020839052604081205473ffffffffffffffffffffffffffffffffffffffff8116610b38576040517f08c379a000000000000000000000000000000000000000000000000000000000815260206004820152601a60248201527f4552433732313a206e6f6e2d6578697374696e6720746f6b656e00000000000060448201526064016103db565b805b949350505050565b600073ffffffffffffffffffffffffffffffffffffffff8216610bc1576040517f08c379a000000000000000000000000000000000000000000000000000000000815260206004820152601d60248201527f4552433732313a2062616c616e6365206f66206164647265737328302900000060448201526064016103db565b5073ffffffffffffffffffffffffffffffffffffffff166000908152600191909101602052604090205490565b8273ffffffffffffffffffffffffffffffffffffffff168273ffffffffffffffffffffffffffffffffffffffff1603610c83576040517f08c379a000000000000000000000000000000000000000000000000000000000815260206004820152601d60248201527f4552433732313a2073656c662d617070726f76616c20666f7220616c6c00000060448201526064016103db565b73ffffffffffffffffffffffffffffffffffffffff838116600081815260038701602090815260408083209487168084529482529182902080547fffffffffffffffffffffffffffffffffffffffffffffffffffffffffffffff001686151590811790915591519182527f17307eab39ab6107e8899845ad3d59bd9653f200f220920489ca2b5937696c31910160405180910390a350505050565b6000806101d460017fb53127684a568b3173ae13b9f8a6016e243e63b6e8ee1178d6a717850b5d610461146f565b815473ffffffffffffffffffffffffffffffffffffffff8281169116146101f7576040517f08c379a000000000000000000000000000000000000000000000000000000000815260206004820152601960248201527f50726f787941646d696e3a206e6f74207468652061646d696e0000000000000060448201526064016103db565b6102a47f80ac58cd000000000000000000000000000000000000000000000000000000006001610dfd61115c565b919061118a565b610e118787878787610711565b73ffffffffffffffffffffffffffffffffffffffff84163b15610e7157610e718686868686868080601f01602080910402602001604051908101604052809392919081815260200183838082843760009201919091525061103692505050565b50505050505050565b600033321480610e8a5750601836105b15610e9457503390565b7fffffffffffffffffffffffffffffffffffffffffffffffffffffffffffffffec36013560601c7f000000000000000000000000000000000000000000000000000000000000000073ffffffffffffffffffffffffffffffffffffffff16331480610fb057506040517f8929a8ca00000000000000000000000000000000000000000000000000000000815273ffffffffffffffffffffffffffffffffffffffff82811660048301523360248301527f00000000000000000000000000000000000000000000000000000000000000001690638929a8ca90604401602060405180830381865afa158015610f8c573d6000803e3d6000fd5b505050506040513d601f19601f82011682018060405250810190610fb091906114a9565b15610fba57919050565b3391505090565b60008173ffffffffffffffffffffffffffffffffffffffff168373ffffffffffffffffffffffffffffffffffffffff161480610b3a57505073ffffffffffffffffffffffffffffffffffffffff9182166000908152600393909301602090815260408085209290931684525290205460ff1690565b6040517f150b7a02000000000000000000000000000000000000000000000000000000008082529073ffffffffffffffffffffffffffffffffffffffff85169063150b7a02906110909089908990889088906004016114c6565b6020604051808303816000875af11580156110af573d6000803e3d6000fd5b505050506040513d601f19601f820116820180604052508101906110d39190611563565b7fffffffff0000000000000000000000000000000000000000000000000000000016146102c9576040517f08c379a000000000000000000000000000000000000000000000000000000000815260206004820152601e60248201527f4552433732313a2073616665207472616e736665722072656a6563746564000060448201526064016103db565b6000806101d460017fca9d3e17f264b0f3984e2634e94adb37fa3e6a8103f06aeae6fa59e21c769f5e61146f565b7c01000000000000000000000000000000000000000000000000000000007fffffffff00000000000000000000000000000000000000000000000000000000831601611232576040517f08c379a000000000000000000000000000000000000000000000000000000000815260206004820152601f60248201527f496e74657266616365446574656374696f6e3a2077726f6e672076616c75650060448201526064016103db565b7fffffffff00000000000000000000000000000000000000000000000000000000919091166000908152602092909252604090912080547fffffffffffffffffffffffffffffffffffffffffffffffffffffffffffffff0016911515919091179055565b6000602082840312156112a857600080fd5b5035919050565b803573ffffffffffffffffffffffffffffffffffffffff811681146112d357600080fd5b919050565b600080604083850312156112eb57600080fd5b6112f4836112af565b946020939093013593505050565b60008060006060848603121561131757600080fd5b611320846112af565b925061132e602085016112af565b9150604084013590509250925092565b60006020828403121561135057600080fd5b61031e826112af565b801515811461136757600080fd5b50565b6000806040838503121561137d57600080fd5b611386836112af565b9150602083013561139681611359565b809150509250929050565b6000806000806000608086880312156113b957600080fd5b6113c2866112af565b94506113d0602087016112af565b935060408601359250606086013567ffffffffffffffff808211156113f457600080fd5b818801915088601f83011261140857600080fd5b81358181111561141757600080fd5b89602082850101111561142957600080fd5b9699959850939650602001949392505050565b6000806040838503121561144f57600080fd5b611458836112af565b9150611466602084016112af565b90509250929050565b818103818111156101d4577f4e487b7100000000000000000000000000000000000000000000000000000000600052601160045260246000fd5b6000602082840312156114bb57600080fd5b815161031e81611359565b600073ffffffffffffffffffffffffffffffffffffffff8087168352602081871681850152856040850152608060608501528451915081608085015260005b828110156115215785810182015185820160a001528101611505565b5050600060a0828501015260a07fffffffffffffffffffffffffffffffffffffffffffffffffffffffffffffffe0601f83011684010191505095945050505050565b60006020828403121561157557600080fd5b81517fffffffff000000000000000000000000000000000000000000000000000000008116811461031e57600080fdfea264697066735822122094e39c7f9b46e5741767e5a5e297909e5956b65ab3a415c39ddd92c40abaa89464736f6c63430008110033",
  "devdoc": {
    "details": "This contract is to be used as a diamond facet (see ERC2535 Diamond Standard https://eips.ethereum.org/EIPS/eip-2535).Note: This facet depends on {ProxyAdminFacet}, and {InterfaceDetectionFacet}.",
    "kind": "dev",
    "methods": {
      "approve(address,uint256)": {
        "details": "Note: There can only be one approved address per token at a given time.Note: A token approval gets reset when this token is transferred, including a self-transfer.Reverts if `tokenId` does not exist.Reverts if `to` is the token owner.Reverts if the sender is not the token owner and has not been approved by the token owner.Emits an {Approval} event.",
        "params": {
          "to": "The address to approve, or the zero address to remove any existing approval.",
          "tokenId": "The token identifier to give approval for."
        }
      },
      "balanceOf(address)": {
        "details": "Reverts if `owner` is the zero address.",
        "params": {
          "owner": "The address to query the balance of."
        },
        "returns": {
          "balance": "The amount owned by the owner."
        }
      },
      "getApproved(uint256)": {
        "details": "Reverts if `tokenId` does not exist.",
        "params": {
          "tokenId": "The token identifier to query the approval of."
        },
        "returns": {
          "approved": "The approved address for the token identifier, or the zero address if no approval is set."
        }
      },
      "initERC721Storage()": {
        "details": "Reverts if the sender is not the proxy admin."
      },
      "isApprovedForAll(address,address)": {
        "params": {
          "operator": "The address which receives the approval for all tokens.",
          "owner": "The address which gives the approval for all tokens."
        },
        "returns": {
          "approvedForAll": "Whether the operator is approved for all tokens by the owner."
        }
      },
      "ownerOf(uint256)": {
        "details": "Reverts if `tokenId` does not exist.",
        "params": {
          "tokenId": "The token identifier to query the owner of."
        },
        "returns": {
          "tokenOwner": "The owner of the token identifier."
        }
      },
      "safeTransferFrom(address,address,uint256)": {
        "details": "Resets the token approval for `tokenId`.Reverts if `to` is the zero address.Reverts if `from` is not the owner of `tokenId`.Reverts if the sender is not `from` and has not been approved by `from` for `tokenId`.Reverts if `to` is a contract and the call to {IERC721Receiver-onERC721Received} fails, reverts or is rejected.Emits a {Transfer} event.",
        "params": {
          "from": "The current token owner.",
          "to": "The recipient of the token transfer.",
          "tokenId": "The identifier of the token to transfer."
        }
      },
      "safeTransferFrom(address,address,uint256,bytes)": {
        "details": "Resets the token approval for `tokenId`.Reverts if `to` is the zero address.Reverts if `from` is not the owner of `tokenId`.Reverts if the sender is not `from` and has not been approved by `from` for `tokenId`.Reverts if `to` is a contract and the call to {IERC721Receiver-onERC721Received} fails, reverts or is rejected.Emits a {Transfer} event.",
        "params": {
          "data": "Optional data to send along to a receiver contract.",
          "from": "The current token owner.",
          "to": "The recipient of the token transfer.",
          "tokenId": "The identifier of the token to transfer."
        }
      },
      "setApprovalForAll(address,bool)": {
        "details": "Reverts if the sender is the same as `operator`.Emits an {ApprovalForAll} event.",
        "params": {
          "approved": "True to set an approval for all tokens, false to unset it.",
          "operator": "The address to approve for all tokens."
        }
      },
      "transferFrom(address,address,uint256)": {
        "details": "Note: Usage of this method is discouraged, use `safeTransferFrom` whenever possible.Resets the token approval for `tokenId`.Reverts if `to` is the zero address.Reverts if `from` is not the owner of `tokenId`.Reverts if the sender is not `from` and has not been approved by `from` for `tokenId`.Emits a {Transfer} event.",
        "params": {
          "from": "The current token owner.",
          "to": "The recipient of the token transfer. Self-transfers are possible.",
          "tokenId": "The identifier of the token to transfer."
        }
      }
    },
    "title": "ERC721 Non-Fungible Token Standard (facet version).",
    "version": 1
  },
  "userdoc": {
    "events": {
      "Approval(address,address,uint256)": {
        "notice": "Emitted when a single token approval is set."
      },
      "ApprovalForAll(address,address,bool)": {
        "notice": "Emitted when an approval for all tokens is set or unset."
      },
      "Transfer(address,address,uint256)": {
        "notice": "Emitted when a token is transferred."
      }
    },
    "kind": "user",
    "methods": {
      "approve(address,uint256)": {
        "notice": "Sets or unsets an approval to transfer a single token on behalf of its owner."
      },
      "balanceOf(address)": {
        "notice": "Gets the balance of an address."
      },
      "getApproved(uint256)": {
        "notice": "Gets the approved address for a token."
      },
      "initERC721Storage()": {
        "notice": "Marks the following ERC165 interfaces as supported: ERC721."
      },
      "isApprovedForAll(address,address)": {
        "notice": "Gets whether an operator is approved for all tokens by an owner."
      },
      "ownerOf(uint256)": {
        "notice": "Gets the owner of a token."
      },
      "safeTransferFrom(address,address,uint256)": {
        "notice": "Safely transfers the ownership of a token to a recipient."
      },
      "safeTransferFrom(address,address,uint256,bytes)": {
        "notice": "Safely transfers the ownership of a token to a recipient."
      },
      "setApprovalForAll(address,bool)": {
        "notice": "Sets or unsets an approval to transfer all tokens on behalf of their owner."
      },
      "transferFrom(address,address,uint256)": {
        "notice": "Unsafely transfers the ownership of a token to a recipient."
      }
    },
    "version": 1
  },
  "storageLayout": {
    "storage": [],
    "types": null
  }
}