{
  "address": "0xeA76f1657F77B24F60c36C7379048e539782Ebd4",
  "abi": [
    {
      "inputs": [
        {
          "internalType": "contract IForwarderRegistry",
          "name": "forwarderRegistry",
          "type": "address"
        }
      ],
      "stateMutability": "nonpayable",
      "type": "constructor"
    },
    {
      "inputs": [],
      "name": "MINTER_ROLE",
      "outputs": [
        {
          "internalType": "bytes32",
          "name": "",
          "type": "bytes32"
        }
      ],
      "stateMutability": "view",
      "type": "function"
    },
    {
      "inputs": [
        {
          "internalType": "address",
          "name": "to",
          "type": "address"
        },
        {
          "internalType": "uint256[]",
          "name": "tokenIds",
          "type": "uint256[]"
        }
      ],
      "name": "batchMint",
      "outputs": [],
      "stateMutability": "nonpayable",
      "type": "function"
    },
    {
      "inputs": [],
      "name": "initERC721MintableOnceStorage",
      "outputs": [],
      "stateMutability": "nonpayable",
      "type": "function"
    },
    {
      "inputs": [
        {
          "internalType": "address",
          "name": "to",
          "type": "address"
        },
        {
          "internalType": "uint256",
          "name": "tokenId",
          "type": "uint256"
        }
      ],
      "name": "mint",
      "outputs": [],
      "stateMutability": "nonpayable",
      "type": "function"
    },
    {
      "inputs": [
        {
          "internalType": "address",
          "name": "to",
          "type": "address"
        },
        {
          "internalType": "uint256",
          "name": "tokenId",
          "type": "uint256"
        },
        {
          "internalType": "bytes",
          "name": "data",
          "type": "bytes"
        }
      ],
      "name": "safeMint",
      "outputs": [],
      "stateMutability": "nonpayable",
      "type": "function"
    },
    {
      "inputs": [
        {
          "internalType": "uint256",
          "name": "tokenId",
          "type": "uint256"
        }
      ],
      "name": "wasBurnt",
      "outputs": [
        {
          "internalType": "bool",
          "name": "tokenWasBurnt",
          "type": "bool"
        }
      ],
      "stateMutability": "view",
      "type": "function"
    }
  ],
  "transactionHash": "0x47790aa42c25e3bd19fd6c063b3dacccee73d9a333969d4e301524381498d083",
  "args": [
    "0x3f547F87251710F70109Ae0409d461b270709693"
  ],
  "numDeployments": 1,
  "solcInputHash": "a6ab94751dde68b4d6125ac6f179d1ce",
  "bytecode": "0x60a060405234801561001057600080fd5b5060405161132738038061132783398101604081905261002f91610040565b6001600160a01b0316608052610070565b60006020828403121561005257600080fd5b81516001600160a01b038116811461006957600080fd5b9392505050565b608051611295610092600039600081816109be0152610a4601526112956000f3fe608060405234801561001057600080fd5b50600436106100725760003560e01c80638832e6e3116100505780638832e6e3146100a7578063c77c6955146100ba578063d5391393146100e257600080fd5b806340c10f19146100775780634684d7e91461008c57806383b0b7401461009f575b600080fd5b61008a610085366004610edd565b610117565b005b61008a61009a366004610f07565b61016a565b61008a6101e3565b61008a6100b5366004610f8d565b610206565b6100cd6100c8366004611014565b61028e565b60405190151581526020015b60405180910390f35b6101097f6d696e746572000000000000000000000000000000000000000000000000000081565b6040519081526020016100d9565b6101527f6d696e74657200000000000000000000000000000000000000000000000000006101436102a8565b61014b6102b7565b91906102e5565b610166828261015f61039a565b91906103c8565b5050565b6101967f6d696e74657200000000000000000000000000000000000000000000000000006101436102a8565b6101de838383808060200260200160405190810160405280939291908181526020018383602002808284376000920191909152506101d7925061039a915050565b91906105ca565b505050565b6101fc6101ee6102a8565b6101f661081f565b9061084d565b6102046108d0565b565b6102327f6d696e74657200000000000000000000000000000000000000000000000000006101436102a8565b61028861023d6102a8565b858585858080601f01602080910402602001604051908101604052809392919081815260200183838082843760009201919091525061027f925061039a915050565b93929190610905565b50505050565b60006102a28261029c61039a565b90610942565b92915050565b60006102b261097b565b905090565b6000806102a260017fc8827d3282af6f37b64c3e9e6f3ac9df286ab0bb0fccd6f8661bf19adb368b2361102d565b60008281526020848152604080832073ffffffffffffffffffffffffffffffffffffffff8516845290915290205460ff166101de5761032382610ac2565b604051602001610333919061108b565b604080517fffffffffffffffffffffffffffffffffffffffffffffffffffffffffffffffe0818403018152908290527f08c379a000000000000000000000000000000000000000000000000000000000825261039191600401611141565b60405180910390fd5b6000806102a260017fddf3ee18ae6d688373c219468f8be446e7ae82215f4779d821c7ea5e8c13c0c161102d565b73ffffffffffffffffffffffffffffffffffffffff8216610445576040517f08c379a000000000000000000000000000000000000000000000000000000000815260206004820152601a60248201527f4552433732313a206d696e7420746f20616464726573732830290000000000006044820152606401610391565b60008181526020849052604090205473ffffffffffffffffffffffffffffffffffffffff8116156104d2576040517f08c379a000000000000000000000000000000000000000000000000000000000815260206004820152601660248201527f4552433732313a206578697374696e6720746f6b656e000000000000000000006044820152606401610391565b7fdead000000000000000000000000000000000000000000000000000000000000810361055b576040517f08c379a000000000000000000000000000000000000000000000000000000000815260206004820152601360248201527f4552433732313a206275726e7420746f6b656e000000000000000000000000006044820152606401610391565b60008281526020858152604080832073ffffffffffffffffffffffffffffffffffffffff87169081905580845260018089019093528184208054909301909255518492907fddf252ad1be2c89b69c2b068fc378daa952ba7f163c4a11628f55a4df523b3ef908290a450505050565b73ffffffffffffffffffffffffffffffffffffffff8216610647576040517f08c379a000000000000000000000000000000000000000000000000000000000815260206004820152601a60248201527f4552433732313a206d696e7420746f20616464726573732830290000000000006044820152606401610391565b805160005b8181146107ea57600083828151811061066757610667611154565b60209081029190910181015160008181529188905260409091205490915073ffffffffffffffffffffffffffffffffffffffff811615610703576040517f08c379a000000000000000000000000000000000000000000000000000000000815260206004820152601660248201527f4552433732313a206578697374696e6720746f6b656e000000000000000000006044820152606401610391565b7fdead000000000000000000000000000000000000000000000000000000000000810361078c576040517f08c379a000000000000000000000000000000000000000000000000000000000815260206004820152601360248201527f4552433732313a206275726e7420746f6b656e000000000000000000000000006044820152606401610391565b60008281526020889052604080822073ffffffffffffffffffffffffffffffffffffffff89169081905590518492907fddf252ad1be2c89b69c2b068fc378daa952ba7f163c4a11628f55a4df523b3ef908290a4505060010161064c565b5073ffffffffffffffffffffffffffffffffffffffff9092166000908152600190930160205250604090912080549091019055565b6000806102a260017fb53127684a568b3173ae13b9f8a6016e243e63b6e8ee1178d6a717850b5d610461102d565b815473ffffffffffffffffffffffffffffffffffffffff828116911614610166576040517f08c379a000000000000000000000000000000000000000000000000000000000815260206004820152601960248201527f50726f787941646d696e3a206e6f74207468652061646d696e000000000000006044820152606401610391565b6102047f8e773e130000000000000000000000000000000000000000000000000000000060016108fe610c54565b9190610c82565b6109108584846103c8565b73ffffffffffffffffffffffffffffffffffffffff83163b1561093b5761093b846000858585610d8e565b5050505050565b6000818152602083905260408120547fdead000000000000000000000000000000000000000000000000000000000000145b9392505050565b60003332148061098b5750601836105b1561099557503390565b7fffffffffffffffffffffffffffffffffffffffffffffffffffffffffffffffec36013560601c7f000000000000000000000000000000000000000000000000000000000000000073ffffffffffffffffffffffffffffffffffffffff16331480610ab157506040517f8929a8ca00000000000000000000000000000000000000000000000000000000815273ffffffffffffffffffffffffffffffffffffffff82811660048301523360248301527f00000000000000000000000000000000000000000000000000000000000000001690638929a8ca90604401602060405180830381865afa158015610a8d573d6000803e3d6000fd5b505050506040513d601f19601f82011682018060405250810190610ab19190611183565b15610abb57919050565b3391505090565b60606000829003610ae157505060408051602081019091526000815290565b600082604051602001610af691815260200190565b604080517fffffffffffffffffffffffffffffffffffffffffffffffffffffffffffffffe08184030181529190529050601f5b818181518110610b3b57610b3b611154565b01602001517fff0000000000000000000000000000000000000000000000000000000000000016600003610b90577fffffffffffffffffffffffffffffffffffffffffffffffffffffffffffffffff01610b29565b60008160010167ffffffffffffffff811115610bae57610bae6111a5565b6040519080825280601f01601f191660200182016040528015610bd8576020820181803683370190505b50905060005b828111610c4b57838181518110610bf757610bf7611154565b602001015160f81c60f81b828281518110610c1457610c14611154565b60200101907effffffffffffffffffffffffffffffffffffffffffffffffffffffffffffff1916908160001a905350600101610bde565b50949350505050565b6000806102a260017fca9d3e17f264b0f3984e2634e94adb37fa3e6a8103f06aeae6fa59e21c769f5e61102d565b7c01000000000000000000000000000000000000000000000000000000007fffffffff00000000000000000000000000000000000000000000000000000000831601610d2a576040517f08c379a000000000000000000000000000000000000000000000000000000000815260206004820152601f60248201527f496e74657266616365446574656374696f6e3a2077726f6e672076616c7565006044820152606401610391565b7fffffffff00000000000000000000000000000000000000000000000000000000919091166000908152602092909252604090912080547fffffffffffffffffffffffffffffffffffffffffffffffffffffffffffffff0016911515919091179055565b6040517f150b7a02000000000000000000000000000000000000000000000000000000008082529073ffffffffffffffffffffffffffffffffffffffff85169063150b7a0290610de89089908990889088906004016111d4565b6020604051808303816000875af1158015610e07573d6000803e3d6000fd5b505050506040513d601f19601f82011682018060405250810190610e2b919061121d565b7fffffffff00000000000000000000000000000000000000000000000000000000161461093b576040517f08c379a000000000000000000000000000000000000000000000000000000000815260206004820152601e60248201527f4552433732313a2073616665207472616e736665722072656a656374656400006044820152606401610391565b803573ffffffffffffffffffffffffffffffffffffffff81168114610ed857600080fd5b919050565b60008060408385031215610ef057600080fd5b610ef983610eb4565b946020939093013593505050565b600080600060408486031215610f1c57600080fd5b610f2584610eb4565b9250602084013567ffffffffffffffff80821115610f4257600080fd5b818601915086601f830112610f5657600080fd5b813581811115610f6557600080fd5b8760208260051b8501011115610f7a57600080fd5b6020830194508093505050509250925092565b60008060008060608587031215610fa357600080fd5b610fac85610eb4565b935060208501359250604085013567ffffffffffffffff80821115610fd057600080fd5b818701915087601f830112610fe457600080fd5b813581811115610ff357600080fd5b88602082850101111561100557600080fd5b95989497505060200194505050565b60006020828403121561102657600080fd5b5035919050565b818103818111156102a2577f4e487b7100000000000000000000000000000000000000000000000000000000600052601160045260246000fd5b60005b8381101561108257818101518382015260200161106a565b50506000910152565b7f416363657373436f6e74726f6c3a206d697373696e67202700000000000000008152600082516110c3816018850160208701611067565b7f2720726f6c6500000000000000000000000000000000000000000000000000006018939091019283015250601e01919050565b6000815180845261110f816020860160208601611067565b601f017fffffffffffffffffffffffffffffffffffffffffffffffffffffffffffffffe0169290920160200192915050565b60208152600061097460208301846110f7565b7f4e487b7100000000000000000000000000000000000000000000000000000000600052603260045260246000fd5b60006020828403121561119557600080fd5b8151801515811461097457600080fd5b7f4e487b7100000000000000000000000000000000000000000000000000000000600052604160045260246000fd5b600073ffffffffffffffffffffffffffffffffffffffff80871683528086166020840152508360408301526080606083015261121360808301846110f7565b9695505050505050565b60006020828403121561122f57600080fd5b81517fffffffff000000000000000000000000000000000000000000000000000000008116811461097457600080fdfea26469706673582212206cd1900a8f54c7b39fb59ebb46d7351f7447bdfbdbec6583d873a1ac6285ca2864736f6c63430008110033",
  "devdoc": {
    "details": "This contract is to be used as a diamond facet (see ERC2535 Diamond Standard https://eips.ethereum.org/EIPS/eip-2535).Note: This facet depends on {ProxyAdminFacet}, {InterfaceDetectionFacet} and {AccessControlFacet}.",
    "kind": "dev",
    "methods": {
      "batchMint(address,uint256[])": {
        "details": "Reverts if the sender does not have the 'minter' role.Reverts if one of `tokenIds` has been previously burnt.",
        "params": {
          "to": "Address of the new tokens owner.",
          "tokenIds": "Identifiers of the tokens to mint."
        }
      },
      "initERC721MintableOnceStorage()": {
        "details": "Reverts if the sender is not the proxy admin."
      },
      "mint(address,uint256)": {
        "details": "Reverts if the sender does not have the 'minter' role.Reverts if `tokenId` has been previously burnt.",
        "params": {
          "to": "Address of the new token owner.",
          "tokenId": "Identifier of the token to mint."
        }
      },
      "safeMint(address,uint256,bytes)": {
        "details": "Reverts if the sender does not have the 'minter' role.Reverts if `tokenId` has been previously burnt.",
        "params": {
          "data": "Optional data to pass along to the receiver call.",
          "to": "Address of the new token owner.",
          "tokenId": "Identifier of the token to mint."
        }
      },
      "wasBurnt(uint256)": {
        "params": {
          "tokenId": "The token identifier."
        },
        "returns": {
          "tokenWasBurnt": "Whether the token was burnt."
        }
      }
    },
    "title": "ERC721 Non-Fungible Token Standard, optional extension: Mintable (facet version).",
    "version": 1
  },
  "userdoc": {
    "kind": "user",
    "methods": {
      "batchMint(address,uint256[])": {
        "notice": "Unsafely mints a batch of tokens."
      },
      "initERC721MintableOnceStorage()": {
        "notice": "Marks the following ERC165 interface(s) as supported: ERC721Mintable."
      },
      "mint(address,uint256)": {
        "notice": "Unsafely mints a token."
      },
      "safeMint(address,uint256,bytes)": {
        "notice": "Safely mints a token."
      },
      "wasBurnt(uint256)": {
        "notice": "Gets whether a token was burnt."
      }
    },
    "notice": "ERC721Mintable implementation where burnt tokens cannot be minted again.",
    "version": 1
  },
  "storageLayout": {
    "storage": [],
    "types": null
  }
}