{
  "address": "0xb703B967835F8F295fA9dD6073fa3DD85E326F70",
  "abi": [
    {
      "inputs": [
        {
          "internalType": "contract IForwarderRegistry",
          "name": "forwarderRegistry",
          "type": "address"
        }
      ],
      "stateMutability": "nonpayable",
      "type": "constructor"
    },
    {
      "anonymous": false,
      "inputs": [
        {
          "indexed": false,
          "internalType": "string",
          "name": "baseMetadataURI",
          "type": "string"
        }
      ],
      "name": "BaseMetadataURISet",
      "type": "event"
    },
    {
      "inputs": [],
      "name": "baseMetadataURI",
      "outputs": [
        {
          "internalType": "string",
          "name": "baseURI",
          "type": "string"
        }
      ],
      "stateMutability": "view",
      "type": "function"
    },
    {
      "inputs": [
        {
          "internalType": "string",
          "name": "tokenName",
          "type": "string"
        },
        {
          "internalType": "string",
          "name": "tokenSymbol",
          "type": "string"
        }
      ],
      "name": "initERC721MetadataStorage",
      "outputs": [],
      "stateMutability": "nonpayable",
      "type": "function"
    },
    {
      "inputs": [],
      "name": "name",
      "outputs": [
        {
          "internalType": "string",
          "name": "tokenName",
          "type": "string"
        }
      ],
      "stateMutability": "view",
      "type": "function"
    },
    {
      "inputs": [
        {
          "internalType": "string",
          "name": "baseURI",
          "type": "string"
        }
      ],
      "name": "setBaseMetadataURI",
      "outputs": [],
      "stateMutability": "nonpayable",
      "type": "function"
    },
    {
      "inputs": [],
      "name": "symbol",
      "outputs": [
        {
          "internalType": "string",
          "name": "tokenSymbol",
          "type": "string"
        }
      ],
      "stateMutability": "view",
      "type": "function"
    },
    {
      "inputs": [
        {
          "internalType": "uint256",
          "name": "tokenId",
          "type": "uint256"
        }
      ],
      "name": "tokenURI",
      "outputs": [
        {
          "internalType": "string",
          "name": "uri",
          "type": "string"
        }
      ],
      "stateMutability": "view",
      "type": "function"
    }
  ],
  "transactionHash": "0xc372b7231b474b000d3d4dff4658be735911c7ab7aa64bd8a0f8d0d55b661b4d",
  "args": [
    "0x3f547F87251710F70109Ae0409d461b270709693"
  ],
  "numDeployments": 1,
  "solcInputHash": "a6ab94751dde68b4d6125ac6f179d1ce",
  "bytecode": "0x60a060405234801561001057600080fd5b5060405161100438038061100483398101604081905261002f91610040565b6001600160a01b0316608052610070565b60006020828403121561005257600080fd5b81516001600160a01b038116811461006957600080fd5b9392505050565b608051610f726100926000396000818161063001526106b80152610f726000f3fe608060405234801561001057600080fd5b50600436106100725760003560e01c806395d89b411161005057806395d89b41146100b2578063ab7e8850146100ba578063c87b56dd146100cd57600080fd5b806306fdde03146100775780635b2bd79e146100955780637e518ec81461009d575b600080fd5b61007f6100e0565b60405161008c9190610aa2565b60405180910390f35b61007f6100f7565b6100b06100ab366004610b3c565b610104565b005b61007f610135565b6100b06100c8366004610b7e565b610147565b61007f6100db366004610bea565b61017e565b60606100f26100ed6101ab565b6101d9565b905090565b60606100f26100ed61026f565b61011d61010f61029d565b6101176102a7565b906102d5565b610131828261012a61026f565b919061035d565b5050565b60606100f26101426101ab565b6103a8565b61016061015261029d565b61015a6103b9565b906103e7565b6101788484848461016f6101ab565b9392919061046a565b50505050565b60606101928261018c6104f8565b90610526565b506101a58261019f61026f565b906105b9565b92915050565b6000806101a560017f9c4269c0f9f430d98876ffe9767fbf3f3232ea91a549beb549e5329532520eb3610c03565b60608160000180546101ea90610c3d565b80601f016020809104026020016040519081016040528092919081815260200182805461021690610c3d565b80156102635780601f1061023857610100808354040283529160200191610263565b820191906000526020600020905b81548152906001019060200180831161024657829003601f168201915b50505050509050919050565b6000806101a560017fe94434e3c6b941c5d90218142fadcc69cb2e13723993540bfa1c131dd1d3475a610c03565b60006100f26105ed565b6000806101a560017fc9ed16f33ab3a66c84bfd83099ccb2a8845871e2e1c1928f63797152f0fd54cd610c03565b815473ffffffffffffffffffffffffffffffffffffffff828116911614610131576040517f08c379a000000000000000000000000000000000000000000000000000000000815260206004820152601860248201527f4f776e6572736869703a206e6f7420746865206f776e6572000000000000000060448201526064015b60405180910390fd5b82610369828483610d0e565b507f04b1dc5c136a3ce9fded8db0ce3d3366c58764ec3a8e4c2b9e52e4ddfe5ebbf7828260405161039b929190610e28565b60405180910390a1505050565b60608160010180546101ea90610c3d565b6000806101a560017fb53127684a568b3173ae13b9f8a6016e243e63b6e8ee1178d6a717850b5d6104610c03565b815473ffffffffffffffffffffffffffffffffffffffff828116911614610131576040517f08c379a000000000000000000000000000000000000000000000000000000000815260206004820152601960248201527f50726f787941646d696e3a206e6f74207468652061646d696e000000000000006044820152606401610354565b61049f61049860017f5c5aabce181f75938de01fc8f3ad085dae040f02ff51dda186020471d60f770d610c03565b6001610734565b846104ab848683610d0e565b50600185016104bb828483610d0e565b506104f17f5b5e139f0000000000000000000000000000000000000000000000000000000060016104ea6107a4565b91906107d2565b5050505050565b6000806101a560017fddf3ee18ae6d688373c219468f8be446e7ae82215f4779d821c7ea5e8c13c0c1610c03565b60008181526020839052604081205473ffffffffffffffffffffffffffffffffffffffff81166105b2576040517f08c379a000000000000000000000000000000000000000000000000000000000815260206004820152601a60248201527f4552433732313a206e6f6e2d6578697374696e6720746f6b656e0000000000006044820152606401610354565b9392505050565b6060826105c5836108de565b6040516020016105d6929190610e75565b604051602081830303815290604052905092915050565b6000333214806105fd5750601836105b1561060757503390565b7fffffffffffffffffffffffffffffffffffffffffffffffffffffffffffffffec36013560601c7f000000000000000000000000000000000000000000000000000000000000000073ffffffffffffffffffffffffffffffffffffffff1633148061072357506040517f8929a8ca00000000000000000000000000000000000000000000000000000000815273ffffffffffffffffffffffffffffffffffffffff82811660048301523360248301527f00000000000000000000000000000000000000000000000000000000000000001690638929a8ca90604401602060405180830381865afa1580156106ff573d6000803e3d6000fd5b505050506040513d601f19601f820116820180604052508101906107239190610f1a565b1561072d57919050565b3391505090565b8154829082116107a0576040517f08c379a000000000000000000000000000000000000000000000000000000000815260206004820152601660248201527f53746f726167653a2070686173652072656163686564000000000000000000006044820152606401610354565b5550565b6000806101a560017fca9d3e17f264b0f3984e2634e94adb37fa3e6a8103f06aeae6fa59e21c769f5e610c03565b7c01000000000000000000000000000000000000000000000000000000007fffffffff0000000000000000000000000000000000000000000000000000000083160161087a576040517f08c379a000000000000000000000000000000000000000000000000000000000815260206004820152601f60248201527f496e74657266616365446574656374696f6e3a2077726f6e672076616c7565006044820152606401610354565b7fffffffff00000000000000000000000000000000000000000000000000000000919091166000908152602092909252604090912080547fffffffffffffffffffffffffffffffffffffffffffffffffffffffffffffff0016911515919091179055565b606060006108eb8361099c565b600101905060008167ffffffffffffffff81111561090b5761090b610c90565b6040519080825280601f01601f191660200182016040528015610935576020820181803683370190505b5090508181016020015b7fffffffffffffffffffffffffffffffffffffffffffffffffffffffffffffffff017f3031323334353637383961626364656600000000000000000000000000000000600a86061a8153600a850494508461093f57509392505050565b6000807a184f03e93ff9f4daa797ed6e38ed64bf6a1f01000000000000000083106109e5577a184f03e93ff9f4daa797ed6e38ed64bf6a1f010000000000000000830492506040015b6d04ee2d6d415b85acef81000000008310610a11576d04ee2d6d415b85acef8100000000830492506020015b662386f26fc100008310610a2f57662386f26fc10000830492506010015b6305f5e1008310610a47576305f5e100830492506008015b6127108310610a5b57612710830492506004015b60648310610a6d576064830492506002015b600a83106101a55760010192915050565b60005b83811015610a99578181015183820152602001610a81565b50506000910152565b6020815260008251806020840152610ac1816040850160208701610a7e565b601f017fffffffffffffffffffffffffffffffffffffffffffffffffffffffffffffffe0169190910160400192915050565b60008083601f840112610b0557600080fd5b50813567ffffffffffffffff811115610b1d57600080fd5b602083019150836020828501011115610b3557600080fd5b9250929050565b60008060208385031215610b4f57600080fd5b823567ffffffffffffffff811115610b6657600080fd5b610b7285828601610af3565b90969095509350505050565b60008060008060408587031215610b9457600080fd5b843567ffffffffffffffff80821115610bac57600080fd5b610bb888838901610af3565b90965094506020870135915080821115610bd157600080fd5b50610bde87828801610af3565b95989497509550505050565b600060208284031215610bfc57600080fd5b5035919050565b818103818111156101a5577f4e487b7100000000000000000000000000000000000000000000000000000000600052601160045260246000fd5b600181811c90821680610c5157607f821691505b602082108103610c8a577f4e487b7100000000000000000000000000000000000000000000000000000000600052602260045260246000fd5b50919050565b7f4e487b7100000000000000000000000000000000000000000000000000000000600052604160045260246000fd5b601f821115610d0957600081815260208120601f850160051c81016020861015610ce65750805b601f850160051c820191505b81811015610d0557828155600101610cf2565b5050505b505050565b67ffffffffffffffff831115610d2657610d26610c90565b610d3a83610d348354610c3d565b83610cbf565b6000601f841160018114610d8c5760008515610d565750838201355b7fffffffffffffffffffffffffffffffffffffffffffffffffffffffffffffffff600387901b1c1916600186901b1783556104f1565b6000838152602090207fffffffffffffffffffffffffffffffffffffffffffffffffffffffffffffffe0861690835b82811015610ddb5786850135825560209485019460019092019101610dbb565b5086821015610e16577fffffffffffffffffffffffffffffffffffffffffffffffffffffffffffffffff60f88860031b161c19848701351681555b505060018560011b0183555050505050565b60208152816020820152818360408301376000818301604090810191909152601f9092017fffffffffffffffffffffffffffffffffffffffffffffffffffffffffffffffe0160101919050565b6000808454610e8381610c3d565b60018281168015610e9b5760018114610ece57610efd565b7fffffffffffffffffffffffffffffffffffffffffffffffffffffffffffffff0084168752821515830287019450610efd565b8860005260208060002060005b85811015610ef45781548a820152908401908201610edb565b50505082870194505b505050508351610f11818360208801610a7e565b01949350505050565b600060208284031215610f2c57600080fd5b815180151581146105b257600080fdfea2646970667358221220a7e5491b195e81acde56265219657de447df00b9fe17fd7f0e109bc966a3eb0e64736f6c63430008110033",
  "devdoc": {
    "details": "This contract is to be used as a diamond facet (see ERC2535 Diamond Standard https://eips.ethereum.org/EIPS/eip-2535).Note: This facet depends on {ProxyAdminFacet}, {ContractOwnershipFacet} and {InterfaceDetectionFacet}.",
    "kind": "dev",
    "methods": {
      "baseMetadataURI()": {
        "returns": {
          "baseURI": "The base metadata URI."
        }
      },
      "initERC721MetadataStorage(string,string)": {
        "details": "Reverts if the sender is not the proxy admin.Reverts if the proxy initialization phase for ERC721ContractMetadataStorage is set to `1` or above.",
        "params": {
          "tokenName": "The token name",
          "tokenSymbol": "The token symbol"
        }
      },
      "name()": {
        "returns": {
          "tokenName": "The name of the token."
        }
      },
      "setBaseMetadataURI(string)": {
        "details": "Reverts if the sender is not the contract owner.Emits a {BaseMetadataURISet} event.",
        "params": {
          "baseURI": "The base metadata URI."
        }
      },
      "symbol()": {
        "returns": {
          "tokenSymbol": "The symbol of the token."
        }
      },
      "tokenURI(uint256)": {
        "details": "Reverts if `tokenId` does not exist.",
        "params": {
          "tokenId": "The token identifier."
        },
        "returns": {
          "uri": "The metadata URI for the token identifier."
        }
      }
    },
    "title": "ERC721 Non-Fungible Token Standard, optional extension: Metadata (facet version).",
    "version": 1
  },
  "userdoc": {
    "events": {
      "BaseMetadataURISet(string)": {
        "notice": "Emitted when the base token metadata URI is updated."
      }
    },
    "kind": "user",
    "methods": {
      "baseMetadataURI()": {
        "notice": "Gets the base metadata URI."
      },
      "initERC721MetadataStorage(string,string)": {
        "notice": "Initializes the storage with a name and a symbol.Sets the proxy initialization phase for ERC721ContractMetadataStorage to `1`.Marks the following ERC165 interface(s) as supported: ERC721Metadata."
      },
      "name()": {
        "notice": "Gets the name of the token. E.g. \"My Token\"."
      },
      "setBaseMetadataURI(string)": {
        "notice": "Sets the base metadata URI."
      },
      "symbol()": {
        "notice": "Gets the symbol of the token. E.g. \"TOK\"."
      },
      "tokenURI(uint256)": {
        "notice": "Gets the metadata URI for a token identifier."
      }
    },
    "version": 1
  },
  "storageLayout": {
    "storage": [],
    "types": null
  }
}