{
  "address": "0x632cadDf94ABacA98526D68FfB698ce2E5c80757",
  "abi": [
    {
      "inputs": [
        {
          "internalType": "contract IForwarderRegistry",
          "name": "forwarderRegistry",
          "type": "address"
        }
      ],
      "stateMutability": "nonpayable",
      "type": "constructor"
    },
    {
      "inputs": [
        {
          "internalType": "address[]",
          "name": "recipients",
          "type": "address[]"
        },
        {
          "internalType": "uint256[]",
          "name": "tokenIds",
          "type": "uint256[]"
        }
      ],
      "name": "deliver",
      "outputs": [],
      "stateMutability": "nonpayable",
      "type": "function"
    },
    {
      "inputs": [],
      "name": "initERC721DeliverableOnceStorage",
      "outputs": [],
      "stateMutability": "nonpayable",
      "type": "function"
    }
  ],
  "transactionHash": "0x36f34df48bdd4f6d848da453a5b3903626172b92aecdce2ea27b34f98386bfaa",
  "args": [
    "0x3f547F87251710F70109Ae0409d461b270709693"
  ],
  "numDeployments": 1,
  "solcInputHash": "a6ab94751dde68b4d6125ac6f179d1ce",
  "bytecode": "0x60a060405234801561001057600080fd5b50604051610d5f380380610d5f83398101604081905261002f91610040565b6001600160a01b0316608052610070565b60006020828403121561005257600080fd5b81516001600160a01b038116811461006957600080fd5b9392505050565b608051610ccd6100926000396000818161066d01526106f50152610ccd6000f3fe608060405234801561001057600080fd5b50600436106100365760003560e01c80639da5e8321461003b578063c0b8846814610050575b600080fd5b61004e610049366004610a89565b610058565b005b61004e610111565b6100937f6d696e7465720000000000000000000000000000000000000000000000000000610084610134565b61008c610143565b9190610177565b61010b848480806020026020016040519081016040528093929190818152602001838360200280828437600092019190915250506040805160208088028281018201909352878252909350879250869182918501908490808284376000920191909152506101049250610231915050565b919061025f565b50505050565b61012a61011c610134565b610124610540565b9061056e565b6101326105f5565b565b600061013e61062a565b905090565b60008061017160017fc8827d3282af6f37b64c3e9e6f3ac9df286ab0bb0fccd6f8661bf19adb368b23610af5565b92915050565b60008281526020848152604080832073ffffffffffffffffffffffffffffffffffffffff8516845290915290205460ff1661022c576101b582610771565b6040516020016101c59190610b53565b604080517fffffffffffffffffffffffffffffffffffffffffffffffffffffffffffffffe0818403018152908290527f08c379a000000000000000000000000000000000000000000000000000000000825261022391600401610bbf565b60405180910390fd5b505050565b60008061017160017fddf3ee18ae6d688373c219468f8be446e7ae82215f4779d821c7ea5e8c13c0c1610af5565b8151815181146102cb576040517f08c379a000000000000000000000000000000000000000000000000000000000815260206004820152601b60248201527f4552433732313a20696e636f6e73697374656e742061727261797300000000006044820152606401610223565b60005b8181146105395760008482815181106102e9576102e9610c10565b60200260200101519050600073ffffffffffffffffffffffffffffffffffffffff168173ffffffffffffffffffffffffffffffffffffffff1603610389576040517f08c379a000000000000000000000000000000000000000000000000000000000815260206004820152601a60248201527f4552433732313a206d696e7420746f20616464726573732830290000000000006044820152606401610223565b600084838151811061039d5761039d610c10565b60209081029190910181015160008181529189905260409091205490915073ffffffffffffffffffffffffffffffffffffffff811615610439576040517f08c379a000000000000000000000000000000000000000000000000000000000815260206004820152601660248201527f4552433732313a206578697374696e6720746f6b656e000000000000000000006044820152606401610223565b7fdead00000000000000000000000000000000000000000000000000000000000081036104c2576040517f08c379a000000000000000000000000000000000000000000000000000000000815260206004820152601360248201527f4552433732313a206275726e7420746f6b656e000000000000000000000000006044820152606401610223565b60008281526020898152604080832073ffffffffffffffffffffffffffffffffffffffff8716908190558084526001808d019093528184208054909301909255518492907fddf252ad1be2c89b69c2b068fc378daa952ba7f163c4a11628f55a4df523b3ef908290a45050508060010190506102ce565b5050505050565b60008061017160017fb53127684a568b3173ae13b9f8a6016e243e63b6e8ee1178d6a717850b5d6104610af5565b815473ffffffffffffffffffffffffffffffffffffffff8281169116146105f1576040517f08c379a000000000000000000000000000000000000000000000000000000000815260206004820152601960248201527f50726f787941646d696e3a206e6f74207468652061646d696e000000000000006044820152606401610223565b5050565b6101327f9da5e832000000000000000000000000000000000000000000000000000000006001610623610903565b9190610931565b60003332148061063a5750601836105b1561064457503390565b7fffffffffffffffffffffffffffffffffffffffffffffffffffffffffffffffec36013560601c7f000000000000000000000000000000000000000000000000000000000000000073ffffffffffffffffffffffffffffffffffffffff1633148061076057506040517f8929a8ca00000000000000000000000000000000000000000000000000000000815273ffffffffffffffffffffffffffffffffffffffff82811660048301523360248301527f00000000000000000000000000000000000000000000000000000000000000001690638929a8ca90604401602060405180830381865afa15801561073c573d6000803e3d6000fd5b505050506040513d601f19601f820116820180604052508101906107609190610c3f565b1561076a57919050565b3391505090565b6060600082900361079057505060408051602081019091526000815290565b6000826040516020016107a591815260200190565b604080517fffffffffffffffffffffffffffffffffffffffffffffffffffffffffffffffe08184030181529190529050601f5b8181815181106107ea576107ea610c10565b01602001517fff000000000000000000000000000000000000000000000000000000000000001660000361083f577fffffffffffffffffffffffffffffffffffffffffffffffffffffffffffffffff016107d8565b60008160010167ffffffffffffffff81111561085d5761085d610c68565b6040519080825280601f01601f191660200182016040528015610887576020820181803683370190505b50905060005b8281116108fa578381815181106108a6576108a6610c10565b602001015160f81c60f81b8282815181106108c3576108c3610c10565b60200101907effffffffffffffffffffffffffffffffffffffffffffffffffffffffffffff1916908160001a90535060010161088d565b50949350505050565b60008061017160017fca9d3e17f264b0f3984e2634e94adb37fa3e6a8103f06aeae6fa59e21c769f5e610af5565b7c01000000000000000000000000000000000000000000000000000000007fffffffff000000000000000000000000000000000000000000000000000000008316016109d9576040517f08c379a000000000000000000000000000000000000000000000000000000000815260206004820152601f60248201527f496e74657266616365446574656374696f6e3a2077726f6e672076616c7565006044820152606401610223565b7fffffffff00000000000000000000000000000000000000000000000000000000919091166000908152602092909252604090912080547fffffffffffffffffffffffffffffffffffffffffffffffffffffffffffffff0016911515919091179055565b60008083601f840112610a4f57600080fd5b50813567ffffffffffffffff811115610a6757600080fd5b6020830191508360208260051b8501011115610a8257600080fd5b9250929050565b60008060008060408587031215610a9f57600080fd5b843567ffffffffffffffff80821115610ab757600080fd5b610ac388838901610a3d565b90965094506020870135915080821115610adc57600080fd5b50610ae987828801610a3d565b95989497509550505050565b81810381811115610171577f4e487b7100000000000000000000000000000000000000000000000000000000600052601160045260246000fd5b60005b83811015610b4a578181015183820152602001610b32565b50506000910152565b7f416363657373436f6e74726f6c3a206d697373696e6720270000000000000000815260008251610b8b816018850160208701610b2f565b7f2720726f6c6500000000000000000000000000000000000000000000000000006018939091019283015250601e01919050565b6020815260008251806020840152610bde816040850160208701610b2f565b601f017fffffffffffffffffffffffffffffffffffffffffffffffffffffffffffffffe0169190910160400192915050565b7f4e487b7100000000000000000000000000000000000000000000000000000000600052603260045260246000fd5b600060208284031215610c5157600080fd5b81518015158114610c6157600080fd5b9392505050565b7f4e487b7100000000000000000000000000000000000000000000000000000000600052604160045260246000fdfea2646970667358221220910aecf40d779ca1b1ee9a3938ce94a72a59db502cb133b8a556a2c55d99135764736f6c63430008110033",
  "devdoc": {
    "details": "This contract is to be used as a diamond facet (see ERC2535 Diamond Standard https://eips.ethereum.org/EIPS/eip-2535).Note: This facet depends on {ProxyAdminFacet}, {InterfaceDetectionFacet} and {AccessControlFacet}.",
    "kind": "dev",
    "methods": {
      "deliver(address[],uint256[])": {
        "details": "Reverts if the sender does not have the 'minter' role.Reverts if one of `tokenIds` has been previously burnt.",
        "params": {
          "recipients": "Addresses of the new tokens owners.",
          "tokenIds": "Identifiers of the tokens to mint."
        }
      },
      "initERC721DeliverableOnceStorage()": {
        "details": "Reverts if the sender is not the proxy admin."
      }
    },
    "title": "ERC721 Non-Fungible Token Standard, optional extension: Deliverable (facet version).",
    "version": 1
  },
  "userdoc": {
    "kind": "user",
    "methods": {
      "deliver(address[],uint256[])": {
        "notice": "Unsafely mints tokens to multiple recipients."
      },
      "initERC721DeliverableOnceStorage()": {
        "notice": "Marks the following ERC165 interface(s) as supported: ERC721Deliverable."
      }
    },
    "notice": "ERC721Deliverable implementation where burnt tokens cannot be minted again.",
    "version": 1
  },
  "storageLayout": {
    "storage": [],
    "types": null
  }
}