{
  "address": "0x0F77cdA8d5F056E5AdED66f91cBA346727997364",
  "abi": [
    {
      "inputs": [
        {
          "internalType": "contract IForwarderRegistry",
          "name": "forwarderRegistry",
          "type": "address"
        }
      ],
      "stateMutability": "nonpayable",
      "type": "constructor"
    },
    {
      "inputs": [
        {
          "internalType": "uint256[]",
          "name": "tokenIds",
          "type": "uint256[]"
        },
        {
          "internalType": "string[]",
          "name": "uris",
          "type": "string[]"
        }
      ],
      "name": "batchSetTokenURI",
      "outputs": [],
      "stateMutability": "nonpayable",
      "type": "function"
    },
    {
      "inputs": [
        {
          "internalType": "string",
          "name": "tokenName",
          "type": "string"
        },
        {
          "internalType": "string",
          "name": "tokenSymbol",
          "type": "string"
        }
      ],
      "name": "initERC721MetadataStorage",
      "outputs": [],
      "stateMutability": "nonpayable",
      "type": "function"
    },
    {
      "inputs": [],
      "name": "name",
      "outputs": [
        {
          "internalType": "string",
          "name": "tokenName",
          "type": "string"
        }
      ],
      "stateMutability": "view",
      "type": "function"
    },
    {
      "inputs": [
        {
          "internalType": "uint256",
          "name": "tokenId",
          "type": "uint256"
        },
        {
          "internalType": "string",
          "name": "uri",
          "type": "string"
        }
      ],
      "name": "setTokenURI",
      "outputs": [],
      "stateMutability": "nonpayable",
      "type": "function"
    },
    {
      "inputs": [],
      "name": "symbol",
      "outputs": [
        {
          "internalType": "string",
          "name": "tokenSymbol",
          "type": "string"
        }
      ],
      "stateMutability": "view",
      "type": "function"
    },
    {
      "inputs": [
        {
          "internalType": "uint256",
          "name": "tokenId",
          "type": "uint256"
        }
      ],
      "name": "tokenURI",
      "outputs": [
        {
          "internalType": "string",
          "name": "uri",
          "type": "string"
        }
      ],
      "stateMutability": "view",
      "type": "function"
    }
  ],
  "transactionHash": "0xc2af1d02b4d4c2f2d04f0e141b351a3101d7e7bc44a2961a078d9a632eec5a47",
  "args": [
    "0x3f547F87251710F70109Ae0409d461b270709693"
  ],
  "numDeployments": 1,
  "solcInputHash": "a6ab94751dde68b4d6125ac6f179d1ce",
  "bytecode": "0x60a060405234801561001057600080fd5b5060405161126838038061126883398101604081905261002f91610040565b6001600160a01b0316608052610070565b60006020828403121561005257600080fd5b81516001600160a01b038116811461006957600080fd5b9392505050565b6080516111d6610092600039600081816107e6015261086e01526111d66000f3fe608060405234801561001057600080fd5b50600436106100725760003560e01c806395d89b411161005057806395d89b41146100bd578063ab7e8850146100c5578063c87b56dd146100d857600080fd5b806306fdde0314610077578063162094c4146100955780636706467b146100aa575b600080fd5b61007f6100eb565b60405161008c9190610c4a565b60405180910390f35b6100a86100a3366004610ce4565b610102565b005b6100a86100b8366004610d75565b610158565b61007f6101a2565b6100a86100d3366004610de1565b6101b4565b61007f6100e6366004610e41565b6101e5565b60606100fd6100f8610212565b610240565b905090565b61013d7f6d696e746572000000000000000000000000000000000000000000000000000061012e6102d6565b6101366102e0565b919061030e565b61015383838361014b6103c3565b9291906103f1565b505050565b6101847f6d696e746572000000000000000000000000000000000000000000000000000061012e6102d6565b61019c848484846101936103c3565b93929190610411565b50505050565b60606100fd6101af610212565b6104f2565b6101cd6101bf6102d6565b6101c7610503565b90610531565b61019c848484846101dc610212565b939291906105b8565b60606101f9826101f361063f565b9061066d565b5061020c826102066103c3565b90610700565b92915050565b60008061020c60017f9c4269c0f9f430d98876ffe9767fbf3f3232ea91a549beb549e5329532520eb3610e5a565b606081600001805461025190610e94565b80601f016020809104026020016040519081016040528092919081815260200182805461027d90610e94565b80156102ca5780601f1061029f576101008083540402835291602001916102ca565b820191906000526020600020905b8154815290600101906020018083116102ad57829003601f168201915b50505050509050919050565b60006100fd6107a3565b60008061020c60017fc8827d3282af6f37b64c3e9e6f3ac9df286ab0bb0fccd6f8661bf19adb368b23610e5a565b60008281526020848152604080832073ffffffffffffffffffffffffffffffffffffffff8516845290915290205460ff166101535761034c826108ea565b60405160200161035c9190610ee7565b604080517fffffffffffffffffffffffffffffffffffffffffffffffffffffffffffffffe0818403018152908290527f08c379a00000000000000000000000000000000000000000000000000000000082526103ba91600401610c4a565b60405180910390fd5b60008061020c60017f10425d47eba0194223d0d18d437db44682fcfacfc9f759b1b8092cc8a56516aa610e5a565b600083815260208590526040902061040a828483610fd0565b5050505050565b8281811461047b576040517f08c379a000000000000000000000000000000000000000000000000000000000815260206004820152601d60248201527f4d657461646174613a20696e636f6e73697374656e742061727261797300000060448201526064016103ba565b60005b8181146104e957838382818110610497576104976110ea565b90506020028101906104a99190611119565b8860008989868181106104be576104be6110ea565b90506020020135815260200190815260200160002091826104e0929190610fd0565b5060010161047e565b50505050505050565b606081600101805461025190610e94565b60008061020c60017fb53127684a568b3173ae13b9f8a6016e243e63b6e8ee1178d6a717850b5d6104610e5a565b815473ffffffffffffffffffffffffffffffffffffffff8281169116146105b4576040517f08c379a000000000000000000000000000000000000000000000000000000000815260206004820152601960248201527f50726f787941646d696e3a206e6f74207468652061646d696e0000000000000060448201526064016103ba565b5050565b6105ed6105e660017f5c5aabce181f75938de01fc8f3ad085dae040f02ff51dda186020471d60f770d610e5a565b6001610a7c565b846105f9848683610fd0565b5060018501610609828483610fd0565b5061040a7f5b5e139f000000000000000000000000000000000000000000000000000000006001610638610aec565b9190610b1a565b60008061020c60017fddf3ee18ae6d688373c219468f8be446e7ae82215f4779d821c7ea5e8c13c0c1610e5a565b60008181526020839052604081205473ffffffffffffffffffffffffffffffffffffffff81166106f9576040517f08c379a000000000000000000000000000000000000000000000000000000000815260206004820152601a60248201527f4552433732313a206e6f6e2d6578697374696e6720746f6b656e00000000000060448201526064016103ba565b9392505050565b600081815260208390526040902080546060919061071d90610e94565b80601f016020809104026020016040519081016040528092919081815260200182805461074990610e94565b80156107965780601f1061076b57610100808354040283529160200191610796565b820191906000526020600020905b81548152906001019060200180831161077957829003601f168201915b5050505050905092915050565b6000333214806107b35750601836105b156107bd57503390565b7fffffffffffffffffffffffffffffffffffffffffffffffffffffffffffffffec36013560601c7f000000000000000000000000000000000000000000000000000000000000000073ffffffffffffffffffffffffffffffffffffffff163314806108d957506040517f8929a8ca00000000000000000000000000000000000000000000000000000000815273ffffffffffffffffffffffffffffffffffffffff82811660048301523360248301527f00000000000000000000000000000000000000000000000000000000000000001690638929a8ca90604401602060405180830381865afa1580156108b5573d6000803e3d6000fd5b505050506040513d601f19601f820116820180604052508101906108d9919061117e565b156108e357919050565b3391505090565b6060600082900361090957505060408051602081019091526000815290565b60008260405160200161091e91815260200190565b604080517fffffffffffffffffffffffffffffffffffffffffffffffffffffffffffffffe08184030181529190529050601f5b818181518110610963576109636110ea565b01602001517fff00000000000000000000000000000000000000000000000000000000000000166000036109b8577fffffffffffffffffffffffffffffffffffffffffffffffffffffffffffffffff01610951565b60008160010167ffffffffffffffff8111156109d6576109d6610f53565b6040519080825280601f01601f191660200182016040528015610a00576020820181803683370190505b50905060005b828111610a7357838181518110610a1f57610a1f6110ea565b602001015160f81c60f81b828281518110610a3c57610a3c6110ea565b60200101907effffffffffffffffffffffffffffffffffffffffffffffffffffffffffffff1916908160001a905350600101610a06565b50949350505050565b815482908211610ae8576040517f08c379a000000000000000000000000000000000000000000000000000000000815260206004820152601660248201527f53746f726167653a20706861736520726561636865640000000000000000000060448201526064016103ba565b5550565b60008061020c60017fca9d3e17f264b0f3984e2634e94adb37fa3e6a8103f06aeae6fa59e21c769f5e610e5a565b7c01000000000000000000000000000000000000000000000000000000007fffffffff00000000000000000000000000000000000000000000000000000000831601610bc2576040517f08c379a000000000000000000000000000000000000000000000000000000000815260206004820152601f60248201527f496e74657266616365446574656374696f6e3a2077726f6e672076616c75650060448201526064016103ba565b7fffffffff00000000000000000000000000000000000000000000000000000000919091166000908152602092909252604090912080547fffffffffffffffffffffffffffffffffffffffffffffffffffffffffffffff0016911515919091179055565b60005b83811015610c41578181015183820152602001610c29565b50506000910152565b6020815260008251806020840152610c69816040850160208701610c26565b601f017fffffffffffffffffffffffffffffffffffffffffffffffffffffffffffffffe0169190910160400192915050565b60008083601f840112610cad57600080fd5b50813567ffffffffffffffff811115610cc557600080fd5b602083019150836020828501011115610cdd57600080fd5b9250929050565b600080600060408486031215610cf957600080fd5b83359250602084013567ffffffffffffffff811115610d1757600080fd5b610d2386828701610c9b565b9497909650939450505050565b60008083601f840112610d4257600080fd5b50813567ffffffffffffffff811115610d5a57600080fd5b6020830191508360208260051b8501011115610cdd57600080fd5b60008060008060408587031215610d8b57600080fd5b843567ffffffffffffffff80821115610da357600080fd5b610daf88838901610d30565b90965094506020870135915080821115610dc857600080fd5b50610dd587828801610d30565b95989497509550505050565b60008060008060408587031215610df757600080fd5b843567ffffffffffffffff80821115610e0f57600080fd5b610e1b88838901610c9b565b90965094506020870135915080821115610e3457600080fd5b50610dd587828801610c9b565b600060208284031215610e5357600080fd5b5035919050565b8181038181111561020c577f4e487b7100000000000000000000000000000000000000000000000000000000600052601160045260246000fd5b600181811c90821680610ea857607f821691505b602082108103610ee1577f4e487b7100000000000000000000000000000000000000000000000000000000600052602260045260246000fd5b50919050565b7f416363657373436f6e74726f6c3a206d697373696e6720270000000000000000815260008251610f1f816018850160208701610c26565b7f2720726f6c6500000000000000000000000000000000000000000000000000006018939091019283015250601e01919050565b7f4e487b7100000000000000000000000000000000000000000000000000000000600052604160045260246000fd5b601f82111561015357600081815260208120601f850160051c81016020861015610fa95750805b601f850160051c820191505b81811015610fc857828155600101610fb5565b505050505050565b67ffffffffffffffff831115610fe857610fe8610f53565b610ffc83610ff68354610e94565b83610f82565b6000601f84116001811461104e57600085156110185750838201355b7fffffffffffffffffffffffffffffffffffffffffffffffffffffffffffffffff600387901b1c1916600186901b17835561040a565b6000838152602090207fffffffffffffffffffffffffffffffffffffffffffffffffffffffffffffffe0861690835b8281101561109d578685013582556020948501946001909201910161107d565b50868210156110d8577fffffffffffffffffffffffffffffffffffffffffffffffffffffffffffffffff60f88860031b161c19848701351681555b505060018560011b0183555050505050565b7f4e487b7100000000000000000000000000000000000000000000000000000000600052603260045260246000fd5b60008083357fffffffffffffffffffffffffffffffffffffffffffffffffffffffffffffffe184360301811261114e57600080fd5b83018035915067ffffffffffffffff82111561116957600080fd5b602001915036819003821315610cdd57600080fd5b60006020828403121561119057600080fd5b815180151581146106f957600080fdfea26469706673582212205e0c942d32b82c7c5b2c6a90c067bb12491bf766fbc64211beea55f589d8612464736f6c63430008110033",
  "devdoc": {
    "details": "This contract is to be used as a diamond facet (see ERC2535 Diamond Standard https://eips.ethereum.org/EIPS/eip-2535).Note: This facet depends on {ProxyAdminFacet}, {ContractOwnershipFacet} and {InterfaceDetectionFacet}.",
    "kind": "dev",
    "methods": {
      "batchSetTokenURI(uint256[],string[])": {
        "details": "Reverts if the sender does not have the 'minter' role.",
        "params": {
          "tokenIds": "The token identifiers.",
          "uris": "The token metadata URIs."
        }
      },
      "initERC721MetadataStorage(string,string)": {
        "details": "Note: This function should be called ONLY in the init function of a proxied contract.Reverts if the sender is not the proxy admin.Reverts if the proxy initialization phase is set to `1` or above.",
        "params": {
          "tokenName": "The token name.",
          "tokenSymbol": "The token symbol."
        }
      },
      "name()": {
        "returns": {
          "tokenName": "The name of the token."
        }
      },
      "setTokenURI(uint256,string)": {
        "details": "Reverts if the sender does not have the 'minter' role.",
        "params": {
          "tokenId": "The token identifier.",
          "uri": "The token metadata URI."
        }
      },
      "symbol()": {
        "returns": {
          "tokenSymbol": "The symbol of the token."
        }
      },
      "tokenURI(uint256)": {
        "details": "Reverts if `tokenId` does not exist.",
        "params": {
          "tokenId": "The token identifier."
        },
        "returns": {
          "uri": "The metadata URI for the token identifier."
        }
      }
    },
    "title": "ERC721 Non-Fungible Token Standard, optional extension: Metadata (facet version).",
    "version": 1
  },
  "userdoc": {
    "kind": "user",
    "methods": {
      "batchSetTokenURI(uint256[],string[])": {
        "notice": "Sets the metadata URIs for a batch of tokens."
      },
      "initERC721MetadataStorage(string,string)": {
        "notice": "Initializes the storage with a name and symbol.Sets the proxy initialization phase to `1`.Marks the following ERC165 interface(s) as supported: ERC721Metadata."
      },
      "name()": {
        "notice": "Gets the name of the token. E.g. \"My Token\"."
      },
      "setTokenURI(uint256,string)": {
        "notice": "Sets the metadata URI for a token."
      },
      "symbol()": {
        "notice": "Gets the symbol of the token. E.g. \"TOK\"."
      },
      "tokenURI(uint256)": {
        "notice": "Gets the metadata URI for a token identifier."
      }
    },
    "notice": "ERC721Metadata implementation where tokenURIs are set individually per token.",
    "version": 1
  },
  "storageLayout": {
    "storage": [],
    "types": null
  }
}