{
  "address": "0x0EAA8797A39aD2F7730Bf89818a76BFFaD818143",
  "abi": [
    {
      "inputs": [
        {
          "internalType": "contract IForwarderRegistry",
          "name": "forwarderRegistry",
          "type": "address"
        }
      ],
      "stateMutability": "nonpayable",
      "type": "constructor"
    },
    {
      "anonymous": false,
      "inputs": [],
      "name": "Paused",
      "type": "event"
    },
    {
      "anonymous": false,
      "inputs": [],
      "name": "Unpaused",
      "type": "event"
    },
    {
      "inputs": [
        {
          "internalType": "bool",
          "name": "isPaused",
          "type": "bool"
        }
      ],
      "name": "initPauseStorage",
      "outputs": [],
      "stateMutability": "nonpayable",
      "type": "function"
    },
    {
      "inputs": [],
      "name": "pause",
      "outputs": [],
      "stateMutability": "nonpayable",
      "type": "function"
    },
    {
      "inputs": [],
      "name": "paused",
      "outputs": [
        {
          "internalType": "bool",
          "name": "",
          "type": "bool"
        }
      ],
      "stateMutability": "view",
      "type": "function"
    },
    {
      "inputs": [],
      "name": "unpause",
      "outputs": [],
      "stateMutability": "nonpayable",
      "type": "function"
    }
  ],
  "transactionHash": "0x81af8f1ee89e22bca927edefd797e6592d650af421bcce7cf0f02e03afb6d03a",
  "args": [
    "0x3f547F87251710F70109Ae0409d461b270709693"
  ],
  "numDeployments": 1,
  "solcInputHash": "a6ab94751dde68b4d6125ac6f179d1ce",
  "bytecode": "0x60a060405234801561001057600080fd5b506040516107fb3803806107fb83398101604081905261002f91610040565b6001600160a01b0316608052610070565b60006020828403121561005257600080fd5b81516001600160a01b038116811461006957600080fd5b9392505050565b60805161076961009260003960008181610403015261048b01526107696000f3fe608060405234801561001057600080fd5b506004361061004c5760003560e01c80633f4ba83a146100515780635c975abb1461005b5780638456cb5914610077578063b606577c1461007f575b600080fd5b610059610092565b005b6100636100bd565b604051901515815260200160405180910390f35b6100596100d6565b61005961008d3660046106b8565b6100f1565b6100ab61009d61011f565b6100a5610129565b9061015d565b6100bb6100b66101e9565b610217565b565b60006100d16100ca6101e9565b5460ff1690565b905090565b6100e161009d61011f565b6100bb6100ec6101e9565b610272565b61010a6100fc61011f565b6101046102d0565b906102fe565b61011c816101166101e9565b90610381565b50565b60006100d16103c0565b60008061015760017fc9ed16f33ab3a66c84bfd83099ccb2a8845871e2e1c1928f63797152f0fd54cd6106dc565b92915050565b815473ffffffffffffffffffffffffffffffffffffffff8281169116146101e5576040517f08c379a000000000000000000000000000000000000000000000000000000000815260206004820152601860248201527f4f776e6572736869703a206e6f7420746865206f776e6572000000000000000060448201526064015b60405180910390fd5b5050565b60008061015760017f0186a05f63b1553398ad5ea3233c0ce68b8c9eecc47717f123c5c2b42fbd6d9f6106dc565b61022081610507565b80547fffffffffffffffffffffffffffffffffffffffffffffffffffffffffffffff001681556040517fa45f47fdea8a1efdd9029a5691c7f759c32b7c698632b563573e155625d1693390600090a150565b61027b81610572565b80547fffffffffffffffffffffffffffffffffffffffffffffffffffffffffffffff001660011781556040517f9e87fac88ff661f02d44f95383c817fece4bce600a3dab7a54406878b965e75290600090a150565b60008061015760017fb53127684a568b3173ae13b9f8a6016e243e63b6e8ee1178d6a717850b5d61046106dc565b815473ffffffffffffffffffffffffffffffffffffffff8281169116146101e5576040517f08c379a000000000000000000000000000000000000000000000000000000000815260206004820152601960248201527f50726f787941646d696e3a206e6f74207468652061646d696e0000000000000060448201526064016101dc565b6103b66103af60017f3bee9ead429adf7e232b4f4b772a209623333b43e5466fc9b9a766da96c2ae0f6106dc565b60016105de565b6101e5828261064e565b6000333214806103d05750601836105b156103da57503390565b7fffffffffffffffffffffffffffffffffffffffffffffffffffffffffffffffec36013560601c7f000000000000000000000000000000000000000000000000000000000000000073ffffffffffffffffffffffffffffffffffffffff163314806104f657506040517f8929a8ca00000000000000000000000000000000000000000000000000000000815273ffffffffffffffffffffffffffffffffffffffff82811660048301523360248301527f00000000000000000000000000000000000000000000000000000000000000001690638929a8ca90604401602060405180830381865afa1580156104d2573d6000803e3d6000fd5b505050506040513d601f19601f820116820180604052508101906104f69190610716565b1561050057919050565b3391505090565b805460ff1661011c576040517f08c379a000000000000000000000000000000000000000000000000000000000815260206004820152601160248201527f50617573653a206e6f742070617573656400000000000000000000000000000060448201526064016101dc565b805460ff161561011c576040517f08c379a000000000000000000000000000000000000000000000000000000000815260206004820152600d60248201527f50617573653a207061757365640000000000000000000000000000000000000060448201526064016101dc565b81548290821161064a576040517f08c379a000000000000000000000000000000000000000000000000000000000815260206004820152601660248201527f53746f726167653a20706861736520726561636865640000000000000000000060448201526064016101dc565b5550565b80156101e55781547fffffffffffffffffffffffffffffffffffffffffffffffffffffffffffffff001660011782556040517f9e87fac88ff661f02d44f95383c817fece4bce600a3dab7a54406878b965e75290600090a15050565b801515811461011c57600080fd5b6000602082840312156106ca57600080fd5b81356106d5816106aa565b9392505050565b81810381811115610157577f4e487b7100000000000000000000000000000000000000000000000000000000600052601160045260246000fd5b60006020828403121561072857600080fd5b81516106d5816106aa56fea26469706673582212206211bfa180a4c4a217766eadde7d95d299bbf7c790999a3fe517852bf4c8819564736f6c63430008110033",
  "devdoc": {
    "details": "This contract is to be used as a diamond facet (see ERC2535 Diamond Standard https://eips.ethereum.org/EIPS/eip-2535).Note: This facet depends on {ProxyAdminFacet} and {ContractOwnershipFacet}.",
    "kind": "dev",
    "methods": {
      "initPauseStorage(bool)": {
        "details": "Reverts if the caller is not the proxy admin.Reverts if the proxy initialization phase is set to `1` or above.Emits a {Paused} event if `isPaused` is true.",
        "params": {
          "isPaused": "The initial pause state."
        }
      },
      "pause()": {
        "details": "Reverts if the sender is not the contract owner.Reverts if the contract is paused.Emits a {Paused} event."
      },
      "paused()": {
        "returns": {
          "_0": "isPaused The paused state of the contract."
        }
      },
      "unpause()": {
        "details": "Reverts if the sender is not the contract owner.Reverts if the contract is not paused.Emits an {Unpaused} event."
      }
    },
    "title": "Pausing mechanism (facet version).",
    "version": 1
  },
  "userdoc": {
    "events": {
      "Paused()": {
        "notice": "Emitted when the pause is triggered."
      },
      "Unpaused()": {
        "notice": "Emitted when the pause is lifted."
      }
    },
    "kind": "user",
    "methods": {
      "initPauseStorage(bool)": {
        "notice": "Initializes the storage with an initial pause state.Sets the proxy initialization phase to `1`."
      },
      "pause()": {
        "notice": "Pauses the contract."
      },
      "paused()": {
        "notice": "Gets the paused state of the contract."
      },
      "unpause()": {
        "notice": "Unpauses the contract."
      }
    },
    "version": 1
  },
  "storageLayout": {
    "storage": [],
    "types": null
  }
}