{
  "address": "0xA0FC3C9f66FB34B2138E9bA73Fe43c4585ecb233",
  "abi": [
    {
      "inputs": [
        {
          "internalType": "contract IForwarderRegistry",
          "name": "forwarderRegistry",
          "type": "address"
        }
      ],
      "stateMutability": "nonpayable",
      "type": "constructor"
    },
    {
      "anonymous": false,
      "inputs": [
        {
          "indexed": false,
          "internalType": "address",
          "name": "payoutWallet",
          "type": "address"
        }
      ],
      "name": "PayoutWalletSet",
      "type": "event"
    },
    {
      "inputs": [
        {
          "internalType": "address payable",
          "name": "initialPayoutWallet",
          "type": "address"
        }
      ],
      "name": "initPayoutWalletStorage",
      "outputs": [],
      "stateMutability": "nonpayable",
      "type": "function"
    },
    {
      "inputs": [],
      "name": "payoutWallet",
      "outputs": [
        {
          "internalType": "address payable",
          "name": "wallet",
          "type": "address"
        }
      ],
      "stateMutability": "view",
      "type": "function"
    },
    {
      "inputs": [
        {
          "internalType": "address payable",
          "name": "newPayoutWallet",
          "type": "address"
        }
      ],
      "name": "setPayoutWallet",
      "outputs": [],
      "stateMutability": "nonpayable",
      "type": "function"
    }
  ],
  "transactionHash": "0xc1274d747d47bef561d2302eb7670d91ecfcb50f46ca8374414c83725bc4e9d6",
  "args": [
    "0x3f547F87251710F70109Ae0409d461b270709693"
  ],
  "numDeployments": 1,
  "solcInputHash": "a6ab94751dde68b4d6125ac6f179d1ce",
  "bytecode": "0x60a060405234801561001057600080fd5b5060405161071838038061071883398101604081905261002f91610040565b6001600160a01b0316608052610070565b60006020828403121561005257600080fd5b81516001600160a01b038116811461006957600080fd5b9392505050565b6080516106866100926000396000818161044301526104cb01526106866000f3fe608060405234801561001057600080fd5b50600436106100415760003560e01c80636b8f9c43146100465780638488bb4e1461005b578063a556589a1461008c575b600080fd5b6100596100543660046105b7565b61009f565b005b6100636100cd565b60405173ffffffffffffffffffffffffffffffffffffffff909116815260200160405180910390f35b61005961009a3660046105b7565b6100f9565b6100b86100aa610124565b6100b261012e565b90610162565b6100ca816100c46101ee565b9061021c565b50565b60006100f46100da6101ee565b5473ffffffffffffffffffffffffffffffffffffffff1690565b905090565b610112610104610124565b61010c610310565b9061033e565b6100ca8161011e6101ee565b906103c1565b60006100f4610400565b60008061015c60017fc9ed16f33ab3a66c84bfd83099ccb2a8845871e2e1c1928f63797152f0fd54cd6105f4565b92915050565b815473ffffffffffffffffffffffffffffffffffffffff8281169116146101ea576040517f08c379a000000000000000000000000000000000000000000000000000000000815260206004820152601860248201527f4f776e6572736869703a206e6f7420746865206f776e6572000000000000000060448201526064015b60405180910390fd5b5050565b60008061015c60017f4fb5f8cdfbce77f22b0931a39e9f476a60a0f66524b2f379e96485471eb700ae6105f4565b73ffffffffffffffffffffffffffffffffffffffff8116610299576040517f08c379a000000000000000000000000000000000000000000000000000000000815260206004820152601a60248201527f5061796f757457616c6c65743a207a65726f206164647265737300000000000060448201526064016101e1565b81547fffffffffffffffffffffffff00000000000000000000000000000000000000001673ffffffffffffffffffffffffffffffffffffffff821690811783556040519081527fdd880d24a789958a6398c99c2e54ce31bc10a638cbc42f7dd34285479ae0f8559060200160405180910390a15050565b60008061015c60017fb53127684a568b3173ae13b9f8a6016e243e63b6e8ee1178d6a717850b5d61046105f4565b815473ffffffffffffffffffffffffffffffffffffffff8281169116146101ea576040517f08c379a000000000000000000000000000000000000000000000000000000000815260206004820152601960248201527f50726f787941646d696e3a206e6f74207468652061646d696e0000000000000060448201526064016101e1565b6103f66103ef60017f03497821c97e7d2bd8e34992e1a723a2edcf97a05eef937ff657491b38cca19e6105f4565b6001610547565b6101ea828261021c565b6000333214806104105750601836105b1561041a57503390565b7fffffffffffffffffffffffffffffffffffffffffffffffffffffffffffffffec36013560601c7f000000000000000000000000000000000000000000000000000000000000000073ffffffffffffffffffffffffffffffffffffffff1633148061053657506040517f8929a8ca00000000000000000000000000000000000000000000000000000000815273ffffffffffffffffffffffffffffffffffffffff82811660048301523360248301527f00000000000000000000000000000000000000000000000000000000000000001690638929a8ca90604401602060405180830381865afa158015610512573d6000803e3d6000fd5b505050506040513d601f19601f82011682018060405250810190610536919061062e565b1561054057919050565b3391505090565b8154829082116105b3576040517f08c379a000000000000000000000000000000000000000000000000000000000815260206004820152601660248201527f53746f726167653a20706861736520726561636865640000000000000000000060448201526064016101e1565b5550565b6000602082840312156105c957600080fd5b813573ffffffffffffffffffffffffffffffffffffffff811681146105ed57600080fd5b9392505050565b8181038181111561015c577f4e487b7100000000000000000000000000000000000000000000000000000000600052601160045260246000fd5b60006020828403121561064057600080fd5b815180151581146105ed57600080fdfea2646970667358221220f017476073f5e5a2c1ec7cbd59d2e80680fc9c9af843b7cac68f1c6bbe90bee864736f6c63430008110033",
  "devdoc": {
    "details": "This contract is to be used as a diamond facet (see ERC2535 Diamond Standard https://eips.ethereum.org/EIPS/eip-2535).Note: This facet depends on {ProxyAdminFacet} and {ContractOwnershipFacet}.",
    "kind": "dev",
    "methods": {
      "initPayoutWalletStorage(address)": {
        "details": "Reverts if the sender is not the proxy admin.Reverts if the proxy initialization phase is set to `1` or above.Reverts if `initialPayoutWallet` is the zero address.Emits a {PayoutWalletSet} event.",
        "params": {
          "initialPayoutWallet": "The initial payout wallet."
        }
      },
      "payoutWallet()": {
        "returns": {
          "wallet": "The payout wallet."
        }
      },
      "setPayoutWallet(address)": {
        "details": "Reverts if the sender is not the contract owner.Reverts if `payoutWallet_` is the zero address.Emits a {PayoutWalletSet} event.",
        "params": {
          "newPayoutWallet": "The payout wallet."
        }
      }
    },
    "title": "Payout wallet (facet version).",
    "version": 1
  },
  "userdoc": {
    "events": {
      "PayoutWalletSet(address)": {
        "notice": "Emitted when the payout wallet address changes."
      }
    },
    "kind": "user",
    "methods": {
      "initPayoutWalletStorage(address)": {
        "notice": "Initializes the storage with an initial payout wallet.Sets the proxy initialization phase to `1`."
      },
      "payoutWallet()": {
        "notice": "Gets the payout wallet."
      },
      "setPayoutWallet(address)": {
        "notice": "Sets the payout wallet."
      }
    },
    "version": 1
  },
  "storageLayout": {
    "storage": [],
    "types": null
  }
}