{
  "address": "0xF78C977F7a0bb8c94c4C0f107578e8C71cED8f87",
  "abi": [
    {
      "inputs": [
        {
          "internalType": "contract IForwarderRegistry",
          "name": "forwarderRegistry",
          "type": "address"
        }
      ],
      "stateMutability": "nonpayable",
      "type": "constructor"
    },
    {
      "anonymous": false,
      "inputs": [
        {
          "indexed": false,
          "internalType": "address",
          "name": "previousAdmin",
          "type": "address"
        },
        {
          "indexed": false,
          "internalType": "address",
          "name": "newAdmin",
          "type": "address"
        }
      ],
      "name": "AdminChanged",
      "type": "event"
    },
    {
      "inputs": [
        {
          "internalType": "address",
          "name": "newAdmin",
          "type": "address"
        }
      ],
      "name": "changeProxyAdmin",
      "outputs": [],
      "stateMutability": "nonpayable",
      "type": "function"
    },
    {
      "inputs": [
        {
          "internalType": "address",
          "name": "initialAdmin",
          "type": "address"
        }
      ],
      "name": "initProxyAdminStorage",
      "outputs": [],
      "stateMutability": "nonpayable",
      "type": "function"
    },
    {
      "inputs": [],
      "name": "proxyAdmin",
      "outputs": [
        {
          "internalType": "address",
          "name": "admin",
          "type": "address"
        }
      ],
      "stateMutability": "view",
      "type": "function"
    }
  ],
  "transactionHash": "0x27f64975e3aabdcd1805c9389bdddf51388535b7a0fc310c65f1930dbdb16dda",
  "args": [
    "0x3f547F87251710F70109Ae0409d461b270709693"
  ],
  "numDeployments": 1,
  "solcInputHash": "a6ab94751dde68b4d6125ac6f179d1ce",
  "bytecode": "0x60a060405234801561001057600080fd5b506040516106d13803806106d183398101604081905261002f91610040565b6001600160a01b0316608052610070565b60006020828403121561005257600080fd5b81516001600160a01b038116811461006957600080fd5b9392505050565b60805161063f6100926000396000818161046c01526104f4015261063f6000f3fe608060405234801561001057600080fd5b50600436106100415760003560e01c80633e47158c146100465780634d350622146100775780639f712f2f1461008c575b600080fd5b61004e61009f565b60405173ffffffffffffffffffffffffffffffffffffffff909116815260200160405180910390f35b61008a610085366004610570565b6100cb565b005b61008a61009a366004610570565b6100e0565b60006100c66100ac6100fb565b5473ffffffffffffffffffffffffffffffffffffffff1690565b905090565b6100dd816100d76100fb565b9061012f565b50565b6100dd6100eb610172565b826100f46100fb565b919061017c565b60008061012960017fb53127684a568b3173ae13b9f8a6016e243e63b6e8ee1178d6a717850b5d61046105ad565b92915050565b61016461015d60017fc4214a2a0bb1b53325bec6bf1dc591abd32036bb3f39039f460ac4a3eb0f72986105ad565b60016102bd565b61016e828261032d565b5050565b60006100c6610429565b825473ffffffffffffffffffffffffffffffffffffffff9081169083168114610206576040517f08c379a000000000000000000000000000000000000000000000000000000000815260206004820152601960248201527f50726f787941646d696e3a206e6f74207468652061646d696e0000000000000060448201526064015b60405180910390fd5b8173ffffffffffffffffffffffffffffffffffffffff168173ffffffffffffffffffffffffffffffffffffffff16146102b75783547fffffffffffffffffffffffff00000000000000000000000000000000000000001673ffffffffffffffffffffffffffffffffffffffff838116918217865560408051918416825260208201929092527f7e644d79422f17c01e4894b5f4f588d331ebfa28653d42ae832dc59e38c9798f910160405180910390a15b50505050565b815482908211610329576040517f08c379a000000000000000000000000000000000000000000000000000000000815260206004820152601660248201527f53746f726167653a20706861736520726561636865640000000000000000000060448201526064016101fd565b5550565b73ffffffffffffffffffffffffffffffffffffffff81166103aa576040517f08c379a000000000000000000000000000000000000000000000000000000000815260206004820152601c60248201527f50726f787941646d696e3a206e6f20696e697469616c2061646d696e0000000060448201526064016101fd565b81547fffffffffffffffffffffffff00000000000000000000000000000000000000001673ffffffffffffffffffffffffffffffffffffffff82169081178355604080516000815260208101929092527f7e644d79422f17c01e4894b5f4f588d331ebfa28653d42ae832dc59e38c9798f910160405180910390a15050565b6000333214806104395750601836105b1561044357503390565b7fffffffffffffffffffffffffffffffffffffffffffffffffffffffffffffffec36013560601c7f000000000000000000000000000000000000000000000000000000000000000073ffffffffffffffffffffffffffffffffffffffff1633148061055f57506040517f8929a8ca00000000000000000000000000000000000000000000000000000000815273ffffffffffffffffffffffffffffffffffffffff82811660048301523360248301527f00000000000000000000000000000000000000000000000000000000000000001690638929a8ca90604401602060405180830381865afa15801561053b573d6000803e3d6000fd5b505050506040513d601f19601f8201168201806040525081019061055f91906105e7565b1561056957919050565b3391505090565b60006020828403121561058257600080fd5b813573ffffffffffffffffffffffffffffffffffffffff811681146105a657600080fd5b9392505050565b81810381811115610129577f4e487b7100000000000000000000000000000000000000000000000000000000600052601160045260246000fd5b6000602082840312156105f957600080fd5b815180151581146105a657600080fdfea2646970667358221220a7639068bf1ed1324c02b802724ce4921e971f71a8bfa99709589404bb42b2fe64736f6c63430008110033",
  "devdoc": {
    "details": "See https://eips.ethereum.org/EIPS/eip-1967This contract is to be used as a diamond facet (see ERC2535 Diamond Standard https://eips.ethereum.org/EIPS/eip-2535).",
    "kind": "dev",
    "methods": {
      "changeProxyAdmin(address)": {
        "details": "Reverts if `sender` is not the proxy admin.Emits an {AdminChanged} event if `newAdmin` is different from the current proxy admin.",
        "params": {
          "newAdmin": "The new proxy admin."
        }
      },
      "initProxyAdminStorage(address)": {
        "details": "Reverts if the proxy initialization phase is set to `1` or above.Emits an {AdminChanged} event if `initialAdmin` is not the zero address.",
        "params": {
          "initialAdmin": "The initial payout wallet."
        }
      },
      "proxyAdmin()": {
        "returns": {
          "admin": "The proxy admin"
        }
      }
    },
    "title": "ERC1967 Standard Proxy Storage Slots, Admin Address (facet version).",
    "version": 1
  },
  "userdoc": {
    "events": {
      "AdminChanged(address,address)": {
        "notice": "Emitted when the proxy admin changes."
      }
    },
    "kind": "user",
    "methods": {
      "changeProxyAdmin(address)": {
        "notice": "Sets a new proxy admin."
      },
      "initProxyAdminStorage(address)": {
        "notice": "Initializes the storage with an initial admin.Sets the proxy initialization phase to `1`."
      },
      "proxyAdmin()": {
        "notice": "Gets the proxy admin."
      }
    },
    "version": 1
  },
  "storageLayout": {
    "storage": [],
    "types": null
  }
}