{
  "address": "0xE9B5a855c448893eB424175B6B4834c7b31C980e",
  "abi": [
    {
      "inputs": [
        {
          "internalType": "address",
          "name": "tokenContract",
          "type": "address"
        }
      ],
      "name": "BaseMetadataURIsAlreadySet",
      "type": "error"
    },
    {
      "inputs": [
        {
          "internalType": "address",
          "name": "tokenContract",
          "type": "address"
        }
      ],
      "name": "BaseMetadataURIsNotSet",
      "type": "error"
    },
    {
      "inputs": [
        {
          "internalType": "address",
          "name": "tokenContract",
          "type": "address"
        },
        {
          "internalType": "string",
          "name": "preRevealBaseMetadataURI",
          "type": "string"
        },
        {
          "internalType": "string",
          "name": "postRevealBaseMetadataURI",
          "type": "string"
        }
      ],
      "name": "EmptyBaseMetadataURIs",
      "type": "error"
    },
    {
      "inputs": [
        {
          "internalType": "address",
          "name": "targetContract",
          "type": "address"
        },
        {
          "internalType": "address",
          "name": "account",
          "type": "address"
        }
      ],
      "name": "NotTargetContractOwner",
      "type": "error"
    },
    {
      "inputs": [
        {
          "internalType": "address",
          "name": "tokenContract",
          "type": "address"
        }
      ],
      "name": "TokensAlreadyRevealed",
      "type": "error"
    },
    {
      "anonymous": false,
      "inputs": [
        {
          "indexed": false,
          "internalType": "address",
          "name": "tokenContract",
          "type": "address"
        },
        {
          "indexed": false,
          "internalType": "string",
          "name": "preRevealBaseMetadataURI",
          "type": "string"
        },
        {
          "indexed": false,
          "internalType": "string",
          "name": "postRevealBaseMetadataURI",
          "type": "string"
        }
      ],
      "name": "BaseMetadataURIsSet",
      "type": "event"
    },
    {
      "anonymous": false,
      "inputs": [
        {
          "indexed": false,
          "internalType": "address",
          "name": "tokenContract",
          "type": "address"
        }
      ],
      "name": "TokensRevealed",
      "type": "event"
    },
    {
      "inputs": [
        {
          "internalType": "address",
          "name": "",
          "type": "address"
        }
      ],
      "name": "isTokenRevealed",
      "outputs": [
        {
          "internalType": "bool",
          "name": "",
          "type": "bool"
        }
      ],
      "stateMutability": "view",
      "type": "function"
    },
    {
      "inputs": [
        {
          "internalType": "address",
          "name": "",
          "type": "address"
        }
      ],
      "name": "postRevealBaseMetadataURI",
      "outputs": [
        {
          "internalType": "string",
          "name": "",
          "type": "string"
        }
      ],
      "stateMutability": "view",
      "type": "function"
    },
    {
      "inputs": [
        {
          "internalType": "address",
          "name": "",
          "type": "address"
        }
      ],
      "name": "preRevealBaseMetadataURI",
      "outputs": [
        {
          "internalType": "string",
          "name": "",
          "type": "string"
        }
      ],
      "stateMutability": "view",
      "type": "function"
    },
    {
      "inputs": [
        {
          "internalType": "address",
          "name": "tokenContract",
          "type": "address"
        }
      ],
      "name": "revealTokens",
      "outputs": [],
      "stateMutability": "nonpayable",
      "type": "function"
    },
    {
      "inputs": [
        {
          "internalType": "address",
          "name": "tokenContract",
          "type": "address"
        },
        {
          "internalType": "string",
          "name": "preRevealBaseURI",
          "type": "string"
        },
        {
          "internalType": "string",
          "name": "postRevealBaseURI",
          "type": "string"
        }
      ],
      "name": "setBaseMetadataURIs",
      "outputs": [],
      "stateMutability": "nonpayable",
      "type": "function"
    },
    {
      "inputs": [
        {
          "internalType": "address",
          "name": "tokenContract",
          "type": "address"
        },
        {
          "internalType": "uint256",
          "name": "tokenId",
          "type": "uint256"
        }
      ],
      "name": "tokenMetadataURI",
      "outputs": [
        {
          "internalType": "string",
          "name": "tokenURI",
          "type": "string"
        }
      ],
      "stateMutability": "view",
      "type": "function"
    }
  ],
  "transactionHash": "0x813ceb291c28d3ec7da608c13c6616ec4ba7eb2dcf2d14bc3f05bc1086e1c272",
  "args": [],
  "numDeployments": 1,
  "solcInputHash": "f30d10569f14710618ffc171888939bd",
  "bytecode": "0x608060405234801561001057600080fd5b50610da2806100206000396000f3fe608060405234801561001057600080fd5b50600436106100725760003560e01c8063ebb4462211610050578063ebb44622146100c8578063f4f0ec48146100fb578063f724dad71461010e57600080fd5b80636b0fce131461007757806378fa47e1146100a0578063da0455dd146100b3575b600080fd5b61008a610085366004610895565b610121565b60405161009791906108dd565b60405180910390f35b61008a6100ae366004610895565b6101bb565b6100c66100c1366004610895565b6101d4565b005b6100eb6100d6366004610895565b60006020819052908152604090205460ff1681565b6040519015158152602001610097565b6100c6610109366004610977565b610377565b61008a61011c3660046109fa565b61050c565b6002602052600090815260409020805461013a90610a26565b80601f016020809104026020016040519081016040528092919081815260200182805461016690610a26565b80156101b35780601f10610188576101008083540402835291602001916101b3565b820191906000526020600020905b81548152906001019060200180831161019657829003601f168201915b505050505081565b6001602052600090815260409020805461013a90610a26565b6101f473ffffffffffffffffffffffffffffffffffffffff8216336105c6565b73ffffffffffffffffffffffffffffffffffffffff81166000908152600160205260409020805461022490610a26565b905060000361027c576040517f5351876700000000000000000000000000000000000000000000000000000000815273ffffffffffffffffffffffffffffffffffffffff821660048201526024015b60405180910390fd5b73ffffffffffffffffffffffffffffffffffffffff811660009081526020819052604090205460ff16156102f4576040517fd2a6a91e00000000000000000000000000000000000000000000000000000000815273ffffffffffffffffffffffffffffffffffffffff82166004820152602401610273565b73ffffffffffffffffffffffffffffffffffffffff81166000818152602081815260409182902080547fffffffffffffffffffffffffffffffffffffffffffffffffffffffffffffff0016600117905590519182527fdc874c2d91eb868001590817e44167423d07b9ec4c38e67abdffd82668436275910160405180910390a150565b821580610382575080155b156103c35784848484846040517fdcacb1ae000000000000000000000000000000000000000000000000000000008152600401610273959493929190610ac2565b6103e373ffffffffffffffffffffffffffffffffffffffff8616336105c6565b73ffffffffffffffffffffffffffffffffffffffff85166000908152600160205260409020805461041390610a26565b159050610464576040517f4def256f00000000000000000000000000000000000000000000000000000000815273ffffffffffffffffffffffffffffffffffffffff86166004820152602401610273565b73ffffffffffffffffffffffffffffffffffffffff85166000908152600160205260409020610494848683610b8f565b5073ffffffffffffffffffffffffffffffffffffffff851660009081526002602052604090206104c5828483610b8f565b507f489321785c6059b2a055d3a95981b8a5167c0e01c1a19ad023e0178f0e18000485858585856040516104fd959493929190610ac2565b60405180910390a15050505050565b73ffffffffffffffffffffffffffffffffffffffff821660009081526020819052604090205460609060ff16156105925773ffffffffffffffffffffffffffffffffffffffff8316600090815260026020526040902061056b8361062a565b60405160200161057c929190610caa565b60405160208183030381529060405290506105c0565b73ffffffffffffffffffffffffffffffffffffffff8316600090815260016020526040902061056b8361062a565b92915050565b6105d082826106e8565b610626576040517f29b9b08b00000000000000000000000000000000000000000000000000000000815273ffffffffffffffffffffffffffffffffffffffff808416600483015282166024820152604401610273565b5050565b606060006106378361078e565b600101905060008167ffffffffffffffff81111561065757610657610b11565b6040519080825280601f01601f191660200182016040528015610681576020820181803683370190505b5090508181016020015b7fffffffffffffffffffffffffffffffffffffffffffffffffffffffffffffffff017f3031323334353637383961626364656600000000000000000000000000000000600a86061a8153600a850494508461068b57509392505050565b60008173ffffffffffffffffffffffffffffffffffffffff168373ffffffffffffffffffffffffffffffffffffffff16638da5cb5b6040518163ffffffff1660e01b8152600401602060405180830381865afa15801561074c573d6000803e3d6000fd5b505050506040513d601f19601f820116820180604052508101906107709190610d4f565b73ffffffffffffffffffffffffffffffffffffffff16149392505050565b6000807a184f03e93ff9f4daa797ed6e38ed64bf6a1f01000000000000000083106107d7577a184f03e93ff9f4daa797ed6e38ed64bf6a1f010000000000000000830492506040015b6d04ee2d6d415b85acef81000000008310610803576d04ee2d6d415b85acef8100000000830492506020015b662386f26fc10000831061082157662386f26fc10000830492506010015b6305f5e1008310610839576305f5e100830492506008015b612710831061084d57612710830492506004015b6064831061085f576064830492506002015b600a83106105c05760010192915050565b73ffffffffffffffffffffffffffffffffffffffff8116811461089257600080fd5b50565b6000602082840312156108a757600080fd5b81356108b281610870565b9392505050565b60005b838110156108d45781810151838201526020016108bc565b50506000910152565b60208152600082518060208401526108fc8160408501602087016108b9565b601f017fffffffffffffffffffffffffffffffffffffffffffffffffffffffffffffffe0169190910160400192915050565b60008083601f84011261094057600080fd5b50813567ffffffffffffffff81111561095857600080fd5b60208301915083602082850101111561097057600080fd5b9250929050565b60008060008060006060868803121561098f57600080fd5b853561099a81610870565b9450602086013567ffffffffffffffff808211156109b757600080fd5b6109c389838a0161092e565b909650945060408801359150808211156109dc57600080fd5b506109e98882890161092e565b969995985093965092949392505050565b60008060408385031215610a0d57600080fd5b8235610a1881610870565b946020939093013593505050565b600181811c90821680610a3a57607f821691505b602082108103610a73577f4e487b7100000000000000000000000000000000000000000000000000000000600052602260045260246000fd5b50919050565b8183528181602085013750600060208284010152600060207fffffffffffffffffffffffffffffffffffffffffffffffffffffffffffffffe0601f840116840101905092915050565b73ffffffffffffffffffffffffffffffffffffffff86168152606060208201526000610af2606083018688610a79565b8281036040840152610b05818587610a79565b98975050505050505050565b7f4e487b7100000000000000000000000000000000000000000000000000000000600052604160045260246000fd5b601f821115610b8a57600081815260208120601f850160051c81016020861015610b675750805b601f850160051c820191505b81811015610b8657828155600101610b73565b5050505b505050565b67ffffffffffffffff831115610ba757610ba7610b11565b610bbb83610bb58354610a26565b83610b40565b6000601f841160018114610c0d5760008515610bd75750838201355b7fffffffffffffffffffffffffffffffffffffffffffffffffffffffffffffffff600387901b1c1916600186901b178355610ca3565b6000838152602090207fffffffffffffffffffffffffffffffffffffffffffffffffffffffffffffffe0861690835b82811015610c5c5786850135825560209485019460019092019101610c3c565b5086821015610c97577fffffffffffffffffffffffffffffffffffffffffffffffffffffffffffffffff60f88860031b161c19848701351681555b505060018560011b0183555b5050505050565b6000808454610cb881610a26565b60018281168015610cd05760018114610d0357610d32565b7fffffffffffffffffffffffffffffffffffffffffffffffffffffffffffffff0084168752821515830287019450610d32565b8860005260208060002060005b85811015610d295781548a820152908401908201610d10565b50505082870194505b505050508351610d468183602088016108b9565b01949350505050565b600060208284031215610d6157600080fd5b81516108b28161087056fea2646970667358221220ca849510aff2f1778f646a7828fc2817a20937409ddc2b4c9edc7a73c0d1d92d64736f6c63430008150033",
  "devdoc": {
    "errors": {
      "BaseMetadataURIsAlreadySet(address)": [
        {
          "params": {
            "tokenContract": "The token contract on which the base metadata URIs are already set."
          }
        }
      ],
      "BaseMetadataURIsNotSet(address)": [
        {
          "params": {
            "tokenContract": "The token contract on which the base metadata URIs are not set."
          }
        }
      ],
      "EmptyBaseMetadataURIs(address,string,string)": [
        {
          "params": {
            "postRevealBaseMetadataURI": "The post-reveal base metadata URI.",
            "preRevealBaseMetadataURI": "The pre-reveal base metadata URI.",
            "tokenContract": "The token contract on which the base metadata URIs are set."
          }
        }
      ],
      "NotTargetContractOwner(address,address)": [
        {
          "params": {
            "account": "The account that was checked.",
            "targetContract": "The contract that was checked."
          }
        }
      ],
      "TokensAlreadyRevealed(address)": [
        {
          "params": {
            "tokenContract": "The token contract which is already revealed."
          }
        }
      ]
    },
    "events": {
      "BaseMetadataURIsSet(address,string,string)": {
        "params": {
          "postRevealBaseMetadataURI": "The post-reveal base metadata URI.",
          "preRevealBaseMetadataURI": "The pre-reveal base metadata URI.",
          "tokenContract": "The token contract on which the base metadata URI was set."
        }
      },
      "TokensRevealed(address)": {
        "params": {
          "tokenContract": "The token contract on which the tokens are revealed."
        }
      }
    },
    "kind": "dev",
    "methods": {
      "revealTokens(address)": {
        "details": "Reverts with {NotTargetContractOwner} if the sender is not the owner of the token contract.Reverts with {BaseMetadataURIsNotSet} if the URIs have not been set yet.Reverts with {TokensAlreadyRevealed} if this function has already been called before.",
        "params": {
          "tokenContract": "The token contract on which to set the base metadata URI."
        }
      },
      "setBaseMetadataURIs(address,string,string)": {
        "details": "Note: This function shouldReverts with {EmptyBaseMetadataURIs} if one of the URIs is empty.Reverts with {NotTargetContractOwner} if the sender is not the owner of the token contract.Reverts with {BaseMetadataURIsAlreadySet} if the URIs have been previously set.Emits a {BaseMetadataURIsSet} event.",
        "params": {
          "postRevealBaseURI": "The post-reveal base metadata URI.",
          "preRevealBaseURI": "The pre-reveal base metadata URI.",
          "tokenContract": "The token contract on which to set the base metadata URI."
        }
      },
      "tokenMetadataURI(address,uint256)": {
        "params": {
          "tokenContract": "The token contract for which to retrieve the token URI.",
          "tokenId": "The token identifier."
        },
        "returns": {
          "tokenURI": "The token metadata URI as the concatenation of the base metadata URI and the token identifier."
        }
      }
    },
    "title": "TokenMetadataResolverTwoStepsReveal.",
    "version": 1
  },
  "userdoc": {
    "errors": {
      "BaseMetadataURIsAlreadySet(address)": [
        {
          "notice": "Thrown when trying to set the base metadata URIs but they are already set."
        }
      ],
      "BaseMetadataURIsNotSet(address)": [
        {
          "notice": "Thrown when trying to reveal tokens but the base metadata URIs are not set."
        }
      ],
      "EmptyBaseMetadataURIs(address,string,string)": [
        {
          "notice": "Thrown when trying to set the base metadata URIs but one of them is empty."
        }
      ],
      "NotTargetContractOwner(address,address)": [
        {
          "notice": "Thrown when an account is not the target contract owner but is required to."
        }
      ],
      "TokensAlreadyRevealed(address)": [
        {
          "notice": "Emitted when trying to reveal a token which is already revealed."
        }
      ]
    },
    "events": {
      "BaseMetadataURIsSet(address,string,string)": {
        "notice": "Emitted when the base metadata URI is set."
      },
      "TokensRevealed(address)": {
        "notice": "Emitted when the tokens are revealed."
      }
    },
    "kind": "user",
    "methods": {
      "revealTokens(address)": {
        "notice": "Switches the base metadata URI to the post-reveal URI."
      },
      "setBaseMetadataURIs(address,string,string)": {
        "notice": "Sets the base metadata URIs for both pre-reveal and post-reveal."
      },
      "tokenMetadataURI(address,uint256)": {
        "notice": "Gets the token metadata URI for a token as the concatenation of the base metadata URI and the token identifier."
      }
    },
    "notice": "Token Metadata Resolver which uses two base metadata URIs, one for pre-reveal and one for post-reveal.At reveal phase, the base metadat URI will be switched from pre-reveal to post-reveal.Only the owner of the target token contract can set the base metadata URI for this target contract.",
    "version": 1
  },
  "storageLayout": {
    "storage": [
      {
        "astId": 26740,
        "contract": "contracts/token/metadata/TokenMetadataResolverTwoStepsReveal.sol:TokenMetadataResolverTwoStepsReveal",
        "label": "isTokenRevealed",
        "offset": 0,
        "slot": "0",
        "type": "t_mapping(t_address,t_bool)"
      },
      {
        "astId": 26744,
        "contract": "contracts/token/metadata/TokenMetadataResolverTwoStepsReveal.sol:TokenMetadataResolverTwoStepsReveal",
        "label": "preRevealBaseMetadataURI",
        "offset": 0,
        "slot": "1",
        "type": "t_mapping(t_address,t_string_storage)"
      },
      {
        "astId": 26748,
        "contract": "contracts/token/metadata/TokenMetadataResolverTwoStepsReveal.sol:TokenMetadataResolverTwoStepsReveal",
        "label": "postRevealBaseMetadataURI",
        "offset": 0,
        "slot": "2",
        "type": "t_mapping(t_address,t_string_storage)"
      }
    ],
    "types": {
      "t_address": {
        "encoding": "inplace",
        "label": "address",
        "numberOfBytes": "20"
      },
      "t_bool": {
        "encoding": "inplace",
        "label": "bool",
        "numberOfBytes": "1"
      },
      "t_mapping(t_address,t_bool)": {
        "encoding": "mapping",
        "key": "t_address",
        "label": "mapping(address => bool)",
        "numberOfBytes": "32",
        "value": "t_bool"
      },
      "t_mapping(t_address,t_string_storage)": {
        "encoding": "mapping",
        "key": "t_address",
        "label": "mapping(address => string)",
        "numberOfBytes": "32",
        "value": "t_string_storage"
      },
      "t_string_storage": {
        "encoding": "bytes",
        "label": "string",
        "numberOfBytes": "32"
      }
    }
  }
}