{
  "address": "0xf01fbf6aff9C9A9D393a2991e0645F7C98Ac016F",
  "abi": [
    {
      "inputs": [
        {
          "internalType": "contract IForwarderRegistry",
          "name": "forwarderRegistry",
          "type": "address"
        }
      ],
      "stateMutability": "nonpayable",
      "type": "constructor"
    },
    {
      "inputs": [
        {
          "internalType": "address[]",
          "name": "accounts",
          "type": "address[]"
        },
        {
          "internalType": "contract IERC20[]",
          "name": "tokens",
          "type": "address[]"
        },
        {
          "internalType": "uint256[]",
          "name": "amounts",
          "type": "uint256[]"
        }
      ],
      "name": "recoverERC20s",
      "outputs": [],
      "stateMutability": "nonpayable",
      "type": "function"
    },
    {
      "inputs": [
        {
          "internalType": "address[]",
          "name": "accounts",
          "type": "address[]"
        },
        {
          "internalType": "contract IERC721[]",
          "name": "contracts",
          "type": "address[]"
        },
        {
          "internalType": "uint256[]",
          "name": "tokenIds",
          "type": "uint256[]"
        }
      ],
      "name": "recoverERC721s",
      "outputs": [],
      "stateMutability": "nonpayable",
      "type": "function"
    },
    {
      "inputs": [
        {
          "internalType": "address payable[]",
          "name": "accounts",
          "type": "address[]"
        },
        {
          "internalType": "uint256[]",
          "name": "amounts",
          "type": "uint256[]"
        }
      ],
      "name": "recoverETH",
      "outputs": [],
      "stateMutability": "nonpayable",
      "type": "function"
    }
  ],
  "transactionHash": "0x4996045f0bc41eca299bb024d5d9472a9481520736bcf98afa86e5616565e30e",
  "args": [
    "0x3f547F87251710F70109Ae0409d461b270709693"
  ],
  "numDeployments": 1,
  "solcInputHash": "a6ab94751dde68b4d6125ac6f179d1ce",
  "bytecode": "0x60a060405234801561001057600080fd5b50604051610ee1380380610ee183398101604081905261002f91610040565b6001600160a01b0316608052610070565b60006020828403121561005257600080fd5b81516001600160a01b038116811461006957600080fd5b9392505050565b608051610e4f6100926000396000818161074301526107cb0152610e4f6000f3fe608060405234801561001057600080fd5b50600436106100415760003560e01c806373c8a95814610046578063c3666c361461005b578063f7ba94bd1461006e575b600080fd5b610059610054366004610bae565b610081565b005b610059610069366004610bae565b6101b7565b61005961007c366004610c48565b61035c565b61009a61008c61044a565b610094610459565b9061048d565b8483811480156100a957508082145b610114576040517f08c379a000000000000000000000000000000000000000000000000000000000815260206004820152601d60248201527f5265636f766572793a20696e636f6e73697374656e742061727261797300000060448201526064015b60405180910390fd5b60005b8181146101ad576101a588888381811061013357610133610cb4565b90506020020160208101906101489190610d08565b85858481811061015a5761015a610cb4565b9050602002013588888581811061017357610173610cb4565b90506020020160208101906101889190610d08565b73ffffffffffffffffffffffffffffffffffffffff169190610514565b600101610117565b5050505050505050565b6101c261008c61044a565b8483811480156101d157508082145b610237576040517f08c379a000000000000000000000000000000000000000000000000000000000815260206004820152601d60248201527f5265636f766572793a20696e636f6e73697374656e7420617272617973000000604482015260640161010b565b60005b8181146101ad5785858281811061025357610253610cb4565b90506020020160208101906102689190610d08565b73ffffffffffffffffffffffffffffffffffffffff166323b872dd308a8a8581811061029657610296610cb4565b90506020020160208101906102ab9190610d08565b8787868181106102bd576102bd610cb4565b6040517fffffffff0000000000000000000000000000000000000000000000000000000060e088901b16815273ffffffffffffffffffffffffffffffffffffffff958616600482015294909316602485015250602090910201356044820152606401600060405180830381600087803b15801561033957600080fd5b505af115801561034d573d6000803e3d6000fd5b5050505080600101905061023a565b61036761008c61044a565b828181146103d1576040517f08c379a000000000000000000000000000000000000000000000000000000000815260206004820152601d60248201527f5265636f766572793a20696e636f6e73697374656e7420617272617973000000604482015260640161010b565b60005b8181146104425761043a8484838181106103f0576103f0610cb4565b9050602002013587878481811061040957610409610cb4565b905060200201602081019061041e9190610d08565b73ffffffffffffffffffffffffffffffffffffffff16906105a6565b6001016103d4565b505050505050565b6000610454610700565b905090565b60008061048760017fc9ed16f33ab3a66c84bfd83099ccb2a8845871e2e1c1928f63797152f0fd54cd610d2c565b92915050565b815473ffffffffffffffffffffffffffffffffffffffff828116911614610510576040517f08c379a000000000000000000000000000000000000000000000000000000000815260206004820152601860248201527f4f776e6572736869703a206e6f7420746865206f776e65720000000000000000604482015260640161010b565b5050565b6040805173ffffffffffffffffffffffffffffffffffffffff8416602482015260448082018490528251808303909101815260649091019091526020810180517bffffffffffffffffffffffffffffffffffffffffffffffffffffffff167fa9059cbb000000000000000000000000000000000000000000000000000000001790526105a1908490610847565b505050565b80471015610610576040517f08c379a000000000000000000000000000000000000000000000000000000000815260206004820152601d60248201527f416464726573733a20696e73756666696369656e742062616c616e6365000000604482015260640161010b565b60008273ffffffffffffffffffffffffffffffffffffffff168260405160006040518083038185875af1925050503d806000811461066a576040519150601f19603f3d011682016040523d82523d6000602084013e61066f565b606091505b50509050806105a1576040517f08c379a000000000000000000000000000000000000000000000000000000000815260206004820152603a60248201527f416464726573733a20756e61626c6520746f2073656e642076616c75652c207260448201527f6563697069656e74206d61792068617665207265766572746564000000000000606482015260840161010b565b6000333214806107105750601836105b1561071a57503390565b7fffffffffffffffffffffffffffffffffffffffffffffffffffffffffffffffec36013560601c7f000000000000000000000000000000000000000000000000000000000000000073ffffffffffffffffffffffffffffffffffffffff1633148061083657506040517f8929a8ca00000000000000000000000000000000000000000000000000000000815273ffffffffffffffffffffffffffffffffffffffff82811660048301523360248301527f00000000000000000000000000000000000000000000000000000000000000001690638929a8ca90604401602060405180830381865afa158015610812573d6000803e3d6000fd5b505050506040513d601f19601f820116820180604052508101906108369190610d66565b1561084057919050565b3391505090565b60006108a9826040518060400160405280602081526020017f5361666545524332303a206c6f772d6c6576656c2063616c6c206661696c65648152508573ffffffffffffffffffffffffffffffffffffffff166109539092919063ffffffff16565b8051909150156105a157808060200190518101906108c79190610d66565b6105a1576040517f08c379a000000000000000000000000000000000000000000000000000000000815260206004820152602a60248201527f5361666545524332303a204552433230206f7065726174696f6e20646964206e60448201527f6f74207375636365656400000000000000000000000000000000000000000000606482015260840161010b565b6060610962848460008561096a565b949350505050565b6060824710156109fc576040517f08c379a000000000000000000000000000000000000000000000000000000000815260206004820152602660248201527f416464726573733a20696e73756666696369656e742062616c616e636520666f60448201527f722063616c6c0000000000000000000000000000000000000000000000000000606482015260840161010b565b6000808673ffffffffffffffffffffffffffffffffffffffff168587604051610a259190610dac565b60006040518083038185875af1925050503d8060008114610a62576040519150601f19603f3d011682016040523d82523d6000602084013e610a67565b606091505b5091509150610a7887838387610a83565b979650505050505050565b60608315610b19578251600003610b125773ffffffffffffffffffffffffffffffffffffffff85163b610b12576040517f08c379a000000000000000000000000000000000000000000000000000000000815260206004820152601d60248201527f416464726573733a2063616c6c20746f206e6f6e2d636f6e7472616374000000604482015260640161010b565b5081610962565b6109628383815115610b2e5781518083602001fd5b806040517f08c379a000000000000000000000000000000000000000000000000000000000815260040161010b9190610dc8565b60008083601f840112610b7457600080fd5b50813567ffffffffffffffff811115610b8c57600080fd5b6020830191508360208260051b8501011115610ba757600080fd5b9250929050565b60008060008060008060608789031215610bc757600080fd5b863567ffffffffffffffff80821115610bdf57600080fd5b610beb8a838b01610b62565b90985096506020890135915080821115610c0457600080fd5b610c108a838b01610b62565b90965094506040890135915080821115610c2957600080fd5b50610c3689828a01610b62565b979a9699509497509295939492505050565b60008060008060408587031215610c5e57600080fd5b843567ffffffffffffffff80821115610c7657600080fd5b610c8288838901610b62565b90965094506020870135915080821115610c9b57600080fd5b50610ca887828801610b62565b95989497509550505050565b7f4e487b7100000000000000000000000000000000000000000000000000000000600052603260045260246000fd5b73ffffffffffffffffffffffffffffffffffffffff81168114610d0557600080fd5b50565b600060208284031215610d1a57600080fd5b8135610d2581610ce3565b9392505050565b81810381811115610487577f4e487b7100000000000000000000000000000000000000000000000000000000600052601160045260246000fd5b600060208284031215610d7857600080fd5b81518015158114610d2557600080fd5b60005b83811015610da3578181015183820152602001610d8b565b50506000910152565b60008251610dbe818460208701610d88565b9190910192915050565b6020815260008251806020840152610de7816040850160208701610d88565b601f017fffffffffffffffffffffffffffffffffffffffffffffffffffffffffffffffe016919091016040019291505056fea264697066735822122080ce4f20b123158b82fffd2e120f742f023422b51eca00d0da32a8053fdef3e464736f6c63430008110033",
  "devdoc": {
    "details": "This contract is to be used as a diamond facet (see ERC2535 Diamond Standard https://eips.ethereum.org/EIPS/eip-2535).Note: This facet depends on {ContractOwnershipFacet}.",
    "kind": "dev",
    "methods": {
      "recoverERC20s(address[],address[],uint256[])": {
        "details": "Warning: this function should be overriden for contracts which are supposed to hold ERC20 tokens  so that the extraction is limited to only amounts sent accidentally.Reverts if the sender is not the contract owner.Reverts if `accounts`, `tokens` and `amounts` do not have the same length.Reverts if one of the ERC20 transfers fails for any reason.",
        "params": {
          "accounts": "the list of accounts to transfer the tokens to.",
          "amounts": "the list of token amounts to transfer.",
          "tokens": "the list of ERC20 token addresses."
        }
      },
      "recoverERC721s(address[],address[],uint256[])": {
        "details": "Warning: this function should be overriden for contracts which are supposed to hold ERC721 tokens  so that the extraction is limited to only tokens sent accidentally.Reverts if the sender is not the contract owner.Reverts if `accounts`, `contracts` and `amounts` do not have the same length.Reverts if one of the ERC721 transfers fails for any reason.",
        "params": {
          "accounts": "the list of accounts to transfer the tokens to.",
          "contracts": "the list of ERC721 contract addresses.",
          "tokenIds": "the list of token ids to transfer."
        }
      },
      "recoverETH(address[],uint256[])": {
        "details": "Note: While contracts can generally prevent accidental ETH transfer by implementating a reverting  `receive()` function, this can still be bypassed in a `selfdestruct(address)` scenario.Warning: this function should be overriden for contracts which are supposed to hold ETH tokens  so that the extraction is limited to only amounts sent accidentally.Reverts if the sender is not the contract owner.Reverts if `accounts` and `amounts` do not have the same length.Reverts if one of the ETH transfers fails for any reason.",
        "params": {
          "accounts": "the list of accounts to transfer the tokens to.",
          "amounts": "the list of token amounts to transfer."
        }
      }
    },
    "title": "Recovery mechanism for ETH/ERC20/ERC721 tokens accidentally sent to this contract (facet version).",
    "version": 1
  },
  "userdoc": {
    "kind": "user",
    "methods": {
      "recoverERC20s(address[],address[],uint256[])": {
        "notice": "Extract ERC20 tokens which were accidentally sent to the contract to a list of accounts."
      },
      "recoverERC721s(address[],address[],uint256[])": {
        "notice": "Extract ERC721 tokens which were accidentally sent to the contract to a list of accounts."
      },
      "recoverETH(address[],uint256[])": {
        "notice": "Extract ETH tokens which were accidentally sent to the contract to a list of accounts."
      }
    },
    "version": 1
  },
  "storageLayout": {
    "storage": [],
    "types": null
  }
}