{
  "address": "0xD728b9a7cE7fb4E20449885E0B7D47aF4C13f94D",
  "abi": [
    {
      "inputs": [
        {
          "internalType": "contract IForwarderRegistry",
          "name": "forwarderRegistry",
          "type": "address"
        }
      ],
      "stateMutability": "nonpayable",
      "type": "constructor"
    },
    {
      "inputs": [],
      "name": "ERC1155BalanceOfAddressZero",
      "type": "error"
    },
    {
      "inputs": [
        {
          "internalType": "address",
          "name": "recipient",
          "type": "address"
        },
        {
          "internalType": "uint256",
          "name": "id",
          "type": "uint256"
        },
        {
          "internalType": "uint256",
          "name": "balance",
          "type": "uint256"
        },
        {
          "internalType": "uint256",
          "name": "value",
          "type": "uint256"
        }
      ],
      "name": "ERC1155BalanceOverflow",
      "type": "error"
    },
    {
      "inputs": [
        {
          "internalType": "address",
          "name": "owner",
          "type": "address"
        },
        {
          "internalType": "uint256",
          "name": "id",
          "type": "uint256"
        },
        {
          "internalType": "uint256",
          "name": "balance",
          "type": "uint256"
        },
        {
          "internalType": "uint256",
          "name": "value",
          "type": "uint256"
        }
      ],
      "name": "ERC1155InsufficientBalance",
      "type": "error"
    },
    {
      "inputs": [
        {
          "internalType": "address",
          "name": "sender",
          "type": "address"
        },
        {
          "internalType": "address",
          "name": "owner",
          "type": "address"
        }
      ],
      "name": "ERC1155NonApproved",
      "type": "error"
    },
    {
      "inputs": [
        {
          "internalType": "address",
          "name": "recipient",
          "type": "address"
        },
        {
          "internalType": "uint256[]",
          "name": "ids",
          "type": "uint256[]"
        },
        {
          "internalType": "uint256[]",
          "name": "values",
          "type": "uint256[]"
        }
      ],
      "name": "ERC1155SafeBatchTransferRejected",
      "type": "error"
    },
    {
      "inputs": [
        {
          "internalType": "address",
          "name": "recipient",
          "type": "address"
        },
        {
          "internalType": "uint256",
          "name": "id",
          "type": "uint256"
        },
        {
          "internalType": "uint256",
          "name": "value",
          "type": "uint256"
        }
      ],
      "name": "ERC1155SafeTransferRejected",
      "type": "error"
    },
    {
      "inputs": [
        {
          "internalType": "address",
          "name": "account",
          "type": "address"
        }
      ],
      "name": "ERC1155SelfApprovalForAll",
      "type": "error"
    },
    {
      "inputs": [],
      "name": "ERC1155TransferToAddressZero",
      "type": "error"
    },
    {
      "inputs": [],
      "name": "IllegalInterfaceId",
      "type": "error"
    },
    {
      "inputs": [],
      "name": "InconsistentArrayLengths",
      "type": "error"
    },
    {
      "inputs": [
        {
          "internalType": "address",
          "name": "account",
          "type": "address"
        }
      ],
      "name": "NotProxyAdmin",
      "type": "error"
    },
    {
      "inputs": [
        {
          "internalType": "address",
          "name": "operator",
          "type": "address"
        }
      ],
      "name": "OperatorNotAllowed",
      "type": "error"
    },
    {
      "anonymous": false,
      "inputs": [
        {
          "indexed": true,
          "internalType": "address",
          "name": "owner",
          "type": "address"
        },
        {
          "indexed": true,
          "internalType": "address",
          "name": "operator",
          "type": "address"
        },
        {
          "indexed": false,
          "internalType": "bool",
          "name": "approved",
          "type": "bool"
        }
      ],
      "name": "ApprovalForAll",
      "type": "event"
    },
    {
      "anonymous": false,
      "inputs": [
        {
          "indexed": true,
          "internalType": "address",
          "name": "operator",
          "type": "address"
        },
        {
          "indexed": true,
          "internalType": "address",
          "name": "from",
          "type": "address"
        },
        {
          "indexed": true,
          "internalType": "address",
          "name": "to",
          "type": "address"
        },
        {
          "indexed": false,
          "internalType": "uint256[]",
          "name": "ids",
          "type": "uint256[]"
        },
        {
          "indexed": false,
          "internalType": "uint256[]",
          "name": "values",
          "type": "uint256[]"
        }
      ],
      "name": "TransferBatch",
      "type": "event"
    },
    {
      "anonymous": false,
      "inputs": [
        {
          "indexed": true,
          "internalType": "address",
          "name": "operator",
          "type": "address"
        },
        {
          "indexed": true,
          "internalType": "address",
          "name": "from",
          "type": "address"
        },
        {
          "indexed": true,
          "internalType": "address",
          "name": "to",
          "type": "address"
        },
        {
          "indexed": false,
          "internalType": "uint256",
          "name": "id",
          "type": "uint256"
        },
        {
          "indexed": false,
          "internalType": "uint256",
          "name": "value",
          "type": "uint256"
        }
      ],
      "name": "TransferSingle",
      "type": "event"
    },
    {
      "inputs": [
        {
          "internalType": "address",
          "name": "owner",
          "type": "address"
        },
        {
          "internalType": "uint256",
          "name": "id",
          "type": "uint256"
        }
      ],
      "name": "balanceOf",
      "outputs": [
        {
          "internalType": "uint256",
          "name": "balance",
          "type": "uint256"
        }
      ],
      "stateMutability": "view",
      "type": "function"
    },
    {
      "inputs": [
        {
          "internalType": "address[]",
          "name": "owners",
          "type": "address[]"
        },
        {
          "internalType": "uint256[]",
          "name": "ids",
          "type": "uint256[]"
        }
      ],
      "name": "balanceOfBatch",
      "outputs": [
        {
          "internalType": "uint256[]",
          "name": "balances",
          "type": "uint256[]"
        }
      ],
      "stateMutability": "view",
      "type": "function"
    },
    {
      "inputs": [],
      "name": "initERC1155Storage",
      "outputs": [],
      "stateMutability": "nonpayable",
      "type": "function"
    },
    {
      "inputs": [
        {
          "internalType": "address",
          "name": "owner",
          "type": "address"
        },
        {
          "internalType": "address",
          "name": "operator",
          "type": "address"
        }
      ],
      "name": "isApprovedForAll",
      "outputs": [
        {
          "internalType": "bool",
          "name": "approvedForAll",
          "type": "bool"
        }
      ],
      "stateMutability": "view",
      "type": "function"
    },
    {
      "inputs": [
        {
          "internalType": "address",
          "name": "from",
          "type": "address"
        },
        {
          "internalType": "address",
          "name": "to",
          "type": "address"
        },
        {
          "internalType": "uint256[]",
          "name": "ids",
          "type": "uint256[]"
        },
        {
          "internalType": "uint256[]",
          "name": "values",
          "type": "uint256[]"
        },
        {
          "internalType": "bytes",
          "name": "data",
          "type": "bytes"
        }
      ],
      "name": "safeBatchTransferFrom",
      "outputs": [],
      "stateMutability": "nonpayable",
      "type": "function"
    },
    {
      "inputs": [
        {
          "internalType": "address",
          "name": "from",
          "type": "address"
        },
        {
          "internalType": "address",
          "name": "to",
          "type": "address"
        },
        {
          "internalType": "uint256",
          "name": "id",
          "type": "uint256"
        },
        {
          "internalType": "uint256",
          "name": "value",
          "type": "uint256"
        },
        {
          "internalType": "bytes",
          "name": "data",
          "type": "bytes"
        }
      ],
      "name": "safeTransferFrom",
      "outputs": [],
      "stateMutability": "nonpayable",
      "type": "function"
    },
    {
      "inputs": [
        {
          "internalType": "address",
          "name": "operator",
          "type": "address"
        },
        {
          "internalType": "bool",
          "name": "approved",
          "type": "bool"
        }
      ],
      "name": "setApprovalForAll",
      "outputs": [],
      "stateMutability": "nonpayable",
      "type": "function"
    }
  ],
  "transactionHash": "0x153888fd37f444258f0d85fc38094ee7672ff1c09753860bb027411f03408e88",
  "args": [
    "0x316a472D084489CB6d4C66e5eB62aE3AdA17521e"
  ],
  "numDeployments": 1,
  "solcInputHash": "84bab0eb3356c2e3bedca0f2f5a163c5",
  "bytecode": "0x60a0604052348015600f57600080fd5b50604051611a0f380380611a0f833981016040819052602c91603c565b6001600160a01b0316608052606a565b600060208284031215604d57600080fd5b81516001600160a01b0381168114606357600080fd5b9392505050565b60805161198361008c60003960008181610b540152610be201526119836000f3fe608060405234801561001057600080fd5b506004361061007c5760003560e01c8063a22cb4651161005b578063a22cb465146100dc578063c34106c8146100ef578063e985e9c5146100f7578063f242432a1461011a57600080fd5b8062fdd58e146100815780632eb2c2d6146100a75780634e1273f4146100bc575b600080fd5b61009461008f366004611302565b61012d565b6040519081526020015b60405180910390f35b6100ba6100b53660046113ba565b61014c565b005b6100cf6100ca366004611481565b610199565b60405161009e919061152e565b6100ba6100ea366004611552565b6101bc565b6100ba6101f5565b61010a610105366004611589565b610218565b604051901515815260200161009e565b6100ba6101283660046115bc565b610266565b6000610143838361013c6102a6565b91906102d4565b90505b92915050565b6000610156610358565b905061016c818a610165610367565b9190610395565b61018e818a8a8a8a8a8a8a8a6101806102a6565b9897969594939291906103d7565b505050505050505050565b60606101b3858585856101aa6102a6565b93929190610665565b95945050505050565b80156101d4576101d4826101ce610367565b90610774565b6101f16101df610358565b83836101e96102a6565b92919061077e565b5050565b61020e610200610358565b610208610896565b906108c4565b61021661092f565b565b600061014383836102276102a6565b919073ffffffffffffffffffffffffffffffffffffffff9182166000908152600193909301602090815260408085209290931684525290205460ff1690565b6000610270610358565b905061027f8188610165610367565b61029d818888888888886102916102a6565b96959493929190610964565b50505050505050565b60008061014660017f5ccf5846fa27a68fafc8e588671a68f5e67c2f9b56af4263806a4d71735e8613611634565b600073ffffffffffffffffffffffffffffffffffffffff8316610323576040517fca2434a500000000000000000000000000000000000000000000000000000000815260040160405180910390fd5b5060009081526020928352604080822073ffffffffffffffffffffffffffffffffffffffff9390931682529190925290205490565b6000610362610b11565b905090565b60008061014660017f609b85bcafa81ecfaf3ff62cdde2c6c9082a68dbe4922f07399c706bdeb7cd31611634565b8073ffffffffffffffffffffffffffffffffffffffff168273ffffffffffffffffffffffffffffffffffffffff16146103d2576103d28383610c5e565b505050565b73ffffffffffffffffffffffffffffffffffffffff8716610424576040517fb5e8901500000000000000000000000000000000000000000000000000000000815260040160405180910390fd5b8483811461045e576040517f6582533600000000000000000000000000000000000000000000000000000000815260040160405180910390fd5b6104698b8a8c610d85565b6104c4576040517f05bbb9c400000000000000000000000000000000000000000000000000000000815273ffffffffffffffffffffffffffffffffffffffff808c1660048301528a1660248201526044015b60405180910390fd5b60005b818110156105145761050c8c8b8b8b8b868181106104e7576104e761166e565b905060200201358a8a878181106105005761050061166e565b90506020020135610dfd565b6001016104c7565b508773ffffffffffffffffffffffffffffffffffffffff168973ffffffffffffffffffffffffffffffffffffffff168b73ffffffffffffffffffffffffffffffffffffffff167f4a39dc06d4c0dbc64b70af90fd698a233a518aa5d07e595d983b8c0526c8f7fb8a8a8a8a60405161058f94939291906116e8565b60405180910390a473ffffffffffffffffffffffffffffffffffffffff88163b15610658576106588a8a8a8a8a8080602002602001604051908101604052809392919081815260200183836020028082843760009201919091525050604080516020808e0282810182019093528d82529093508d92508c91829185019084908082843760009201919091525050604080516020601f8d018190048102820181019092528b815292508b91508a9081908401838280828437600092019190915250610fab92505050565b5050505050505050505050565b6060838281146106a1576040517f6582533600000000000000000000000000000000000000000000000000000000815260040160405180910390fd5b8467ffffffffffffffff8111156106ba576106ba61171a565b6040519080825280602002602001820160405280156106e3578160200160208202803683370190505b50915060005b81811015610769576107448787838181106107065761070661166e565b905060200201602081019061071b9190611749565b86868481811061072d5761072d61166e565b905060200201358a6102d49092919063ffffffff16565b8382815181106107565761075661166e565b60209081029190910101526001016106e9565b505095945050505050565b6101f18282610c5e565b8273ffffffffffffffffffffffffffffffffffffffff168273ffffffffffffffffffffffffffffffffffffffff16036107fb576040517ffb0fdf6100000000000000000000000000000000000000000000000000000000815273ffffffffffffffffffffffffffffffffffffffff841660048201526024016104bb565b73ffffffffffffffffffffffffffffffffffffffff838116600081815260018701602090815260408083209487168084529482529182902080547fffffffffffffffffffffffffffffffffffffffffffffffffffffffffffffff001686151590811790915591519182527f17307eab39ab6107e8899845ad3d59bd9653f200f220920489ca2b5937696c31910160405180910390a350505050565b60008061014660017fb53127684a568b3173ae13b9f8a6016e243e63b6e8ee1178d6a717850b5d6104611634565b815473ffffffffffffffffffffffffffffffffffffffff8281169116146101f1576040517f673a31a100000000000000000000000000000000000000000000000000000000815273ffffffffffffffffffffffffffffffffffffffff821660048201526024016104bb565b6102167fd9b67a2600000000000000000000000000000000000000000000000000000000600161095d6110b1565b91906110df565b73ffffffffffffffffffffffffffffffffffffffff85166109b1576040517fb5e8901500000000000000000000000000000000000000000000000000000000815260040160405180910390fd5b6109bc888789610d85565b610a12576040517f05bbb9c400000000000000000000000000000000000000000000000000000000815273ffffffffffffffffffffffffffffffffffffffff8089166004830152871660248201526044016104bb565b610a1f8887878787610dfd565b8473ffffffffffffffffffffffffffffffffffffffff168673ffffffffffffffffffffffffffffffffffffffff168873ffffffffffffffffffffffffffffffffffffffff167fc3d58168c5ae7397731d063d5bbf3d657854427343f4c083240f7aacaa2d0f628787604051610a9e929190918252602082015260400190565b60405180910390a473ffffffffffffffffffffffffffffffffffffffff85163b15610b0757610b07878787878787878080601f0160208091040260200160405190810160405280939291908181526020018383808284376000920191909152506111bb92505050565b5050505050505050565b600033321480610b215750601836105b15610b2b57503390565b7fffffffffffffffffffffffffffffffffffffffffffffffffffffffffffffffec36013560601c7f000000000000000000000000000000000000000000000000000000000000000073ffffffffffffffffffffffffffffffffffffffff16331480610c4d57506040517f019a202800000000000000000000000000000000000000000000000000000000815273ffffffffffffffffffffffffffffffffffffffff82811660048301523360248301523060448301527f0000000000000000000000000000000000000000000000000000000000000000169063019a202890606401602060405180830381865afa158015610c29573d6000803e3d6000fd5b505050506040513d601f19601f82011682018060405250810190610c4d9190611764565b15610c5757919050565b3391505090565b815473ffffffffffffffffffffffffffffffffffffffff168015801590610c9c575060008173ffffffffffffffffffffffffffffffffffffffff163b115b156103d2576040517fc617113400000000000000000000000000000000000000000000000000000000815230600482015273ffffffffffffffffffffffffffffffffffffffff838116602483015282169063c617113490604401602060405180830381865afa158015610d13573d6000803e3d6000fd5b505050506040513d601f19601f82011682018060405250810190610d379190611764565b6103d2576040517fede71dcc00000000000000000000000000000000000000000000000000000000815273ffffffffffffffffffffffffffffffffffffffff831660048201526024016104bb565b60008173ffffffffffffffffffffffffffffffffffffffff168373ffffffffffffffffffffffffffffffffffffffff161480610df5575073ffffffffffffffffffffffffffffffffffffffff808416600090815260018601602090815260408083209386168352929052205460ff165b949350505050565b8015610fa45760008281526020868152604080832073ffffffffffffffffffffffffffffffffffffffff88168452909152902054818103818110610e9a576040517f03dee4c500000000000000000000000000000000000000000000000000000000815273ffffffffffffffffffffffffffffffffffffffff871660048201526024810185905260448101839052606481018490526084016104bb565b8473ffffffffffffffffffffffffffffffffffffffff168673ffffffffffffffffffffffffffffffffffffffff161461029d5760008481526020888152604080832073ffffffffffffffffffffffffffffffffffffffff89168452909152902054838101818111610f64576040517f42fb00bc00000000000000000000000000000000000000000000000000000000815273ffffffffffffffffffffffffffffffffffffffff881660048201526024810187905260448101839052606481018690526084016104bb565b600086815260208a8152604080832073ffffffffffffffffffffffffffffffffffffffff808d1685528184528285208890558b1684529091529020555050505b5050505050565b6040517fbc197c81000000000000000000000000000000000000000000000000000000008082529073ffffffffffffffffffffffffffffffffffffffff86169063bc197c8190611007908a908a908990899089906004016117ec565b6020604051808303816000875af1158015611026573d6000803e3d6000fd5b505050506040513d601f19601f8201168201806040525081019061104a9190611869565b7fffffffff0000000000000000000000000000000000000000000000000000000016146110a9578383836040517fc287817e0000000000000000000000000000000000000000000000000000000081526004016104bb939291906118ab565b505050505050565b60008061014660017fca9d3e17f264b0f3984e2634e94adb37fa3e6a8103f06aeae6fa59e21c769f5e611634565b7c01000000000000000000000000000000000000000000000000000000007fffffffff00000000000000000000000000000000000000000000000000000000831601611157576040517f72c683bb00000000000000000000000000000000000000000000000000000000815260040160405180910390fd5b7fffffffff00000000000000000000000000000000000000000000000000000000919091166000908152602092909252604090912080547fffffffffffffffffffffffffffffffffffffffffffffffffffffffffffffff0016911515919091179055565b6040517ff23a6e61000000000000000000000000000000000000000000000000000000008082529073ffffffffffffffffffffffffffffffffffffffff86169063f23a6e6190611217908a908a908990899089906004016118f6565b6020604051808303816000875af1158015611236573d6000803e3d6000fd5b505050506040513d601f19601f8201168201806040525081019061125a9190611869565b7fffffffff0000000000000000000000000000000000000000000000000000000016146110a9576040517f40f39d3800000000000000000000000000000000000000000000000000000000815273ffffffffffffffffffffffffffffffffffffffff8516600482015260248101849052604481018390526064016104bb565b803573ffffffffffffffffffffffffffffffffffffffff811681146112fd57600080fd5b919050565b6000806040838503121561131557600080fd5b61131e836112d9565b946020939093013593505050565b60008083601f84011261133e57600080fd5b50813567ffffffffffffffff81111561135657600080fd5b6020830191508360208260051b850101111561137157600080fd5b9250929050565b60008083601f84011261138a57600080fd5b50813567ffffffffffffffff8111156113a257600080fd5b60208301915083602082850101111561137157600080fd5b60008060008060008060008060a0898b0312156113d657600080fd5b6113df896112d9565b97506113ed60208a016112d9565b9650604089013567ffffffffffffffff81111561140957600080fd5b6114158b828c0161132c565b909750955050606089013567ffffffffffffffff81111561143557600080fd5b6114418b828c0161132c565b909550935050608089013567ffffffffffffffff81111561146157600080fd5b61146d8b828c01611378565b999c989b5096995094979396929594505050565b6000806000806040858703121561149757600080fd5b843567ffffffffffffffff8111156114ae57600080fd5b6114ba8782880161132c565b909550935050602085013567ffffffffffffffff8111156114da57600080fd5b6114e68782880161132c565b95989497509550505050565b600081518084526020840193506020830160005b82811015611524578151865260209586019590910190600101611506565b5093949350505050565b60208152600061014360208301846114f2565b801515811461154f57600080fd5b50565b6000806040838503121561156557600080fd5b61156e836112d9565b9150602083013561157e81611541565b809150509250929050565b6000806040838503121561159c57600080fd5b6115a5836112d9565b91506115b3602084016112d9565b90509250929050565b60008060008060008060a087890312156115d557600080fd5b6115de876112d9565b95506115ec602088016112d9565b94506040870135935060608701359250608087013567ffffffffffffffff81111561161657600080fd5b61162289828a01611378565b979a9699509497509295939492505050565b81810381811115610146577f4e487b7100000000000000000000000000000000000000000000000000000000600052601160045260246000fd5b7f4e487b7100000000000000000000000000000000000000000000000000000000600052603260045260246000fd5b81835260007f07ffffffffffffffffffffffffffffffffffffffffffffffffffffffffffffff8311156116cf57600080fd5b8260051b80836020870137939093016020019392505050565b6040815260006116fc60408301868861169d565b828103602084015261170f81858761169d565b979650505050505050565b7f4e487b7100000000000000000000000000000000000000000000000000000000600052604160045260246000fd5b60006020828403121561175b57600080fd5b610143826112d9565b60006020828403121561177657600080fd5b815161178181611541565b9392505050565b6000815180845260005b818110156117ae57602081850181015186830182015201611792565b5060006020828601015260207fffffffffffffffffffffffffffffffffffffffffffffffffffffffffffffffe0601f83011685010191505092915050565b73ffffffffffffffffffffffffffffffffffffffff8616815273ffffffffffffffffffffffffffffffffffffffff8516602082015260a06040820152600061183760a08301866114f2565b828103606084015261184981866114f2565b9050828103608084015261185d8185611788565b98975050505050505050565b60006020828403121561187b57600080fd5b81517fffffffff000000000000000000000000000000000000000000000000000000008116811461178157600080fd5b73ffffffffffffffffffffffffffffffffffffffff841681526060602082015260006118da60608301856114f2565b82810360408401526118ec81856114f2565b9695505050505050565b73ffffffffffffffffffffffffffffffffffffffff8616815273ffffffffffffffffffffffffffffffffffffffff8516602082015283604082015282606082015260a06080820152600061170f60a083018461178856fea26469706673582212200aa2b4980d6d69cc6eb3baeb706dfd5481ab84195a39e61a510c78ac5583f76564736f6c634300081c0033",
  "devdoc": {
    "details": "This contract is to be used as a diamond facet (see ERC2535 Diamond Standard https://eips.ethereum.org/EIPS/eip-2535).Note: This facet depends on {ProxyAdminFacet}, {InterfaceDetectionFacet} and {OperatorFiltererFacet}.",
    "errors": {
      "ERC1155BalanceOverflow(address,uint256,uint256,uint256)": [
        {
          "params": {
            "balance": "The current balance.",
            "id": "The token identifier.",
            "recipient": "The recipient.",
            "value": "The amount of tokens to transfer."
          }
        }
      ],
      "ERC1155InsufficientBalance(address,uint256,uint256,uint256)": [
        {
          "params": {
            "balance": "The current balance.",
            "id": "The token identifier.",
            "owner": "The owner.",
            "value": "The amount of tokens to transfer."
          }
        }
      ],
      "ERC1155NonApproved(address,address)": [
        {
          "params": {
            "owner": "The owner.",
            "sender": "The sender."
          }
        }
      ],
      "ERC1155SafeBatchTransferRejected(address,uint256[],uint256[])": [
        {
          "params": {
            "ids": "The token identifiers.",
            "recipient": "The recipient contract.",
            "values": "The amounts of tokens to transfer."
          }
        }
      ],
      "ERC1155SafeTransferRejected(address,uint256,uint256)": [
        {
          "params": {
            "id": "The token identifier.",
            "recipient": "The recipient contract.",
            "value": "The amount of tokens to transfer."
          }
        }
      ],
      "ERC1155SelfApprovalForAll(address)": [
        {
          "params": {
            "account": "The account trying to approveForAll itself."
          }
        }
      ],
      "NotProxyAdmin(address)": [
        {
          "params": {
            "account": "The account that was checked."
          }
        }
      ],
      "OperatorNotAllowed(address)": [
        {
          "params": {
            "operator": "The address that is not authorized."
          }
        }
      ]
    },
    "events": {
      "ApprovalForAll(address,address,bool)": {
        "params": {
          "approved": "True when then approval is set, false when it is unset.",
          "operator": "The approved address.",
          "owner": "The tokens owner."
        }
      },
      "TransferBatch(address,address,address,uint256[],uint256[])": {
        "params": {
          "from": "The previous tokens owner.",
          "ids": "The transferred tokens identifiers.",
          "operator": "The initiator of the transfer.",
          "to": "The new tokens owner.",
          "values": "The amounts of tokens."
        }
      },
      "TransferSingle(address,address,address,uint256,uint256)": {
        "params": {
          "from": "The previous token owner.",
          "id": "The transferred token identifier.",
          "operator": "The initiator of the transfer.",
          "to": "The new token owner.",
          "value": "The amount of token."
        }
      }
    },
    "kind": "dev",
    "methods": {
      "balanceOf(address,uint256)": {
        "params": {
          "id": "The identifier to retrieve the balance of.",
          "owner": "The account to retrieve the balance of."
        },
        "returns": {
          "balance": "The balance of `id` owned by account `owner`."
        }
      },
      "balanceOfBatch(address[],uint256[])": {
        "details": "Reverts if `owners` and `ids` have different lengths.",
        "params": {
          "ids": "The identifiers to retrieve the balance of.",
          "owners": "The addresses of the token holders"
        },
        "returns": {
          "balances": "The balances of `ids` owned by accounts `owners`."
        }
      },
      "initERC1155Storage()": {
        "details": "Reverts with {NotProxyAdmin} if the sender is not the proxy admin."
      },
      "isApprovedForAll(address,address)": {
        "params": {
          "operator": "Address of the operator.",
          "owner": "Address of the authorisation giver."
        },
        "returns": {
          "approvedForAll": "True if the operator is approved, false if not."
        }
      },
      "safeBatchTransferFrom(address,address,uint256[],uint256[],bytes)": {
        "details": "Reverts with {OperatorNotAllowed} if the sender is not `from` and is not allowed by the operator registry.",
        "params": {
          "data": "Optional data to send along to a receiver contract.",
          "from": "Current tokens owner.",
          "ids": "Identifiers of the tokens to transfer.",
          "to": "Address of the new tokens owner.",
          "values": "Amounts of tokens to transfer."
        }
      },
      "safeTransferFrom(address,address,uint256,uint256,bytes)": {
        "details": "Reverts with {OperatorNotAllowed} if the sender is not `from` and is not allowed by the operator registry.",
        "params": {
          "data": "Optional data to send along to a receiver contract.",
          "from": "Current token owner.",
          "id": "Identifier of the token to transfer.",
          "to": "Address of the new token owner.",
          "value": "Amount of token to transfer."
        }
      },
      "setApprovalForAll(address,bool)": {
        "details": "Reverts with {OperatorNotAllowed} if `operator` is not allowed by the operator registry.",
        "params": {
          "approved": "True to approve the operator, false to revoke its approval.",
          "operator": "Address of the operator."
        }
      }
    },
    "title": "ERC1155 Multi Token Standard with Operator Filterer (facet version).",
    "version": 1
  },
  "userdoc": {
    "errors": {
      "ERC1155BalanceOfAddressZero()": [
        {
          "notice": "Thrown when querying the balance of the zero address."
        }
      ],
      "ERC1155BalanceOverflow(address,uint256,uint256,uint256)": [
        {
          "notice": "Thrown when minting or transferring an amount of tokens that would overflow the recipient's balance."
        }
      ],
      "ERC1155InsufficientBalance(address,uint256,uint256,uint256)": [
        {
          "notice": "Thrown when transferring an amount of tokens greater than the current balance."
        }
      ],
      "ERC1155NonApproved(address,address)": [
        {
          "notice": "Thrown when a sender tries to transfer tokens but is neither the owner nor approved by the owner."
        }
      ],
      "ERC1155SafeBatchTransferRejected(address,uint256[],uint256[])": [
        {
          "notice": "Thrown when a safe batch transfer is rejected by the recipient contract."
        }
      ],
      "ERC1155SafeTransferRejected(address,uint256,uint256)": [
        {
          "notice": "Thrown when a safe transfer is rejected by the recipient contract."
        }
      ],
      "ERC1155SelfApprovalForAll(address)": [
        {
          "notice": "Thrown when trying to approveForAll oneself."
        }
      ],
      "ERC1155TransferToAddressZero()": [
        {
          "notice": "Thrown when transferring tokens to the zero address."
        }
      ],
      "IllegalInterfaceId()": [
        {
          "notice": "Thrown when setting the illegal interfaceId 0xffffffff."
        }
      ],
      "InconsistentArrayLengths()": [
        {
          "notice": "Thrown when the multiple related arrays have different lengths."
        }
      ],
      "NotProxyAdmin(address)": [
        {
          "notice": "Thrown when an account is not the proxy admin but is required to."
        }
      ],
      "OperatorNotAllowed(address)": [
        {
          "notice": "Thrown when transferring to or giving approval to a non-authorized operator."
        }
      ]
    },
    "events": {
      "ApprovalForAll(address,address,bool)": {
        "notice": "Emitted when an approval for all tokens is set or unset."
      },
      "TransferBatch(address,address,address,uint256[],uint256[])": {
        "notice": "Emitted when a batch of tokens is transferred."
      },
      "TransferSingle(address,address,address,uint256,uint256)": {
        "notice": "Emitted when some token is transferred."
      }
    },
    "kind": "user",
    "methods": {
      "balanceOf(address,uint256)": {
        "notice": "Retrieves the balance of `id` owned by account `owner`."
      },
      "balanceOfBatch(address[],uint256[])": {
        "notice": "Retrieves the balances of `ids` owned by accounts `owners`."
      },
      "initERC1155Storage()": {
        "notice": "Marks the following ERC165 interfaces as supported: ERC1155."
      },
      "isApprovedForAll(address,address)": {
        "notice": "Retrieves the approval status of an operator for a given owner."
      },
      "safeBatchTransferFrom(address,address,uint256[],uint256[],bytes)": {
        "notice": "Safely transfers a batch of tokens."
      },
      "safeTransferFrom(address,address,uint256,uint256,bytes)": {
        "notice": "Safely transfers some token."
      },
      "setApprovalForAll(address,bool)": {
        "notice": "Enables or disables an operator's approval."
      }
    },
    "version": 1
  },
  "storageLayout": {
    "storage": [],
    "types": null
  }
}