{
  "address": "0x352b7f7f30B9e239991AB61329434d1DdDE8D7D7",
  "abi": [
    {
      "inputs": [
        {
          "internalType": "contract IForwarderRegistry",
          "name": "forwarderRegistry",
          "type": "address"
        }
      ],
      "stateMutability": "nonpayable",
      "type": "constructor"
    },
    {
      "inputs": [
        {
          "internalType": "address",
          "name": "owner",
          "type": "address"
        }
      ],
      "name": "ERC20ApprovalToAddressZero",
      "type": "error"
    },
    {
      "inputs": [
        {
          "internalType": "address",
          "name": "owner",
          "type": "address"
        },
        {
          "internalType": "address",
          "name": "spender",
          "type": "address"
        },
        {
          "internalType": "uint256",
          "name": "allowance",
          "type": "uint256"
        },
        {
          "internalType": "uint256",
          "name": "decrement",
          "type": "uint256"
        }
      ],
      "name": "ERC20InsufficientAllowance",
      "type": "error"
    },
    {
      "inputs": [
        {
          "internalType": "address",
          "name": "owner",
          "type": "address"
        },
        {
          "internalType": "uint256",
          "name": "balance",
          "type": "uint256"
        },
        {
          "internalType": "uint256",
          "name": "value",
          "type": "uint256"
        }
      ],
      "name": "ERC20InsufficientBalance",
      "type": "error"
    },
    {
      "inputs": [],
      "name": "IllegalInterfaceId",
      "type": "error"
    },
    {
      "inputs": [],
      "name": "InconsistentArrayLengths",
      "type": "error"
    },
    {
      "inputs": [
        {
          "internalType": "address",
          "name": "account",
          "type": "address"
        }
      ],
      "name": "NotProxyAdmin",
      "type": "error"
    },
    {
      "anonymous": false,
      "inputs": [
        {
          "indexed": true,
          "internalType": "address",
          "name": "owner",
          "type": "address"
        },
        {
          "indexed": true,
          "internalType": "address",
          "name": "spender",
          "type": "address"
        },
        {
          "indexed": false,
          "internalType": "uint256",
          "name": "value",
          "type": "uint256"
        }
      ],
      "name": "Approval",
      "type": "event"
    },
    {
      "anonymous": false,
      "inputs": [
        {
          "indexed": true,
          "internalType": "address",
          "name": "from",
          "type": "address"
        },
        {
          "indexed": true,
          "internalType": "address",
          "name": "to",
          "type": "address"
        },
        {
          "indexed": false,
          "internalType": "uint256",
          "name": "value",
          "type": "uint256"
        }
      ],
      "name": "Transfer",
      "type": "event"
    },
    {
      "inputs": [
        {
          "internalType": "address[]",
          "name": "owners",
          "type": "address[]"
        },
        {
          "internalType": "uint256[]",
          "name": "values",
          "type": "uint256[]"
        }
      ],
      "name": "batchBurnFrom",
      "outputs": [
        {
          "internalType": "bool",
          "name": "",
          "type": "bool"
        }
      ],
      "stateMutability": "nonpayable",
      "type": "function"
    },
    {
      "inputs": [
        {
          "internalType": "uint256",
          "name": "value",
          "type": "uint256"
        }
      ],
      "name": "burn",
      "outputs": [
        {
          "internalType": "bool",
          "name": "",
          "type": "bool"
        }
      ],
      "stateMutability": "nonpayable",
      "type": "function"
    },
    {
      "inputs": [
        {
          "internalType": "address",
          "name": "from",
          "type": "address"
        },
        {
          "internalType": "uint256",
          "name": "value",
          "type": "uint256"
        }
      ],
      "name": "burnFrom",
      "outputs": [
        {
          "internalType": "bool",
          "name": "",
          "type": "bool"
        }
      ],
      "stateMutability": "nonpayable",
      "type": "function"
    },
    {
      "inputs": [],
      "name": "initERC20BurnableStorage",
      "outputs": [],
      "stateMutability": "nonpayable",
      "type": "function"
    }
  ],
  "transactionHash": "0x42705ae20350b69aa89cb5438a0b7a4674412224bd7b3d8efef237850ecb6da9",
  "args": [
    "0x316a472D084489CB6d4C66e5eB62aE3AdA17521e"
  ],
  "numDeployments": 1,
  "solcInputHash": "84bab0eb3356c2e3bedca0f2f5a163c5",
  "bytecode": "0x60a0604052348015600f57600080fd5b50604051610c99380380610c99833981016040819052602c91603c565b6001600160a01b0316608052606a565b600060208284031215604d57600080fd5b81516001600160a01b0381168114606357600080fd5b9392505050565b608051610c0d61008c6000396000818161060d015261069b0152610c0d6000f3fe608060405234801561001057600080fd5b506004361061004c5760003560e01c80631b9a75291461005157806342966c6814610078578063751ec2d31461008b57806379cc679014610095575b600080fd5b61006461005f366004610a4d565b6100a8565b604051901515815260200160405180910390f35b610064610086366004610abe565b6100d6565b6100936100fb565b005b6100646100a3366004610b00565b61011e565b60006100cb6100b5610147565b868686866100c1610156565b9493929190610184565b506001949350505050565b60006100f36100e3610147565b836100ec610156565b9190610394565b506001919050565b610114610106610147565b61010e6104a8565b906104d6565b61011c610545565b565b600061013d61012b610147565b8484610135610156565b92919061057a565b5060015b92915050565b60006101516105ca565b905090565b60008061014160017f1da92899d3da68bf9787824388a37ea2bfa79780bcef91b9716c390eec8ecbef610b2a565b828181146101be576040517f6582533600000000000000000000000000000000000000000000000000000000815260040160405180910390fd5b806000036101cc575061038c565b6000805b828110156103765760008787838181106101ec576101ec610b64565b90506020020160208101906102019190610b93565b9050600086868481811061021757610217610b64565b9050602002013590508973ffffffffffffffffffffffffffffffffffffffff168273ffffffffffffffffffffffffffffffffffffffff161461025f5761025f8b838c84610717565b801561031e5773ffffffffffffffffffffffffffffffffffffffff8216600090815260208c905260409020548181038181106102f2576040517fe450d38c00000000000000000000000000000000000000000000000000000000815273ffffffffffffffffffffffffffffffffffffffff8516600482015260248101839052604481018490526064015b60405180910390fd5b73ffffffffffffffffffffffffffffffffffffffff8416600090815260208e9052604090205550928301925b60405181815260009073ffffffffffffffffffffffffffffffffffffffff8416907fddf252ad1be2c89b69c2b068fc378daa952ba7f163c4a11628f55a4df523b3ef9060200160405180910390a350506001016101d0565b5080156103895760028801805482900390555b50505b505050505050565b80156104555773ffffffffffffffffffffffffffffffffffffffff8216600090815260208490526040902054818103818110610422576040517fe450d38c00000000000000000000000000000000000000000000000000000000815273ffffffffffffffffffffffffffffffffffffffff8516600482015260248101839052604481018490526064016102e9565b73ffffffffffffffffffffffffffffffffffffffff84166000908152602086905260409020555060028301805482900390555b60405181815260009073ffffffffffffffffffffffffffffffffffffffff8416907fddf252ad1be2c89b69c2b068fc378daa952ba7f163c4a11628f55a4df523b3ef9060200160405180910390a3505050565b60008061014160017fb53127684a568b3173ae13b9f8a6016e243e63b6e8ee1178d6a717850b5d6104610b2a565b815473ffffffffffffffffffffffffffffffffffffffff828116911614610541576040517f673a31a100000000000000000000000000000000000000000000000000000000815273ffffffffffffffffffffffffffffffffffffffff821660048201526024016102e9565b5050565b61011c7f20c07ed10000000000000000000000000000000000000000000000000000000060016105736108f7565b9190610925565b8273ffffffffffffffffffffffffffffffffffffffff168273ffffffffffffffffffffffffffffffffffffffff16146105b9576105b984838584610717565b6105c4848383610394565b50505050565b6000333214806105da5750601836105b156105e457503390565b7fffffffffffffffffffffffffffffffffffffffffffffffffffffffffffffffec36013560601c7f000000000000000000000000000000000000000000000000000000000000000073ffffffffffffffffffffffffffffffffffffffff1633148061070657506040517f019a202800000000000000000000000000000000000000000000000000000000815273ffffffffffffffffffffffffffffffffffffffff82811660048301523360248301523060448301527f0000000000000000000000000000000000000000000000000000000000000000169063019a202890606401602060405180830381865afa1580156106e2573d6000803e3d6000fd5b505050506040513d601f19601f820116820180604052508101906107069190610bb5565b1561071057919050565b3391505090565b73ffffffffffffffffffffffffffffffffffffffff821661077c576040517ff7e1ac0f00000000000000000000000000000000000000000000000000000000815273ffffffffffffffffffffffffffffffffffffffff841660048201526024016102e9565b73ffffffffffffffffffffffffffffffffffffffff80841660009081526001860160209081526040808320938616835292905220547fffffffffffffffffffffffffffffffffffffffffffffffffffffffffffffffff81148015906107e057508115155b156108895781810381811061084f576040517f137ad6ab00000000000000000000000000000000000000000000000000000000815273ffffffffffffffffffffffffffffffffffffffff80871660048301528516602482015260448101839052606481018490526084016102e9565b73ffffffffffffffffffffffffffffffffffffffff8086166000908152600188016020908152604080832093881683529290522081905590505b8273ffffffffffffffffffffffffffffffffffffffff168473ffffffffffffffffffffffffffffffffffffffff167f8c5be1e5ebec7d5bd14f71427d1e84f3dd0314c0f7b2291e5b200ac8c7c3b925836040516108e891815260200190565b60405180910390a35050505050565b60008061014160017fca9d3e17f264b0f3984e2634e94adb37fa3e6a8103f06aeae6fa59e21c769f5e610b2a565b7c01000000000000000000000000000000000000000000000000000000007fffffffff0000000000000000000000000000000000000000000000000000000083160161099d576040517f72c683bb00000000000000000000000000000000000000000000000000000000815260040160405180910390fd5b7fffffffff00000000000000000000000000000000000000000000000000000000919091166000908152602092909252604090912080547fffffffffffffffffffffffffffffffffffffffffffffffffffffffffffffff0016911515919091179055565b60008083601f840112610a1357600080fd5b50813567ffffffffffffffff811115610a2b57600080fd5b6020830191508360208260051b8501011115610a4657600080fd5b9250929050565b60008060008060408587031215610a6357600080fd5b843567ffffffffffffffff811115610a7a57600080fd5b610a8687828801610a01565b909550935050602085013567ffffffffffffffff811115610aa657600080fd5b610ab287828801610a01565b95989497509550505050565b600060208284031215610ad057600080fd5b5035919050565b803573ffffffffffffffffffffffffffffffffffffffff81168114610afb57600080fd5b919050565b60008060408385031215610b1357600080fd5b610b1c83610ad7565b946020939093013593505050565b81810381811115610141577f4e487b7100000000000000000000000000000000000000000000000000000000600052601160045260246000fd5b7f4e487b7100000000000000000000000000000000000000000000000000000000600052603260045260246000fd5b600060208284031215610ba557600080fd5b610bae82610ad7565b9392505050565b600060208284031215610bc757600080fd5b81518015158114610bae57600080fdfea2646970667358221220ca44644da3d3d75a2ec42768d24777704414bcb6141423ccafb09d4f9ec235db64736f6c634300081c0033",
  "devdoc": {
    "details": "This contract is to be used as a diamond facet (see ERC2535 Diamond Standard https://eips.ethereum.org/EIPS/eip-2535).Note: This facet depends on {ProxyAdminFacet} and {InterfaceDetectionFacet}.",
    "errors": {
      "ERC20ApprovalToAddressZero(address)": [
        {
          "params": {
            "owner": "The owner of the tokens."
          }
        }
      ],
      "ERC20InsufficientAllowance(address,address,uint256,uint256)": [
        {
          "params": {
            "allowance": "The current allowance.",
            "decrement": "The allowance decrease.",
            "owner": "The owner of the tokens.",
            "spender": "The spender of the tokens."
          }
        }
      ],
      "ERC20InsufficientBalance(address,uint256,uint256)": [
        {
          "params": {
            "balance": "The current balance.",
            "owner": "The owner of the tokens.",
            "value": "The amount of tokens being transferred."
          }
        }
      ],
      "NotProxyAdmin(address)": [
        {
          "params": {
            "account": "The account that was checked."
          }
        }
      ]
    },
    "events": {
      "Approval(address,address,uint256)": {
        "params": {
          "owner": "The account granting an allowance to `spender`.",
          "spender": "The account being granted an allowance from `owner`.",
          "value": "The allowance amount being granted."
        }
      },
      "Transfer(address,address,uint256)": {
        "params": {
          "from": "The account where the transferred tokens are withdrawn from.",
          "to": "The account where the transferred tokens are deposited to.",
          "value": "The amount of tokens being transferred."
        }
      }
    },
    "kind": "dev",
    "methods": {
      "batchBurnFrom(address[],uint256[])": {
        "details": "Reverts if `owners` and `values` have different lengths.Reverts if an `owner` does not have at least the corresponding `value` of balance.Reverts if the sender is not an `owner` and does not have at least the corresponding `value` of allowance by this `owner`.Emits an {IERC20-Transfer} event for each transfer with `to` set to the zero address.Optionally emits an {Approval} event for each transfer if the sender is not this `owner` (non-standard).",
        "params": {
          "owners": "The list of accounts to burn the tokens from.",
          "values": "The list of amounts of tokens to burn."
        },
        "returns": {
          "_0": "Whether the operation succeeded."
        }
      },
      "burn(uint256)": {
        "details": "Reverts if the sender does not have at least `value` of balance.Emits an {IERC20-Transfer} event with `to` set to the zero address.",
        "params": {
          "value": "The amount of tokens to burn."
        },
        "returns": {
          "_0": "Whether the operation succeeded."
        }
      },
      "burnFrom(address,uint256)": {
        "details": "Reverts if `from` does not have at least `value` of balance.Reverts if the sender is not `from` and does not have at least `value` of allowance by `from`.Emits an {IERC20-Transfer} event with `to` set to the zero address.Optionally emits an {Approval} event if the sender is not `from` (non-standard).",
        "params": {
          "from": "The account to burn the tokens from.",
          "value": "The amount of tokens to burn."
        },
        "returns": {
          "_0": "Whether the operation succeeded."
        }
      },
      "initERC20BurnableStorage()": {
        "details": "Reverts with {NotProxyAdmin} if the sender is not the proxy admin."
      }
    },
    "title": "ERC20 Fungible Token Standard, optional extension: Burnable (facet version).",
    "version": 1
  },
  "userdoc": {
    "errors": {
      "ERC20ApprovalToAddressZero(address)": [
        {
          "notice": "Thrown when setting an allowance to the the zero address."
        }
      ],
      "ERC20InsufficientAllowance(address,address,uint256,uint256)": [
        {
          "notice": "Thrown when the allowance decreases below the current alowance set."
        }
      ],
      "ERC20InsufficientBalance(address,uint256,uint256)": [
        {
          "notice": "Thrown when transferring an amount of tokens greater than the current balance."
        }
      ],
      "IllegalInterfaceId()": [
        {
          "notice": "Thrown when setting the illegal interfaceId 0xffffffff."
        }
      ],
      "InconsistentArrayLengths()": [
        {
          "notice": "Thrown when the multiple related arrays have different lengths."
        }
      ],
      "NotProxyAdmin(address)": [
        {
          "notice": "Thrown when an account is not the proxy admin but is required to."
        }
      ]
    },
    "events": {
      "Approval(address,address,uint256)": {
        "notice": "Emitted when an approval is set."
      },
      "Transfer(address,address,uint256)": {
        "notice": "Emitted when tokens are transferred, including zero value transfers."
      }
    },
    "kind": "user",
    "methods": {
      "batchBurnFrom(address[],uint256[])": {
        "notice": "Burns multiple amounts of tokens from multiple owners, decreasing the total supply."
      },
      "burn(uint256)": {
        "notice": "Burns an amount of tokens from the sender, decreasing the total supply."
      },
      "burnFrom(address,uint256)": {
        "notice": "Burns an amount of tokens from a specified address, decreasing the total supply."
      },
      "initERC20BurnableStorage()": {
        "notice": "Marks the following ERC165 interface(s) as supported: ERC20Burnable."
      }
    },
    "version": 1
  },
  "storageLayout": {
    "storage": [],
    "types": null
  }
}