{
  "address": "0xC3595BE9ee9Cf2E06a97Be67eD703436489A1734",
  "abi": [
    {
      "inputs": [
        {
          "internalType": "contract IForwarderRegistry",
          "name": "forwarderRegistry",
          "type": "address"
        }
      ],
      "stateMutability": "nonpayable",
      "type": "constructor"
    },
    {
      "inputs": [],
      "name": "IllegalInterfaceId",
      "type": "error"
    },
    {
      "inputs": [
        {
          "internalType": "uint256",
          "name": "currentPhase",
          "type": "uint256"
        },
        {
          "internalType": "uint256",
          "name": "newPhase",
          "type": "uint256"
        }
      ],
      "name": "InitializationPhaseAlreadyReached",
      "type": "error"
    },
    {
      "inputs": [
        {
          "internalType": "address",
          "name": "account",
          "type": "address"
        }
      ],
      "name": "NotProxyAdmin",
      "type": "error"
    },
    {
      "inputs": [],
      "name": "decimals",
      "outputs": [
        {
          "internalType": "uint8",
          "name": "",
          "type": "uint8"
        }
      ],
      "stateMutability": "view",
      "type": "function"
    },
    {
      "inputs": [
        {
          "internalType": "string",
          "name": "tokenName",
          "type": "string"
        },
        {
          "internalType": "string",
          "name": "tokenSymbol",
          "type": "string"
        },
        {
          "internalType": "uint8",
          "name": "tokenDecimals",
          "type": "uint8"
        }
      ],
      "name": "initERC20DetailedStorage",
      "outputs": [],
      "stateMutability": "nonpayable",
      "type": "function"
    },
    {
      "inputs": [],
      "name": "name",
      "outputs": [
        {
          "internalType": "string",
          "name": "",
          "type": "string"
        }
      ],
      "stateMutability": "view",
      "type": "function"
    },
    {
      "inputs": [],
      "name": "symbol",
      "outputs": [
        {
          "internalType": "string",
          "name": "",
          "type": "string"
        }
      ],
      "stateMutability": "view",
      "type": "function"
    }
  ],
  "transactionHash": "0x95bf6b440dad24f99e9a12709aabb52f8faa1ab16e1bdfd1fbe692fa54eb90a6",
  "args": [
    "0x316a472D084489CB6d4C66e5eB62aE3AdA17521e"
  ],
  "numDeployments": 1,
  "solcInputHash": "84bab0eb3356c2e3bedca0f2f5a163c5",
  "bytecode": "0x60a0604052348015600f57600080fd5b50604051610a4f380380610a4f833981016040819052602c91603c565b6001600160a01b0316608052606a565b600060208284031215604d57600080fd5b81516001600160a01b0381168114606357600080fd5b9392505050565b6080516109c361008c6000396000818161023e01526102cc01526109c36000f3fe608060405234801561001057600080fd5b506004361061004c5760003560e01c806306fdde0314610051578063313ce5671461006f57806395d89b4114610089578063ef96127914610091575b600080fd5b6100596100a6565b60405161006691906105fe565b60405180910390f35b6100776100bd565b60405160ff9091168152602001610066565b6100596100d4565b6100a461009f3660046106b3565b6100e6565b005b60606100b86100b3610120565b610154565b905090565b60006100b86100ca610120565b6002015460ff1690565b60606100b86100e1610120565b6101ea565b6100ff6100f16101fb565b6100f9610348565b90610376565b610119858585858561010f610120565b94939291906103ea565b5050505050565b60008061014e60017f335df4119bbb04f056b33eba33b826d3529129e458faf6daa9924b5a8f3b6a82610742565b92915050565b60608160000180546101659061077c565b80601f01602080910402602001604051908101604052809291908181526020018280546101919061077c565b80156101de5780601f106101b3576101008083540402835291602001916101de565b820191906000526020600020905b8154815290600101906020018083116101c157829003601f168201915b50505050509050919050565b60608160010180546101659061077c565b60003332148061020b5750601836105b1561021557503390565b7fffffffffffffffffffffffffffffffffffffffffffffffffffffffffffffffec36013560601c7f000000000000000000000000000000000000000000000000000000000000000073ffffffffffffffffffffffffffffffffffffffff1633148061033757506040517f019a202800000000000000000000000000000000000000000000000000000000815273ffffffffffffffffffffffffffffffffffffffff82811660048301523360248301523060448301527f0000000000000000000000000000000000000000000000000000000000000000169063019a202890606401602060405180830381865afa158015610313573d6000803e3d6000fd5b505050506040513d601f19601f8201168201806040525081019061033791906107cf565b1561034157919050565b3391505090565b60008061014e60017fb53127684a568b3173ae13b9f8a6016e243e63b6e8ee1178d6a717850b5d6104610742565b815473ffffffffffffffffffffffffffffffffffffffff8281169116146103e6576040517f673a31a100000000000000000000000000000000000000000000000000000000815273ffffffffffffffffffffffffffffffffffffffff821660048201526024015b60405180910390fd5b5050565b61041f61041860017fd217496980d1cb14720b20a80af36676bbece8e5feeb5d8970a9681a2c76bb75610742565b60016104a8565b8561042b858783610873565b506001860161043b838583610873565b506002860180547fffffffffffffffffffffffffffffffffffffffffffffffffffffffffffffff001660ff83161790556104a07fa219a0250000000000000000000000000000000000000000000000000000000060016104996104f4565b9190610522565b505050505050565b815482908281106104ef576040517fbf0c18ec00000000000000000000000000000000000000000000000000000000815260048101829052602481018490526044016103dd565b505550565b60008061014e60017fca9d3e17f264b0f3984e2634e94adb37fa3e6a8103f06aeae6fa59e21c769f5e610742565b7c01000000000000000000000000000000000000000000000000000000007fffffffff0000000000000000000000000000000000000000000000000000000083160161059a576040517f72c683bb00000000000000000000000000000000000000000000000000000000815260040160405180910390fd5b7fffffffff00000000000000000000000000000000000000000000000000000000919091166000908152602092909252604090912080547fffffffffffffffffffffffffffffffffffffffffffffffffffffffffffffff0016911515919091179055565b602081526000825180602084015260005b8181101561062c576020818601810151604086840101520161060f565b5060006040828501015260407fffffffffffffffffffffffffffffffffffffffffffffffffffffffffffffffe0601f83011684010191505092915050565b60008083601f84011261067c57600080fd5b50813567ffffffffffffffff81111561069457600080fd5b6020830191508360208285010111156106ac57600080fd5b9250929050565b6000806000806000606086880312156106cb57600080fd5b853567ffffffffffffffff8111156106e257600080fd5b6106ee8882890161066a565b909650945050602086013567ffffffffffffffff81111561070e57600080fd5b61071a8882890161066a565b909450925050604086013560ff8116811461073457600080fd5b809150509295509295909350565b8181038181111561014e577f4e487b7100000000000000000000000000000000000000000000000000000000600052601160045260246000fd5b600181811c9082168061079057607f821691505b6020821081036107c9577f4e487b7100000000000000000000000000000000000000000000000000000000600052602260045260246000fd5b50919050565b6000602082840312156107e157600080fd5b815180151581146107f157600080fd5b9392505050565b7f4e487b7100000000000000000000000000000000000000000000000000000000600052604160045260246000fd5b601f82111561086e57806000526020600020601f840160051c8101602085101561084e5750805b601f840160051c820191505b81811015610119576000815560010161085a565b505050565b67ffffffffffffffff83111561088b5761088b6107f8565b61089f83610899835461077c565b83610827565b6000601f8411600181146108f157600085156108bb5750838201355b7fffffffffffffffffffffffffffffffffffffffffffffffffffffffffffffffff600387901b1c1916600186901b178355610119565b6000838152602090207fffffffffffffffffffffffffffffffffffffffffffffffffffffffffffffffe0861690835b828110156109405786850135825560209485019460019092019101610920565b508682101561097b577fffffffffffffffffffffffffffffffffffffffffffffffffffffffffffffffff60f88860031b161c19848701351681555b505060018560011b018355505050505056fea2646970667358221220a10035cc99cb4467afcb16080c25c1a97d529ebd4694eb290b2162aee97d50f364736f6c634300081c0033",
  "devdoc": {
    "details": "This contract is to be used as a diamond facet (see ERC2535 Diamond Standard https://eips.ethereum.org/EIPS/eip-2535).Note: This facet depends on {ProxyAdminFacet} and {InterfaceDetectionFacet}.",
    "errors": {
      "InitializationPhaseAlreadyReached(uint256,uint256)": [
        {
          "params": {
            "currentPhase": "The current phase.",
            "newPhase": "The new phase trying to be set."
          }
        }
      ],
      "NotProxyAdmin(address)": [
        {
          "params": {
            "account": "The account that was checked."
          }
        }
      ]
    },
    "kind": "dev",
    "methods": {
      "decimals()": {
        "details": "Note: This information is only used for display purposes: it does  not impact the arithmetic of the contract.",
        "returns": {
          "_0": "The number of decimals used to display the balances."
        }
      },
      "initERC20DetailedStorage(string,string,uint8)": {
        "details": "Reverts with {NotProxyAdmin} if the sender is not the proxy admin.Reverts with {InitializationPhaseAlreadyReached} if the proxy initialization phase is set to `1` or above.",
        "params": {
          "tokenDecimals": "The token decimals.",
          "tokenName": "The token name.",
          "tokenSymbol": "The token symbol."
        }
      },
      "name()": {
        "returns": {
          "_0": "The name of the token."
        }
      },
      "symbol()": {
        "returns": {
          "_0": "The symbol of the token."
        }
      }
    },
    "title": "ERC20 Fungible Token Standard, optional extension: Detailed (facet version).",
    "version": 1
  },
  "userdoc": {
    "errors": {
      "IllegalInterfaceId()": [
        {
          "notice": "Thrown when setting the illegal interfaceId 0xffffffff."
        }
      ],
      "InitializationPhaseAlreadyReached(uint256,uint256)": [
        {
          "notice": "Emitted when trying to set a phase value that has already been reached."
        }
      ],
      "NotProxyAdmin(address)": [
        {
          "notice": "Thrown when an account is not the proxy admin but is required to."
        }
      ]
    },
    "kind": "user",
    "methods": {
      "decimals()": {
        "notice": "Gets the number of decimals used to display the balances.For example, if `decimals` equals `2`, a balance of `505` tokens should be displayed to a user as `5,05` (`505 / 10 ** 2`).Tokens usually opt for a value of 18, imitating the relationship between Ether and Wei."
      },
      "initERC20DetailedStorage(string,string,uint8)": {
        "notice": "Initializes the storage with the token details.Sets the proxy initialization phase to `1`.Marks the following ERC165 interface(s) as supported: ERC20Detailed."
      },
      "name()": {
        "notice": "Gets the name of the token. E.g. \"My Token\"."
      },
      "symbol()": {
        "notice": "Gets the symbol of the token. E.g. \"TOK\"."
      }
    },
    "version": 1
  },
  "storageLayout": {
    "storage": [],
    "types": null
  }
}