{
  "address": "0x3EfB1D48Bb8755aabcAf7305A87af0cA9a590FA8",
  "abi": [
    {
      "inputs": [
        {
          "internalType": "contract IForwarderRegistry",
          "name": "forwarderRegistry",
          "type": "address"
        }
      ],
      "stateMutability": "nonpayable",
      "type": "constructor"
    },
    {
      "inputs": [
        {
          "internalType": "uint256",
          "name": "tokenId",
          "type": "uint256"
        }
      ],
      "name": "ERC721NonExistingToken",
      "type": "error"
    },
    {
      "inputs": [],
      "name": "IllegalInterfaceId",
      "type": "error"
    },
    {
      "inputs": [
        {
          "internalType": "uint256",
          "name": "currentPhase",
          "type": "uint256"
        },
        {
          "internalType": "uint256",
          "name": "newPhase",
          "type": "uint256"
        }
      ],
      "name": "InitializationPhaseAlreadyReached",
      "type": "error"
    },
    {
      "inputs": [
        {
          "internalType": "address",
          "name": "account",
          "type": "address"
        }
      ],
      "name": "NotProxyAdmin",
      "type": "error"
    },
    {
      "inputs": [
        {
          "internalType": "string",
          "name": "name",
          "type": "string"
        },
        {
          "internalType": "string",
          "name": "symbol",
          "type": "string"
        },
        {
          "internalType": "contract ITokenMetadataResolver",
          "name": "metadataResolver",
          "type": "address"
        }
      ],
      "name": "initERC721MetadataStorage",
      "outputs": [],
      "stateMutability": "nonpayable",
      "type": "function"
    },
    {
      "inputs": [],
      "name": "metadataResolver",
      "outputs": [
        {
          "internalType": "contract ITokenMetadataResolver",
          "name": "tokenMetadataResolver",
          "type": "address"
        }
      ],
      "stateMutability": "view",
      "type": "function"
    },
    {
      "inputs": [],
      "name": "name",
      "outputs": [
        {
          "internalType": "string",
          "name": "tokenName",
          "type": "string"
        }
      ],
      "stateMutability": "view",
      "type": "function"
    },
    {
      "inputs": [],
      "name": "symbol",
      "outputs": [
        {
          "internalType": "string",
          "name": "tokenSymbol",
          "type": "string"
        }
      ],
      "stateMutability": "view",
      "type": "function"
    },
    {
      "inputs": [
        {
          "internalType": "uint256",
          "name": "tokenId",
          "type": "uint256"
        }
      ],
      "name": "tokenURI",
      "outputs": [
        {
          "internalType": "string",
          "name": "uri",
          "type": "string"
        }
      ],
      "stateMutability": "view",
      "type": "function"
    }
  ],
  "transactionHash": "0xc3668e3b9694a32d26a372a8abb6852ebbbc04aab53bc0604d71e572923b8978",
  "args": [
    "0x316a472D084489CB6d4C66e5eB62aE3AdA17521e"
  ],
  "numDeployments": 1,
  "solcInputHash": "84bab0eb3356c2e3bedca0f2f5a163c5",
  "bytecode": "0x60a0604052348015600f57600080fd5b50604051610d7e380380610d7e833981016040819052602c91603c565b6001600160a01b0316608052606a565b600060208284031215604d57600080fd5b81516001600160a01b0381168114606357600080fd5b9392505050565b608051610cf261008c60003960008181610391015261041f0152610cf26000f3fe608060405234801561001057600080fd5b50600436106100675760003560e01c8063a0c76f6211610050578063a0c76f6214610092578063c87b56dd146100bf578063fa6d22ca146100d257600080fd5b806306fdde031461006c57806395d89b411461008a575b600080fd5b6100746100e7565b6040516100819190610831565b60405180910390f35b6100746100f6565b61009a610100565b60405173ffffffffffffffffffffffffffffffffffffffff9091168152602001610081565b6100746100cd366004610882565b61012a565b6100e56100e03660046108e4565b610159565b005b60606100f161019b565b905090565b60606100f16101ad565b60006100f161010d6101bf565b6002015473ffffffffffffffffffffffffffffffffffffffff1690565b606061013e826101386101ed565b9061021b565b50610153308361014c6101bf565b9190610286565b92915050565b61017261016461034e565b61016c61049b565b906104c9565b61018c85858585856101826101bf565b9493929190610538565b6101946105d9565b5050505050565b60606100f16101a86101bf565b610610565b60606100f16101ba6101bf565b6106a6565b60008061015360017f7ea68fd2dcf1c056b94db6a0a537aa80d26fa9ab1eacd85da1ba0b61b7e7a8a5610986565b60008061015360017fddf3ee18ae6d688373c219468f8be446e7ae82215f4779d821c7ea5e8c13c0c1610986565b60008181526020839052604081205473ffffffffffffffffffffffffffffffffffffffff811661027f576040517fdd560475000000000000000000000000000000000000000000000000000000008152600481018490526024015b60405180910390fd5b9392505050565b60028301546040517ff724dad700000000000000000000000000000000000000000000000000000000815273ffffffffffffffffffffffffffffffffffffffff848116600483015260248201849052606092169063f724dad790604401600060405180830381865afa158015610300573d6000803e3d6000fd5b505050506040513d6000823e601f3d9081017fffffffffffffffffffffffffffffffffffffffffffffffffffffffffffffffe016820160405261034691908101906109ef565b949350505050565b60003332148061035e5750601836105b1561036857503390565b7fffffffffffffffffffffffffffffffffffffffffffffffffffffffffffffffec36013560601c7f000000000000000000000000000000000000000000000000000000000000000073ffffffffffffffffffffffffffffffffffffffff1633148061048a57506040517f019a202800000000000000000000000000000000000000000000000000000000815273ffffffffffffffffffffffffffffffffffffffff82811660048301523360248301523060448301527f0000000000000000000000000000000000000000000000000000000000000000169063019a202890606401602060405180830381865afa158015610466573d6000803e3d6000fd5b505050506040513d601f19601f8201168201806040525081019061048a9190610ae1565b1561049457919050565b3391505090565b60008061015360017fb53127684a568b3173ae13b9f8a6016e243e63b6e8ee1178d6a717850b5d6104610986565b815473ffffffffffffffffffffffffffffffffffffffff828116911614610534576040517f673a31a100000000000000000000000000000000000000000000000000000000815273ffffffffffffffffffffffffffffffffffffffff82166004820152602401610276565b5050565b61056d61056660017f92f72593ca50a0096f68ee94e7000db40ed086164b695855e2250750b8bfaf59610986565b60016106b7565b85610579858783610ba2565b5060018601610589838583610ba2565b5060029590950180547fffffffffffffffffffffffff00000000000000000000000000000000000000001673ffffffffffffffffffffffffffffffffffffffff9096169590951790945550505050565b61060e7f5b5e139f000000000000000000000000000000000000000000000000000000006001610607610703565b9190610731565b565b606081600001805461062190610b03565b80601f016020809104026020016040519081016040528092919081815260200182805461064d90610b03565b801561069a5780601f1061066f5761010080835404028352916020019161069a565b820191906000526020600020905b81548152906001019060200180831161067d57829003601f168201915b50505050509050919050565b606081600101805461062190610b03565b815482908281106106fe576040517fbf0c18ec0000000000000000000000000000000000000000000000000000000081526004810182905260248101849052604401610276565b505550565b60008061015360017fca9d3e17f264b0f3984e2634e94adb37fa3e6a8103f06aeae6fa59e21c769f5e610986565b7c01000000000000000000000000000000000000000000000000000000007fffffffff000000000000000000000000000000000000000000000000000000008316016107a9576040517f72c683bb00000000000000000000000000000000000000000000000000000000815260040160405180910390fd5b7fffffffff00000000000000000000000000000000000000000000000000000000919091166000908152602092909252604090912080547fffffffffffffffffffffffffffffffffffffffffffffffffffffffffffffff0016911515919091179055565b60005b83811015610828578181015183820152602001610810565b50506000910152565b602081526000825180602084015261085081604085016020870161080d565b601f017fffffffffffffffffffffffffffffffffffffffffffffffffffffffffffffffe0169190910160400192915050565b60006020828403121561089457600080fd5b5035919050565b60008083601f8401126108ad57600080fd5b50813567ffffffffffffffff8111156108c557600080fd5b6020830191508360208285010111156108dd57600080fd5b9250929050565b6000806000806000606086880312156108fc57600080fd5b853567ffffffffffffffff81111561091357600080fd5b61091f8882890161089b565b909650945050602086013567ffffffffffffffff81111561093f57600080fd5b61094b8882890161089b565b909450925050604086013573ffffffffffffffffffffffffffffffffffffffff8116811461097857600080fd5b809150509295509295909350565b81810381811115610153577f4e487b7100000000000000000000000000000000000000000000000000000000600052601160045260246000fd5b7f4e487b7100000000000000000000000000000000000000000000000000000000600052604160045260246000fd5b600060208284031215610a0157600080fd5b815167ffffffffffffffff811115610a1857600080fd5b8201601f81018413610a2957600080fd5b805167ffffffffffffffff811115610a4357610a436109c0565b6040517fffffffffffffffffffffffffffffffffffffffffffffffffffffffffffffffe0603f7fffffffffffffffffffffffffffffffffffffffffffffffffffffffffffffffe0601f8501160116810181811067ffffffffffffffff82111715610aaf57610aaf6109c0565b604052818152828201602001861015610ac757600080fd5b610ad882602083016020860161080d565b95945050505050565b600060208284031215610af357600080fd5b8151801515811461027f57600080fd5b600181811c90821680610b1757607f821691505b602082108103610b50577f4e487b7100000000000000000000000000000000000000000000000000000000600052602260045260246000fd5b50919050565b601f821115610b9d57806000526020600020601f840160051c81016020851015610b7d5750805b601f840160051c820191505b818110156101945760008155600101610b89565b505050565b67ffffffffffffffff831115610bba57610bba6109c0565b610bce83610bc88354610b03565b83610b56565b6000601f841160018114610c205760008515610bea5750838201355b7fffffffffffffffffffffffffffffffffffffffffffffffffffffffffffffffff600387901b1c1916600186901b178355610194565b6000838152602090207fffffffffffffffffffffffffffffffffffffffffffffffffffffffffffffffe0861690835b82811015610c6f5786850135825560209485019460019092019101610c4f565b5086821015610caa577fffffffffffffffffffffffffffffffffffffffffffffffffffffffffffffffff60f88860031b161c19848701351681555b505060018560011b018355505050505056fea26469706673582212202a190d30a4a6ef08dad13306c0d6c89f5babc85afb8e7b5d9fa697d43e509ebd64736f6c634300081c0033",
  "devdoc": {
    "details": "This contract is to be used as a diamond facet (see ERC2535 Diamond Standard https://eips.ethereum.org/EIPS/eip-2535).Note: This facet depends on {ProxyAdminFacet} and {InterfaceDetectionFacet}.",
    "errors": {
      "ERC721NonExistingToken(uint256)": [
        {
          "params": {
            "tokenId": "The identifier of the token that was checked."
          }
        }
      ],
      "InitializationPhaseAlreadyReached(uint256,uint256)": [
        {
          "params": {
            "currentPhase": "The current phase.",
            "newPhase": "The new phase trying to be set."
          }
        }
      ],
      "NotProxyAdmin(address)": [
        {
          "params": {
            "account": "The account that was checked."
          }
        }
      ]
    },
    "kind": "dev",
    "methods": {
      "initERC721MetadataStorage(string,string,address)": {
        "details": "Reverts with {NotProxyAdmin} if the sender is not the proxy admin.Reverts with {InitializationPhaseAlreadyReached} if the proxy initialization phase is set to `1` or above.",
        "params": {
          "metadataResolver": "The address of the metadata resolver contract.",
          "name": "The name of the token.",
          "symbol": "The symbol of the token."
        }
      },
      "metadataResolver()": {
        "returns": {
          "tokenMetadataResolver": "The token metadata resolver address."
        }
      },
      "name()": {
        "returns": {
          "tokenName": "The name of the token."
        }
      },
      "symbol()": {
        "returns": {
          "tokenSymbol": "The symbol of the token."
        }
      },
      "tokenURI(uint256)": {
        "details": "Reverts if `tokenId` does not exist.",
        "params": {
          "tokenId": "The token identifier."
        },
        "returns": {
          "uri": "The metadata URI for the token identifier."
        }
      }
    },
    "title": "ERC721 Non-Fungible Token Standard, optional extension: Metadata (facet version).",
    "version": 1
  },
  "userdoc": {
    "errors": {
      "ERC721NonExistingToken(uint256)": [
        {
          "notice": "Thrown when a token does not exist but is required to."
        }
      ],
      "IllegalInterfaceId()": [
        {
          "notice": "Thrown when setting the illegal interfaceId 0xffffffff."
        }
      ],
      "InitializationPhaseAlreadyReached(uint256,uint256)": [
        {
          "notice": "Emitted when trying to set a phase value that has already been reached."
        }
      ],
      "NotProxyAdmin(address)": [
        {
          "notice": "Thrown when an account is not the proxy admin but is required to."
        }
      ]
    },
    "kind": "user",
    "methods": {
      "initERC721MetadataStorage(string,string,address)": {
        "notice": "Initializes the storage with the contract metadata.Sets the proxy initialization phase to `1`.Marks the following ERC165 interfaces as supported: ERC721Metadata."
      },
      "metadataResolver()": {
        "notice": "Gets the token metadata resolver address."
      },
      "name()": {
        "notice": "Gets the name of the token. E.g. \"My Token\"."
      },
      "symbol()": {
        "notice": "Gets the symbol of the token. E.g. \"TOK\"."
      },
      "tokenURI(uint256)": {
        "notice": "Gets the metadata URI for a token identifier."
      }
    },
    "notice": "This contracts uses an external resolver for managing individual tokens metadata.",
    "version": 1
  },
  "storageLayout": {
    "storage": [],
    "types": null
  }
}