{
  "address": "0xC6DDf494d30298124dc2B46ad9a1A6423d676779",
  "abi": [
    {
      "inputs": [
        {
          "internalType": "contract IForwarderRegistry",
          "name": "forwarderRegistry",
          "type": "address"
        }
      ],
      "stateMutability": "nonpayable",
      "type": "constructor"
    },
    {
      "inputs": [
        {
          "internalType": "uint256",
          "name": "currentPhase",
          "type": "uint256"
        },
        {
          "internalType": "uint256",
          "name": "newPhase",
          "type": "uint256"
        }
      ],
      "name": "InitializationPhaseAlreadyReached",
      "type": "error"
    },
    {
      "inputs": [],
      "name": "NoInitialProxyAdmin",
      "type": "error"
    },
    {
      "inputs": [
        {
          "internalType": "address",
          "name": "account",
          "type": "address"
        }
      ],
      "name": "NotProxyAdmin",
      "type": "error"
    },
    {
      "anonymous": false,
      "inputs": [
        {
          "indexed": false,
          "internalType": "address",
          "name": "previousAdmin",
          "type": "address"
        },
        {
          "indexed": false,
          "internalType": "address",
          "name": "newAdmin",
          "type": "address"
        }
      ],
      "name": "AdminChanged",
      "type": "event"
    },
    {
      "inputs": [
        {
          "internalType": "address",
          "name": "newAdmin",
          "type": "address"
        }
      ],
      "name": "changeProxyAdmin",
      "outputs": [],
      "stateMutability": "nonpayable",
      "type": "function"
    },
    {
      "inputs": [
        {
          "internalType": "address",
          "name": "initialAdmin",
          "type": "address"
        }
      ],
      "name": "initProxyAdminStorage",
      "outputs": [],
      "stateMutability": "nonpayable",
      "type": "function"
    },
    {
      "inputs": [],
      "name": "proxyAdmin",
      "outputs": [
        {
          "internalType": "address",
          "name": "admin",
          "type": "address"
        }
      ],
      "stateMutability": "view",
      "type": "function"
    }
  ],
  "transactionHash": "0xc74896b284aef24650e06579777a4c846280f5137904539b45211ccb00ac13cb",
  "args": [
    "0x316a472D084489CB6d4C66e5eB62aE3AdA17521e"
  ],
  "numDeployments": 1,
  "solcInputHash": "84bab0eb3356c2e3bedca0f2f5a163c5",
  "bytecode": "0x60a0604052348015600f57600080fd5b50604051610665380380610665833981016040819052602c91603c565b6001600160a01b0316608052606a565b600060208284031215604d57600080fd5b81516001600160a01b0381168114606357600080fd5b9392505050565b6080516105d961008c60003960008181610400015261048e01526105d96000f3fe608060405234801561001057600080fd5b50600436106100415760003560e01c80633e47158c146100465780634d350622146100775780639f712f2f1461008c575b600080fd5b61004e61009f565b60405173ffffffffffffffffffffffffffffffffffffffff909116815260200160405180910390f35b61008a61008536600461050a565b6100cb565b005b61008a61009a36600461050a565b6100e0565b60006100c66100ac6100fb565b5473ffffffffffffffffffffffffffffffffffffffff1690565b905090565b6100dd816100d76100fb565b9061012f565b50565b6100dd6100eb610172565b826100f46100fb565b919061017c565b60008061012960017fb53127684a568b3173ae13b9f8a6016e243e63b6e8ee1178d6a717850b5d6104610547565b92915050565b61016461015d60017fc4214a2a0bb1b53325bec6bf1dc591abd32036bb3f39039f460ac4a3eb0f7298610547565b60016102a5565b61016e82826102f1565b5050565b60006100c66103bd565b825473ffffffffffffffffffffffffffffffffffffffff90811690831681146101ee576040517f673a31a100000000000000000000000000000000000000000000000000000000815273ffffffffffffffffffffffffffffffffffffffff841660048201526024015b60405180910390fd5b8173ffffffffffffffffffffffffffffffffffffffff168173ffffffffffffffffffffffffffffffffffffffff161461029f5783547fffffffffffffffffffffffff00000000000000000000000000000000000000001673ffffffffffffffffffffffffffffffffffffffff838116918217865560408051918416825260208201929092527f7e644d79422f17c01e4894b5f4f588d331ebfa28653d42ae832dc59e38c9798f910160405180910390a15b50505050565b815482908281106102ec576040517fbf0c18ec00000000000000000000000000000000000000000000000000000000815260048101829052602481018490526044016101e5565b505550565b73ffffffffffffffffffffffffffffffffffffffff811661033e576040517fbf91956000000000000000000000000000000000000000000000000000000000815260040160405180910390fd5b81547fffffffffffffffffffffffff00000000000000000000000000000000000000001673ffffffffffffffffffffffffffffffffffffffff82169081178355604080516000815260208101929092527f7e644d79422f17c01e4894b5f4f588d331ebfa28653d42ae832dc59e38c9798f910160405180910390a15050565b6000333214806103cd5750601836105b156103d757503390565b7fffffffffffffffffffffffffffffffffffffffffffffffffffffffffffffffec36013560601c7f000000000000000000000000000000000000000000000000000000000000000073ffffffffffffffffffffffffffffffffffffffff163314806104f957506040517f019a202800000000000000000000000000000000000000000000000000000000815273ffffffffffffffffffffffffffffffffffffffff82811660048301523360248301523060448301527f0000000000000000000000000000000000000000000000000000000000000000169063019a202890606401602060405180830381865afa1580156104d5573d6000803e3d6000fd5b505050506040513d601f19601f820116820180604052508101906104f99190610581565b1561050357919050565b3391505090565b60006020828403121561051c57600080fd5b813573ffffffffffffffffffffffffffffffffffffffff8116811461054057600080fd5b9392505050565b81810381811115610129577f4e487b7100000000000000000000000000000000000000000000000000000000600052601160045260246000fd5b60006020828403121561059357600080fd5b8151801515811461054057600080fdfea26469706673582212207e622893a89870f2ec9627b705f7bd37fc8167f2d50b86230c96e8d430251f7864736f6c634300081c0033",
  "devdoc": {
    "details": "See https://eips.ethereum.org/EIPS/eip-1967This contract is to be used as a diamond facet (see ERC2535 Diamond Standard https://eips.ethereum.org/EIPS/eip-2535).",
    "errors": {
      "InitializationPhaseAlreadyReached(uint256,uint256)": [
        {
          "params": {
            "currentPhase": "The current phase.",
            "newPhase": "The new phase trying to be set."
          }
        }
      ],
      "NotProxyAdmin(address)": [
        {
          "params": {
            "account": "The account that was checked."
          }
        }
      ]
    },
    "events": {
      "AdminChanged(address,address)": {
        "params": {
          "newAdmin": "the new admin.",
          "previousAdmin": "the previous admin."
        }
      }
    },
    "kind": "dev",
    "methods": {
      "changeProxyAdmin(address)": {
        "details": "Reverts with {NotProxyAdmin} if `sender` is not the proxy admin.Emits an {AdminChanged} event if `newAdmin` is different from the current proxy admin.",
        "params": {
          "newAdmin": "The new proxy admin."
        }
      },
      "initProxyAdminStorage(address)": {
        "details": "Reverts with {InitializationPhaseAlreadyReached} if the proxy initialization phase is set to `1` or above.Emits an {AdminChanged} event if `initialAdmin` is not the zero address.",
        "params": {
          "initialAdmin": "The initial payout wallet."
        }
      },
      "proxyAdmin()": {
        "returns": {
          "admin": "The proxy admin."
        }
      }
    },
    "title": "ERC1967 Standard Proxy Storage Slots, Admin Address (facet version).",
    "version": 1
  },
  "userdoc": {
    "errors": {
      "InitializationPhaseAlreadyReached(uint256,uint256)": [
        {
          "notice": "Emitted when trying to set a phase value that has already been reached."
        }
      ],
      "NoInitialProxyAdmin()": [
        {
          "notice": "Thrown when the initial admin is not set."
        }
      ],
      "NotProxyAdmin(address)": [
        {
          "notice": "Thrown when an account is not the proxy admin but is required to."
        }
      ]
    },
    "events": {
      "AdminChanged(address,address)": {
        "notice": "Emitted when the proxy admin changes."
      }
    },
    "kind": "user",
    "methods": {
      "changeProxyAdmin(address)": {
        "notice": "Sets a new proxy admin."
      },
      "initProxyAdminStorage(address)": {
        "notice": "Initializes the storage with an initial admin.Sets the proxy initialization phase to `1`."
      },
      "proxyAdmin()": {
        "notice": "Gets the proxy admin."
      }
    },
    "version": 1
  },
  "storageLayout": {
    "storage": [],
    "types": null
  }
}