{
  "address": "0x16b77dF21b59D481eDBdbBcccB4E085Df509726E",
  "abi": [
    {
      "inputs": [
        {
          "internalType": "address",
          "name": "checkpointManager",
          "type": "address"
        },
        {
          "internalType": "address",
          "name": "fxRoot",
          "type": "address"
        },
        {
          "internalType": "address",
          "name": "fxERC20Token",
          "type": "address"
        },
        {
          "internalType": "contract IForwarderRegistry",
          "name": "forwarderRegistry",
          "type": "address"
        }
      ],
      "stateMutability": "nonpayable",
      "type": "constructor"
    },
    {
      "inputs": [
        {
          "internalType": "address",
          "name": "childToken",
          "type": "address"
        },
        {
          "internalType": "address",
          "name": "expectedRootToken",
          "type": "address"
        },
        {
          "internalType": "address",
          "name": "actualRootToken",
          "type": "address"
        }
      ],
      "name": "FxERC20InvalidMappingOnExit",
      "type": "error"
    },
    {
      "anonymous": false,
      "inputs": [
        {
          "indexed": true,
          "internalType": "address",
          "name": "rootToken",
          "type": "address"
        },
        {
          "indexed": true,
          "internalType": "address",
          "name": "depositor",
          "type": "address"
        },
        {
          "indexed": true,
          "internalType": "address",
          "name": "userAddress",
          "type": "address"
        },
        {
          "indexed": false,
          "internalType": "uint256",
          "name": "amount",
          "type": "uint256"
        }
      ],
      "name": "FxDepositERC20",
      "type": "event"
    },
    {
      "anonymous": false,
      "inputs": [
        {
          "indexed": true,
          "internalType": "address",
          "name": "rootToken",
          "type": "address"
        },
        {
          "indexed": true,
          "internalType": "address",
          "name": "childToken",
          "type": "address"
        },
        {
          "indexed": true,
          "internalType": "address",
          "name": "userAddress",
          "type": "address"
        },
        {
          "indexed": false,
          "internalType": "uint256",
          "name": "amount",
          "type": "uint256"
        }
      ],
      "name": "FxWithdrawERC20",
      "type": "event"
    },
    {
      "anonymous": false,
      "inputs": [
        {
          "indexed": true,
          "internalType": "address",
          "name": "rootToken",
          "type": "address"
        },
        {
          "indexed": true,
          "internalType": "address",
          "name": "childToken",
          "type": "address"
        }
      ],
      "name": "TokenMappedERC20",
      "type": "event"
    },
    {
      "inputs": [],
      "name": "DEPOSIT",
      "outputs": [
        {
          "internalType": "bytes32",
          "name": "",
          "type": "bytes32"
        }
      ],
      "stateMutability": "view",
      "type": "function"
    },
    {
      "inputs": [],
      "name": "MAP_TOKEN",
      "outputs": [
        {
          "internalType": "bytes32",
          "name": "",
          "type": "bytes32"
        }
      ],
      "stateMutability": "view",
      "type": "function"
    },
    {
      "inputs": [],
      "name": "SEND_MESSAGE_EVENT_SIG",
      "outputs": [
        {
          "internalType": "bytes32",
          "name": "",
          "type": "bytes32"
        }
      ],
      "stateMutability": "view",
      "type": "function"
    },
    {
      "inputs": [],
      "name": "checkpointManager",
      "outputs": [
        {
          "internalType": "contract ICheckpointManager",
          "name": "",
          "type": "address"
        }
      ],
      "stateMutability": "view",
      "type": "function"
    },
    {
      "inputs": [],
      "name": "childTokenProxyCodeHash",
      "outputs": [
        {
          "internalType": "bytes32",
          "name": "",
          "type": "bytes32"
        }
      ],
      "stateMutability": "view",
      "type": "function"
    },
    {
      "inputs": [
        {
          "internalType": "bytes32",
          "name": "salt",
          "type": "bytes32"
        },
        {
          "internalType": "bytes32",
          "name": "bytecodeHash",
          "type": "bytes32"
        },
        {
          "internalType": "address",
          "name": "deployer",
          "type": "address"
        }
      ],
      "name": "computedCreate2Address",
      "outputs": [
        {
          "internalType": "address",
          "name": "",
          "type": "address"
        }
      ],
      "stateMutability": "pure",
      "type": "function"
    },
    {
      "inputs": [
        {
          "internalType": "address",
          "name": "rootToken",
          "type": "address"
        },
        {
          "internalType": "uint256",
          "name": "amount",
          "type": "uint256"
        }
      ],
      "name": "deposit",
      "outputs": [],
      "stateMutability": "nonpayable",
      "type": "function"
    },
    {
      "inputs": [
        {
          "internalType": "address",
          "name": "rootToken",
          "type": "address"
        },
        {
          "internalType": "address",
          "name": "receiver",
          "type": "address"
        },
        {
          "internalType": "uint256",
          "name": "amount",
          "type": "uint256"
        }
      ],
      "name": "depositTo",
      "outputs": [],
      "stateMutability": "nonpayable",
      "type": "function"
    },
    {
      "inputs": [],
      "name": "forwarderRegistry",
      "outputs": [
        {
          "internalType": "contract IForwarderRegistry",
          "name": "",
          "type": "address"
        }
      ],
      "stateMutability": "view",
      "type": "function"
    },
    {
      "inputs": [],
      "name": "fxChildTunnel",
      "outputs": [
        {
          "internalType": "address",
          "name": "",
          "type": "address"
        }
      ],
      "stateMutability": "view",
      "type": "function"
    },
    {
      "inputs": [],
      "name": "fxRoot",
      "outputs": [
        {
          "internalType": "contract IFxStateSender",
          "name": "",
          "type": "address"
        }
      ],
      "stateMutability": "view",
      "type": "function"
    },
    {
      "inputs": [
        {
          "internalType": "address",
          "name": "forwarder",
          "type": "address"
        }
      ],
      "name": "isTrustedForwarder",
      "outputs": [
        {
          "internalType": "bool",
          "name": "",
          "type": "bool"
        }
      ],
      "stateMutability": "view",
      "type": "function"
    },
    {
      "inputs": [
        {
          "internalType": "address",
          "name": "rootToken",
          "type": "address"
        }
      ],
      "name": "mapToken",
      "outputs": [],
      "stateMutability": "nonpayable",
      "type": "function"
    },
    {
      "inputs": [
        {
          "internalType": "address",
          "name": "",
          "type": "address"
        },
        {
          "internalType": "address",
          "name": "from",
          "type": "address"
        },
        {
          "internalType": "uint256",
          "name": "value",
          "type": "uint256"
        },
        {
          "internalType": "bytes",
          "name": "data",
          "type": "bytes"
        }
      ],
      "name": "onERC20Received",
      "outputs": [
        {
          "internalType": "bytes4",
          "name": "magicValue",
          "type": "bytes4"
        }
      ],
      "stateMutability": "nonpayable",
      "type": "function"
    },
    {
      "inputs": [
        {
          "internalType": "bytes32",
          "name": "",
          "type": "bytes32"
        }
      ],
      "name": "processedExits",
      "outputs": [
        {
          "internalType": "bool",
          "name": "",
          "type": "bool"
        }
      ],
      "stateMutability": "view",
      "type": "function"
    },
    {
      "inputs": [
        {
          "internalType": "bytes",
          "name": "inputData",
          "type": "bytes"
        }
      ],
      "name": "receiveMessage",
      "outputs": [],
      "stateMutability": "nonpayable",
      "type": "function"
    },
    {
      "inputs": [
        {
          "internalType": "address",
          "name": "",
          "type": "address"
        }
      ],
      "name": "rootToChildToken",
      "outputs": [
        {
          "internalType": "address",
          "name": "",
          "type": "address"
        }
      ],
      "stateMutability": "view",
      "type": "function"
    },
    {
      "inputs": [
        {
          "internalType": "address",
          "name": "_fxChildTunnel",
          "type": "address"
        }
      ],
      "name": "setFxChildTunnel",
      "outputs": [],
      "stateMutability": "nonpayable",
      "type": "function"
    },
    {
      "inputs": [
        {
          "internalType": "bytes4",
          "name": "interfaceId",
          "type": "bytes4"
        }
      ],
      "name": "supportsInterface",
      "outputs": [
        {
          "internalType": "bool",
          "name": "",
          "type": "bool"
        }
      ],
      "stateMutability": "view",
      "type": "function"
    }
  ],
  "transactionHash": "0x20aa530ac9e47056af3f492cab8b51ed2606aa618d36cd556e767e23cacbb4e9",
  "args": [
    "0x2890bA17EfE978480615e330ecB65333b880928e",
    "0x3d1d3E34f7fB6D26245E6640E1c50710eFFf15bA",
    "0xD4C5A8D58849e7676860655BF507B8e7A6FDd830",
    "0x3f547F87251710F70109Ae0409d461b270709693"
  ],
  "numDeployments": 1,
  "solcInputHash": "fb432a57aed8866da2ee67ecc6cbea74",
  "bytecode": "0x60c06040523480156200001157600080fd5b506040516200391738038062003917833981016040819052620000349162000215565b600180546001600160a01b03199081166001600160a01b0387811691909117835560008054909216908616179055849084908490849081908190620000a790634fc3585960e01b906200009262000136602090811b6200083117901c565b6200016c60201b6200085f179092919060201c565b6001600160a01b03166080525060408051693d602d80600a3d3981f360b01b602082015269363d3d373d3d3d363d7360b01b602a8201526001600160601b0319606085901b1660348201526e5af43d82803e903d91602b57fd5bf360881b6048820152815180820360370181526057909101909152805160209091012060a052506200029f9650505050505050565b6000806200016660017fca9d3e17f264b0f3984e2634e94adb37fa3e6a8103f06aeae6fa59e21c769f5e6200027d565b92915050565b600160e01b6001600160e01b0319831601620001ce5760405162461bcd60e51b815260206004820152601f60248201527f496e74657266616365446574656374696f6e3a2077726f6e672076616c756500604482015260640160405180910390fd5b6001600160e01b03199190911660009081526020929092526040909120805460ff1916911515919091179055565b6001600160a01b03811681146200021257600080fd5b50565b600080600080608085870312156200022c57600080fd5b84516200023981620001fc565b60208601519094506200024c81620001fc565b60408601519093506200025f81620001fc565b60608601519092506200027281620001fc565b939692955090935050565b818103818111156200016657634e487b7160e01b600052601160045260246000fd5b60805160a051613636620002e16000396000818161033501526107590152600081816101b50152818161026301528181610a880152610b1001526136366000f3fe608060405234801561001057600080fd5b50600436106101515760003560e01c8063972c4928116100cd578063de9b771f11610081578063f213159c11610066578063f213159c146103f4578063f4a120f714610407578063f953cec71461041a57600080fd5b8063de9b771f1461039e578063ea60c7c4146103be57600080fd5b8063b3e37c18116100b2578063b3e37c1814610330578063c0857ba014610357578063d81c8e521461037757600080fd5b8063972c4928146102fd578063aea4e49e1461031d57600080fd5b80634fc3585911610124578063607f2d4211610109578063607f2d42146102a05780637337957f146102c3578063886a69ba146102d657600080fd5b80634fc358591461020f578063572b6c051461025357600080fd5b806301ffc9a7146101565780630e387de61461017e5780632b4c9f16146101b357806347e7ef24146101fa575b600080fd5b610169610164366004612d0f565b61042d565b60405190151581526020015b60405180910390f35b6101a57f8c5261668696ce22758910d05bab8f186d6eb247ceac2af2e82c7dc17669b03681565b604051908152602001610175565b7f00000000000000000000000000000000000000000000000000000000000000005b60405173ffffffffffffffffffffffffffffffffffffffff9091168152602001610175565b61020d610208366004612d76565b610447565b005b61022261021d366004612da2565b610464565b6040517fffffffff000000000000000000000000000000000000000000000000000000009091168152602001610175565b610169610261366004612e41565b7f000000000000000000000000000000000000000000000000000000000000000073ffffffffffffffffffffffffffffffffffffffff90811691161490565b6101696102ae366004612e5e565b60036020526000908152604090205460ff1681565b6101d56102d1366004612e77565b6104b4565b6101a57f2cef46a936bdc5b7e6e8c71aa04560c41cf7d88bb26901a7e7f4936ff02accad81565b6002546101d59073ffffffffffffffffffffffffffffffffffffffff1681565b61020d61032b366004612e41565b61053c565b6101a57f000000000000000000000000000000000000000000000000000000000000000081565b6001546101d59073ffffffffffffffffffffffffffffffffffffffff1681565b6101a57f87a7811f4bfedea3d341ad165680ae306b01aaeacc205d227629cf157dd9f82181565b6000546101d59073ffffffffffffffffffffffffffffffffffffffff1681565b6101d56103cc366004612e41565b60046020526000908152604090205473ffffffffffffffffffffffffffffffffffffffff1681565b61020d610402366004612eb0565b61062e565b61020d610415366004612e41565b610641565b61020d610428366004612fb5565b610817565b60006104418261043b610831565b9061096b565b92915050565b6000610451610a45565b905061045f83828385610b8c565b505050565b600084821561047c5761047983850185612e41565b90505b61048833878388610bb2565b507f4fc35859000000000000000000000000000000000000000000000000000000009695505050505050565b604080517fff00000000000000000000000000000000000000000000000000000000000000602080830191909152606084901b7fffffffffffffffffffffffffffffffffffffffff00000000000000000000000016602183015260358201869052605580830186905283518084039091018152607590920190925280519101205b9392505050565b60025473ffffffffffffffffffffffffffffffffffffffff16156105e7576040517f08c379a000000000000000000000000000000000000000000000000000000000815260206004820152602a60248201527f467842617365526f6f7454756e6e656c3a204348494c445f54554e4e454c5f4160448201527f4c52454144595f5345540000000000000000000000000000000000000000000060648201526084015b60405180910390fd5b600280547fffffffffffffffffffffffff00000000000000000000000000000000000000001673ffffffffffffffffffffffffffffffffffffffff92909216919091179055565b61045f8361063a610a45565b8484610b8c565b73ffffffffffffffffffffffffffffffffffffffff81811660009081526004602052604090205416156106715750565b6107007f2cef46a936bdc5b7e6e8c71aa04560c41cf7d88bb26901a7e7f4936ff02accad8261069f84610bc0565b6040516020016106b09291906130a3565b604080517fffffffffffffffffffffffffffffffffffffffffffffffffffffffffffffffe0818403018152908290526106ec92916020016130d2565b604051602081830303815290604052610f17565b60408051606083901b7fffffffffffffffffffffffffffffffffffffffff0000000000000000000000001660208083019190915282516014818403018152603490920190925280519101206002546000906107949083907f00000000000000000000000000000000000000000000000000000000000000009073ffffffffffffffffffffffffffffffffffffffff166104b4565b73ffffffffffffffffffffffffffffffffffffffff84811660008181526004602052604080822080547fffffffffffffffffffffffff000000000000000000000000000000000000000016948616948517905551939450919290917fc21cd413746aa9146d86960ed90847c18aa555d8dfd256e0aac3954c41e3cfe291a3505050565b600061082282610fa8565b905061082d8161138a565b5050565b60008061044160017fca9d3e17f264b0f3984e2634e94adb37fa3e6a8103f06aeae6fa59e21c769f5e61311a565b7c01000000000000000000000000000000000000000000000000000000007fffffffff00000000000000000000000000000000000000000000000000000000831601610907576040517f08c379a000000000000000000000000000000000000000000000000000000000815260206004820152601f60248201527f496e74657266616365446574656374696f6e3a2077726f6e672076616c75650060448201526064016105de565b7fffffffff00000000000000000000000000000000000000000000000000000000919091166000908152602092909252604090912080547fffffffffffffffffffffffffffffffffffffffffffffffffffffffffffffff0016911515919091179055565b60007c01000000000000000000000000000000000000000000000000000000007fffffffff000000000000000000000000000000000000000000000000000000008316016109bb57506000610441565b7ffe003659000000000000000000000000000000000000000000000000000000007fffffffff00000000000000000000000000000000000000000000000000000000831601610a0c57506001610441565b507fffffffff00000000000000000000000000000000000000000000000000000000166000908152602091909152604090205460ff1690565b600033321480610a555750601836105b15610a5f57503390565b7fffffffffffffffffffffffffffffffffffffffffffffffffffffffffffffffec36013560601c7f000000000000000000000000000000000000000000000000000000000000000073ffffffffffffffffffffffffffffffffffffffff16331480610b7b57506040517f8929a8ca00000000000000000000000000000000000000000000000000000000815273ffffffffffffffffffffffffffffffffffffffff82811660048301523360248301527f00000000000000000000000000000000000000000000000000000000000000001690638929a8ca90604401602060405180830381865afa158015610b57573d6000803e3d6000fd5b505050506040513d601f19601f82011682018060405250810190610b7b919061312d565b15610b8557919050565b3391505090565b610b9584610641565b610ba08484836114cd565b610bac848484846114ef565b50505050565b610bbb84610641565b610ba0565b606060008273ffffffffffffffffffffffffffffffffffffffff166318160ddd6040518163ffffffff1660e01b8152600401602060405180830381865afa158015610c0f573d6000803e3d6000fd5b505050506040513d601f19601f82011682018060405250810190610c33919061314f565b9050600083905060008173ffffffffffffffffffffffffffffffffffffffff166306fdde036040518163ffffffff1660e01b8152600401600060405180830381865afa158015610c87573d6000803e3d6000fd5b505050506040513d6000823e601f3d9081017fffffffffffffffffffffffffffffffffffffffffffffffffffffffffffffffe0168201604052610ccd9190810190613198565b905060008273ffffffffffffffffffffffffffffffffffffffff166395d89b416040518163ffffffff1660e01b8152600401600060405180830381865afa158015610d1c573d6000803e3d6000fd5b505050506040513d6000823e601f3d9081017fffffffffffffffffffffffffffffffffffffffffffffffffffffffffffffffe0168201604052610d629190810190613198565b905060008373ffffffffffffffffffffffffffffffffffffffff1663313ce5676040518163ffffffff1660e01b8152600401602060405180830381865afa158015610db1573d6000803e3d6000fd5b505050506040513d601f19601f82011682018060405250810190610dd591906131e1565b905060008773ffffffffffffffffffffffffffffffffffffffff16633c130d906040518163ffffffff1660e01b8152600401600060405180830381865afa158015610e24573d6000803e3d6000fd5b505050506040513d6000823e601f3d9081017fffffffffffffffffffffffffffffffffffffffffffffffffffffffffffffffe0168201604052610e6a9190810190613198565b905060008873ffffffffffffffffffffffffffffffffffffffff16638da5cb5b6040518163ffffffff1660e01b8152600401602060405180830381865afa158015610eb9573d6000803e3d6000fd5b505050506040513d601f19601f82011682018060405250810190610edd9190613204565b9050868585858585604051602001610efa96959493929190613221565b604051602081830303815290604052975050505050505050919050565b6000546002546040517fb472047700000000000000000000000000000000000000000000000000000000815273ffffffffffffffffffffffffffffffffffffffff9283169263b472047792610f739291169085906004016130a3565b600060405180830381600087803b158015610f8d57600080fd5b505af1158015610fa1573d6000803e3d6000fd5b5050505050565b60606000610fb583611608565b90506000610fc282611667565b90506000610fcf83611690565b9050600081610fdd846116b9565b610fe6866118a7565b604051602001610ff893929190613293565b604080517fffffffffffffffffffffffffffffffffffffffffffffffffffffffffffffffe081840301815291815281516020928301206000818152600390935291205490915060ff16156110cd576040517f08c379a0000000000000000000000000000000000000000000000000000000008152602060048201526024808201527f4678526f6f7454756e6e656c3a20455849545f414c52454144595f50524f434560448201527f535345440000000000000000000000000000000000000000000000000000000060648201526084016105de565b600081815260036020526040812080547fffffffffffffffffffffffffffffffffffffffffffffffffffffffffffffff0016600117905561110d856118c3565b9050600061111a82611a0d565b905061112581611a9d565b60025473ffffffffffffffffffffffffffffffffffffffff9081169116146111cf576040517f08c379a000000000000000000000000000000000000000000000000000000000815260206004820152602560248201527f4678526f6f7454756e6e656c3a20494e56414c49445f46585f4348494c445f5460448201527f554e4e454c00000000000000000000000000000000000000000000000000000060648201526084016105de565b60006111da87611ac6565b90506111fa6111ea846020015190565b876111f48a611ae2565b84611afe565b611286576040517f08c379a000000000000000000000000000000000000000000000000000000000815260206004820152602360248201527f4678526f6f7454756e6e656c3a20494e56414c49445f524543454950545f505260448201527f4f4f46000000000000000000000000000000000000000000000000000000000060648201526084016105de565b6112b48561129389611db1565b61129c8a611dcd565b846112a68c611de9565b6112af8d611e05565b611e21565b5060006112c083611f87565b90507f8c5261668696ce22758910d05bab8f186d6eb247ceac2af2e82c7dc17669b0366112f66112f1836000611fc3565b611ffb565b1461135d576040517f08c379a000000000000000000000000000000000000000000000000000000000815260206004820152601f60248201527f4678526f6f7454756e6e656c3a20494e56414c49445f5349474e41545552450060448201526064016105de565b600061136884612076565b80602001905181019061137b9190613198565b9b9a5050505050505050505050565b600080600080848060200190518101906113a491906132c0565b73ffffffffffffffffffffffffffffffffffffffff8085166000908152600460205260409020549498509296509094509250908116908416811461143c576040517f3855947700000000000000000000000000000000000000000000000000000000815273ffffffffffffffffffffffffffffffffffffffff80871660048301528086166024830152821660448201526064016105de565b611447858484612092565b8273ffffffffffffffffffffffffffffffffffffffff168473ffffffffffffffffffffffffffffffffffffffff168673ffffffffffffffffffffffffffffffffffffffff167f1a77c658a097b28097b54b8acb928a569a3830a6cbed2de1f60001c0757eb0d6856040516114bd91815260200190565b60405180910390a4505050505050565b61045f73ffffffffffffffffffffffffffffffffffffffff84168330846120b3565b6040805173ffffffffffffffffffffffffffffffffffffffff8681166020830152858116828401528416606082015260808082018490528251808303909101815260a08201909252600091611569917f87a7811f4bfedea3d341ad165680ae306b01aaeacc205d227629cf157dd9f821919060c0016130d2565b604051602081830303815290604052905061158381610f17565b8273ffffffffffffffffffffffffffffffffffffffff168473ffffffffffffffffffffffffffffffffffffffff168673ffffffffffffffffffffffffffffffffffffffff167f8a58355ceb4626422a66b0f36743672dde8507c6be664f0e5b9de8350a132159856040516115f991815260200190565b60405180910390a45050505050565b604080516020810190915260608152600061165261164d8460408051808201825260008082526020918201528151808301909252825182529182019181019190915290565b61218f565b60408051602081019091529081529392505050565b6060610441826000015160088151811061168357611683613313565b60200260200101516122a5565b600061044182600001516002815181106116ac576116ac613313565b6020026020010151611ffb565b60408051602081019091526000815281516060919015610441576000806116e1600086612342565b60f81c905060018114806116f857508060ff166003145b156117b85760018551600261170d9190613342565b611717919061311a565b67ffffffffffffffff81111561172f5761172f612ef1565b6040519080825280601f01601f191660200182016040528015611759576020820181803683370190505b5092506000611769600187612342565b9050808460008151811061177f5761177f613313565b60200101907effffffffffffffffffffffffffffffffffffffffffffffffffffffffffffff1916908160001a905350600192505061181c565b6002855160026117c89190613342565b6117d2919061311a565b67ffffffffffffffff8111156117ea576117ea612ef1565b6040519080825280601f01601f191660200182016040528015611814576020820181803683370190505b509250600091505b60ff82165b835181101561189e5761184b61183a60ff85168361311a565b611845906002613359565b87612342565b84828151811061185d5761185d613313565b60200101907effffffffffffffffffffffffffffffffffffffffffffffffffffffffffffff1916908160001a905350806118968161336c565b915050611821565b50505092915050565b600061044182600001516009815181106116ac576116ac613313565b6118e760405180606001604052806060815260200160608152602001600081525090565b611901826000015160068151811061168357611683613313565b602082810182905260408051808201825260008082529083015280518082019091528251815291810190820152611937816123c3565b1561194c576119458161218f565b82526119f9565b602082015180516000906119629060019061311a565b67ffffffffffffffff81111561197a5761197a612ef1565b6040519080825280601f01601f1916602001820160405280156119a4576020820181803683370190505b5090506000808360210191508260200190506119c2828285516123fe565b6040805180820182526000808252602091820152815180830190925284518252808501908201526119f29061218f565b8652505050505b611a02836118a7565b604083015250919050565b604080516080810182526000918101828152606080830193909352815260208101919091526000611a5b8360000151600381518110611a4e57611a4e613313565b602002602001015161218f565b836040015181518110611a7057611a70613313565b602002602001015190506040518060400160405280828152602001611a948361218f565b90529392505050565b60006104418260200151600081518110611ab957611ab9613313565b6020026020010151612489565b600061044182600001516005815181106116ac576116ac613313565b6060610441826000015160078151811061168357611683613313565b600080611b328460408051808201825260008082526020918201528151808301909252825182529182019181019190915290565b90506000611b3f8261218f565b905060608085600080611b518b6116b9565b90508051600003611b6c576000975050505050505050611da9565b60005b8651811015611da0578151831115611b9257600098505050505050505050611da9565b611bb4878281518110611ba757611ba7613313565b60200260200101516124a3565b955085805190602001208414611bd557600098505050505050505050611da9565b611bea878281518110611a4e57611a4e613313565b94508451601103611cbc5781518303611c49578c80519060200120611c1b8660108151811061168357611683613313565b8051906020012003611c3857600198505050505050505050611da9565b600098505050505050505050611da9565b6000828481518110611c5d57611c5d613313565b016020015160f81c90506010811115611c825760009950505050505050505050611da9565b611ca7868260ff1681518110611c9a57611c9a613313565b6020026020010151612522565b9450611cb4600185613359565b935050611d8e565b8451600203611c38576000611ce7611ce08760008151811061168357611683613313565b8486612550565b8351909150611cf68286613359565b03611d49578d80519060200120611d198760018151811061168357611683613313565b8051906020012003611d375760019950505050505050505050611da9565b60009950505050505050505050611da9565b80600003611d635760009950505050505050505050611da9565b611d6d8185613359565b9350611d8586600181518110611c9a57611c9a613313565b9450611d8e9050565b80611d988161336c565b915050611b6f565b50505050505050505b949350505050565b600061044182600001516003815181106116ac576116ac613313565b600061044182600001516004815181106116ac576116ac613313565b600061044182600001516000815181106116ac576116ac613313565b6060610441826000015160018151811061168357611683613313565b6001546040517f41539d4a0000000000000000000000000000000000000000000000000000000081526004810184905260009182918291829173ffffffffffffffffffffffffffffffffffffffff909116906341539d4a9060240160a060405180830381865afa158015611e99573d6000803e3d6000fd5b505050506040513d601f19601f82011682018060405250810190611ebd91906133a4565b5093505092509250611f14828b611ed4919061311a565b6040805160208082018f90528183018e9052606082018d905260808083018d90528351808403909101815260a09092019092528051910120908588612688565b611f7a576040517f08c379a000000000000000000000000000000000000000000000000000000000815260206004820152601c60248201527f4678526f6f7454756e6e656c3a20494e56414c49445f4845414445520000000060448201526064016105de565b9998505050505050505050565b6040805160208101909152606081526040518060200160405280611fbb8460200151600181518110611a4e57611a4e613313565b905292915050565b60408051808201909152600080825260208201528251805183908110611feb57611feb613313565b6020026020010151905092915050565b80516000901580159061201057508151602110155b61201957600080fd5b60006120288360200151612835565b9050600081846000015161203c919061311a565b90506000808386602001516120519190613359565b905080519150602083101561206d57826020036101000a820491505b50949350505050565b6060610441826020015160028151811061168357611683613313565b61045f73ffffffffffffffffffffffffffffffffffffffff841683836128b0565b60405173ffffffffffffffffffffffffffffffffffffffff80851660248301528316604482015260648101829052610bac9085907f23b872dd00000000000000000000000000000000000000000000000000000000906084015b604080517fffffffffffffffffffffffffffffffffffffffffffffffffffffffffffffffe08184030181529190526020810180517bffffffffffffffffffffffffffffffffffffffffffffffffffffffff167fffffffff0000000000000000000000000000000000000000000000000000000090931692909217909152612906565b606061219a826123c3565b6121a357600080fd5b60006121ae83612a12565b905060008167ffffffffffffffff8111156121cb576121cb612ef1565b60405190808252806020026020018201604052801561221057816020015b60408051808201909152600080825260208201528152602001906001900390816121e95790505b50905060006122228560200151612835565b85602001516122319190613359565b90506000805b8481101561229a5761224883612a97565b915060405180604001604052808381526020018481525084828151811061227157612271613313565b60209081029190910101526122868284613359565b9250806122928161336c565b915050612237565b509195945050505050565b80516060906122b357600080fd5b60006122c28360200151612835565b905060008184600001516122d6919061311a565b905060008167ffffffffffffffff8111156122f3576122f3612ef1565b6040519080825280601f01601f19166020018201604052801561231d576020820181803683370190505b509050600081602001905061206d84876020015161233b9190613359565b8285612b59565b600061234f600284613420565b1561238957601082612362600286613434565b8151811061237257612372613313565b0160200151612384919060f81c613448565b6123b9565b601082612397600286613434565b815181106123a7576123a7613313565b01602001516123b9919060f81c61346a565b60f81b9392505050565b805160009081036123d657506000919050565b6020820151805160001a9060c08210156123f4575060009392505050565b5060019392505050565b8060000361240b57505050565b602081106124435782518252612422602084613359565b925061242f602083613359565b915061243c60208261311a565b905061240b565b8060000361245057505050565b6000600161245f83602061311a565b61246b906101006135ac565b612475919061311a565b935183518516941916939093179091525050565b805160009060151461249a57600080fd5b61044182611ffb565b60606000826000015167ffffffffffffffff8111156124c4576124c4612ef1565b6040519080825280601f01601f1916602001820160405280156124ee576020820181803683370190505b50905080516000036125005792915050565b600081602001905061251b8460200151828660000151612b59565b5092915050565b805160009060211461253357600080fd5b600080836020015160016125479190613359565b51949350505050565b6000808061255d866116b9565b90506000815167ffffffffffffffff81111561257b5761257b612ef1565b6040519080825280601f01601f1916602001820160405280156125a5576020820181803683370190505b509050845b82516125b69087613359565b8110156126595760008782815181106125d1576125d1613313565b01602001517fff000000000000000000000000000000000000000000000000000000000000001690508083612606898561311a565b8151811061261657612616613313565b60200101907effffffffffffffffffffffffffffffffffffffffffffffffffffffffffffff1916908160001a9053505080806126519061336c565b9150506125aa565b508080519060200120828051906020012003612678578151925061267d565b600092505b509095945050505050565b6000602082516126989190613420565b156126ff576040517f08c379a000000000000000000000000000000000000000000000000000000000815260206004820152601460248201527f496e76616c69642070726f6f66206c656e67746800000000000000000000000060448201526064016105de565b60006020835161270f9190613434565b905061271c8160026135ac565b8510612784576040517f08c379a000000000000000000000000000000000000000000000000000000000815260206004820152601560248201527f4c65616620696e64657820697320746f6f20626967000000000000000000000060448201526064016105de565b60008660205b85518111612827578581015192506127a3600289613420565b6000036127db576040805160208101849052908101849052606001604051602081830303815290604052805190602001209150612808565b60408051602081018590529081018390526060016040516020818303038152906040528051906020012091505b612813600289613434565b9750612820602082613359565b905061278a565b509094149695505050505050565b8051600090811a608081101561284e5750600092915050565b60b8811080612869575060c08110801590612869575060f881105b156128775750600192915050565b60c08110156128a45761288c600160b86135b8565b6128999060ff168261311a565b610535906001613359565b61288c600160f86135b8565b60405173ffffffffffffffffffffffffffffffffffffffff831660248201526044810182905261045f9084907fa9059cbb000000000000000000000000000000000000000000000000000000009060640161210d565b6000612968826040518060400160405280602081526020017f5361666545524332303a206c6f772d6c6576656c2063616c6c206661696c65648152508573ffffffffffffffffffffffffffffffffffffffff16612b9e9092919063ffffffff16565b80519091501561045f5780806020019051810190612986919061312d565b61045f576040517f08c379a000000000000000000000000000000000000000000000000000000000815260206004820152602a60248201527f5361666545524332303a204552433230206f7065726174696f6e20646964206e60448201527f6f7420737563636565640000000000000000000000000000000000000000000060648201526084016105de565b80516000908103612a2557506000919050565b600080612a358460200151612835565b8460200151612a449190613359565b9050600084600001518560200151612a5c9190613359565b90505b80821015612a8e57612a7082612a97565b612a7a9083613359565b915082612a868161336c565b935050612a5f565b50909392505050565b80516000908190811a6080811015612ab2576001915061251b565b60b8811015612ad857612ac660808261311a565b612ad1906001613359565b915061251b565b60c0811015612b055760b78103600185019450806020036101000a8551046001820181019350505061251b565b60f8811015612b1957612ac660c08261311a565b60019390930151602084900360f7016101000a90049092017fffffffffffffffffffffffffffffffffffffffffffffffffffffffffffffff0a0192915050565b80600003612b6657505050565b602081106124435782518252612b7d602084613359565b9250612b8a602083613359565b9150612b9760208261311a565b9050612b66565b6060611da98484600085856000808673ffffffffffffffffffffffffffffffffffffffff168587604051612bd291906135d1565b60006040518083038185875af1925050503d8060008114612c0f576040519150601f19603f3d011682016040523d82523d6000602084013e612c14565b606091505b5091509150612c2587838387612c30565b979650505050505050565b60608315612cc6578251600003612cbf5773ffffffffffffffffffffffffffffffffffffffff85163b612cbf576040517f08c379a000000000000000000000000000000000000000000000000000000000815260206004820152601d60248201527f416464726573733a2063616c6c20746f206e6f6e2d636f6e747261637400000060448201526064016105de565b5081611da9565b611da98383815115612cdb5781518083602001fd5b806040517f08c379a00000000000000000000000000000000000000000000000000000000081526004016105de91906135ed565b600060208284031215612d2157600080fd5b81357fffffffff000000000000000000000000000000000000000000000000000000008116811461053557600080fd5b73ffffffffffffffffffffffffffffffffffffffff81168114612d7357600080fd5b50565b60008060408385031215612d8957600080fd5b8235612d9481612d51565b946020939093013593505050565b600080600080600060808688031215612dba57600080fd5b8535612dc581612d51565b94506020860135612dd581612d51565b935060408601359250606086013567ffffffffffffffff80821115612df957600080fd5b818801915088601f830112612e0d57600080fd5b813581811115612e1c57600080fd5b896020828501011115612e2e57600080fd5b9699959850939650602001949392505050565b600060208284031215612e5357600080fd5b813561053581612d51565b600060208284031215612e7057600080fd5b5035919050565b600080600060608486031215612e8c57600080fd5b83359250602084013591506040840135612ea581612d51565b809150509250925092565b600080600060608486031215612ec557600080fd5b8335612ed081612d51565b92506020840135612ee081612d51565b929592945050506040919091013590565b7f4e487b7100000000000000000000000000000000000000000000000000000000600052604160045260246000fd5b604051601f82017fffffffffffffffffffffffffffffffffffffffffffffffffffffffffffffffe016810167ffffffffffffffff81118282101715612f6757612f67612ef1565b604052919050565b600067ffffffffffffffff821115612f8957612f89612ef1565b50601f017fffffffffffffffffffffffffffffffffffffffffffffffffffffffffffffffe01660200190565b600060208284031215612fc757600080fd5b813567ffffffffffffffff811115612fde57600080fd5b8201601f81018413612fef57600080fd5b8035613002612ffd82612f6f565b612f20565b81815285602083850101111561301757600080fd5b81602084016020830137600091810160200191909152949350505050565b60005b83811015613050578181015183820152602001613038565b50506000910152565b60008151808452613071816020860160208601613035565b601f017fffffffffffffffffffffffffffffffffffffffffffffffffffffffffffffffe0169290920160200192915050565b73ffffffffffffffffffffffffffffffffffffffff83168152604060208201526000611da96040830184613059565b828152604060208201526000611da96040830184613059565b7f4e487b7100000000000000000000000000000000000000000000000000000000600052601160045260246000fd5b81810381811115610441576104416130eb565b60006020828403121561313f57600080fd5b8151801515811461053557600080fd5b60006020828403121561316157600080fd5b5051919050565b6000613176612ffd84612f6f565b905082815283838301111561318a57600080fd5b610535836020830184613035565b6000602082840312156131aa57600080fd5b815167ffffffffffffffff8111156131c157600080fd5b8201601f810184136131d257600080fd5b611da984825160208401613168565b6000602082840312156131f357600080fd5b815160ff8116811461053557600080fd5b60006020828403121561321657600080fd5b815161053581612d51565b86815260c06020820152600061323a60c0830188613059565b828103604084015261324c8188613059565b905060ff8616606084015282810360808401526132698186613059565b91505073ffffffffffffffffffffffffffffffffffffffff831660a0830152979650505050505050565b838152600083516132ab816020850160208801613035565b60209201918201929092526040019392505050565b600080600080608085870312156132d657600080fd5b84516132e181612d51565b60208601519094506132f281612d51565b604086015190935061330381612d51565b6060959095015193969295505050565b7f4e487b7100000000000000000000000000000000000000000000000000000000600052603260045260246000fd5b8082028115828204841417610441576104416130eb565b80820180821115610441576104416130eb565b60007fffffffffffffffffffffffffffffffffffffffffffffffffffffffffffffffff820361339d5761339d6130eb565b5060010190565b600080600080600060a086880312156133bc57600080fd5b8551945060208601519350604086015192506060860151915060808601516133e381612d51565b809150509295509295909350565b7f4e487b7100000000000000000000000000000000000000000000000000000000600052601260045260246000fd5b60008261342f5761342f6133f1565b500690565b600082613443576134436133f1565b500490565b600060ff83168061345b5761345b6133f1565b8060ff84160691505092915050565b600060ff83168061347d5761347d6133f1565b8060ff84160491505092915050565b600181815b808511156134e557817fffffffffffffffffffffffffffffffffffffffffffffffffffffffffffffffff048211156134cb576134cb6130eb565b808516156134d857918102915b93841c9390800290613491565b509250929050565b6000826134fc57506001610441565b8161350957506000610441565b816001811461351f576002811461352957613545565b6001915050610441565b60ff84111561353a5761353a6130eb565b50506001821b610441565b5060208310610133831016604e8410600b8410161715613568575081810a610441565b613572838361348c565b807fffffffffffffffffffffffffffffffffffffffffffffffffffffffffffffffff048211156135a4576135a46130eb565b029392505050565b600061053583836134ed565b60ff8281168282160390811115610441576104416130eb565b600082516135e3818460208701613035565b9190910192915050565b602081526000610535602083018461305956fea26469706673582212209e65a8c8f4b5f6b0a2b541bac7dea59d4ac35a7b6c93ad40f2d7813f2fcd591464736f6c63430008110033",
  "devdoc": {
    "errors": {
      "FxERC20InvalidMappingOnExit(address,address,address)": [
        {
          "params": {
            "actualRootToken": "The actual root token.",
            "childToken": "The child token.",
            "expectedRootToken": "The expected root token."
          }
        }
      ]
    },
    "kind": "dev",
    "methods": {
      "deposit(address,uint256)": {
        "details": "Reverts if the token transfer fails for any reason.",
        "params": {
          "amount": "The amount of tokens to deposit.",
          "rootToken": "The ERC20 root token."
        }
      },
      "depositTo(address,address,uint256)": {
        "details": "Reverts with `FxERC20TokenNotMapped` if `childToken has not been deployed through a mapping request.Reverts if the token transfer fails for any reason.",
        "params": {
          "amount": "The amount of tokens to deposit.",
          "receiver": "The account receiving the deposit.",
          "rootToken": "The ERC20 root token."
        }
      },
      "isTrustedForwarder(address)": {
        "params": {
          "forwarder": "The forwarder to check."
        },
        "returns": {
          "_0": "True if `forwarder` is trusted, false if not."
        }
      },
      "mapToken(address)": {
        "params": {
          "rootToken": "address of token on root chain"
        }
      },
      "onERC20Received(address,address,uint256,bytes)": {
        "params": {
          "data": "Empty if the receiver is the same as the tokens sender, else the abi-encoded address of the receiver.",
          "from": "The previous tokens owner.",
          "value": "The amount of tokens transferred."
        },
        "returns": {
          "magicValue": "`bytes4(keccak256(\"onERC20Received(address,address,uint256,bytes)\"))` (`0x4fc35859`) to accept, any other value to refuse."
        }
      },
      "receiveMessage(bytes)": {
        "details": "This function verifies if the transaction actually happened on child chain",
        "params": {
          "inputData": "RLP encoded data of the reference tx containing following list of fields  0 - headerNumber - Checkpoint header block number containing the reference tx  1 - blockProof - Proof that the block header (in the child chain) is a leaf in the submitted merkle root  2 - blockNumber - Block number containing the reference tx on child chain  3 - blockTime - Reference tx block time  4 - txRoot - Transactions root of block  5 - receiptRoot - Receipts root of block  6 - receipt - Receipt of the reference transaction  7 - receiptProof - Merkle proof of the reference receipt  8 - branchMask - 32 bits denoting the path of receipt in merkle tree  9 - receiptLogIndex - Log Index to read from the receipt"
        }
      },
      "supportsInterface(bytes4)": {
        "details": "Note: This function call must use less than 30 000 gas.",
        "params": {
          "interfaceId": "the interface identifier to test."
        },
        "returns": {
          "_0": "True if the interface is supported, false if `interfaceId` is `0xffffffff` or if the interface is not supported."
        }
      }
    },
    "title": "FxERC20FixedSupplyRootTunnel",
    "version": 1
  },
  "userdoc": {
    "errors": {
      "FxERC20InvalidMappingOnExit(address,address,address)": [
        {
          "notice": "Thrown when a deposit request refers to an invalid token mapping."
        }
      ]
    },
    "events": {
      "FxDepositERC20(address,address,address,uint256)": {
        "notice": "Emitted when some ERC20 token has been deposited."
      },
      "FxWithdrawERC20(address,address,address,uint256)": {
        "notice": "Emitted when some ERC20 token has been withdrawn."
      },
      "TokenMappedERC20(address,address)": {
        "notice": "Emitted when an ERC20 token has been mapped."
      }
    },
    "kind": "user",
    "methods": {
      "deposit(address,uint256)": {
        "notice": "Deposits an `amount` of `rootToken` by and for the message sender.Note: Approval for `amount` of `rootToken` must have been previously given to this contract."
      },
      "depositTo(address,address,uint256)": {
        "notice": "Deposits an `amount` of `rootToken` by the message sender and for a `receiver`.Note: Approval for `amount` of `rootToken` must have been previously given to this contract."
      },
      "isTrustedForwarder(address)": {
        "notice": "Checks whether a forwarder is trusted."
      },
      "mapToken(address)": {
        "notice": "Map a token to enable its movement via the Fx Portal"
      },
      "receiveMessage(bytes)": {
        "notice": "receive message from  L2 to L1, validated by proof"
      },
      "supportsInterface(bytes4)": {
        "notice": "Returns whether this contract implements a given interface."
      }
    },
    "notice": "Fx root fixed supply ERC20 tunnel.",
    "version": 1
  },
  "storageLayout": {
    "storage": [
      {
        "astId": 6810,
        "contract": "contracts/fx-portal/ERC20/tunnel/FxERC20FixedSupplyRootTunnel.sol:FxERC20FixedSupplyRootTunnel",
        "label": "fxRoot",
        "offset": 0,
        "slot": "0",
        "type": "t_contract(IFxStateSender)6760"
      },
      {
        "astId": 6813,
        "contract": "contracts/fx-portal/ERC20/tunnel/FxERC20FixedSupplyRootTunnel.sol:FxERC20FixedSupplyRootTunnel",
        "label": "checkpointManager",
        "offset": 0,
        "slot": "1",
        "type": "t_contract(ICheckpointManager)6778"
      },
      {
        "astId": 6815,
        "contract": "contracts/fx-portal/ERC20/tunnel/FxERC20FixedSupplyRootTunnel.sol:FxERC20FixedSupplyRootTunnel",
        "label": "fxChildTunnel",
        "offset": 0,
        "slot": "2",
        "type": "t_address"
      },
      {
        "astId": 6819,
        "contract": "contracts/fx-portal/ERC20/tunnel/FxERC20FixedSupplyRootTunnel.sol:FxERC20FixedSupplyRootTunnel",
        "label": "processedExits",
        "offset": 0,
        "slot": "3",
        "type": "t_mapping(t_bytes32,t_bool)"
      },
      {
        "astId": 10070,
        "contract": "contracts/fx-portal/ERC20/tunnel/FxERC20FixedSupplyRootTunnel.sol:FxERC20FixedSupplyRootTunnel",
        "label": "rootToChildToken",
        "offset": 0,
        "slot": "4",
        "type": "t_mapping(t_address,t_address)"
      }
    ],
    "types": {
      "t_address": {
        "encoding": "inplace",
        "label": "address",
        "numberOfBytes": "20"
      },
      "t_bool": {
        "encoding": "inplace",
        "label": "bool",
        "numberOfBytes": "1"
      },
      "t_bytes32": {
        "encoding": "inplace",
        "label": "bytes32",
        "numberOfBytes": "32"
      },
      "t_contract(ICheckpointManager)6778": {
        "encoding": "inplace",
        "label": "contract ICheckpointManager",
        "numberOfBytes": "20"
      },
      "t_contract(IFxStateSender)6760": {
        "encoding": "inplace",
        "label": "contract IFxStateSender",
        "numberOfBytes": "20"
      },
      "t_mapping(t_address,t_address)": {
        "encoding": "mapping",
        "key": "t_address",
        "label": "mapping(address => address)",
        "numberOfBytes": "32",
        "value": "t_address"
      },
      "t_mapping(t_bytes32,t_bool)": {
        "encoding": "mapping",
        "key": "t_bytes32",
        "label": "mapping(bytes32 => bool)",
        "numberOfBytes": "32",
        "value": "t_bool"
      }
    }
  }
}