{
  "address": "0x78e62b5BC6Dbf0D12f4fA324428da275A8050C0B",
  "abi": [
    {
      "inputs": [
        {
          "internalType": "address",
          "name": "checkpointManager",
          "type": "address"
        },
        {
          "internalType": "address",
          "name": "fxRoot",
          "type": "address"
        },
        {
          "internalType": "address",
          "name": "fxERC20Token",
          "type": "address"
        },
        {
          "internalType": "contract IForwarderRegistry",
          "name": "forwarderRegistry",
          "type": "address"
        }
      ],
      "stateMutability": "nonpayable",
      "type": "constructor"
    },
    {
      "inputs": [],
      "name": "FxERC20InvalidDepositAddress",
      "type": "error"
    },
    {
      "inputs": [
        {
          "internalType": "address",
          "name": "childToken",
          "type": "address"
        },
        {
          "internalType": "address",
          "name": "expectedRootToken",
          "type": "address"
        },
        {
          "internalType": "address",
          "name": "actualRootToken",
          "type": "address"
        }
      ],
      "name": "FxERC20InvalidMappingOnExit",
      "type": "error"
    },
    {
      "anonymous": false,
      "inputs": [
        {
          "indexed": true,
          "internalType": "address",
          "name": "rootToken",
          "type": "address"
        },
        {
          "indexed": true,
          "internalType": "address",
          "name": "childToken",
          "type": "address"
        },
        {
          "indexed": false,
          "internalType": "address",
          "name": "depositor",
          "type": "address"
        },
        {
          "indexed": false,
          "internalType": "address",
          "name": "recipient",
          "type": "address"
        },
        {
          "indexed": false,
          "internalType": "uint256",
          "name": "amount",
          "type": "uint256"
        }
      ],
      "name": "FxERC20Deposit",
      "type": "event"
    },
    {
      "anonymous": false,
      "inputs": [
        {
          "indexed": true,
          "internalType": "address",
          "name": "rootToken",
          "type": "address"
        },
        {
          "indexed": true,
          "internalType": "address",
          "name": "childToken",
          "type": "address"
        }
      ],
      "name": "FxERC20TokenMapping",
      "type": "event"
    },
    {
      "anonymous": false,
      "inputs": [
        {
          "indexed": true,
          "internalType": "address",
          "name": "rootToken",
          "type": "address"
        },
        {
          "indexed": true,
          "internalType": "address",
          "name": "childToken",
          "type": "address"
        },
        {
          "indexed": false,
          "internalType": "address",
          "name": "withdrawer",
          "type": "address"
        },
        {
          "indexed": false,
          "internalType": "address",
          "name": "recipient",
          "type": "address"
        },
        {
          "indexed": false,
          "internalType": "uint256",
          "name": "amount",
          "type": "uint256"
        }
      ],
      "name": "FxERC20Withdrawal",
      "type": "event"
    },
    {
      "inputs": [],
      "name": "DEPOSIT",
      "outputs": [
        {
          "internalType": "bytes32",
          "name": "",
          "type": "bytes32"
        }
      ],
      "stateMutability": "view",
      "type": "function"
    },
    {
      "inputs": [],
      "name": "MAP_TOKEN",
      "outputs": [
        {
          "internalType": "bytes32",
          "name": "",
          "type": "bytes32"
        }
      ],
      "stateMutability": "view",
      "type": "function"
    },
    {
      "inputs": [],
      "name": "SEND_MESSAGE_EVENT_SIG",
      "outputs": [
        {
          "internalType": "bytes32",
          "name": "",
          "type": "bytes32"
        }
      ],
      "stateMutability": "view",
      "type": "function"
    },
    {
      "inputs": [],
      "name": "checkpointManager",
      "outputs": [
        {
          "internalType": "contract ICheckpointManager",
          "name": "",
          "type": "address"
        }
      ],
      "stateMutability": "view",
      "type": "function"
    },
    {
      "inputs": [],
      "name": "childTokenProxyCodeHash",
      "outputs": [
        {
          "internalType": "bytes32",
          "name": "",
          "type": "bytes32"
        }
      ],
      "stateMutability": "view",
      "type": "function"
    },
    {
      "inputs": [
        {
          "internalType": "bytes32",
          "name": "salt",
          "type": "bytes32"
        },
        {
          "internalType": "bytes32",
          "name": "bytecodeHash",
          "type": "bytes32"
        },
        {
          "internalType": "address",
          "name": "deployer",
          "type": "address"
        }
      ],
      "name": "computedCreate2Address",
      "outputs": [
        {
          "internalType": "address",
          "name": "",
          "type": "address"
        }
      ],
      "stateMutability": "pure",
      "type": "function"
    },
    {
      "inputs": [
        {
          "internalType": "address",
          "name": "rootToken",
          "type": "address"
        },
        {
          "internalType": "uint256",
          "name": "amount",
          "type": "uint256"
        }
      ],
      "name": "deposit",
      "outputs": [],
      "stateMutability": "nonpayable",
      "type": "function"
    },
    {
      "inputs": [
        {
          "internalType": "address",
          "name": "rootToken",
          "type": "address"
        },
        {
          "internalType": "address",
          "name": "receiver",
          "type": "address"
        },
        {
          "internalType": "uint256",
          "name": "amount",
          "type": "uint256"
        }
      ],
      "name": "depositTo",
      "outputs": [],
      "stateMutability": "nonpayable",
      "type": "function"
    },
    {
      "inputs": [],
      "name": "forwarderRegistry",
      "outputs": [
        {
          "internalType": "contract IForwarderRegistry",
          "name": "",
          "type": "address"
        }
      ],
      "stateMutability": "view",
      "type": "function"
    },
    {
      "inputs": [],
      "name": "fxChildTunnel",
      "outputs": [
        {
          "internalType": "address",
          "name": "",
          "type": "address"
        }
      ],
      "stateMutability": "view",
      "type": "function"
    },
    {
      "inputs": [],
      "name": "fxRoot",
      "outputs": [
        {
          "internalType": "contract IFxStateSender",
          "name": "",
          "type": "address"
        }
      ],
      "stateMutability": "view",
      "type": "function"
    },
    {
      "inputs": [
        {
          "internalType": "address",
          "name": "forwarder",
          "type": "address"
        }
      ],
      "name": "isTrustedForwarder",
      "outputs": [
        {
          "internalType": "bool",
          "name": "",
          "type": "bool"
        }
      ],
      "stateMutability": "view",
      "type": "function"
    },
    {
      "inputs": [
        {
          "internalType": "address",
          "name": "rootToken",
          "type": "address"
        }
      ],
      "name": "mapToken",
      "outputs": [
        {
          "internalType": "address",
          "name": "childToken",
          "type": "address"
        }
      ],
      "stateMutability": "nonpayable",
      "type": "function"
    },
    {
      "inputs": [
        {
          "internalType": "address",
          "name": "",
          "type": "address"
        },
        {
          "internalType": "address",
          "name": "from",
          "type": "address"
        },
        {
          "internalType": "uint256",
          "name": "value",
          "type": "uint256"
        },
        {
          "internalType": "bytes",
          "name": "data",
          "type": "bytes"
        }
      ],
      "name": "onERC20Received",
      "outputs": [
        {
          "internalType": "bytes4",
          "name": "magicValue",
          "type": "bytes4"
        }
      ],
      "stateMutability": "nonpayable",
      "type": "function"
    },
    {
      "inputs": [
        {
          "internalType": "bytes32",
          "name": "",
          "type": "bytes32"
        }
      ],
      "name": "processedExits",
      "outputs": [
        {
          "internalType": "bool",
          "name": "",
          "type": "bool"
        }
      ],
      "stateMutability": "view",
      "type": "function"
    },
    {
      "inputs": [
        {
          "internalType": "bytes",
          "name": "inputData",
          "type": "bytes"
        }
      ],
      "name": "receiveMessage",
      "outputs": [],
      "stateMutability": "nonpayable",
      "type": "function"
    },
    {
      "inputs": [
        {
          "internalType": "address",
          "name": "",
          "type": "address"
        }
      ],
      "name": "rootToChildToken",
      "outputs": [
        {
          "internalType": "address",
          "name": "",
          "type": "address"
        }
      ],
      "stateMutability": "view",
      "type": "function"
    },
    {
      "inputs": [
        {
          "internalType": "address",
          "name": "_fxChildTunnel",
          "type": "address"
        }
      ],
      "name": "setFxChildTunnel",
      "outputs": [],
      "stateMutability": "nonpayable",
      "type": "function"
    },
    {
      "inputs": [
        {
          "internalType": "bytes4",
          "name": "interfaceId",
          "type": "bytes4"
        }
      ],
      "name": "supportsInterface",
      "outputs": [
        {
          "internalType": "bool",
          "name": "",
          "type": "bool"
        }
      ],
      "stateMutability": "view",
      "type": "function"
    }
  ],
  "transactionHash": "0x85e28eca3a875b3cc30218d4149640f0b73613e4a1a2772fe165056770b3e236",
  "args": [
    "0x2890bA17EfE978480615e330ecB65333b880928e",
    "0x3d1d3E34f7fB6D26245E6640E1c50710eFFf15bA",
    "0xD4C5A8D58849e7676860655BF507B8e7A6FDd830",
    "0x3f547F87251710F70109Ae0409d461b270709693"
  ],
  "numDeployments": 1,
  "solcInputHash": "4f6396240738df29e51fd81af4a04b52",
  "bytecode": "0x60c06040523480156200001157600080fd5b5060405162003a1d38038062003a1d833981016040819052620000349162000215565b600180546001600160a01b03199081166001600160a01b0387811691909117835560008054909216908616179055849084908490849081908190620000a790634fc3585960e01b906200009262000136602090811b620008ea17901c565b6200016c60201b62000918179092919060201c565b6001600160a01b03166080525060408051693d602d80600a3d3981f360b01b602082015269363d3d373d3d3d363d7360b01b602a8201526001600160601b0319606085901b1660348201526e5af43d82803e903d91602b57fd5bf360881b6048820152815180820360370181526057909101909152805160209091012060a052506200029f9650505050505050565b6000806200016660017fca9d3e17f264b0f3984e2634e94adb37fa3e6a8103f06aeae6fa59e21c769f5e6200027d565b92915050565b600160e01b6001600160e01b0319831601620001ce5760405162461bcd60e51b815260206004820152601f60248201527f496e74657266616365446574656374696f6e3a2077726f6e672076616c756500604482015260640160405180910390fd5b6001600160e01b03199190911660009081526020929092526040909120805460ff1916911515919091179055565b6001600160a01b03811681146200021257600080fd5b50565b600080600080608085870312156200022c57600080fd5b84516200023981620001fc565b60208601519094506200024c81620001fc565b60408601519093506200025f81620001fc565b60608601519092506200027281620001fc565b939692955090935050565b818103818111156200016657634e487b7160e01b600052601160045260246000fd5b60805160a05161373c620002e16000396000818161033501526108110152600081816101b50152818161026301528181610b410152610bc9015261373c6000f3fe608060405234801561001057600080fd5b50600436106101515760003560e01c8063972c4928116100cd578063de9b771f11610081578063f213159c11610066578063f213159c146103f4578063f4a120f714610407578063f953cec71461041a57600080fd5b8063de9b771f1461039e578063ea60c7c4146103be57600080fd5b8063b3e37c18116100b2578063b3e37c1814610330578063c0857ba014610357578063d81c8e521461037757600080fd5b8063972c4928146102fd578063aea4e49e1461031d57600080fd5b80634fc3585911610124578063607f2d4211610109578063607f2d42146102a05780637337957f146102c3578063886a69ba146102d657600080fd5b80634fc358591461020f578063572b6c051461025357600080fd5b806301ffc9a7146101565780630e387de61461017e5780632b4c9f16146101b357806347e7ef24146101fa575b600080fd5b610169610164366004612dfd565b61042d565b60405190151581526020015b60405180910390f35b6101a57f8c5261668696ce22758910d05bab8f186d6eb247ceac2af2e82c7dc17669b03681565b604051908152602001610175565b7f00000000000000000000000000000000000000000000000000000000000000005b60405173ffffffffffffffffffffffffffffffffffffffff9091168152602001610175565b61020d610208366004612e64565b610447565b005b61022261021d366004612e90565b61046f565b6040517fffffffff000000000000000000000000000000000000000000000000000000009091168152602001610175565b610169610261366004612f2f565b7f000000000000000000000000000000000000000000000000000000000000000073ffffffffffffffffffffffffffffffffffffffff90811691161490565b6101696102ae366004612f4c565b60036020526000908152604090205460ff1681565b6101d56102d1366004612f65565b61050a565b6101a57f2cef46a936bdc5b7e6e8c71aa04560c41cf7d88bb26901a7e7f4936ff02accad81565b6002546101d59073ffffffffffffffffffffffffffffffffffffffff1681565b61020d61032b366004612f2f565b610592565b6101a57f000000000000000000000000000000000000000000000000000000000000000081565b6001546101d59073ffffffffffffffffffffffffffffffffffffffff1681565b6101a57f87a7811f4bfedea3d341ad165680ae306b01aaeacc205d227629cf157dd9f82181565b6000546101d59073ffffffffffffffffffffffffffffffffffffffff1681565b6101d56103cc366004612f2f565b60046020526000908152604090205473ffffffffffffffffffffffffffffffffffffffff1681565b61020d610402366004612f9e565b610684565b6101d5610415366004612f2f565b6106f9565b61020d6104283660046130a3565b6108d0565b60006104418261043b6108ea565b90610a24565b92915050565b6000610451610afe565b905061045f83828385610c45565b61046a838284610d4a565b505050565b60008482156104d25761048483850185612f2f565b905073ffffffffffffffffffffffffffffffffffffffff81166104d2576040517e7336b000000000000000000000000000000000000000000000000000000000815260040160405180910390fd5b6104de33878388610c45565b507f4fc35859000000000000000000000000000000000000000000000000000000009695505050505050565b604080517fff00000000000000000000000000000000000000000000000000000000000000602080830191909152606084901b7fffffffffffffffffffffffffffffffffffffffff00000000000000000000000016602183015260358201869052605580830186905283518084039091018152607590920190925280519101205b9392505050565b60025473ffffffffffffffffffffffffffffffffffffffff161561063d576040517f08c379a000000000000000000000000000000000000000000000000000000000815260206004820152602a60248201527f467842617365526f6f7454756e6e656c3a204348494c445f54554e4e454c5f4160448201527f4c52454144595f5345540000000000000000000000000000000000000000000060648201526084015b60405180910390fd5b600280547fffffffffffffffffffffffff00000000000000000000000000000000000000001673ffffffffffffffffffffffffffffffffffffffff92909216919091179055565b73ffffffffffffffffffffffffffffffffffffffff82166106d0576040517e7336b000000000000000000000000000000000000000000000000000000000815260040160405180910390fd5b60006106da610afe565b90506106e884828585610c45565b6106f3848284610d4a565b50505050565b73ffffffffffffffffffffffffffffffffffffffff80821660009081526004602052604090205416801561072c57919050565b6107bb7f2cef46a936bdc5b7e6e8c71aa04560c41cf7d88bb26901a7e7f4936ff02accad8361075a85610d6c565b60405160200161076b929190613191565b604080517fffffffffffffffffffffffffffffffffffffffffffffffffffffffffffffffe0818403018152908290526107a792916020016131c0565b6040516020818303038152906040526110c3565b60408051606084901b7fffffffffffffffffffffffffffffffffffffffff00000000000000000000000016602080830191909152825160148184030181526034909201909252805191012060025461084c9082907f00000000000000000000000000000000000000000000000000000000000000009073ffffffffffffffffffffffffffffffffffffffff1661050a565b73ffffffffffffffffffffffffffffffffffffffff84811660008181526004602052604080822080547fffffffffffffffffffffffff000000000000000000000000000000000000000016948616948517905551939550919290917ff935ffb7c4a7f69e191e46617fc2f41d98d93290443199977b42dd086e744c8691a350919050565b60006108db82611154565b90506108e681611536565b5050565b60008061044160017fca9d3e17f264b0f3984e2634e94adb37fa3e6a8103f06aeae6fa59e21c769f5e613208565b7c01000000000000000000000000000000000000000000000000000000007fffffffff000000000000000000000000000000000000000000000000000000008316016109c0576040517f08c379a000000000000000000000000000000000000000000000000000000000815260206004820152601f60248201527f496e74657266616365446574656374696f6e3a2077726f6e672076616c7565006044820152606401610634565b7fffffffff00000000000000000000000000000000000000000000000000000000919091166000908152602092909252604090912080547fffffffffffffffffffffffffffffffffffffffffffffffffffffffffffffff0016911515919091179055565b60007c01000000000000000000000000000000000000000000000000000000007fffffffff00000000000000000000000000000000000000000000000000000000831601610a7457506000610441565b7ffe003659000000000000000000000000000000000000000000000000000000007fffffffff00000000000000000000000000000000000000000000000000000000831601610ac557506001610441565b507fffffffff00000000000000000000000000000000000000000000000000000000166000908152602091909152604090205460ff1690565b600033321480610b0e5750601836105b15610b1857503390565b7fffffffffffffffffffffffffffffffffffffffffffffffffffffffffffffffec36013560601c7f000000000000000000000000000000000000000000000000000000000000000073ffffffffffffffffffffffffffffffffffffffff16331480610c3457506040517f8929a8ca00000000000000000000000000000000000000000000000000000000815273ffffffffffffffffffffffffffffffffffffffff82811660048301523360248301527f00000000000000000000000000000000000000000000000000000000000000001690638929a8ca90604401602060405180830381865afa158015610c10573d6000803e3d6000fd5b505050506040513d601f19601f82011682018060405250810190610c34919061321b565b15610c3e57919050565b3391505090565b6040805173ffffffffffffffffffffffffffffffffffffffff8681166020830152858116828401528416606082015260808082018490528251808303909101815260a08201909252600091610cbf917f87a7811f4bfedea3d341ad165680ae306b01aaeacc205d227629cf157dd9f821919060c0016131c0565b6040516020818303038152906040529050610cd9816110c3565b610ce2856106f9565b6040805173ffffffffffffffffffffffffffffffffffffffff8781168252868116602083015291810185905291811691908716907fd04a997afc07fd79393f2188ae8935e4389ab8aef6144f0f839e3aade5b858ab9060600160405180910390a35050505050565b61046a73ffffffffffffffffffffffffffffffffffffffff8416833084611660565b606060008273ffffffffffffffffffffffffffffffffffffffff166318160ddd6040518163ffffffff1660e01b8152600401602060405180830381865afa158015610dbb573d6000803e3d6000fd5b505050506040513d601f19601f82011682018060405250810190610ddf919061323d565b9050600083905060008173ffffffffffffffffffffffffffffffffffffffff166306fdde036040518163ffffffff1660e01b8152600401600060405180830381865afa158015610e33573d6000803e3d6000fd5b505050506040513d6000823e601f3d9081017fffffffffffffffffffffffffffffffffffffffffffffffffffffffffffffffe0168201604052610e799190810190613286565b905060008273ffffffffffffffffffffffffffffffffffffffff166395d89b416040518163ffffffff1660e01b8152600401600060405180830381865afa158015610ec8573d6000803e3d6000fd5b505050506040513d6000823e601f3d9081017fffffffffffffffffffffffffffffffffffffffffffffffffffffffffffffffe0168201604052610f0e9190810190613286565b905060008373ffffffffffffffffffffffffffffffffffffffff1663313ce5676040518163ffffffff1660e01b8152600401602060405180830381865afa158015610f5d573d6000803e3d6000fd5b505050506040513d601f19601f82011682018060405250810190610f8191906132cf565b905060008773ffffffffffffffffffffffffffffffffffffffff16633c130d906040518163ffffffff1660e01b8152600401600060405180830381865afa158015610fd0573d6000803e3d6000fd5b505050506040513d6000823e601f3d9081017fffffffffffffffffffffffffffffffffffffffffffffffffffffffffffffffe01682016040526110169190810190613286565b905060008873ffffffffffffffffffffffffffffffffffffffff16638da5cb5b6040518163ffffffff1660e01b8152600401602060405180830381865afa158015611065573d6000803e3d6000fd5b505050506040513d601f19601f8201168201806040525081019061108991906132f2565b90508685858585856040516020016110a69695949392919061330f565b604051602081830303815290604052975050505050505050919050565b6000546002546040517fb472047700000000000000000000000000000000000000000000000000000000815273ffffffffffffffffffffffffffffffffffffffff9283169263b47204779261111f929116908590600401613191565b600060405180830381600087803b15801561113957600080fd5b505af115801561114d573d6000803e3d6000fd5b5050505050565b606060006111618361173c565b9050600061116e8261179b565b9050600061117b836117c4565b9050600081611189846117ed565b611192866119db565b6040516020016111a493929190613381565b604080517fffffffffffffffffffffffffffffffffffffffffffffffffffffffffffffffe081840301815291815281516020928301206000818152600390935291205490915060ff1615611279576040517f08c379a0000000000000000000000000000000000000000000000000000000008152602060048201526024808201527f4678526f6f7454756e6e656c3a20455849545f414c52454144595f50524f434560448201527f53534544000000000000000000000000000000000000000000000000000000006064820152608401610634565b600081815260036020526040812080547fffffffffffffffffffffffffffffffffffffffffffffffffffffffffffffff001660011790556112b9856119f7565b905060006112c682611b41565b90506112d181611bd1565b60025473ffffffffffffffffffffffffffffffffffffffff90811691161461137b576040517f08c379a000000000000000000000000000000000000000000000000000000000815260206004820152602560248201527f4678526f6f7454756e6e656c3a20494e56414c49445f46585f4348494c445f5460448201527f554e4e454c0000000000000000000000000000000000000000000000000000006064820152608401610634565b600061138687611bfa565b90506113a6611396846020015190565b876113a08a611c16565b84611c32565b611432576040517f08c379a000000000000000000000000000000000000000000000000000000000815260206004820152602360248201527f4678526f6f7454756e6e656c3a20494e56414c49445f524543454950545f505260448201527f4f4f4600000000000000000000000000000000000000000000000000000000006064820152608401610634565b6114608561143f89611ee5565b6114488a611f01565b846114528c611f1d565b61145b8d611f39565b611f55565b50600061146c836120bb565b90507f8c5261668696ce22758910d05bab8f186d6eb247ceac2af2e82c7dc17669b0366114a261149d8360006120f7565b61212f565b14611509576040517f08c379a000000000000000000000000000000000000000000000000000000000815260206004820152601f60248201527f4678526f6f7454756e6e656c3a20494e56414c49445f5349474e4154555245006044820152606401610634565b6000611514846121aa565b8060200190518101906115279190613286565b9b9a5050505050505050505050565b60008060008060008580602001905181019061155291906133ae565b73ffffffffffffffffffffffffffffffffffffffff808616600090815260046020526040902054959a509398509196509450925090811690851681146115ec576040517f3855947700000000000000000000000000000000000000000000000000000000815273ffffffffffffffffffffffffffffffffffffffff8088166004830152808716602483015282166044820152606401610634565b6115f78684846121c6565b6040805173ffffffffffffffffffffffffffffffffffffffff86811682528581166020830152918101849052818716918816907faa4bbbc02123d0c446b55ec99a14078c9eab05cb4a271e6d8f8e278d9e4cd1849060600160405180910390a350505050505050565b60405173ffffffffffffffffffffffffffffffffffffffff808516602483015283166044820152606481018290526106f39085907f23b872dd00000000000000000000000000000000000000000000000000000000906084015b604080517fffffffffffffffffffffffffffffffffffffffffffffffffffffffffffffffe08184030181529190526020810180517bffffffffffffffffffffffffffffffffffffffffffffffffffffffff167fffffffff00000000000000000000000000000000000000000000000000000000909316929092179091526121e7565b60408051602081019091526060815260006117866117818460408051808201825260008082526020918201528151808301909252825182529182019181019190915290565b6122f3565b60408051602081019091529081529392505050565b606061044182600001516008815181106117b7576117b7613419565b6020026020010151612409565b600061044182600001516002815181106117e0576117e0613419565b602002602001015161212f565b60408051602081019091526000815281516060919015610441576000806118156000866124a6565b60f81c9050600181148061182c57508060ff166003145b156118ec576001855160026118419190613448565b61184b9190613208565b67ffffffffffffffff81111561186357611863612fdf565b6040519080825280601f01601f19166020018201604052801561188d576020820181803683370190505b509250600061189d6001876124a6565b905080846000815181106118b3576118b3613419565b60200101907effffffffffffffffffffffffffffffffffffffffffffffffffffffffffffff1916908160001a9053506001925050611950565b6002855160026118fc9190613448565b6119069190613208565b67ffffffffffffffff81111561191e5761191e612fdf565b6040519080825280601f01601f191660200182016040528015611948576020820181803683370190505b509250600091505b60ff82165b83518110156119d25761197f61196e60ff851683613208565b61197990600261345f565b876124a6565b84828151811061199157611991613419565b60200101907effffffffffffffffffffffffffffffffffffffffffffffffffffffffffffff1916908160001a905350806119ca81613472565b915050611955565b50505092915050565b600061044182600001516009815181106117e0576117e0613419565b611a1b60405180606001604052806060815260200160608152602001600081525090565b611a3582600001516006815181106117b7576117b7613419565b602082810182905260408051808201825260008082529083015280518082019091528251815291810190820152611a6b81612527565b15611a8057611a79816122f3565b8252611b2d565b60208201518051600090611a9690600190613208565b67ffffffffffffffff811115611aae57611aae612fdf565b6040519080825280601f01601f191660200182016040528015611ad8576020820181803683370190505b509050600080836021019150826020019050611af682828551612562565b604080518082018252600080825260209182015281518083019092528451825280850190820152611b26906122f3565b8652505050505b611b36836119db565b604083015250919050565b604080516080810182526000918101828152606080830193909352815260208101919091526000611b8f8360000151600381518110611b8257611b82613419565b60200260200101516122f3565b836040015181518110611ba457611ba4613419565b602002602001015190506040518060400160405280828152602001611bc8836122f3565b90529392505050565b60006104418260200151600081518110611bed57611bed613419565b60200260200101516125ed565b600061044182600001516005815181106117e0576117e0613419565b606061044182600001516007815181106117b7576117b7613419565b600080611c668460408051808201825260008082526020918201528151808301909252825182529182019181019190915290565b90506000611c73826122f3565b905060608085600080611c858b6117ed565b90508051600003611ca0576000975050505050505050611edd565b60005b8651811015611ed4578151831115611cc657600098505050505050505050611edd565b611ce8878281518110611cdb57611cdb613419565b6020026020010151612607565b955085805190602001208414611d0957600098505050505050505050611edd565b611d1e878281518110611b8257611b82613419565b94508451601103611df05781518303611d7d578c80519060200120611d4f866010815181106117b7576117b7613419565b8051906020012003611d6c57600198505050505050505050611edd565b600098505050505050505050611edd565b6000828481518110611d9157611d91613419565b016020015160f81c90506010811115611db65760009950505050505050505050611edd565b611ddb868260ff1681518110611dce57611dce613419565b6020026020010151612686565b9450611de860018561345f565b935050611ec2565b8451600203611d6c576000611e1b611e14876000815181106117b7576117b7613419565b84866126b4565b8351909150611e2a828661345f565b03611e7d578d80519060200120611e4d876001815181106117b7576117b7613419565b8051906020012003611e6b5760019950505050505050505050611edd565b60009950505050505050505050611edd565b80600003611e975760009950505050505050505050611edd565b611ea1818561345f565b9350611eb986600181518110611dce57611dce613419565b9450611ec29050565b80611ecc81613472565b915050611ca3565b50505050505050505b949350505050565b600061044182600001516003815181106117e0576117e0613419565b600061044182600001516004815181106117e0576117e0613419565b600061044182600001516000815181106117e0576117e0613419565b606061044182600001516001815181106117b7576117b7613419565b6001546040517f41539d4a0000000000000000000000000000000000000000000000000000000081526004810184905260009182918291829173ffffffffffffffffffffffffffffffffffffffff909116906341539d4a9060240160a060405180830381865afa158015611fcd573d6000803e3d6000fd5b505050506040513d601f19601f82011682018060405250810190611ff191906134aa565b5093505092509250612048828b6120089190613208565b6040805160208082018f90528183018e9052606082018d905260808083018d90528351808403909101815260a090920190925280519101209085886127ec565b6120ae576040517f08c379a000000000000000000000000000000000000000000000000000000000815260206004820152601c60248201527f4678526f6f7454756e6e656c3a20494e56414c49445f484541444552000000006044820152606401610634565b9998505050505050505050565b60408051602081019091526060815260405180602001604052806120ef8460200151600181518110611b8257611b82613419565b905292915050565b6040805180820190915260008082526020820152825180518390811061211f5761211f613419565b6020026020010151905092915050565b80516000901580159061214457508151602110155b61214d57600080fd5b600061215c8360200151612999565b905060008184600001516121709190613208565b9050600080838660200151612185919061345f565b90508051915060208310156121a157826020036101000a820491505b50949350505050565b606061044182602001516002815181106117b7576117b7613419565b61046a73ffffffffffffffffffffffffffffffffffffffff84168383612a14565b6000612249826040518060400160405280602081526020017f5361666545524332303a206c6f772d6c6576656c2063616c6c206661696c65648152508573ffffffffffffffffffffffffffffffffffffffff16612a6a9092919063ffffffff16565b80519091501561046a5780806020019051810190612267919061321b565b61046a576040517f08c379a000000000000000000000000000000000000000000000000000000000815260206004820152602a60248201527f5361666545524332303a204552433230206f7065726174696f6e20646964206e60448201527f6f742073756363656564000000000000000000000000000000000000000000006064820152608401610634565b60606122fe82612527565b61230757600080fd5b600061231283612a79565b905060008167ffffffffffffffff81111561232f5761232f612fdf565b60405190808252806020026020018201604052801561237457816020015b604080518082019091526000808252602082015281526020019060019003908161234d5790505b50905060006123868560200151612999565b8560200151612395919061345f565b90506000805b848110156123fe576123ac83612afe565b91506040518060400160405280838152602001848152508482815181106123d5576123d5613419565b60209081029190910101526123ea828461345f565b9250806123f681613472565b91505061239b565b509195945050505050565b805160609061241757600080fd5b60006124268360200151612999565b9050600081846000015161243a9190613208565b905060008167ffffffffffffffff81111561245757612457612fdf565b6040519080825280601f01601f191660200182016040528015612481576020820181803683370190505b50905060008160200190506121a184876020015161249f919061345f565b8285612bc0565b60006124b3600284613526565b156124ed576010826124c660028661353a565b815181106124d6576124d6613419565b01602001516124e8919060f81c61354e565b61251d565b6010826124fb60028661353a565b8151811061250b5761250b613419565b016020015161251d919060f81c613570565b60f81b9392505050565b8051600090810361253a57506000919050565b6020820151805160001a9060c0821015612558575060009392505050565b5060019392505050565b8060000361256f57505050565b602081106125a7578251825261258660208461345f565b925061259360208361345f565b91506125a0602082613208565b905061256f565b806000036125b457505050565b600060016125c3836020613208565b6125cf906101006136b2565b6125d99190613208565b935183518516941916939093179091525050565b80516000906015146125fe57600080fd5b6104418261212f565b60606000826000015167ffffffffffffffff81111561262857612628612fdf565b6040519080825280601f01601f191660200182016040528015612652576020820181803683370190505b50905080516000036126645792915050565b600081602001905061267f8460200151828660000151612bc0565b5092915050565b805160009060211461269757600080fd5b600080836020015160016126ab919061345f565b51949350505050565b600080806126c1866117ed565b90506000815167ffffffffffffffff8111156126df576126df612fdf565b6040519080825280601f01601f191660200182016040528015612709576020820181803683370190505b509050845b825161271a908761345f565b8110156127bd57600087828151811061273557612735613419565b01602001517fff00000000000000000000000000000000000000000000000000000000000000169050808361276a8985613208565b8151811061277a5761277a613419565b60200101907effffffffffffffffffffffffffffffffffffffffffffffffffffffffffffff1916908160001a9053505080806127b590613472565b91505061270e565b5080805190602001208280519060200120036127dc57815192506127e1565b600092505b509095945050505050565b6000602082516127fc9190613526565b15612863576040517f08c379a000000000000000000000000000000000000000000000000000000000815260206004820152601460248201527f496e76616c69642070726f6f66206c656e6774680000000000000000000000006044820152606401610634565b600060208351612873919061353a565b90506128808160026136b2565b85106128e8576040517f08c379a000000000000000000000000000000000000000000000000000000000815260206004820152601560248201527f4c65616620696e64657820697320746f6f2062696700000000000000000000006044820152606401610634565b60008660205b8551811161298b57858101519250612907600289613526565b60000361293f57604080516020810184905290810184905260600160405160208183030381529060405280519060200120915061296c565b60408051602081018590529081018390526060016040516020818303038152906040528051906020012091505b61297760028961353a565b975061298460208261345f565b90506128ee565b509094149695505050505050565b8051600090811a60808110156129b25750600092915050565b60b88110806129cd575060c081108015906129cd575060f881105b156129db5750600192915050565b60c0811015612a08576129f0600160b86136be565b6129fd9060ff1682613208565b61058b90600161345f565b6129f0600160f86136be565b60405173ffffffffffffffffffffffffffffffffffffffff831660248201526044810182905261046a9084907fa9059cbb00000000000000000000000000000000000000000000000000000000906064016116ba565b6060611edd8484600085612c05565b80516000908103612a8c57506000919050565b600080612a9c8460200151612999565b8460200151612aab919061345f565b9050600084600001518560200151612ac3919061345f565b90505b80821015612af557612ad782612afe565b612ae1908361345f565b915082612aed81613472565b935050612ac6565b50909392505050565b80516000908190811a6080811015612b19576001915061267f565b60b8811015612b3f57612b2d608082613208565b612b3890600161345f565b915061267f565b60c0811015612b6c5760b78103600185019450806020036101000a8551046001820181019350505061267f565b60f8811015612b8057612b2d60c082613208565b60019390930151602084900360f7016101000a90049092017fffffffffffffffffffffffffffffffffffffffffffffffffffffffffffffff0a0192915050565b80600003612bcd57505050565b602081106125a75782518252612be460208461345f565b9250612bf160208361345f565b9150612bfe602082613208565b9050612bcd565b606082471015612c97576040517f08c379a000000000000000000000000000000000000000000000000000000000815260206004820152602660248201527f416464726573733a20696e73756666696369656e742062616c616e636520666f60448201527f722063616c6c00000000000000000000000000000000000000000000000000006064820152608401610634565b6000808673ffffffffffffffffffffffffffffffffffffffff168587604051612cc091906136d7565b60006040518083038185875af1925050503d8060008114612cfd576040519150601f19603f3d011682016040523d82523d6000602084013e612d02565b606091505b5091509150612d1387838387612d1e565b979650505050505050565b60608315612db4578251600003612dad5773ffffffffffffffffffffffffffffffffffffffff85163b612dad576040517f08c379a000000000000000000000000000000000000000000000000000000000815260206004820152601d60248201527f416464726573733a2063616c6c20746f206e6f6e2d636f6e74726163740000006044820152606401610634565b5081611edd565b611edd8383815115612dc95781518083602001fd5b806040517f08c379a000000000000000000000000000000000000000000000000000000000815260040161063491906136f3565b600060208284031215612e0f57600080fd5b81357fffffffff000000000000000000000000000000000000000000000000000000008116811461058b57600080fd5b73ffffffffffffffffffffffffffffffffffffffff81168114612e6157600080fd5b50565b60008060408385031215612e7757600080fd5b8235612e8281612e3f565b946020939093013593505050565b600080600080600060808688031215612ea857600080fd5b8535612eb381612e3f565b94506020860135612ec381612e3f565b935060408601359250606086013567ffffffffffffffff80821115612ee757600080fd5b818801915088601f830112612efb57600080fd5b813581811115612f0a57600080fd5b896020828501011115612f1c57600080fd5b9699959850939650602001949392505050565b600060208284031215612f4157600080fd5b813561058b81612e3f565b600060208284031215612f5e57600080fd5b5035919050565b600080600060608486031215612f7a57600080fd5b83359250602084013591506040840135612f9381612e3f565b809150509250925092565b600080600060608486031215612fb357600080fd5b8335612fbe81612e3f565b92506020840135612fce81612e3f565b929592945050506040919091013590565b7f4e487b7100000000000000000000000000000000000000000000000000000000600052604160045260246000fd5b604051601f82017fffffffffffffffffffffffffffffffffffffffffffffffffffffffffffffffe016810167ffffffffffffffff8111828210171561305557613055612fdf565b604052919050565b600067ffffffffffffffff82111561307757613077612fdf565b50601f017fffffffffffffffffffffffffffffffffffffffffffffffffffffffffffffffe01660200190565b6000602082840312156130b557600080fd5b813567ffffffffffffffff8111156130cc57600080fd5b8201601f810184136130dd57600080fd5b80356130f06130eb8261305d565b61300e565b81815285602083850101111561310557600080fd5b81602084016020830137600091810160200191909152949350505050565b60005b8381101561313e578181015183820152602001613126565b50506000910152565b6000815180845261315f816020860160208601613123565b601f017fffffffffffffffffffffffffffffffffffffffffffffffffffffffffffffffe0169290920160200192915050565b73ffffffffffffffffffffffffffffffffffffffff83168152604060208201526000611edd6040830184613147565b828152604060208201526000611edd6040830184613147565b7f4e487b7100000000000000000000000000000000000000000000000000000000600052601160045260246000fd5b81810381811115610441576104416131d9565b60006020828403121561322d57600080fd5b8151801515811461058b57600080fd5b60006020828403121561324f57600080fd5b5051919050565b60006132646130eb8461305d565b905082815283838301111561327857600080fd5b61058b836020830184613123565b60006020828403121561329857600080fd5b815167ffffffffffffffff8111156132af57600080fd5b8201601f810184136132c057600080fd5b611edd84825160208401613256565b6000602082840312156132e157600080fd5b815160ff8116811461058b57600080fd5b60006020828403121561330457600080fd5b815161058b81612e3f565b86815260c06020820152600061332860c0830188613147565b828103604084015261333a8188613147565b905060ff8616606084015282810360808401526133578186613147565b91505073ffffffffffffffffffffffffffffffffffffffff831660a0830152979650505050505050565b83815260008351613399816020850160208801613123565b60209201918201929092526040019392505050565b600080600080600060a086880312156133c657600080fd5b85516133d181612e3f565b60208701519095506133e281612e3f565b60408701519094506133f381612e3f565b606087015190935061340481612e3f565b80925050608086015190509295509295909350565b7f4e487b7100000000000000000000000000000000000000000000000000000000600052603260045260246000fd5b8082028115828204841417610441576104416131d9565b80820180821115610441576104416131d9565b60007fffffffffffffffffffffffffffffffffffffffffffffffffffffffffffffffff82036134a3576134a36131d9565b5060010190565b600080600080600060a086880312156134c257600080fd5b8551945060208601519350604086015192506060860151915060808601516134e981612e3f565b809150509295509295909350565b7f4e487b7100000000000000000000000000000000000000000000000000000000600052601260045260246000fd5b600082613535576135356134f7565b500690565b600082613549576135496134f7565b500490565b600060ff831680613561576135616134f7565b8060ff84160691505092915050565b600060ff831680613583576135836134f7565b8060ff84160491505092915050565b600181815b808511156135eb57817fffffffffffffffffffffffffffffffffffffffffffffffffffffffffffffffff048211156135d1576135d16131d9565b808516156135de57918102915b93841c9390800290613597565b509250929050565b60008261360257506001610441565b8161360f57506000610441565b8160018114613625576002811461362f5761364b565b6001915050610441565b60ff841115613640576136406131d9565b50506001821b610441565b5060208310610133831016604e8410600b841016171561366e575081810a610441565b6136788383613592565b807fffffffffffffffffffffffffffffffffffffffffffffffffffffffffffffffff048211156136aa576136aa6131d9565b029392505050565b600061058b83836135f3565b60ff8281168282160390811115610441576104416131d9565b600082516136e9818460208701613123565b9190910192915050565b60208152600061058b602083018461314756fea26469706673582212205222695de2f968439c1ac7a46d94c1d4276d45eb177ebfd9072331ae83d9646664736f6c63430008110033",
  "devdoc": {
    "errors": {
      "FxERC20InvalidMappingOnExit(address,address,address)": [
        {
          "params": {
            "actualRootToken": "The actual root token.",
            "childToken": "The child token.",
            "expectedRootToken": "The expected root token."
          }
        }
      ]
    },
    "kind": "dev",
    "methods": {
      "deposit(address,uint256)": {
        "details": "Reverts if the token transfer fails for any reason.",
        "params": {
          "amount": "The amount of tokens to deposit.",
          "rootToken": "The ERC20 root token."
        }
      },
      "depositTo(address,address,uint256)": {
        "details": "Reverts with `FxERC20TokenNotMapped` if `childToken has not been deployed through a mapping request.Reverts if the token transfer fails for any reason.",
        "params": {
          "amount": "The amount of tokens to deposit.",
          "receiver": "The account receiving the deposit.",
          "rootToken": "The ERC20 root token."
        }
      },
      "isTrustedForwarder(address)": {
        "params": {
          "forwarder": "The forwarder to check."
        },
        "returns": {
          "_0": "True if `forwarder` is trusted, false if not."
        }
      },
      "mapToken(address)": {
        "params": {
          "rootToken": "address of token on root chain"
        }
      },
      "onERC20Received(address,address,uint256,bytes)": {
        "params": {
          "data": "Empty if the receiver is the same as the tokens sender, else the abi-encoded address of the receiver.",
          "from": "The previous tokens owner.",
          "value": "The amount of tokens transferred."
        },
        "returns": {
          "magicValue": "`bytes4(keccak256(\"onERC20Received(address,address,uint256,bytes)\"))` (`0x4fc35859`) to accept, any other value to refuse."
        }
      },
      "receiveMessage(bytes)": {
        "details": "This function verifies if the transaction actually happened on child chain",
        "params": {
          "inputData": "RLP encoded data of the reference tx containing following list of fields  0 - headerNumber - Checkpoint header block number containing the reference tx  1 - blockProof - Proof that the block header (in the child chain) is a leaf in the submitted merkle root  2 - blockNumber - Block number containing the reference tx on child chain  3 - blockTime - Reference tx block time  4 - txRoot - Transactions root of block  5 - receiptRoot - Receipts root of block  6 - receipt - Receipt of the reference transaction  7 - receiptProof - Merkle proof of the reference receipt  8 - branchMask - 32 bits denoting the path of receipt in merkle tree  9 - receiptLogIndex - Log Index to read from the receipt"
        }
      },
      "supportsInterface(bytes4)": {
        "details": "Note: This function call must use less than 30 000 gas.",
        "params": {
          "interfaceId": "the interface identifier to test."
        },
        "returns": {
          "_0": "True if the interface is supported, false if `interfaceId` is `0xffffffff` or if the interface is not supported."
        }
      }
    },
    "title": "FxERC20FixedSupplyRootTunnel",
    "version": 1
  },
  "userdoc": {
    "errors": {
      "FxERC20InvalidDepositAddress()": [
        {
          "notice": "Thrown if a deposit recipient is the zero address."
        }
      ],
      "FxERC20InvalidMappingOnExit(address,address,address)": [
        {
          "notice": "Thrown when a deposit request refers to an invalid token mapping."
        }
      ]
    },
    "events": {
      "FxERC20Deposit(address,address,address,address,uint256)": {
        "notice": "Emitted when some ERC20 token has been deposited."
      },
      "FxERC20TokenMapping(address,address)": {
        "notice": "Emitted when an ERC20 token has been mapped."
      },
      "FxERC20Withdrawal(address,address,address,address,uint256)": {
        "notice": "Emitted when some ERC20 token has been withdrawn."
      }
    },
    "kind": "user",
    "methods": {
      "deposit(address,uint256)": {
        "notice": "Deposits an `amount` of `rootToken` by and for the message sender.Note: Approval for `amount` of `rootToken` must have been previously given to this contract."
      },
      "depositTo(address,address,uint256)": {
        "notice": "Deposits an `amount` of `rootToken` by the message sender and for a `receiver`.Note: Approval for `amount` of `rootToken` must have been previously given to this contract."
      },
      "isTrustedForwarder(address)": {
        "notice": "Checks whether a forwarder is trusted."
      },
      "mapToken(address)": {
        "notice": "Map a token to enable its movement via the Fx Portal"
      },
      "receiveMessage(bytes)": {
        "notice": "receive message from  L2 to L1, validated by proof"
      },
      "supportsInterface(bytes4)": {
        "notice": "Returns whether this contract implements a given interface."
      }
    },
    "notice": "Fx root fixed supply ERC20 tunnel.",
    "version": 1
  },
  "storageLayout": {
    "storage": [
      {
        "astId": 6810,
        "contract": "contracts/fx-portal/ERC20/tunnel/FxERC20FixedSupplyRootTunnel.sol:FxERC20FixedSupplyRootTunnel",
        "label": "fxRoot",
        "offset": 0,
        "slot": "0",
        "type": "t_contract(IFxStateSender)6760"
      },
      {
        "astId": 6813,
        "contract": "contracts/fx-portal/ERC20/tunnel/FxERC20FixedSupplyRootTunnel.sol:FxERC20FixedSupplyRootTunnel",
        "label": "checkpointManager",
        "offset": 0,
        "slot": "1",
        "type": "t_contract(ICheckpointManager)6778"
      },
      {
        "astId": 6815,
        "contract": "contracts/fx-portal/ERC20/tunnel/FxERC20FixedSupplyRootTunnel.sol:FxERC20FixedSupplyRootTunnel",
        "label": "fxChildTunnel",
        "offset": 0,
        "slot": "2",
        "type": "t_address"
      },
      {
        "astId": 6819,
        "contract": "contracts/fx-portal/ERC20/tunnel/FxERC20FixedSupplyRootTunnel.sol:FxERC20FixedSupplyRootTunnel",
        "label": "processedExits",
        "offset": 0,
        "slot": "3",
        "type": "t_mapping(t_bytes32,t_bool)"
      },
      {
        "astId": 10099,
        "contract": "contracts/fx-portal/ERC20/tunnel/FxERC20FixedSupplyRootTunnel.sol:FxERC20FixedSupplyRootTunnel",
        "label": "rootToChildToken",
        "offset": 0,
        "slot": "4",
        "type": "t_mapping(t_address,t_address)"
      }
    ],
    "types": {
      "t_address": {
        "encoding": "inplace",
        "label": "address",
        "numberOfBytes": "20"
      },
      "t_bool": {
        "encoding": "inplace",
        "label": "bool",
        "numberOfBytes": "1"
      },
      "t_bytes32": {
        "encoding": "inplace",
        "label": "bytes32",
        "numberOfBytes": "32"
      },
      "t_contract(ICheckpointManager)6778": {
        "encoding": "inplace",
        "label": "contract ICheckpointManager",
        "numberOfBytes": "20"
      },
      "t_contract(IFxStateSender)6760": {
        "encoding": "inplace",
        "label": "contract IFxStateSender",
        "numberOfBytes": "20"
      },
      "t_mapping(t_address,t_address)": {
        "encoding": "mapping",
        "key": "t_address",
        "label": "mapping(address => address)",
        "numberOfBytes": "32",
        "value": "t_address"
      },
      "t_mapping(t_bytes32,t_bool)": {
        "encoding": "mapping",
        "key": "t_bytes32",
        "label": "mapping(bytes32 => bool)",
        "numberOfBytes": "32",
        "value": "t_bool"
      }
    }
  }
}