{
  "address": "0xEe626dC976B2f46664a734DDD1492c230bb8Ad06",
  "abi": [
    {
      "inputs": [
        {
          "internalType": "address",
          "name": "targetContract",
          "type": "address"
        },
        {
          "internalType": "address",
          "name": "account",
          "type": "address"
        }
      ],
      "name": "NotTargetContractOwner",
      "type": "error"
    },
    {
      "inputs": [
        {
          "internalType": "address",
          "name": "targetContract",
          "type": "address"
        }
      ],
      "name": "TargetIsNotAContract",
      "type": "error"
    },
    {
      "anonymous": false,
      "inputs": [
        {
          "indexed": false,
          "internalType": "address",
          "name": "tokenContract",
          "type": "address"
        },
        {
          "indexed": false,
          "internalType": "string",
          "name": "baseMetadataURI",
          "type": "string"
        }
      ],
      "name": "BaseMetadataURISet",
      "type": "event"
    },
    {
      "inputs": [
        {
          "internalType": "address",
          "name": "",
          "type": "address"
        }
      ],
      "name": "baseMetadataURI",
      "outputs": [
        {
          "internalType": "string",
          "name": "",
          "type": "string"
        }
      ],
      "stateMutability": "view",
      "type": "function"
    },
    {
      "inputs": [
        {
          "internalType": "address",
          "name": "tokenContract",
          "type": "address"
        },
        {
          "internalType": "string",
          "name": "baseURI",
          "type": "string"
        }
      ],
      "name": "setBaseMetadataURI",
      "outputs": [],
      "stateMutability": "nonpayable",
      "type": "function"
    },
    {
      "inputs": [
        {
          "internalType": "address",
          "name": "tokenContract",
          "type": "address"
        },
        {
          "internalType": "uint256",
          "name": "tokenId",
          "type": "uint256"
        }
      ],
      "name": "tokenMetadataURI",
      "outputs": [
        {
          "internalType": "string",
          "name": "tokenURI",
          "type": "string"
        }
      ],
      "stateMutability": "view",
      "type": "function"
    }
  ],
  "transactionHash": "0xe0ffff44d9e1e41367085a5c90cf45164963247359b48d509b6654da61867b90",
  "args": [],
  "numDeployments": 1,
  "solcInputHash": "ce5541289a12a5ad82ba0acfc6c277fa",
  "bytecode": "0x608060405234801561001057600080fd5b506109ee806100206000396000f3fe608060405234801561001057600080fd5b50600436106100415760003560e01c80633fb0a0db146100465780636169966a1461006f578063f724dad714610084575b600080fd5b610059610054366004610556565b610097565b604051610066919061059e565b60405180910390f35b61008261007d3660046105ef565b610131565b005b610059610092366004610674565b6101c2565b600060208190529081526040902080546100b0906106a0565b80601f01602080910402602001604051908101604052809291908181526020018280546100dc906106a0565b80156101295780601f106100fe57610100808354040283529160200191610129565b820191906000526020600020905b81548152906001019060200180831161010c57829003601f168201915b505050505081565b61015173ffffffffffffffffffffffffffffffffffffffff84163361021b565b73ffffffffffffffffffffffffffffffffffffffff83166000908152602081905260409020610181828483610771565b507f88abd97025db503bd9cbc01e09174912e82e0973d1b96c37a3d25d4f7e20f7a38383836040516101b59392919061088c565b60405180910390a1505050565b73ffffffffffffffffffffffffffffffffffffffff821660009081526020819052604090206060906101f383610284565b6040516020016102049291906108f6565b604051602081830303815290604052905092915050565b6102258282610342565b610280576040517f29b9b08b00000000000000000000000000000000000000000000000000000000815273ffffffffffffffffffffffffffffffffffffffff8084166004830152821660248201526044015b60405180910390fd5b5050565b606060006102918361044e565b600101905060008167ffffffffffffffff8111156102b1576102b16106f3565b6040519080825280601f01601f1916602001820160405280156102db576020820181803683370190505b5090508181016020015b7fffffffffffffffffffffffffffffffffffffffffffffffffffffffffffffffff017f3031323334353637383961626364656600000000000000000000000000000000600a86061a8153600a85049450846102e557509392505050565b600073ffffffffffffffffffffffffffffffffffffffff83163b6103aa576040517f73a5b5e300000000000000000000000000000000000000000000000000000000815273ffffffffffffffffffffffffffffffffffffffff84166004820152602401610277565b8173ffffffffffffffffffffffffffffffffffffffff168373ffffffffffffffffffffffffffffffffffffffff16638da5cb5b6040518163ffffffff1660e01b8152600401602060405180830381865afa15801561040c573d6000803e3d6000fd5b505050506040513d601f19601f82011682018060405250810190610430919061099b565b73ffffffffffffffffffffffffffffffffffffffff16149392505050565b6000807a184f03e93ff9f4daa797ed6e38ed64bf6a1f0100000000000000008310610497577a184f03e93ff9f4daa797ed6e38ed64bf6a1f010000000000000000830492506040015b6d04ee2d6d415b85acef810000000083106104c3576d04ee2d6d415b85acef8100000000830492506020015b662386f26fc1000083106104e157662386f26fc10000830492506010015b6305f5e10083106104f9576305f5e100830492506008015b612710831061050d57612710830492506004015b6064831061051f576064830492506002015b600a831061052b576001015b92915050565b73ffffffffffffffffffffffffffffffffffffffff8116811461055357600080fd5b50565b60006020828403121561056857600080fd5b813561057381610531565b9392505050565b60005b8381101561059557818101518382015260200161057d565b50506000910152565b60208152600082518060208401526105bd81604085016020870161057a565b601f017fffffffffffffffffffffffffffffffffffffffffffffffffffffffffffffffe0169190910160400192915050565b60008060006040848603121561060457600080fd5b833561060f81610531565b9250602084013567ffffffffffffffff8082111561062c57600080fd5b818601915086601f83011261064057600080fd5b81358181111561064f57600080fd5b87602082850101111561066157600080fd5b6020830194508093505050509250925092565b6000806040838503121561068757600080fd5b823561069281610531565b946020939093013593505050565b600181811c908216806106b457607f821691505b6020821081036106ed577f4e487b7100000000000000000000000000000000000000000000000000000000600052602260045260246000fd5b50919050565b7f4e487b7100000000000000000000000000000000000000000000000000000000600052604160045260246000fd5b601f82111561076c57600081815260208120601f850160051c810160208610156107495750805b601f850160051c820191505b8181101561076857828155600101610755565b5050505b505050565b67ffffffffffffffff831115610789576107896106f3565b61079d8361079783546106a0565b83610722565b6000601f8411600181146107ef57600085156107b95750838201355b7fffffffffffffffffffffffffffffffffffffffffffffffffffffffffffffffff600387901b1c1916600186901b178355610885565b6000838152602090207fffffffffffffffffffffffffffffffffffffffffffffffffffffffffffffffe0861690835b8281101561083e578685013582556020948501946001909201910161081e565b5086821015610879577fffffffffffffffffffffffffffffffffffffffffffffffffffffffffffffffff60f88860031b161c19848701351681555b505060018560011b0183555b5050505050565b73ffffffffffffffffffffffffffffffffffffffff8416815260406020820152816040820152818360608301376000818301606090810191909152601f9092017fffffffffffffffffffffffffffffffffffffffffffffffffffffffffffffffe016010192915050565b6000808454610904816106a0565b6001828116801561091c576001811461094f5761097e565b7fffffffffffffffffffffffffffffffffffffffffffffffffffffffffffffff008416875282151583028701945061097e565b8860005260208060002060005b858110156109755781548a82015290840190820161095c565b50505082870194505b50505050835161099281836020880161057a565b01949350505050565b6000602082840312156109ad57600080fd5b81516105738161053156fea264697066735822122067136c8e21f5016ddd07ee117cca2ad8e890fbe2d20653a2678210ffff2e27f464736f6c63430008150033",
  "devdoc": {
    "errors": {
      "NotTargetContractOwner(address,address)": [
        {
          "params": {
            "account": "The account that was checked.",
            "targetContract": "The contract that was checked."
          }
        }
      ],
      "TargetIsNotAContract(address)": [
        {
          "params": {
            "targetContract": "The contract that was checked"
          }
        }
      ]
    },
    "events": {
      "BaseMetadataURISet(address,string)": {
        "params": {
          "baseMetadataURI": "The base metadata URI.",
          "tokenContract": "The token contract on which the base metadata URI was set."
        }
      }
    },
    "kind": "dev",
    "methods": {
      "setBaseMetadataURI(address,string)": {
        "details": "Reverts with {NotTargetContractOwner} if the sender is not the owner of the token contract.Emits a {BaseMetadataURISet} event.",
        "params": {
          "baseURI": "The base metadata URI.",
          "tokenContract": "The token contract on which to set the base metadata URI."
        }
      },
      "tokenMetadataURI(address,uint256)": {
        "params": {
          "tokenContract": "The token contract for which to retrieve the token URI.",
          "tokenId": "The token identifier."
        },
        "returns": {
          "tokenURI": "The token metadata URI as the concatenation of the base metadata URI and the token identifier."
        }
      }
    },
    "title": "TokenMetadataResolverWithBaseURI.",
    "version": 1
  },
  "userdoc": {
    "errors": {
      "NotTargetContractOwner(address,address)": [
        {
          "notice": "Thrown when an account is not the target contract owner but is required to."
        }
      ],
      "TargetIsNotAContract(address)": [
        {
          "notice": "Thrown when the target contract is actually not a contract."
        }
      ]
    },
    "events": {
      "BaseMetadataURISet(address,string)": {
        "notice": "Emitted when the base metadata URI is set."
      }
    },
    "kind": "user",
    "methods": {
      "setBaseMetadataURI(address,string)": {
        "notice": "Sets the base metadata URI."
      },
      "tokenMetadataURI(address,uint256)": {
        "notice": "Gets the token metadata URI for a token as the concatenation of the base metadata URI and the token identifier."
      }
    },
    "notice": "Token Metadata Resolver which uses a base metadata URI concatenated with the token identifier to produce a token metadata URI.Only the owner of the target token contract can set the base metadata URI for this target contract.",
    "version": 1
  },
  "storageLayout": {
    "storage": [
      {
        "astId": 27915,
        "contract": "contracts/token/metadata/TokenMetadataResolverWithBaseURI.sol:TokenMetadataResolverWithBaseURI",
        "label": "baseMetadataURI",
        "offset": 0,
        "slot": "0",
        "type": "t_mapping(t_address,t_string_storage)"
      }
    ],
    "types": {
      "t_address": {
        "encoding": "inplace",
        "label": "address",
        "numberOfBytes": "20"
      },
      "t_mapping(t_address,t_string_storage)": {
        "encoding": "mapping",
        "key": "t_address",
        "label": "mapping(address => string)",
        "numberOfBytes": "32",
        "value": "t_string_storage"
      },
      "t_string_storage": {
        "encoding": "bytes",
        "label": "string",
        "numberOfBytes": "32"
      }
    }
  }
}